{
  "address": "0x86C03D9d2E4a4F4005d9233CE97c95CE63C858e3",
  "abi": [
    {
      "anonymous": false,
      "inputs": [
        {
          "indexed": true,
          "internalType": "address",
          "name": "addedAddress",
          "type": "address"
        }
      ],
      "name": "AddedToWhitelist",
      "type": "event"
    },
    {
      "anonymous": false,
      "inputs": [
        {
          "indexed": true,
          "internalType": "address",
          "name": "previousOwner",
          "type": "address"
        },
        {
          "indexed": true,
          "internalType": "address",
          "name": "newOwner",
          "type": "address"
        }
      ],
      "name": "OwnershipTransferred",
      "type": "event"
    },
    {
      "anonymous": false,
      "inputs": [
        {
          "indexed": true,
          "internalType": "address",
          "name": "removedAddress",
          "type": "address"
        }
      ],
      "name": "RemovedFromWhitelist",
      "type": "event"
    },
    {
      "inputs": [
        {
          "internalType": "address",
          "name": "newElement",
          "type": "address"
        }
      ],
      "name": "addToWhitelist",
      "outputs": [],
      "stateMutability": "nonpayable",
      "type": "function"
    },
    {
      "inputs": [],
      "name": "getWhitelist",
      "outputs": [
        {
          "internalType": "address[]",
          "name": "activeWhitelist",
          "type": "address[]"
        }
      ],
      "stateMutability": "view",
      "type": "function"
    },
    {
      "inputs": [
        {
          "internalType": "address",
          "name": "elementToCheck",
          "type": "address"
        }
      ],
      "name": "isOnWhitelist",
      "outputs": [
        {
          "internalType": "bool",
          "name": "",
          "type": "bool"
        }
      ],
      "stateMutability": "view",
      "type": "function"
    },
    {
      "inputs": [],
      "name": "owner",
      "outputs": [
        {
          "internalType": "address",
          "name": "",
          "type": "address"
        }
      ],
      "stateMutability": "view",
      "type": "function"
    },
    {
      "inputs": [
        {
          "internalType": "address",
          "name": "elementToRemove",
          "type": "address"
        }
      ],
      "name": "removeFromWhitelist",
      "outputs": [],
      "stateMutability": "nonpayable",
      "type": "function"
    },
    {
      "inputs": [],
      "name": "renounceOwnership",
      "outputs": [],
      "stateMutability": "nonpayable",
      "type": "function"
    },
    {
      "inputs": [
        {
          "internalType": "address",
          "name": "newOwner",
          "type": "address"
        }
      ],
      "name": "transferOwnership",
      "outputs": [],
      "stateMutability": "nonpayable",
      "type": "function"
    },
    {
      "inputs": [
        {
          "internalType": "address",
          "name": "",
          "type": "address"
        }
      ],
      "name": "whitelist",
      "outputs": [
        {
          "internalType": "enum AddressWhitelist.Status",
          "name": "",
          "type": "uint8"
        }
      ],
      "stateMutability": "view",
      "type": "function"
    },
    {
      "inputs": [
        {
          "internalType": "uint256",
          "name": "",
          "type": "uint256"
        }
      ],
      "name": "whitelistIndices",
      "outputs": [
        {
          "internalType": "address",
          "name": "",
          "type": "address"
        }
      ],
      "stateMutability": "view",
      "type": "function"
    }
  ],
  "transactionHash": "0xb6f4ae8ff19b09e3e9425527ebb8a2c75ddb98aff8c799a3040c44e2dda067aa",
  "args": [],
  "solcInputHash": "864d61c65c789401ae17358a5af86557",
  "bytecode": "0x60808060405234610064576000543360018060a01b0382167f8be0079c531659141344cd1fd0a4f28419497f9722a3daafe3b4186f6b6457e0600085a36001600160a81b0319163360ff60a01b191617600160a01b176000556108b9908161006a8239f35b600080fdfe6080604081815260048036101561001557600080fd5b600092833560e01c90816337797c08146105b8575080633a3ab67214610551578063715018a6146104f45780638ab1d681146104275780638da5cb5b146103ff5780639b19251a1461039e578063d01f63f5146101a9578063e43252d7146101515763f2fde38b1461008657600080fd5b3461014d57602036600319011261014d576001600160a01b0381358181169290839003610149576100b561065e565b82156100f7575083546001600160a01b0319811683178555925192167f8be0079c531659141344cd1fd0a4f28419497f9722a3daafe3b4186f6b6457e08484a3f35b608490602085519162461bcd60e51b8352820152602660248201527f4f776e61626c653a206e6577206f776e657220697320746865207a65726f206160448201526564647265737360d01b6064820152fd5b8480fd5b8280fd5b503461014d57602036600319011261014d57356001600160a01b038116810361014d5761017c61082e565b825460ff60a01b1990811684559061019b9061019661065e565b6106b6565b825416600160a01b17825551f35b50823461039b578060031936011261039b576101c361082e565b808092600254935b848110610328575090601f916101e084610800565b9386519484199485910116850185811067ffffffffffffffff82111761031557906102149188979694959852808452610800565b93602096878401950136863783805b828210610272575050505083519485948186019282875251809352850193925b82811061025257505050500390f35b83516001600160a01b031685528695509381019392810192600101610243565b61028182999695979899610611565b9054600391821b1c6001600160a01b031680875260018089528b8820549192909160ff169081101561030257146102ca575b50906102be906107db565b90979695939497610223565b87518210156102ef57816102e991886102be9460051b8b0101526107db565b906102b3565b634e487b7160e01b865260328552602486fd5b634e487b7160e01b885260218752602488fd5b634e487b7160e01b845260418352602484fd5b61033181610611565b9054600391821b1c6001600160a01b031684526001602081905287852054909160ff91909116908110156103885714610373575b61036e906107db565b6101cb565b9261038061036e916107db565b939050610365565b634e487b7160e01b855260218452602485fd5b80fd5b509190346103fb5760203660031901126103fb5782356001600160a01b0381169081900361014d578252600160205260ff818320541690519160038210156103e857602083838152f35b634e487b7160e01b815260218452602490fd5b5080fd5b5050346103fb57816003193601126103fb57905490516001600160a01b039091168152602090f35b503461014d57602036600319011261014d5780356001600160a01b038116908190036104f05761045561082e565b835460ff60a01b1990811685559161046b61065e565b818552600160205260ff84862054169060038210156104dd575060020361049c575b50825416600160a01b17825551f35b8084526001602052828420600260ff198254161790557fcdd2e9b91a56913d370075169cefa1602ba36be5301664f752192bb1709df757848451a23861048d565b634e487b7160e01b865260219052602485fd5b8380fd5b5050346103fb57816003193601126103fb5761050e61065e565b81546001600160a01b03198116835590519082906001600160a01b03167f8be0079c531659141344cd1fd0a4f28419497f9722a3daafe3b4186f6b6457e08284a3f35b50823461039b57602036600319011261039b5781356001600160a01b038116908190036103fb5761058061082e565b8152600160205260ff83822054169160038310156105a5576020836001865191148152f35b634e487b7160e01b825260219052602490fd5b9250503461014d57602036600319011261014d573560025481101561014d5760029092527f405787fa12a823e0f2b7631cc41b3ba8828b3321ca811111fa75cd3aa3bb5ace909101546001600160a01b03168152602090f35b6002548110156106485760026000527f405787fa12a823e0f2b7631cc41b3ba8828b3321ca811111fa75cd3aa3bb5ace0190600090565b634e487b7160e01b600052603260045260246000fd5b6000546001600160a01b0316330361067257565b606460405162461bcd60e51b815260206004820152602060248201527f4f776e61626c653a2063616c6c6572206973206e6f7420746865206f776e65726044820152fd5b6001600160a01b03908116600081815260016020819052604082205493949360ff1660038110156107c05781146107d4578282528060205260ff60408320541660038110156107c05715610745575b827fa850ae9193f515cbae8d35e8925bd2be26627fc91bce650b8652ed254e9cab0393949550825280602052604082209060ff19825416179055604051a2565b60025494680100000000000000008610156107ac578361078d87847fa850ae9193f515cbae8d35e8925bd2be26627fc91bce650b8652ed254e9cab0397989901600255610611565b909283549160031b90811b9283911b1691191617905584939250610705565b634e487b7160e01b83526041600452602483fd5b634e487b7160e01b83526021600452602483fd5b5050509050565b60001981146107ea5760010190565b634e487b7160e01b600052601160045260246000fd5b67ffffffffffffffff81116108185760051b60200190565b634e487b7160e01b600052604160045260246000fd5b60ff60005460a01c161561083e57565b60405162461bcd60e51b815260206004820152601f60248201527f5265656e7472616e637947756172643a207265656e7472616e742063616c6c006044820152606490fdfea26469706673582212206dfa2b7d4e9423044e98fe49b74ffd18122a20e22f7c5231a9f3da11204a138264736f6c63430008100033",
  "devdoc": {
    "kind": "dev",
    "methods": {
      "addToWhitelist(address)": {
        "params": {
          "newElement": "the new address to add."
        }
      },
      "getWhitelist()": {
        "details": "Note: This method skips over, but still iterates through addresses. It is possible for this call to run out of gas if a large number of addresses have been removed. To reduce the likelihood of this unlikely scenario, we can modify the implementation so that when addresses are removed, the last addresses in the array is moved to the empty index.",
        "returns": {
          "activeWhitelist": "the list of addresses on the whitelist."
        }
      },
      "isOnWhitelist(address)": {
        "params": {
          "elementToCheck": "the address to check."
        },
        "returns": {
          "_0": "True if `elementToCheck` is on the whitelist, or False."
        }
      },
      "owner()": {
        "details": "Returns the address of the current owner."
      },
      "removeFromWhitelist(address)": {
        "params": {
          "elementToRemove": "the existing address to remove."
        }
      },
      "renounceOwnership()": {
        "details": "Leaves the contract without owner. It will not be possible to call `onlyOwner` functions. Can only be called by the current owner. NOTE: Renouncing ownership will leave the contract without an owner, thereby disabling any functionality that is only available to the owner."
      },
      "transferOwnership(address)": {
        "details": "Transfers ownership of the contract to a new account (`newOwner`). Can only be called by the current owner."
      }
    },
    "title": "A contract to track a whitelist of addresses.",
    "version": 1
  },
  "userdoc": {
    "kind": "user",
    "methods": {
      "addToWhitelist(address)": {
        "notice": "Adds an address to the whitelist."
      },
      "getWhitelist()": {
        "notice": "Gets all addresses that are currently included in the whitelist."
      },
      "isOnWhitelist(address)": {
        "notice": "Checks whether an address is on the whitelist."
      },
      "removeFromWhitelist(address)": {
        "notice": "Removes an address from the whitelist."
      }
    },
    "version": 1
  },
  "storageLayout": {
    "storage": [
      {
        "astId": 4304,
        "contract": "contracts/common/implementation/AddressWhitelist.sol:AddressWhitelist",
        "label": "_owner",
        "offset": 0,
        "slot": "0",
        "type": "t_address"
      },
      {
        "astId": 16304,
        "contract": "contracts/common/implementation/AddressWhitelist.sol:AddressWhitelist",
        "label": "_notEntered",
        "offset": 20,
        "slot": "0",
        "type": "t_bool"
      },
      {
        "astId": 13819,
        "contract": "contracts/common/implementation/AddressWhitelist.sol:AddressWhitelist",
        "label": "whitelist",
        "offset": 0,
        "slot": "1",
        "type": "t_mapping(t_address,t_enum(Status)13814)"
      },
      {
        "astId": 13822,
        "contract": "contracts/common/implementation/AddressWhitelist.sol:AddressWhitelist",
        "label": "whitelistIndices",
        "offset": 0,
        "slot": "2",
        "type": "t_array(t_address)dyn_storage"
      }
    ],
    "types": {
      "t_address": {
        "encoding": "inplace",
        "label": "address",
        "numberOfBytes": "20"
      },
      "t_array(t_address)dyn_storage": {
        "base": "t_address",
        "encoding": "dynamic_array",
        "label": "address[]",
        "numberOfBytes": "32"
      },
      "t_bool": {
        "encoding": "inplace",
        "label": "bool",
        "numberOfBytes": "1"
      },
      "t_enum(Status)13814": {
        "encoding": "inplace",
        "label": "enum AddressWhitelist.Status",
        "numberOfBytes": "1"
      },
      "t_mapping(t_address,t_enum(Status)13814)": {
        "encoding": "mapping",
        "key": "t_address",
        "label": "mapping(address => enum AddressWhitelist.Status)",
        "numberOfBytes": "32",
        "value": "t_enum(Status)13814"
      }
    }
  }
}