{
  "address": "0x68D1C3B1193a2550D0D9b468fEc6813f9e11eFf3",
  "abi": [
    {
      "inputs": [
        {
          "internalType": "address",
          "name": "_parentMessenger",
          "type": "address"
        }
      ],
      "stateMutability": "nonpayable",
      "type": "constructor"
    },
    {
      "anonymous": false,
      "inputs": [
        {
          "indexed": false,
          "internalType": "bytes",
          "name": "data",
          "type": "bytes"
        },
        {
          "indexed": true,
          "internalType": "address",
          "name": "targetSpoke",
          "type": "address"
        },
        {
          "indexed": true,
          "internalType": "address",
          "name": "parentAddress",
          "type": "address"
        }
      ],
      "name": "MessageReceivedFromParent",
      "type": "event"
    },
    {
      "anonymous": false,
      "inputs": [
        {
          "indexed": false,
          "internalType": "bytes",
          "name": "data",
          "type": "bytes"
        },
        {
          "indexed": true,
          "internalType": "address",
          "name": "parentAddress",
          "type": "address"
        },
        {
          "indexed": true,
          "internalType": "address",
          "name": "oracleSpoke",
          "type": "address"
        },
        {
          "indexed": false,
          "internalType": "uint256",
          "name": "id",
          "type": "uint256"
        }
      ],
      "name": "MessageSentToParent",
      "type": "event"
    },
    {
      "anonymous": false,
      "inputs": [
        {
          "indexed": true,
          "internalType": "address",
          "name": "from",
          "type": "address"
        },
        {
          "indexed": true,
          "internalType": "address",
          "name": "to",
          "type": "address"
        },
        {
          "indexed": true,
          "internalType": "uint256",
          "name": "id",
          "type": "uint256"
        },
        {
          "indexed": false,
          "internalType": "bytes",
          "name": "data",
          "type": "bytes"
        }
      ],
      "name": "SentCrossDomainMessage",
      "type": "event"
    },
    {
      "anonymous": false,
      "inputs": [
        {
          "indexed": false,
          "internalType": "address",
          "name": "newOracleSpoke",
          "type": "address"
        }
      ],
      "name": "SetOracleSpoke",
      "type": "event"
    },
    {
      "anonymous": false,
      "inputs": [
        {
          "indexed": false,
          "internalType": "address",
          "name": "newParentMessenger",
          "type": "address"
        }
      ],
      "name": "SetParentMessenger",
      "type": "event"
    },
    {
      "inputs": [],
      "name": "oracleSpoke",
      "outputs": [
        {
          "internalType": "address",
          "name": "",
          "type": "address"
        }
      ],
      "stateMutability": "view",
      "type": "function"
    },
    {
      "inputs": [],
      "name": "parentMessenger",
      "outputs": [
        {
          "internalType": "address",
          "name": "",
          "type": "address"
        }
      ],
      "stateMutability": "view",
      "type": "function"
    },
    {
      "inputs": [
        {
          "internalType": "bytes",
          "name": "data",
          "type": "bytes"
        },
        {
          "internalType": "address",
          "name": "target",
          "type": "address"
        }
      ],
      "name": "processMessageFromCrossChainParent",
      "outputs": [],
      "stateMutability": "nonpayable",
      "type": "function"
    },
    {
      "inputs": [
        {
          "internalType": "bytes",
          "name": "data",
          "type": "bytes"
        }
      ],
      "name": "sendMessageToParent",
      "outputs": [],
      "stateMutability": "nonpayable",
      "type": "function"
    },
    {
      "inputs": [
        {
          "internalType": "address",
          "name": "newOracleSpoke",
          "type": "address"
        }
      ],
      "name": "setOracleSpoke",
      "outputs": [],
      "stateMutability": "nonpayable",
      "type": "function"
    },
    {
      "inputs": [
        {
          "internalType": "address",
          "name": "newParentMessenger",
          "type": "address"
        }
      ],
      "name": "setParentMessenger",
      "outputs": [],
      "stateMutability": "nonpayable",
      "type": "function"
    }
  ],
  "transactionHash": "0x1597be71b14000a862d797fc59ad33d954bc21ed47451f72c36e3eddda94cc70",
  "args": [
    "0xB6F40ec1765fbc00C4ceDe1181331Fd41F8775E9"
  ],
  "solcInputHash": "864d61c65c789401ae17358a5af86557",
  "bytecode": "0x60803461007d57601f6107be38819003918201601f19168301916001600160401b038311848410176100825780849260209460405283398101031261007d57516001600160a01b0381169081900361007d57600160ff19600054161760005560018060a01b0319600154161760015560405161072590816100998239f35b600080fd5b634e487b7160e01b600052604160045260246000fdfe6040608081526004908136101561001557600080fd5b600090813560e01c8063187717ce146103d95780631a50ad3014610340578063820980691461031857806398e1e16f146102ed578063c948564b1461025b5763d982ebba1461006357600080fd5b34610257576020928360031936011261025357803567ffffffffffffffff811161024f57610094903690830161055d565b9061009d61061b565b6000805460ff19908116909155845490926001600160a01b039160081c8216330361020c57956100fb8596976100ed965196879163109ff9a960e01b85840152846024840152604483019061066d565b03601f198101875286610525565b8160015416808751946349460b4d60e11b8652850152866024850152818480610127604482018a61066d565b03818b60645af19384156102025788946101ce575b506001957f5e50e1a587d775dec347a2576d8380c9e958fa233e6ca174e67ee95b76f8ce7492856101bc938a518381527f207f52cdcf76353ab088164ca547215b83f41c62766a9da43d8da780dba9f0f333918061019c8782018961066d565b0390a484885416948a5460081c169589519384938b85528b85019061066d565b918301520390a3600054161760005551f35b9093508181813d83116101fb575b6101e68183610525565b810103126101f7575192600161013c565b8780fd5b503d6101dc565b87513d8a823e3d90fd5b845162461bcd60e51b8152808401889052601c60248201527f4f6e6c792063616c6c61626c65206279206f7261636c6553706f6b65000000006044820152606490fd5b8380fd5b8280fd5b5080fd5b50346102575760203660031901126102575760016102776105b9565b7fe5fae35015b48cf9b49a43c8dc7ca108df20ad6dc988ee556e65807bdcda4b9260208354848060a01b036102b9816102b18185166106ad565b1633146105cf565b6102c161061b565b60ff1960005416941680916bffffffffffffffffffffffff60a01b161785558551908152a11760005551f35b50346102575781600319360112610257579054905160089190911c6001600160a01b03168152602090f35b503461025757816003193601126102575760015490516001600160a01b039091168152602090f35b503461025757602036600319011261025757600161035c6105b9565b7f5e60d1b338c1efe33cdc840bc15ae31e8c16ec95b6ce1e2a41d334fc28b69fbc6020838060a01b0392610396846102b1818854166106ad565b61039e61061b565b60ff1993846000541660005587546101008760a81b038360081b16906101008860a81b031916178855865191168152a1600054161760005551f35b503461025757806003193601126102575767ffffffffffffffff833581811161024f57610409903690860161055d565b6001600160a01b0394602435868116919082900361052157610432876102b181600154166106ad565b61043a61061b565b60ff1993848754168755823b1561051d57855163065fef2360e11b81526020838201529087828061046e602482018961066d565b038183885af18015610202576104d0575b5050507fb7effaeeeb3f33c4c793ac44d123d88600fdfcdc7232156dc0d70dab4e5dbe0c6104c2600195969786541693875191829160208352602083019061066d565b0390a3600054161760005551f35b81989792981161050a5785529495507fb7effaeeeb3f33c4c793ac44d123d88600fdfcdc7232156dc0d70dab4e5dbe0c6104c2600161047f565b634e487b7160e01b825260418852602482fd5b8680fd5b8580fd5b90601f8019910116810190811067ffffffffffffffff82111761054757604052565b634e487b7160e01b600052604160045260246000fd5b81601f820112156105b45780359067ffffffffffffffff82116105475760405192610592601f8401601f191660200185610525565b828452602083830101116105b457816000926020809301838601378301015290565b600080fd5b600435906001600160a01b03821682036105b457565b156105d657565b60405162461bcd60e51b815260206004820152601860248201527f4f4e4c595f434f554e544552504152545f4741544557415900000000000000006044820152606490fd5b60ff600054161561062857565b60405162461bcd60e51b815260206004820152601f60248201527f5265656e7472616e637947756172643a207265656e7472616e742063616c6c006044820152606490fd5b919082519283825260005b848110610699575050826000602080949584010152601f8019910116010190565b602081830181015184830182015201610678565b6001600160a01b03908116731111000000000000000000000000000000001111018181116106d9571690565b634e487b7160e01b600052601160045260246000fdfea2646970667358221220dc778f6232c4ad276b38c734461f253963e6f61be0d29621fd37086c2d4806b364736f6c63430008100033",
  "devdoc": {
    "details": "This contract is ownable via the onlyCrossDomainAccount modifier, restricting ownership to the cross-domain parent messenger contract that lives on L1.",
    "kind": "dev",
    "methods": {
      "constructor": {
        "params": {
          "_parentMessenger": "The address of the L1 parent messenger. Acts as the \"owner\" of this contract."
        }
      },
      "processMessageFromCrossChainParent(bytes,address)": {
        "details": "The caller must be the the parent messenger, sent over the canonical message bridge.",
        "params": {
          "data": "data message sent from the L1 messenger. Should be an encoded function call or packed data.",
          "target": "desired recipient of `data`. Target must implement the `processMessageFromParent` function. Having this as a param enables the L1 Messenger to send messages to arbitrary addresses on the L1. This is primarily used to send messages to the OracleSpoke and GovernorSpoke on L2."
        }
      },
      "sendMessageToParent(bytes)": {
        "details": "The caller must be the OracleSpoke on L2. No other contract is permissioned to call this function.The L1 target, the parent messenger, must implement processMessageFromChild to consume the message.",
        "params": {
          "data": "data message sent to the L1 messenger. Should be an encoded function call or packed data."
        }
      },
      "setOracleSpoke(address)": {
        "details": "The caller of this function must be the parent messenger, over the canonical bridge.",
        "params": {
          "newOracleSpoke": "address of the new oracle spoke, deployed on L2."
        }
      },
      "setParentMessenger(address)": {
        "details": "The caller of this function must be the parent messenger, over the canonical bridge.",
        "params": {
          "newParentMessenger": "address of the new parent messenger, deployed on L1."
        }
      }
    },
    "version": 1
  },
  "userdoc": {
    "kind": "user",
    "methods": {
      "constructor": {
        "notice": "Construct the Arbitrum_ChildMessenger contract."
      },
      "processMessageFromCrossChainParent(bytes,address)": {
        "notice": "Process a received message from the parent messenger via the canonical message bridge."
      },
      "sendMessageToParent(bytes)": {
        "notice": "Sends a message to the parent messenger via the canonical message bridge."
      },
      "setOracleSpoke(address)": {
        "notice": "Changes the stored address of the Oracle spoke, deployed on L2."
      },
      "setParentMessenger(address)": {
        "notice": "Changes the stored address of the parent messenger, deployed on L1."
      }
    },
    "notice": "Sends and receives cross chain messages between Arbitrum L2 and Ethereum L1 network.",
    "version": 1
  },
  "storageLayout": {
    "storage": [
      {
        "astId": 16304,
        "contract": "contracts/cross-chain-oracle/chain-adapters/Arbitrum_ChildMessenger.sol:Arbitrum_ChildMessenger",
        "label": "_notEntered",
        "offset": 0,
        "slot": "0",
        "type": "t_bool"
      },
      {
        "astId": 22900,
        "contract": "contracts/cross-chain-oracle/chain-adapters/Arbitrum_ChildMessenger.sol:Arbitrum_ChildMessenger",
        "label": "oracleSpoke",
        "offset": 1,
        "slot": "0",
        "type": "t_address"
      },
      {
        "astId": 22902,
        "contract": "contracts/cross-chain-oracle/chain-adapters/Arbitrum_ChildMessenger.sol:Arbitrum_ChildMessenger",
        "label": "parentMessenger",
        "offset": 0,
        "slot": "1",
        "type": "t_address"
      }
    ],
    "types": {
      "t_address": {
        "encoding": "inplace",
        "label": "address",
        "numberOfBytes": "20"
      },
      "t_bool": {
        "encoding": "inplace",
        "label": "bool",
        "numberOfBytes": "1"
      }
    }
  }
}