{
  "address": "0x538974ce3BC2717f60b1B735Dd5DA88AA3599984",
  "abi": [
    {
      "inputs": [
        {
          "internalType": "address",
          "name": "",
          "type": "address"
        }
      ],
      "name": "longShortPairParameters",
      "outputs": [
        {
          "internalType": "bool",
          "name": "isSet",
          "type": "bool"
        },
        {
          "internalType": "int256",
          "name": "strikePrice",
          "type": "int256"
        }
      ],
      "stateMutability": "view",
      "type": "function"
    },
    {
      "inputs": [
        {
          "internalType": "int256",
          "name": "expiryPrice",
          "type": "int256"
        }
      ],
      "name": "percentageLongCollateralAtExpiry",
      "outputs": [
        {
          "internalType": "uint256",
          "name": "",
          "type": "uint256"
        }
      ],
      "stateMutability": "view",
      "type": "function"
    },
    {
      "inputs": [
        {
          "internalType": "address",
          "name": "longShortPair",
          "type": "address"
        },
        {
          "internalType": "int256",
          "name": "strikePrice",
          "type": "int256"
        }
      ],
      "name": "setLongShortPairParameters",
      "outputs": [],
      "stateMutability": "nonpayable",
      "type": "function"
    }
  ],
  "transactionHash": "0x75d610ec9e264d0adf5a18454619a91eee80cf4e7fd272f95c9b3f1f5dd04034",
  "args": [],
  "solcInputHash": "864d61c65c789401ae17358a5af86557",
  "bytecode": "0x6080806040523461002357600160ff19600054161760005561042c90816100298239f35b600080fdfe6040608081526004908136101561001557600080fd5b600090813560e01c80632da52361146102405780639299cbed146101fa57639e33e2df1461004257600080fd5b346101f657806003193601126101f65761005a610272565b6100626102bf565b825460ff1990811684558251634fa1eee960e11b815290916020916001600160a01b039091169082818881855afa9081156101ec578691610191575b5015610158578085526001825260ff848620541661011c5783519184830183811067ffffffffffffffff821117610109579160018095949392819388528185528085019260243584528952528587209251151560ff8585541691161783555191015583541617825551f35b634e487b7160e01b875260418852602487fd5b835162461bcd60e51b8152808701839052601660248201527514185c985b595d195c9cc8185b1c9958591e481cd95d60521b6044820152606490fd5b835162461bcd60e51b81528087018390526013602482015272496e76616c6964204c5350206164647265737360681b6044820152606490fd5b9050823d84116101e5575b601f8101601f1916820167ffffffffffffffff8111838210176101d257849183918852810103126101ce57513861009e565b8580fd5b634e487b7160e01b885260418952602488fd5b503d61019c565b85513d88823e3d90fd5b5080fd5b50346101f65760203660031901126101f6579081906001600160a01b0361021f610272565b168152600160205220600160ff825416910154825191151582526020820152f35b50903461026f57602036600319011261026f57506102686020926102626102bf565b35610311565b9051908152f35b80fd5b600435906001600160a01b038216820361028857565b600080fd5b6020810190811067ffffffffffffffff8211176102a957604052565b634e487b7160e01b600052604160045260246000fd5b60ff60005416156102cc57565b60405162461bcd60e51b815260206004820152601f60248201527f5265656e7472616e637947756172643a207265656e7472616e742063616c6c006044820152606490fd5b6000338152600160205260409182822083519084820182811067ffffffffffffffff8211176103e25785526020600160ff8354161592831585520154920191825261039e5751136103815781516103678161028d565b52516103728161028d565b670de0b6b3a764000080915290565b818180935161038f8161028d565b525161039a8161028d565b5290565b835162461bcd60e51b815260206004820152601e60248201527f506172616d73206e6f742073657420666f722063616c6c696e67204c535000006044820152606490fd5b634e487b7160e01b85526041600452602485fdfea26469706673582212208b0ca7cbffc4da988edfaa1a9a86a898616bcfb7014a3a3b380b0b9e6799f90464736f6c63430008100033",
  "devdoc": {
    "kind": "dev",
    "methods": {
      "percentageLongCollateralAtExpiry(int256)": {
        "params": {
          "expiryPrice": "price from the optimistic oracle for the LSP price identifier."
        },
        "returns": {
          "_0": "expiryPercentLong to indicate how much collateral should be sent between long and short tokens."
        }
      },
      "setLongShortPairParameters(address,int256)": {
        "details": "Note: a) Any address can set the initial strike price b) A strike can be 0. c) A strike price can only be set once to prevent the deployer from changing the strike after the fact. d) For safety, a strike price should be set before depositing any synthetic tokens in a liquidity pool. e) longShortPair must expose an expirationTimestamp method to validate it is correctly deployed.",
        "params": {
          "longShortPair": "address of the LSP.",
          "strikePrice": "the strike price for the binary option."
        }
      }
    },
    "title": "Binary Option Long Short Pair Financial Product Library.",
    "version": 1
  },
  "userdoc": {
    "kind": "user",
    "methods": {
      "percentageLongCollateralAtExpiry(int256)": {
        "notice": "Returns a number between 0 and 1e18 to indicate how much collateral each long and short token are entitled to per collateralPerPair."
      },
      "setLongShortPairParameters(address,int256)": {
        "notice": "Enables any address to set the strike price for an associated binary option."
      }
    },
    "notice": "Adds settlement logic to binary option LSPs. Binary options settle with all collateral allocated to either the long or short side, depending on the settlement price. They can be used to make prediction markets or any kind of binary bet. Settlement is defined using a strike price which informs which side of the bet was correct. If settlement price is greater or equal to the strike then all value is sent to the long side. Otherwise, all value is sent to the short side. The settlement price could be a scalar (like the price of ETH) or a binary bet with settlement being 0 or 1 depending on the outcome.",
    "version": 1
  },
  "storageLayout": {
    "storage": [
      {
        "astId": 16304,
        "contract": "contracts/financial-templates/common/financial-product-libraries/long-short-pair-libraries/BinaryOptionLongShortPairFinancialProductLibrary.sol:BinaryOptionLongShortPairFinancialProductLibrary",
        "label": "_notEntered",
        "offset": 0,
        "slot": "0",
        "type": "t_bool"
      },
      {
        "astId": 43695,
        "contract": "contracts/financial-templates/common/financial-product-libraries/long-short-pair-libraries/BinaryOptionLongShortPairFinancialProductLibrary.sol:BinaryOptionLongShortPairFinancialProductLibrary",
        "label": "longShortPairParameters",
        "offset": 0,
        "slot": "1",
        "type": "t_mapping(t_address,t_struct(BinaryLongShortPairParameters)43690_storage)"
      }
    ],
    "types": {
      "t_address": {
        "encoding": "inplace",
        "label": "address",
        "numberOfBytes": "20"
      },
      "t_bool": {
        "encoding": "inplace",
        "label": "bool",
        "numberOfBytes": "1"
      },
      "t_int256": {
        "encoding": "inplace",
        "label": "int256",
        "numberOfBytes": "32"
      },
      "t_mapping(t_address,t_struct(BinaryLongShortPairParameters)43690_storage)": {
        "encoding": "mapping",
        "key": "t_address",
        "label": "mapping(address => struct BinaryOptionLongShortPairFinancialProductLibrary.BinaryLongShortPairParameters)",
        "numberOfBytes": "32",
        "value": "t_struct(BinaryLongShortPairParameters)43690_storage"
      },
      "t_struct(BinaryLongShortPairParameters)43690_storage": {
        "encoding": "inplace",
        "label": "struct BinaryOptionLongShortPairFinancialProductLibrary.BinaryLongShortPairParameters",
        "members": [
          {
            "astId": 43687,
            "contract": "contracts/financial-templates/common/financial-product-libraries/long-short-pair-libraries/BinaryOptionLongShortPairFinancialProductLibrary.sol:BinaryOptionLongShortPairFinancialProductLibrary",
            "label": "isSet",
            "offset": 0,
            "slot": "0",
            "type": "t_bool"
          },
          {
            "astId": 43689,
            "contract": "contracts/financial-templates/common/financial-product-libraries/long-short-pair-libraries/BinaryOptionLongShortPairFinancialProductLibrary.sol:BinaryOptionLongShortPairFinancialProductLibrary",
            "label": "strikePrice",
            "offset": 0,
            "slot": "1",
            "type": "t_int256"
          }
        ],
        "numberOfBytes": "64"
      }
    }
  }
}