{
  "address": "0x1938f3070069Aa37C1B1927e261684274Eb61A09",
  "abi": [
    {
      "inputs": [
        {
          "internalType": "address",
          "name": "_parentMessenger",
          "type": "address"
        }
      ],
      "stateMutability": "nonpayable",
      "type": "constructor"
    },
    {
      "anonymous": false,
      "inputs": [
        {
          "indexed": false,
          "internalType": "bytes",
          "name": "data",
          "type": "bytes"
        },
        {
          "indexed": true,
          "internalType": "address",
          "name": "targetSpoke",
          "type": "address"
        },
        {
          "indexed": true,
          "internalType": "address",
          "name": "parentAddress",
          "type": "address"
        }
      ],
      "name": "MessageReceivedFromParent",
      "type": "event"
    },
    {
      "anonymous": false,
      "inputs": [
        {
          "indexed": false,
          "internalType": "bytes",
          "name": "data",
          "type": "bytes"
        },
        {
          "indexed": true,
          "internalType": "address",
          "name": "parentAddress",
          "type": "address"
        },
        {
          "indexed": false,
          "internalType": "address",
          "name": "oracleSpoke",
          "type": "address"
        },
        {
          "indexed": false,
          "internalType": "uint32",
          "name": "gasLimit",
          "type": "uint32"
        }
      ],
      "name": "MessageSentToParent",
      "type": "event"
    },
    {
      "anonymous": false,
      "inputs": [
        {
          "indexed": false,
          "internalType": "uint32",
          "name": "newDefaultGasLimit",
          "type": "uint32"
        }
      ],
      "name": "SetDefaultGasLimit",
      "type": "event"
    },
    {
      "anonymous": false,
      "inputs": [
        {
          "indexed": false,
          "internalType": "address",
          "name": "newOracleSpoke",
          "type": "address"
        }
      ],
      "name": "SetOracleSpoke",
      "type": "event"
    },
    {
      "anonymous": false,
      "inputs": [
        {
          "indexed": false,
          "internalType": "address",
          "name": "newParentMessenger",
          "type": "address"
        }
      ],
      "name": "SetParentMessenger",
      "type": "event"
    },
    {
      "inputs": [],
      "name": "defaultGasLimit",
      "outputs": [
        {
          "internalType": "uint32",
          "name": "",
          "type": "uint32"
        }
      ],
      "stateMutability": "view",
      "type": "function"
    },
    {
      "inputs": [],
      "name": "messenger",
      "outputs": [
        {
          "internalType": "address",
          "name": "",
          "type": "address"
        }
      ],
      "stateMutability": "view",
      "type": "function"
    },
    {
      "inputs": [],
      "name": "oracleSpoke",
      "outputs": [
        {
          "internalType": "address",
          "name": "",
          "type": "address"
        }
      ],
      "stateMutability": "view",
      "type": "function"
    },
    {
      "inputs": [],
      "name": "parentMessenger",
      "outputs": [
        {
          "internalType": "address",
          "name": "",
          "type": "address"
        }
      ],
      "stateMutability": "view",
      "type": "function"
    },
    {
      "inputs": [
        {
          "internalType": "bytes",
          "name": "data",
          "type": "bytes"
        },
        {
          "internalType": "address",
          "name": "target",
          "type": "address"
        }
      ],
      "name": "processMessageFromCrossChainParent",
      "outputs": [],
      "stateMutability": "nonpayable",
      "type": "function"
    },
    {
      "inputs": [
        {
          "internalType": "bytes",
          "name": "data",
          "type": "bytes"
        }
      ],
      "name": "sendMessageToParent",
      "outputs": [],
      "stateMutability": "nonpayable",
      "type": "function"
    },
    {
      "inputs": [
        {
          "internalType": "uint32",
          "name": "newDefaultGasLimit",
          "type": "uint32"
        }
      ],
      "name": "setDefaultGasLimit",
      "outputs": [],
      "stateMutability": "nonpayable",
      "type": "function"
    },
    {
      "inputs": [
        {
          "internalType": "address",
          "name": "newOracleSpoke",
          "type": "address"
        }
      ],
      "name": "setOracleSpoke",
      "outputs": [],
      "stateMutability": "nonpayable",
      "type": "function"
    },
    {
      "inputs": [
        {
          "internalType": "address",
          "name": "newParentMessenger",
          "type": "address"
        }
      ],
      "name": "setParentMessenger",
      "outputs": [],
      "stateMutability": "nonpayable",
      "type": "function"
    }
  ],
  "transactionHash": "0xf96958baa661db38510b7b9cc41e369ec63fdd1cb31d006da3832fb6cf6ce705",
  "args": [
    "0xBe145D99E7C873EABb9d554881bf87771003d410"
  ],
  "solcInputHash": "864d61c65c789401ae17358a5af86557",
  "bytecode": "0x6080346100a257601f610aa138819003918201601f19168301916001600160401b038311848410176100a7578084926020946040528339810103126100a257516001600160a01b038116908190036100a257600080546001600160a81b03191674014200000000000000000000000000000000000007179055600280546001600160c01b0319169091176201312d60a61b1790556040516109e390816100be8239f35b600080fd5b634e487b7160e01b600052604160045260246000fdfe6040608081526004908136101561001557600080fd5b600091823560e01c8063187717ce146105e15780631a50ad30146104f95780633cb747bf146104d1578063524b6f70146103ca57806382098069146103a157806395368d2e1461037957806398e1e16f1461034c578063c948564b146102505763d982ebba1461008457600080fd5b3461020557602036600319011261020557803567ffffffffffffffff811161024c576100b390369083016107bf565b906100bc610918565b6000805460ff60a01b1990811690915560015490926001600160a01b039182163303610209579061011b61010d92865193849163109ff9a960e01b602084015260206024840152604483019061096d565b03601f19810184528361079d565b85600254938282541690813b156102055782908851928391633dbb202b60e01b8352868916908301526060602483015281838161015b606482018b61096d565b63ffffffff809c60a01c16604483015203925af180156101fb576101e3575b50507fc0fa0dc1fc5369b5e0fec9697d4d44f231a6a52bd4cbd29b4f6e8a21ab2f5257916101be91600254816001541695885194859460608652606086019061096d565b9660208501528160a01c168884015216930390a2600160a01b90600054161760005551f35b6101ec90610773565b6101f757853861017a565b8580fd5b87513d84823e3d90fd5b8280fd5b845162461bcd60e51b8152602081850152601c60248201527f4f6e6c792063616c6c61626c65206279206f7261636c6553706f6b65000000006044820152606490fd5b8380fd5b50346102055760203660031901126102055761026a61081b565b9060025460018060a01b0390602082875416610287813314610831565b8651636e296e4560e01b815294859182905afa918215610342576102dc6020937fe5fae35015b48cf9b49a43c8dc7ca108df20ad6dc988ee556e65807bdcda4b92958991610315575b508216838316146108b3565b6102e4610918565b6000546001600160a01b03199092169416938417600255845193845260ff60a01b191692a1600160a01b1760005551f35b6103359150853d811161033b575b61032d818361079d565b810190610894565b386102d0565b503d610323565b85513d88823e3d90fd5b50503461037557816003193601126103755760015490516001600160a01b039091168152602090f35b5080fd5b50503461037557816003193601126103755760209063ffffffff60025460a01c169051908152f35b50503461037557816003193601126103755760025490516001600160a01b039091168152602090f35b50346102055760203660031901126102055780359063ffffffff82168083036104cd5760025485546001600160a01b03929190602090841661040d338214610831565b8751636e296e4560e01b815295869182905afa9384156104c3577f82420e5818c266bec5ae52072a057f0b7dae2f148dfa3cc4d2d94fcba1e99cfb94602094610463928a926104a4575b508084169116146108b3565b61046b610918565b60ff60a01b19600054169463ffffffff60a01b9060a01b169063ffffffff60a01b1916176002558451908152a1600160a01b1760005551f35b6104bc919250863d811161033b5761032d818361079d565b9038610457565b86513d89823e3d90fd5b8480fd5b505034610375578160031936011261037557905490516001600160a01b039091168152602090f35b50346102055760203660031901126102055761051361081b565b9060018060a01b0390816002541691602081875416610533813314610831565b8651636e296e4560e01b815293849182905afa8015610342577f5e60d1b338c1efe33cdc840bc15ae31e8c16ec95b6ce1e2a41d334fc28b69fbc9382610585926020958a916105c4575b5016146108b3565b61058d610918565b60ff60a01b19600054169316806bffffffffffffffffffffffff60a01b60015416176001558451908152a1600160a01b1760005551f35b6105db9150863d811161033b5761032d818361079d565b3861057d565b5034610205578160031936011261020557803567ffffffffffffffff811161024c5761061090369083016107bf565b6001600160a01b039060243582811691908290036101f75782600254169286549481861661063f813314610831565b8751958691636e296e4560e01b835282846020998a935afa918215610769576106729285918c91610752575016146108b3565b61067a610918565b60ff60a01b199586168855833b1561074e57865163065fef2360e11b81529081018590528781806106ae602482018761096d565b038183885af180156107445761070f575b50907fb7effaeeeb3f33c4c793ac44d123d88600fdfcdc7232156dc0d70dab4e5dbe0c9160025416936106fb875192828493845283019061096d565b0390a3600160a01b90600054161760005551f35b9661073c7fb7effaeeeb3f33c4c793ac44d123d88600fdfcdc7232156dc0d70dab4e5dbe0c939298610773565b9690916106bf565b87513d8a823e3d90fd5b8780fd5b6105db9150893d8b1161033b5761032d818361079d565b89513d8c823e3d90fd5b67ffffffffffffffff811161078757604052565b634e487b7160e01b600052604160045260246000fd5b90601f8019910116810190811067ffffffffffffffff82111761078757604052565b81601f820112156108165780359067ffffffffffffffff821161078757604051926107f4601f8401601f19166020018561079d565b8284526020838301011161081657816000926020809301838601378301015290565b600080fd5b600435906001600160a01b038216820361081657565b1561083857565b60405162461bcd60e51b815260206004820152602e60248201527f4f564d5f58434841494e3a206d657373656e67657220636f6e7472616374207560448201526d1b985d5d1a195b9d1a58d85d195960921b6064820152608490fd5b9081602091031261081657516001600160a01b03811681036108165790565b156108ba57565b60405162461bcd60e51b815260206004820152603060248201527f4f564d5f58434841494e3a2077726f6e672073656e646572206f662063726f7360448201526f732d646f6d61696e206d65737361676560801b6064820152608490fd5b60ff60005460a01c161561092857565b60405162461bcd60e51b815260206004820152601f60248201527f5265656e7472616e637947756172643a207265656e7472616e742063616c6c006044820152606490fd5b919082519283825260005b848110610999575050826000602080949584010152601f8019910116010190565b60208183018101518483018201520161097856fea2646970667358221220a416e1ff7073f4c2e17f4244add4d4a09c49b1e1b11358d211e8480cc74fba8a64736f6c63430008100033",
  "devdoc": {
    "details": "This contract is ownable via the onlyFromCrossDomainAccount. modifier, restricting ownership to the cross-domain parent messenger contract that lives on L1.",
    "kind": "dev",
    "methods": {
      "constructor": {
        "params": {
          "_parentMessenger": "The address of the L1 parent messenger. Acts as the \"owner\" of this contract."
        }
      },
      "processMessageFromCrossChainParent(bytes,address)": {
        "details": "The caller must be the the parent messenger, sent over the canonical message bridge.",
        "params": {
          "data": "data message sent from the L1 messenger. Should be an encoded function call or packed data.",
          "target": "desired recipient of `data`. Target must implement the `processMessageFromParent` function. Having this as a param enables the L1 Messenger to send messages to arbitrary addresses on the L2. This is primarily used to send messages to the OracleSpoke and GovernorSpoke on L2."
        }
      },
      "sendMessageToParent(bytes)": {
        "details": "The caller must be the OracleSpoke on L2. No other contract is permissioned to call this function.The L1 target, the parent messenger, must implement processMessageFromChild to consume the message.",
        "params": {
          "data": "data message sent to the L1 messenger. Should be an encoded function call or packed data."
        }
      },
      "setDefaultGasLimit(uint32)": {
        "details": "The caller of this function must be the parent messenger, over the canonical bridge.",
        "params": {
          "newDefaultGasLimit": "the new L1 gas limit to be set."
        }
      },
      "setOracleSpoke(address)": {
        "details": "The caller of this function must be the parent messenger, over the canonical bridge.",
        "params": {
          "newOracleSpoke": "address of the new oracle spoke, deployed on L2."
        }
      },
      "setParentMessenger(address)": {
        "details": "The caller of this function must be the parent messenger, over the canonical bridge.",
        "params": {
          "newParentMessenger": "address of the new parent messenger, deployed on L1."
        }
      }
    },
    "version": 1
  },
  "userdoc": {
    "kind": "user",
    "methods": {
      "constructor": {
        "notice": "Construct the Optimism_ChildMessenger contract."
      },
      "processMessageFromCrossChainParent(bytes,address)": {
        "notice": "Process a received message from the parent messenger via the canonical message bridge."
      },
      "sendMessageToParent(bytes)": {
        "notice": "Sends a message to the parent messenger via the canonical message bridge."
      },
      "setDefaultGasLimit(uint32)": {
        "notice": "Changes the default gas limit that is sent along with transactions to Ethereum."
      },
      "setOracleSpoke(address)": {
        "notice": "Changes the stored address of the Oracle spoke, deployed on L2."
      },
      "setParentMessenger(address)": {
        "notice": "Changes the stored address of the parent messenger, deployed on L1."
      }
    },
    "notice": "Sends cross chain messages from Optimism L2 to Ethereum L1 network.",
    "version": 1
  },
  "storageLayout": {
    "storage": [
      {
        "astId": 6,
        "contract": "contracts/cross-chain-oracle/chain-adapters/Optimism_ChildMessenger.sol:Optimism_ChildMessenger",
        "label": "messenger",
        "offset": 0,
        "slot": "0",
        "type": "t_address"
      },
      {
        "astId": 16304,
        "contract": "contracts/cross-chain-oracle/chain-adapters/Optimism_ChildMessenger.sol:Optimism_ChildMessenger",
        "label": "_notEntered",
        "offset": 20,
        "slot": "0",
        "type": "t_bool"
      },
      {
        "astId": 23422,
        "contract": "contracts/cross-chain-oracle/chain-adapters/Optimism_ChildMessenger.sol:Optimism_ChildMessenger",
        "label": "oracleSpoke",
        "offset": 0,
        "slot": "1",
        "type": "t_address"
      },
      {
        "astId": 23424,
        "contract": "contracts/cross-chain-oracle/chain-adapters/Optimism_ChildMessenger.sol:Optimism_ChildMessenger",
        "label": "parentMessenger",
        "offset": 0,
        "slot": "2",
        "type": "t_address"
      },
      {
        "astId": 23427,
        "contract": "contracts/cross-chain-oracle/chain-adapters/Optimism_ChildMessenger.sol:Optimism_ChildMessenger",
        "label": "defaultGasLimit",
        "offset": 20,
        "slot": "2",
        "type": "t_uint32"
      }
    ],
    "types": {
      "t_address": {
        "encoding": "inplace",
        "label": "address",
        "numberOfBytes": "20"
      },
      "t_bool": {
        "encoding": "inplace",
        "label": "bool",
        "numberOfBytes": "1"
      },
      "t_uint32": {
        "encoding": "inplace",
        "label": "uint32",
        "numberOfBytes": "4"
      }
    }
  }
}