{
  "address": "0xfc7fd69977c74aa7eD5D9c107C88bFE7Cc88ebE6",
  "abi": [
    {
      "inputs": [
        {
          "internalType": "address",
          "name": "",
          "type": "address"
        }
      ],
      "name": "longShortPairStrikePrices",
      "outputs": [
        {
          "internalType": "uint256",
          "name": "",
          "type": "uint256"
        }
      ],
      "stateMutability": "view",
      "type": "function"
    },
    {
      "inputs": [
        {
          "internalType": "int256",
          "name": "expiryPrice",
          "type": "int256"
        }
      ],
      "name": "percentageLongCollateralAtExpiry",
      "outputs": [
        {
          "internalType": "uint256",
          "name": "",
          "type": "uint256"
        }
      ],
      "stateMutability": "view",
      "type": "function"
    },
    {
      "inputs": [
        {
          "internalType": "address",
          "name": "longShortPair",
          "type": "address"
        },
        {
          "internalType": "uint256",
          "name": "strikePrice",
          "type": "uint256"
        }
      ],
      "name": "setLongShortPairParameters",
      "outputs": [],
      "stateMutability": "nonpayable",
      "type": "function"
    }
  ],
  "transactionHash": "0x919b1ac7e7f36e9461b144e31e3f3ba32a832f64b97e70f882ac349140d03b98",
  "args": [],
  "solcInputHash": "864d61c65c789401ae17358a5af86557",
  "bytecode": "0x6080806040523461002357600160ff19600054161760005561044b90816100298239f35b600080fdfe6040608081526004908136101561001557600080fd5b600091823560e01c80632da52361146101e85780636cf3f769146101ac576371b0b3601461004257600080fd5b346101a857816003193601126101a85761005a61021a565b90610063610267565b835460ff1990811685558351634fa1eee960e11b815290926020926001600160a01b039091169183818381865afa90811561019e578791610143575b501561010a5781865260018352848620546100ce57506001929183918652526024358385205583541617825551f35b845162461bcd60e51b8152908101839052601660248201527514185c985b595d195c9cc8185b1c9958591e481cd95d60521b6044820152606490fd5b845162461bcd60e51b81529081018390526013602482015272496e76616c6964204c5350206164647265737360681b6044820152606490fd5b9050833d8511610197575b601f8101601f1916820167ffffffffffffffff811183821017610184578591839189528101031261018057513861009f565b8680fd5b634e487b7160e01b895260418452602489fd5b503d61014e565b86513d89823e3d90fd5b8280fd5b5050346101e45760203660031901126101e45760209181906001600160a01b036101d461021a565b1681526001845220549051908152f35b5080fd5b509134610217576020366003190112610217575061021060209261020a610267565b356102b9565b9051908152f35b80fd5b600435906001600160a01b038216820361023057565b600080fd5b6020810190811067ffffffffffffffff82111761025157604052565b634e487b7160e01b600052604160045260246000fd5b60ff600054161561027457565b60405162461bcd60e51b815260206004820152601f60248201527f5265656e7472616e637947756172643a207265656e7472616e742063616c6c006044820152606490fd5b600033815260016020526040918282205480156103d15782821280156103c8575b6103ad5783516102e981610235565b8281528451916102f883610235565b825283855161030681610235565b5251905181039081116103995783519061031f82610235565b815283519161032d83610235565b825282845161033b81610235565b5251670de0b6b3a764000091816000190483118215151661038557519283156103715750020480915161036d81610235565b5290565b634e487b7160e01b81526012600452602490fd5b634e487b7160e01b84526011600452602484fd5b634e487b7160e01b83526011600452602483fd5b505081818093516103bd81610235565b525161036d81610235565b508082106102da565b835162461bcd60e51b815260206004820152601e60248201527f506172616d73206e6f742073657420666f722063616c6c696e67204c535000006044820152606490fdfea2646970667358221220459086e5d3f5a60a67bb3ba3f31d93f26de4135a72a3478503b525154920591664736f6c63430008100033",
  "devdoc": {
    "kind": "dev",
    "methods": {
      "percentageLongCollateralAtExpiry(int256)": {
        "params": {
          "expiryPrice": "price from the optimistic oracle for the LSP price identifier."
        },
        "returns": {
          "_0": "expiryPercentLong to indicate how much collateral should be sent between long and short tokens."
        }
      },
      "setLongShortPairParameters(address,uint256)": {
        "details": "Note: a) Any address can set the initial strike price b) A strike price cannot be 0. c) A strike price can only be set once to prevent the deployer from changing the strike after the fact. d) For safety, a strike price should be set before depositing any synthetic tokens in a liquidity pool. e) longShortPair must expose an expirationTimestamp method to validate it is correctly deployed.",
        "params": {
          "longShortPair": "address of the LSP.",
          "strikePrice": "the strike price for the covered call for the associated LSP."
        }
      }
    },
    "title": "Covered call Long Short Pair Financial Product Library.",
    "version": 1
  },
  "userdoc": {
    "kind": "user",
    "methods": {
      "percentageLongCollateralAtExpiry(int256)": {
        "notice": "Returns a number between 0 and 1e18 to indicate how much collateral each long and short token are entitled to per collateralPerPair."
      },
      "setLongShortPairParameters(address,uint256)": {
        "notice": "Enables any address to set the strike price for an associated LSP."
      }
    },
    "notice": "Adds settlement logic to create covered call LSPs. The contract will payout a scaled amount of collateral depending on where the settlement price lands relative to the call's strike price. If the settlement is below the strike price then longs expire worthless. If the settlement is above the strike then the payout is the fraction above the strike defined by (expiryPrice - strikePrice) / expiryPrice. For example, consider a covered call option collateralized in ETH, with a strike a price of 3000. - If the price is less than 3000 then the each long is worth 0 and each short is worth collateralPerPair. - If the price is more than 3000 then each long is worth the fraction of collateralPerPair that was in the money and each short is worth the remaining collateralPerPair. - Say settlement price is 3500.  Then expiryPercentLong = (3500 - 3000) / 3500 = 0.143. The value of this 0.143 ETH is worth 0.143*3500=500 which is the percentage of the collateralPerPair that was above the strike price.",
    "version": 1
  },
  "storageLayout": {
    "storage": [
      {
        "astId": 16304,
        "contract": "contracts/financial-templates/common/financial-product-libraries/long-short-pair-libraries/CoveredCallLongShortPairFinancialProductLibrary.sol:CoveredCallLongShortPairFinancialProductLibrary",
        "label": "_notEntered",
        "offset": 0,
        "slot": "0",
        "type": "t_bool"
      },
      {
        "astId": 43916,
        "contract": "contracts/financial-templates/common/financial-product-libraries/long-short-pair-libraries/CoveredCallLongShortPairFinancialProductLibrary.sol:CoveredCallLongShortPairFinancialProductLibrary",
        "label": "longShortPairStrikePrices",
        "offset": 0,
        "slot": "1",
        "type": "t_mapping(t_address,t_uint256)"
      }
    ],
    "types": {
      "t_address": {
        "encoding": "inplace",
        "label": "address",
        "numberOfBytes": "20"
      },
      "t_bool": {
        "encoding": "inplace",
        "label": "bool",
        "numberOfBytes": "1"
      },
      "t_mapping(t_address,t_uint256)": {
        "encoding": "mapping",
        "key": "t_address",
        "label": "mapping(address => uint256)",
        "numberOfBytes": "32",
        "value": "t_uint256"
      },
      "t_uint256": {
        "encoding": "inplace",
        "label": "uint256",
        "numberOfBytes": "32"
      }
    }
  }
}