{
  "address": "0x9bfa3265fD4084ce1b7a2d505C24Ac1453B9Fd2b",
  "abi": [
    {
      "inputs": [
        {
          "internalType": "address",
          "name": "finderAddress",
          "type": "address"
        }
      ],
      "stateMutability": "nonpayable",
      "type": "constructor"
    },
    {
      "anonymous": false,
      "inputs": [
        {
          "indexed": true,
          "internalType": "uint256",
          "name": "roleId",
          "type": "uint256"
        },
        {
          "indexed": true,
          "internalType": "address",
          "name": "newMember",
          "type": "address"
        },
        {
          "indexed": true,
          "internalType": "address",
          "name": "manager",
          "type": "address"
        }
      ],
      "name": "AddedSharedMember",
      "type": "event"
    },
    {
      "anonymous": false,
      "inputs": [
        {
          "indexed": true,
          "internalType": "uint256",
          "name": "roleId",
          "type": "uint256"
        },
        {
          "indexed": true,
          "internalType": "address",
          "name": "oldMember",
          "type": "address"
        },
        {
          "indexed": true,
          "internalType": "address",
          "name": "manager",
          "type": "address"
        }
      ],
      "name": "RemovedSharedMember",
      "type": "event"
    },
    {
      "anonymous": false,
      "inputs": [
        {
          "indexed": true,
          "internalType": "uint256",
          "name": "roleId",
          "type": "uint256"
        },
        {
          "indexed": true,
          "internalType": "address",
          "name": "newMember",
          "type": "address"
        },
        {
          "indexed": true,
          "internalType": "address",
          "name": "manager",
          "type": "address"
        }
      ],
      "name": "ResetExclusiveMember",
      "type": "event"
    },
    {
      "inputs": [
        {
          "internalType": "uint256",
          "name": "roleId",
          "type": "uint256"
        },
        {
          "internalType": "address",
          "name": "newMember",
          "type": "address"
        }
      ],
      "name": "addMember",
      "outputs": [],
      "stateMutability": "nonpayable",
      "type": "function"
    },
    {
      "inputs": [
        {
          "internalType": "address",
          "name": "",
          "type": "address"
        }
      ],
      "name": "designatedVotingContracts",
      "outputs": [
        {
          "internalType": "contract DesignatedVoting",
          "name": "",
          "type": "address"
        }
      ],
      "stateMutability": "view",
      "type": "function"
    },
    {
      "inputs": [
        {
          "internalType": "uint256",
          "name": "roleId",
          "type": "uint256"
        }
      ],
      "name": "getMember",
      "outputs": [
        {
          "internalType": "address",
          "name": "",
          "type": "address"
        }
      ],
      "stateMutability": "view",
      "type": "function"
    },
    {
      "inputs": [
        {
          "internalType": "uint256",
          "name": "roleId",
          "type": "uint256"
        },
        {
          "internalType": "address",
          "name": "memberToCheck",
          "type": "address"
        }
      ],
      "name": "holdsRole",
      "outputs": [
        {
          "internalType": "bool",
          "name": "",
          "type": "bool"
        }
      ],
      "stateMutability": "view",
      "type": "function"
    },
    {
      "inputs": [
        {
          "internalType": "address",
          "name": "ownerAddress",
          "type": "address"
        }
      ],
      "name": "newDesignatedVoting",
      "outputs": [
        {
          "internalType": "contract DesignatedVoting",
          "name": "",
          "type": "address"
        }
      ],
      "stateMutability": "nonpayable",
      "type": "function"
    },
    {
      "inputs": [
        {
          "internalType": "uint256",
          "name": "roleId",
          "type": "uint256"
        },
        {
          "internalType": "address",
          "name": "memberToRemove",
          "type": "address"
        }
      ],
      "name": "removeMember",
      "outputs": [],
      "stateMutability": "nonpayable",
      "type": "function"
    },
    {
      "inputs": [
        {
          "internalType": "uint256",
          "name": "roleId",
          "type": "uint256"
        }
      ],
      "name": "renounceMembership",
      "outputs": [],
      "stateMutability": "nonpayable",
      "type": "function"
    },
    {
      "inputs": [
        {
          "internalType": "uint256",
          "name": "roleId",
          "type": "uint256"
        },
        {
          "internalType": "address",
          "name": "newMember",
          "type": "address"
        }
      ],
      "name": "resetMember",
      "outputs": [],
      "stateMutability": "nonpayable",
      "type": "function"
    },
    {
      "inputs": [
        {
          "internalType": "address",
          "name": "designatedVotingAddress",
          "type": "address"
        }
      ],
      "name": "setDesignatedVoting",
      "outputs": [],
      "stateMutability": "nonpayable",
      "type": "function"
    },
    {
      "inputs": [
        {
          "internalType": "uint256",
          "name": "amount",
          "type": "uint256"
        }
      ],
      "name": "withdraw",
      "outputs": [],
      "stateMutability": "nonpayable",
      "type": "function"
    },
    {
      "inputs": [
        {
          "internalType": "address",
          "name": "erc20Address",
          "type": "address"
        },
        {
          "internalType": "uint256",
          "name": "amount",
          "type": "uint256"
        }
      ],
      "name": "withdrawErc20",
      "outputs": [],
      "stateMutability": "nonpayable",
      "type": "function"
    }
  ],
  "transactionHash": "0xedb7937ad1d780184544dbf63e64fce9b6f5aaaf4c2e9c3db82ab0a33e14db75",
  "args": [
    "0xA969917A4dFaB07936dEc60f70FA5c736A1e2b9e"
  ],
  "solcInputHash": "864d61c65c789401ae17358a5af86557",
  "bytecode": "0x60803461020a57601f6126a438819003918201601f1916830192916001600160401b0384118385101761020f578083926040958652833960209283918101031261020a57516001600160a01b0381169081900361020a5760018060a01b0319908160025416176002556000908160015581805281835260ff600185842001541660038110156101f6576101b257818052818352600284832060018101600160ff198254161790558381550190331561016257815416331790558080528082528281206001015460ff1690600382101561014e5750156100e657505161247e90816102268239f35b608491519062461bcd60e51b82526004820152603c60248201527f417474656d7074656420746f2075736520616e20696e76616c696420726f6c6560448201527f20746f206d616e61676520616e206578636c757369766520726f6c65000000006064820152fd5b634e487b7160e01b81526021600452602490fd5b845162461bcd60e51b815260048101859052602360248201527f43616e6e6f742073657420616e206578636c757369766520726f6c6520746f2060448201526203078360ec1b6064820152608490fd5b835162461bcd60e51b815260048101849052601e60248201527f43616e6e6f74207573652061207072652d6578697374696e6720726f6c6500006044820152606490fd5b634e487b7160e01b83526021600452602483fd5b600080fd5b634e487b7160e01b600052604160045260246000fdfe6040608081526004803610156200001557600080fd5b600091823560e01c80632e1a7d4d14620007e457806349ed510f14620007a55780635e07dd5b14620006e95780636be7658b146200060a57806374d0a67614620005065780637cbf876b14620004b55780637cdc1cb9146200047e578063aaa14ca314620003c9578063ab3545e51462000352578063bd1f4b5214620001cd5763d97c05be14620000a557600080fd5b34620001c95780600319360112620001c957813590620000c4620008fc565b8285528460205260ff60018387200154166003811015620001b6576001620000ed9114620009c3565b828552846020526200010e6200010883872054339062000913565b62000a28565b828552846020526002828620019060018060a01b031693841562000167575080546001600160a01b03191684179055519133917f3b855c56b409b671c7112789d022675eb639d0bcb8896f1b6197c132f799e7468585a4f35b608490602084519162461bcd60e51b8352820152602360248201527f43616e6e6f742073657420616e206578636c757369766520726f6c6520746f2060448201526203078360ec1b6064820152fd5b634e487b7160e01b865260218552602486fd5b8280fd5b509034620001c95781600319360112620001c957620001eb620008e0565b62000204620001fe600154339062000913565b62000ae3565b60018060a01b03168251906020820163a9059cbb60e01b8152336024840152602435604484015260448352608083019267ffffffffffffffff818510818611176200033f5760c08201908111858210176200033f578652602084527f5361666545524332303a206c6f772d6c6576656c2063616c6c206661696c656460a082015251620002a69392918791829182855af16200029f62000b3b565b9162000b9f565b805190811591821562000315575b505015620002c0575051f35b6020608492519162461bcd60e51b8352820152602a60248201527f5361666545524332303a204552433230206f7065726174696f6e20646964206e6044820152691bdd081cdd58d8d9595960b21b6064820152fd5b81925090602091810103126200033b576020015180151581036200033b573880620002b4565b8380fd5b634e487b7160e01b885260418652602488fd5b508234620003c6576020366003190112620003c65782358082528160205260ff60018484200154166003811015620003b357602094506001620003969114620009c3565b81528083528190206002015490516001600160a01b039091168152f35b634e487b7160e01b835260218552602483fd5b80fd5b5034620001c9576020366003190112620001c9578135918284528360205260ff60018386200154169060038210156200046b575060026200040b911462000a81565b6200041b620001fe338462000913565b8183526020838152818420336000818152600390920190925260409020805460ff1916905590519181907feb3e33034c392e69263b04ec0fa376dc12784a41b6676c7f31b936cbc0fbb5af8585a4f35b634e487b7160e01b855260219052602484fd5b508234620003c65781600319360112620003c65750620004ac602092620004a4620008fc565b903562000913565b90519015158152f35b8382346200050257602036600319011262000502576001600160a01b03620004dc620008e0565b163383526003602052818320906bffffffffffffffffffffffff60a01b82541617905551f35b5080fd5b5034620001c95780600319360112620001c95781359062000526620008fc565b8285528460205260ff60018387200154166003811015620001b65760026200054f911462000a81565b828552846020526200056a6200010883872054339062000913565b828552846020526003828620019060018060a01b0316938415620005c75750838552602052808420805460ff19166001179055519133917f63502af7324ff6db91ab38f8236a648727d9385ea6c782073dd4882d8a61a48f8585a4f35b606490602084519162461bcd60e51b8352820152601f60248201527f43616e6e6f74206164642030783020746f20612073686172656420726f6c65006044820152fd5b509034620001c95781600319360112620001c9578035916200062b620008fc565b918385528460205260ff6001838720015416906003821015620006d65750600262000657911462000a81565b82845283602052620006726200010882862054339062000913565b82845283602052620006a2826003838720019060018060a01b0316600052602052604060002060ff198154169055565b519133916001600160a01b0316907feb3e33034c392e69263b04ec0fa376dc12784a41b6676c7f31b936cbc0fbb5af8585a4f35b634e487b7160e01b865260219052602485fd5b5034620001c9576020366003190112620001c95762000707620008e0565b60018060a01b03928360025416918351926117cf8085019385851067ffffffffffffffff861117620007925750849260609492889262000c7a86398352166020820152338582015203019084f09182156200078857816020943381526003865220921691826bffffffffffffffffffffffff60a01b82541617905551908152f35b81513d85823e3d90fd5b634e487b7160e01b895260419052602488fd5b8382346200050257602036600319011262000502576020916001600160a01b0390829082620007d3620008e0565b168152600385522054169051908152f35b509034620001c9576020366003190112620001c95780356200080e620001fe600154339062000913565b8047106200089d5783808092855190335af16200082a62000b3b565b501562000835575051f35b6020608492519162461bcd60e51b8352820152603a60248201527f416464726573733a20756e61626c6520746f2073656e642076616c75652c207260448201527f6563697069656e74206d617920686176652072657665727465640000000000006064820152fd5b506020606492519162461bcd60e51b8352820152601d60248201527f416464726573733a20696e73756666696369656e742062616c616e63650000006044820152fd5b600435906001600160a01b0382168203620008f757565b600080fd5b602435906001600160a01b0382168203620008f757565b600090815280602052604081209060ff6001830154166003811015620009af576001810362000953575050600201546001600160a01b0391821691161490565b600214620009915760405162461bcd60e51b815260206004820152600e60248201526d125b9d985b1a59081c9bdb19525960921b6044820152606490fd5b6001600160a01b039092168252600301602052604090205460ff1690565b634e487b7160e01b82526021600452602482fd5b15620009cb57565b60405162461bcd60e51b815260206004820152602f60248201527f4d7573742062652063616c6c6564206f6e20616e20696e697469616c697a656460448201526e204578636c757369766520726f6c6560881b6064820152608490fd5b1562000a3057565b60405162461bcd60e51b8152602060048201526024808201527f43616e206f6e6c792062652063616c6c6564206279206120726f6c65206d616e60448201526330b3b2b960e11b6064820152608490fd5b1562000a8957565b60405162461bcd60e51b815260206004820152602c60248201527f4d7573742062652063616c6c6564206f6e20616e20696e697469616c697a656460448201526b2053686172656420726f6c6560a01b6064820152608490fd5b1562000aeb57565b60405162461bcd60e51b815260206004820152602260248201527f53656e64657220646f6573206e6f7420686f6c6420726571756972656420726f6044820152616c6560f01b6064820152608490fd5b3d1562000b9a5767ffffffffffffffff903d82811162000b845760405192601f8201601f19908116603f011684019081118482101762000b845760405282523d6000602084013e565b634e487b7160e01b600052604160045260246000fd5b606090565b9192901562000c04575081511562000bb5575090565b3b1562000bbf5790565b60405162461bcd60e51b815260206004820152601d60248201527f416464726573733a2063616c6c20746f206e6f6e2d636f6e74726163740000006044820152606490fd5b82519091501562000c185750805190602001fd5b6040519062461bcd60e51b82528160208060048301528251908160248401526000935b82851062000c5f575050604492506000838284010152601f80199101168101030190fd5b848101820151868601604401529381019385935062000c3b56fe608034620003b757601f620017cf38819003918201601f191683019291906001600160401b03841183851017620003bc578160609284926040968752833981010312620003b7576200005181620003d2565b906020916200006f8462000067858501620003d2565b9301620003d2565b9260009081805281815260019060ff828885200154166003811015620001d9576200037457828052828152868320828101805460ff1990811685179091558482556001600160a01b0396871697916002018815620003355780546001600160a01b0319908116909917905584805284835288852084015460ff166003811015620002c85715620002dc5783855284835260ff848a87200154166003811015620002c8576200028457600287918587528685528a8720908680830191825416179055868155019116801562000245578782541617905582805282815260ff828885200154166003811015620001d95715620001ed5782805282815260ff828885200154166003811015620001d957156200019c57505516906002541617600255516113a79081620003e88239f35b60849087519062461bcd60e51b8252600482015260226024820152600080516020620017af833981519152604482015261125960f21b6064820152fd5b634e487b7160e01b84526021600452602484fd5b60849087519062461bcd60e51b82526004820152603c6024820152600080516020620017af83398151915260448201527f20746f206d616e61676520616e206578636c757369766520726f6c65000000006064820152fd5b885162461bcd60e51b815260048101849052602360248201526000805160206200178f83398151915260448201526203078360ec1b6064820152608490fd5b885162461bcd60e51b815260048101849052601e60248201527f43616e6e6f74207573652061207072652d6578697374696e6720726f6c6500006044820152606490fd5b634e487b7160e01b86526021600452602486fd5b885162461bcd60e51b815260048101849052603c6024820152600080516020620017af83398151915260448201527f20746f206d616e61676520616e206578636c757369766520726f6c65000000006064820152608490fd5b895162461bcd60e51b815260048101859052602360248201526000805160206200178f83398151915260448201526203078360ec1b6064820152608490fd5b60649087519062461bcd60e51b82526004820152601e60248201527f43616e6e6f74207573652061207072652d6578697374696e6720726f6c6500006044820152fd5b600080fd5b634e487b7160e01b600052604160045260246000fd5b51906001600160a01b0382168203620003b75756fe6040608081526004908136101561001557600080fd5b600090813560e01c80632e1a7d4d14610cce5780636be7658b14610bfa5780636ec1fd5d14610ab057806374d0a676146109b35780637cdc1cb914610982578063894fcecc146108d6578063a65d1591146107aa578063aaa14ca3146106fb578063ab3545e51461068c578063add2ccb4146105bb578063bd1f4b5214610443578063d97c05be146103245763ef8d6014146100b057600080fd5b34610320578060031936011261032057602467ffffffffffffffff813581811161031c573660238201121561031c57808601359582871161030a578660051b918551936020986101028a860187610e4e565b85528885019086829584010192368411610306579189939183898d99979a989501925b84841061026757505050505081875161013d81610e32565b5261014f61014a33610ed3565b611119565b6001600160a01b0361015f6112e4565b1692875196879563017e4c0360e01b875260648701913081890152359087015260609182604488015251809152608486019160848260051b880101939285915b8b84841061021a575050505050509083809203925af192831561020f5780936101cc575b50505190518152f35b909192508382813d8311610208575b6101e58183610e4e565b8101031261020557508151906101fa82610e32565b5181529038806101c3565b80fd5b503d6101db565b8251903d90823e3d90fd5b8a93975081600195999b939761025293979b60831990820301895281838d51805184528781015188850152015193820152019061123d565b970193019301938a96948a948997949361019f565b919395509180949799969850358381116103025782016060908160231982360301126102fe578b51918201828110868211176102ea578c52808b0135825260448101358e83015260648101358581116102e657916102cd8f94928d869536920101610e8c565b8d820152815201930190918a94928c9896999794610125565b8d80fd5b8b60418a634e487b7160e01b600052526000fd5b8c80fd5b8b80fd5b8980fd5b634e487b7160e01b8652604190528285fd5b8480fd5b5080fd5b5082903461043f578060031936011261043f57813590610342610dc1565b8285528460205260ff6001838720015416600381101561042c5760016103689114610ffc565b82855284602052610385610380838720543390610fbe565b611060565b828552846020526002828620019060018060a01b03169384156103dd575080546001600160a01b03191684179055519133917f3b855c56b409b671c7112789d022675eb639d0bcb8896f1b6197c132f799e7468585a4f35b608490602084519162461bcd60e51b8352820152602360248201527f43616e6e6f742073657420616e206578636c757369766520726f6c6520746f2060448201526203078360ec1b6064820152fd5b634e487b7160e01b865260218552602486fd5b8280fd5b50823461043f578160031936011261043f5780356001600160a01b038116908190036105b65761047961014a6001543390610fbe565b8251906020820163a9059cbb60e01b8152336024840152602435604484015260448352608083019267ffffffffffffffff818510818611176105a15760c08201908111858210176105a1578652602084527f5361666545524332303a206c6f772d6c6576656c2063616c6c206661696c656460a08201525161050d9392918791829182855af1610507611170565b916111a0565b805190811591821561057a575b505015610525575051f35b6020608492519162461bcd60e51b8352820152602a60248201527f5361666545524332303a204552433230206f7065726174696f6e20646964206e6044820152691bdd081cdd58d8d9595960b21b6064820152fd5b819250906020918101031261059d5760200151801515810361059d57848061051a565b8380fd5b604186634e487b7160e01b6000525260246000fd5b600080fd5b508183346103205760a03660031901126103205760643567ffffffffffffffff811161043f576105ee9036908301610e8c565b906105fb61014a33610ed3565b6001600160a01b0361060b6112e4565b1691823b1561059d57610654928492838751809681958294632b74b32d60e21b84528035908401526024356024840152604435604484015260a0606484015260a483019061123d565b608435608483015203925af1801561067f5761066f57505051f35b61067890610e08565b6103205751f35b50505051903d90823e3d90fd5b5090346102055760203660031901126102055782358082528160205260ff600184842001541660038110156106e8576020945060016106cb9114610ffc565b81528083528190206002015490516001600160a01b039091168152f35b634e487b7160e01b835260218552602483fd5b5082903461043f57602036600319011261043f578135918284528360205260ff60018386200154169060038210156107975750600261073a91146110b8565b61074761014a3384610fbe565b8183526020838152818420336000818152600390920190925260409020805460ff1916905590519181907feb3e33034c392e69263b04ec0fa376dc12784a41b6676c7f31b936cbc0fbb5af8585a4f35b634e487b7160e01b855260219052602484fd5b50823461043f5760208060031936011261059d57813567ffffffffffffffff811161031c576107dc9036908401610dd7565b6107e861014a33610ed3565b6001600160a01b036107f86112e4565b1692833b156108d25781879594939287519563a65d159160e01b875283602488019188015252604485019160448260051b87010193809388915b848310610859575050505050508391838381809403925af1801561067f5761066f57505051f35b91939583809698999a5060019294916043198c820301865261087b8a866112d0565b8035825282810135838301528d8101358e830152906108b260606108a18185018561127d565b909160a080918601528401916112af565b9160808091013591015298019301930190928a9897969593949294610832565b8680fd5b508183346103205760803660031901126103205760443567ffffffffffffffff811161043f576109099036908301610e8c565b9061091661014a33610ed3565b6001600160a01b036109266112e4565b1691823b1561059d57610967928492838751809681958294632253f3b360e21b8452803590840152602435602484015260806044840152608483019061123d565b606435606483015203925af1801561067f5761066f57505051f35b509034610205578160031936011261020557506109aa6020926109a3610dc1565b9035610fbe565b90519015158152f35b5082903461043f578060031936011261043f578135906109d1610dc1565b8285528460205260ff6001838720015416600381101561042c5760026109f791146110b8565b82855284602052610a0f610380838720543390610fbe565b828552846020526003828620019060018060a01b0316938415610a6d57508360005260205280600020600160ff19825416179055519133917f63502af7324ff6db91ab38f8236a648727d9385ea6c782073dd4882d8a61a48f8585a4f35b606490602084519162461bcd60e51b8352820152601f60248201527f43616e6e6f74206164642030783020746f20612073686172656420726f6c65006044820152fd5b5091346103205760208060031936011261043f57813567ffffffffffffffff811161059d57610ae29036908401610dd7565b610aee61014a33610ed3565b6001600160a01b03610afe6112e4565b1692833b15610bf6578651636ec1fd5d60e01b8152948501819052602485018290528593859390926044600582901b86018101939087908701845b8c858410610b7657505050505050508383809203925af18015610b6c57610b5f57509051f35b610b6890610e08565b9051f35b83513d84823e3d90fd5b8497859396999b5090610be291600195989b604397949719908203018852610bba610ba18d896112d0565b928335835285840135868401526108a18185018561127d565b9160608082013590830152610bd46080918281019061127d565b9290918185039101526112af565b980193019301899795929389979592610b39565b8580fd5b50823461043f578160031936011261043f57803591610c17610dc1565b918385528460205260ff6001838720015416906003821015610cbb57506002610c4091146110b8565b82845283602052610c58610380828620543390610fbe565b82845283602052610c87826003838720019060018060a01b0316600052602052604060002060ff198154169055565b519133916001600160a01b0316907feb3e33034c392e69263b04ec0fa376dc12784a41b6676c7f31b936cbc0fbb5af8585a4f35b634e487b7160e01b865260219052602485fd5b50823461043f57602036600319011261043f578035610cf361014a6001543390610fbe565b804710610d7e5783808092855190335af1610d0c611170565b5015610d16575051f35b6020608492519162461bcd60e51b8352820152603a60248201527f416464726573733a20756e61626c6520746f2073656e642076616c75652c207260448201527f6563697069656e74206d617920686176652072657665727465640000000000006064820152fd5b506020606492519162461bcd60e51b8352820152601d60248201527f416464726573733a20696e73756666696369656e742062616c616e63650000006044820152fd5b602435906001600160a01b03821682036105b657565b9181601f840112156105b65782359167ffffffffffffffff83116105b6576020808501948460051b0101116105b657565b67ffffffffffffffff8111610e1c57604052565b634e487b7160e01b600052604160045260246000fd5b6020810190811067ffffffffffffffff821117610e1c57604052565b90601f8019910116810190811067ffffffffffffffff821117610e1c57604052565b67ffffffffffffffff8111610e1c57601f01601f191660200190565b81601f820112156105b657803590610ea382610e70565b92610eb16040519485610e4e565b828452602083830101116105b657816000926020809301838601378301015290565b6001600090815260208190527fada5013122d395ba3c54772283fb069b10426056ef8ca54750cb9bb552a59e7e547fada5013122d395ba3c54772283fb069b10426056ef8ca54750cb9bb552a59e7d919060ff166003811015610faa5760018103610f4f575050600201546001600160a01b0391821691161490565b600214610f8c5760405162461bcd60e51b815260206004820152600e60248201526d125b9d985b1a59081c9bdb19525960921b6044820152606490fd5b6001600160a01b039092168252600301602052604090205460ff1690565b634e487b7160e01b82526021600452602482fd5b600090815280602052604081209060ff6001830154166003811015610faa5760018103610f4f575050600201546001600160a01b0391821691161490565b1561100357565b60405162461bcd60e51b815260206004820152602f60248201527f4d7573742062652063616c6c6564206f6e20616e20696e697469616c697a656460448201526e204578636c757369766520726f6c6560881b6064820152608490fd5b1561106757565b60405162461bcd60e51b8152602060048201526024808201527f43616e206f6e6c792062652063616c6c6564206279206120726f6c65206d616e60448201526330b3b2b960e11b6064820152608490fd5b156110bf57565b60405162461bcd60e51b815260206004820152602c60248201527f4d7573742062652063616c6c6564206f6e20616e20696e697469616c697a656460448201526b2053686172656420726f6c6560a01b6064820152608490fd5b1561112057565b60405162461bcd60e51b815260206004820152602260248201527f53656e64657220646f6573206e6f7420686f6c6420726571756972656420726f6044820152616c6560f01b6064820152608490fd5b3d1561119b573d9061118182610e70565b9161118f6040519384610e4e565b82523d6000602084013e565b606090565b9192901561120257508151156111b4575090565b3b156111bd5790565b60405162461bcd60e51b815260206004820152601d60248201527f416464726573733a2063616c6c20746f206e6f6e2d636f6e74726163740000006044820152606490fd5b8251909150156112155750805190602001fd5b60405162461bcd60e51b81526020600482015290819061123990602483019061123d565b0390fd5b919082519283825260005b848110611269575050826000602080949584010152601f8019910116010190565b602081830181015184830182015201611248565b9035601e19823603018112156105b657016020813591019167ffffffffffffffff82116105b65781360383136105b657565b908060209392818452848401376000828201840152601f01601f1916010190565b9035609e19823603018112156105b6570190565b6002546040516302abf57960e61b8152654f7261636c6560d01b60048201526001600160a01b03916020908290602490829086165afa9081156113655760009161132d57501690565b6020813d821161135d575b8161134560209383610e4e565b81010312610320575190828216820361020557501690565b3d9150611338565b6040513d6000823e3d90fdfea2646970667358221220366ea43e5263fc93a0529d8418cc9145be8e11b6dbe93f377fd3e91e67accb2564736f6c6343000810003343616e6e6f742073657420616e206578636c757369766520726f6c6520746f20417474656d7074656420746f2075736520616e20696e76616c696420726f6c65a264697066735822122038826781126e843d0e50f628338ce15978208850d63a8fc19cff1be70dabaa9b64736f6c63430008100033",
  "devdoc": {
    "details": "Allows off-chain infrastructure to look up a hot wallet's deployed DesignatedVoting contract.",
    "kind": "dev",
    "methods": {
      "addMember(uint256,address)": {
        "details": "Reverts if `roleId` does not represent an initialized, SharedRole or if the caller is not a member of the managing role for `roleId`.",
        "params": {
          "newMember": "the new SharedRole member.",
          "roleId": "the SharedRole membership to modify."
        }
      },
      "constructor": {
        "params": {
          "finderAddress": "keeps track of all contracts within the system based on their interfaceName."
        }
      },
      "getMember(uint256)": {
        "details": "Reverts if `roleId` does not represent an initialized, exclusive role.",
        "params": {
          "roleId": "the ExclusiveRole membership to check."
        },
        "returns": {
          "_0": "the address of the current ExclusiveRole member."
        }
      },
      "holdsRole(uint256,address)": {
        "details": "Reverts if roleId does not correspond to an initialized role.",
        "params": {
          "memberToCheck": "the address to check.",
          "roleId": "the Role to check."
        },
        "returns": {
          "_0": "True if `memberToCheck` is a member of `roleId`."
        }
      },
      "newDesignatedVoting(address)": {
        "params": {
          "ownerAddress": "defines who will own the deployed instance of the designatedVoting contract."
        },
        "returns": {
          "_0": "designatedVoting a new DesignatedVoting contract."
        }
      },
      "removeMember(uint256,address)": {
        "details": "Reverts if `roleId` does not represent an initialized, SharedRole or if the caller is not a member of the managing role for `roleId`.",
        "params": {
          "memberToRemove": "the current SharedRole member to remove.",
          "roleId": "the SharedRole membership to modify."
        }
      },
      "renounceMembership(uint256)": {
        "details": "Reverts if the caller is not a member of the role for `roleId` or if `roleId` is not an initialized, SharedRole.",
        "params": {
          "roleId": "the SharedRole membership to modify."
        }
      },
      "resetMember(uint256,address)": {
        "details": "Reverts if the caller is not a member of the managing role for `roleId` or if `roleId` is not an initialized, ExclusiveRole.",
        "params": {
          "newMember": "the new ExclusiveRole member.",
          "roleId": "the ExclusiveRole membership to modify."
        }
      },
      "setDesignatedVoting(address)": {
        "details": "This is generally only used if the owner of a `DesignatedVoting` contract changes their `voter` address and wants that reflected here.",
        "params": {
          "designatedVotingAddress": "address to designate voting to."
        }
      },
      "withdrawErc20(address,uint256)": {
        "params": {
          "amount": "amount of tokens to withdraw.",
          "erc20Address": "ERC20 token to withdraw."
        }
      }
    },
    "title": "Factory to deploy new instances of DesignatedVoting and look up previously deployed instances.",
    "version": 1
  },
  "userdoc": {
    "kind": "user",
    "methods": {
      "addMember(uint256,address)": {
        "notice": "Adds `newMember` to the shared role, `roleId`."
      },
      "constructor": {
        "notice": "Construct the DesignatedVotingFactory contract."
      },
      "getMember(uint256)": {
        "notice": "Gets the current holder of the exclusive role, `roleId`."
      },
      "holdsRole(uint256,address)": {
        "notice": "Whether `memberToCheck` is a member of roleId."
      },
      "newDesignatedVoting(address)": {
        "notice": "Deploys a new `DesignatedVoting` contract."
      },
      "removeMember(uint256,address)": {
        "notice": "Removes `memberToRemove` from the shared role, `roleId`."
      },
      "renounceMembership(uint256)": {
        "notice": "Removes caller from the role, `roleId`."
      },
      "resetMember(uint256,address)": {
        "notice": "Changes the exclusive role holder of `roleId` to `newMember`."
      },
      "setDesignatedVoting(address)": {
        "notice": "Associates a `DesignatedVoting` instance with `msg.sender`."
      },
      "withdraw(uint256)": {
        "notice": "Withdraws ETH from the contract."
      },
      "withdrawErc20(address,uint256)": {
        "notice": "Withdraws ERC20 tokens from the contract."
      }
    },
    "version": 1
  },
  "storageLayout": {
    "storage": [
      {
        "astId": 16654,
        "contract": "contracts/data-verification-mechanism/implementation/DesignatedVotingFactory.sol:DesignatedVotingFactory",
        "label": "roles",
        "offset": 0,
        "slot": "0",
        "type": "t_mapping(t_uint256,t_struct(Role)16649_storage)"
      },
      {
        "astId": 17920,
        "contract": "contracts/data-verification-mechanism/implementation/DesignatedVotingFactory.sol:DesignatedVotingFactory",
        "label": "roleId",
        "offset": 0,
        "slot": "1",
        "type": "t_uint256"
      },
      {
        "astId": 25305,
        "contract": "contracts/data-verification-mechanism/implementation/DesignatedVotingFactory.sol:DesignatedVotingFactory",
        "label": "finder",
        "offset": 0,
        "slot": "2",
        "type": "t_address"
      },
      {
        "astId": 25310,
        "contract": "contracts/data-verification-mechanism/implementation/DesignatedVotingFactory.sol:DesignatedVotingFactory",
        "label": "designatedVotingContracts",
        "offset": 0,
        "slot": "3",
        "type": "t_mapping(t_address,t_contract(DesignatedVoting)25294)"
      }
    ],
    "types": {
      "t_address": {
        "encoding": "inplace",
        "label": "address",
        "numberOfBytes": "20"
      },
      "t_bool": {
        "encoding": "inplace",
        "label": "bool",
        "numberOfBytes": "1"
      },
      "t_contract(DesignatedVoting)25294": {
        "encoding": "inplace",
        "label": "contract DesignatedVoting",
        "numberOfBytes": "20"
      },
      "t_enum(RoleType)16637": {
        "encoding": "inplace",
        "label": "enum MultiRole.RoleType",
        "numberOfBytes": "1"
      },
      "t_mapping(t_address,t_bool)": {
        "encoding": "mapping",
        "key": "t_address",
        "label": "mapping(address => bool)",
        "numberOfBytes": "32",
        "value": "t_bool"
      },
      "t_mapping(t_address,t_contract(DesignatedVoting)25294)": {
        "encoding": "mapping",
        "key": "t_address",
        "label": "mapping(address => contract DesignatedVoting)",
        "numberOfBytes": "32",
        "value": "t_contract(DesignatedVoting)25294"
      },
      "t_mapping(t_uint256,t_struct(Role)16649_storage)": {
        "encoding": "mapping",
        "key": "t_uint256",
        "label": "mapping(uint256 => struct MultiRole.Role)",
        "numberOfBytes": "32",
        "value": "t_struct(Role)16649_storage"
      },
      "t_struct(Role)16649_storage": {
        "encoding": "inplace",
        "label": "struct MultiRole.Role",
        "members": [
          {
            "astId": 16639,
            "contract": "contracts/data-verification-mechanism/implementation/DesignatedVotingFactory.sol:DesignatedVotingFactory",
            "label": "managingRole",
            "offset": 0,
            "slot": "0",
            "type": "t_uint256"
          },
          {
            "astId": 16642,
            "contract": "contracts/data-verification-mechanism/implementation/DesignatedVotingFactory.sol:DesignatedVotingFactory",
            "label": "roleType",
            "offset": 0,
            "slot": "1",
            "type": "t_enum(RoleType)16637"
          },
          {
            "astId": 16645,
            "contract": "contracts/data-verification-mechanism/implementation/DesignatedVotingFactory.sol:DesignatedVotingFactory",
            "label": "exclusiveRoleMembership",
            "offset": 0,
            "slot": "2",
            "type": "t_struct(RoleMembership)16460_storage"
          },
          {
            "astId": 16648,
            "contract": "contracts/data-verification-mechanism/implementation/DesignatedVotingFactory.sol:DesignatedVotingFactory",
            "label": "sharedRoleMembership",
            "offset": 0,
            "slot": "3",
            "type": "t_struct(RoleMembership)16533_storage"
          }
        ],
        "numberOfBytes": "128"
      },
      "t_struct(RoleMembership)16460_storage": {
        "encoding": "inplace",
        "label": "struct Exclusive.RoleMembership",
        "members": [
          {
            "astId": 16459,
            "contract": "contracts/data-verification-mechanism/implementation/DesignatedVotingFactory.sol:DesignatedVotingFactory",
            "label": "member",
            "offset": 0,
            "slot": "0",
            "type": "t_address"
          }
        ],
        "numberOfBytes": "32"
      },
      "t_struct(RoleMembership)16533_storage": {
        "encoding": "inplace",
        "label": "struct Shared.RoleMembership",
        "members": [
          {
            "astId": 16532,
            "contract": "contracts/data-verification-mechanism/implementation/DesignatedVotingFactory.sol:DesignatedVotingFactory",
            "label": "members",
            "offset": 0,
            "slot": "0",
            "type": "t_mapping(t_address,t_bool)"
          }
        ],
        "numberOfBytes": "32"
      },
      "t_uint256": {
        "encoding": "inplace",
        "label": "uint256",
        "numberOfBytes": "32"
      }
    }
  }
}