{
  "address": "0x0F53e00Ece44667705cad0bAd5d14248eB8285AA",
  "abi": [
    {
      "inputs": [
        {
          "internalType": "address",
          "name": "_finder",
          "type": "address"
        }
      ],
      "stateMutability": "nonpayable",
      "type": "constructor"
    },
    {
      "anonymous": false,
      "inputs": [
        {
          "indexed": true,
          "internalType": "address",
          "name": "voter",
          "type": "address"
        },
        {
          "indexed": true,
          "internalType": "address",
          "name": "owner",
          "type": "address"
        },
        {
          "indexed": true,
          "internalType": "address",
          "name": "designatedVoting",
          "type": "address"
        }
      ],
      "name": "NewDesignatedVoting",
      "type": "event"
    },
    {
      "inputs": [],
      "name": "finder",
      "outputs": [
        {
          "internalType": "address",
          "name": "",
          "type": "address"
        }
      ],
      "stateMutability": "view",
      "type": "function"
    },
    {
      "inputs": [
        {
          "internalType": "bytes[]",
          "name": "data",
          "type": "bytes[]"
        }
      ],
      "name": "multicall",
      "outputs": [
        {
          "internalType": "bytes[]",
          "name": "results",
          "type": "bytes[]"
        }
      ],
      "stateMutability": "nonpayable",
      "type": "function"
    },
    {
      "inputs": [
        {
          "internalType": "address",
          "name": "owner",
          "type": "address"
        },
        {
          "internalType": "address",
          "name": "voter",
          "type": "address"
        }
      ],
      "name": "newDesignatedVoting",
      "outputs": [
        {
          "internalType": "contract DesignatedVotingV2",
          "name": "",
          "type": "address"
        }
      ],
      "stateMutability": "nonpayable",
      "type": "function"
    }
  ],
  "transactionHash": "0xe81c18a52ca5a3c719afea903c0bbda312107025e135593e3ca3f7936e1ddcb0",
  "args": [
    "0xA969917A4dFaB07936dEc60f70FA5c736A1e2b9e"
  ],
  "solcInputHash": "864d61c65c789401ae17358a5af86557",
  "bytecode": "0x60a03461007057601f611f3e38819003918201601f19168301916001600160401b038311848410176100755780849260209460405283398101031261007057516001600160a01b038116810361007057608052604051611eb2908161008c823960805181818160db01526102d00152f35b600080fd5b634e487b7160e01b600052604160045260246000fdfe6080604052600436101562000014575b600080fd5b6000803560e01c90816315e71b70146200005a57508063ac9650d8146200004f5763b9a3c84c146200004557600080fd5b6200000f620002b7565b506200000f62000246565b346200016357604036600319011262000163577f359c94b0273cb41a8004732e9c3a4de1e7cf8edc42cc22df2e9fbd25a617f1c1906200013f6200009d62000166565b91620000a86200017d565b90611848916060836080016080811067ffffffffffffffff82111762000153575b84620006356080396001600160a01b037f0000000000000000000000000000000000000000000000000000000000000000811690915295861660a0850181905291861660c085018190529301608083f092831562000143575b60405196879685169387a46001600160a01b031682526020820190565b0390f35b6200014d62000627565b62000122565b6200015d620002ff565b620000c9565b80fd5b600435906001600160a01b03821682036200000f57565b602435906001600160a01b03821682036200000f57565b60005b838110620001a85750506000910152565b818101518382015260200162000197565b90602091620001d48151809281855285808601910162000194565b601f01601f1916010190565b602080820190808352835180925260408301928160408460051b8301019501936000915b848310620002155750505050505090565b909192939495848062000235600193603f198682030187528a51620001b9565b980193019301919493929062000204565b50346200000f5760203660031901126200000f5767ffffffffffffffff6004358181116200000f57366023820112156200000f5780600401359182116200000f573660248360051b830101116200000f576200013f916024620002aa920162000559565b60405191829182620001e0565b50346200000f5760003660031901126200000f576040517f00000000000000000000000000000000000000000000000000000000000000006001600160a01b03168152602090f35b50634e487b7160e01b600052604160045260246000fd5b6040519190601f01601f1916820167ffffffffffffffff8111838210176200033d57604052565b62000347620002ff565b604052565b60209067ffffffffffffffff811162000367575b60051b0190565b62000371620002ff565b62000360565b906200038d62000387836200034c565b62000316565b8281528092620003a0601f19916200034c565b019060005b828110620003b257505050565b806060602080938501015201620003a5565b6000198114620003d45760010190565b634e487b7160e01b600052601160045260246000fd5b50634e487b7160e01b600052603260045260246000fd5b919081101562000448575b60051b81013590601e19813603018212156200000f57019081359167ffffffffffffffff83116200000f5760200182360381136200000f579190565b62000452620003ea565b6200040c565b908092918237016000815290565b60209067ffffffffffffffff811162000485575b601f01601f19160190565b6200048f620002ff565b6200047a565b3d15620004ba573d90620004ad620003878362000466565b9182523d6000602084013e565b606090565b6020818303126200000f5780519067ffffffffffffffff82116200000f570181601f820112156200000f578051620004fb620003878262000466565b92818452602082840101116200000f576200051d916020808501910162000194565b90565b9060206200051d928181520190620001b9565b602091815181101562000549575b60051b010190565b62000553620003ea565b62000541565b919091620005678362000377565b9260005b8181106200057857505050565b6000806200058883858762000401565b604093916200059c85518093819362000458565b0390305af490620005ac62000495565b91829015620005e357505090620005dd91620005c9828862000533565b52620005d6818762000533565b50620003c4565b6200056b565b604483929351106200000f576200060d6200062391600480940160248091518301019101620004bf565b925162461bcd60e51b8152928392830162000520565b0390fd5b506040513d6000823e3d90fdfe60a034620003d357601f6200184838819003918201601f191683019291906001600160401b03841183851017620003d8578160609284926040968752833981010312620003d3576200005181620003ee565b60206200006d8462000065838601620003ee565b9401620003ee565b60009182805282815260ff9060019082828987200154169360039485811015620003bf576200037b57858052858252888620838101805460ff1990811686179091558782556001600160a01b03998a169160020182156200033c5780546001600160a01b031990811690931790558780528784528a8820850154861687811015620002cf5715620002e35784885287845285858c8a2001541687811015620002cf576200028b5760028a91868a528986528c8a209087808301918254161790558981550192169081156200024c57825416179055848052848152828289872001541684811015620001e05715620001f457848052848152828289872001541684811015620001e05790620001848692151562000403565b8183558180525286842001541690811015620001cc57620001a790151562000403565b60025516608052516113bd90816200044b8239608051818181610a09015261130b0152f35b634e487b7160e01b82526021600452602482fd5b634e487b7160e01b86526021600452602486fd5b60849088519062461bcd60e51b82526004820152603c60248201526000805160206200182883398151915260448201527f20746f206d616e61676520616e206578636c757369766520726f6c65000000006064820152fd5b8a5162461bcd60e51b815260048101859052602360248201526000805160206200180883398151915260448201526203078360ec1b6064820152608490fd5b8a5162461bcd60e51b815260048101859052601e60248201527f43616e6e6f74207573652061207072652d6578697374696e6720726f6c6500006044820152606490fd5b634e487b7160e01b89526021600452602489fd5b8a5162461bcd60e51b815260048101859052603c60248201526000805160206200182883398151915260448201527f20746f206d616e61676520616e206578636c757369766520726f6c65000000006064820152608490fd5b8b5162461bcd60e51b815260048101869052602360248201526000805160206200180883398151915260448201526203078360ec1b6064820152608490fd5b885162461bcd60e51b815260048101839052601e60248201527f43616e6e6f74207573652061207072652d6578697374696e6720726f6c6500006044820152606490fd5b634e487b7160e01b87526021600452602487fd5b600080fd5b634e487b7160e01b600052604160045260246000fd5b51906001600160a01b0382168203620003d357565b156200040b57565b60405162461bcd60e51b8152602060048201526022602482015260008051602062001828833981519152604482015261125960f21b6064820152608490fdfe60806040526004361015610013575b600080fd5b60003560e01c806302b999d61461012b5780630c556621146101225780632e1a7d4d146101195780633dfbe378146101105780636be7658b1461010757806374d0a676146100fe5780637cdc1cb9146100f5578063aaa14ca3146100ec578063ab3545e5146100e3578063ac9650d8146100da578063b166dfdd146100d1578063b9a3c84c146100c8578063bd1f4b52146100bf5763d97c05be146100b757600080fd5b61000e610b1f565b5061000e610a38565b5061000e6109f2565b5061000e610893565b5061000e610828565b5061000e610723565b5061000e610688565b5061000e610653565b5061000e61053e565b5061000e61045c565b5061000e610378565b5061000e610275565b5061000e610205565b5061000e610145565b6001600160a01b0381160361000e57565b503461000e57600060203660031901126101d3578060043561016681610134565b61017b6101766002543390610f97565b61115d565b6001600160a01b0316803b156101d057819060046040518094819363067515ed60e11b83525af180156101c3575b6101b4575b50604051f35b6101bd90610c41565b386101ae565b6101cb6111c9565b6101a9565b50fd5b80fd5b604090600319011261000e576004356001600160801b038116810361000e579060243561020281610134565b90565b503461000e57610176610217366101d6565b6002549061022a60009485933390610f97565b6001600160a01b031691823b156102715760246001600160801b039183604051958694859363866be1e160e01b85521660048401525af180156101c3576101b45750604051f35b5080fd5b503461000e57602036600319011261000e5760043561029a6101766001543390610f97565b80471061032857600080809260405190335af16102b5610df2565b50156102bd57005b60405162461bcd60e51b815260206004820152603a60248201527f416464726573733a20756e61626c6520746f2073656e642076616c75652c207260448201527f6563697069656e74206d617920686176652072657665727465640000000000006064820152608490fd5b60405162461bcd60e51b815260206004820152601d60248201527f416464726573733a20696e73756666696369656e742062616c616e63650000006044820152606490fd5b600091031261000e57565b503461000e576000806003193601126101d35760018152806020526103b2600160ff8160408520015416600381101561044f575b14611040565b600181526020819052604081206002015481906001600160a01b03166103e56103d96112de565b6001600160a01b031690565b90813b1561044b5760405163ca5eb5e160e01b81526001600160a01b03909116600482015291908290818381602481015b03925af1801561043e575b61042b5750604051f35b806104386101bd92610c41565b8061036d565b6104466111c9565b610421565b5050fd5b610457610f6c565b6103ac565b503461000e57604036600319011261000e5760243560043561047d82610134565b600091818352826020526104a7600260ff6001604087200154166003811015610531575b146110fc565b818352826020526104c56104c060408520543390610f97565b6110a4565b818352826020526104fb81600360408620016001600160a01b03909116600090815260209190915260409020805460ff19169055565b6040519133916001600160a01b0316907feb3e33034c392e69263b04ec0fa376dc12784a41b6676c7f31b936cbc0fbb5af8585a4f35b610539610f6c565b6104a1565b503461000e5760408060031936011261000e5760243560043561056082610134565b60009281845283602052610588600260ff6001848820015416600381101561053157146110fc565b818452836020526105a06104c0828620543390610f97565b81845260208490528084206001600160a01b0384169390600301841561060f576001600160a01b03909116600090815260209190915260409020805460ff19166001179055519133917f63502af7324ff6db91ab38f8236a648727d9385ea6c782073dd4882d8a61a48f8585a4f35b825162461bcd60e51b815260206004820152601f60248201527f43616e6e6f74206164642030783020746f20612073686172656420726f6c65006044820152606490fd5b503461000e57604036600319011261000e57602061067e60243561067681610134565b600435610f97565b6040519015158152f35b503461000e57602036600319011261000e57600435600090808252816020526106c6600260ff600160408620015416600381101561053157146110fc565b6106d36101763383610f97565b808252602082815260408084203360008181526003909201909352819020805460ff19169055519181907feb3e33034c392e69263b04ec0fa376dc12784a41b6676c7f31b936cbc0fbb5af8585a4f35b503461000e57602036600319011261000e576020600435600090808252818352610761600160ff8160408620015416600381101561044f5714611040565b81528082526002604060018060a01b039220015416604051908152f35b60005b8381106107915750506000910152565b8181015183820152602001610781565b906020916107ba8151809281855285808601910161077e565b601f01601f1916010190565b602080820190808352835180925260408301928160408460051b8301019501936000915b8483106107fa5750505050505090565b9091929394958480610818600193603f198682030187528a516107a1565b98019301930191949392906107ea565b503461000e57602036600319011261000e5767ffffffffffffffff60043581811161000e573660238201121561000e57806004013591821161000e573660248360051b8301011161000e5761088f9160246108839201610eb4565b604051918291826107c6565b0390f35b503461000e5760046109346108a7366101d6565b91906108b96101766002543390610f97565b60018060a01b0380841692839183604051809763b034012360e01b82526020958694858460009d8e9d8e80965af19384156109e5575b82946109b6575b5060405163095ea7b360e01b81526001600160a01b0390931660048401526001600160801b0390941660248301529094859384929183906044820190565b0393165af180156109a9575b61097b575b5050813b1561044b5760405163111fc57d60e31b81526001600160801b0390911660048201529190829081838160248101610416565b8161099a92903d106109a2575b6109928183610c9a565b8101906111d6565b503880610945565b503d610988565b6109b16111c9565b610940565b6109d7919450863d88116109de575b6109cf8183610c9a565b8101906111b4565b92386108f6565b503d6109c5565b6109ed6111c9565b6108ef565b503461000e57600036600319011261000e576040517f00000000000000000000000000000000000000000000000000000000000000006001600160a01b03168152602090f35b503461000e57604036600319011261000e57610b03610aef600435610a5c81610134565b610a6c6101766001543390610f97565b60018060a01b0316604051906000806020840163a9059cbb60e01b8152336024860152602435604486015260448552610aa485610c62565b60405194610ab186610c7e565b602086527f5361666545524332303a206c6f772d6c6576656c2063616c6c206661696c65646020870152519082855af1610ae9610df2565b9161124d565b8051908115918215610b05575b50506111ee565b005b610b1892506020809183010191016111d6565b3880610afc565b503461000e5760408060031936011261000e57602435600435610b4182610134565b60009281845283602052610b68600160ff81848820015416600381101561044f5714611040565b81845283602052610b806104c0828620543390610f97565b81845260208490528084206001600160a01b03909316926002018315610bda5780546001600160a01b03191684179055519133917f3b855c56b409b671c7112789d022675eb639d0bcb8896f1b6197c132f799e7468585a4f35b815162461bcd60e51b815260206004820152602360248201527f43616e6e6f742073657420616e206578636c757369766520726f6c6520746f2060448201526203078360ec1b6064820152608490fd5b50634e487b7160e01b600052604160045260246000fd5b67ffffffffffffffff8111610c5557604052565b610c5d610c2a565b604052565b6080810190811067ffffffffffffffff821117610c5557604052565b6040810190811067ffffffffffffffff821117610c5557604052565b90601f8019910116810190811067ffffffffffffffff821117610c5557604052565b60209067ffffffffffffffff8111610cd6575b60051b0190565b610cde610c2a565b610ccf565b90610ced82610cbc565b610cfa6040519182610c9a565b8281528092610d0b601f1991610cbc565b019060005b828110610d1c57505050565b806060602080938501015201610d10565b6000198114610d3c5760010190565b634e487b7160e01b600052601160045260246000fd5b50634e487b7160e01b600052603260045260246000fd5b9190811015610dac575b60051b81013590601e198136030182121561000e57019081359167ffffffffffffffff831161000e57602001823603811361000e579190565b610db4610d52565b610d73565b908092918237016000815290565b60209067ffffffffffffffff8111610de5575b601f01601f19160190565b610ded610c2a565b610dda565b3d15610e1d573d90610e0382610dc7565b91610e116040519384610c9a565b82523d6000602084013e565b606090565b60208183031261000e5780519067ffffffffffffffff821161000e570181601f8201121561000e578051610e5581610dc7565b92610e636040519485610c9a565b8184526020828401011161000e57610202916020808501910161077e565b9060206102029281815201906107a1565b6020918151811015610ea7575b60051b010190565b610eaf610d52565b610e9f565b919091610ec083610ce3565b9260005b818110610ed057505050565b600080610ede838587610d69565b60409391610ef0855180938193610db9565b0390305af490610efe610df2565b91829015610f2d57505090610f2891610f178288610e92565b52610f228187610e92565b50610d2d565b610ec4565b6044839293511061000e57610f53610f6891600480940160248091518301019101610e22565b925162461bcd60e51b81529283928301610e81565b0390fd5b50634e487b7160e01b600052602160045260246000fd5b60031115610f8d57565b610f95610f6c565b565b6000526000602052604060002060ff600182015416610fb581610f83565b60018103610fd35750600201546001600160a01b0391821691161490565b80610fdf600292610f83565b1461101a5760405162461bcd60e51b815260206004820152600e60248201526d125b9d985b1a59081c9bdb19525960921b6044820152606490fd5b60ff91600361103b92019060018060a01b0316600052602052604060002090565b541690565b1561104757565b60405162461bcd60e51b815260206004820152602f60248201527f4d7573742062652063616c6c6564206f6e20616e20696e697469616c697a656460448201526e204578636c757369766520726f6c6560881b6064820152608490fd5b156110ab57565b60405162461bcd60e51b8152602060048201526024808201527f43616e206f6e6c792062652063616c6c6564206279206120726f6c65206d616e60448201526330b3b2b960e11b6064820152608490fd5b1561110357565b60405162461bcd60e51b815260206004820152602c60248201527f4d7573742062652063616c6c6564206f6e20616e20696e697469616c697a656460448201526b2053686172656420726f6c6560a01b6064820152608490fd5b1561116457565b60405162461bcd60e51b815260206004820152602260248201527f53656e64657220646f6573206e6f7420686f6c6420726571756972656420726f6044820152616c6560f01b6064820152608490fd5b9081602091031261000e575161020281610134565b506040513d6000823e3d90fd5b9081602091031261000e5751801515810361000e5790565b156111f557565b60405162461bcd60e51b815260206004820152602a60248201527f5361666545524332303a204552433230206f7065726174696f6e20646964206e6044820152691bdd081cdd58d8d9595960b21b6064820152608490fd5b919290156112af5750815115611261575090565b3b1561126a5790565b60405162461bcd60e51b815260206004820152601d60248201527f416464726573733a2063616c6c20746f206e6f6e2d636f6e74726163740000006044820152606490fd5b8251909150156112c25750805190602001fd5b60405162461bcd60e51b8152908190610f689060048301610e81565b6040516302abf57960e61b8152654f7261636c6560d01b60048201526001600160a01b03906020816024817f000000000000000000000000000000000000000000000000000000000000000086165afa90811561137a575b60009161134257501690565b906020823d8211611372575b8161135b60209383610c9a565b810103126101d357505161136e81610134565b1690565b3d915061134e565b6113826111c9565b61133656fea2646970667358221220bff26a8beb0eea9e540689f5b8cde0fac9532409b0023680aad090633d60fae064736f6c6343000810003343616e6e6f742073657420616e206578636c757369766520726f6c6520746f20417474656d7074656420746f2075736520616e20696e76616c696420726f6c65a26469706673582212202de83c407d1f3e46fa10ac960692238886cd7436250953a94cd97278f7d2225964736f6c63430008100033",
  "devdoc": {
    "details": "Allows off-chain infrastructure to look up a hot wallet's deployed DesignatedVoting contract.",
    "kind": "dev",
    "methods": {
      "constructor": {
        "params": {
          "_finder": "keeps track of all contracts within the system based on their interfaceName."
        }
      },
      "newDesignatedVoting(address,address)": {
        "params": {
          "owner": "defines who will own the deployed instance of the designatedVoting contract.",
          "voter": "defines who will be able to vote on behalf of the owner, using the designatedVoting contract."
        },
        "returns": {
          "_0": "designatedVoting a new DesignatedVoting contract."
        }
      }
    },
    "title": "Factory to deploy new instances of DesignatedVotingV2 and look up previously deployed instances.",
    "version": 1
  },
  "userdoc": {
    "kind": "user",
    "methods": {
      "constructor": {
        "notice": "Construct the DesignatedVotingFactory contract."
      },
      "newDesignatedVoting(address,address)": {
        "notice": "Deploys a new `DesignatedVoting` contract."
      }
    },
    "version": 1
  },
  "storageLayout": {
    "storage": [],
    "types": null
  }
}