{
  "address": "0x80B480E976D808898402f5634E49F62121690688",
  "abi": [
    {
      "inputs": [
        {
          "internalType": "address",
          "name": "_finderAddress",
          "type": "address"
        },
        {
          "internalType": "address",
          "name": "_tokenFactoryAddress",
          "type": "address"
        },
        {
          "internalType": "address",
          "name": "_timerAddress",
          "type": "address"
        }
      ],
      "stateMutability": "nonpayable",
      "type": "constructor"
    },
    {
      "anonymous": false,
      "inputs": [
        {
          "indexed": true,
          "internalType": "address",
          "name": "expiringMultiPartyAddress",
          "type": "address"
        },
        {
          "indexed": true,
          "internalType": "address",
          "name": "deployerAddress",
          "type": "address"
        }
      ],
      "name": "CreatedExpiringMultiParty",
      "type": "event"
    },
    {
      "inputs": [
        {
          "internalType": "address",
          "name": "_collateralAddress",
          "type": "address"
        }
      ],
      "name": "_getSyntheticDecimals",
      "outputs": [
        {
          "internalType": "uint8",
          "name": "decimals",
          "type": "uint8"
        }
      ],
      "stateMutability": "view",
      "type": "function"
    },
    {
      "inputs": [
        {
          "components": [
            {
              "internalType": "uint256",
              "name": "expirationTimestamp",
              "type": "uint256"
            },
            {
              "internalType": "address",
              "name": "collateralAddress",
              "type": "address"
            },
            {
              "internalType": "bytes32",
              "name": "priceFeedIdentifier",
              "type": "bytes32"
            },
            {
              "internalType": "string",
              "name": "syntheticName",
              "type": "string"
            },
            {
              "internalType": "string",
              "name": "syntheticSymbol",
              "type": "string"
            },
            {
              "components": [
                {
                  "internalType": "uint256",
                  "name": "rawValue",
                  "type": "uint256"
                }
              ],
              "internalType": "struct FixedPoint.Unsigned",
              "name": "collateralRequirement",
              "type": "tuple"
            },
            {
              "components": [
                {
                  "internalType": "uint256",
                  "name": "rawValue",
                  "type": "uint256"
                }
              ],
              "internalType": "struct FixedPoint.Unsigned",
              "name": "disputeBondPercentage",
              "type": "tuple"
            },
            {
              "components": [
                {
                  "internalType": "uint256",
                  "name": "rawValue",
                  "type": "uint256"
                }
              ],
              "internalType": "struct FixedPoint.Unsigned",
              "name": "sponsorDisputeRewardPercentage",
              "type": "tuple"
            },
            {
              "components": [
                {
                  "internalType": "uint256",
                  "name": "rawValue",
                  "type": "uint256"
                }
              ],
              "internalType": "struct FixedPoint.Unsigned",
              "name": "disputerDisputeRewardPercentage",
              "type": "tuple"
            },
            {
              "components": [
                {
                  "internalType": "uint256",
                  "name": "rawValue",
                  "type": "uint256"
                }
              ],
              "internalType": "struct FixedPoint.Unsigned",
              "name": "minSponsorTokens",
              "type": "tuple"
            },
            {
              "internalType": "uint256",
              "name": "withdrawalLiveness",
              "type": "uint256"
            },
            {
              "internalType": "uint256",
              "name": "liquidationLiveness",
              "type": "uint256"
            },
            {
              "internalType": "address",
              "name": "financialProductLibraryAddress",
              "type": "address"
            }
          ],
          "internalType": "struct ExpiringMultiPartyCreator.Params",
          "name": "params",
          "type": "tuple"
        }
      ],
      "name": "createExpiringMultiParty",
      "outputs": [
        {
          "internalType": "address",
          "name": "",
          "type": "address"
        }
      ],
      "stateMutability": "nonpayable",
      "type": "function"
    },
    {
      "inputs": [],
      "name": "getCurrentTime",
      "outputs": [
        {
          "internalType": "uint256",
          "name": "",
          "type": "uint256"
        }
      ],
      "stateMutability": "view",
      "type": "function"
    },
    {
      "inputs": [
        {
          "internalType": "uint256",
          "name": "time",
          "type": "uint256"
        }
      ],
      "name": "setCurrentTime",
      "outputs": [],
      "stateMutability": "nonpayable",
      "type": "function"
    },
    {
      "inputs": [],
      "name": "timerAddress",
      "outputs": [
        {
          "internalType": "address",
          "name": "",
          "type": "address"
        }
      ],
      "stateMutability": "view",
      "type": "function"
    },
    {
      "inputs": [],
      "name": "tokenFactoryAddress",
      "outputs": [
        {
          "internalType": "address",
          "name": "",
          "type": "address"
        }
      ],
      "stateMutability": "view",
      "type": "function"
    }
  ],
  "transactionHash": "0x29423acd3fb7cf24d77a107fae8e3c412fb51a9080eb3c4c7f22acb4f67f0a2c",
  "args": [
    "0xA969917A4dFaB07936dEc60f70FA5c736A1e2b9e",
    "0x8Aa853D41A08c9E22CB27A383344a273d12310C3",
    "0xf8815ce169E5450aa6908e76E1B970dBcEC11550"
  ],
  "solcInputHash": "864d61c65c789401ae17358a5af86557",
  "bytecode": "0x60803461011457601f61109938819003918201601f19168301916001600160401b0383118484101761011957808492606094604052833981010312610114576100478161012f565b9061006060406100596020840161012f565b920161012f565b600080546001600160a01b039485166001600160a01b031991821617909155600154600160a01b949283166001600160a81b03199091161784179290919060ff60a085901c16156100cf571690600254161760025560ff60a01b191617600155604051610f5590816101448239f35b60405162461bcd60e51b815260206004820152601f60248201527f5265656e7472616e637947756172643a207265656e7472616e742063616c6c006044820152606490fd5b600080fd5b634e487b7160e01b600052604160045260246000fd5b51906001600160a01b03821682036101145756fe608080604052600436101561001357600080fd5b600090813560e01c9081631c39c38d14610cbd5750806322f8e56614610c4e57806329cb924d14610c2b5780634ead6e5114610beb578063be19f0a714610bc25763de4672681461006357600080fd5b34610bbf576020366003190112610bbf5767ffffffffffffffff60043511610bbf576101a060043536036003190112610bbf576040516101a0810181811067ffffffffffffffff821117610a99576040526004356004013581526100cb602460043501610ce2565b6020820152600435604481013560408301526064013567ffffffffffffffff8111610aeb57610101906004369181350101610d48565b60608201526084600435013567ffffffffffffffff8111610aeb5761012d906004369181350101610d48565b60808201526101413660a460043501610d9f565b60a08201526101553660c460043501610d9f565b60c08201526101693660e460043501610d9f565b60e082015261017e3661010460043501610d9f565b6101008201526101943661012460043501610d9f565b6101208201526004356101448101356101408301526101648101356101608301526101c29061018401610ce2565b61018082015260015460ff8160a01c1615610b7a5760ff60a01b191660015560608101515115610b3c5760808101515115610af75760025460208083015161026493926001600160a01b039081169161021b9116610ea8565b9061025286606086015160808701519460ff604051998a978896879563e8a0aed360e01b8752606060048801526064870190610e49565b85810360031901602487015290610e49565b9116604483015203925af19182156107af578392610aaf575b5060405191826101c081011067ffffffffffffffff6101c085011117610a99576101c083016040528383528360208401528360408401528360608401528360808401528360a08401528360c08401528360e08401526040516102de81610d0a565b848152610100840152836101208401526040516102fa81610d0a565b84815261014084015260405161030f81610d0a565b84815261016084015260405161032481610d0a565b84815261018084015260405161033981610d0a565b8481526101a084015283546001600160a01b039081166080850181905260015490911660a085015261014083015115610a545761016083015115610a105782514210156109cb576020838101516040516302abf57960e61b81527210dbdb1b185d195c985b15da1a5d195b1a5cdd606a1b6004820152926001600160a01b039091169190839060249082905afa9182156109c057869261099e575b50604051631d1d5b3960e11b8152600481019190915290602090829060249082906001600160a01b03165afa908115610993578591610954575b501561090f5763bb7448008061014084015110156108ca57610160830151101561088557839160018060a01b03821660608501528051845260018060a01b036020820151166040850152604081015160e085015260a081015161014085015260c081015161016085015260e08101516101808501526101008101516101a0850152610120810151610100850152610140810151602085015261016081015161012085015261018060018060a01b039101511660c08401526101a060405193632f70fc9160e21b8552805160048601526020810151602486015260018060a01b03604082015116604486015260018060a01b03606082015116606486015260018060a01b03608082015116608486015260018060a01b0360a08201511660a486015260018060a01b0360c08201511660c486015260e081015160e4860152610100810151516101048601526101208101516101248601526101408101515161014486015261016081015151610164860152610180810151516101848601520151516101a48401526020836101c48173dd260F3244972Da37FF3Dc3Fb3721A80ACA30FD05af4928315610831578293610864575b506001600160a01b0381163b156107ab57604051634c1d96ab60e11b81526001600160a01b039384166004820181905293839082906024908290849087165af19081156107af578391610850575b50506001600160a01b0381163b156107ab57604051637a231bdd60e11b8152600481018490528281602481836001600160a01b0387165af19081156107af57839161083c575b50506001600160a01b0381163b156107ab576040516339e6401560e11b8152600481018490529082908290602490829084906001600160a01b03165af180156108315761081d575b50506040516106aa81610d0a565b82815282546040516302abf57960e61b815267526567697374727960c01b600482015290602090829060249082906001600160a01b03165afa9081156108125784916107e3575b506001600160a01b0316803b156107df5790839060405192839163066c8c2560e41b835260448301604060048501528151809152602060648501920190855b8181106107ba575050508383809288602483015203925af180156107af57610797575b6040516020908333817ff360b00b309dfe6565667df6b06eab15d0e0958d5e82d89a399ae7dd417b4b098885a36001805460ff60a01b1916600160a01b1790558152f35b6107a18391610cf6565b6107ab5738610753565b5080fd5b6040513d85823e3d90fd5b82516001600160a01b0316845289965087955060209384019390920191600101610730565b8380fd5b610805915060203d60201161080b575b6107fd8183610d26565b810190610e89565b386106f1565b503d6107f3565b6040513d86823e3d90fd5b61082690610cf6565b6107ab57813861069c565b6040513d84823e3d90fd5b61084590610cf6565b6107ab578138610654565b61085990610cf6565b6107ab57813861060e565b61087e91935060203d60201161080b576107fd8183610d26565b91386105c0565b60405162461bcd60e51b815260206004820152601e60248201527f4c69717569646174696f6e206c6976656e65737320746f6f206c6172676500006044820152606490fd5b60405162461bcd60e51b815260206004820152601d60248201527f5769746864726177616c206c6976656e65737320746f6f206c617267650000006044820152606490fd5b60405162461bcd60e51b815260206004820152601a60248201527f436f6c6c61746572616c206e6f742077686974656c69737465640000000000006044820152606490fd5b90506020813d60201161098b575b8161096f60209383610d26565b8101031261098757518015158103610987573861040e565b8480fd5b3d9150610962565b6040513d87823e3d90fd5b60209192506109b990823d841161080b576107fd8183610d26565b91906103d4565b6040513d88823e3d90fd5b60405162461bcd60e51b815260206004820152601760248201527f496e76616c69642065787069726174696f6e2074696d650000000000000000006044820152606490fd5b606460405162461bcd60e51b815260206004820152602060248201527f4c69717569646174696f6e206c6976656e6573732063616e6e6f7420626520306044820152fd5b60405162461bcd60e51b815260206004820152601f60248201527f5769746864726177616c206c6976656e6573732063616e6e6f742062652030006044820152606490fd5b634e487b7160e01b600052604160045260246000fd5b9091506020813d602011610aef575b81610acb60209383610d26565b81010312610aeb57516001600160a01b0381168103610aeb57903861027d565b8280fd5b3d9150610abe565b60405162461bcd60e51b815260206004820152601860248201527f4d697373696e672073796e7468657469632073796d626f6c00000000000000006044820152606490fd5b60405162461bcd60e51b81526020600482015260166024820152754d697373696e672073796e746865746963206e616d6560501b6044820152606490fd5b60405162461bcd60e51b815260206004820152601f60248201527f5265656e7472616e637947756172643a207265656e7472616e742063616c6c006044820152606490fd5b80fd5b5034610bbf5780600319360112610bbf576002546040516001600160a01b039091168152602090f35b5034610bbf576020366003190112610bbf576004356001600160a01b0381168103610c2657610c1b602091610ea8565b60ff60405191168152f35b600080fd5b5034610bbf5780600319360112610bbf576020610c46610dce565b604051908152f35b5034610bbf576020366003190112610bbf5760015481906001600160a01b03168015610cba57803b15610cba57819060246040518094819363117c72b360e11b835260043560048401525af1801561083157610cab575b50604051f35b610cb490610cf6565b38610ca5565b50fd5b9050346107ab57816003193601126107ab576001546001600160a01b03168152602090f35b35906001600160a01b0382168203610c2657565b67ffffffffffffffff8111610a9957604052565b6020810190811067ffffffffffffffff821117610a9957604052565b90601f8019910116810190811067ffffffffffffffff821117610a9957604052565b81601f82011215610c265780359067ffffffffffffffff8211610a995760405192610d7d601f8401601f191660200185610d26565b82845260208383010111610c2657816000926020809301838601378301015290565b9190826020910312610c26576040516020810181811067ffffffffffffffff821117610a995760405291358252565b6001546001600160a01b03168015610e44576020600491604051928380926329cb924d60e01b82525afa908115610e3857600091610e0a575090565b906020823d8211610e30575b81610e2360209383610d26565b81010312610bbf57505190565b3d9150610e16565b6040513d6000823e3d90fd5b504290565b919082519283825260005b848110610e75575050826000602080949584010152601f8019910116010190565b602081830181015184830182015201610e54565b90816020910312610c2657516001600160a01b0381168103610c265790565b60405163313ce56760e01b815290602090829060049082906001600160a01b03165afa8091600091610ee4575b5090610ee15750601290565b90565b6020813d8211610f17575b81610efc60209383610d26565b810103126107ab57519060ff82168203610bbf575038610ed5565b3d9150610eef56fea26469706673582212205185eafabdb0a8c7482d1a3c03811d5d7cfcaf1e00476573abcfdc1cff7ff04664736f6c63430008100033",
  "deployedBytecode": "0x608080604052600436101561001357600080fd5b600090813560e01c9081631c39c38d14610cbd5750806322f8e56614610c4e57806329cb924d14610c2b5780634ead6e5114610beb578063be19f0a714610bc25763de4672681461006357600080fd5b34610bbf576020366003190112610bbf5767ffffffffffffffff60043511610bbf576101a060043536036003190112610bbf576040516101a0810181811067ffffffffffffffff821117610a99576040526004356004013581526100cb602460043501610ce2565b6020820152600435604481013560408301526064013567ffffffffffffffff8111610aeb57610101906004369181350101610d48565b60608201526084600435013567ffffffffffffffff8111610aeb5761012d906004369181350101610d48565b60808201526101413660a460043501610d9f565b60a08201526101553660c460043501610d9f565b60c08201526101693660e460043501610d9f565b60e082015261017e3661010460043501610d9f565b6101008201526101943661012460043501610d9f565b6101208201526004356101448101356101408301526101648101356101608301526101c29061018401610ce2565b61018082015260015460ff8160a01c1615610b7a5760ff60a01b191660015560608101515115610b3c5760808101515115610af75760025460208083015161026493926001600160a01b039081169161021b9116610ea8565b9061025286606086015160808701519460ff604051998a978896879563e8a0aed360e01b8752606060048801526064870190610e49565b85810360031901602487015290610e49565b9116604483015203925af19182156107af578392610aaf575b5060405191826101c081011067ffffffffffffffff6101c085011117610a99576101c083016040528383528360208401528360408401528360608401528360808401528360a08401528360c08401528360e08401526040516102de81610d0a565b848152610100840152836101208401526040516102fa81610d0a565b84815261014084015260405161030f81610d0a565b84815261016084015260405161032481610d0a565b84815261018084015260405161033981610d0a565b8481526101a084015283546001600160a01b039081166080850181905260015490911660a085015261014083015115610a545761016083015115610a105782514210156109cb576020838101516040516302abf57960e61b81527210dbdb1b185d195c985b15da1a5d195b1a5cdd606a1b6004820152926001600160a01b039091169190839060249082905afa9182156109c057869261099e575b50604051631d1d5b3960e11b8152600481019190915290602090829060249082906001600160a01b03165afa908115610993578591610954575b501561090f5763bb7448008061014084015110156108ca57610160830151101561088557839160018060a01b03821660608501528051845260018060a01b036020820151166040850152604081015160e085015260a081015161014085015260c081015161016085015260e08101516101808501526101008101516101a0850152610120810151610100850152610140810151602085015261016081015161012085015261018060018060a01b039101511660c08401526101a060405193632f70fc9160e21b8552805160048601526020810151602486015260018060a01b03604082015116604486015260018060a01b03606082015116606486015260018060a01b03608082015116608486015260018060a01b0360a08201511660a486015260018060a01b0360c08201511660c486015260e081015160e4860152610100810151516101048601526101208101516101248601526101408101515161014486015261016081015151610164860152610180810151516101848601520151516101a48401526020836101c48173__$585a446ef18259666e65e81865270bd4dc$__5af4928315610831578293610864575b506001600160a01b0381163b156107ab57604051634c1d96ab60e11b81526001600160a01b039384166004820181905293839082906024908290849087165af19081156107af578391610850575b50506001600160a01b0381163b156107ab57604051637a231bdd60e11b8152600481018490528281602481836001600160a01b0387165af19081156107af57839161083c575b50506001600160a01b0381163b156107ab576040516339e6401560e11b8152600481018490529082908290602490829084906001600160a01b03165af180156108315761081d575b50506040516106aa81610d0a565b82815282546040516302abf57960e61b815267526567697374727960c01b600482015290602090829060249082906001600160a01b03165afa9081156108125784916107e3575b506001600160a01b0316803b156107df5790839060405192839163066c8c2560e41b835260448301604060048501528151809152602060648501920190855b8181106107ba575050508383809288602483015203925af180156107af57610797575b6040516020908333817ff360b00b309dfe6565667df6b06eab15d0e0958d5e82d89a399ae7dd417b4b098885a36001805460ff60a01b1916600160a01b1790558152f35b6107a18391610cf6565b6107ab5738610753565b5080fd5b6040513d85823e3d90fd5b82516001600160a01b0316845289965087955060209384019390920191600101610730565b8380fd5b610805915060203d60201161080b575b6107fd8183610d26565b810190610e89565b386106f1565b503d6107f3565b6040513d86823e3d90fd5b61082690610cf6565b6107ab57813861069c565b6040513d84823e3d90fd5b61084590610cf6565b6107ab578138610654565b61085990610cf6565b6107ab57813861060e565b61087e91935060203d60201161080b576107fd8183610d26565b91386105c0565b60405162461bcd60e51b815260206004820152601e60248201527f4c69717569646174696f6e206c6976656e65737320746f6f206c6172676500006044820152606490fd5b60405162461bcd60e51b815260206004820152601d60248201527f5769746864726177616c206c6976656e65737320746f6f206c617267650000006044820152606490fd5b60405162461bcd60e51b815260206004820152601a60248201527f436f6c6c61746572616c206e6f742077686974656c69737465640000000000006044820152606490fd5b90506020813d60201161098b575b8161096f60209383610d26565b8101031261098757518015158103610987573861040e565b8480fd5b3d9150610962565b6040513d87823e3d90fd5b60209192506109b990823d841161080b576107fd8183610d26565b91906103d4565b6040513d88823e3d90fd5b60405162461bcd60e51b815260206004820152601760248201527f496e76616c69642065787069726174696f6e2074696d650000000000000000006044820152606490fd5b606460405162461bcd60e51b815260206004820152602060248201527f4c69717569646174696f6e206c6976656e6573732063616e6e6f7420626520306044820152fd5b60405162461bcd60e51b815260206004820152601f60248201527f5769746864726177616c206c6976656e6573732063616e6e6f742062652030006044820152606490fd5b634e487b7160e01b600052604160045260246000fd5b9091506020813d602011610aef575b81610acb60209383610d26565b81010312610aeb57516001600160a01b0381168103610aeb57903861027d565b8280fd5b3d9150610abe565b60405162461bcd60e51b815260206004820152601860248201527f4d697373696e672073796e7468657469632073796d626f6c00000000000000006044820152606490fd5b60405162461bcd60e51b81526020600482015260166024820152754d697373696e672073796e746865746963206e616d6560501b6044820152606490fd5b60405162461bcd60e51b815260206004820152601f60248201527f5265656e7472616e637947756172643a207265656e7472616e742063616c6c006044820152606490fd5b80fd5b5034610bbf5780600319360112610bbf576002546040516001600160a01b039091168152602090f35b5034610bbf576020366003190112610bbf576004356001600160a01b0381168103610c2657610c1b602091610ea8565b60ff60405191168152f35b600080fd5b5034610bbf5780600319360112610bbf576020610c46610dce565b604051908152f35b5034610bbf576020366003190112610bbf5760015481906001600160a01b03168015610cba57803b15610cba57819060246040518094819363117c72b360e11b835260043560048401525af1801561083157610cab575b50604051f35b610cb490610cf6565b38610ca5565b50fd5b9050346107ab57816003193601126107ab576001546001600160a01b03168152602090f35b35906001600160a01b0382168203610c2657565b67ffffffffffffffff8111610a9957604052565b6020810190811067ffffffffffffffff821117610a9957604052565b90601f8019910116810190811067ffffffffffffffff821117610a9957604052565b81601f82011215610c265780359067ffffffffffffffff8211610a995760405192610d7d601f8401601f191660200185610d26565b82845260208383010111610c2657816000926020809301838601378301015290565b9190826020910312610c26576040516020810181811067ffffffffffffffff821117610a995760405291358252565b6001546001600160a01b03168015610e44576020600491604051928380926329cb924d60e01b82525afa908115610e3857600091610e0a575090565b906020823d8211610e30575b81610e2360209383610d26565b81010312610bbf57505190565b3d9150610e16565b6040513d6000823e3d90fd5b504290565b919082519283825260005b848110610e75575050826000602080949584010152601f8019910116010190565b602081830181015184830182015201610e54565b90816020910312610c2657516001600160a01b0381168103610c265790565b60405163313ce56760e01b815290602090829060049082906001600160a01b03165afa8091600091610ee4575b5090610ee15750601290565b90565b6020813d8211610f17575b81610efc60209383610d26565b810103126107ab57519060ff82168203610bbf575038610ed5565b3d9150610eef56fea26469706673582212205185eafabdb0a8c7482d1a3c03811d5d7cfcaf1e00476573abcfdc1cff7ff04664736f6c63430008100033",
  "libraries": {
    "ExpiringMultiPartyLib": "0xdd260F3244972Da37FF3Dc3Fb3721A80ACA30FD0"
  },
  "devdoc": {
    "kind": "dev",
    "methods": {
      "constructor": {
        "params": {
          "_finderAddress": "UMA protocol Finder used to discover other protocol contracts.",
          "_timerAddress": "Contract that stores the current time in a testing environment.",
          "_tokenFactoryAddress": "ERC20 token factory used to deploy synthetic token instances."
        }
      },
      "createExpiringMultiParty((uint256,address,bytes32,string,string,(uint256),(uint256),(uint256),(uint256),(uint256),uint256,uint256,address))": {
        "params": {
          "params": "is a `ConstructorParams` object from ExpiringMultiParty."
        },
        "returns": {
          "_0": "address of the deployed ExpiringMultiParty contract."
        }
      },
      "getCurrentTime()": {
        "returns": {
          "_0": "uint for the current Testable timestamp."
        }
      },
      "setCurrentTime(uint256)": {
        "details": "Will revert if not running in test mode.",
        "params": {
          "time": "timestamp to set current Testable time to."
        }
      }
    },
    "title": "Expiring Multi Party Contract creator.",
    "version": 1
  },
  "userdoc": {
    "kind": "user",
    "methods": {
      "constructor": {
        "notice": "Constructs the ExpiringMultiPartyCreator contract."
      },
      "createExpiringMultiParty((uint256,address,bytes32,string,string,(uint256),(uint256),(uint256),(uint256),(uint256),uint256,uint256,address))": {
        "notice": "Creates an instance of expiring multi party and registers it within the registry."
      },
      "getCurrentTime()": {
        "notice": "Gets the current time. Will return the last time set in `setCurrentTime` if running in test mode. Otherwise, it will return the block timestamp."
      },
      "setCurrentTime(uint256)": {
        "notice": "Sets the current time."
      }
    },
    "notice": "Factory contract to create and register new instances of expiring multiparty contracts. Responsible for constraining the parameters used to construct a new EMP. This creator contains a number of constraints that are applied to newly created expiring multi party contract. These constraints can evolve over time and are initially constrained to conservative values in this first iteration. Technically there is nothing in the ExpiringMultiParty contract requiring these constraints. However, because `createExpiringMultiParty()` is intended to be the only way to create valid financial contracts that are registered with the DVM (via _registerContract), we can enforce deployment configurations here.",
    "version": 1
  },
  "storageLayout": {
    "storage": [
      {
        "astId": 24995,
        "contract": "contracts/financial-templates/expiring-multiparty/ExpiringMultiPartyCreator.sol:ExpiringMultiPartyCreator",
        "label": "finderAddress",
        "offset": 0,
        "slot": "0",
        "type": "t_address"
      },
      {
        "astId": 17751,
        "contract": "contracts/financial-templates/expiring-multiparty/ExpiringMultiPartyCreator.sol:ExpiringMultiPartyCreator",
        "label": "timerAddress",
        "offset": 0,
        "slot": "1",
        "type": "t_address"
      },
      {
        "astId": 16304,
        "contract": "contracts/financial-templates/expiring-multiparty/ExpiringMultiPartyCreator.sol:ExpiringMultiPartyCreator",
        "label": "_notEntered",
        "offset": 20,
        "slot": "1",
        "type": "t_bool"
      },
      {
        "astId": 44983,
        "contract": "contracts/financial-templates/expiring-multiparty/ExpiringMultiPartyCreator.sol:ExpiringMultiPartyCreator",
        "label": "tokenFactoryAddress",
        "offset": 0,
        "slot": "2",
        "type": "t_address"
      }
    ],
    "types": {
      "t_address": {
        "encoding": "inplace",
        "label": "address",
        "numberOfBytes": "20"
      },
      "t_bool": {
        "encoding": "inplace",
        "label": "bool",
        "numberOfBytes": "1"
      }
    }
  }
}