{
  "address": "0x814908aE9117D9c0B01fdB6b733dcd8a43D2B6Ba",
  "abi": [
    {
      "anonymous": false,
      "inputs": [
        {
          "indexed": true,
          "internalType": "address",
          "name": "previousOwner",
          "type": "address"
        },
        {
          "indexed": true,
          "internalType": "address",
          "name": "newOwner",
          "type": "address"
        }
      ],
      "name": "OwnershipTransferred",
      "type": "event"
    },
    {
      "inputs": [
        {
          "internalType": "address",
          "name": "financialContract",
          "type": "address"
        }
      ],
      "name": "callEmergencyShutdown",
      "outputs": [],
      "stateMutability": "nonpayable",
      "type": "function"
    },
    {
      "inputs": [
        {
          "internalType": "address",
          "name": "financialContract",
          "type": "address"
        }
      ],
      "name": "callRemargin",
      "outputs": [],
      "stateMutability": "nonpayable",
      "type": "function"
    },
    {
      "inputs": [],
      "name": "owner",
      "outputs": [
        {
          "internalType": "address",
          "name": "",
          "type": "address"
        }
      ],
      "stateMutability": "view",
      "type": "function"
    },
    {
      "inputs": [],
      "name": "renounceOwnership",
      "outputs": [],
      "stateMutability": "nonpayable",
      "type": "function"
    },
    {
      "inputs": [
        {
          "internalType": "address",
          "name": "newOwner",
          "type": "address"
        }
      ],
      "name": "transferOwnership",
      "outputs": [],
      "stateMutability": "nonpayable",
      "type": "function"
    }
  ],
  "transactionHash": "0xf838caaca2d705270f26cb8e02db24673f1f5087946830d9ce03ea7dd2a7f19c",
  "args": [],
  "solcInputHash": "864d61c65c789401ae17358a5af86557",
  "bytecode": "0x6080806040523461005b5760008054336001600160a01b0319821681178355916001600160a01b03909116907f8be0079c531659141344cd1fd0a4f28419497f9722a3daafe3b4186f6b6457e09084a361036090816100618239f35b600080fdfe6040608081526004908136101561001557600080fd5b600091823560e01c80630caf41211461023357838163547e1c40146101b857508063715018a61461015b5780638da5cb5b1461012f5763f2fde38b1461005a57600080fd5b3461012b57602036600319011261012b576001600160a01b0381358181169290839003610127576100896102a8565b82156100d5575060005492826bffffffffffffffffffffffff60a01b8516176000555192167f8be0079c531659141344cd1fd0a4f28419497f9722a3daafe3b4186f6b6457e0600084a3f35b608490602085519162461bcd60e51b8352820152602660248201527f4f776e61626c653a206e6577206f776e657220697320746865207a65726f206160448201526564647265737360d01b6064820152fd5b8480fd5b8280fd5b505034610157578160031936011261015757905490516001600160a01b039091168152602090f35b5080fd5b5050346101575781600319360112610157576101756102a8565b600080546001600160a01b0319811682559151916001600160a01b03167f8be0079c531659141344cd1fd0a4f28419497f9722a3daafe3b4186f6b6457e08284a3f35b919050346101575760203660031901126101575780356001600160a01b038116919082900361012b576101e96102a8565b813b1561012b57835163bda02e7760e01b81529183918391829084905af180156102265761021657505051f35b61021f90610300565b6101575751f35b50505051903d90823e3d90fd5b508290346101575760203660031901126101575780356001600160a01b038116919082900361012b576102646102a8565b813b1561012b578351630d00f0bf60e21b81529183918391829084905af1801561029e5761029157509051f35b61029a90610300565b9051f35b83513d84823e3d90fd5b6000546001600160a01b031633036102bc57565b606460405162461bcd60e51b815260206004820152602060248201527f4f776e61626c653a2063616c6c6572206973206e6f7420746865206f776e65726044820152fd5b67ffffffffffffffff811161031457604052565b634e487b7160e01b600052604160045260246000fdfea2646970667358221220802fff57cd318b32cfc39b036a6bfb53b6bb9f75f8ce99cc9b4bb4086a52ebe564736f6c63430008100033",
  "devdoc": {
    "details": "Allows appropriately permissioned admin roles to interact with financial contracts.",
    "kind": "dev",
    "methods": {
      "callEmergencyShutdown(address)": {
        "params": {
          "financialContract": "address of the FinancialContract to be shut down."
        }
      },
      "callRemargin(address)": {
        "params": {
          "financialContract": "address of the FinancialContract to be remargined."
        }
      },
      "owner()": {
        "details": "Returns the address of the current owner."
      },
      "renounceOwnership()": {
        "details": "Leaves the contract without owner. It will not be possible to call `onlyOwner` functions. Can only be called by the current owner. NOTE: Renouncing ownership will leave the contract without an owner, thereby disabling any functionality that is only available to the owner."
      },
      "transferOwnership(address)": {
        "details": "Transfers ownership of the contract to a new account (`newOwner`). Can only be called by the current owner."
      }
    },
    "title": "Admin for financial contracts in the UMA system.",
    "version": 1
  },
  "userdoc": {
    "kind": "user",
    "methods": {
      "callEmergencyShutdown(address)": {
        "notice": "Calls emergency shutdown on the provided financial contract."
      },
      "callRemargin(address)": {
        "notice": "Calls remargin on the provided financial contract."
      }
    },
    "version": 1
  },
  "storageLayout": {
    "storage": [
      {
        "astId": 4304,
        "contract": "contracts/data-verification-mechanism/implementation/FinancialContractsAdmin.sol:FinancialContractsAdmin",
        "label": "_owner",
        "offset": 0,
        "slot": "0",
        "type": "t_address"
      }
    ],
    "types": {
      "t_address": {
        "encoding": "inplace",
        "label": "address",
        "numberOfBytes": "20"
      }
    }
  }
}