{
  "address": "0xA969917A4dFaB07936dEc60f70FA5c736A1e2b9e",
  "abi": [
    {
      "anonymous": false,
      "inputs": [
        {
          "indexed": true,
          "internalType": "bytes32",
          "name": "interfaceName",
          "type": "bytes32"
        },
        {
          "indexed": true,
          "internalType": "address",
          "name": "newImplementationAddress",
          "type": "address"
        }
      ],
      "name": "InterfaceImplementationChanged",
      "type": "event"
    },
    {
      "anonymous": false,
      "inputs": [
        {
          "indexed": true,
          "internalType": "address",
          "name": "previousOwner",
          "type": "address"
        },
        {
          "indexed": true,
          "internalType": "address",
          "name": "newOwner",
          "type": "address"
        }
      ],
      "name": "OwnershipTransferred",
      "type": "event"
    },
    {
      "inputs": [
        {
          "internalType": "bytes32",
          "name": "interfaceName",
          "type": "bytes32"
        },
        {
          "internalType": "address",
          "name": "implementationAddress",
          "type": "address"
        }
      ],
      "name": "changeImplementationAddress",
      "outputs": [],
      "stateMutability": "nonpayable",
      "type": "function"
    },
    {
      "inputs": [
        {
          "internalType": "bytes32",
          "name": "interfaceName",
          "type": "bytes32"
        }
      ],
      "name": "getImplementationAddress",
      "outputs": [
        {
          "internalType": "address",
          "name": "",
          "type": "address"
        }
      ],
      "stateMutability": "view",
      "type": "function"
    },
    {
      "inputs": [
        {
          "internalType": "bytes32",
          "name": "",
          "type": "bytes32"
        }
      ],
      "name": "interfacesImplemented",
      "outputs": [
        {
          "internalType": "address",
          "name": "",
          "type": "address"
        }
      ],
      "stateMutability": "view",
      "type": "function"
    },
    {
      "inputs": [],
      "name": "owner",
      "outputs": [
        {
          "internalType": "address",
          "name": "",
          "type": "address"
        }
      ],
      "stateMutability": "view",
      "type": "function"
    },
    {
      "inputs": [],
      "name": "renounceOwnership",
      "outputs": [],
      "stateMutability": "nonpayable",
      "type": "function"
    },
    {
      "inputs": [
        {
          "internalType": "address",
          "name": "newOwner",
          "type": "address"
        }
      ],
      "name": "transferOwnership",
      "outputs": [],
      "stateMutability": "nonpayable",
      "type": "function"
    }
  ],
  "transactionHash": "0x75de3d9dd8a28cc182a6ad09d47f38cf753ee2a8a4a31a5e86e16c486a49d8ad",
  "args": [],
  "solcInputHash": "864d61c65c789401ae17358a5af86557",
  "bytecode": "0x6080806040523461005b5760008054336001600160a01b0319821681178355916001600160a01b03909116907f8be0079c531659141344cd1fd0a4f28419497f9722a3daafe3b4186f6b6457e09084a361036f90816100618239f35b600080fdfe6040608081526004908136101561001557600080fd5b600091823560e01c806331f9665e14610269578063715018a61461020c5780638da5cb5b146101e0578063aafd5e4014610160578063cc48f4db1461012e5763f2fde38b1461006357600080fd5b3461012a57602036600319011261012a576001600160a01b0381358181169290839003610126576100926102e1565b82156100d4575083546001600160a01b0319811683178555925192167f8be0079c531659141344cd1fd0a4f28419497f9722a3daafe3b4186f6b6457e08484a3f35b608490602085519162461bcd60e51b8352820152602660248201527f4f776e61626c653a206e6577206f776e657220697320746865207a65726f206160448201526564647265737360d01b6064820152fd5b8480fd5b8280fd5b503461012a57602036600319011261012a5735825260016020908152918190205490516001600160a01b039091168152f35b5082346101dd5760203660031901126101dd57813581526001602052829020546001600160a01b031690811561019a575060209151908152f35b606490602084519162461bcd60e51b8352820152601860248201527f496d706c656d656e746174696f6e206e6f7420666f756e6400000000000000006044820152fd5b80fd5b505034610208578160031936011261020857905490516001600160a01b039091168152602090f35b5080fd5b5050346102085781600319360112610208576102266102e1565b81546001600160a01b03198116835590519082906001600160a01b03167f8be0079c531659141344cd1fd0a4f28419497f9722a3daafe3b4186f6b6457e08284a3f35b503461012a578160031936011261012a5735906024356001600160a01b03811691908290036102dd5761029a6102e1565b828452600160205280842080546001600160a01b0319168317905551917fb29aa13e555039289e0513962835b00fcc6e4a265ae8f99e68e5b90d5406fe488484a3f35b8380fd5b6000546001600160a01b031633036102f557565b606460405162461bcd60e51b815260206004820152602060248201527f4f776e61626c653a2063616c6c6572206973206e6f7420746865206f776e65726044820152fdfea2646970667358221220011bdf27a17a1cc853e2d5d456672009283cdd5c6ed68040b6f1eb37c3882b7264736f6c63430008100033",
  "devdoc": {
    "details": "Examples of interfaces with implementations that Finder locates are the Oracle and Store interfaces.",
    "kind": "dev",
    "methods": {
      "changeImplementationAddress(bytes32,address)": {
        "params": {
          "implementationAddress": "address of the implementation contract.",
          "interfaceName": "bytes32 of the interface name that is either changed or registered."
        }
      },
      "getImplementationAddress(bytes32)": {
        "params": {
          "interfaceName": "queried interface."
        },
        "returns": {
          "_0": "implementationAddress address of the defined interface."
        }
      },
      "owner()": {
        "details": "Returns the address of the current owner."
      },
      "renounceOwnership()": {
        "details": "Leaves the contract without owner. It will not be possible to call `onlyOwner` functions. Can only be called by the current owner. NOTE: Renouncing ownership will leave the contract without an owner, thereby disabling any functionality that is only available to the owner."
      },
      "transferOwnership(address)": {
        "details": "Transfers ownership of the contract to a new account (`newOwner`). Can only be called by the current owner."
      }
    },
    "title": "Provides addresses of the live contracts implementing certain interfaces.",
    "version": 1
  },
  "userdoc": {
    "kind": "user",
    "methods": {
      "changeImplementationAddress(bytes32,address)": {
        "notice": "Updates the address of the contract that implements `interfaceName`."
      },
      "getImplementationAddress(bytes32)": {
        "notice": "Gets the address of the contract that implements the given `interfaceName`."
      }
    },
    "version": 1
  },
  "storageLayout": {
    "storage": [
      {
        "astId": 4304,
        "contract": "contracts/data-verification-mechanism/implementation/Finder.sol:Finder",
        "label": "_owner",
        "offset": 0,
        "slot": "0",
        "type": "t_address"
      },
      {
        "astId": 26234,
        "contract": "contracts/data-verification-mechanism/implementation/Finder.sol:Finder",
        "label": "interfacesImplemented",
        "offset": 0,
        "slot": "1",
        "type": "t_mapping(t_bytes32,t_address)"
      }
    ],
    "types": {
      "t_address": {
        "encoding": "inplace",
        "label": "address",
        "numberOfBytes": "20"
      },
      "t_bytes32": {
        "encoding": "inplace",
        "label": "bytes32",
        "numberOfBytes": "32"
      },
      "t_mapping(t_bytes32,t_address)": {
        "encoding": "mapping",
        "key": "t_bytes32",
        "label": "mapping(bytes32 => address)",
        "numberOfBytes": "32",
        "value": "t_address"
      }
    }
  }
}