{
  "address": "0x0C55e5b1604C4D9dd2857A324298C1cf11F051F4",
  "abi": [
    {
      "inputs": [
        {
          "internalType": "address",
          "name": "_checkpointManager",
          "type": "address"
        },
        {
          "internalType": "address",
          "name": "_fxRoot",
          "type": "address"
        }
      ],
      "stateMutability": "nonpayable",
      "type": "constructor"
    },
    {
      "anonymous": false,
      "inputs": [
        {
          "indexed": true,
          "internalType": "address",
          "name": "previousOwner",
          "type": "address"
        },
        {
          "indexed": true,
          "internalType": "address",
          "name": "newOwner",
          "type": "address"
        }
      ],
      "name": "OwnershipTransferred",
      "type": "event"
    },
    {
      "anonymous": false,
      "inputs": [
        {
          "indexed": true,
          "internalType": "address",
          "name": "to",
          "type": "address"
        },
        {
          "indexed": false,
          "internalType": "bytes",
          "name": "data",
          "type": "bytes"
        }
      ],
      "name": "RelayedGovernanceRequest",
      "type": "event"
    },
    {
      "inputs": [],
      "name": "SEND_MESSAGE_EVENT_SIG",
      "outputs": [
        {
          "internalType": "bytes32",
          "name": "",
          "type": "bytes32"
        }
      ],
      "stateMutability": "view",
      "type": "function"
    },
    {
      "inputs": [],
      "name": "checkpointManager",
      "outputs": [
        {
          "internalType": "contract ICheckpointManager",
          "name": "",
          "type": "address"
        }
      ],
      "stateMutability": "view",
      "type": "function"
    },
    {
      "inputs": [],
      "name": "fxChildTunnel",
      "outputs": [
        {
          "internalType": "address",
          "name": "",
          "type": "address"
        }
      ],
      "stateMutability": "view",
      "type": "function"
    },
    {
      "inputs": [],
      "name": "fxRoot",
      "outputs": [
        {
          "internalType": "contract IFxStateSender",
          "name": "",
          "type": "address"
        }
      ],
      "stateMutability": "view",
      "type": "function"
    },
    {
      "inputs": [],
      "name": "owner",
      "outputs": [
        {
          "internalType": "address",
          "name": "",
          "type": "address"
        }
      ],
      "stateMutability": "view",
      "type": "function"
    },
    {
      "inputs": [
        {
          "internalType": "bytes32",
          "name": "",
          "type": "bytes32"
        }
      ],
      "name": "processedExits",
      "outputs": [
        {
          "internalType": "bool",
          "name": "",
          "type": "bool"
        }
      ],
      "stateMutability": "view",
      "type": "function"
    },
    {
      "inputs": [
        {
          "internalType": "bytes",
          "name": "inputData",
          "type": "bytes"
        }
      ],
      "name": "receiveMessage",
      "outputs": [],
      "stateMutability": "nonpayable",
      "type": "function"
    },
    {
      "inputs": [
        {
          "internalType": "address",
          "name": "to",
          "type": "address"
        },
        {
          "internalType": "bytes",
          "name": "data",
          "type": "bytes"
        }
      ],
      "name": "relayGovernance",
      "outputs": [],
      "stateMutability": "nonpayable",
      "type": "function"
    },
    {
      "inputs": [],
      "name": "renounceOwnership",
      "outputs": [],
      "stateMutability": "nonpayable",
      "type": "function"
    },
    {
      "inputs": [
        {
          "internalType": "address",
          "name": "_fxChildTunnel",
          "type": "address"
        }
      ],
      "name": "setFxChildTunnel",
      "outputs": [],
      "stateMutability": "nonpayable",
      "type": "function"
    },
    {
      "inputs": [
        {
          "internalType": "address",
          "name": "newOwner",
          "type": "address"
        }
      ],
      "name": "transferOwnership",
      "outputs": [],
      "stateMutability": "nonpayable",
      "type": "function"
    }
  ],
  "transactionHash": "0xd37f477636fb2091ab763f7807bc556dd33a06f72bee02417088d1955d99ada3",
  "args": [
    "0x2d92211362AdAa7963De4609214282FFf44859F6",
    "0x47CACA50f7A2CeE78Fa9f196C04ba8F4E6B54F73"
  ],
  "solcInputHash": "864d61c65c789401ae17358a5af86557",
  "bytecode": "0x6080346100d257601f62001c9338819003918201601f19168301916001600160401b038311848410176100d75780849260409485528339810103126100d257610053602061004c836100ed565b92016100ed565b60008054336001600160a01b0319808316821784556040519590946001600160a01b03949093859391908416907f8be0079c531659141344cd1fd0a4f28419497f9722a3daafe3b4186f6b6457e09089a31683600254161760025516906001541617600155600160ff196005541617600555611b919081620001028239f35b600080fd5b634e487b7160e01b600052604160045260246000fd5b51906001600160a01b03821682036100d25756fe60806040526004361015610013575b600080fd5b60003560e01c80630e387de6146100ef578063607f2d42146100e65780636296932d146100dd578063715018a6146100d45780638da5cb5b146100cb578063972c4928146100c2578063aea4e49e146100b9578063c0857ba0146100b0578063de9b771f146100a7578063f2fde38b1461009e5763f953cec71461009657600080fd5b61000e6106a3565b5061000e6105d6565b5061000e6105ac565b5061000e610582565b5061000e6104e4565b5061000e6104ba565b5061000e610490565b5061000e61042e565b5061000e610281565b5061000e61012b565b503461000e57600036600319011261000e5760206040517f8c5261668696ce22758910d05bab8f186d6eb247ceac2af2e82c7dc17669b0368152f35b503461000e57602036600319011261000e576004356000526004602052602060ff604060002054166040519015158152f35b6001600160a01b0381160361000e57565b50634e487b7160e01b600052604160045260246000fd5b67ffffffffffffffff811161019957604052565b6101a161016e565b604052565b6020810190811067ffffffffffffffff82111761019957604052565b6040810190811067ffffffffffffffff82111761019957604052565b90601f8019910116810190811067ffffffffffffffff82111761019957604052565b6040519061020d826101c2565b565b60209067ffffffffffffffff811161022d575b601f01601f19160190565b61023561016e565b610222565b81601f8201121561000e578035906102518261020f565b9261025f60405194856101de565b8284526020838301011161000e57816000926020809301838601378301015290565b503461000e57600060408060031936011261042a576004356102a28161015d565b60243567ffffffffffffffff8111610426576102c290369060040161023a565b9060055460ff8116156103e25760ff19166005556102de611aab565b825190610301826102f3858460208401611b28565b03601f1981018452836101de565b6001546003546001600160a01b0393908416918791908516803b156103de576103409383895180968195829463b472047760e01b845260048401611b28565b03925af180156103d1575b61039c575b50907f887046c90d01e9c349ea73c35975920fcbb44c3c400f49e5c7c4b230a7252683916103848551928392169482611b4a565b0390a2610399600160ff196005541617600555565b51f35b946103c97f887046c90d01e9c349ea73c35975920fcbb44c3c400f49e5c7c4b230a7252683939296610185565b949091610350565b6103d96117e6565b61034b565b8280fd5b835162461bcd60e51b815260206004820152601f60248201527f5265656e7472616e637947756172643a207265656e7472616e742063616c6c006044820152606490fd5b8380fd5b5080fd5b503461000e5760008060031936011261048d57610449611aab565b80546001600160a01b0319811682556040519082906001600160a01b03167f8be0079c531659141344cd1fd0a4f28419497f9722a3daafe3b4186f6b6457e08284a3f35b80fd5b503461000e57600036600319011261000e576000546040516001600160a01b039091168152602090f35b503461000e57600036600319011261000e576003546040516001600160a01b039091168152602090f35b503461000e57602036600319011261000e576004356105028161015d565b600354906001600160a01b039081831661052a576001600160a01b0319909216911617600355005b60405162461bcd60e51b815260206004820152602a60248201527f467842617365526f6f7454756e6e656c3a204348494c445f54554e4e454c5f4160448201526913149150511657d4d15560b21b6064820152608490fd5b503461000e57600036600319011261000e576002546040516001600160a01b039091168152602090f35b503461000e57600036600319011261000e576001546040516001600160a01b039091168152602090f35b503461000e57602036600319011261000e576004356105f48161015d565b6105fc611aab565b6001600160a01b0390811690811561064f57600080546001600160a01b031981168417825560405191939192167f8be0079c531659141344cd1fd0a4f28419497f9722a3daafe3b4186f6b6457e08484a3f35b60405162461bcd60e51b815260206004820152602660248201527f4f776e61626c653a206e6577206f776e657220697320746865207a65726f206160448201526564647265737360d01b6064820152608490fd5b503461000e57602036600319011261000e5760043567ffffffffffffffff811161000e5761086c6106e36106de61087b93369060040161023a565b610a7d565b6108236106ef82610e88565b916106f981610b7f565b9061077f610772610709866112a3565b61072a61073861071886610ea1565b60405192839160208301958a876108a0565b03601f1981018352826101de565b51902061076261075c610755836000526004602052604060002090565b5460ff1690565b156108c5565b6000526004602052604060002090565b805460ff19166001179055565b60206107f86107f361079084610cb8565b61079981610ed3565b6003549098906107d5906001600160a01b03166107c46107b88c610f45565b6001600160a01b031690565b6001600160a01b039091161461091d565b6107de86610bc7565b9485920151906107ed87610e6f565b91611022565b610977565b61080182610b97565b61080a83610baf565b9061081d61081785610b36565b94610b59565b9461183f565b506108677f8c5261668696ce22758910d05bab8f186d6eb247ceac2af2e82c7dc17669b03661086161085c61085785610f81565b610fc5565b611571565b146109cf565b610faa565b60208082518301019101610a1b565b005b60005b8381106108905750506000910152565b8181015183820152602001610880565b604093929181526108ba825180936020808501910161087d565b019060208201520190565b156108cc57565b60405162461bcd60e51b8152602060048201526024808201527f4678526f6f7454756e6e656c3a20455849545f414c52454144595f50524f434560448201526314d4d15160e21b6064820152608490fd5b1561092457565b60405162461bcd60e51b815260206004820152602560248201527f4678526f6f7454756e6e656c3a20494e56414c49445f46585f4348494c445f54604482015264155393915360da1b6064820152608490fd5b1561097e57565b60405162461bcd60e51b815260206004820152602360248201527f4678526f6f7454756e6e656c3a20494e56414c49445f524543454950545f505260448201526227a7a360e91b6064820152608490fd5b156109d657565b60405162461bcd60e51b815260206004820152601f60248201527f4678526f6f7454756e6e656c3a20494e56414c49445f5349474e4154555245006044820152606490fd5b60208183031261000e5780519067ffffffffffffffff821161000e570181601f8201121561000e578051610a4e8161020f565b92610a5c60405194856101de565b8184526020828401011161000e57610a7a916020808501910161087d565b90565b610a98610a9d916060604051610a92816101a6565b526113fe565b61144b565b60405190610aaa826101a6565b815290565b50634e487b7160e01b600052603260045260246000fd5b60e090805160061015610ad7570190565b610adf610aaf565b0190565b602090805115610ad7570190565b604090805160011015610ad7570190565b61022090805160101015610ad7570190565b6020918151811015610b29575b60051b010190565b610b31610aaf565b610b21565b6020610a7a9151805115610b4c575b0151611571565b610b54610aaf565b610b45565b6040610a7a9151805160011015610b72575b0151611614565b610b7a610aaf565b610b6b565b6060610a7a9151805160021015610b4c570151611571565b6080610a7a9151805160031015610b4c570151611571565b60a0610a7a9151805160041015610b4c570151611571565b60c0610a7a9151805160051015610b4c570151611571565b50634e487b7160e01b600052601160045260246000fd5b600019810191908211610c0557565b61020d610bdf565b6020039060208211610c0557565b600119810191908211610c0557565b60bf19810191908211610c0557565b607f19810191908211610c0557565b60f619810191908211610c0557565b60b619810191908211610c0557565b91908203918211610c0557565b60405190610c80826101a6565b60008252565b90610c908261020f565b610c9d60405191826101de565b8281528092610cae601f199161020f565b0190602036910137565b604051906060820182811067ffffffffffffffff821117610d66575b60405260608252610d2d602083019160608352604084019260008452610d0e610d06610d008451610ac6565b51611614565b8083526113fe565b610d178161151e565b15610d3257610d26915061144b565b8452610ea1565b905290565b50610a98610d269151610d61610d50610d4b8351610bf6565b610c86565b918251908360200190602101610dc7565b6113fe565b610d6e61016e565b610cd4565b9060018201809211610c0557565b9060028201809211610c0557565b9060208201809211610c0557565b91908201809211610c0557565b601f8111610dba575b6101000a90565b610dc2610bdf565b610db3565b929091928315610e695792915b602093848410610e335780518252848101809111610e26575b938101809111610e19575b91601f198101908111610e0c575b91610dd4565b610e14610bdf565b610e06565b610e21610bdf565b610df8565b610e2e610bdf565b610ded565b919350918015610e6457610e51610e4c610e5692610c0d565b610daa565b610bf6565b905182518216911916179052565b505050565b50915050565b610100610a7a9151805160071015610b72570151611614565b610120610a7a9151805160081015610b72570151611614565b610140610a7a9151805160091015610b4c570151611571565b60405190610ec7826101c2565b60006020838281520152565b610f179060606020604051610ee7816101c2565b610eef610eba565b815201526040610f0e60808351805160031015610f38575b015161144b565b91015190610b14565b51610f218161144b565b60405191610f2e836101c2565b8252602082015290565b610f40610aaf565b610f07565b602080910151805115610f74575b0151601581510361000e576001600160a01b0390610f7090611571565b1690565b610f7c610aaf565b610f53565b60406020610a9d9260608351610f96816101a6565b520151805160011015610f3857015161144b565b60606020610a7a920151805160021015610b72570151611614565b602090610fd0610eba565b5051805115610fde57015190565b610fe6610aaf565b015190565b6001906000198114610ffb570190565b610adf610bdf565b90602091805182101561101557010190565b61101d610aaf565b010190565b9093600093611035610a986000956113fe565b9061104085976112a3565b918251156111c8578597915b81518910156111bd57835183116111b15761107061106a8a84610b14565b51611545565b908151602080930120036111b15761109161108b8a84610b14565b5161144b565b90815160118114600014611142575084518414611112575060ff6110cf6110c96110bb8688611003565b516001600160f81b03191690565b60f81c90565b169060108211611105576110f26110ec6110fe936110f893610b14565b516115ec565b93610d73565b98610feb565b979161104c565b5050505050935050905090565b969750915050611128929650610d009150610b02565b82815191012091815191012014600014610a7a5750600190565b919993909160020361110557611164818661115f610d008e610ae3565b6111d3565b9161116f8383610d9d565b86511461119c57508115611105576110ec6111906110fe9361119693610d9d565b9a610af1565b92610feb565b979850505050505093610d0061112891610af1565b50505050935050905090565b505050509293505050565b505050935050905090565b90916111e06000926112a3565b926111eb8451610c86565b94825b85518401808511611272575b81101561124a57611238906001600160f81b03196112188286611003565b51166112328683039183831161123d575b881a918a611003565b53610feb565b6111ee565b611245610bdf565b611229565b50949150506020928051938491012090602081519101201460001461126d575090565b905090565b61127a610bdf565b6111fa565b806000190460021181151516611296575b60011b90565b61129e610bdf565b611290565b6112ab610c73565b9080516112b6575090565b6000915060ff6112d8600f60f81b6112cd84610ae3565b5160041c1660f81c90565b169160019283811490811561138c575b501561136b57506112ff610d4b610e51835161127f565b9161130982611397565b60001a61131584610ae3565b538060ff815b1680915b61132b575b5050505090565b845181101561136657806113538561134e6113498661136096610c66565b610d81565b6113b9565b60001a6112328288611003565b8261131f565b611324565b9160ff611383610d4b61137e855161127f565b610c1b565b9390829161131b565b6003915014386112e8565b8051156113ac575b60200151600f60f81b1690565b6113b4610aaf565b61139f565b90600182166113e4576113cf9160011c90611003565b5160fc1c5b60f81b6001600160f81b03191690565b6113f490600f9260011c90611003565b5160f81c166113d4565b611406610eba565b50602081519160405192611419846101c2565b835201602082015290565b60209067ffffffffffffffff811161143e575b60051b0190565b61144661016e565b611437565b6114548161151e565b1561000e5761146281611675565b61146b81611424565b9161147960405193846101de565b818352601f1961148883611424565b0160005b8181106115075750506114ad6020809201516114a781611786565b90610d9d565b6000905b8382106114bf575050505090565b6114fb816114cf61150193611700565b906114d8610200565b82815281878201526114ea868a610b14565b526114f58589610b14565b50610d9d565b91610feb565b906114b1565b602090611512610eba565b8282880101520161148c565b80511561153f57602060c09101515160001a1061153a57600190565b600090565b50600090565b61154f8151610c86565b9081511561156d57806020610a7a9201519051908360200190610dc7565b5090565b805180151590816115e0575b501561000e5760208101906115928251611786565b9051918183039283116115d3575b519081018091116115c6575b5190602081106115ba575090565b6020036101000a900490565b6115ce610bdf565b6115ac565b6115db610bdf565b6115a0565b6021915011153861157d565b602181510361000e576020015160018101809111611608575190565b611610610bdf565b5190565b80511561000e57610a7a602082019161162d8351611786565b905190808203918211611668575b61164482610c86565b935190810180911161165b575b8360200190610dc7565b611663610bdf565b611651565b611670610bdf565b61163b565b80511561153f576000906020810190815161168f81611786565b81018091116116f3575b9151905181018091116116e6575b91905b8281106116b75750905090565b806116c46116d392611700565b81018091116116d95791610feb565b906116aa565b6116e1610bdf565b6114fb565b6116ee610bdf565b6116a7565b6116fb610bdf565b611699565b805160001a906080821015611716575050600190565b60b8821015611731575061172c610a7a91610c39565b610d73565b9060c08110156117555760b51991600160b783602003016101000a91015104010190565b9060f882101561176c575061172c610a7a91610c2a565b60010151602082900360f7016101000a90040160f5190190565b5160001a60808110156117995750600090565b60b8811080156117d0575b156117af5750600190565b60c08110156117c45761172c610a7a91610c57565b61172c610a7a91610c48565b5060c081101580156117a4575060f881106117a4565b506040513d6000823e3d90fd5b156117fa57565b60405162461bcd60e51b815260206004820152601c60248201527f4678526f6f7454756e6e656c3a20494e56414c49445f484541444552000000006044820152606490fd5b919294939060a0600180821b0360025416926024604051809581936320a9cea560e11b835260048301525afa95861561193f575b600094859386986118d3575b5092610a7a9694926118c8926118bf6118ce989661072a60405193849260208401968a889290916080949284526020840152604083015260608201520190565b51902092610c66565b906119ee565b6117f3565b935096509360a0833d8211611937575b816118f060a093836101de565b8101031261048d5750916118c882610a7a96946118ce969451946118bf6020840151966119256080606087015196015161015d565b96939a9396985050925092949661187f565b3d91506118e3565b6119476117e6565b611873565b1561195357565b60405162461bcd60e51b8152602060048201526014602482015273092dcecc2d8d2c840e0e4dedecc40d8cadccee8d60631b6044820152606490fd5b60019060ff811161199e571b90565b6119a6610bdf565b1b90565b156119b157565b60405162461bcd60e51b81526020600482015260156024820152744c65616620696e64657820697320746f6f2062696760581b6044820152606490fd5b9390919293611a07611a018651601f1690565b1561194c565b611a24611a1d611a18875160051c90565b61198f565b84106119aa565b60209182935b86518511611aa25786850151600193611a709291858316611a7657604080518881019384526020840192909252611a64908290840161072a565b519020935b1c94610d8f565b93611a2a565b90611a9961072a916040519283918a830195869091604092825260208201520190565b51902093611a69565b50931493505050565b6000546001600160a01b03163303611abf57565b606460405162461bcd60e51b815260206004820152602060248201527f4f776e61626c653a2063616c6c6572206973206e6f7420746865206f776e65726044820152fd5b90602091611b1c8151809281855285808601910161087d565b601f01601f1916010190565b6001600160a01b039091168152604060208201819052610a7a92910190611b03565b906020610a7a928181520190611b0356fea264697066735822122012892cc00c0bed0d38822abf8d302fb66ddc10525cbefeb8f5801c9304af0d1464736f6c63430008100033",
  "devdoc": {
    "kind": "dev",
    "methods": {
      "owner()": {
        "details": "Returns the address of the current owner."
      },
      "receiveMessage(bytes)": {
        "details": "This function verifies if the transaction actually happened on child chain",
        "params": {
          "inputData": "RLP encoded data of the reference tx containing following list of fields  0 - headerNumber - Checkpoint header block number containing the reference tx  1 - blockProof - Proof that the block header (in the child chain) is a leaf in the submitted merkle root  2 - blockNumber - Block number containing the reference tx on child chain  3 - blockTime - Reference tx block time  4 - txRoot - Transactions root of block  5 - receiptRoot - Receipts root of block  6 - receipt - Receipt of the reference transaction  7 - receiptProof - Merkle proof of the reference receipt  8 - branchMask - 32 bits denoting the path of receipt in merkle tree  9 - receiptLogIndex - Log Index to read from the receipt"
        }
      },
      "relayGovernance(address,bytes)": {
        "details": "The transaction submitted to `to` on the sidechain with the calldata `data` is assumed to have 0 `value` in order to avoid the added complexity of sending cross-chain transactions with positive value."
      },
      "renounceOwnership()": {
        "details": "Leaves the contract without owner. It will not be possible to call `onlyOwner` functions. Can only be called by the current owner. NOTE: Renouncing ownership will leave the contract without an owner, thereby disabling any functionality that is only available to the owner."
      },
      "transferOwnership(address)": {
        "details": "Transfers ownership of the contract to a new account (`newOwner`). Can only be called by the current owner."
      }
    },
    "title": "Governance relayer contract to be deployed on Ethereum that receives messages from the owner (Governor) and sends them to sidechain.",
    "version": 1
  },
  "userdoc": {
    "kind": "user",
    "methods": {
      "receiveMessage(bytes)": {
        "notice": "receive message from  L2 to L1, validated by proof"
      },
      "relayGovernance(address,bytes)": {
        "notice": "This should be called in order to relay a governance request to the `GovernorChildTunnel` contract deployed to the sidechain. Note: this can only be called by the owner (presumably the Ethereum Governor contract)."
      }
    },
    "version": 1
  },
  "storageLayout": {
    "storage": [
      {
        "astId": 4304,
        "contract": "contracts/polygon-cross-chain-oracle/GovernorRootTunnel.sol:GovernorRootTunnel",
        "label": "_owner",
        "offset": 0,
        "slot": "0",
        "type": "t_address"
      },
      {
        "astId": 2923,
        "contract": "contracts/polygon-cross-chain-oracle/GovernorRootTunnel.sol:GovernorRootTunnel",
        "label": "fxRoot",
        "offset": 0,
        "slot": "1",
        "type": "t_contract(IFxStateSender)2873"
      },
      {
        "astId": 2926,
        "contract": "contracts/polygon-cross-chain-oracle/GovernorRootTunnel.sol:GovernorRootTunnel",
        "label": "checkpointManager",
        "offset": 0,
        "slot": "2",
        "type": "t_contract(ICheckpointManager)2891"
      },
      {
        "astId": 2928,
        "contract": "contracts/polygon-cross-chain-oracle/GovernorRootTunnel.sol:GovernorRootTunnel",
        "label": "fxChildTunnel",
        "offset": 0,
        "slot": "3",
        "type": "t_address"
      },
      {
        "astId": 2932,
        "contract": "contracts/polygon-cross-chain-oracle/GovernorRootTunnel.sol:GovernorRootTunnel",
        "label": "processedExits",
        "offset": 0,
        "slot": "4",
        "type": "t_mapping(t_bytes32,t_bool)"
      },
      {
        "astId": 16304,
        "contract": "contracts/polygon-cross-chain-oracle/GovernorRootTunnel.sol:GovernorRootTunnel",
        "label": "_notEntered",
        "offset": 0,
        "slot": "5",
        "type": "t_bool"
      }
    ],
    "types": {
      "t_address": {
        "encoding": "inplace",
        "label": "address",
        "numberOfBytes": "20"
      },
      "t_bool": {
        "encoding": "inplace",
        "label": "bool",
        "numberOfBytes": "1"
      },
      "t_bytes32": {
        "encoding": "inplace",
        "label": "bytes32",
        "numberOfBytes": "32"
      },
      "t_contract(ICheckpointManager)2891": {
        "encoding": "inplace",
        "label": "contract ICheckpointManager",
        "numberOfBytes": "20"
      },
      "t_contract(IFxStateSender)2873": {
        "encoding": "inplace",
        "label": "contract IFxStateSender",
        "numberOfBytes": "20"
      },
      "t_mapping(t_bytes32,t_bool)": {
        "encoding": "mapping",
        "key": "t_bytes32",
        "label": "mapping(bytes32 => bool)",
        "numberOfBytes": "32",
        "value": "t_bool"
      }
    }
  }
}