{
  "address": "0x08e549A3f28302F507a7e9D04c1D8F9D26E75576",
  "abi": [
    {
      "anonymous": false,
      "inputs": [
        {
          "indexed": true,
          "internalType": "address",
          "name": "previousOwner",
          "type": "address"
        },
        {
          "indexed": true,
          "internalType": "address",
          "name": "newOwner",
          "type": "address"
        }
      ],
      "name": "OwnershipTransferred",
      "type": "event"
    },
    {
      "anonymous": false,
      "inputs": [
        {
          "indexed": true,
          "internalType": "uint256",
          "name": "chainId",
          "type": "uint256"
        },
        {
          "indexed": true,
          "internalType": "address",
          "name": "messenger",
          "type": "address"
        },
        {
          "components": [
            {
              "internalType": "address",
              "name": "to",
              "type": "address"
            },
            {
              "internalType": "bytes",
              "name": "data",
              "type": "bytes"
            }
          ],
          "indexed": false,
          "internalType": "struct GovernorSpoke.Call[]",
          "name": "calls",
          "type": "tuple[]"
        },
        {
          "indexed": false,
          "internalType": "bytes",
          "name": "dataSentToChild",
          "type": "bytes"
        }
      ],
      "name": "RelayedGovernanceRequest",
      "type": "event"
    },
    {
      "anonymous": false,
      "inputs": [
        {
          "indexed": true,
          "internalType": "uint256",
          "name": "chainId",
          "type": "uint256"
        },
        {
          "indexed": true,
          "internalType": "address",
          "name": "parentMessenger",
          "type": "address"
        }
      ],
      "name": "SetParentMessenger",
      "type": "event"
    },
    {
      "inputs": [
        {
          "internalType": "uint256",
          "name": "",
          "type": "uint256"
        }
      ],
      "name": "messengers",
      "outputs": [
        {
          "internalType": "contract ParentMessengerInterface",
          "name": "",
          "type": "address"
        }
      ],
      "stateMutability": "view",
      "type": "function"
    },
    {
      "inputs": [
        {
          "internalType": "bytes[]",
          "name": "data",
          "type": "bytes[]"
        }
      ],
      "name": "multicall",
      "outputs": [
        {
          "internalType": "bytes[]",
          "name": "results",
          "type": "bytes[]"
        }
      ],
      "stateMutability": "nonpayable",
      "type": "function"
    },
    {
      "inputs": [],
      "name": "owner",
      "outputs": [
        {
          "internalType": "address",
          "name": "",
          "type": "address"
        }
      ],
      "stateMutability": "view",
      "type": "function"
    },
    {
      "inputs": [
        {
          "internalType": "uint256",
          "name": "chainId",
          "type": "uint256"
        },
        {
          "components": [
            {
              "internalType": "address",
              "name": "to",
              "type": "address"
            },
            {
              "internalType": "bytes",
              "name": "data",
              "type": "bytes"
            }
          ],
          "internalType": "struct GovernorSpoke.Call[]",
          "name": "calls",
          "type": "tuple[]"
        }
      ],
      "name": "relayGovernance",
      "outputs": [],
      "stateMutability": "nonpayable",
      "type": "function"
    },
    {
      "inputs": [],
      "name": "renounceOwnership",
      "outputs": [],
      "stateMutability": "nonpayable",
      "type": "function"
    },
    {
      "inputs": [
        {
          "internalType": "uint256",
          "name": "chainId",
          "type": "uint256"
        },
        {
          "internalType": "contract ParentMessengerInterface",
          "name": "messenger",
          "type": "address"
        }
      ],
      "name": "setMessenger",
      "outputs": [],
      "stateMutability": "nonpayable",
      "type": "function"
    },
    {
      "inputs": [
        {
          "internalType": "address",
          "name": "newOwner",
          "type": "address"
        }
      ],
      "name": "transferOwnership",
      "outputs": [],
      "stateMutability": "nonpayable",
      "type": "function"
    }
  ],
  "transactionHash": "0xeac5deb130e81390f88b16698d8b0837f871b351e80d4e7a7136a2793a15c6de",
  "args": [],
  "solcInputHash": "864d61c65c789401ae17358a5af86557",
  "bytecode": "0x60808060405234610064576000543360018060a01b0382167f8be0079c531659141344cd1fd0a4f28419497f9722a3daafe3b4186f6b6457e0600085a36001600160a81b0319163360ff60a01b191617600160a01b17600055610b32908161006a8239f35b600080fdfe60806040526004361015610013575b600080fd5b6000803560e01c908163109ea4bf146100a25750806324ec66b3146100995780633582103814610090578063715018a6146100875780638da5cb5b1461007e578063ac9650d8146100755763f2fde38b1461006d57600080fd5b61000e610527565b5061000e6104bc565b5061000e6103e8565b5061000e610389565b5061000e61025c565b5061000e61015f565b3461014b57604036600319011261014b576024356004356100c28261014e565b6100ca6108ad565b6000805460ff60a01b191690556100df6105f4565b80835260016020526040832080546001600160a01b0319166001600160a01b038416179055604051916001600160a01b0316907fcf56c779a9eca65535bf3ac68fb105d582ccb9c630e86864b96a2994afec6f938484a36000805460ff60a01b1916600160a01b179055f35b80fd5b6001600160a01b0381160361000e57565b503461000e57602036600319011261000e576004356000526001602052602060018060a01b0360406000205416604051908152f35b50634e487b7160e01b600052604160045260246000fd5b6040810190811067ffffffffffffffff8211176101c757604052565b6101cf610194565b604052565b67ffffffffffffffff81116101c757604052565b90601f8019910116810190811067ffffffffffffffff8211176101c757604052565b60209067ffffffffffffffff8111610224575b60051b0190565b61022c610194565b61021d565b60209067ffffffffffffffff811161024f575b601f01601f19160190565b610257610194565b610244565b503461000e5760408060031936011261000e5760249081359167ffffffffffffffff80841161000e573660238501121561000e5783600401359061029f8261020a565b926102ac855194856101e8565b828452602092818486019160051b8801019236841161000e57828801915b8483106102e3576000886102e089600435610902565b51f35b823582811161000e5789019088602319833603011261000e57885190610308826101ab565b858301356103158161014e565b8252604492838101359085821161000e5701913660438401121561000e57868301359261034184610231565b9061034e8d5192836101e8565b8482523686868301011161000e578a858197968297600094018386013783010152838201528152019201916102ca565b600091031261000e57565b503461000e5760008060031936011261014b576103a46105f4565b80546001600160a01b0319811682556040519082906001600160a01b03167f8be0079c531659141344cd1fd0a4f28419497f9722a3daafe3b4186f6b6457e08284a3f35b503461000e57600036600319011261000e576000546040516001600160a01b039091168152602090f35b60005b8381106104255750506000910152565b8181015183820152602001610415565b9060209161044e81518092818552858086019101610412565b601f01601f1916010190565b602080820190808352835180925260408301928160408460051b8301019501936000915b84831061048e5750505050505090565b90919293949584806104ac600193603f198682030187528a51610435565b980193019301919493929061047e565b503461000e57602036600319011261000e5767ffffffffffffffff60043581811161000e573660238201121561000e57806004013591821161000e573660248360051b8301011161000e5761052391602461051792016107f5565b6040519182918261045a565b0390f35b503461000e57602036600319011261000e576004356105458161014e565b61054d6105f4565b6001600160a01b039081169081156105a057600080546001600160a01b031981168417825560405191939192167f8be0079c531659141344cd1fd0a4f28419497f9722a3daafe3b4186f6b6457e08484a3f35b60405162461bcd60e51b815260206004820152602660248201527f4f776e61626c653a206e6577206f776e657220697320746865207a65726f206160448201526564647265737360d01b6064820152608490fd5b6000546001600160a01b0316330361060857565b606460405162461bcd60e51b815260206004820152602060248201527f4f776e61626c653a2063616c6c6572206973206e6f7420746865206f776e65726044820152fd5b906106568261020a565b61066360405191826101e8565b8281528092610674601f199161020a565b019060005b82811061068557505050565b806060602080938501015201610679565b60001981146106a55760010190565b634e487b7160e01b600052601160045260246000fd5b50634e487b7160e01b600052603260045260246000fd5b9190811015610715575b60051b81013590601e198136030182121561000e57019081359167ffffffffffffffff831161000e57602001823603811361000e579190565b61071d6106bb565b6106dc565b908092918237016000815290565b3d1561075b573d9061074182610231565b9161074f60405193846101e8565b82523d6000602084013e565b606090565b60208183031261000e5780519067ffffffffffffffff821161000e570181601f8201121561000e57805161079381610231565b926107a160405194856101e8565b8184526020828401011161000e576107bf9160208085019101610412565b90565b9060206107bf928181520190610435565b60209181518110156107e8575b60051b010190565b6107f06106bb565b6107e0565b9190916108018361064c565b9260005b81811061081157505050565b60008061081f8385876106d2565b60409391610831855180938193610722565b0390305af49061083f610730565b9182901561086e575050906108699161085882886107d3565b5261086381876107d3565b50610696565b610805565b6044839293511061000e576108946108a991600480940160248091518301019101610760565b925162461bcd60e51b815292839283016107c2565b0390fd5b60ff60005460a01c16156108bd57565b60405162461bcd60e51b815260206004820152601f60248201527f5265656e7472616e637947756172643a207265656e7472616e742063616c6c006044820152606490fd5b61090a6108ad565b6000805460ff60a01b1916905561091f6105f4565b604051610941816109338560208301610ab9565b03601f1981018352826101e8565b61097461096861095b846000526001602052604060002090565b546001600160a01b031690565b6001600160a01b031690565b90813b1561000e576040516309813cdd60e31b81527fe16a826432ccf4c9f0f27428e93786d4a6926fa64c4d7c8e12ef9408a7750ca89260009082908183816109c088600483016107c2565b03925af18015610a37575b610a1e575b5060008381526001602052604090206001600160a01b03906109f5906109689061095b565b1693610a0660405192839283610ad7565b0390a36000805460ff60a01b1916600160a01b179055565b80610a2b610a31926101d4565b8061037e565b386109d0565b610a3f610aca565b6109cb565b908082519081815260208091019281808460051b8301019501936000915b848310610a725750505050505090565b9091929394958480610aa9600193601f19868203018752828b51868060a01b03815116835201519060409081858201520190610435565b9801930193019194939290610a62565b9060206107bf928181520190610a44565b506040513d6000823e3d90fd5b9091610aee6107bf93604084526040840190610a44565b91602081840391015261043556fea264697066735822122064bea1258fda39a22fe11f39be489a5e702ada5b10214eac0f7c1e335f33340964736f6c63430008100033",
  "devdoc": {
    "kind": "dev",
    "methods": {
      "owner()": {
        "details": "Returns the address of the current owner."
      },
      "relayGovernance(uint256,(address,bytes)[])": {
        "details": "Only callable by the owner (presumably the UMA DVM Governor contract, on L1 Ethereum).",
        "params": {
          "calls": "the calls to be made by the GovernorSpoke. Should encode a `to` and `data` prop for each call.",
          "chainId": "network that messenger contract will communicate with"
        }
      },
      "renounceOwnership()": {
        "details": "Leaves the contract without owner. It will not be possible to call `onlyOwner` functions. Can only be called by the current owner. NOTE: Renouncing ownership will leave the contract without an owner, thereby disabling any functionality that is only available to the owner."
      },
      "setMessenger(uint256,address)": {
        "details": "Only callable by the owner (presumably the Ethereum Governor contract).",
        "params": {
          "chainId": "child network that messenger contract will communicate with.",
          "messenger": "ParentMessenger contract that sends messages to ChildMessenger on network with ID `chainId`."
        }
      },
      "transferOwnership(address)": {
        "details": "Transfers ownership of the contract to a new account (`newOwner`). Can only be called by the current owner."
      }
    },
    "title": "Cross-chain Oracle L1 Governor Hub.",
    "version": 1
  },
  "userdoc": {
    "kind": "user",
    "methods": {
      "relayGovernance(uint256,(address,bytes)[])": {
        "notice": "This should be called in order to relay a governance request to the `GovernorSpoke` contract deployed to the child chain associated with `chainId`."
      },
      "setMessenger(uint256,address)": {
        "notice": "Set new ParentMessenger contract for chainId."
      }
    },
    "notice": "Governance relayer contract to be deployed on Ethereum that receives messages from the owner (Governor) and sends them to spoke contracts on child chains.",
    "version": 1
  },
  "storageLayout": {
    "storage": [
      {
        "astId": 4304,
        "contract": "contracts/cross-chain-oracle/GovernorHub.sol:GovernorHub",
        "label": "_owner",
        "offset": 0,
        "slot": "0",
        "type": "t_address"
      },
      {
        "astId": 16304,
        "contract": "contracts/cross-chain-oracle/GovernorHub.sol:GovernorHub",
        "label": "_notEntered",
        "offset": 20,
        "slot": "0",
        "type": "t_bool"
      },
      {
        "astId": 21645,
        "contract": "contracts/cross-chain-oracle/GovernorHub.sol:GovernorHub",
        "label": "messengers",
        "offset": 0,
        "slot": "1",
        "type": "t_mapping(t_uint256,t_contract(ParentMessengerInterface)24537)"
      }
    ],
    "types": {
      "t_address": {
        "encoding": "inplace",
        "label": "address",
        "numberOfBytes": "20"
      },
      "t_bool": {
        "encoding": "inplace",
        "label": "bool",
        "numberOfBytes": "1"
      },
      "t_contract(ParentMessengerInterface)24537": {
        "encoding": "inplace",
        "label": "contract ParentMessengerInterface",
        "numberOfBytes": "20"
      },
      "t_mapping(t_uint256,t_contract(ParentMessengerInterface)24537)": {
        "encoding": "mapping",
        "key": "t_uint256",
        "label": "mapping(uint256 => contract ParentMessengerInterface)",
        "numberOfBytes": "32",
        "value": "t_contract(ParentMessengerInterface)24537"
      },
      "t_uint256": {
        "encoding": "inplace",
        "label": "uint256",
        "numberOfBytes": "32"
      }
    }
  }
}