{
  "address": "0xC47661E258d56f9315183420CE77085c84543Df9",
  "abi": [
    {
      "inputs": [
        {
          "internalType": "address",
          "name": "_finderAddress",
          "type": "address"
        }
      ],
      "stateMutability": "nonpayable",
      "type": "constructor"
    },
    {
      "anonymous": false,
      "inputs": [
        {
          "indexed": true,
          "internalType": "address",
          "name": "to",
          "type": "address"
        },
        {
          "indexed": false,
          "internalType": "bytes",
          "name": "data",
          "type": "bytes"
        }
      ],
      "name": "ExecutedGovernanceTransaction",
      "type": "event"
    },
    {
      "inputs": [],
      "name": "finder",
      "outputs": [
        {
          "internalType": "contract FinderInterface",
          "name": "",
          "type": "address"
        }
      ],
      "stateMutability": "view",
      "type": "function"
    },
    {
      "inputs": [],
      "name": "getChildMessenger",
      "outputs": [
        {
          "internalType": "contract ChildMessengerInterface",
          "name": "",
          "type": "address"
        }
      ],
      "stateMutability": "view",
      "type": "function"
    },
    {
      "inputs": [
        {
          "internalType": "bytes",
          "name": "data",
          "type": "bytes"
        }
      ],
      "name": "processMessageFromParent",
      "outputs": [],
      "stateMutability": "nonpayable",
      "type": "function"
    }
  ],
  "transactionHash": "0x066340f2f1f6000645135a67cb1a127c8ed0c86eec97f8c20dfd7e3db1782ecb",
  "args": [
    "0xA969917A4dFaB07936dEc60f70FA5c736A1e2b9e"
  ],
  "solcInputHash": "864d61c65c789401ae17358a5af86557",
  "bytecode": "0x60803461008557601f6106c438819003918201601f19168301916001600160401b0383118484101761008a5780849260209460405283398101031261008557516001600160a01b038116810361008557600080546001600160a81b03191660089290921b610100600160a81b031691909117600117905560405161062390816100a18239f35b600080fd5b634e487b7160e01b600052604160045260246000fdfe60806040526004361015610013575b600080fd5b6000803560e01c9081630cbfde4614610052575080632d189d35146100495763b9a3c84c1461004157600080fd5b61000e61018c565b5061000e61015e565b346100ce5760203660031901126100ce5760043567ffffffffffffffff81116100ca57366023820112156100ca578060040135908261009083610133565b9161009e6040519384610111565b83835236602485830101116100ca57836100c59460246020930183860137830101526101ba565b604051f35b5080fd5b80fd5b50634e487b7160e01b600052604160045260246000fd5b6040810190811067ffffffffffffffff82111761010457604052565b61010c6100d1565b604052565b90601f8019910116810190811067ffffffffffffffff82111761010457604052565b60209067ffffffffffffffff8111610151575b601f01601f19160190565b6101596100d1565b610146565b503461000e57600036600319011261000e57602061017a610556565b6040516001600160a01b039091168152f35b503461000e57600036600319011261000e5760005460405160089190911c6001600160a01b03168152602090f35b90600060ff8154161561041d576101d660ff1960005416600055565b6001600160a01b0392836101e8610556565b1633036103d8578051810160209283820184848403126100ca578484015167ffffffffffffffff948582116103d457019080603f830112156103d05785820151948086116103c3575b8560051b916040958651976102488a86018a610111565b88528689890194860101948286116103bf57878101945b8686106103135750505050505050805b83518110156102f857806102976102896102f393876104be565b51516001600160a01b031690565b7f597c4f48fc399c2e6bc556d2d0931e80d4c210ebc618738587c5d39fd9126d4589886102c4858a6104be565b510151926102db878086518d880182865af16104e8565b6102eb885192839216948261052a565b0390a2610499565b61026f565b50505050509050610311600160ff196000541617600055565b565b85518581116103bb57820189601f1982860301126103bb57895190610337826100e8565b6103428b8201610462565b825260609081810151908882116103b7570186605f820112156103b35790818c809301519161037c61037384610133565b94519485610111565b828452888184840101116103af578f959391928695936103a0928785019101610476565b8382015281520195019461025f565b8c80fd5b8a80fd5b8b80fd5b8880fd5b8680fd5b6103cb6100d1565b610231565b8280fd5b8380fd5b60405162461bcd60e51b815260206004820152601860248201527f43616c6c6572206d757374206265206d657373656e67657200000000000000006044820152606490fd5b60405162461bcd60e51b815260206004820152601f60248201527f5265656e7472616e637947756172643a207265656e7472616e742063616c6c006044820152606490fd5b51906001600160a01b038216820361000e57565b60005b8381106104895750506000910152565b8181015183820152602001610479565b60001981146104a85760010190565b634e487b7160e01b600052601160045260246000fd5b80518210156104d25760209160051b010190565b634e487b7160e01b600052603260045260246000fd5b156104ef57565b60405162461bcd60e51b8152602060048201526013602482015272195e1958dd5d194818d85b1b0819985a5b1959606a1b6044820152606490fd5b6040916020825261054a8151809281602086015260208686019101610476565b601f01601f1916010190565b6000546040516302abf57960e61b81526d21b434b63226b2b9b9b2b733b2b960911b60048201526001600160a01b03916020908290602490829060081c86165afa9081156105e1576000916105aa57501690565b906020823d82116105d9575b816105c360209383610111565b810103126100ce57506105d590610462565b1690565b3d91506105b6565b6040513d6000823e3d90fdfea26469706673582212208e086fea56ec815fb1bd6c4cb4f6e8e1ce9764ac08ce44f3e4d836376210a5ee64736f6c63430008100033",
  "devdoc": {
    "kind": "dev",
    "methods": {
      "getChildMessenger()": {
        "returns": {
          "_0": "ChildMessengerInterface instance of child messenger deployed on L2."
        }
      },
      "processMessageFromParent(bytes)": {
        "details": "Can only be called by ChildMessenger contract that wants to execute governance action on this child chain that originated from DVM voters on root chain. ChildMessenger should only receive communication from ParentMessenger on mainnet. See the SpokeBase for the onlyMessenger modifier.",
        "params": {
          "data": "Contains the target address and the encoded function selector + ABI encoded params to include in delegated transaction."
        }
      }
    },
    "title": "Cross-chain Oracle L2 Governor Spoke.",
    "version": 1
  },
  "userdoc": {
    "kind": "user",
    "methods": {
      "getChildMessenger()": {
        "notice": "Returns the child messenger address set in the finder."
      },
      "processMessageFromParent(bytes)": {
        "notice": "Executes governance transaction created on Ethereum."
      }
    },
    "notice": "Governor contract deployed on L2 that receives governance actions from Ethereum.",
    "version": 1
  },
  "storageLayout": {
    "storage": [
      {
        "astId": 16304,
        "contract": "contracts/cross-chain-oracle/GovernorSpoke.sol:GovernorSpoke",
        "label": "_notEntered",
        "offset": 0,
        "slot": "0",
        "type": "t_bool"
      },
      {
        "astId": 16286,
        "contract": "contracts/cross-chain-oracle/GovernorSpoke.sol:GovernorSpoke",
        "label": "finder",
        "offset": 1,
        "slot": "0",
        "type": "t_contract(FinderInterface)36753"
      }
    ],
    "types": {
      "t_bool": {
        "encoding": "inplace",
        "label": "bool",
        "numberOfBytes": "1"
      },
      "t_contract(FinderInterface)36753": {
        "encoding": "inplace",
        "label": "contract FinderInterface",
        "numberOfBytes": "20"
      }
    }
  }
}