{
  "address": "0x3Fd76903FE51d0F82281d0F3e266abDCF2d21463",
  "abi": [
    {
      "inputs": [
        {
          "internalType": "address",
          "name": "_fxChild",
          "type": "address"
        }
      ],
      "stateMutability": "nonpayable",
      "type": "constructor"
    },
    {
      "anonymous": false,
      "inputs": [
        {
          "indexed": true,
          "internalType": "address",
          "name": "to",
          "type": "address"
        },
        {
          "indexed": false,
          "internalType": "bytes",
          "name": "data",
          "type": "bytes"
        }
      ],
      "name": "ExecutedGovernanceTransaction",
      "type": "event"
    },
    {
      "anonymous": false,
      "inputs": [
        {
          "indexed": false,
          "internalType": "bytes",
          "name": "message",
          "type": "bytes"
        }
      ],
      "name": "MessageSent",
      "type": "event"
    },
    {
      "inputs": [],
      "name": "fxChild",
      "outputs": [
        {
          "internalType": "address",
          "name": "",
          "type": "address"
        }
      ],
      "stateMutability": "view",
      "type": "function"
    },
    {
      "inputs": [],
      "name": "fxRootTunnel",
      "outputs": [
        {
          "internalType": "address",
          "name": "",
          "type": "address"
        }
      ],
      "stateMutability": "view",
      "type": "function"
    },
    {
      "inputs": [
        {
          "internalType": "uint256",
          "name": "stateId",
          "type": "uint256"
        },
        {
          "internalType": "address",
          "name": "rootMessageSender",
          "type": "address"
        },
        {
          "internalType": "bytes",
          "name": "data",
          "type": "bytes"
        }
      ],
      "name": "processMessageFromRoot",
      "outputs": [],
      "stateMutability": "nonpayable",
      "type": "function"
    },
    {
      "inputs": [
        {
          "internalType": "address",
          "name": "_fxRootTunnel",
          "type": "address"
        }
      ],
      "name": "setFxRootTunnel",
      "outputs": [],
      "stateMutability": "nonpayable",
      "type": "function"
    }
  ],
  "transactionHash": "0xd11aafa265d23eec32902f5d939712ecdfb0d6c57e951059cb1ee3326acc7052",
  "args": [
    "0xf6537Fd2A447afAC20bABaFBf9113bc60F4fa594"
  ],
  "solcInputHash": "864d61c65c789401ae17358a5af86557",
  "bytecode": "0x60803461007457601f61055c38819003918201601f19168301916001600160401b038311848410176100795780849260209460405283398101031261007457516001600160a01b0381169081900361007457600080546001600160a01b0319169190911790556040516104cc90816100908239f35b600080fd5b634e487b7160e01b600052604160045260246000fdfe60806040526004361015610013575b600080fd5b6000803560e01c908163450d11f0146100885781637f1e9cb01461005d57508063888370941461005457639a7c4b711461004c57600080fd5b61000e61015b565b5061000e6100bd565b346100855780600319360112610085576001546040516001600160a01b039091168152602090f35b80fd5b34610085578060031936011261008557546001600160a01b03166080908152602090f35b6001600160a01b0381160361000e57565b503461000e57602036600319011261000e576004356100db816100ac565b600154906001600160a01b0390818316610103576001600160a01b0319909216911617600155005b60405162461bcd60e51b815260206004820152602a60248201527f4678426173654368696c6454756e6e656c3a20524f4f545f54554e4e454c5f4160448201526913149150511657d4d15560b21b6064820152608490fd5b503461000e57606036600319011261000e57602435610179816100ac565b6044359067ffffffffffffffff9081831161000e573660238401121561000e57826004013591821161000e57366024838501011161000e5760246101be930190610235565b005b50634e487b7160e01b600052604160045260246000fd5b6040519190601f01601f1916820167ffffffffffffffff8111838210176101fd57604052565b6102056101c0565b604052565b60209067ffffffffffffffff8111610228575b601f01601f19160190565b6102306101c0565b61021d565b6000549192916001600160a01b031633036102815761025b6102568361020a565b6101d7565b91808352368185011161000e5760208160009261027f9683870137840101526102d0565b565b60405162461bcd60e51b815260206004820152602160248201527f4678426173654368696c6454756e6e656c3a20494e56414c49445f53454e44456044820152602960f91b6064820152608490fd5b6001546001600160a01b039291908316908316036103ac5780518101916040826020850194031261000e5760208201519161030a836100ac565b60408101519067ffffffffffffffff821161000e57019280603f8501121561000e5760208401519261033e6102568561020a565b918483526040858701011161000e576000806103a79461039b9361038d7f597c4f48fc399c2e6bc556d2d0931e80d4c210ebc618738587c5d39fd9126d459860409a602089019b8c9101610405565b169684519082895af1610428565b6040519182918261046a565b0390a2565b60405162461bcd60e51b815260206004820152602b60248201527f4678426173654368696c6454756e6e656c3a20494e56414c49445f53454e444560448201526a1497d19493d357d493d3d560aa1b6064820152608490fd5b60005b8381106104185750506000910152565b8181015183820152602001610408565b1561042f57565b60405162461bcd60e51b8152602060048201526013602482015272195e1958dd5d194818d85b1b0819985a5b1959606a1b6044820152606490fd5b6040916020825261048a8151809281602086015260208686019101610405565b601f01601f191601019056fea2646970667358221220bbdc46e8491bc755f8d295ba1083578a783da0a18eb026ebfee3adf8397284f364736f6c63430008100033",
  "devdoc": {
    "kind": "dev",
    "methods": {},
    "title": "Governor contract deployed on sidechain that receives governance actions from Ethereum.",
    "version": 1
  },
  "userdoc": {
    "kind": "user",
    "methods": {},
    "version": 1
  },
  "storageLayout": {
    "storage": [
      {
        "astId": 2764,
        "contract": "contracts/polygon-cross-chain-oracle/GovernorChildTunnel.sol:GovernorChildTunnel",
        "label": "fxChild",
        "offset": 0,
        "slot": "0",
        "type": "t_address"
      },
      {
        "astId": 2766,
        "contract": "contracts/polygon-cross-chain-oracle/GovernorChildTunnel.sol:GovernorChildTunnel",
        "label": "fxRootTunnel",
        "offset": 0,
        "slot": "1",
        "type": "t_address"
      }
    ],
    "types": {
      "t_address": {
        "encoding": "inplace",
        "label": "address",
        "numberOfBytes": "20"
      }
    }
  }
}