{
  "address": "0xBaF49aB29D61F6A58dfC76D249aD3c20bc8F5487",
  "abi": [
    {
      "inputs": [
        {
          "internalType": "address",
          "name": "_finderAddress",
          "type": "address"
        },
        {
          "internalType": "uint256",
          "name": "_startingId",
          "type": "uint256"
        },
        {
          "internalType": "address",
          "name": "_timerAddress",
          "type": "address"
        }
      ],
      "stateMutability": "nonpayable",
      "type": "constructor"
    },
    {
      "anonymous": false,
      "inputs": [
        {
          "indexed": true,
          "internalType": "uint256",
          "name": "roleId",
          "type": "uint256"
        },
        {
          "indexed": true,
          "internalType": "address",
          "name": "newMember",
          "type": "address"
        },
        {
          "indexed": true,
          "internalType": "address",
          "name": "manager",
          "type": "address"
        }
      ],
      "name": "AddedSharedMember",
      "type": "event"
    },
    {
      "anonymous": false,
      "inputs": [
        {
          "indexed": true,
          "internalType": "uint256",
          "name": "id",
          "type": "uint256"
        },
        {
          "components": [
            {
              "internalType": "address",
              "name": "to",
              "type": "address"
            },
            {
              "internalType": "uint256",
              "name": "value",
              "type": "uint256"
            },
            {
              "internalType": "bytes",
              "name": "data",
              "type": "bytes"
            }
          ],
          "indexed": false,
          "internalType": "struct Governor.Transaction[]",
          "name": "transactions",
          "type": "tuple[]"
        }
      ],
      "name": "NewProposal",
      "type": "event"
    },
    {
      "anonymous": false,
      "inputs": [
        {
          "indexed": true,
          "internalType": "uint256",
          "name": "id",
          "type": "uint256"
        },
        {
          "indexed": false,
          "internalType": "uint256",
          "name": "transactionIndex",
          "type": "uint256"
        }
      ],
      "name": "ProposalExecuted",
      "type": "event"
    },
    {
      "anonymous": false,
      "inputs": [
        {
          "indexed": true,
          "internalType": "uint256",
          "name": "roleId",
          "type": "uint256"
        },
        {
          "indexed": true,
          "internalType": "address",
          "name": "oldMember",
          "type": "address"
        },
        {
          "indexed": true,
          "internalType": "address",
          "name": "manager",
          "type": "address"
        }
      ],
      "name": "RemovedSharedMember",
      "type": "event"
    },
    {
      "anonymous": false,
      "inputs": [
        {
          "indexed": true,
          "internalType": "uint256",
          "name": "roleId",
          "type": "uint256"
        },
        {
          "indexed": true,
          "internalType": "address",
          "name": "newMember",
          "type": "address"
        },
        {
          "indexed": true,
          "internalType": "address",
          "name": "manager",
          "type": "address"
        }
      ],
      "name": "ResetExclusiveMember",
      "type": "event"
    },
    {
      "inputs": [
        {
          "internalType": "uint256",
          "name": "roleId",
          "type": "uint256"
        },
        {
          "internalType": "address",
          "name": "newMember",
          "type": "address"
        }
      ],
      "name": "addMember",
      "outputs": [],
      "stateMutability": "nonpayable",
      "type": "function"
    },
    {
      "inputs": [
        {
          "internalType": "uint256",
          "name": "id",
          "type": "uint256"
        },
        {
          "internalType": "uint256",
          "name": "transactionIndex",
          "type": "uint256"
        }
      ],
      "name": "executeProposal",
      "outputs": [],
      "stateMutability": "payable",
      "type": "function"
    },
    {
      "inputs": [],
      "name": "getCurrentTime",
      "outputs": [
        {
          "internalType": "uint256",
          "name": "",
          "type": "uint256"
        }
      ],
      "stateMutability": "view",
      "type": "function"
    },
    {
      "inputs": [
        {
          "internalType": "uint256",
          "name": "roleId",
          "type": "uint256"
        }
      ],
      "name": "getMember",
      "outputs": [
        {
          "internalType": "address",
          "name": "",
          "type": "address"
        }
      ],
      "stateMutability": "view",
      "type": "function"
    },
    {
      "inputs": [
        {
          "internalType": "uint256",
          "name": "id",
          "type": "uint256"
        }
      ],
      "name": "getProposal",
      "outputs": [
        {
          "components": [
            {
              "components": [
                {
                  "internalType": "address",
                  "name": "to",
                  "type": "address"
                },
                {
                  "internalType": "uint256",
                  "name": "value",
                  "type": "uint256"
                },
                {
                  "internalType": "bytes",
                  "name": "data",
                  "type": "bytes"
                }
              ],
              "internalType": "struct Governor.Transaction[]",
              "name": "transactions",
              "type": "tuple[]"
            },
            {
              "internalType": "uint256",
              "name": "requestTime",
              "type": "uint256"
            }
          ],
          "internalType": "struct Governor.Proposal",
          "name": "",
          "type": "tuple"
        }
      ],
      "stateMutability": "view",
      "type": "function"
    },
    {
      "inputs": [
        {
          "internalType": "uint256",
          "name": "roleId",
          "type": "uint256"
        },
        {
          "internalType": "address",
          "name": "memberToCheck",
          "type": "address"
        }
      ],
      "name": "holdsRole",
      "outputs": [
        {
          "internalType": "bool",
          "name": "",
          "type": "bool"
        }
      ],
      "stateMutability": "view",
      "type": "function"
    },
    {
      "inputs": [],
      "name": "numProposals",
      "outputs": [
        {
          "internalType": "uint256",
          "name": "",
          "type": "uint256"
        }
      ],
      "stateMutability": "view",
      "type": "function"
    },
    {
      "inputs": [
        {
          "internalType": "uint256",
          "name": "",
          "type": "uint256"
        }
      ],
      "name": "proposals",
      "outputs": [
        {
          "internalType": "uint256",
          "name": "requestTime",
          "type": "uint256"
        }
      ],
      "stateMutability": "view",
      "type": "function"
    },
    {
      "inputs": [
        {
          "components": [
            {
              "internalType": "address",
              "name": "to",
              "type": "address"
            },
            {
              "internalType": "uint256",
              "name": "value",
              "type": "uint256"
            },
            {
              "internalType": "bytes",
              "name": "data",
              "type": "bytes"
            }
          ],
          "internalType": "struct Governor.Transaction[]",
          "name": "transactions",
          "type": "tuple[]"
        }
      ],
      "name": "propose",
      "outputs": [],
      "stateMutability": "nonpayable",
      "type": "function"
    },
    {
      "inputs": [
        {
          "internalType": "uint256",
          "name": "roleId",
          "type": "uint256"
        },
        {
          "internalType": "address",
          "name": "memberToRemove",
          "type": "address"
        }
      ],
      "name": "removeMember",
      "outputs": [],
      "stateMutability": "nonpayable",
      "type": "function"
    },
    {
      "inputs": [
        {
          "internalType": "uint256",
          "name": "roleId",
          "type": "uint256"
        }
      ],
      "name": "renounceMembership",
      "outputs": [],
      "stateMutability": "nonpayable",
      "type": "function"
    },
    {
      "inputs": [
        {
          "internalType": "uint256",
          "name": "roleId",
          "type": "uint256"
        },
        {
          "internalType": "address",
          "name": "newMember",
          "type": "address"
        }
      ],
      "name": "resetMember",
      "outputs": [],
      "stateMutability": "nonpayable",
      "type": "function"
    },
    {
      "inputs": [
        {
          "internalType": "uint256",
          "name": "time",
          "type": "uint256"
        }
      ],
      "name": "setCurrentTime",
      "outputs": [],
      "stateMutability": "nonpayable",
      "type": "function"
    },
    {
      "inputs": [],
      "name": "timerAddress",
      "outputs": [
        {
          "internalType": "address",
          "name": "",
          "type": "address"
        }
      ],
      "stateMutability": "view",
      "type": "function"
    }
  ],
  "transactionHash": "0x011399fd59c23fdebb506b15f6e6c6a0e21c9a6adb75f41db97f011d9701a088",
  "args": [
    "0xA969917A4dFaB07936dEc60f70FA5c736A1e2b9e",
    0,
    "0xf8815ce169E5450aa6908e76E1B970dBcEC11550"
  ],
  "solcInputHash": "864d61c65c789401ae17358a5af86557",
  "bytecode": "0x6080346200039a57601f62001d8238819003918201601f191683019291906001600160401b038411838510176200039f5781606092849260409687528339810103126200039a576200005181620003b5565b602082810151929091906001600160a01b0390819062000073908701620003b5565b169060018060a01b031992600192848454161783551682600254161760025560009182805282845260ff8287852001541660038110156200038657620003425782805282845285832060028382019160ff19928584825416179055858155013315620002f257338382541617905583805283855260ff838886200154166003811015620002855715620002995782845283855260ff8388862001541660038110156200028557620002415782845283855286842080840180549092168417909155838155600201805490911633179055818052848220015460ff169060038210156200022d575015620001d557670de0b6b3a76400008211620001825750600355516119979081620003cb8239f35b60849083519062461bcd60e51b82526004820152602760248201527f43616e6e6f7420736574207374617274696e674964206c6172676572207468616044820152660dc406260bc62760cb1b6064820152fd5b60849083519062461bcd60e51b82526004820152603c602482015260008051602062001d6283398151915260448201527f20746f206d616e61676520616e206578636c757369766520726f6c65000000006064820152fd5b634e487b7160e01b81526021600452602490fd5b865162461bcd60e51b815260048101869052601e60248201527f43616e6e6f74207573652061207072652d6578697374696e6720726f6c6500006044820152606490fd5b634e487b7160e01b85526021600452602485fd5b865162461bcd60e51b815260048101869052603c602482015260008051602062001d6283398151915260448201527f20746f206d616e61676520616e206578636c757369766520726f6c65000000006064820152608490fd5b875162461bcd60e51b815260048101879052602360248201527f43616e6e6f742073657420616e206578636c757369766520726f6c6520746f2060448201526203078360ec1b6064820152608490fd5b855162461bcd60e51b815260048101859052601e60248201527f43616e6e6f74207573652061207072652d6578697374696e6720726f6c6500006044820152606490fd5b634e487b7160e01b84526021600452602484fd5b600080fd5b634e487b7160e01b600052604160045260246000fd5b51906001600160a01b03821682036200039a5756fe60806040526004361015610013575b600080fd5b60003560e01c8063013cf08b1461012b5780631ab76712146101225780631c39c38d1461011957806322f8e5661461011057806329cb924d14610107578063400e3949146100fe5780636be7658b146100f557806374d0a676146100ec5780637cdc1cb9146100e3578063aaa14ca3146100da578063ab3545e5146100d1578063c62fdef7146100c8578063c7f758a8146100bf5763d97c05be146100b757600080fd5b61000e610b57565b5061000e610aa9565b5061000e610890565b5061000e61076e565b5061000e6106ce565b5061000e610699565b5061000e610584565b5061000e6104a2565b5061000e610472565b5061000e61044e565b5061000e6103cc565b5061000e6103a2565b5061000e6101e8565b5061000e610193565b50634e487b7160e01b600052603260045260246000fd5b600354811015610186575b600360005260011b7fc2575a0e9e593c00f959f8c92f12db2869c3395a3b0502d05e2516446f71f85b0190600090565b61018e610134565b610156565b503461000e57602036600319011261000e5760043560035481101561000e577fc2575a0e9e593c00f959f8c92f12db2869c3395a3b0502d05e2516446f71f85c602091600360005260011b0154604051908152f35b50604036600319011261000e576004357ff758fc91e01b00ea6b4a6138756f7f28e021f9bf21db6dbf8c36c88eb737257a61032e60243561031e61031961022e8661014b565b50610282602061024b61023f611888565b6001600160a01b031690565b6102548a61154b565b6001850154604051636494078360e11b81526004810192909252602482015292839190829081906044820190565b03915afa90811561038a575b60009161035c575b506102dd6102ad6102a7878561131d565b506115a9565b9186158015610333575b6102c09061167f565b82516102d6906001600160a01b031615156116cb565b151561170d565b6103006102fa8660208401946102f586513414611751565b61131d565b9061179d565b80516040906001600160a01b0316925191015191611861565b611808565b6040519081529081906020820190565b0390a2005b506102c06103496103438961184a565b8661131d565b50546001600160a01b03161590506102b7565b61037d915060203d8111610383575b6103758183610847565b810190610f1e565b38610296565b503d61036b565b610392610f11565b61028e565b600091031261000e57565b503461000e57600036600319011261000e576001546040516001600160a01b039091168152602090f35b503461000e576000602036600319011261044b5760015481906001600160a01b0316801561044857803b1561044857819060246040518094819363117c72b360e11b835260043560048401525af1801561043b575b61042c575b50604051f35b610435906107ee565b38610426565b610443610f11565b610421565b50fd5b80fd5b503461000e57600036600319011261000e57602061046a610f2d565b604051908152f35b503461000e57600036600319011261000e576020600354604051908152f35b6001600160a01b0381160361000e57565b503461000e57604036600319011261000e576024356004356104c382610491565b600091818352826020526104ed600260ff6001604087200154166003811015610577575b14610e59565b8183528260205261050b61050660408520543390610d7f565b610e01565b8183528260205261054181600360408620016001600160a01b03909116600090815260209190915260409020805460ff19169055565b6040519133916001600160a01b0316907feb3e33034c392e69263b04ec0fa376dc12784a41b6676c7f31b936cbc0fbb5af8585a4f35b61057f610c6f565b6104e7565b503461000e5760408060031936011261000e576024356004356105a682610491565b600092818452836020526105ce600260ff600184882001541660038110156105775714610e59565b818452836020526105e6610506828620543390610d7f565b81845260208490528084206001600160a01b03841693906003018415610655576001600160a01b03909116600090815260209190915260409020805460ff19166001179055519133917f63502af7324ff6db91ab38f8236a648727d9385ea6c782073dd4882d8a61a48f8585a4f35b825162461bcd60e51b815260206004820152601f60248201527f43616e6e6f74206164642030783020746f20612073686172656420726f6c65006044820152606490fd5b503461000e57604036600319011261000e5760206106c46024356106bc81610491565b600435610d7f565b6040519015158152f35b503461000e57602036600319011261000e576004356000908082528160205261070c600260ff60016040862001541660038110156105775714610e59565b61071e6107193383610d7f565b610eba565b808252602082815260408084203360008181526003909201909352819020805460ff19169055519181907feb3e33034c392e69263b04ec0fa376dc12784a41b6676c7f31b936cbc0fbb5af8585a4f35b503461000e57602036600319011261000e5760206004356000908082528183526107ad600160ff816040862001541660038110156107ca575b14610d9d565b81528082526002604060018060a01b039220015416604051908152f35b6107d2610c6f565b6107a7565b50634e487b7160e01b600052604160045260246000fd5b67ffffffffffffffff811161080257604052565b61080a6107d7565b604052565b6060810190811067ffffffffffffffff82111761080257604052565b6040810190811067ffffffffffffffff82111761080257604052565b90601f8019910116810190811067ffffffffffffffff82111761080257604052565b60209067ffffffffffffffff8111610883575b60051b0190565b61088b6107d7565b61087c565b503461000e5760208060031936011261000e576004359067ffffffffffffffff9081831161000e573660238401121561000e578260040135906108d282610869565b916040936108e285519485610847565b8184528284016024809360051b8801019236841161000e57808801915b8483106109155760008861091289610f97565b51f35b823584811161000e578901906060602319833603011261000e5788519061093b8261080f565b8383013561094881610491565b8252604492838101358984015260648101359087821161000e5701913660438401121561000e5784830135928784116109c2575b8b5190610992601f8601601f19168c0183610847565b8482523686868301011161000e578a8581979682976000940183860137830101528b8201528152019201916108ff565b6109ca6107d7565b61097c565b908082519081815260208091019281808460051b830101950193600080925b8584106109ff575050505050505090565b9091929394959685601f19918284820301865289519260018060a01b03845116825282840151838301526040809401516060809584015280518095840152865b858110610a6f575050928291600194601f60809389858286010152011601019901940194019295949391906109ee565b818101850151848201608001528a9401610a3f565b6020815260406020610aa08451838386015260608501906109cf565b93015191015290565b503461000e5760208060031936011261000e57600081604051610acb8161082b565b606081520152610adc60043561014b565b509060405190610aeb8261082b565b825492610af784610869565b610b046040519182610847565b848152600082815283812095908483015b828210610b3a5783875260018501548688015260405180610b368982610a84565b0390f35b600386600192610b498b6115a9565b815201980191019096610b15565b503461000e5760408060031936011261000e57602435600435610b7982610491565b60009281845283602052610ba0600160ff8184882001541660038110156107ca5714610d9d565b81845283602052610bb8610506828620543390610d7f565b81845260208490528084206001600160a01b03841693906002018415610c1f5780546001600160a01b0319166001600160a01b03909216919091179055519133917f3b855c56b409b671c7112789d022675eb639d0bcb8896f1b6197c132f799e7468585a4f35b825162461bcd60e51b815260206004820152602360248201527f43616e6e6f742073657420616e206578636c757369766520726f6c6520746f2060448201526203078360ec1b6064820152608490fd5b50634e487b7160e01b600052602160045260246000fd5b60031115610c9057565b610c98610c6f565b565b600160009081526020527fada5013122d395ba3c54772283fb069b10426056ef8ca54750cb9bb552a59e7e547fada5013122d395ba3c54772283fb069b10426056ef8ca54750cb9bb552a59e7d9060ff16610cf481610c86565b60018103610d125750600201546001600160a01b0391821691161490565b80610d1e600292610c86565b14610d595760405162461bcd60e51b815260206004820152600e60248201526d125b9d985b1a59081c9bdb19525960921b6044820152606490fd5b60ff916003610d7a92019060018060a01b0316600052602052604060002090565b541690565b6000526000602052604060002060ff600182015416610cf481610c86565b15610da457565b60405162461bcd60e51b815260206004820152602f60248201527f4d7573742062652063616c6c6564206f6e20616e20696e697469616c697a656460448201526e204578636c757369766520726f6c6560881b6064820152608490fd5b15610e0857565b60405162461bcd60e51b8152602060048201526024808201527f43616e206f6e6c792062652063616c6c6564206279206120726f6c65206d616e60448201526330b3b2b960e11b6064820152608490fd5b15610e6057565b60405162461bcd60e51b815260206004820152602c60248201527f4d7573742062652063616c6c6564206f6e20616e20696e697469616c697a656460448201526b2053686172656420726f6c6560a01b6064820152608490fd5b15610ec157565b60405162461bcd60e51b815260206004820152602260248201527f53656e64657220646f6573206e6f7420686f6c6420726571756972656420726f6044820152616c6560f01b6064820152608490fd5b506040513d6000823e3d90fd5b9081602091031261000e575190565b6001546001600160a01b03168015610f92576020600491604051928380926329cb924d60e01b82525afa908115610f85575b600091610f6a575090565b610f82915060203d8111610383576103758183610847565b90565b610f8d610f11565b610f5f565b504290565b610fa361071933610c9a565b60035490610faf610f2d565b610fb76111d4565b5050610fc28361014b565b5060018281830155806000905b611143575b505050610fe08361154b565b91610fe9611888565b91610ff561023f61190b565b92833b1561000e576040516310a7e20160e01b81526004810186905260008160248183895af18015611136575b611123575b506001600160a01b0316803b1561000e576040516368ad8ae360e01b81526004810186905260248101929092526000908290604490829084905af18015611116575b611103575b50813b1561000e57604051638e0d3ca760e01b815260048101939093527f082d2a29e61e3d0508e5617570bed4c7c58ae73d4719b31052d8638812bc4c0c926110d8926000908290602490829084905af180156110f6575b6110dd575b506040519182918261153a565b0390a2565b806110ea6110f0926107ee565b80610397565b386110cb565b6110fe610f11565b6110c6565b806110ea611110926107ee565b3861106e565b61111e610f11565b611069565b806110ea611130926107ee565b38611027565b61113e610f11565b611022565b84518110156111cf578061117861117161023f6111636111a6958a611263565b51516001600160a01b031690565b1515611285565b60406111848288611263565b510151516111ac575b6111a161119a8288611263565b51856113f4565b611247565b81610fcf565b6111ca6111c56111bf611163848a611263565b3b151590565b6112d1565b61118d565b610fd4565b600354600160401b811015611223575b600181018060035581101561018657600360005260011b7fc2575a0e9e593c00f959f8c92f12db2869c3395a3b0502d05e2516446f71f85b0190600090565b61122b6107d7565b6111e4565b50634e487b7160e01b600052601160045260246000fd5b6001906000198114611257570190565b61125f611230565b0190565b6020918151811015611278575b60051b010190565b611280610134565b611270565b1561128c57565b60405162461bcd60e51b815260206004820152601e60248201527f5468652060746f6020616464726573732063616e6e6f742062652030783000006044820152606490fd5b156112d857565b60405162461bcd60e51b815260206004820152601d60248201527f454f412063616e277420616363657074207478207769746820646174610000006044820152606490fd5b805482101561133a575b6000526003602060002091020190600090565b611342610134565b611327565b50634e487b7160e01b600052600060045260246000fd5b90600182811c9216801561138e575b602083101461137857565b634e487b7160e01b600052602260045260246000fd5b91607f169161136d565b8181106113a3575050565b60008155600101611398565b9190601f81116113be57505050565b610c98926000526020600020906020601f840160051c830193106113ea575b601f0160051c0190611398565b90915081906113dd565b6114138154600160401b81101561152d575b600192838201815561131d565b611520575b825181546001600160a01b0319166001600160a01b0391909116178155604060026020928386015185820155019301519081519167ffffffffffffffff8311611513575b6114708361146a875461135e565b876113af565b81601f84116001146114a9575092829391839260009461149e575b50501b916000199060031b1c1916179055565b01519250388061148b565b919083601f1981166114c088600052602060002090565b946000905b888383106114f957505050106114e0575b505050811b019055565b015160001960f88460031b161c191690553880806114d6565b8587015188559096019594850194879350908101906114c5565b61151b6107d7565b61145c565b611528611347565b611418565b6115356107d7565b611406565b906020610f829281815201906109cf565b6000908061156d5750600360fc1b90505b60301c65020b236b4b7160d51b1790565b805b611579575061155c565b90600a908183066030810180911161159c575b60f81b9060081c1791048061156f565b6115a4611230565b61158c565b90604051916115b78361080f565b8260018060a01b0382541681526001600281840154936020948585015201906040519384926000928154916115eb8361135e565b8087529282811690811561165e5750600114611619575b5050505060409291611615910384610847565b0152565b60009081528381209695945091905b81831061164657509394509192509082010181611615604038611602565b86548884018501529586019587945091830191611628565b60ff191685880152505050151560051b830101905081611615604038611602565b1561168657565b60405162461bcd60e51b815260206004820152601c60248201527f50726576696f7573207478206e6f7420796574206578656375746564000000006044820152606490fd5b156116d257565b60405162461bcd60e51b8152602060048201526013602482015272151e08185b1c9958591e48195e1958dd5d1959606a1b6044820152606490fd5b1561171457565b60405162461bcd60e51b8152602060048201526015602482015274141c9bdc1bdcd85b081dd85cc81c995a9958dd1959605a1b6044820152606490fd5b1561175857565b60405162461bcd60e51b815260206004820152601d60248201527f4d7573742073656e6420657861637420616d6f756e74206f66204554480000006044820152606490fd5b906117fb575b6002600091828155826001820155016117bc815461135e565b806117c657505050565b601f81116001146117d5575055565b818352602083206117f191601f0160051c810190600101611398565b8160208120915555565b611803611347565b6117a3565b1561180f57565b60405162461bcd60e51b8152602060048201526013602482015272151e08195e1958dd5d1a5bdb8819985a5b1959606a1b6044820152606490fd5b60001981019190821161185957565b610c98611230565b916000928392602083519301915af190565b9081602091031261000e5751610f8281610491565b6002546040516302abf57960e61b8152654f7261636c6560d01b60048201526001600160a01b03916020908290602490829086165afa9081156118fe575b6000916118d257501690565b6118f3915060203d81116118f7575b6118eb8183610847565b810190611873565b1690565b503d6118e1565b611906610f11565b6118c6565b6002546040516302abf57960e61b8152721259195b9d1a599a595c95da1a5d195b1a5cdd606a1b60048201526001600160a01b03916020908290602490829086165afa9081156118fe576000916118d25750169056fea2646970667358221220fbcbb1cc69220b783860f89a2d306aedd4b63710eb0c3a1513d79e098635085164736f6c63430008100033417474656d7074656420746f2075736520616e20696e76616c696420726f6c65",
  "devdoc": {
    "kind": "dev",
    "methods": {
      "addMember(uint256,address)": {
        "details": "Reverts if `roleId` does not represent an initialized, SharedRole or if the caller is not a member of the managing role for `roleId`.",
        "params": {
          "newMember": "the new SharedRole member.",
          "roleId": "the SharedRole membership to modify."
        }
      },
      "constructor": {
        "params": {
          "_finderAddress": "keeps track of all contracts within the system based on their interfaceName.",
          "_startingId": "the initial proposal id that the contract will begin incrementing from.",
          "_timerAddress": "Contract that stores the current time in a testing environment. Must be set to 0x0 for production environments that use live time."
        }
      },
      "executeProposal(uint256,uint256)": {
        "details": "This can be called by any address. Caller is expected to send enough ETH to execute payable transactions.",
        "params": {
          "id": "unique id for the executed proposal.",
          "transactionIndex": "unique transaction index for the executed proposal."
        }
      },
      "getCurrentTime()": {
        "returns": {
          "_0": "uint for the current Testable timestamp."
        }
      },
      "getMember(uint256)": {
        "details": "Reverts if `roleId` does not represent an initialized, exclusive role.",
        "params": {
          "roleId": "the ExclusiveRole membership to check."
        },
        "returns": {
          "_0": "the address of the current ExclusiveRole member."
        }
      },
      "getProposal(uint256)": {
        "details": "after a proposal is executed, its data will be zeroed out, except for the request time.",
        "params": {
          "id": "uniquely identify the identity of the proposal."
        },
        "returns": {
          "_0": "proposal struct containing transactions[] and requestTime."
        }
      },
      "holdsRole(uint256,address)": {
        "details": "Reverts if roleId does not correspond to an initialized role.",
        "params": {
          "memberToCheck": "the address to check.",
          "roleId": "the Role to check."
        },
        "returns": {
          "_0": "True if `memberToCheck` is a member of `roleId`."
        }
      },
      "numProposals()": {
        "returns": {
          "_0": "uint256 representing the current number of proposals."
        }
      },
      "propose((address,uint256,bytes)[])": {
        "details": "You can create the data portion of each transaction by doing the following: ``` const truffleContractInstance = await TruffleContract.deployed() const data = truffleContractInstance.methods.methodToCall(arg1, arg2).encodeABI() ``` Note: this method must be public because of a solidity limitation that disallows structs arrays to be passed to external functions.",
        "params": {
          "transactions": "list of transactions that are being proposed."
        }
      },
      "removeMember(uint256,address)": {
        "details": "Reverts if `roleId` does not represent an initialized, SharedRole or if the caller is not a member of the managing role for `roleId`.",
        "params": {
          "memberToRemove": "the current SharedRole member to remove.",
          "roleId": "the SharedRole membership to modify."
        }
      },
      "renounceMembership(uint256)": {
        "details": "Reverts if the caller is not a member of the role for `roleId` or if `roleId` is not an initialized, SharedRole.",
        "params": {
          "roleId": "the SharedRole membership to modify."
        }
      },
      "resetMember(uint256,address)": {
        "details": "Reverts if the caller is not a member of the managing role for `roleId` or if `roleId` is not an initialized, ExclusiveRole.",
        "params": {
          "newMember": "the new ExclusiveRole member.",
          "roleId": "the ExclusiveRole membership to modify."
        }
      },
      "setCurrentTime(uint256)": {
        "details": "Will revert if not running in test mode.",
        "params": {
          "time": "timestamp to set current Testable time to."
        }
      }
    },
    "title": "Takes proposals for certain governance actions and allows UMA token holders to vote on them.",
    "version": 1
  },
  "userdoc": {
    "kind": "user",
    "methods": {
      "addMember(uint256,address)": {
        "notice": "Adds `newMember` to the shared role, `roleId`."
      },
      "constructor": {
        "notice": "Construct the Governor contract."
      },
      "executeProposal(uint256,uint256)": {
        "notice": "Executes a proposed governance action that has been approved by voters."
      },
      "getCurrentTime()": {
        "notice": "Gets the current time. Will return the last time set in `setCurrentTime` if running in test mode. Otherwise, it will return the block timestamp."
      },
      "getMember(uint256)": {
        "notice": "Gets the current holder of the exclusive role, `roleId`."
      },
      "getProposal(uint256)": {
        "notice": "Gets the proposal data for a particular id."
      },
      "holdsRole(uint256,address)": {
        "notice": "Whether `memberToCheck` is a member of roleId."
      },
      "numProposals()": {
        "notice": "Gets the total number of proposals (includes executed and non-executed)."
      },
      "propose((address,uint256,bytes)[])": {
        "notice": "Proposes a new governance action. Can only be called by the holder of the Proposer role."
      },
      "removeMember(uint256,address)": {
        "notice": "Removes `memberToRemove` from the shared role, `roleId`."
      },
      "renounceMembership(uint256)": {
        "notice": "Removes caller from the role, `roleId`."
      },
      "resetMember(uint256,address)": {
        "notice": "Changes the exclusive role holder of `roleId` to `newMember`."
      },
      "setCurrentTime(uint256)": {
        "notice": "Sets the current time."
      }
    },
    "version": 1
  },
  "storageLayout": {
    "storage": [
      {
        "astId": 16654,
        "contract": "contracts/data-verification-mechanism/implementation/Governor.sol:Governor",
        "label": "roles",
        "offset": 0,
        "slot": "0",
        "type": "t_mapping(t_uint256,t_struct(Role)16649_storage)"
      },
      {
        "astId": 17751,
        "contract": "contracts/data-verification-mechanism/implementation/Governor.sol:Governor",
        "label": "timerAddress",
        "offset": 0,
        "slot": "1",
        "type": "t_address"
      },
      {
        "astId": 26469,
        "contract": "contracts/data-verification-mechanism/implementation/Governor.sol:Governor",
        "label": "finder",
        "offset": 0,
        "slot": "2",
        "type": "t_contract(FinderInterface)36753"
      },
      {
        "astId": 26473,
        "contract": "contracts/data-verification-mechanism/implementation/Governor.sol:Governor",
        "label": "proposals",
        "offset": 0,
        "slot": "3",
        "type": "t_array(t_struct(Proposal)26466_storage)dyn_storage"
      }
    ],
    "types": {
      "t_address": {
        "encoding": "inplace",
        "label": "address",
        "numberOfBytes": "20"
      },
      "t_array(t_struct(Proposal)26466_storage)dyn_storage": {
        "base": "t_struct(Proposal)26466_storage",
        "encoding": "dynamic_array",
        "label": "struct Governor.Proposal[]",
        "numberOfBytes": "32"
      },
      "t_array(t_struct(Transaction)26459_storage)dyn_storage": {
        "base": "t_struct(Transaction)26459_storage",
        "encoding": "dynamic_array",
        "label": "struct Governor.Transaction[]",
        "numberOfBytes": "32"
      },
      "t_bool": {
        "encoding": "inplace",
        "label": "bool",
        "numberOfBytes": "1"
      },
      "t_bytes_storage": {
        "encoding": "bytes",
        "label": "bytes",
        "numberOfBytes": "32"
      },
      "t_contract(FinderInterface)36753": {
        "encoding": "inplace",
        "label": "contract FinderInterface",
        "numberOfBytes": "20"
      },
      "t_enum(RoleType)16637": {
        "encoding": "inplace",
        "label": "enum MultiRole.RoleType",
        "numberOfBytes": "1"
      },
      "t_mapping(t_address,t_bool)": {
        "encoding": "mapping",
        "key": "t_address",
        "label": "mapping(address => bool)",
        "numberOfBytes": "32",
        "value": "t_bool"
      },
      "t_mapping(t_uint256,t_struct(Role)16649_storage)": {
        "encoding": "mapping",
        "key": "t_uint256",
        "label": "mapping(uint256 => struct MultiRole.Role)",
        "numberOfBytes": "32",
        "value": "t_struct(Role)16649_storage"
      },
      "t_struct(Proposal)26466_storage": {
        "encoding": "inplace",
        "label": "struct Governor.Proposal",
        "members": [
          {
            "astId": 26463,
            "contract": "contracts/data-verification-mechanism/implementation/Governor.sol:Governor",
            "label": "transactions",
            "offset": 0,
            "slot": "0",
            "type": "t_array(t_struct(Transaction)26459_storage)dyn_storage"
          },
          {
            "astId": 26465,
            "contract": "contracts/data-verification-mechanism/implementation/Governor.sol:Governor",
            "label": "requestTime",
            "offset": 0,
            "slot": "1",
            "type": "t_uint256"
          }
        ],
        "numberOfBytes": "64"
      },
      "t_struct(Role)16649_storage": {
        "encoding": "inplace",
        "label": "struct MultiRole.Role",
        "members": [
          {
            "astId": 16639,
            "contract": "contracts/data-verification-mechanism/implementation/Governor.sol:Governor",
            "label": "managingRole",
            "offset": 0,
            "slot": "0",
            "type": "t_uint256"
          },
          {
            "astId": 16642,
            "contract": "contracts/data-verification-mechanism/implementation/Governor.sol:Governor",
            "label": "roleType",
            "offset": 0,
            "slot": "1",
            "type": "t_enum(RoleType)16637"
          },
          {
            "astId": 16645,
            "contract": "contracts/data-verification-mechanism/implementation/Governor.sol:Governor",
            "label": "exclusiveRoleMembership",
            "offset": 0,
            "slot": "2",
            "type": "t_struct(RoleMembership)16460_storage"
          },
          {
            "astId": 16648,
            "contract": "contracts/data-verification-mechanism/implementation/Governor.sol:Governor",
            "label": "sharedRoleMembership",
            "offset": 0,
            "slot": "3",
            "type": "t_struct(RoleMembership)16533_storage"
          }
        ],
        "numberOfBytes": "128"
      },
      "t_struct(RoleMembership)16460_storage": {
        "encoding": "inplace",
        "label": "struct Exclusive.RoleMembership",
        "members": [
          {
            "astId": 16459,
            "contract": "contracts/data-verification-mechanism/implementation/Governor.sol:Governor",
            "label": "member",
            "offset": 0,
            "slot": "0",
            "type": "t_address"
          }
        ],
        "numberOfBytes": "32"
      },
      "t_struct(RoleMembership)16533_storage": {
        "encoding": "inplace",
        "label": "struct Shared.RoleMembership",
        "members": [
          {
            "astId": 16532,
            "contract": "contracts/data-verification-mechanism/implementation/Governor.sol:Governor",
            "label": "members",
            "offset": 0,
            "slot": "0",
            "type": "t_mapping(t_address,t_bool)"
          }
        ],
        "numberOfBytes": "32"
      },
      "t_struct(Transaction)26459_storage": {
        "encoding": "inplace",
        "label": "struct Governor.Transaction",
        "members": [
          {
            "astId": 26454,
            "contract": "contracts/data-verification-mechanism/implementation/Governor.sol:Governor",
            "label": "to",
            "offset": 0,
            "slot": "0",
            "type": "t_address"
          },
          {
            "astId": 26456,
            "contract": "contracts/data-verification-mechanism/implementation/Governor.sol:Governor",
            "label": "value",
            "offset": 0,
            "slot": "1",
            "type": "t_uint256"
          },
          {
            "astId": 26458,
            "contract": "contracts/data-verification-mechanism/implementation/Governor.sol:Governor",
            "label": "data",
            "offset": 0,
            "slot": "2",
            "type": "t_bytes_storage"
          }
        ],
        "numberOfBytes": "96"
      },
      "t_uint256": {
        "encoding": "inplace",
        "label": "uint256",
        "numberOfBytes": "32"
      }
    }
  }
}