{
  "address": "0x71b46070859216DD67B895ce1E1f3b3b4e53ebDF",
  "abi": [
    {
      "inputs": [
        {
          "internalType": "address",
          "name": "",
          "type": "address"
        }
      ],
      "name": "longShortPairParameters",
      "outputs": [
        {
          "internalType": "int256",
          "name": "upperBound",
          "type": "int256"
        },
        {
          "internalType": "int256",
          "name": "lowerBound",
          "type": "int256"
        }
      ],
      "stateMutability": "view",
      "type": "function"
    },
    {
      "inputs": [
        {
          "internalType": "int256",
          "name": "expiryPrice",
          "type": "int256"
        }
      ],
      "name": "percentageLongCollateralAtExpiry",
      "outputs": [
        {
          "internalType": "uint256",
          "name": "",
          "type": "uint256"
        }
      ],
      "stateMutability": "view",
      "type": "function"
    },
    {
      "inputs": [
        {
          "internalType": "address",
          "name": "longShortPair",
          "type": "address"
        },
        {
          "internalType": "int256",
          "name": "upperBound",
          "type": "int256"
        },
        {
          "internalType": "int256",
          "name": "lowerBound",
          "type": "int256"
        }
      ],
      "name": "setLongShortPairParameters",
      "outputs": [],
      "stateMutability": "nonpayable",
      "type": "function"
    }
  ],
  "transactionHash": "0x07ccae6219545550d72a0a0749ece6c10fc5ffa1f832365be41b5a881ac4ca7b",
  "args": [],
  "solcInputHash": "864d61c65c789401ae17358a5af86557",
  "bytecode": "0x6080806040523461002357600160ff19600054161760005561057190816100298239f35b600080fdfe6040608081526004908136101561001557600080fd5b600091823560e01c90816325110946146100ba5781632da52361146100885750639299cbed1461004457600080fd5b34610084576020366003190112610084579081906001600160a01b036100686102ab565b1681526001602052206001815491015482519182526020820152f35b5080fd5b8284346100b75760203660031901126100b757506100b06020926100aa610314565b35610395565b9051908152f35b80fd5b838334610084576060366003190112610084576100d56102ab565b6024356044356100e3610314565b845460ff1990811686558451634fa1eee960e11b815260209791946001600160a01b0316919088818381865afa9081156102a1578891610246575b501561020d57828413156101d95781875260018852878688208751610142816102c6565b6001825492838352015492839101521590816101d0575b50156101945750600193929184888193885195610175876102c6565b8652818601938452895252858720925183555191015583541617825551f35b855162461bcd60e51b8152908101889052601660248201527514185c985b595d195c9cc8185b1c9958591e481cd95d60521b6044820152606490fd5b90501589610159565b855162461bcd60e51b8152908101889052600e60248201526d496e76616c696420626f756e647360901b6044820152606490fd5b855162461bcd60e51b81529081018890526013602482015272496e76616c6964204c5350206164647265737360681b6044820152606490fd5b9050883d8a1161029a575b601f8101601f1916820167ffffffffffffffff811183821017610287578a9183918a528101031261028357518961011e565b8780fd5b634e487b7160e01b8a526041845260248afd5b503d610251565b87513d8a823e3d90fd5b600435906001600160a01b03821682036102c157565b600080fd5b6040810190811067ffffffffffffffff8211176102e257604052565b634e487b7160e01b600052604160045260246000fd5b6020810190811067ffffffffffffffff8211176102e257604052565b60ff600054161561032157565b60405162461bcd60e51b815260206004820152601f60248201527f5265656e7472616e637947756172643a207265656e7472616e742063616c6c006044820152606490fd5b8181039291600013801582851316918412161761037f57565b634e487b7160e01b600052601160045260246000fd5b6000338152600160205260409182822083519184830183811067ffffffffffffffff821117610527578552600182549283855201546020840192818452159081159161051d575b50156104d95782518112156104b1578151811315610495579061040461041c92825190610366565b92855193610411856102f8565b845251905190610366565b90835191610429836102f8565b8252828451610437816102f8565b5251670de0b6b3a7640000918160001904831182151516610481575192831561046d57500204809151610469816102f8565b5290565b634e487b7160e01b81526012600452602490fd5b634e487b7160e01b84526011600452602484fd5b50505081818093516104a6816102f8565b5251610469816102f8565b50505081516104bf816102f8565b52516104ca816102f8565b670de0b6b3a764000080915290565b845162461bcd60e51b815260206004820152601e60248201527f506172616d73206e6f742073657420666f722063616c6c696e67204c535000006044820152606490fd5b90501515386103dc565b634e487b7160e01b85526041600452602485fdfea264697066735822122025d3019028ba1342a013586dddbf3628359fe8c0e5fb0e9f5042a95e728b4adb64736f6c63430008100033",
  "devdoc": {
    "kind": "dev",
    "methods": {
      "percentageLongCollateralAtExpiry(int256)": {
        "params": {
          "expiryPrice": "price from the optimistic oracle for the LSP price identifier."
        },
        "returns": {
          "_0": "expiryPercentLong to indicate how much collateral should be sent between long and short tokens."
        }
      },
      "setLongShortPairParameters(address,int256,int256)": {
        "details": "Note: a) Any address can set these parameters b) existing LSP parameters for address not set. c) upperBound > lowerBound. d) parameters can only be set once to prevent the deployer from changing the parameters after the fact. e) For safety, parameters should be set before depositing any synthetic tokens in a liquidity pool. f) longShortPair must expose an expirationTimestamp method to validate it is correctly deployed.",
        "params": {
          "longShortPair": "address of the LSP contract.",
          "lowerBound": "the lower price that the linear LSP will operate within.",
          "upperBound": "the upper price that the linear LSP will operate within."
        }
      }
    },
    "title": "Linear Long Short Pair Financial Product Library.",
    "version": 1
  },
  "userdoc": {
    "kind": "user",
    "methods": {
      "percentageLongCollateralAtExpiry(int256)": {
        "notice": "Returns a number between 0 and 1e18 to indicate how much collateral each long and short token is entitled to per collateralPerPair."
      },
      "setLongShortPairParameters(address,int256,int256)": {
        "notice": "Enables any address to set the parameters for an associated financial product."
      }
    },
    "notice": "Adds settlement logic to create linear LSPs. The contract will payout a scaled amount of collateral depending on where the settlement price lands within a price range between an upperBound and a lowerBound. If settlement price is within the price range then the expiryPercentLong is defined by (expiryPrice - lowerBound) / (upperBound - lowerBound). This number represent the amount of collateral from the collateralPerPair that will be sent to the long and short side. If the price is higher than the upperBound then expiryPercentLong = 1. if the price is lower than the lower bound then expiryPercentLong = 0. For example, consider a linear LSP on the price of ETH collateralized in USDC with an upperBound = 4000 and lowerBound = 2000 with a collateralPerPair of 1000 (i.e each pair of long and shorts is worth 1000 USDC). At settlement the expiryPercentLong would equal 1 (each long worth 1000 and short worth 0) if ETH price was > 4000 and it would equal 0 if < 2000 (each long is worthless and each short is worth 1000). If between the two (say 3500) then expiryPercentLong = (3500 - 2000) / (4000 - 2000) = 0.75. Therefore each long is worth 750 and each short is worth 250.",
    "version": 1
  },
  "storageLayout": {
    "storage": [
      {
        "astId": 16304,
        "contract": "contracts/financial-templates/common/financial-product-libraries/long-short-pair-libraries/LinearLongShortPairFinancialProductLibrary.sol:LinearLongShortPairFinancialProductLibrary",
        "label": "_notEntered",
        "offset": 0,
        "slot": "0",
        "type": "t_bool"
      },
      {
        "astId": 44238,
        "contract": "contracts/financial-templates/common/financial-product-libraries/long-short-pair-libraries/LinearLongShortPairFinancialProductLibrary.sol:LinearLongShortPairFinancialProductLibrary",
        "label": "longShortPairParameters",
        "offset": 0,
        "slot": "1",
        "type": "t_mapping(t_address,t_struct(LinearLongShortPairParameters)44233_storage)"
      }
    ],
    "types": {
      "t_address": {
        "encoding": "inplace",
        "label": "address",
        "numberOfBytes": "20"
      },
      "t_bool": {
        "encoding": "inplace",
        "label": "bool",
        "numberOfBytes": "1"
      },
      "t_int256": {
        "encoding": "inplace",
        "label": "int256",
        "numberOfBytes": "32"
      },
      "t_mapping(t_address,t_struct(LinearLongShortPairParameters)44233_storage)": {
        "encoding": "mapping",
        "key": "t_address",
        "label": "mapping(address => struct LinearLongShortPairFinancialProductLibrary.LinearLongShortPairParameters)",
        "numberOfBytes": "32",
        "value": "t_struct(LinearLongShortPairParameters)44233_storage"
      },
      "t_struct(LinearLongShortPairParameters)44233_storage": {
        "encoding": "inplace",
        "label": "struct LinearLongShortPairFinancialProductLibrary.LinearLongShortPairParameters",
        "members": [
          {
            "astId": 44230,
            "contract": "contracts/financial-templates/common/financial-product-libraries/long-short-pair-libraries/LinearLongShortPairFinancialProductLibrary.sol:LinearLongShortPairFinancialProductLibrary",
            "label": "upperBound",
            "offset": 0,
            "slot": "0",
            "type": "t_int256"
          },
          {
            "astId": 44232,
            "contract": "contracts/financial-templates/common/financial-product-libraries/long-short-pair-libraries/LinearLongShortPairFinancialProductLibrary.sol:LinearLongShortPairFinancialProductLibrary",
            "label": "lowerBound",
            "offset": 0,
            "slot": "1",
            "type": "t_int256"
          }
        ],
        "numberOfBytes": "64"
      }
    }
  }
}