{
  "address": "0xf5D0f95B66559A01fF361B89a18738FdC1BBC548",
  "abi": [
    {
      "inputs": [
        {
          "internalType": "contract FinderInterface",
          "name": "_finder",
          "type": "address"
        },
        {
          "internalType": "contract TokenFactory",
          "name": "_tokenFactory",
          "type": "address"
        },
        {
          "internalType": "address",
          "name": "_timer",
          "type": "address"
        }
      ],
      "stateMutability": "nonpayable",
      "type": "constructor"
    },
    {
      "anonymous": false,
      "inputs": [
        {
          "indexed": true,
          "internalType": "address",
          "name": "longShortPair",
          "type": "address"
        },
        {
          "indexed": true,
          "internalType": "address",
          "name": "deployerAddress",
          "type": "address"
        },
        {
          "indexed": false,
          "internalType": "address",
          "name": "longToken",
          "type": "address"
        },
        {
          "indexed": false,
          "internalType": "address",
          "name": "shortToken",
          "type": "address"
        }
      ],
      "name": "CreatedLongShortPair",
      "type": "event"
    },
    {
      "inputs": [
        {
          "components": [
            {
              "internalType": "string",
              "name": "pairName",
              "type": "string"
            },
            {
              "internalType": "uint64",
              "name": "expirationTimestamp",
              "type": "uint64"
            },
            {
              "internalType": "uint256",
              "name": "collateralPerPair",
              "type": "uint256"
            },
            {
              "internalType": "bytes32",
              "name": "priceIdentifier",
              "type": "bytes32"
            },
            {
              "internalType": "bool",
              "name": "enableEarlyExpiration",
              "type": "bool"
            },
            {
              "internalType": "string",
              "name": "longSynthName",
              "type": "string"
            },
            {
              "internalType": "string",
              "name": "longSynthSymbol",
              "type": "string"
            },
            {
              "internalType": "string",
              "name": "shortSynthName",
              "type": "string"
            },
            {
              "internalType": "string",
              "name": "shortSynthSymbol",
              "type": "string"
            },
            {
              "internalType": "contract IERC20Standard",
              "name": "collateralToken",
              "type": "address"
            },
            {
              "internalType": "contract LongShortPairFinancialProductLibrary",
              "name": "financialProductLibrary",
              "type": "address"
            },
            {
              "internalType": "bytes",
              "name": "customAncillaryData",
              "type": "bytes"
            },
            {
              "internalType": "uint256",
              "name": "proposerReward",
              "type": "uint256"
            },
            {
              "internalType": "uint256",
              "name": "optimisticOracleLivenessTime",
              "type": "uint256"
            },
            {
              "internalType": "uint256",
              "name": "optimisticOracleProposerBond",
              "type": "uint256"
            }
          ],
          "internalType": "struct LongShortPairCreator.CreatorParams",
          "name": "params",
          "type": "tuple"
        }
      ],
      "name": "createLongShortPair",
      "outputs": [
        {
          "internalType": "address",
          "name": "",
          "type": "address"
        }
      ],
      "stateMutability": "nonpayable",
      "type": "function"
    },
    {
      "inputs": [],
      "name": "finder",
      "outputs": [
        {
          "internalType": "contract FinderInterface",
          "name": "",
          "type": "address"
        }
      ],
      "stateMutability": "view",
      "type": "function"
    },
    {
      "inputs": [],
      "name": "getCurrentTime",
      "outputs": [
        {
          "internalType": "uint256",
          "name": "",
          "type": "uint256"
        }
      ],
      "stateMutability": "view",
      "type": "function"
    },
    {
      "inputs": [
        {
          "internalType": "uint256",
          "name": "time",
          "type": "uint256"
        }
      ],
      "name": "setCurrentTime",
      "outputs": [],
      "stateMutability": "nonpayable",
      "type": "function"
    },
    {
      "inputs": [],
      "name": "timerAddress",
      "outputs": [
        {
          "internalType": "address",
          "name": "",
          "type": "address"
        }
      ],
      "stateMutability": "view",
      "type": "function"
    },
    {
      "inputs": [],
      "name": "tokenFactory",
      "outputs": [
        {
          "internalType": "contract TokenFactory",
          "name": "",
          "type": "address"
        }
      ],
      "stateMutability": "view",
      "type": "function"
    }
  ],
  "transactionHash": "0x7874c6fdb3946d67a6e08ebc7f256abb810bf2eb58cd4e5e6bf490a284dac36a",
  "args": [
    "0xA969917A4dFaB07936dEc60f70FA5c736A1e2b9e",
    "0x8Aa853D41A08c9E22CB27A383344a273d12310C3",
    "0xf8815ce169E5450aa6908e76E1B970dBcEC11550"
  ],
  "solcInputHash": "864d61c65c789401ae17358a5af86557",
  "bytecode": "0x60803461011257601f61408738819003918201601f19168301916001600160401b03831184841017610117578084926060946040528339810103126101125780516001600160a01b0391908281169081900361011257602082015191838316809303610112576040015192831680930361011257600054600160a01b936001600160a81b03199091161783179160ff60a084901c16156100cd5760018060a01b031990816001541617600155600254161760025560ff60a01b191617600055604051613f59908161012e8239f35b60405162461bcd60e51b815260206004820152601f60248201527f5265656e7472616e637947756172643a207265656e7472616e742063616c6c006044820152606490fd5b600080fd5b634e487b7160e01b600052604160045260246000fdfe608060405260043610156200001357600080fd5b6000803560e01c8063124b4e3514620001975780631c39c38d146200016e57806322f8e56614620000e557806329cb924d14620000be578063b9a3c84c14620000935763e77772fe146200006657600080fd5b3462000090578060031936011262000090576001546040516001600160a01b039091168152602090f35b80fd5b503462000090578060031936011262000090576002546040516001600160a01b039091168152602090f35b503462000090578060031936011262000090576020620000dd62000cd3565b604051908152f35b5034620000905760203660031901126200009057805481906001600160a01b031680156200016b57803b156200016b5781809160246040518094819363117c72b360e11b835260043560048401525af18015620001605762000148575b50604051f35b620001539062000c2d565b6200009057803862000142565b6040513d84823e3d90fd5b50fd5b50346200009057806003193601126200009057546040516001600160a01b039091168152602090f35b503462000090576003196020368201126200096f576001600160401b03600435116200096f576101e090600435360301126200009057620001d9608062000bfa565b600435600401356001600160401b0381116200096f576200020290600436918135010162000cb2565b608052602460043501356001600160401b03811681036200096f5760a052600435604481013560c052606481013560e0526084013580151581036200096f576101005260043560a401356001600160401b0381116200096f576200026e90600436918135010162000cb2565b6101205260043560c401356001600160401b0381116200096f576200029b90600436918135010162000cb2565b6101405260043560e401356001600160401b0381116200096f57620002c890600436918135010162000cb2565b6101605260043561010401356001600160401b0381116200096f57620002f690600436918135010162000cb2565b6101805260043561012401356001600160a01b03811681036200096f576101a05260043561014401356001600160a01b038116900362000090576004356101448101356101c05261016401356001600160401b0381116200096f5736602382600435010112156200096f576200037e9036906024600482813501013591600435010162000c63565b6101e052600435610184810135610200526101a4810135610220526101c4013561024052805460a081901c60ff161562000bb55760ff60a01b1916815561012051511562000b705761016051511562000b2b5761014051511562000ae65761018051511562000aa1576101a05162000444919062000405906001600160a01b031662000df0565b600154610120516101405160405163e8a0aed360e01b81529593949360209387936001600160a01b03909116928492879284928a916004850162000db9565b03925af191821562000a21576200049b93829362000a7a575b50600154610160516101805160405163e8a0aed360e01b81529660209488946001600160a01b03169385938893859390929091906004850162000db9565b03925af192831562000a2157819362000a42575b50604051620004be8162000bfa565b606081528160208201528160408201528160608201528160808201528160a08201528160c08201528160e0820152816101008201526060610120820152816101408201528161016082015281610180820152816101a0820152816101c082015260805181526001600160401b036020608001511660208201526040608001516040820152606060800151606082015260808001511515608082015260018060a01b03610120608001511660e082015260018060a01b03610140608001511661010082015261016060800151610120820152610180608001516101408201526101a0608001516101608201526101c06080015161018082015260018060a01b03831660a082015260018060a01b03841660c082015260018060a01b03600254166101a082015260018060a01b038254166101c082015260405190816130b68101106001600160401b036130b68401111762000a2e5781906130b662000e6e833960206130b6830152620006e96200064b82516101e060206130b6870101526102006130b68601019062000d77565b60208301516001600160401b031660406130b6860181810192909252840151606080830191909152840151608080830191909152840151151560a0808301919091528401516001600160a01b0390811660c080840191909152850151811660e0808401919091528501518116610100808401919091528501511661012080830191909152840151818303601f19016101409092019190915262000d77565b906101408101516101606130b6850101526101608101516101806130b6850101526101808101516101a06130b68501015260018060a01b036101a0820151166101c06130b6850101526101c060018060a01b03910151166101e06130b684010152039082f0801562000a21576001600160a01b03908116929081163b156200096f57604051634c1d96ab60e11b80825260048201859052908381602481836001600160a01b0388165af180156200099a5762000a0b575b506001600160a01b0382163b156200097e57604051637a231bdd60e11b80825260048201869052908481602481836001600160a01b0389165af18015620009c157908591620009f3575b50506001600160a01b0383163b15620009a5576040516339e6401560e11b8082526004820187905292908581602481836001600160a01b038a165af18015620009e857908691620009d0575b50506001600160a01b0387163b15620009cc57604051908152600481018690528481602481836001600160a01b038c165af18015620009c157908591620009a9575b50506001600160a01b0386163b15620009a557604051908152600481018590528381602481836001600160a01b038b165af180156200099a5790849162000982575b50506001600160a01b0385163b156200097e57604051908152600481018490528281602481836001600160a01b038a165af18015620009735762000957575b506020936040519160018060a01b0316825260018060a01b031684820152827fd007d1b8d04c15a0cadef913ed5a5c4b381d3dcd2927c2de9a6dcc1ddab2d2f860403393a3805460ff60a01b1916600160a01b179055604051908152f35b62000963839162000c2d565b6200096f5738620008f9565b5080fd5b6040513d85823e3d90fd5b8280fd5b6200098d9062000c2d565b6200097e578238620008ba565b6040513d86823e3d90fd5b8380fd5b620009b49062000c2d565b620009a557833862000878565b6040513d87823e3d90fd5b8480fd5b620009db9062000c2d565b620009cc57843862000836565b6040513d88823e3d90fd5b620009fe9062000c2d565b620009a5578338620007ea565b62000a199093919362000c2d565b9138620007a0565b50604051903d90823e3d90fd5b634e487b7160e01b83526041600452602483fd5b62000a6a91935060203d60201162000a72575b62000a61818362000c41565b81019062000d56565b9138620004af565b503d62000a55565b602091935062000a9990823d841162000a725762000a61818362000c41565b92906200045d565b60405162461bcd60e51b815260206004820152601e60248201527f4d697373696e672073686f72742073796e7468657469632073796d626f6c00006044820152606490fd5b60405162461bcd60e51b815260206004820152601d60248201527f4d697373696e67206c6f6e672073796e7468657469632073796d626f6c0000006044820152606490fd5b60405162461bcd60e51b815260206004820152601c60248201527f4d697373696e672073686f72742073796e746865746963206e616d65000000006044820152606490fd5b60405162461bcd60e51b815260206004820152601b60248201527f4d697373696e67206c6f6e672073796e746865746963206e616d6500000000006044820152606490fd5b60405162461bcd60e51b815260206004820152601f60248201527f5265656e7472616e637947756172643a207265656e7472616e742063616c6c006044820152606490fd5b6101e081019081106001600160401b0382111762000c1757604052565b634e487b7160e01b600052604160045260246000fd5b6001600160401b03811162000c1757604052565b90601f801991011681019081106001600160401b0382111762000c1757604052565b9291926001600160401b03821162000c17576040519162000c8f601f8201601f19166020018462000c41565b82948184528183011162000cad578281602093846000960137010152565b600080fd5b9080601f8301121562000cad5781602062000cd09335910162000c63565b90565b6000546001600160a01b0316801562000d51576020600491604051928380926329cb924d60e01b82525afa90811562000d455760009162000d12575090565b906020823d821162000d3c575b8162000d2e6020938362000c41565b810103126200009057505190565b3d915062000d1f565b6040513d6000823e3d90fd5b504290565b9081602091031262000cad57516001600160a01b038116810362000cad5790565b919082519283825260005b84811062000da4575050826000602080949584010152601f8019910116010190565b60208183018101518483018201520162000d82565b9162000de960ff9162000dda60409497969760608752606087019062000d77565b90858203602087015262000d77565b9416910152565b60405163313ce56760e01b815290602090829060049082906001600160a01b03165afa809160009162000e2b575b509062000cd05750601290565b6020813d821162000e64575b8162000e466020938362000c41565b810103126200096f57519060ff821682036200009057503862000e1e565b3d915062000e3756fe608080604052346200078f57620030b6803803809162000020828562000df5565b83398101906020818303126200078f578051906001600160401b0382116200078f576101e090818382018503126200078f576040519182016001600160401b03811183821017620008bf57604052808301516001600160401b0381116200078f578382010184601f820112156200078f5784816020620000a39351910162000e5a565b8252808301602001516001600160401b03811681036200078f5760208301528083016040818101519084015260608082015190840152620000e79060800162000e98565b6080830152620000fc60a08483010162000ea6565b60a08301526200011160c08483010162000ea6565b60c083015280830160e001516001600160a01b03811681036200078f5760e08301526101008184018101519091906001600160a01b03811681036200078f578284015261012084820181015190956001600160401b0382116200078f576200017d918684010162000ebb565b858401526101408482018181015182860152610160808201519086015261018080820151908601526101a00151909490916001600160a01b03831683036200078f57620001d990836101a08701526101c0928391010162000ea6565b908401819052600080546001600160a81b0319166001600160a01b0392831617600160a01b179055600a80546001600160a01b0319169183169190911790558251511562000db05760208301516001600160401b03166200023962000ff8565b101562000d6b5760408301511562000d26576040516302abf57960e61b81527f4964656e74696669657257686974656c6973740000000000000000000000000060048201526020816024816001600160a01b0386165afa9081156200079d5760009162000ce4575b50602060608501516024604051809481936390978d1b60e01b8352600483015260018060a01b03165afa9081156200079d5760009162000ca2575b501562000c5d576001600160a01b03620002f5620010fa565b161562000c2757828201516001600160a01b03161562000be2576040516302abf57960e61b81527f436f6c6c61746572616c57686974656c69737400000000000000000000000000600482015290602090829060249082906001600160a01b03165afa9081156200079d5760009162000ba0575b5060e0830151604051631d1d5b3960e11b81526001600160a01b0391821660048201529160209183916024918391165afa9081156200079d5760009162000b5e575b501562000b19576101608201511562000ad45763bb744800610160830151101562000a8f5781518051906001600160401b038211620008bf578190620003f360025462000edb565b601f811162000a4d575b50602090601f8311600114620009cf57600092620009c3575b50508160011b916000199060031b1c1916176002555b602082015160008054604085015160035560608501516005556080850151600160b01b600160f81b031990911660b89390931b600160b81b600160f81b03169290921791151560b01b60ff60b01b1691909117905560a0820151600880546001600160a01b03199081166001600160a01b039384161790915560c084015160098054831691841691909117905560e084015160078054831691841691909117905591830151600b80549093169116179055620004e7620010fa565b9281015180519093906001600160401b038111620008bf576200050c600c5462000edb565b601f811162000964575b50602094601f8211600114620008f757948192939495600092620008eb575b50508160011b916000199060031b1c191617600c555b60005460b01c60ff1615620008d5576200056462000f31565b604080519081018082116001600160401b0390911117620008bf57806040620005ae9201604052600f81526e32b0b9363ca2bc3834b930ba34b7b760891b60208201528262001072565b906000600180805b620008a5575080620005c88362000e19565b92620005d8604051948562000df5565b808452601f19620005e98262000e19565b01366020860137905b620007f75750509162000659602060009360649695604051948262000621879451809287808801910162000e35565b8301620006378251809387808501910162000e35565b016200064c8251809386808501910162000e35565b0103808452018262000df5565b915b6040519384809263af5d2f3960e01b8252604060048301526200068e865180978160448601526020868601910162000e35565b3060248301526001600160a01b031694601f01601f19168101030181845afa9182156200079d57600092620007a9575b50602060049251916040519384809263c371dda760e01b82525afa9182156200079d576000926200075e575b5011620007195761018091810151600d55610160810151600e550151600f55604051611f069081620011908239f35b60405162461bcd60e51b815260206004820152601760248201527f416e63696c6c617279204461746120746f6f206c6f6e670000000000000000006044820152606490fd5b9091506020813d60201162000794575b816200077d6020938362000df5565b810103126200078f57519038620006ea565b600080fd5b3d91506200076e565b6040513d6000823e3d90fd5b91503d806000843e620007bd818462000df5565b8201916020818403126200078f578051906001600160401b0382116200078f57600493602092620007ef920162000ebb565b9250620006be565b600019908181018181116200088f578093600a8104809404600a11841515166200088f57600a840281039081116200088f5760ff166030019060ff82116200088f5785511115620008795760f81b7fff000000000000000000000000000000000000000000000000000000000000001660001a908401601f01539081620005f2565b634e487b7160e01b600052603260045260246000fd5b634e487b7160e01b600052601160045260246000fd5b9160001981146200088f576001600a9101920480620005b6565b634e487b7160e01b600052604160045260246000fd5b6064906000620008e462000f31565b916200065b565b01519050388062000535565b601f19821695600c60005260206000209160005b8881106200094b5750836001959697981062000931575b505050811b01600c556200054b565b015160001960f88460031b161c1916905538808062000922565b919260206001819286850151815501940192016200090b565b600c600052620009b1907fdf6966c971051c3d54ec59162606531493a51404a002842f56009d7e5cf4a8c7601f840160051c81019160208510620009b8575b601f0160051c019062000f18565b3862000516565b9091508190620009a3565b01519050388062000416565b6002600090815293506000805160206200309683398151915291905b601f198416851062000a31576001945083601f1981161062000a17575b505050811b016002556200042c565b015160001960f88460031b161c1916905538808062000a08565b81810151835560209485019460019093019290910190620009eb565b600260005262000a889060008051602062003096833981519152601f850160051c81019160208610620009b857601f0160051c019062000f18565b38620003fd565b60405162461bcd60e51b815260206004820152601560248201527f4f4f206c6976656e65737320746f6f206c6172676500000000000000000000006044820152606490fd5b60405162461bcd60e51b815260206004820152601760248201527f4f4f206c6976656e6573732063616e6e6f7420626520300000000000000000006044820152606490fd5b60405162461bcd60e51b815260206004820152601a60248201527f436f6c6c61746572616c206e6f742077686974656c69737465640000000000006044820152606490fd5b90506020813d60201162000b97575b8162000b7c6020938362000df5565b810103126200078f5762000b909062000e98565b38620003ab565b3d915062000b6d565b90506020813d60201162000bd9575b8162000bbe6020938362000df5565b810103126200078f5762000bd29062000ea6565b3862000369565b3d915062000baf565b60405162461bcd60e51b815260206004820152601f60248201527f496e76616c69642046696e616e6369616c50726f647563744c696272617279006044820152606490fd5b60405162461bcd60e51b815260206004820152600e60248201526d24b73b30b634b2103334b73232b960911b6044820152606490fd5b60405162461bcd60e51b815260206004820152601960248201527f4964656e746966696572206e6f742072656769737465726564000000000000006044820152606490fd5b90506020813d60201162000cdb575b8162000cc06020938362000df5565b810103126200078f5762000cd49062000e98565b38620002dc565b3d915062000cb1565b90506020813d60201162000d1d575b8162000d026020938362000df5565b810103126200078f5762000d169062000ea6565b38620002a1565b3d915062000cf3565b60405162461bcd60e51b815260206004820152601f60248201527f436f6c6c61746572616c2070657220706169722063616e6e6f742062652030006044820152606490fd5b60405162461bcd60e51b815260206004820152601c60248201527f45787069726174696f6e2074696d657374616d7020696e2070617374000000006044820152606490fd5b60405162461bcd60e51b815260206004820152601760248201527f50616972206e616d652063616e7420626520656d7074790000000000000000006044820152606490fd5b601f909101601f19168101906001600160401b03821190821017620008bf57604052565b6001600160401b038111620008bf57601f01601f191660200190565b60005b83811062000e495750506000910152565b818101518382015260200162000e38565b9092919262000e698162000e19565b9162000e79604051938462000df5565b8294828452828201116200078f57602062000e9693019062000e35565b565b519081151582036200078f57565b51906001600160a01b03821682036200078f57565b9080601f830112156200078f57815162000ed89260200162000e5a565b90565b90600182811c9216801562000f0d575b602083101462000ef757565b634e487b7160e01b600052602260045260246000fd5b91607f169162000eeb565b81811062000f24575050565b6000815560010162000f18565b60405190600082600c549162000f478362000edb565b80835260019380851690811562000fd5575060011462000f71575b5062000e969250038362000df5565b600c60009081527fdf6966c971051c3d54ec59162606531493a51404a002842f56009d7e5cf4a8c794602093509091905b81831062000fbc57505062000e9693508201013862000f62565b8554888401850152948501948794509183019162000fa2565b905062000e9694506020925060ff191682840152151560051b8201013862000f62565b6000546001600160a01b031680156200106d576020600491604051928380926329cb924d60e01b82525afa9081156200079d5760009162001037575090565b906020823d821162001064575b81620010536020938362000df5565b810103126200106157505190565b80fd5b3d915062001044565b504290565b5115620010bf5762000ed860226040518093600b60fa1b6020830152620010a481518092602060218601910162000e35565b8101601d60f91b602182015203600281018452018262000df5565b62000ed8602160405183620010df82955180926020808601910162000e35565b8101601d60f91b602082015203600181018452018262000df5565b600a546040516302abf57960e61b81527127b83a34b6b4b9ba34b1a7b930b1b632ab1960711b60048201526001600160a01b03916020908290602490829086165afa9081156200079d576000916200115157501690565b906020823d821162001186575b816200116d6020938362000df5565b81010312620010615750620011829062000ea6565b1690565b3d91506200115e56fe608060408181526004918236101561001657600080fd5b600092833560e01c9182631c39c38d146112465750816322f8e566146111b857816329cb924d1461119457816340794c3b146110c15781634eef4a7314610fb55781634fe4ecbf14610f9657816358aee81514610f7157816374d3aa7e14610f52578163780900dc14610dad57816379599f9614610cc75781638150fd3d14610be157816383f8928614610bac57816385c9847414610b8d57816390392ae314610b685781639375f0e914610b3f5781639752366114610b205781639a9c29f6146106655781639da49b1a1461063d5781639f43ddd214610614578163a9ae29df146105f6578163b2016bd4146105cd578163b66333cd146105a4578163b9a3c84c1461057b578163c1e7d9b714610555578163cd4670f214610398578163d564fddd14610379578163db006a75146101d657508063e3065da7146101ae578063e964ae02146101905763edfa9a9b1461016f57600080fd5b3461018c578160031936011261018c576020906006549051908152f35b5080fd5b503461018c578160031936011261018c576020906003549051908152f35b503461018c578160031936011261018c5760095490516001600160a01b039091168152602090f35b90508234610376576020918260031936011261018c5780356101f661177a565b6000805460ff60a01b19908116909155600854865163079cc67960e41b808252338683019081526020810186905293956001600160a01b03949193909291899183918290036040019082908b9089165af190811561036c57879161034f575b501561034b57600954885192835233918301918252602082018590528791839185169082908990829060400103925af1908115610341578591610314575b501561031057856102c76102d7959697516102ad816112a4565b848152600354908351916102c0836112a4565b8252611817565b51948580933390600754166117cf565b51947fd171fb179b26c49e23fe46eddd44d3048a1ad277b62144ac0725fbcf1dbf6d52339187a4600160a01b9060005416176000558152f35b8380fd5b6103349150863d881161033a575b61032c81836112f0565b8101906114c4565b87610293565b503d610322565b87513d87823e3d90fd5b8580fd5b6103669150883d8a1161033a5761032c81836112f0565b89610255565b89513d89823e3d90fd5b80fd5b50503461018c578160031936011261018c57602090600d549051908152f35b9050346105515760203660031901126105515780356001600160401b039182821680920361054d576103c861177a565b60ff8060a01b199384600054166000556103e96103e3611a8a565b1561184e565b6104026103f46113fd565b8854928360b81c1611611478565b60b01c161561050a576104136113fd565b82116104c75781156104845750610448600154826001600160401b0319821617600155828661044061189a565b921617611b4e565b82519081527fe8f97c669cce9e6c955d0f1401760518c4d53fa550bcd00b4c21d16b7d91652560203392a2600160a01b90600054161760005551f35b606490602085519162461bcd60e51b8352820152601b60248201527f4561726c792065787069726174696f6e2063616e2774206265203000000000006044820152fd5b606490602085519162461bcd60e51b8352820152601f60248201527f4f6e6c792070726f706f73652065787069726520696e207468652070617374006044820152fd5b606490602085519162461bcd60e51b8352820152601960248201527f4561726c792065787069726174696f6e2064697361626c6564000000000000006044820152fd5b8480fd5b8280fd5b50503461018c578160031936011261018c57602090610572611a8a565b90519015158152f35b50503461018c578160031936011261018c57600a5490516001600160a01b039091168152602090f35b50503461018c578160031936011261018c5760085490516001600160a01b039091168152602090f35b50503461018c578160031936011261018c5760075490516001600160a01b039091168152602090f35b90503461055157826003193601126105515760209250549051908152f35b50503461018c578160031936011261018c576001600160401b036020925460b81c169051908152f35b50503461018c578160031936011261018c576020906001600160401b03600154169051908152f35b83833461018c578060031936011261018c5760248335813561068561177a565b60ff60a01b19928360005416600055855460ff8160b01c1680610b04575b8015610ae7575b15610ab55760ff8160a81c16156108d9575b50600854855163079cc67960e41b808252338a830190815260208082018890529a6001600160a01b0395949093918c9183918290036040019082908e908a165af19081156108cf578a916108b2575b50156108ae57600954885191825233838301908152602081018790528b9183918290036040019082908d9089165af19081156108a4578991610887575b50156108835761080c87519861075d8a6112a4565b868a526107ff61077e6003549b8b5190610776826112a4565b8d8252611817565b6107b761079b8654928d5190610793826112a4565b848252611817565b519c8c516107a8816112a4565b8a81528d51916102c0836112a4565b92808c516107c4816112a4565b528b51906107d1826112a4565b670de0b6b3a764000082528c51926107e8846112a4565b83528c516107f5816112a4565b5251905190611841565b908951916102c0836112a4565b51880180981161087057505085610828913390600754166117cf565b83519185835286830152838201527fe8fdc264e5a5640d893f125384c4e2c5afe2d9a04aef1129e643caaa72771cff60603392a2600160a01b90600054161760005551908152f35b601190634e487b7160e01b600052526000fd5b8780fd5b61089e91508a3d8c1161033a5761032c81836112f0565b8a610748565b88513d8b823e3d90fd5b8880fd5b6108c991508b3d8d1161033a5761032c81836112f0565b8b61070b565b89513d8c823e3d90fd5b6001600160a01b03806108ea611e43565b16916005548851938491635e2c665560e11b8352308d840152868301526001600160401b03809360b81c166044830152608060648301526020948591818061093460848201611359565b03915afa9081156108cf578a91610a98575b5015610a335761097290895460b81c1688519061096d8261096681611359565b03836112f0565b611abb565b6006555b600b541681600654848b8a519485938492632da5236160e01b84528301525afa918215610a295788926109f6575b50508686516109b2816112a4565b5285516109be816112a4565b670de0b6b3a76400008091528082106000146109ef57505b8755855460ff60a81b1916600160a81b178655876106bc565b90506109d6565b90809250813d8311610a22575b610a0d81836112f0565b81010312610a1d575188806109a4565b600080fd5b503d610a03565b87513d8a823e3d90fd5b610a499060015416610a4361189a565b90611abb565b6006819055600160ff1b03610976576064898385818b519362461bcd60e51b85528401528201527f4f7261636c652070726576656e7473206561726c792065787069726174696f6e6044820152fd5b610aaf9150843d861161033a5761032c81836112f0565b8b610946565b855162461bcd60e51b81526020818a0152600d818401526c43616e6e6f7420736574746c6560981b6044820152606490fd5b50610af06113fd565b6001600160401b038260b81c1611156106aa565b50610b0d6113fd565b6001600160401b038260b81c16116106a3565b50503461018c578160031936011261018c576020906005549051908152f35b50503461018c578160031936011261018c57600b5490516001600160a01b039091168152602090f35b50503461018c578160031936011261018c5760ff6020925460a81c1690519015158152f35b50503461018c578160031936011261018c57602090600f549051908152f35b50503461018c578160031936011261018c57610bdd90610bca61189a565b9051918291602083526020830190611334565b0390f35b828434610376578060031936011261037657508051600091600c54610c058161126a565b80845290600190818116908115610c9f5750600114610c42575b5050610c3082610bdd9403836112f0565b51918291602083526020830190611334565b600c600090815294507fdf6966c971051c3d54ec59162606531493a51404a002842f56009d7e5cf4a8c75b828610610c875750505091810160200191610c3082610c1f565b80546020878701810191909152909501948101610c6d565b610bdd96508592506020915092610c309360ff191682840152151560051b8201019450610c1f565b91905034610551578260031936011261055157610ce261177a565b60ff60a01b19918260005416600055610cfc6103e3611a8a565b610d046113fd565b906001600160401b03855460b81c16809210610d6a57508151610d3391610d2e8261096681611359565b611b4e565b5190337f18600820405d6cf356e3556301762ca32395e72d8c81494fa344835c9da3633d8484a2600160a01b906000541617600055f35b606490602084519162461bcd60e51b8352820152601960248201527f4f6e6c792063616c6c61626c6520706f73742d657870697279000000000000006044820152fd5b8391503461018c5760209283600319360112610551578135610de4610dd06113fd565b6001600160401b03865460b81c1611611478565b610dec61177a565b60ff60a01b19918260005416600055610e238151610e09816112a4565b83815260035490835191610e1c836112a4565b82526116f7565b5160075490946001600160a01b0391610e439087903090339086166114dc565b60085483516340c10f1960e01b80825233848301908152602081018890529094928b91839185169082908d90829060400103925af1908115610f48578991610f2b575b5015610883576009548451938452339284019283526020830186905289928492908390036040019183918b91165af1908115610f21578691610f04575b501561054d57839051947f2b42f4b25222a5d447ca19dfca2afd1b8d32adfed550f7b87bf9569f6da70c00339187a4600160a01b9060005416176000558152f35b610f1b9150873d891161033a5761032c81836112f0565b87610ec3565b82513d88823e3d90fd5b610f4291508a3d8c1161033a5761032c81836112f0565b8a610e86565b85513d8b823e3d90fd5b50503461018c578160031936011261018c5751600160ff1b8152602090f35b50503461018c578160031936011261018c5760ff6020925460b01c1690519015158152f35b50503461018c578160031936011261018c57602090600e549051908152f35b905082346103765760208060031936011261018c576001600160a01b03928035848116919082900361031057610fe961177a565b846008541686519584876024816370a0823160e01b9586825288888301525afa9687156110b7578697611082575b50849291602491600954168951958694859384528301525afa9283156110775792611048575b508351928352820152f35b9080925081813d8311611070575b61106081836112f0565b81010312610a1d5751908461103d565b503d611056565b8551903d90823e3d90fd5b9096508481819493943d83116110b0575b61109d81836112f0565b81010312610a1d57519590919084611017565b503d611093565b88513d88823e3d90fd5b50503461018c578160031936011261018c57805190826002546110e38161126a565b8085529160019180831690811561116c575060011461110f575b505050610c3082610bdd9403836112f0565b9450600285527f405787fa12a823e0f2b7631cc41b3ba8828b3321ca811111fa75cd3aa3bb5ace5b82861061115457505050610c30826020610bdd95820101946110fd565b80546020878701810191909152909501948101611137565b610bdd975086935060209250610c3094915060ff191682840152151560051b820101946110fd565b50503461018c578160031936011261018c576020906111b16113fd565b9051908152f35b8391503461018c57602036600319011261018c5781546001600160a01b0316801561055157803b156105515790828092602486518095819363117c72b360e11b83528635878401525af1801561123c5761121157828451f35b6001600160401b038211611229575082528280828451f35b634e487b7160e01b835260419052602482fd5b84513d85823e3d90fd5b84903461018c578160031936011261018c5790546001600160a01b03168152602090f35b90600182811c9216801561129a575b602083101461128457565b634e487b7160e01b600052602260045260246000fd5b91607f1691611279565b602081019081106001600160401b038211176112bf57604052565b634e487b7160e01b600052604160045260246000fd5b604081019081106001600160401b038211176112bf57604052565b90601f801991011681019081106001600160401b038211176112bf57604052565b60005b8381106113245750506000910152565b8181015183820152602001611314565b9060209161134d81518092818552858086019101611311565b601f01601f1916010190565b600c54600092916113698261126a565b808252916001908181169081156113e0575060011461138757505050565b91929350600c6000527fdf6966c971051c3d54ec59162606531493a51404a002842f56009d7e5cf4a8c7916000925b8484106113c857505060209250010190565b805460208585018101919091529093019281016113b6565b915050602093945060ff929192191683830152151560051b010190565b6000546001600160a01b03168015611473576020600491604051928380926329cb924d60e01b82525afa90811561146757600091611439575090565b906020823d821161145f575b81611452602093836112f0565b8101031261037657505190565b3d9150611445565b6040513d6000823e3d90fd5b504290565b1561147f57565b60405162461bcd60e51b815260206004820152601860248201527f4f6e6c792063616c6c61626c65207072652d65787069727900000000000000006044820152606490fd5b90816020910312610a1d57518015158103610a1d5790565b6040516323b872dd60e01b60208201526001600160a01b03928316602482015292909116604483015260648083019390935291815260a08101918183106001600160401b038411176112bf5761153492604052611551565b565b6001600160401b0381116112bf57601f01601f191660200190565b6040516115ce916001600160a01b031661156a826112d5565b6000806020958685527f5361666545524332303a206c6f772d6c6576656c2063616c6c206661696c656487860152868151910182855af13d15611656573d916115b283611536565b926115c060405194856112f0565b83523d60008785013e61165a565b80519082821592831561163e575b505050156115e75750565b6084906040519062461bcd60e51b82526004820152602a60248201527f5361666545524332303a204552433230206f7065726174696f6e20646964206e6044820152691bdd081cdd58d8d9595960b21b6064820152fd5b61164e93508201810191016114c4565b3882816115dc565b6060915b919290156116bc575081511561166e575090565b3b156116775790565b60405162461bcd60e51b815260206004820152601d60248201527f416464726573733a2063616c6c20746f206e6f6e2d636f6e74726163740000006044820152606490fd5b8251909150156116cf5750805190602001fd5b60405162461bcd60e51b8152602060048201529081906116f3906024830190611334565b0390fd5b9061171491600060405161170a816112a4565b5251905190611767565b670de0b6b3a764000080820491061561175a5760018101809111611744576040519061173f826112a4565b815290565b634e487b7160e01b600052601160045260246000fd5b6040519061173f826112a4565b8060001904821181151516611744570290565b60ff60005460a01c161561178a57565b60405162461bcd60e51b815260206004820152601f60248201527f5265656e7472616e637947756172643a207265656e7472616e742063616c6c006044820152606490fd5b60405163a9059cbb60e01b60208201526001600160a01b03909216602483015260448201929092526115349161181282606481015b03601f1981018452836112f0565b611551565b670de0b6b3a76400009161183391600060405161170a816112a4565b046040519061173f826112a4565b9190820391821161174457565b1561185557565b60405162461bcd60e51b815260206004820152601e60248201527f436f6e747261637420616c7265616479206561726c79206578706972656400006044820152606490fd5b604051906118ab8261096681611359565b6040516118b7816112d5565b600f81526118de6020916e32b0b9363ca2bc3834b930ba34b7b760891b8382015284611a0b565b90600193848080916000925b6119f25750506118f981611536565b61190660405191826112f0565b8181528661191383611536565b8286019390601f1901368537905b61197957506119769495965061196a6040519684611948899651809289808a019101611311565b850161195c82518093898085019101611311565b019151809386840190611311565b010380845201826112f0565b90565b60001990808201908111611744578098600a808204809404811184151516611744576119ab60ff928392860290611841565b166030019081116117445783518210156119dc5760f81b6001600160f81b03191660001a9083018601539687611921565b634e487b7160e01b600052603260045260246000fd5b909160001981146117445781600a9101920490816118ea565b5115611a535761197660226040518093600b60fa1b6020830152611a39815180926020602186019101611311565b8101601d60f91b60218201520360028101845201826112f0565b611976602160405183611a70829551809260208086019101611311565b8101601d60f91b60208201520360018101845201826112f0565b6001600160401b03600154168015159081611aa3575090565b600160ff1b9150611ab690610a4361189a565b141590565b6020906001600160401b03906001600160a01b03611ad7611e43565b16906000600554611b11604051978896879586946353b5923960e01b86526004860152166024840152606060448401526064830190611334565b03925af190811561146757600091611439575090565b949392606092611b499287526020870152608060408701526080860190611334565b930152565b611b56611e43565b90600d5460009080611cf4575b5060018060a01b0380931693600554946001600160401b03809416946007541693600d549660409586519889926311df92f160e01b8452600484015288602484015260a06044840152611bb960a4840187611334565b9160648401526084830152816020998a92038188875af18015611cc157908891611ccb575b5050600554600e54833b1561034b5787859392611c1088938a51968794859463239e22ff60e11b865260048601611b27565b038183875af18015611cc157908894939291611c94575b50506005549584600f5497611c518851998a96879586946356ad3aad60e11b865260048601611b27565b03925af1918215611c8a575050611c66575050565b813d8311611c83575b611c7981836112f0565b81010312610a1d57565b503d611c6f565b51903d90823e3d90fd5b9080929593945011611cad578452918591903880611c27565b634e487b7160e01b82526041600452602482fd5b86513d87823e3d90fd5b813d8311611ced575b611cde81836112f0565b81010312610310578638611bde565b503d611cd4565b6007546001600160a01b0391611d0f913090339085166114dc565b806007541690841690600d549081158015611dce575b15611d6a5760405163095ea7b360e01b60208201526001600160a01b0390931660248401526044830191909152611d6491906118128260648101611804565b38611b63565b60405162461bcd60e51b815260206004820152603660248201527f5361666545524332303a20617070726f76652066726f6d206e6f6e2d7a65726f60448201527520746f206e6f6e2d7a65726f20616c6c6f77616e636560501b6064820152608490fd5b50604051636eb1769f60e11b815230600482015260248101849052602081604481855afa908115611e38578591611e07575b5015611d25565b90506020813d8211611e30575b81611e21602093836112f0565b8101031261054d575138611e00565b3d9150611e14565b6040513d87823e3d90fd5b600a546040516302abf57960e61b81527127b83a34b6b4b9ba34b1a7b930b1b632ab1960711b60048201526001600160a01b03916020908290602490829086165afa90811561146757600091611e9857501690565b6020813d8211611ec8575b81611eb0602093836112f0565b8101031261018c575190828216820361037657501690565b3d9150611ea356fea264697066735822122091d7830c209d73caa51e306620b894030c618a5f958c215cae94591e6a2436b364736f6c63430008100033405787fa12a823e0f2b7631cc41b3ba8828b3321ca811111fa75cd3aa3bb5acea26469706673582212203c0e1299835a87a003873e686c72af40407cb42a76a0605ed79fb3bbda1b3c3b64736f6c63430008100033",
  "devdoc": {
    "kind": "dev",
    "methods": {
      "constructor": {
        "params": {
          "_finder": "UMA protocol Finder used to discover other protocol contracts.",
          "_timer": "Contract that stores the current time in a testing environment.",
          "_tokenFactory": "ERC20 token factory used to deploy synthetic token instances."
        }
      },
      "createLongShortPair((string,uint64,uint256,bytes32,bool,string,string,string,string,address,address,bytes,uint256,uint256,uint256))": {
        "params": {
          "params": "Constructor params used to initialize the LSP. Key-valued object with the following structure:     - `pairName`: Name of the long short pair contract.     - `expirationTimestamp`: Unix timestamp of when the contract will expire.     - `collateralPerPair`: How many units of collateral are required to mint one pair of synthetic tokens.     - `priceIdentifier`: Registered in the DVM for the synthetic.     - `enableEarlyExpiration`: Enables the LSP contract to be settled early.     - `longSynthName`: Name of the long synthetic tokens to be created.     - `longSynthSymbol`: Symbol of the long synthetic tokens to be created.     - `shortSynthName`: Name of the short synthetic tokens to be created.     - `shortSynthSymbol`: Symbol of the short synthetic tokens to be created.     - `collateralToken`: ERC20 token used as collateral in the LSP.     - `financialProductLibrary`: Contract providing settlement payout logic.     - `customAncillaryData`: Custom ancillary data to be passed along with the price request. If not needed, this                              should be left as a 0-length bytes array.     - `proposerReward`: Optimistic oracle reward amount, pulled from the caller of the expire function.     - `optimisticOracleLivenessTime`: Optimistic oracle liveness time for price requests.     - `optimisticOracleProposerBond`: Optimistic oracle proposer bond for price requests."
        },
        "returns": {
          "_0": "lspAddress the deployed address of the new long short pair contract."
        }
      },
      "getCurrentTime()": {
        "returns": {
          "_0": "uint for the current Testable timestamp."
        }
      },
      "setCurrentTime(uint256)": {
        "details": "Will revert if not running in test mode.",
        "params": {
          "time": "timestamp to set current Testable time to."
        }
      }
    },
    "title": "Long Short Pair Contract Creator.",
    "version": 1
  },
  "userdoc": {
    "kind": "user",
    "methods": {
      "constructor": {
        "notice": "Constructs the LongShortPairCreator contract."
      },
      "createLongShortPair((string,uint64,uint256,bytes32,bool,string,string,string,string,address,address,bytes,uint256,uint256,uint256))": {
        "notice": "Creates a longShortPair contract and associated long and short tokens.Created LSP is not registered within the registry as the LSP uses the Optimistic Oracle for settlement.The LSP constructor does a number of validations on input params. These are not repeated here."
      },
      "getCurrentTime()": {
        "notice": "Gets the current time. Will return the last time set in `setCurrentTime` if running in test mode. Otherwise, it will return the block timestamp."
      },
      "setCurrentTime(uint256)": {
        "notice": "Sets the current time."
      }
    },
    "notice": "Factory contract to create new instances of long short pair contracts. Responsible for constraining the parameters used to construct a new LSP. These constraints can evolve over time and are initially constrained to conservative values in this first iteration.",
    "version": 1
  },
  "storageLayout": {
    "storage": [
      {
        "astId": 17751,
        "contract": "contracts/financial-templates/long-short-pair/LongShortPairCreator.sol:LongShortPairCreator",
        "label": "timerAddress",
        "offset": 0,
        "slot": "0",
        "type": "t_address"
      },
      {
        "astId": 16304,
        "contract": "contracts/financial-templates/long-short-pair/LongShortPairCreator.sol:LongShortPairCreator",
        "label": "_notEntered",
        "offset": 20,
        "slot": "0",
        "type": "t_bool"
      },
      {
        "astId": 50054,
        "contract": "contracts/financial-templates/long-short-pair/LongShortPairCreator.sol:LongShortPairCreator",
        "label": "tokenFactory",
        "offset": 0,
        "slot": "1",
        "type": "t_contract(TokenFactory)42660"
      },
      {
        "astId": 50057,
        "contract": "contracts/financial-templates/long-short-pair/LongShortPairCreator.sol:LongShortPairCreator",
        "label": "finder",
        "offset": 0,
        "slot": "2",
        "type": "t_contract(FinderInterface)36753"
      }
    ],
    "types": {
      "t_address": {
        "encoding": "inplace",
        "label": "address",
        "numberOfBytes": "20"
      },
      "t_bool": {
        "encoding": "inplace",
        "label": "bool",
        "numberOfBytes": "1"
      },
      "t_contract(FinderInterface)36753": {
        "encoding": "inplace",
        "label": "contract FinderInterface",
        "numberOfBytes": "20"
      },
      "t_contract(TokenFactory)42660": {
        "encoding": "inplace",
        "label": "contract TokenFactory",
        "numberOfBytes": "20"
      }
    }
  }
}