{
  "address": "0x69E4B55c0c27473aD28099424EE2783A79397E0c",
  "abi": [
    {
      "inputs": [
        {
          "internalType": "uint256",
          "name": "_liveness",
          "type": "uint256"
        },
        {
          "internalType": "address",
          "name": "_finderAddress",
          "type": "address"
        },
        {
          "internalType": "address",
          "name": "_timerAddress",
          "type": "address"
        }
      ],
      "stateMutability": "nonpayable",
      "type": "constructor"
    },
    {
      "anonymous": false,
      "inputs": [
        {
          "indexed": true,
          "internalType": "address",
          "name": "requester",
          "type": "address"
        },
        {
          "indexed": true,
          "internalType": "address",
          "name": "proposer",
          "type": "address"
        },
        {
          "indexed": true,
          "internalType": "address",
          "name": "disputer",
          "type": "address"
        },
        {
          "indexed": false,
          "internalType": "bytes32",
          "name": "identifier",
          "type": "bytes32"
        },
        {
          "indexed": false,
          "internalType": "uint256",
          "name": "timestamp",
          "type": "uint256"
        },
        {
          "indexed": false,
          "internalType": "bytes",
          "name": "ancillaryData",
          "type": "bytes"
        },
        {
          "indexed": false,
          "internalType": "int256",
          "name": "proposedPrice",
          "type": "int256"
        }
      ],
      "name": "DisputePrice",
      "type": "event"
    },
    {
      "anonymous": false,
      "inputs": [
        {
          "indexed": true,
          "internalType": "address",
          "name": "requester",
          "type": "address"
        },
        {
          "indexed": true,
          "internalType": "address",
          "name": "proposer",
          "type": "address"
        },
        {
          "indexed": false,
          "internalType": "bytes32",
          "name": "identifier",
          "type": "bytes32"
        },
        {
          "indexed": false,
          "internalType": "uint256",
          "name": "timestamp",
          "type": "uint256"
        },
        {
          "indexed": false,
          "internalType": "bytes",
          "name": "ancillaryData",
          "type": "bytes"
        },
        {
          "indexed": false,
          "internalType": "int256",
          "name": "proposedPrice",
          "type": "int256"
        },
        {
          "indexed": false,
          "internalType": "uint256",
          "name": "expirationTimestamp",
          "type": "uint256"
        },
        {
          "indexed": false,
          "internalType": "address",
          "name": "currency",
          "type": "address"
        }
      ],
      "name": "ProposePrice",
      "type": "event"
    },
    {
      "anonymous": false,
      "inputs": [
        {
          "indexed": true,
          "internalType": "address",
          "name": "requester",
          "type": "address"
        },
        {
          "indexed": false,
          "internalType": "bytes32",
          "name": "identifier",
          "type": "bytes32"
        },
        {
          "indexed": false,
          "internalType": "uint256",
          "name": "timestamp",
          "type": "uint256"
        },
        {
          "indexed": false,
          "internalType": "bytes",
          "name": "ancillaryData",
          "type": "bytes"
        },
        {
          "indexed": false,
          "internalType": "address",
          "name": "currency",
          "type": "address"
        },
        {
          "indexed": false,
          "internalType": "uint256",
          "name": "reward",
          "type": "uint256"
        },
        {
          "indexed": false,
          "internalType": "uint256",
          "name": "finalFee",
          "type": "uint256"
        }
      ],
      "name": "RequestPrice",
      "type": "event"
    },
    {
      "anonymous": false,
      "inputs": [
        {
          "indexed": true,
          "internalType": "address",
          "name": "requester",
          "type": "address"
        },
        {
          "indexed": true,
          "internalType": "address",
          "name": "proposer",
          "type": "address"
        },
        {
          "indexed": true,
          "internalType": "address",
          "name": "disputer",
          "type": "address"
        },
        {
          "indexed": false,
          "internalType": "bytes32",
          "name": "identifier",
          "type": "bytes32"
        },
        {
          "indexed": false,
          "internalType": "uint256",
          "name": "timestamp",
          "type": "uint256"
        },
        {
          "indexed": false,
          "internalType": "bytes",
          "name": "ancillaryData",
          "type": "bytes"
        },
        {
          "indexed": false,
          "internalType": "int256",
          "name": "price",
          "type": "int256"
        },
        {
          "indexed": false,
          "internalType": "uint256",
          "name": "payout",
          "type": "uint256"
        }
      ],
      "name": "Settle",
      "type": "event"
    },
    {
      "inputs": [],
      "name": "OO_ANCILLARY_DATA_LIMIT",
      "outputs": [
        {
          "internalType": "uint256",
          "name": "",
          "type": "uint256"
        }
      ],
      "stateMutability": "view",
      "type": "function"
    },
    {
      "inputs": [],
      "name": "TOO_EARLY_RESPONSE",
      "outputs": [
        {
          "internalType": "int256",
          "name": "",
          "type": "int256"
        }
      ],
      "stateMutability": "view",
      "type": "function"
    },
    {
      "inputs": [],
      "name": "ancillaryBytesLimit",
      "outputs": [
        {
          "internalType": "uint256",
          "name": "",
          "type": "uint256"
        }
      ],
      "stateMutability": "view",
      "type": "function"
    },
    {
      "inputs": [],
      "name": "defaultLiveness",
      "outputs": [
        {
          "internalType": "uint256",
          "name": "",
          "type": "uint256"
        }
      ],
      "stateMutability": "view",
      "type": "function"
    },
    {
      "inputs": [
        {
          "internalType": "address",
          "name": "requester",
          "type": "address"
        },
        {
          "internalType": "bytes32",
          "name": "identifier",
          "type": "bytes32"
        },
        {
          "internalType": "uint256",
          "name": "timestamp",
          "type": "uint256"
        },
        {
          "internalType": "bytes",
          "name": "ancillaryData",
          "type": "bytes"
        }
      ],
      "name": "disputePrice",
      "outputs": [
        {
          "internalType": "uint256",
          "name": "totalBond",
          "type": "uint256"
        }
      ],
      "stateMutability": "nonpayable",
      "type": "function"
    },
    {
      "inputs": [
        {
          "internalType": "address",
          "name": "disputer",
          "type": "address"
        },
        {
          "internalType": "address",
          "name": "requester",
          "type": "address"
        },
        {
          "internalType": "bytes32",
          "name": "identifier",
          "type": "bytes32"
        },
        {
          "internalType": "uint256",
          "name": "timestamp",
          "type": "uint256"
        },
        {
          "internalType": "bytes",
          "name": "ancillaryData",
          "type": "bytes"
        }
      ],
      "name": "disputePriceFor",
      "outputs": [
        {
          "internalType": "uint256",
          "name": "totalBond",
          "type": "uint256"
        }
      ],
      "stateMutability": "nonpayable",
      "type": "function"
    },
    {
      "inputs": [],
      "name": "finder",
      "outputs": [
        {
          "internalType": "contract FinderInterface",
          "name": "",
          "type": "address"
        }
      ],
      "stateMutability": "view",
      "type": "function"
    },
    {
      "inputs": [],
      "name": "getCurrentTime",
      "outputs": [
        {
          "internalType": "uint256",
          "name": "",
          "type": "uint256"
        }
      ],
      "stateMutability": "view",
      "type": "function"
    },
    {
      "inputs": [
        {
          "internalType": "address",
          "name": "requester",
          "type": "address"
        },
        {
          "internalType": "bytes32",
          "name": "identifier",
          "type": "bytes32"
        },
        {
          "internalType": "uint256",
          "name": "timestamp",
          "type": "uint256"
        },
        {
          "internalType": "bytes",
          "name": "ancillaryData",
          "type": "bytes"
        }
      ],
      "name": "getRequest",
      "outputs": [
        {
          "components": [
            {
              "internalType": "address",
              "name": "proposer",
              "type": "address"
            },
            {
              "internalType": "address",
              "name": "disputer",
              "type": "address"
            },
            {
              "internalType": "contract IERC20",
              "name": "currency",
              "type": "address"
            },
            {
              "internalType": "bool",
              "name": "settled",
              "type": "bool"
            },
            {
              "components": [
                {
                  "internalType": "bool",
                  "name": "eventBased",
                  "type": "bool"
                },
                {
                  "internalType": "bool",
                  "name": "refundOnDispute",
                  "type": "bool"
                },
                {
                  "internalType": "bool",
                  "name": "callbackOnPriceProposed",
                  "type": "bool"
                },
                {
                  "internalType": "bool",
                  "name": "callbackOnPriceDisputed",
                  "type": "bool"
                },
                {
                  "internalType": "bool",
                  "name": "callbackOnPriceSettled",
                  "type": "bool"
                },
                {
                  "internalType": "uint256",
                  "name": "bond",
                  "type": "uint256"
                },
                {
                  "internalType": "uint256",
                  "name": "customLiveness",
                  "type": "uint256"
                }
              ],
              "internalType": "struct OptimisticOracleV2Interface.RequestSettings",
              "name": "requestSettings",
              "type": "tuple"
            },
            {
              "internalType": "int256",
              "name": "proposedPrice",
              "type": "int256"
            },
            {
              "internalType": "int256",
              "name": "resolvedPrice",
              "type": "int256"
            },
            {
              "internalType": "uint256",
              "name": "expirationTime",
              "type": "uint256"
            },
            {
              "internalType": "uint256",
              "name": "reward",
              "type": "uint256"
            },
            {
              "internalType": "uint256",
              "name": "finalFee",
              "type": "uint256"
            }
          ],
          "internalType": "struct OptimisticOracleV2Interface.Request",
          "name": "",
          "type": "tuple"
        }
      ],
      "stateMutability": "view",
      "type": "function"
    },
    {
      "inputs": [
        {
          "internalType": "address",
          "name": "requester",
          "type": "address"
        },
        {
          "internalType": "bytes32",
          "name": "identifier",
          "type": "bytes32"
        },
        {
          "internalType": "uint256",
          "name": "timestamp",
          "type": "uint256"
        },
        {
          "internalType": "bytes",
          "name": "ancillaryData",
          "type": "bytes"
        }
      ],
      "name": "getState",
      "outputs": [
        {
          "internalType": "enum OptimisticOracleV2Interface.State",
          "name": "",
          "type": "uint8"
        }
      ],
      "stateMutability": "view",
      "type": "function"
    },
    {
      "inputs": [
        {
          "internalType": "address",
          "name": "requester",
          "type": "address"
        },
        {
          "internalType": "bytes32",
          "name": "identifier",
          "type": "bytes32"
        },
        {
          "internalType": "uint256",
          "name": "timestamp",
          "type": "uint256"
        },
        {
          "internalType": "bytes",
          "name": "ancillaryData",
          "type": "bytes"
        }
      ],
      "name": "hasPrice",
      "outputs": [
        {
          "internalType": "bool",
          "name": "",
          "type": "bool"
        }
      ],
      "stateMutability": "view",
      "type": "function"
    },
    {
      "inputs": [
        {
          "internalType": "address",
          "name": "requester",
          "type": "address"
        },
        {
          "internalType": "bytes32",
          "name": "identifier",
          "type": "bytes32"
        },
        {
          "internalType": "uint256",
          "name": "timestamp",
          "type": "uint256"
        },
        {
          "internalType": "bytes",
          "name": "ancillaryData",
          "type": "bytes"
        },
        {
          "internalType": "int256",
          "name": "proposedPrice",
          "type": "int256"
        }
      ],
      "name": "proposePrice",
      "outputs": [
        {
          "internalType": "uint256",
          "name": "totalBond",
          "type": "uint256"
        }
      ],
      "stateMutability": "nonpayable",
      "type": "function"
    },
    {
      "inputs": [
        {
          "internalType": "address",
          "name": "proposer",
          "type": "address"
        },
        {
          "internalType": "address",
          "name": "requester",
          "type": "address"
        },
        {
          "internalType": "bytes32",
          "name": "identifier",
          "type": "bytes32"
        },
        {
          "internalType": "uint256",
          "name": "timestamp",
          "type": "uint256"
        },
        {
          "internalType": "bytes",
          "name": "ancillaryData",
          "type": "bytes"
        },
        {
          "internalType": "int256",
          "name": "proposedPrice",
          "type": "int256"
        }
      ],
      "name": "proposePriceFor",
      "outputs": [
        {
          "internalType": "uint256",
          "name": "totalBond",
          "type": "uint256"
        }
      ],
      "stateMutability": "nonpayable",
      "type": "function"
    },
    {
      "inputs": [
        {
          "internalType": "bytes32",
          "name": "identifier",
          "type": "bytes32"
        },
        {
          "internalType": "uint256",
          "name": "timestamp",
          "type": "uint256"
        },
        {
          "internalType": "bytes",
          "name": "ancillaryData",
          "type": "bytes"
        },
        {
          "internalType": "contract IERC20",
          "name": "currency",
          "type": "address"
        },
        {
          "internalType": "uint256",
          "name": "reward",
          "type": "uint256"
        }
      ],
      "name": "requestPrice",
      "outputs": [
        {
          "internalType": "uint256",
          "name": "totalBond",
          "type": "uint256"
        }
      ],
      "stateMutability": "nonpayable",
      "type": "function"
    },
    {
      "inputs": [
        {
          "internalType": "bytes32",
          "name": "",
          "type": "bytes32"
        }
      ],
      "name": "requests",
      "outputs": [
        {
          "internalType": "address",
          "name": "proposer",
          "type": "address"
        },
        {
          "internalType": "address",
          "name": "disputer",
          "type": "address"
        },
        {
          "internalType": "contract IERC20",
          "name": "currency",
          "type": "address"
        },
        {
          "internalType": "bool",
          "name": "settled",
          "type": "bool"
        },
        {
          "components": [
            {
              "internalType": "bool",
              "name": "eventBased",
              "type": "bool"
            },
            {
              "internalType": "bool",
              "name": "refundOnDispute",
              "type": "bool"
            },
            {
              "internalType": "bool",
              "name": "callbackOnPriceProposed",
              "type": "bool"
            },
            {
              "internalType": "bool",
              "name": "callbackOnPriceDisputed",
              "type": "bool"
            },
            {
              "internalType": "bool",
              "name": "callbackOnPriceSettled",
              "type": "bool"
            },
            {
              "internalType": "uint256",
              "name": "bond",
              "type": "uint256"
            },
            {
              "internalType": "uint256",
              "name": "customLiveness",
              "type": "uint256"
            }
          ],
          "internalType": "struct OptimisticOracleV2Interface.RequestSettings",
          "name": "requestSettings",
          "type": "tuple"
        },
        {
          "internalType": "int256",
          "name": "proposedPrice",
          "type": "int256"
        },
        {
          "internalType": "int256",
          "name": "resolvedPrice",
          "type": "int256"
        },
        {
          "internalType": "uint256",
          "name": "expirationTime",
          "type": "uint256"
        },
        {
          "internalType": "uint256",
          "name": "reward",
          "type": "uint256"
        },
        {
          "internalType": "uint256",
          "name": "finalFee",
          "type": "uint256"
        }
      ],
      "stateMutability": "view",
      "type": "function"
    },
    {
      "inputs": [
        {
          "internalType": "bytes32",
          "name": "identifier",
          "type": "bytes32"
        },
        {
          "internalType": "uint256",
          "name": "timestamp",
          "type": "uint256"
        },
        {
          "internalType": "bytes",
          "name": "ancillaryData",
          "type": "bytes"
        },
        {
          "internalType": "uint256",
          "name": "bond",
          "type": "uint256"
        }
      ],
      "name": "setBond",
      "outputs": [
        {
          "internalType": "uint256",
          "name": "totalBond",
          "type": "uint256"
        }
      ],
      "stateMutability": "nonpayable",
      "type": "function"
    },
    {
      "inputs": [
        {
          "internalType": "bytes32",
          "name": "identifier",
          "type": "bytes32"
        },
        {
          "internalType": "uint256",
          "name": "timestamp",
          "type": "uint256"
        },
        {
          "internalType": "bytes",
          "name": "ancillaryData",
          "type": "bytes"
        },
        {
          "internalType": "bool",
          "name": "callbackOnPriceProposed",
          "type": "bool"
        },
        {
          "internalType": "bool",
          "name": "callbackOnPriceDisputed",
          "type": "bool"
        },
        {
          "internalType": "bool",
          "name": "callbackOnPriceSettled",
          "type": "bool"
        }
      ],
      "name": "setCallbacks",
      "outputs": [],
      "stateMutability": "nonpayable",
      "type": "function"
    },
    {
      "inputs": [
        {
          "internalType": "uint256",
          "name": "time",
          "type": "uint256"
        }
      ],
      "name": "setCurrentTime",
      "outputs": [],
      "stateMutability": "nonpayable",
      "type": "function"
    },
    {
      "inputs": [
        {
          "internalType": "bytes32",
          "name": "identifier",
          "type": "bytes32"
        },
        {
          "internalType": "uint256",
          "name": "timestamp",
          "type": "uint256"
        },
        {
          "internalType": "bytes",
          "name": "ancillaryData",
          "type": "bytes"
        },
        {
          "internalType": "uint256",
          "name": "customLiveness",
          "type": "uint256"
        }
      ],
      "name": "setCustomLiveness",
      "outputs": [],
      "stateMutability": "nonpayable",
      "type": "function"
    },
    {
      "inputs": [
        {
          "internalType": "bytes32",
          "name": "identifier",
          "type": "bytes32"
        },
        {
          "internalType": "uint256",
          "name": "timestamp",
          "type": "uint256"
        },
        {
          "internalType": "bytes",
          "name": "ancillaryData",
          "type": "bytes"
        }
      ],
      "name": "setEventBased",
      "outputs": [],
      "stateMutability": "nonpayable",
      "type": "function"
    },
    {
      "inputs": [
        {
          "internalType": "bytes32",
          "name": "identifier",
          "type": "bytes32"
        },
        {
          "internalType": "uint256",
          "name": "timestamp",
          "type": "uint256"
        },
        {
          "internalType": "bytes",
          "name": "ancillaryData",
          "type": "bytes"
        }
      ],
      "name": "setRefundOnDispute",
      "outputs": [],
      "stateMutability": "nonpayable",
      "type": "function"
    },
    {
      "inputs": [
        {
          "internalType": "address",
          "name": "requester",
          "type": "address"
        },
        {
          "internalType": "bytes32",
          "name": "identifier",
          "type": "bytes32"
        },
        {
          "internalType": "uint256",
          "name": "timestamp",
          "type": "uint256"
        },
        {
          "internalType": "bytes",
          "name": "ancillaryData",
          "type": "bytes"
        }
      ],
      "name": "settle",
      "outputs": [
        {
          "internalType": "uint256",
          "name": "payout",
          "type": "uint256"
        }
      ],
      "stateMutability": "nonpayable",
      "type": "function"
    },
    {
      "inputs": [
        {
          "internalType": "bytes32",
          "name": "identifier",
          "type": "bytes32"
        },
        {
          "internalType": "uint256",
          "name": "timestamp",
          "type": "uint256"
        },
        {
          "internalType": "bytes",
          "name": "ancillaryData",
          "type": "bytes"
        }
      ],
      "name": "settleAndGetPrice",
      "outputs": [
        {
          "internalType": "int256",
          "name": "",
          "type": "int256"
        }
      ],
      "stateMutability": "nonpayable",
      "type": "function"
    },
    {
      "inputs": [
        {
          "internalType": "bytes",
          "name": "ancillaryData",
          "type": "bytes"
        },
        {
          "internalType": "address",
          "name": "requester",
          "type": "address"
        }
      ],
      "name": "stampAncillaryData",
      "outputs": [
        {
          "internalType": "bytes",
          "name": "",
          "type": "bytes"
        }
      ],
      "stateMutability": "pure",
      "type": "function"
    },
    {
      "inputs": [],
      "name": "timerAddress",
      "outputs": [
        {
          "internalType": "address",
          "name": "",
          "type": "address"
        }
      ],
      "stateMutability": "view",
      "type": "function"
    }
  ],
  "transactionHash": "0x0a6ee31290b8f1e3c08077f06f4f0a602b49c2d2cbac71ac5d5b230445688855",
  "args": [
    7200,
    "0xA969917A4dFaB07936dEc60f70FA5c736A1e2b9e",
    "0xf8815ce169E5450aa6908e76E1B970dBcEC11550"
  ],
  "solcInputHash": "864d61c65c789401ae17358a5af86557",
  "bytecode": "0x6080346200013b57601f62002bf438819003918201601f19168301916001600160401b0383118484101762000140578084926060946040528339810103126200013b57805190620000536020820162000156565b6001600160a01b0391600160a01b908390620000729060400162000156565b1660018060a81b03196001541617176001551660018060a01b0319600254161760025563bb74480081101562000101578015620000bc57600355604051612a8890816200016c8239f35b60405162461bcd60e51b815260206004820152601460248201527f4c6976656e6573732063616e6e6f7420626520300000000000000000000000006044820152606490fd5b60405162461bcd60e51b81526020600482015260126024820152714c6976656e65737320746f6f206c6172676560701b6044820152606490fd5b600080fd5b634e487b7160e01b600052604160045260246000fd5b51906001600160a01b03821682036200013b5756fe6080604052600436101561001257600080fd5b6000803560e01c806311df92f114610d07578063120698af14610c465780631c39c38d14610c1d57806322f8e56614610ba357806329cb924d14610b88578063473c45fe14610a4b5780634ccb56f514610a2e57806353b59239146109a55780635e9a79a91461097157806376c7823f146109195780637c82288f146108bd57806391f58dcb146107e85780639d86698514610738578063a9904f9b146105a1578063ad5a755a146104cc578063af5d2f3914610466578063b8b4f90814610414578063b9a3c84c146103eb578063ba4b930c146103b0578063bc58ccaa1461032a578063c371dda71461030d578063f327b07514610196578063fba7f1e314610170578063fe4e1983146101525763ff8c1a8c1461013057600080fd5b3461014f578060031936011261014f57604051600160ff1b8152602090f35b80fd5b503461014f578060031936011261014f576020600354604051908152f35b503461014f57602061018e610184366115c0565b9291909133611c75565b604051908152f35b503461014f5760c036600319011261014f576004356024356044356001600160401b038111610309576101cd9036906004016114bc565b906064358015158103610304576084359182151583036103045760a435928315158403610304576101fc611913565b60ff60a01b1995866001541660015561021786848333612533565b60078110156102f0576001036102ab576102989561027a9361023992336121c6565b8752602087905260408720600301805462ff0000191693151560101b62ff000016939093178355825463ff000000191690151560181b63ff00000016178255565b9064ff00000000825491151560201b169064ff000000001916179055565b600160a01b906001541617600155604051f35b60405162461bcd60e51b815260206004820152601760248201527f73657443616c6c6261636b733a205265717565737465640000000000000000006044820152606490fd5b634e487b7160e01b89526021600452602489fd5b600080fd5b8380fd5b503461014f578060031936011261014f5760206040516120008152f35b503461014f5761034d61033c366115c0565b92610348929192611913565b612533565b906007821015908161038e57600683149182156103a2575b8215610379575b6020836040519015158152f35b90915061038e5750600360209114388061036c565b634e487b7160e01b81526021600452602490fd5b506005831491506000610365565b503461014f576103c261033c366115c0565b6040519060078110156103d757602092508152f35b634e487b7160e01b83526021600452602483fd5b503461014f578060031936011261014f576002546040516001600160a01b039091168152602090f35b503461014f5760a036600319011261014f5761042e611594565b90606435906001600160401b03821161014f57602061018e8461045436600487016114bc565b60843591604435906024359033611975565b503461014f57604036600319011261014f57600435906001600160401b03821161014f576104c86104b461049d36600486016114bc565b6104a56115aa565b906104ae612769565b90612790565b6040519182916020835260208301906116d6565b0390f35b503461014f576104db36611538565b906104e7939293611913565b60ff60a01b1993846001541660015561050282828633612533565b600781101561058d5760010361055357602095610528600a9360409361053c97336121c6565b815280875220826004820155015490611968565b90600160a01b906001541617600155604051908152f35b60405162461bcd60e51b81526020600482015260126024820152711cd95d109bdb990e8814995c5d595cdd195960721b6044820152606490fd5b634e487b7160e01b87526021600452602487fd5b503461014f576102009061064660406105b9366115c0565b908496939695929551956105cc87611436565b848752846020880152848688015284606088015285516105eb81611405565b85815285602082015285878201528560608201528560808201528560a08201528560c082015260808801528460a08801528460c08801528460e08801526101009785898901528561012080990152610641611913565b6121c6565b815280602052206040518093819261065d83611436565b61071360018060a01b0380835416855280600184015416906020860191825260028401549060408701818316815260ff606089019360a01c1615158352816106a760038801611607565b9460808a01958652600a60068901549860a08c01998a5260078101549a60c08d019b8c5260e060088301549d019c8d5260098201549d019c8d5201549b8d019b8c52816040519d51168d52511660208c0152511660408a01525115156060890152516080880190611668565b5161016086015251610180850152516101a0840152516101c0830152516101e0820152f35b503461014f57602036600319011261014f576040610200916004358152806020522060018060a01b0380825416918160018201541691600282015461077f60038401611607565b6107c860068501549160ff600787015494600888015496600a60098a0154990154996040519b8c5260208c0152811660408b015260a01c16151560608901526080880190611668565b6101608601526101808501526101a08401526101c08301526101e0820152f35b503461014f576107f736611503565b610802929192611913565b60ff60a01b1992836001541660015561081d82828533612533565b60078110156108a9576001036108645761083792336121c6565b8252816020526003604083200161010061ff0019825416179055600160a01b906001541617600155604051f35b60405162461bcd60e51b815260206004820152601d60248201527f736574526566756e644f6e446973707574653a205265717565737465640000006044820152606490fd5b634e487b7160e01b86526021600452602486fd5b503461014f5760c036600319011261014f576108d7611594565b906108e06115aa565b90608435906001600160401b03821161014f57602061018e858561090736600488016114bc565b9060a435926064359160443591611975565b503461014f5760a036600319011261014f57610933611594565b9061093c6115aa565b90608435906001600160401b03821161014f57602061018e858561096336600488016114bc565b916064359160443591611c75565b503461014f57602061053c610985366115c0565b91610991949394611913565b60ff60a01b19948560015416600155612221565b503461014f576109b436611503565b906109bd611913565b60ff60a01b199283600154166001556109d883838333612533565b60078110156108a9576007936040936020979360066109fd9403610a1c575b336121c6565b815280855220015490600160a01b906001541617600155604051908152f35b610a2883838333612221565b506109f7565b503461014f578060031936011261014f576020604051611fcb8152f35b503461014f57610a5a36611538565b919290610a65611913565b60ff60a01b19938460015416600155610a8082828533612533565b600781101561058d57600103610b435763bb744800841015610b09578315610acd57610aac92336121c6565b8352826020526005604084200155600160a01b906001541617600155604051f35b60405162461bcd60e51b815260206004820152601460248201527304c6976656e6573732063616e6e6f7420626520360641b6044820152606490fd5b60405162461bcd60e51b81526020600482015260126024820152714c6976656e65737320746f6f206c6172676560701b6044820152606490fd5b60405162461bcd60e51b815260206004820152601c60248201527f736574437573746f6d4c6976656e6573733a20526571756573746564000000006044820152606490fd5b503461014f578060031936011261014f57602061018e6129e3565b503461014f57602036600319011261014f5760015481906001600160a01b03168015610c1a57803b15610c1a57819060246040518094819363117c72b360e11b835260043560048401525af18015610c0f57610c00575b50604051f35b610c0990611452565b38610bfa565b6040513d84823e3d90fd5b50fd5b503461014f578060031936011261014f576001546040516001600160a01b039091168152602090f35b503461014f57610c5536611503565b610c60929192611913565b60ff60a01b19928360015416600155610c7b82828533612533565b60078110156108a957600103610cc257610c9592336121c6565b8252816020526003604083200161010161ffff19825416179055600160a01b906001541617600155604051f35b60405162461bcd60e51b815260206004820152601860248201527f7365744576656e7442617365643a2052657175657374656400000000000000006044820152606490fd5b503461014f5760a036600319011261014f576044356001600160401b03811161120b57610d389036906004016114bc565b906064356001600160a01b038116900361014f57610d54611913565b6001805460ff60a01b19169055610d718260243560043533612533565b60078110156113f1576113b4576002546040516302abf57960e61b8152721259195b9d1a599a595c95da1a5d195b1a5cdd606a1b60048201526001600160a01b0390911690602081602481855afa90811561138c576024916020918591611397575b506040516390978d1b60e01b8152600480359082015292839182906001600160a01b03165afa90811561138c57839161136d575b501561132f576040516302abf57960e61b81527210dbdb1b185d195c985b15da1a5d195b1a5cdd606a1b600482015290602090829060249082905afa908115610c0f576024916020918491611302575b50604051631d1d5b3960e11b81526001600160a01b03606435811660048301529093849290918391165afa908115610c0f5782916112d3575b501561129757610e9e6129e3565b6024351161125c57611fcb82511161121757602460206001600160a01b03610ec46126e8565b604051635b97aadd60e01b81526064356001600160a01b0316600482015293849290918391165afa908115610c0f5782916111a8575b505191604051610f0981611405565b8281528260208201528260408201528260608201528260808201528360a08201528260c082015260405190610f3d82611436565b83825283602083015260018060a01b0360643516604083015283606083015260808201528260a08201528260c08201528260e082015260843561010082015283610120820152610f9382602435600435336121c6565b835260208381526040808520835181546001600160a01b03199081166001600160a01b03928316178355858501516001840180549092169083161790558483015160028301805460608801516001600160a81b0319909116929093169190911791151560a01b60ff60a01b1691909117905560808401518051600383018054958301519483015162ffffff1990961691151560ff169190911793151560081b61ff00169390931793151560101b62ff00001693909317825592600a926101209260c09190611099906060830151815463ff000000191690151560181b63ff000000161781556080830151815464ff00000000191690151560201b64ff0000000016179055565b60a081015160048701550151600585015560a0810151600685015560c0810151600785015560e0810151600885015561010081015160098501550151910155608435611193575b7ff1679315ff325c257a944e0ca1bfe7b26616039e9511f9610d4ba3eca851027b611126604051926004358452602435602085015260c0604085015260c08401906116d6565b6064356001600160a01b03166060840152608435608084015260a0830185905233929081900390a281600019046002118215151661117f576001805460ff60a01b1916600160a01b1781556040519083901b8152602090f35b634e487b7160e01b81526011600452602490fd5b6111a36084353033606435611713565b6110e0565b90506020813d60201161120f575b816111c360209383611480565b8101031261120b57604051908160208101106001600160401b036020840111176111f7576020820160405251815238610efa565b634e487b7160e01b83526041600452602483fd5b5080fd5b3d91506111b6565b60405162461bcd60e51b815260206004820152601760248201527f416e63696c6c617279204461746120746f6f206c6f6e670000000000000000006044820152606490fd5b60405162461bcd60e51b815260206004820152601360248201527254696d657374616d7020696e2066757475726560681b6044820152606490fd5b60405162461bcd60e51b8152602060048201526014602482015273556e737570706f727465642063757272656e637960601b6044820152606490fd5b6112f5915060203d6020116112fb575b6112ed8183611480565b8101906116fb565b38610e90565b503d6112e3565b6113229150823d8411611328575b61131a8183611480565b810190612664565b38610e57565b503d611310565b60405162461bcd60e51b81526020600482015260166024820152752ab739bab83837b93a32b21034b232b73a34b334b2b960511b6044820152606490fd5b611386915060203d6020116112fb576112ed8183611480565b38610e07565b6040513d85823e3d90fd5b6113ae9150823d84116113285761131a8183611480565b38610dd3565b60405162461bcd60e51b81526020600482015260156024820152741c995c5d595cdd141c9a58d94e88125b9d985b1a59605a1b6044820152606490fd5b634e487b7160e01b82526021600452602482fd5b60e081019081106001600160401b0382111761142057604052565b634e487b7160e01b600052604160045260246000fd5b61014081019081106001600160401b0382111761142057604052565b6001600160401b03811161142057604052565b604081019081106001600160401b0382111761142057604052565b90601f801991011681019081106001600160401b0382111761142057604052565b6001600160401b03811161142057601f01601f191660200190565b81601f82011215610304578035906114d3826114a1565b926114e16040519485611480565b8284526020838301011161030457816000926020809301838601378301015290565b6060600319820112610304576004359160243591604435906001600160401b03821161030457611535916004016114bc565b90565b6080600319820112610304576004359160243591604435906001600160401b0382116103045761156a916004016114bc565b9060643590565b9190820391821161157e57565b634e487b7160e01b600052601160045260246000fd5b600435906001600160a01b038216820361030457565b602435906001600160a01b038216820361030457565b906080600319830112610304576004356001600160a01b038116810361030457916024359160443591606435906001600160401b03821161030457611535916004016114bc565b9060405161161481611405565b60c06002829460ff815481811615158652818160081c1615156020870152818160101c1615156040870152818160181c161515606087015260201c1615156080850152600181015460a08501520154910152565b60c0809180511515845260208101511515602085015260408101511515604085015260608101511515606085015260808101511515608085015260a081015160a08501520151910152565b60005b8381106116c65750506000910152565b81810151838201526020016116b6565b906020916116ef815180928185528580860191016116b3565b601f01601f1916010190565b90816020910312610304575180151581036103045790565b6040516323b872dd60e01b60208201526001600160a01b03928316602482015292909116604483015260648083019390935291815260a08101918183106001600160401b038411176114205761176b9260405261176d565b565b6040516117ea916001600160a01b031661178682611465565b6000806020958685527f5361666545524332303a206c6f772d6c6576656c2063616c6c206661696c656487860152868151910182855af13d15611872573d916117ce836114a1565b926117dc6040519485611480565b83523d60008785013e611876565b80519082821592831561185a575b505050156118035750565b6084906040519062461bcd60e51b82526004820152602a60248201527f5361666545524332303a204552433230206f7065726174696f6e20646964206e6044820152691bdd081cdd58d8d9595960b21b6064820152fd5b61186a93508201810191016116fb565b3882816117f8565b6060915b919290156118d8575081511561188a575090565b3b156118935790565b60405162461bcd60e51b815260206004820152601d60248201527f416464726573733a2063616c6c20746f206e6f6e2d636f6e74726163740000006044820152606490fd5b8251909150156118eb5750805190602001fd5b60405162461bcd60e51b81526020600482015290819061190f9060248301906116d6565b0390fd5b60ff60015460a01c161561192357565b60405162461bcd60e51b815260206004820152601f60248201527f5265656e7472616e637947756172643a207265656e7472616e742063616c6c006044820152606490fd5b9190820180921161157e57565b959492919093611983611913565b6001805460ff60a01b19908116909155936001600160a01b039088821615611c14576119b18386868a612533565b6007811015611bfe57600103611bb9576119cd8386868a6121c6565b600052600060205260406000209060ff600383015416611b69575b81546001600160a01b0319168a841617825560068201819055611a1d611a0c6129e3565b60058401548015611b5f5790611968565b6008830155611a356004830154600a84015490611968565b998a611b46575b7f6e51dd00371aabffa82cd401592f76ed51e98a9ea4b58751c70463a2c78b5ca160088401548560028601541690868c169687946040519384938c85528d602086015260c06040860152611a9360c086018d6116d6565b986060860152608085015260a084015216940390a3600160a01b96878760015416176001553b15159081611b34575b50611ad6575b505050506001541617600155565b803b1561030457611b02936000809460405196879586948593639c2fd1df60e01b855260048501611c59565b03925af18015611b2857611b19575b808080611ac8565b611b2290611452565b38611b11565b6040513d6000823e3d90fd5b60ff91506003015460101c1638611ac2565b611b5a8b8560028601541630903390611713565b611a3c565b5060035490611968565b600160ff1b81016119e85760405162461bcd60e51b815260206004820152601a60248201527f43616e6e6f742070726f706f73652027746f6f206561726c79270000000000006044820152606490fd5b60405162461bcd60e51b815260206004820152601a60248201527f70726f706f73655072696365466f723a205265717565737465640000000000006044820152606490fd5b634e487b7160e01b600052602160045260246000fd5b60405162461bcd60e51b815260206004820152601e60248201527f70726f706f7365722061646472657373206d757374206265206e6f6e203000006044820152606490fd5b61153593926060928252602082015281604082015201906116d6565b949392909192600091611c86611913565b6001805460ff60a01b19168155946001600160a01b0388161561212157611caf83838388612533565b600781101561210d576002036120c857611ccb838383886121c6565b845283602052604084209786890160018060a01b0382166bffffffffffffffffffffffff60a01b825416179055600a8901549860048101611d29611d108c8354611968565b9b8c6120a6575b611d1f6126e8565b92548b1c90611968565b80611f25575b506001600160a01b039050611d42612683565b16611d4d8583612730565b90611d6089611d5a612769565b89612790565b91813b15611f2157918891611d8d938360405180968195829463085999a960e21b84528c60048501611c59565b03925af18015611f1657908791611f02575b5090611e0a94939260098201805480151580611ef1575b611ecd575b5050815460068301546040516001600160a01b038c8116999481169493169289927f5165909c3d1c01c5d1e121ac6f6d01dda1ba24bc9e1f975b5a375339c15be7f3929182918d8c8c85612166565b0390a4885460ff60a01b1916600160a01b9081178a55973b15159081611ebb575b50611e45575b50505050505060ff60a01b19825416179055565b833b15611eb7579185809492611e859694604051978896879586946306c791b960e11b8652600486015260248501526080604485015260848401906116d6565b90606483015203925af18015610c0f57611ea3575b80808080611e31565b611ead8291611452565b61014f5780611e9a565b8580fd5b60ff91506003015460181c1638611e2b565b611eea919450898195558a60018060a01b0360028601541661218d565b3880611dbb565b5060ff600385015460081c16611db6565b611f0b90611452565b611eb7578538611d9f565b6040513d89823e3d90fd5b8880fd5b600283018054604051636eb1769f60e11b81523060048201526001600160a01b0394851660248201819052929490911690602081604481855afa90811561209b579084918c91612060575b50611f83611fc1949392611fbc92611968565b60405163095ea7b360e01b60208201526001600160a01b039094166024850152604484015282606481015b03601f198101845283611480565b61176d565b6001600160a01b03611fd16126e8565b169160018060a01b0390541660405191602083018381106001600160401b0382111761204c576040528252823b15611f2157906044899283604051958694859363432ce91960e11b855260048501525160248401525af18015611f1657612039575b80611d2f565b61204590969196611452565b9438612033565b634e487b7160e01b8b52604160045260248bfd5b9150506020813d602011612093575b8161207c60209383611480565b8101031261208f57518390611f83611f70565b8a80fd5b3d915061206f565b6040513d8d823e3d90fd5b60028401546120c3908e90309033906001600160a01b0316611713565b611d17565b60405162461bcd60e51b815260206004820152601960248201527f646973707574655072696365466f723a2050726f706f736564000000000000006044820152606490fd5b634e487b7160e01b85526021600452602485fd5b60405162461bcd60e51b815260206004820152601e60248201527f64697370757465722061646472657373206d757374206265206e6f6e203000006044820152606490fd5b94939260609261218892875260208701526080604087015260808601906116d6565b930152565b60405163a9059cbb60e01b60208201526001600160a01b039092166024830152604482019290925261176b91611fbc8260648101611fae565b9261221b9160749160405194859260208401976bffffffffffffffffffffffff199060601b1688526034840152605483015261220b81518092602086860191016116b3565b8101036054810184520182611480565b51902090565b939261222f81848488612533565b9461223c828585846121c6565b60005260006020526040600020906002820196875490600160a01b60ff60a01b1983161789556007811015611bfe57600381036123cd575050600682015460078301556122bb6122a36122986004850154600a86015490611968565b600985015490611968565b9754835489916001600160a01b03918216911661218d565b60018060a01b039182815416918360018301541660078301938a7f3f384afb4bd9f0aef0298c80399950011420eb33b0e1a750b20966270247b9a08a8a8854998716998a946040519384938452602084015260a060408401526123228d60a08501906116d6565b91606084015260808301520390a46001805460ff60a01b1916600160a01b1790553b151590816123bb575b50612367575b50506001805460ff60a01b19169055505050565b5493813b156103045760008094612394604051978896879586946304cc1fd560e01b865260048601612166565b03925af18015611b28576123ac575b80808080612353565b6123b590611452565b386123a3565b60ff91506003015460201c163861234d565b9097506005036124ee5761242360206001600160a01b036123ec612683565b166123f78886612730565b9061240485611d5a612769565b6040516338ce36ab60e11b815294859384928392918c60048501611c59565b03915afa8015611b28576000906124ba575b6124a491508060078501556006840154141561247e61247361246860048701546124628160011c82611571565b90611968565b600a87015490611968565b600986015490611968565b988991156124a95760018501546001600160a01b0316905b6001600160a01b031661218d565b6122bb565b84546001600160a01b031690612496565b506020813d6020116124e6575b816124d460209383611480565b81010312610304576124a49051612435565b3d91506124c7565b60405162461bcd60e51b815260206004820152601760248201527f5f736574746c653a206e6f7420736574746c6561626c650000000000000000006044820152606490fd5b92919091612543818385876121c6565b936000948552846020526040852092600284015460018060a01b03908181161561265a57818654161561264d5760a01c60ff1661264157806001860154161561261e57602094926125a76125ce989795936125b0936125a0612683565b1695612730565b926104ae612769565b604051630b551cd560e41b8152968794859384939160048501611c59565b03915afa9182156126115781926125f1575b5050156125ec57600590565b600490565b61260a91925060203d81116112fb576112ed8183611480565b90386125e0565b50604051903d90823e3d90fd5b505050506008915001546126306129e3565b10905061263c57600390565b600290565b50505050505050600690565b5050505050505050600190565b5050505050505090565b9081602091031261030457516001600160a01b03811681036103045790565b6002546040516302abf57960e61b8152654f7261636c6560d01b60048201526001600160a01b03916020908290602490829086165afa908115611b28576000916126cc57501690565b6126e4915060203d81116113285761131a8183611480565b1690565b6002546040516302abf57960e61b81526453746f726560d81b60048201526001600160a01b03916020908290602490829086165afa908115611b28576000916126cc57501690565b600381015460ff16156127655760058101546115359250801561275957600890915b0154611571565b50600860035491612752565b5090565b6040519061277682611465565b600b82526a37b7a932b8bab2b9ba32b960a91b6020830152565b9061279b9082612964565b906127ba6fffffffffffffffffffffffffffffffff8460201c1661285d565b926001600160c01b0319906127e09060601b6bffffffffffffffffffffffff191661285d565b16604051906020820194855260408201526028815260608101938185106001600160401b0386111761142057611535936020938660405261282a81518092876080880191016116b3565b830161283f82518093876080850191016116b3565b016128518351809360808401906116b3565b01038084520182611480565b7f3030303030303030303030303030303030303030303030303030303030303030906001600160401b038060801b8260401b169116178060201b1779ffff000000000000ffff000000000000ffff000000000000ffff7dffff000000000000ffff000000000000ffff000000000000ffff000000008260101b169116178060081b177e0f000f000f000f000f000f000f000f000f000f000f000f000f000f000f000f7f0f000f000f000f000f000f000f000f000f000f000f000f000f000f000f000f008260041b1691161760277f0101010101010101010101010101010101010101010101010101010101010101808360011c16818460021c16178360031c161602010190565b51156129ac5761153560226040518093600b60fa1b60208301526129928151809260206021860191016116b3565b8101601d60f91b6021820152036002810184520182611480565b6115356021604051836129c98295518092602080860191016116b3565b8101601d60f91b6020820152036001810184520182611480565b6001546001600160a01b03168015612a4d576020600491604051928380926329cb924d60e01b82525afa908115611b2857600091612a1f575090565b906020823d8211612a45575b81612a3860209383611480565b8101031261014f57505190565b3d9150612a2b565b50429056fea264697066735822122092ac37647861bdaf202da12bfdbdd51ed99e6311b00fc8302b0c15dac49bac4b64736f6c63430008100033",
  "devdoc": {
    "kind": "dev",
    "methods": {
      "constructor": {
        "params": {
          "_finderAddress": "finder to use to get addresses of DVM contracts.",
          "_liveness": "default liveness applied to each price request.",
          "_timerAddress": "address of the timer contract. Should be 0x0 in prod."
        }
      },
      "disputePrice(address,bytes32,uint256,bytes)": {
        "params": {
          "ancillaryData": "ancillary data of the price being requested.",
          "identifier": "price identifier to identify the existing request.",
          "requester": "sender of the initial price request.",
          "timestamp": "timestamp to identify the existing request."
        },
        "returns": {
          "totalBond": "the amount that's pulled from the disputer's wallet as a bond. The bond will be returned to the disputer once settled if the dispute was valid (the proposal was incorrect)."
        }
      },
      "disputePriceFor(address,address,bytes32,uint256,bytes)": {
        "params": {
          "ancillaryData": "ancillary data of the price being requested.",
          "disputer": "address to set as the disputer.",
          "identifier": "price identifier to identify the existing request.",
          "requester": "sender of the initial price request.",
          "timestamp": "timestamp to identify the existing request."
        },
        "returns": {
          "totalBond": "the amount that's pulled from the caller's wallet as a bond. The bond will be returned to the disputer once settled if the dispute was valid (the proposal was incorrect)."
        }
      },
      "getRequest(address,bytes32,uint256,bytes)": {
        "params": {
          "ancillaryData": "ancillary data of the price being requested.",
          "identifier": "price identifier to identify the existing request.",
          "requester": "sender of the initial price request.",
          "timestamp": "timestamp to identify the existing request."
        },
        "returns": {
          "_0": "the Request data structure."
        }
      },
      "getState(address,bytes32,uint256,bytes)": {
        "params": {
          "ancillaryData": "ancillary data of the price being requested.",
          "identifier": "price identifier to identify the existing request.",
          "requester": "sender of the initial price request.",
          "timestamp": "timestamp to identify the existing request."
        },
        "returns": {
          "_0": "the State."
        }
      },
      "hasPrice(address,bytes32,uint256,bytes)": {
        "params": {
          "ancillaryData": "ancillary data of the price being requested.",
          "identifier": "price identifier to identify the existing request.",
          "requester": "sender of the initial price request.",
          "timestamp": "timestamp to identify the existing request."
        },
        "returns": {
          "_0": "boolean indicating true if price exists and false if not."
        }
      },
      "proposePrice(address,bytes32,uint256,bytes,int256)": {
        "params": {
          "ancillaryData": "ancillary data of the price being requested.",
          "identifier": "price identifier to identify the existing request.",
          "proposedPrice": "price being proposed.",
          "requester": "sender of the initial price request.",
          "timestamp": "timestamp to identify the existing request."
        },
        "returns": {
          "totalBond": "the amount that's pulled from the proposer's wallet as a bond. The bond will be returned to the proposer once settled if the proposal is correct."
        }
      },
      "proposePriceFor(address,address,bytes32,uint256,bytes,int256)": {
        "params": {
          "ancillaryData": "ancillary data of the price being requested.",
          "identifier": "price identifier to identify the existing request.",
          "proposedPrice": "price being proposed.",
          "proposer": "address to set as the proposer.",
          "requester": "sender of the initial price request.",
          "timestamp": "timestamp to identify the existing request."
        },
        "returns": {
          "totalBond": "the amount that's pulled from the caller's wallet as a bond. The bond will be returned to the proposer once settled if the proposal is correct."
        }
      },
      "requestPrice(bytes32,uint256,bytes,address,uint256)": {
        "params": {
          "ancillaryData": "ancillary data representing additional args being passed with the price request.",
          "currency": "ERC20 token used for payment of rewards and fees. Must be approved for use with the DVM.",
          "identifier": "price identifier being requested.",
          "reward": "reward offered to a successful proposer. Will be pulled from the caller. Note: this can be 0,               which could make sense if the contract requests and proposes the value in the same call or               provides its own reward system.",
          "timestamp": "timestamp of the price being requested."
        },
        "returns": {
          "totalBond": "default bond (final fee) + final fee that the proposer and disputer will be required to pay. This can be changed with a subsequent call to setBond()."
        }
      },
      "setBond(bytes32,uint256,bytes,uint256)": {
        "params": {
          "ancillaryData": "ancillary data of the price being requested.",
          "bond": "custom bond amount to set.",
          "identifier": "price identifier to identify the existing request.",
          "timestamp": "timestamp to identify the existing request."
        },
        "returns": {
          "totalBond": "new bond + final fee that the proposer and disputer will be required to pay. This can be changed again with a subsequent call to setBond()."
        }
      },
      "setCallbacks(bytes32,uint256,bytes,bool,bool,bool)": {
        "params": {
          "ancillaryData": "ancillary data of the price being requested.",
          "callbackOnPriceDisputed": "whether to enable the callback onPriceDisputed.",
          "callbackOnPriceProposed": "whether to enable the callback onPriceProposed.",
          "callbackOnPriceSettled": "whether to enable the callback onPriceSettled.",
          "identifier": "price identifier to identify the existing request.",
          "timestamp": "timestamp to identify the existing request."
        }
      },
      "setCurrentTime(uint256)": {
        "details": "Will revert if not running in test mode.",
        "params": {
          "time": "timestamp to set current Testable time to."
        }
      },
      "setCustomLiveness(bytes32,uint256,bytes,uint256)": {
        "params": {
          "ancillaryData": "ancillary data of the price being requested.",
          "customLiveness": "new custom liveness.",
          "identifier": "price identifier to identify the existing request.",
          "timestamp": "timestamp to identify the existing request."
        }
      },
      "setEventBased(bytes32,uint256,bytes)": {
        "details": "Calling this method has a few impacts on the request: 1. The timestamp at which the request is evaluated is the time of the proposal, not the timestamp associated    with the request. 2. The proposer cannot propose the \"too early\" value (TOO_EARLY_RESPONSE). This is to ensure that a proposer who    prematurely proposes a response loses their bond. 3. RefundoOnDispute is automatically set, meaning disputes trigger the reward to be automatically refunded to    the requesting contract.",
        "params": {
          "ancillaryData": "ancillary data of the price being requested.",
          "identifier": "price identifier to identify the existing request.",
          "timestamp": "timestamp to identify the existing request."
        }
      },
      "setRefundOnDispute(bytes32,uint256,bytes)": {
        "params": {
          "ancillaryData": "ancillary data of the price being requested.",
          "identifier": "price identifier to identify the existing request.",
          "timestamp": "timestamp to identify the existing request."
        }
      },
      "settle(address,bytes32,uint256,bytes)": {
        "params": {
          "ancillaryData": "ancillary data of the price being requested.",
          "identifier": "price identifier to identify the existing request.",
          "requester": "sender of the initial price request.",
          "timestamp": "timestamp to identify the existing request."
        },
        "returns": {
          "payout": "the amount that the \"winner\" (proposer or disputer) receives on settlement. This amount includes the returned bonds as well as additional rewards."
        }
      },
      "settleAndGetPrice(bytes32,uint256,bytes)": {
        "params": {
          "ancillaryData": "ancillary data of the price being requested.",
          "identifier": "price identifier to identify the existing request.",
          "timestamp": "timestamp to identify the existing request."
        },
        "returns": {
          "_0": "resolved price."
        }
      },
      "stampAncillaryData(bytes,address)": {
        "params": {
          "ancillaryData": "ancillary data of the price being requested.",
          "requester": "sender of the initial price request."
        },
        "returns": {
          "_0": "the stamped ancillary bytes."
        }
      }
    },
    "title": "Optimistic Oracle.",
    "version": 1
  },
  "userdoc": {
    "kind": "user",
    "methods": {
      "constructor": {
        "notice": "Constructor."
      },
      "disputePrice(address,bytes32,uint256,bytes)": {
        "notice": "Disputes a price value for an existing price request with an active proposal."
      },
      "disputePriceFor(address,address,bytes32,uint256,bytes)": {
        "notice": "Disputes a price request with an active proposal on another address' behalf. Note: this address will receive any rewards that come from this dispute. However, any bonds are pulled from the caller."
      },
      "getRequest(address,bytes32,uint256,bytes)": {
        "notice": "Gets the current data structure containing all information about a price request."
      },
      "getState(address,bytes32,uint256,bytes)": {
        "notice": "Computes the current state of a price request. See the State enum for more details."
      },
      "hasPrice(address,bytes32,uint256,bytes)": {
        "notice": "Checks if a given request has resolved, expired or been settled (i.e the optimistic oracle has a price)."
      },
      "proposePrice(address,bytes32,uint256,bytes,int256)": {
        "notice": "Proposes a price value for an existing price request."
      },
      "proposePriceFor(address,address,bytes32,uint256,bytes,int256)": {
        "notice": "Proposes a price value on another address' behalf. Note: this address will receive any rewards that come from this proposal. However, any bonds are pulled from the caller."
      },
      "requestPrice(bytes32,uint256,bytes,address,uint256)": {
        "notice": "Requests a new price."
      },
      "setBond(bytes32,uint256,bytes,uint256)": {
        "notice": "Set the proposal bond associated with a price request."
      },
      "setCallbacks(bytes32,uint256,bytes,bool,bool,bool)": {
        "notice": "Sets which callbacks should be enabled for the request."
      },
      "setCurrentTime(uint256)": {
        "notice": "Sets the current time."
      },
      "setCustomLiveness(bytes32,uint256,bytes,uint256)": {
        "notice": "Sets a custom liveness value for the request. Liveness is the amount of time a proposal must wait before being auto-resolved."
      },
      "setEventBased(bytes32,uint256,bytes)": {
        "notice": "Sets the request to be an \"event-based\" request."
      },
      "setRefundOnDispute(bytes32,uint256,bytes)": {
        "notice": "Sets the request to refund the reward if the proposal is disputed. This can help to \"hedge\" the caller in the event of a dispute-caused delay. Note: in the event of a dispute, the winner still receives the other's bond, so there is still profit to be made even if the reward is refunded."
      },
      "settle(address,bytes32,uint256,bytes)": {
        "notice": "Attempts to settle an outstanding price request. Will revert if it isn't settleable."
      },
      "settleAndGetPrice(bytes32,uint256,bytes)": {
        "notice": "Retrieves a price that was previously requested by a caller. Reverts if the request is not settled or settleable. Note: this method is not view so that this call may actually settle the price request if it hasn't been settled."
      },
      "stampAncillaryData(bytes,address)": {
        "notice": "Generates stamped ancillary data in the format that it would be used in the case of a price dispute."
      }
    },
    "notice": "Pre-DVM escalation contract that allows faster settlement.",
    "version": 1
  },
  "storageLayout": {
    "storage": [
      {
        "astId": 62810,
        "contract": "contracts/optimistic-oracle-v2/implementation/OptimisticOracleV2.sol:OptimisticOracleV2",
        "label": "requests",
        "offset": 0,
        "slot": "0",
        "type": "t_mapping(t_bytes32,t_struct(Request)62786_storage)"
      },
      {
        "astId": 17751,
        "contract": "contracts/optimistic-oracle-v2/implementation/OptimisticOracleV2.sol:OptimisticOracleV2",
        "label": "timerAddress",
        "offset": 0,
        "slot": "1",
        "type": "t_address"
      },
      {
        "astId": 16304,
        "contract": "contracts/optimistic-oracle-v2/implementation/OptimisticOracleV2.sol:OptimisticOracleV2",
        "label": "_notEntered",
        "offset": 20,
        "slot": "1",
        "type": "t_bool"
      },
      {
        "astId": 59000,
        "contract": "contracts/optimistic-oracle-v2/implementation/OptimisticOracleV2.sol:OptimisticOracleV2",
        "label": "finder",
        "offset": 0,
        "slot": "2",
        "type": "t_contract(FinderInterface)36753"
      },
      {
        "astId": 59003,
        "contract": "contracts/optimistic-oracle-v2/implementation/OptimisticOracleV2.sol:OptimisticOracleV2",
        "label": "defaultLiveness",
        "offset": 0,
        "slot": "3",
        "type": "t_uint256"
      }
    ],
    "types": {
      "t_address": {
        "encoding": "inplace",
        "label": "address",
        "numberOfBytes": "20"
      },
      "t_bool": {
        "encoding": "inplace",
        "label": "bool",
        "numberOfBytes": "1"
      },
      "t_bytes32": {
        "encoding": "inplace",
        "label": "bytes32",
        "numberOfBytes": "32"
      },
      "t_contract(FinderInterface)36753": {
        "encoding": "inplace",
        "label": "contract FinderInterface",
        "numberOfBytes": "20"
      },
      "t_contract(IERC20)5182": {
        "encoding": "inplace",
        "label": "contract IERC20",
        "numberOfBytes": "20"
      },
      "t_int256": {
        "encoding": "inplace",
        "label": "int256",
        "numberOfBytes": "32"
      },
      "t_mapping(t_bytes32,t_struct(Request)62786_storage)": {
        "encoding": "mapping",
        "key": "t_bytes32",
        "label": "mapping(bytes32 => struct OptimisticOracleV2Interface.Request)",
        "numberOfBytes": "32",
        "value": "t_struct(Request)62786_storage"
      },
      "t_struct(Request)62786_storage": {
        "encoding": "inplace",
        "label": "struct OptimisticOracleV2Interface.Request",
        "members": [
          {
            "astId": 62765,
            "contract": "contracts/optimistic-oracle-v2/implementation/OptimisticOracleV2.sol:OptimisticOracleV2",
            "label": "proposer",
            "offset": 0,
            "slot": "0",
            "type": "t_address"
          },
          {
            "astId": 62767,
            "contract": "contracts/optimistic-oracle-v2/implementation/OptimisticOracleV2.sol:OptimisticOracleV2",
            "label": "disputer",
            "offset": 0,
            "slot": "1",
            "type": "t_address"
          },
          {
            "astId": 62770,
            "contract": "contracts/optimistic-oracle-v2/implementation/OptimisticOracleV2.sol:OptimisticOracleV2",
            "label": "currency",
            "offset": 0,
            "slot": "2",
            "type": "t_contract(IERC20)5182"
          },
          {
            "astId": 62772,
            "contract": "contracts/optimistic-oracle-v2/implementation/OptimisticOracleV2.sol:OptimisticOracleV2",
            "label": "settled",
            "offset": 20,
            "slot": "2",
            "type": "t_bool"
          },
          {
            "astId": 62775,
            "contract": "contracts/optimistic-oracle-v2/implementation/OptimisticOracleV2.sol:OptimisticOracleV2",
            "label": "requestSettings",
            "offset": 0,
            "slot": "3",
            "type": "t_struct(RequestSettings)62763_storage"
          },
          {
            "astId": 62777,
            "contract": "contracts/optimistic-oracle-v2/implementation/OptimisticOracleV2.sol:OptimisticOracleV2",
            "label": "proposedPrice",
            "offset": 0,
            "slot": "6",
            "type": "t_int256"
          },
          {
            "astId": 62779,
            "contract": "contracts/optimistic-oracle-v2/implementation/OptimisticOracleV2.sol:OptimisticOracleV2",
            "label": "resolvedPrice",
            "offset": 0,
            "slot": "7",
            "type": "t_int256"
          },
          {
            "astId": 62781,
            "contract": "contracts/optimistic-oracle-v2/implementation/OptimisticOracleV2.sol:OptimisticOracleV2",
            "label": "expirationTime",
            "offset": 0,
            "slot": "8",
            "type": "t_uint256"
          },
          {
            "astId": 62783,
            "contract": "contracts/optimistic-oracle-v2/implementation/OptimisticOracleV2.sol:OptimisticOracleV2",
            "label": "reward",
            "offset": 0,
            "slot": "9",
            "type": "t_uint256"
          },
          {
            "astId": 62785,
            "contract": "contracts/optimistic-oracle-v2/implementation/OptimisticOracleV2.sol:OptimisticOracleV2",
            "label": "finalFee",
            "offset": 0,
            "slot": "10",
            "type": "t_uint256"
          }
        ],
        "numberOfBytes": "352"
      },
      "t_struct(RequestSettings)62763_storage": {
        "encoding": "inplace",
        "label": "struct OptimisticOracleV2Interface.RequestSettings",
        "members": [
          {
            "astId": 62750,
            "contract": "contracts/optimistic-oracle-v2/implementation/OptimisticOracleV2.sol:OptimisticOracleV2",
            "label": "eventBased",
            "offset": 0,
            "slot": "0",
            "type": "t_bool"
          },
          {
            "astId": 62752,
            "contract": "contracts/optimistic-oracle-v2/implementation/OptimisticOracleV2.sol:OptimisticOracleV2",
            "label": "refundOnDispute",
            "offset": 1,
            "slot": "0",
            "type": "t_bool"
          },
          {
            "astId": 62754,
            "contract": "contracts/optimistic-oracle-v2/implementation/OptimisticOracleV2.sol:OptimisticOracleV2",
            "label": "callbackOnPriceProposed",
            "offset": 2,
            "slot": "0",
            "type": "t_bool"
          },
          {
            "astId": 62756,
            "contract": "contracts/optimistic-oracle-v2/implementation/OptimisticOracleV2.sol:OptimisticOracleV2",
            "label": "callbackOnPriceDisputed",
            "offset": 3,
            "slot": "0",
            "type": "t_bool"
          },
          {
            "astId": 62758,
            "contract": "contracts/optimistic-oracle-v2/implementation/OptimisticOracleV2.sol:OptimisticOracleV2",
            "label": "callbackOnPriceSettled",
            "offset": 4,
            "slot": "0",
            "type": "t_bool"
          },
          {
            "astId": 62760,
            "contract": "contracts/optimistic-oracle-v2/implementation/OptimisticOracleV2.sol:OptimisticOracleV2",
            "label": "bond",
            "offset": 0,
            "slot": "1",
            "type": "t_uint256"
          },
          {
            "astId": 62762,
            "contract": "contracts/optimistic-oracle-v2/implementation/OptimisticOracleV2.sol:OptimisticOracleV2",
            "label": "customLiveness",
            "offset": 0,
            "slot": "2",
            "type": "t_uint256"
          }
        ],
        "numberOfBytes": "96"
      },
      "t_uint256": {
        "encoding": "inplace",
        "label": "uint256",
        "numberOfBytes": "32"
      }
    }
  }
}