{
  "address": "0x189B8E478506BceEAedfa924CE046b4a62fba23C",
  "abi": [
    {
      "inputs": [
        {
          "internalType": "uint256",
          "name": "_liveness",
          "type": "uint256"
        },
        {
          "internalType": "address",
          "name": "_finderAddress",
          "type": "address"
        },
        {
          "internalType": "address",
          "name": "_timerAddress",
          "type": "address"
        }
      ],
      "stateMutability": "nonpayable",
      "type": "constructor"
    },
    {
      "anonymous": false,
      "inputs": [
        {
          "indexed": true,
          "internalType": "address",
          "name": "requester",
          "type": "address"
        },
        {
          "indexed": true,
          "internalType": "address",
          "name": "proposer",
          "type": "address"
        },
        {
          "indexed": true,
          "internalType": "address",
          "name": "disputer",
          "type": "address"
        },
        {
          "indexed": false,
          "internalType": "bytes32",
          "name": "identifier",
          "type": "bytes32"
        },
        {
          "indexed": false,
          "internalType": "uint256",
          "name": "timestamp",
          "type": "uint256"
        },
        {
          "indexed": false,
          "internalType": "bytes",
          "name": "ancillaryData",
          "type": "bytes"
        },
        {
          "indexed": false,
          "internalType": "int256",
          "name": "proposedPrice",
          "type": "int256"
        }
      ],
      "name": "DisputePrice",
      "type": "event"
    },
    {
      "anonymous": false,
      "inputs": [
        {
          "indexed": true,
          "internalType": "address",
          "name": "requester",
          "type": "address"
        },
        {
          "indexed": true,
          "internalType": "address",
          "name": "proposer",
          "type": "address"
        },
        {
          "indexed": false,
          "internalType": "bytes32",
          "name": "identifier",
          "type": "bytes32"
        },
        {
          "indexed": false,
          "internalType": "uint256",
          "name": "timestamp",
          "type": "uint256"
        },
        {
          "indexed": false,
          "internalType": "bytes",
          "name": "ancillaryData",
          "type": "bytes"
        },
        {
          "indexed": false,
          "internalType": "int256",
          "name": "proposedPrice",
          "type": "int256"
        },
        {
          "indexed": false,
          "internalType": "uint256",
          "name": "expirationTimestamp",
          "type": "uint256"
        },
        {
          "indexed": false,
          "internalType": "address",
          "name": "currency",
          "type": "address"
        }
      ],
      "name": "ProposePrice",
      "type": "event"
    },
    {
      "anonymous": false,
      "inputs": [
        {
          "indexed": true,
          "internalType": "address",
          "name": "requester",
          "type": "address"
        },
        {
          "indexed": false,
          "internalType": "bytes32",
          "name": "identifier",
          "type": "bytes32"
        },
        {
          "indexed": false,
          "internalType": "uint256",
          "name": "timestamp",
          "type": "uint256"
        },
        {
          "indexed": false,
          "internalType": "bytes",
          "name": "ancillaryData",
          "type": "bytes"
        },
        {
          "indexed": false,
          "internalType": "address",
          "name": "currency",
          "type": "address"
        },
        {
          "indexed": false,
          "internalType": "uint256",
          "name": "reward",
          "type": "uint256"
        },
        {
          "indexed": false,
          "internalType": "uint256",
          "name": "finalFee",
          "type": "uint256"
        }
      ],
      "name": "RequestPrice",
      "type": "event"
    },
    {
      "anonymous": false,
      "inputs": [
        {
          "indexed": true,
          "internalType": "address",
          "name": "requester",
          "type": "address"
        },
        {
          "indexed": true,
          "internalType": "address",
          "name": "proposer",
          "type": "address"
        },
        {
          "indexed": true,
          "internalType": "address",
          "name": "disputer",
          "type": "address"
        },
        {
          "indexed": false,
          "internalType": "bytes32",
          "name": "identifier",
          "type": "bytes32"
        },
        {
          "indexed": false,
          "internalType": "uint256",
          "name": "timestamp",
          "type": "uint256"
        },
        {
          "indexed": false,
          "internalType": "bytes",
          "name": "ancillaryData",
          "type": "bytes"
        },
        {
          "indexed": false,
          "internalType": "int256",
          "name": "price",
          "type": "int256"
        },
        {
          "indexed": false,
          "internalType": "uint256",
          "name": "payout",
          "type": "uint256"
        }
      ],
      "name": "Settle",
      "type": "event"
    },
    {
      "inputs": [],
      "name": "ancillaryBytesLimit",
      "outputs": [
        {
          "internalType": "uint256",
          "name": "",
          "type": "uint256"
        }
      ],
      "stateMutability": "view",
      "type": "function"
    },
    {
      "inputs": [],
      "name": "defaultLiveness",
      "outputs": [
        {
          "internalType": "uint256",
          "name": "",
          "type": "uint256"
        }
      ],
      "stateMutability": "view",
      "type": "function"
    },
    {
      "inputs": [
        {
          "internalType": "address",
          "name": "requester",
          "type": "address"
        },
        {
          "internalType": "bytes32",
          "name": "identifier",
          "type": "bytes32"
        },
        {
          "internalType": "uint256",
          "name": "timestamp",
          "type": "uint256"
        },
        {
          "internalType": "bytes",
          "name": "ancillaryData",
          "type": "bytes"
        }
      ],
      "name": "disputePrice",
      "outputs": [
        {
          "internalType": "uint256",
          "name": "totalBond",
          "type": "uint256"
        }
      ],
      "stateMutability": "nonpayable",
      "type": "function"
    },
    {
      "inputs": [
        {
          "internalType": "address",
          "name": "disputer",
          "type": "address"
        },
        {
          "internalType": "address",
          "name": "requester",
          "type": "address"
        },
        {
          "internalType": "bytes32",
          "name": "identifier",
          "type": "bytes32"
        },
        {
          "internalType": "uint256",
          "name": "timestamp",
          "type": "uint256"
        },
        {
          "internalType": "bytes",
          "name": "ancillaryData",
          "type": "bytes"
        }
      ],
      "name": "disputePriceFor",
      "outputs": [
        {
          "internalType": "uint256",
          "name": "totalBond",
          "type": "uint256"
        }
      ],
      "stateMutability": "nonpayable",
      "type": "function"
    },
    {
      "inputs": [],
      "name": "finder",
      "outputs": [
        {
          "internalType": "contract FinderInterface",
          "name": "",
          "type": "address"
        }
      ],
      "stateMutability": "view",
      "type": "function"
    },
    {
      "inputs": [],
      "name": "getCurrentTime",
      "outputs": [
        {
          "internalType": "uint256",
          "name": "",
          "type": "uint256"
        }
      ],
      "stateMutability": "view",
      "type": "function"
    },
    {
      "inputs": [
        {
          "internalType": "address",
          "name": "requester",
          "type": "address"
        },
        {
          "internalType": "bytes32",
          "name": "identifier",
          "type": "bytes32"
        },
        {
          "internalType": "uint256",
          "name": "timestamp",
          "type": "uint256"
        },
        {
          "internalType": "bytes",
          "name": "ancillaryData",
          "type": "bytes"
        }
      ],
      "name": "getRequest",
      "outputs": [
        {
          "components": [
            {
              "internalType": "address",
              "name": "proposer",
              "type": "address"
            },
            {
              "internalType": "address",
              "name": "disputer",
              "type": "address"
            },
            {
              "internalType": "contract IERC20",
              "name": "currency",
              "type": "address"
            },
            {
              "internalType": "bool",
              "name": "settled",
              "type": "bool"
            },
            {
              "internalType": "bool",
              "name": "refundOnDispute",
              "type": "bool"
            },
            {
              "internalType": "int256",
              "name": "proposedPrice",
              "type": "int256"
            },
            {
              "internalType": "int256",
              "name": "resolvedPrice",
              "type": "int256"
            },
            {
              "internalType": "uint256",
              "name": "expirationTime",
              "type": "uint256"
            },
            {
              "internalType": "uint256",
              "name": "reward",
              "type": "uint256"
            },
            {
              "internalType": "uint256",
              "name": "finalFee",
              "type": "uint256"
            },
            {
              "internalType": "uint256",
              "name": "bond",
              "type": "uint256"
            },
            {
              "internalType": "uint256",
              "name": "customLiveness",
              "type": "uint256"
            }
          ],
          "internalType": "struct OptimisticOracleInterface.Request",
          "name": "",
          "type": "tuple"
        }
      ],
      "stateMutability": "view",
      "type": "function"
    },
    {
      "inputs": [
        {
          "internalType": "address",
          "name": "requester",
          "type": "address"
        },
        {
          "internalType": "bytes32",
          "name": "identifier",
          "type": "bytes32"
        },
        {
          "internalType": "uint256",
          "name": "timestamp",
          "type": "uint256"
        },
        {
          "internalType": "bytes",
          "name": "ancillaryData",
          "type": "bytes"
        }
      ],
      "name": "getState",
      "outputs": [
        {
          "internalType": "enum OptimisticOracleInterface.State",
          "name": "",
          "type": "uint8"
        }
      ],
      "stateMutability": "view",
      "type": "function"
    },
    {
      "inputs": [
        {
          "internalType": "address",
          "name": "requester",
          "type": "address"
        },
        {
          "internalType": "bytes32",
          "name": "identifier",
          "type": "bytes32"
        },
        {
          "internalType": "uint256",
          "name": "timestamp",
          "type": "uint256"
        },
        {
          "internalType": "bytes",
          "name": "ancillaryData",
          "type": "bytes"
        }
      ],
      "name": "hasPrice",
      "outputs": [
        {
          "internalType": "bool",
          "name": "",
          "type": "bool"
        }
      ],
      "stateMutability": "view",
      "type": "function"
    },
    {
      "inputs": [
        {
          "internalType": "address",
          "name": "requester",
          "type": "address"
        },
        {
          "internalType": "bytes32",
          "name": "identifier",
          "type": "bytes32"
        },
        {
          "internalType": "uint256",
          "name": "timestamp",
          "type": "uint256"
        },
        {
          "internalType": "bytes",
          "name": "ancillaryData",
          "type": "bytes"
        },
        {
          "internalType": "int256",
          "name": "proposedPrice",
          "type": "int256"
        }
      ],
      "name": "proposePrice",
      "outputs": [
        {
          "internalType": "uint256",
          "name": "totalBond",
          "type": "uint256"
        }
      ],
      "stateMutability": "nonpayable",
      "type": "function"
    },
    {
      "inputs": [
        {
          "internalType": "address",
          "name": "proposer",
          "type": "address"
        },
        {
          "internalType": "address",
          "name": "requester",
          "type": "address"
        },
        {
          "internalType": "bytes32",
          "name": "identifier",
          "type": "bytes32"
        },
        {
          "internalType": "uint256",
          "name": "timestamp",
          "type": "uint256"
        },
        {
          "internalType": "bytes",
          "name": "ancillaryData",
          "type": "bytes"
        },
        {
          "internalType": "int256",
          "name": "proposedPrice",
          "type": "int256"
        }
      ],
      "name": "proposePriceFor",
      "outputs": [
        {
          "internalType": "uint256",
          "name": "totalBond",
          "type": "uint256"
        }
      ],
      "stateMutability": "nonpayable",
      "type": "function"
    },
    {
      "inputs": [
        {
          "internalType": "bytes32",
          "name": "identifier",
          "type": "bytes32"
        },
        {
          "internalType": "uint256",
          "name": "timestamp",
          "type": "uint256"
        },
        {
          "internalType": "bytes",
          "name": "ancillaryData",
          "type": "bytes"
        },
        {
          "internalType": "contract IERC20",
          "name": "currency",
          "type": "address"
        },
        {
          "internalType": "uint256",
          "name": "reward",
          "type": "uint256"
        }
      ],
      "name": "requestPrice",
      "outputs": [
        {
          "internalType": "uint256",
          "name": "totalBond",
          "type": "uint256"
        }
      ],
      "stateMutability": "nonpayable",
      "type": "function"
    },
    {
      "inputs": [
        {
          "internalType": "bytes32",
          "name": "",
          "type": "bytes32"
        }
      ],
      "name": "requests",
      "outputs": [
        {
          "internalType": "address",
          "name": "proposer",
          "type": "address"
        },
        {
          "internalType": "address",
          "name": "disputer",
          "type": "address"
        },
        {
          "internalType": "contract IERC20",
          "name": "currency",
          "type": "address"
        },
        {
          "internalType": "bool",
          "name": "settled",
          "type": "bool"
        },
        {
          "internalType": "bool",
          "name": "refundOnDispute",
          "type": "bool"
        },
        {
          "internalType": "int256",
          "name": "proposedPrice",
          "type": "int256"
        },
        {
          "internalType": "int256",
          "name": "resolvedPrice",
          "type": "int256"
        },
        {
          "internalType": "uint256",
          "name": "expirationTime",
          "type": "uint256"
        },
        {
          "internalType": "uint256",
          "name": "reward",
          "type": "uint256"
        },
        {
          "internalType": "uint256",
          "name": "finalFee",
          "type": "uint256"
        },
        {
          "internalType": "uint256",
          "name": "bond",
          "type": "uint256"
        },
        {
          "internalType": "uint256",
          "name": "customLiveness",
          "type": "uint256"
        }
      ],
      "stateMutability": "view",
      "type": "function"
    },
    {
      "inputs": [
        {
          "internalType": "bytes32",
          "name": "identifier",
          "type": "bytes32"
        },
        {
          "internalType": "uint256",
          "name": "timestamp",
          "type": "uint256"
        },
        {
          "internalType": "bytes",
          "name": "ancillaryData",
          "type": "bytes"
        },
        {
          "internalType": "uint256",
          "name": "bond",
          "type": "uint256"
        }
      ],
      "name": "setBond",
      "outputs": [
        {
          "internalType": "uint256",
          "name": "totalBond",
          "type": "uint256"
        }
      ],
      "stateMutability": "nonpayable",
      "type": "function"
    },
    {
      "inputs": [
        {
          "internalType": "uint256",
          "name": "time",
          "type": "uint256"
        }
      ],
      "name": "setCurrentTime",
      "outputs": [],
      "stateMutability": "nonpayable",
      "type": "function"
    },
    {
      "inputs": [
        {
          "internalType": "bytes32",
          "name": "identifier",
          "type": "bytes32"
        },
        {
          "internalType": "uint256",
          "name": "timestamp",
          "type": "uint256"
        },
        {
          "internalType": "bytes",
          "name": "ancillaryData",
          "type": "bytes"
        },
        {
          "internalType": "uint256",
          "name": "customLiveness",
          "type": "uint256"
        }
      ],
      "name": "setCustomLiveness",
      "outputs": [],
      "stateMutability": "nonpayable",
      "type": "function"
    },
    {
      "inputs": [
        {
          "internalType": "bytes32",
          "name": "identifier",
          "type": "bytes32"
        },
        {
          "internalType": "uint256",
          "name": "timestamp",
          "type": "uint256"
        },
        {
          "internalType": "bytes",
          "name": "ancillaryData",
          "type": "bytes"
        }
      ],
      "name": "setRefundOnDispute",
      "outputs": [],
      "stateMutability": "nonpayable",
      "type": "function"
    },
    {
      "inputs": [
        {
          "internalType": "address",
          "name": "requester",
          "type": "address"
        },
        {
          "internalType": "bytes32",
          "name": "identifier",
          "type": "bytes32"
        },
        {
          "internalType": "uint256",
          "name": "timestamp",
          "type": "uint256"
        },
        {
          "internalType": "bytes",
          "name": "ancillaryData",
          "type": "bytes"
        }
      ],
      "name": "settle",
      "outputs": [
        {
          "internalType": "uint256",
          "name": "payout",
          "type": "uint256"
        }
      ],
      "stateMutability": "nonpayable",
      "type": "function"
    },
    {
      "inputs": [
        {
          "internalType": "bytes32",
          "name": "identifier",
          "type": "bytes32"
        },
        {
          "internalType": "uint256",
          "name": "timestamp",
          "type": "uint256"
        },
        {
          "internalType": "bytes",
          "name": "ancillaryData",
          "type": "bytes"
        }
      ],
      "name": "settleAndGetPrice",
      "outputs": [
        {
          "internalType": "int256",
          "name": "",
          "type": "int256"
        }
      ],
      "stateMutability": "nonpayable",
      "type": "function"
    },
    {
      "inputs": [
        {
          "internalType": "bytes",
          "name": "ancillaryData",
          "type": "bytes"
        },
        {
          "internalType": "address",
          "name": "requester",
          "type": "address"
        }
      ],
      "name": "stampAncillaryData",
      "outputs": [
        {
          "internalType": "bytes",
          "name": "",
          "type": "bytes"
        }
      ],
      "stateMutability": "pure",
      "type": "function"
    },
    {
      "inputs": [],
      "name": "timerAddress",
      "outputs": [
        {
          "internalType": "address",
          "name": "",
          "type": "address"
        }
      ],
      "stateMutability": "view",
      "type": "function"
    }
  ],
  "transactionHash": "0xe38afd6c1906f4beeb9519da078f01cc6557f991c7fd74b1903f60518257ad00",
  "args": [
    7200,
    "0xA969917A4dFaB07936dEc60f70FA5c736A1e2b9e",
    "0xf8815ce169E5450aa6908e76E1B970dBcEC11550"
  ],
  "solcInputHash": "864d61c65c789401ae17358a5af86557",
  "bytecode": "0x6080346200013b57601f620026c738819003918201601f19168301916001600160401b0383118484101762000140578084926060946040528339810103126200013b57805190620000536020820162000156565b6001600160a01b0391600160a01b908390620000729060400162000156565b1660018060a81b03196001541617176001551660018060a01b0319600254161760025563bb74480081101562000101578015620000bc5760035560405161255b90816200016c8239f35b60405162461bcd60e51b815260206004820152601460248201527f4c6976656e6573732063616e6e6f7420626520300000000000000000000000006044820152606490fd5b60405162461bcd60e51b81526020600482015260126024820152714c6976656e65737320746f6f206c6172676560701b6044820152606490fd5b600080fd5b634e487b7160e01b600052604160045260246000fd5b51906001600160a01b03821682036200013b5756fe6080604052600436101561001257600080fd5b6000803560e01c806311df92f114610a8f5780631c39c38d14610a6657806322f8e566146109ec57806329cb924d146109d1578063473c45fe1461089457806353b592391461080b5780635e9a79a9146107d757806376c7823f1461077f5780637c82288f1461072357806391f58dcb146106485780639d86698514610591578063a9904f9b146103de578063ad5a755a14610309578063af5d2f39146102a3578063b8b4f90814610251578063b9a3c84c14610228578063ba4b930c146101ed578063bc58ccaa14610167578063c371dda71461014a578063fba7f1e3146101245763fe4e19831461010457600080fd5b346101215780600319360112610121576020600354604051908152f35b80fd5b50346101215760206101426101383661128a565b9291909133611821565b604051908152f35b503461012157806003193601126101215760206040516120008152f35b50346101215761018a6101793661128a565b92610185929192611531565b612038565b90600782101590816101cb57600683149182156101df575b82156101b6575b6020836040519015158152f35b9091506101cb575060036020911438806101a9565b634e487b7160e01b81526021600452602490fd5b5060058314915060006101a2565b5034610121576101ff6101793661128a565b60405190600781101561021457602092508152f35b634e487b7160e01b83526021600452602483fd5b50346101215780600319360112610121576002546040516001600160a01b039091168152602090f35b50346101215760a03660031901126101215761026b61125e565b90606435906001600160401b0382116101215760206101428461029136600487016111a4565b608435916044359060243590336115a9565b503461012157604036600319011261012157600435906001600160401b038211610121576103056102f16102da36600486016111a4565b6102e2611274565b906102eb61223c565b90612263565b6040519182916020835260208301906112f4565b0390f35b503461012157610318366111f0565b90610324939293611531565b60ff60a01b1993846001541660015561033f82828633612038565b60078110156103ca57600103610390576020956103656007936040936103799733611ce7565b815280875220826008820155015490611586565b90600160a01b906001541617600155604051908152f35b60405162461bcd60e51b81526020600482015260126024820152711cd95d109bdb990e8814995c5d595cdd195960721b6044820152606490fd5b634e487b7160e01b87526021600452602487fd5b5034610121576040610180916104596103f63661128a565b9285610160889493945161040981611108565b828152826020820152828a8201528260608201528260808201528260a08201528260c08201528260e08201528261010082015282610120820152826101408201520152610454611531565b611ce7565b8152806020522061016060405161046f81611108565b600960018060a01b038454169384835260018060a01b03600182015416602084015260ff600282015460018060a01b0381166040860152818160a01c161515606086015260a81c1615156080840152600381015460a0840152600481015460c0840152600581015460e084015260068101546101008401526007810154610120840152600881015461014084015201548282015260405192835260018060a01b03602082015116602084015260018060a01b03604082015116604084015260608101511515606084015260808101511515608084015260a081015160a084015260c081015160c084015260e081015160e08401526101008101516101008401526101208101516101208401526101408101516101408401520151610160820152f35b5034610121576020366003190112610121576040610180916004358152806020522060018060a01b038082541691816001820154169160028201546003830154600484015460058501549160ff600687015494600788015496600960088a0154990154996040519b8c5260208c0152811660408b0152818160a01c16151560608b015260a81c161515608089015260a088015260c087015260e0860152610100850152610120840152610140830152610160820152f35b50346101215761065736611229565b610662929192611531565b60ff60a01b1992836001541660015561067d82828533612038565b600781101561070f576001036106ca576106979233611ce7565b825260208290526040808320600201805460ff60a81b1916600160a81b17905560018054909216600160a01b1790915551f35b60405162461bcd60e51b815260206004820152601d60248201527f736574526566756e644f6e446973707574653a205265717565737465640000006044820152606490fd5b634e487b7160e01b86526021600452602486fd5b50346101215760c03660031901126101215761073d61125e565b90610746611274565b90608435906001600160401b038211610121576020610142858561076d36600488016111a4565b9060a4359260643591604435916115a9565b50346101215760a03660031901126101215761079961125e565b906107a2611274565b90608435906001600160401b03821161012157602061014285856107c936600488016111a4565b916064359160443591611821565b50346101215760206103796107eb3661128a565b916107f7949394611531565b60ff60a01b19948560015416600155611d3d565b50346101215761081a36611229565b90610823611531565b60ff60a01b1992836001541660015561083e83838333612038565b600781101561070f576004936040936020979360066108639403610882575b33611ce7565b815280855220015490600160a01b906001541617600155604051908152f35b61088e83838333611d3d565b5061085d565b5034610121576108a3366111f0565b9192906108ae611531565b60ff60a01b199384600154166001556108c982828533612038565b60078110156103ca5760010361098c5763bb744800841015610952578315610916576108f59233611ce7565b8352826020526009604084200155600160a01b906001541617600155604051f35b60405162461bcd60e51b815260206004820152601460248201527304c6976656e6573732063616e6e6f7420626520360641b6044820152606490fd5b60405162461bcd60e51b81526020600482015260126024820152714c6976656e65737320746f6f206c6172676560701b6044820152606490fd5b60405162461bcd60e51b815260206004820152601c60248201527f736574437573746f6d4c6976656e6573733a20526571756573746564000000006044820152606490fd5b503461012157806003193601126101215760206101426124b6565b50346101215760203660031901126101215760015481906001600160a01b03168015610a6357803b15610a6357819060246040518094819363117c72b360e11b835260043560048401525af18015610a5857610a49575b50604051f35b610a529061113a565b38610a43565b6040513d84823e3d90fd5b50fd5b50346101215780600319360112610121576001546040516001600160a01b039091168152602090f35b50346101215760a0366003190112610121576044356001600160401b038111610f0e57610ac09036906004016111a4565b906064356001600160a01b038116900361012157610adc611531565b6001805460ff60a01b19169055610af98260243560043533612038565b60078110156110f4576110b7576002546040516302abf57960e61b8152721259195b9d1a599a595c95da1a5d195b1a5cdd606a1b60048201526001600160a01b0390911690602081602481855afa90811561108f57602491602091859161109a575b506040516390978d1b60e01b8152600480359082015292839182906001600160a01b03165afa90811561108f578391611070575b5015611032576040516302abf57960e61b81527210dbdb1b185d195c985b15da1a5d195b1a5cdd606a1b600482015290602090829060249082905afa908115610a58576024916020918491611005575b50604051631d1d5b3960e11b81526001600160a01b03606435811660048301529093849290918391165afa908115610a58578291610fd6575b5015610f9a57610c266124b6565b60243511610f5f57612000610c4333610c3d61223c565b85612263565b5111610f1a57602460206001600160a01b03610c5d6121f4565b604051635b97aadd60e01b81526064356001600160a01b0316600482015293849290918391165afa908115610a58578291610eab575b505191604051610ca281611108565b82815282602082015260018060a01b036064351660408201528260608201528260808201528260a08201528260c08201528260e0820152608435610100820152836101208201528361014082015282610160820152610d078260243560043533611ce7565b8352826020526009610160604085209260018060a01b038151166001600160601b0360a01b9081865416178555600185019060018060a01b03602084015116908254161790556002840160018060a01b0360408301511681549060ff60a01b6060850151151560a01b169060ff60a81b6080860151151560a81b169269ffffffffffffffffffff60b01b16171717905560a0810151600385015560c0810151600485015560e081015160058501556101008101516006850155610120810151600785015561014081015160088501550151910155608435610e96575b7ff1679315ff325c257a944e0ca1bfe7b26616039e9511f9610d4ba3eca851027b610e29604051926004358452602435602085015260c0604085015260c08401906112f4565b6064356001600160a01b03166060840152608435608084015260a0830185905233929081900390a2816000190460021182151516610e82576001805460ff60a01b1916600160a01b1781556040519083901b8152602090f35b634e487b7160e01b81526011600452602490fd5b610ea66084353033606435611331565b610de3565b90506020813d602011610f12575b81610ec660209383611168565b81010312610f0e57604051908160208101106001600160401b03602084011117610efa576020820160405251815238610c93565b634e487b7160e01b83526041600452602483fd5b5080fd5b3d9150610eb9565b60405162461bcd60e51b815260206004820152601760248201527f416e63696c6c617279204461746120746f6f206c6f6e670000000000000000006044820152606490fd5b60405162461bcd60e51b815260206004820152601360248201527254696d657374616d7020696e2066757475726560681b6044820152606490fd5b60405162461bcd60e51b8152602060048201526014602482015273556e737570706f727465642063757272656e637960601b6044820152606490fd5b610ff8915060203d602011610ffe575b610ff08183611168565b810190611319565b38610c18565b503d610fe6565b6110259150823d841161102b575b61101d8183611168565b810190612164565b38610bdf565b503d611013565b60405162461bcd60e51b81526020600482015260166024820152752ab739bab83837b93a32b21034b232b73a34b334b2b960511b6044820152606490fd5b611089915060203d602011610ffe57610ff08183611168565b38610b8f565b6040513d85823e3d90fd5b6110b19150823d841161102b5761101d8183611168565b38610b5b565b60405162461bcd60e51b81526020600482015260156024820152741c995c5d595cdd141c9a58d94e88125b9d985b1a59605a1b6044820152606490fd5b634e487b7160e01b82526021600452602482fd5b61018081019081106001600160401b0382111761112457604052565b634e487b7160e01b600052604160045260246000fd5b6001600160401b03811161112457604052565b604081019081106001600160401b0382111761112457604052565b90601f801991011681019081106001600160401b0382111761112457604052565b6001600160401b03811161112457601f01601f191660200190565b81601f820112156111eb578035906111bb82611189565b926111c96040519485611168565b828452602083830101116111eb57816000926020809301838601378301015290565b600080fd5b60806003198201126111eb576004359160243591604435906001600160401b0382116111eb57611222916004016111a4565b9060643590565b60606003198201126111eb576004359160243591604435906001600160401b0382116111eb5761125b916004016111a4565b90565b600435906001600160a01b03821682036111eb57565b602435906001600160a01b03821682036111eb57565b9060806003198301126111eb576004356001600160a01b03811681036111eb57916024359160443591606435906001600160401b0382116111eb5761125b916004016111a4565b60005b8381106112e45750506000910152565b81810151838201526020016112d4565b9060209161130d815180928185528580860191016112d1565b601f01601f1916010190565b908160209103126111eb575180151581036111eb5790565b6040516323b872dd60e01b60208201526001600160a01b03928316602482015292909116604483015260648083019390935291815260a08101918183106001600160401b03841117611124576113899260405261138b565b565b604051611408916001600160a01b03166113a48261114d565b6000806020958685527f5361666545524332303a206c6f772d6c6576656c2063616c6c206661696c656487860152868151910182855af13d15611490573d916113ec83611189565b926113fa6040519485611168565b83523d60008785013e611494565b805190828215928315611478575b505050156114215750565b6084906040519062461bcd60e51b82526004820152602a60248201527f5361666545524332303a204552433230206f7065726174696f6e20646964206e6044820152691bdd081cdd58d8d9595960b21b6064820152fd5b6114889350820181019101611319565b388281611416565b6060915b919290156114f657508151156114a8575090565b3b156114b15790565b60405162461bcd60e51b815260206004820152601d60248201527f416464726573733a2063616c6c20746f206e6f6e2d636f6e74726163740000006044820152606490fd5b8251909150156115095750805190602001fd5b60405162461bcd60e51b81526020600482015290819061152d9060248301906112f4565b0390fd5b60ff60015460a01c161561154157565b60405162461bcd60e51b815260206004820152601f60248201527f5265656e7472616e637947756172643a207265656e7472616e742063616c6c006044820152606490fd5b9190820180921161159357565b634e487b7160e01b600052601160045260246000fd5b929495939091956115b8611531565b6001805460ff60a01b19908116909155956001600160a01b039485169384156117c0576115e784838b84612038565b60078110156117aa576001036117655761160384838b84611ce7565b946000958652856020526040862096816001600160601b0360a01b8954161788558460038901557f6e51dd00371aabffa82cd401592f76ed51e98a9ea4b58751c70463a2c78b5ca16116676116566124b6565b60098b0154801561175b5790611586565b9860058101998a558c8360026116866008850154600786015490611586565b9c8d80611742575b505493015416938616978894604051938493845289602085015260c060408501526116bc60c085018d6112f4565b926060850152608084015260a08301520390a33b6116ee575b505060018054909516600160a01b179094555092509050565b813b1561173e578361171a9596979860405196879586948593639c2fd1df60e01b855260048501611805565b03925af161172f575b908180808695946116d5565b6117389061113a565b38611723565b8380fd5b6117559084848801541630903390611331565b8d61168e565b5060035490611586565b60405162461bcd60e51b815260206004820152601a60248201527f70726f706f73655072696365466f723a205265717565737465640000000000006044820152606490fd5b634e487b7160e01b600052602160045260246000fd5b60405162461bcd60e51b815260206004820152601e60248201527f70726f706f7365722061646472657373206d757374206265206e6f6e203000006044820152606490fd5b61125b93926060928252602082015281604082015201906112f4565b9290919493600091611831611531565b6001805460ff60a01b1990811682559790956001600160a01b039081168015611c42576118608585858a612038565b60078110156103ca57600203611bfd578661187e8686868c9b611ce7565b8752602091878352604092838920908a8201836001600160601b0360a01b8254161790556007820154906118d660088401926118bb818554611586565b9d8e80611be3575b506118cc6121f4565b9454901c90611586565b80611a80575b505050846118e8612183565b166118fb846118f561223c565b8b612263565b90803b15611a7c57855163085999a960e21b8152918b918391829084908290611929908f8f60048501611805565b03925af18015611a7257908a91611a5a575b50907f5165909c3d1c01c5d1e121ac6f6d01dda1ba24bc9e1f975b5a375339c15be7f3979695949392919460068201805480151580611a49575b611a2b575b50506003818354169201549084169889918b61199c88519283928d8d85611c87565b0390a43b6119bb575b5050505050505092600160a01b90825416179055565b843b15611a27578694926119fa969492869251978896879586946306c791b960e11b8652600486015260248501526080604485015260848401906112f4565b90606483015203925af1611a13575b80808080806119a5565b611a1d829161113a565b6101215780611a09565b8680fd5b611a429197508c8198558583600286015416611cae565b388061197a565b5060ff600285015460a81c16611975565b611a639061113a565b611a6e57883861193b565b8880fd5b85513d8c823e3d90fd5b8a80fd5b600284019288808554169116908851636eb1769f60e11b81523060048201528260248201528481604481855afa908115611bd757908f91859291611ba0575b50611ad2611b0e949392611b0992611586565b8b5163095ea7b360e01b888201526001600160a01b039094166024850152604484015282606481015b03601f198101845283611168565b61138b565b8780611b186121f4565b169354169087519283018381106001600160401b03821117611b8c5788528252823b15611b88579060448c92838951958694859363432ce91960e11b855260048501525160248401525af18015611a7257611b75575b80806118dc565b611b819099919961113a565b9738611b6e565b8b80fd5b634e487b7160e01b8e52604160045260248efd5b809250868092503d8311611bd0575b611bb98183611168565b81010312611bcc57518390611ad2611abf565b8e80fd5b503d611baf565b8f8b51903d90823e3d90fd5b611bf7908b60028901541630903390611331565b8e6118c3565b60405162461bcd60e51b815260206004820152601960248201527f646973707574655072696365466f723a2050726f706f736564000000000000006044820152606490fd5b60405162461bcd60e51b815260206004820152601e60248201527f64697370757465722061646472657373206d757374206265206e6f6e203000006044820152606490fd5b949392606092611ca992875260208701526080604087015260808601906112f4565b930152565b60405163a9059cbb60e01b60208201526001600160a01b039092166024830152604482019290925261138991611b098260648101611afb565b92611d379160749160405194859260208401976001600160601b03199060601b16885260348401526054830152611d2781518092602086860191016112d1565b8101036054810184520182611168565b51902090565b9392919091600091611d5182828689612038565b93611d5e8383838a611ce7565b84526020848152604080862060028101805460ff60a01b198116600160a01b178255939a90989293909260078110156120245760038103611eb65750509081611deb9a6003611e4a9796959401546004830155611dd2611dc76008840154600785015490611586565b600684015490611586565b9b8c809b60018060a01b03809154169085541690611cae565b877f3f384afb4bd9f0aef0298c80399950011420eb33b0e1a750b20966270247b9a060018060a01b03928784865416946004816001890154169701549e8f9189169c8d968d8c51968796875286015260a08c86015260a08501906112f4565b91606084015260808301520390a43b611e67575b50505050505050565b833b15611eb25790611e8f869251978896879586946304cc1fd560e01b865260048601611c87565b03925af1611ea3575b808080808080611e5e565b611eac9061113a565b38611e98565b8580fd5b909a9850600503611fe0576001600160a01b0397611f07818a611ed7612183565b16611eea86611ee461223c565b8c612263565b90875180809581946338ce36ab60e11b83528d8d60048501611805565b03915afa908115611fd6578991611fa9575b508060048401556003830154141560088301548060011c810390808211611f955791611f6d611f62611f57611f8694611e4a9c9b9a99989796611586565b600787015490611586565b600686015490611586565b9d8e9c8d9215611f8b5780600187015416915b16611cae565b611deb565b8086541691611f80565b634e487b7160e01b8b52601160045260248bfd5b90508181813d8311611fcf575b611fc08183611168565b81010312611a6e575138611f19565b503d611fb6565b85513d8b823e3d90fd5b825162461bcd60e51b815260048101899052601760248201527f5f736574746c653a206e6f7420736574746c6561626c650000000000000000006044820152606490fd5b634e487b7160e01b89526021600452602489fd5b92909161204782828587611ce7565b600090815260208190526040812060028101549195916001600160a01b0391908281161561215a57828254161561214d5760a01c60ff1661214157816001820154161561211d5750916120af602094926120cd9796946120a5612183565b16936102eb61223c565b604051630b551cd560e41b8152968794859384939160048501611805565b03915afa9182156121105781926120f0575b5050156120eb57600590565b600490565b61210991925060203d8111610ffe57610ff08183611168565b90386120df565b50604051903d90823e3d90fd5b93505050506005915001546121306124b6565b10905061213c57600390565b600290565b50505050505050600690565b5050505050505050600190565b5050505050505090565b908160209103126111eb57516001600160a01b03811681036111eb5790565b6002546040516302abf57960e61b8152654f7261636c6560d01b60048201526001600160a01b03916020908290602490829086165afa9081156121e8576000916121cc57501690565b6121e4915060203d811161102b5761101d8183611168565b1690565b6040513d6000823e3d90fd5b6002546040516302abf57960e61b81526453746f726560d81b60048201526001600160a01b03916020908290602490829086165afa9081156121e8576000916121cc57501690565b604051906122498261114d565b600b82526a37b7a932b8bab2b9ba32b960a91b6020830152565b9061226e9082612437565b9061228d6fffffffffffffffffffffffffffffffff8460201c16612330565b926001600160c01b0319906122b39060601b6bffffffffffffffffffffffff1916612330565b16604051906020820194855260408201526028815260608101938185106001600160401b038611176111245761125b93602093866040526122fd81518092876080880191016112d1565b830161231282518093876080850191016112d1565b016123248351809360808401906112d1565b01038084520182611168565b7f3030303030303030303030303030303030303030303030303030303030303030906001600160401b038060801b8260401b169116178060201b1779ffff000000000000ffff000000000000ffff000000000000ffff7dffff000000000000ffff000000000000ffff000000000000ffff000000008260101b169116178060081b177e0f000f000f000f000f000f000f000f000f000f000f000f000f000f000f000f7f0f000f000f000f000f000f000f000f000f000f000f000f000f000f000f000f008260041b1691161760277f0101010101010101010101010101010101010101010101010101010101010101808360011c16818460021c16178360031c161602010190565b511561247f5761125b60226040518093600b60fa1b60208301526124658151809260206021860191016112d1565b8101601d60f91b6021820152036002810184520182611168565b61125b60216040518361249c8295518092602080860191016112d1565b8101601d60f91b6020820152036001810184520182611168565b6001546001600160a01b03168015612520576020600491604051928380926329cb924d60e01b82525afa9081156121e8576000916124f2575090565b906020823d8211612518575b8161250b60209383611168565b8101031261012157505190565b3d91506124fe565b50429056fea264697066735822122080efbedfece0da01cf36040ae6684e43cde8d7840a3e4ad80e7a0c17210c45b964736f6c63430008100033",
  "devdoc": {
    "kind": "dev",
    "methods": {
      "constructor": {
        "params": {
          "_finderAddress": "finder to use to get addresses of DVM contracts.",
          "_liveness": "default liveness applied to each price request.",
          "_timerAddress": "address of the timer contract. Should be 0x0 in prod."
        }
      },
      "disputePrice(address,bytes32,uint256,bytes)": {
        "params": {
          "ancillaryData": "ancillary data of the price being requested.",
          "identifier": "price identifier to identify the existing request.",
          "requester": "sender of the initial price request.",
          "timestamp": "timestamp to identify the existing request."
        },
        "returns": {
          "totalBond": "the amount that's pulled from the disputer's wallet as a bond. The bond will be returned to the disputer once settled if the dispute was valid (the proposal was incorrect)."
        }
      },
      "disputePriceFor(address,address,bytes32,uint256,bytes)": {
        "params": {
          "ancillaryData": "ancillary data of the price being requested.",
          "disputer": "address to set as the disputer.",
          "identifier": "price identifier to identify the existing request.",
          "requester": "sender of the initial price request.",
          "timestamp": "timestamp to identify the existing request."
        },
        "returns": {
          "totalBond": "the amount that's pulled from the caller's wallet as a bond. The bond will be returned to the disputer once settled if the dispute was valid (the proposal was incorrect)."
        }
      },
      "getRequest(address,bytes32,uint256,bytes)": {
        "params": {
          "ancillaryData": "ancillary data of the price being requested.",
          "identifier": "price identifier to identify the existing request.",
          "requester": "sender of the initial price request.",
          "timestamp": "timestamp to identify the existing request."
        },
        "returns": {
          "_0": "the Request data structure."
        }
      },
      "getState(address,bytes32,uint256,bytes)": {
        "params": {
          "ancillaryData": "ancillary data of the price being requested.",
          "identifier": "price identifier to identify the existing request.",
          "requester": "sender of the initial price request.",
          "timestamp": "timestamp to identify the existing request."
        },
        "returns": {
          "_0": "the State."
        }
      },
      "hasPrice(address,bytes32,uint256,bytes)": {
        "params": {
          "ancillaryData": "ancillary data of the price being requested.",
          "identifier": "price identifier to identify the existing request.",
          "requester": "sender of the initial price request.",
          "timestamp": "timestamp to identify the existing request."
        },
        "returns": {
          "_0": "boolean indicating true if price exists and false if not."
        }
      },
      "proposePrice(address,bytes32,uint256,bytes,int256)": {
        "params": {
          "ancillaryData": "ancillary data of the price being requested.",
          "identifier": "price identifier to identify the existing request.",
          "proposedPrice": "price being proposed.",
          "requester": "sender of the initial price request.",
          "timestamp": "timestamp to identify the existing request."
        },
        "returns": {
          "totalBond": "the amount that's pulled from the proposer's wallet as a bond. The bond will be returned to the proposer once settled if the proposal is correct."
        }
      },
      "proposePriceFor(address,address,bytes32,uint256,bytes,int256)": {
        "params": {
          "ancillaryData": "ancillary data of the price being requested.",
          "identifier": "price identifier to identify the existing request.",
          "proposedPrice": "price being proposed.",
          "proposer": "address to set as the proposer.",
          "requester": "sender of the initial price request.",
          "timestamp": "timestamp to identify the existing request."
        },
        "returns": {
          "totalBond": "the amount that's pulled from the caller's wallet as a bond. The bond will be returned to the proposer once settled if the proposal is correct."
        }
      },
      "requestPrice(bytes32,uint256,bytes,address,uint256)": {
        "params": {
          "ancillaryData": "ancillary data representing additional args being passed with the price request.",
          "currency": "ERC20 token used for payment of rewards and fees. Must be approved for use with the DVM.",
          "identifier": "price identifier being requested.",
          "reward": "reward offered to a successful proposer. Will be pulled from the caller. Note: this can be 0,               which could make sense if the contract requests and proposes the value in the same call or               provides its own reward system.",
          "timestamp": "timestamp of the price being requested."
        },
        "returns": {
          "totalBond": "default bond (final fee) + final fee that the proposer and disputer will be required to pay. This can be changed with a subsequent call to setBond()."
        }
      },
      "setBond(bytes32,uint256,bytes,uint256)": {
        "params": {
          "ancillaryData": "ancillary data of the price being requested.",
          "bond": "custom bond amount to set.",
          "identifier": "price identifier to identify the existing request.",
          "timestamp": "timestamp to identify the existing request."
        },
        "returns": {
          "totalBond": "new bond + final fee that the proposer and disputer will be required to pay. This can be changed again with a subsequent call to setBond()."
        }
      },
      "setCurrentTime(uint256)": {
        "details": "Will revert if not running in test mode.",
        "params": {
          "time": "timestamp to set current Testable time to."
        }
      },
      "setCustomLiveness(bytes32,uint256,bytes,uint256)": {
        "params": {
          "ancillaryData": "ancillary data of the price being requested.",
          "customLiveness": "new custom liveness.",
          "identifier": "price identifier to identify the existing request.",
          "timestamp": "timestamp to identify the existing request."
        }
      },
      "setRefundOnDispute(bytes32,uint256,bytes)": {
        "params": {
          "ancillaryData": "ancillary data of the price being requested.",
          "identifier": "price identifier to identify the existing request.",
          "timestamp": "timestamp to identify the existing request."
        }
      },
      "settle(address,bytes32,uint256,bytes)": {
        "params": {
          "ancillaryData": "ancillary data of the price being requested.",
          "identifier": "price identifier to identify the existing request.",
          "requester": "sender of the initial price request.",
          "timestamp": "timestamp to identify the existing request."
        },
        "returns": {
          "payout": "the amount that the \"winner\" (proposer or disputer) receives on settlement. This amount includes the returned bonds as well as additional rewards."
        }
      },
      "settleAndGetPrice(bytes32,uint256,bytes)": {
        "params": {
          "ancillaryData": "ancillary data of the price being requested.",
          "identifier": "price identifier to identify the existing request.",
          "timestamp": "timestamp to identify the existing request."
        },
        "returns": {
          "_0": "resolved price."
        }
      },
      "stampAncillaryData(bytes,address)": {
        "params": {
          "ancillaryData": "ancillary data of the price being requested.",
          "requester": "sender of the initial price request."
        },
        "returns": {
          "_0": "the stamped ancillary bytes."
        }
      }
    },
    "title": "Optimistic Oracle.",
    "version": 1
  },
  "userdoc": {
    "kind": "user",
    "methods": {
      "constructor": {
        "notice": "Constructor."
      },
      "disputePrice(address,bytes32,uint256,bytes)": {
        "notice": "Disputes a price value for an existing price request with an active proposal."
      },
      "disputePriceFor(address,address,bytes32,uint256,bytes)": {
        "notice": "Disputes a price request with an active proposal on another address' behalf. Note: this address will receive any rewards that come from this dispute. However, any bonds are pulled from the caller."
      },
      "getRequest(address,bytes32,uint256,bytes)": {
        "notice": "Gets the current data structure containing all information about a price request."
      },
      "getState(address,bytes32,uint256,bytes)": {
        "notice": "Computes the current state of a price request. See the State enum for more details."
      },
      "hasPrice(address,bytes32,uint256,bytes)": {
        "notice": "Checks if a given request has resolved, expired or been settled (i.e the optimistic oracle has a price)."
      },
      "proposePrice(address,bytes32,uint256,bytes,int256)": {
        "notice": "Proposes a price value for an existing price request."
      },
      "proposePriceFor(address,address,bytes32,uint256,bytes,int256)": {
        "notice": "Proposes a price value on another address' behalf. Note: this address will receive any rewards that come from this proposal. However, any bonds are pulled from the caller."
      },
      "requestPrice(bytes32,uint256,bytes,address,uint256)": {
        "notice": "Requests a new price."
      },
      "setBond(bytes32,uint256,bytes,uint256)": {
        "notice": "Set the proposal bond associated with a price request."
      },
      "setCurrentTime(uint256)": {
        "notice": "Sets the current time."
      },
      "setCustomLiveness(bytes32,uint256,bytes,uint256)": {
        "notice": "Sets a custom liveness value for the request. Liveness is the amount of time a proposal must wait before being auto-resolved."
      },
      "setRefundOnDispute(bytes32,uint256,bytes)": {
        "notice": "Sets the request to refund the reward if the proposal is disputed. This can help to \"hedge\" the caller in the event of a dispute-caused delay. Note: in the event of a dispute, the winner still receives the other's bond, so there is still profit to be made even if the reward is refunded."
      },
      "settle(address,bytes32,uint256,bytes)": {
        "notice": "Attempts to settle an outstanding price request. Will revert if it isn't settleable."
      },
      "settleAndGetPrice(bytes32,uint256,bytes)": {
        "notice": "Retrieves a price that was previously requested by a caller. Reverts if the request is not settled or settleable. Note: this method is not view so that this call may actually settle the price request if it hasn't been settled."
      },
      "stampAncillaryData(bytes,address)": {
        "notice": "Generates stamped ancillary data in the format that it would be used in the case of a price dispute."
      }
    },
    "notice": "Pre-DVM escalation contract that allows faster settlement.",
    "version": 1
  },
  "storageLayout": {
    "storage": [
      {
        "astId": 62470,
        "contract": "contracts/optimistic-oracle-v2/previous-versions/OptimisticOracle.sol:OptimisticOracle",
        "label": "requests",
        "offset": 0,
        "slot": "0",
        "type": "t_mapping(t_bytes32,t_struct(Request)62446_storage)"
      },
      {
        "astId": 17751,
        "contract": "contracts/optimistic-oracle-v2/previous-versions/OptimisticOracle.sol:OptimisticOracle",
        "label": "timerAddress",
        "offset": 0,
        "slot": "1",
        "type": "t_address"
      },
      {
        "astId": 16304,
        "contract": "contracts/optimistic-oracle-v2/previous-versions/OptimisticOracle.sol:OptimisticOracle",
        "label": "_notEntered",
        "offset": 20,
        "slot": "1",
        "type": "t_bool"
      },
      {
        "astId": 63553,
        "contract": "contracts/optimistic-oracle-v2/previous-versions/OptimisticOracle.sol:OptimisticOracle",
        "label": "finder",
        "offset": 0,
        "slot": "2",
        "type": "t_contract(FinderInterface)36753"
      },
      {
        "astId": 63556,
        "contract": "contracts/optimistic-oracle-v2/previous-versions/OptimisticOracle.sol:OptimisticOracle",
        "label": "defaultLiveness",
        "offset": 0,
        "slot": "3",
        "type": "t_uint256"
      }
    ],
    "types": {
      "t_address": {
        "encoding": "inplace",
        "label": "address",
        "numberOfBytes": "20"
      },
      "t_bool": {
        "encoding": "inplace",
        "label": "bool",
        "numberOfBytes": "1"
      },
      "t_bytes32": {
        "encoding": "inplace",
        "label": "bytes32",
        "numberOfBytes": "32"
      },
      "t_contract(FinderInterface)36753": {
        "encoding": "inplace",
        "label": "contract FinderInterface",
        "numberOfBytes": "20"
      },
      "t_contract(IERC20)5182": {
        "encoding": "inplace",
        "label": "contract IERC20",
        "numberOfBytes": "20"
      },
      "t_int256": {
        "encoding": "inplace",
        "label": "int256",
        "numberOfBytes": "32"
      },
      "t_mapping(t_bytes32,t_struct(Request)62446_storage)": {
        "encoding": "mapping",
        "key": "t_bytes32",
        "label": "mapping(bytes32 => struct OptimisticOracleInterface.Request)",
        "numberOfBytes": "32",
        "value": "t_struct(Request)62446_storage"
      },
      "t_struct(Request)62446_storage": {
        "encoding": "inplace",
        "label": "struct OptimisticOracleInterface.Request",
        "members": [
          {
            "astId": 62422,
            "contract": "contracts/optimistic-oracle-v2/previous-versions/OptimisticOracle.sol:OptimisticOracle",
            "label": "proposer",
            "offset": 0,
            "slot": "0",
            "type": "t_address"
          },
          {
            "astId": 62424,
            "contract": "contracts/optimistic-oracle-v2/previous-versions/OptimisticOracle.sol:OptimisticOracle",
            "label": "disputer",
            "offset": 0,
            "slot": "1",
            "type": "t_address"
          },
          {
            "astId": 62427,
            "contract": "contracts/optimistic-oracle-v2/previous-versions/OptimisticOracle.sol:OptimisticOracle",
            "label": "currency",
            "offset": 0,
            "slot": "2",
            "type": "t_contract(IERC20)5182"
          },
          {
            "astId": 62429,
            "contract": "contracts/optimistic-oracle-v2/previous-versions/OptimisticOracle.sol:OptimisticOracle",
            "label": "settled",
            "offset": 20,
            "slot": "2",
            "type": "t_bool"
          },
          {
            "astId": 62431,
            "contract": "contracts/optimistic-oracle-v2/previous-versions/OptimisticOracle.sol:OptimisticOracle",
            "label": "refundOnDispute",
            "offset": 21,
            "slot": "2",
            "type": "t_bool"
          },
          {
            "astId": 62433,
            "contract": "contracts/optimistic-oracle-v2/previous-versions/OptimisticOracle.sol:OptimisticOracle",
            "label": "proposedPrice",
            "offset": 0,
            "slot": "3",
            "type": "t_int256"
          },
          {
            "astId": 62435,
            "contract": "contracts/optimistic-oracle-v2/previous-versions/OptimisticOracle.sol:OptimisticOracle",
            "label": "resolvedPrice",
            "offset": 0,
            "slot": "4",
            "type": "t_int256"
          },
          {
            "astId": 62437,
            "contract": "contracts/optimistic-oracle-v2/previous-versions/OptimisticOracle.sol:OptimisticOracle",
            "label": "expirationTime",
            "offset": 0,
            "slot": "5",
            "type": "t_uint256"
          },
          {
            "astId": 62439,
            "contract": "contracts/optimistic-oracle-v2/previous-versions/OptimisticOracle.sol:OptimisticOracle",
            "label": "reward",
            "offset": 0,
            "slot": "6",
            "type": "t_uint256"
          },
          {
            "astId": 62441,
            "contract": "contracts/optimistic-oracle-v2/previous-versions/OptimisticOracle.sol:OptimisticOracle",
            "label": "finalFee",
            "offset": 0,
            "slot": "7",
            "type": "t_uint256"
          },
          {
            "astId": 62443,
            "contract": "contracts/optimistic-oracle-v2/previous-versions/OptimisticOracle.sol:OptimisticOracle",
            "label": "bond",
            "offset": 0,
            "slot": "8",
            "type": "t_uint256"
          },
          {
            "astId": 62445,
            "contract": "contracts/optimistic-oracle-v2/previous-versions/OptimisticOracle.sol:OptimisticOracle",
            "label": "customLiveness",
            "offset": 0,
            "slot": "9",
            "type": "t_uint256"
          }
        ],
        "numberOfBytes": "320"
      },
      "t_uint256": {
        "encoding": "inplace",
        "label": "uint256",
        "numberOfBytes": "32"
      }
    }
  }
}