{
  "address": "0x2Ec2F662C1e1D02Bad43A813E4022C1Eb55Ef041",
  "abi": [
    {
      "inputs": [
        {
          "internalType": "address",
          "name": "_finderAddress",
          "type": "address"
        }
      ],
      "stateMutability": "nonpayable",
      "type": "constructor"
    },
    {
      "anonymous": false,
      "inputs": [
        {
          "indexed": true,
          "internalType": "bytes32",
          "name": "identifier",
          "type": "bytes32"
        },
        {
          "indexed": false,
          "internalType": "uint256",
          "name": "time",
          "type": "uint256"
        },
        {
          "indexed": false,
          "internalType": "bytes",
          "name": "ancillaryData",
          "type": "bytes"
        },
        {
          "indexed": true,
          "internalType": "bytes32",
          "name": "requestHash",
          "type": "bytes32"
        }
      ],
      "name": "PriceRequestAdded",
      "type": "event"
    },
    {
      "anonymous": false,
      "inputs": [
        {
          "indexed": true,
          "internalType": "bytes32",
          "name": "identifier",
          "type": "bytes32"
        },
        {
          "indexed": false,
          "internalType": "uint256",
          "name": "time",
          "type": "uint256"
        },
        {
          "indexed": false,
          "internalType": "bytes",
          "name": "ancillaryData",
          "type": "bytes"
        },
        {
          "indexed": false,
          "internalType": "int256",
          "name": "price",
          "type": "int256"
        },
        {
          "indexed": true,
          "internalType": "bytes32",
          "name": "requestHash",
          "type": "bytes32"
        }
      ],
      "name": "PushedPrice",
      "type": "event"
    },
    {
      "inputs": [],
      "name": "finder",
      "outputs": [
        {
          "internalType": "contract FinderInterface",
          "name": "",
          "type": "address"
        }
      ],
      "stateMutability": "view",
      "type": "function"
    },
    {
      "inputs": [],
      "name": "getChildMessenger",
      "outputs": [
        {
          "internalType": "contract ChildMessengerInterface",
          "name": "",
          "type": "address"
        }
      ],
      "stateMutability": "view",
      "type": "function"
    },
    {
      "inputs": [
        {
          "internalType": "bytes32",
          "name": "identifier",
          "type": "bytes32"
        },
        {
          "internalType": "uint256",
          "name": "time",
          "type": "uint256"
        },
        {
          "internalType": "bytes",
          "name": "ancillaryData",
          "type": "bytes"
        }
      ],
      "name": "getPrice",
      "outputs": [
        {
          "internalType": "int256",
          "name": "",
          "type": "int256"
        }
      ],
      "stateMutability": "view",
      "type": "function"
    },
    {
      "inputs": [
        {
          "internalType": "bytes32",
          "name": "identifier",
          "type": "bytes32"
        },
        {
          "internalType": "uint256",
          "name": "time",
          "type": "uint256"
        }
      ],
      "name": "getPrice",
      "outputs": [
        {
          "internalType": "int256",
          "name": "",
          "type": "int256"
        }
      ],
      "stateMutability": "view",
      "type": "function"
    },
    {
      "inputs": [
        {
          "internalType": "bytes32",
          "name": "identifier",
          "type": "bytes32"
        },
        {
          "internalType": "uint256",
          "name": "time",
          "type": "uint256"
        }
      ],
      "name": "hasPrice",
      "outputs": [
        {
          "internalType": "bool",
          "name": "",
          "type": "bool"
        }
      ],
      "stateMutability": "view",
      "type": "function"
    },
    {
      "inputs": [
        {
          "internalType": "bytes32",
          "name": "identifier",
          "type": "bytes32"
        },
        {
          "internalType": "uint256",
          "name": "time",
          "type": "uint256"
        },
        {
          "internalType": "bytes",
          "name": "ancillaryData",
          "type": "bytes"
        }
      ],
      "name": "hasPrice",
      "outputs": [
        {
          "internalType": "bool",
          "name": "",
          "type": "bool"
        }
      ],
      "stateMutability": "view",
      "type": "function"
    },
    {
      "inputs": [
        {
          "internalType": "bytes",
          "name": "data",
          "type": "bytes"
        }
      ],
      "name": "processMessageFromParent",
      "outputs": [],
      "stateMutability": "nonpayable",
      "type": "function"
    },
    {
      "inputs": [
        {
          "internalType": "bytes32",
          "name": "identifier",
          "type": "bytes32"
        },
        {
          "internalType": "uint256",
          "name": "time",
          "type": "uint256"
        },
        {
          "internalType": "bytes",
          "name": "ancillaryData",
          "type": "bytes"
        }
      ],
      "name": "requestPrice",
      "outputs": [],
      "stateMutability": "nonpayable",
      "type": "function"
    },
    {
      "inputs": [
        {
          "internalType": "bytes32",
          "name": "identifier",
          "type": "bytes32"
        },
        {
          "internalType": "uint256",
          "name": "time",
          "type": "uint256"
        }
      ],
      "name": "requestPrice",
      "outputs": [],
      "stateMutability": "nonpayable",
      "type": "function"
    },
    {
      "inputs": [
        {
          "internalType": "bytes",
          "name": "ancillaryData",
          "type": "bytes"
        }
      ],
      "name": "stampAncillaryData",
      "outputs": [
        {
          "internalType": "bytes",
          "name": "",
          "type": "bytes"
        }
      ],
      "stateMutability": "view",
      "type": "function"
    }
  ],
  "transactionHash": "0x7ea0cde8cbe8641f8a155a43b8ef2340b97dd6a640a752173dc01aafb3adc22b",
  "args": [
    "0xA969917A4dFaB07936dEc60f70FA5c736A1e2b9e"
  ],
  "solcInputHash": "864d61c65c789401ae17358a5af86557",
  "bytecode": "0x60803461008157601f6111f838819003918201601f19168301916001600160401b038311848410176100865780849260209460405283398101031261008157516001600160a01b0381169081900361008157600080546001600160a01b0319169190911790556002805460ff1916600117905560405161115b908161009d8239f35b600080fd5b634e487b7160e01b600052604160045260246000fdfe6040608081526004908136101561001557600080fd5b6000803560e01c80630c17661d146109ce5780630cbfde4614610892578063216666a4146106d35780632d189d35146106a557806368ad8ae3146104e0578063719c6d5614610419578063a03e881a1461033a578063b551cd5014610233578063b9a3c84c146102075763c9280f061461008e57600080fd5b346102045761009c36610b8f565b93906100a6610c44565b825484516302abf57960e61b815267526567697374727960c01b84820152602096916001600160a01b03919088908290602490829086165afa9081156101fa5790889187916101cd575b50602488518094819363f9f6b49b60e01b8352338a840152165afa9081156101c357610150939291610129918791610196575b50610bdc565b61014a865161013781610a4f565b8681524690610144610e8f565b90610eb7565b91610d7e565b8252600184528282209160ff8354169160038310156101835750509061017a600260019314610e43565b01549051908152f35b634e487b7160e01b825260219052602490fd5b6101b69150893d8b116101bc575b6101ae8183610a87565b810190610bc4565b38610123565b503d6101a4565b86513d87823e3d90fd5b6101ed9150823d84116101f3575b6101e58183610a87565b810190610ba5565b386100f0565b503d6101db565b87513d88823e3d90fd5b80fd5b50903461022f578160031936011261022f57905490516001600160a01b039091168152602090f35b5080fd5b509190346103365761024436610b59565b94919061024f610c44565b825484516302abf57960e61b815267526567697374727960c01b87820152602097916001600160a01b03919089908290602490829086165afa9081156101fa579089918791610319575b50602488518094819363f9f6b49b60e01b8352338d840152165afa9081156101c357916102d561014a926102df96959488916103025750610bdc565b4690610144610e8f565b81526001845260ff82822054169260038410156101835750506002905191148152f35b6101b691508b3d8d116101bc576101ae8183610a87565b6103309150823d84116101f3576101e58183610a87565b38610299565b8280fd5b509190346103365761034b36610b8f565b9390610355610c44565b815483516302abf57960e61b815267526567697374727960c01b86820152602096916001600160a01b03919088908290602490829086165afa9081156101c35790889186916103fc575b50602487518094819363f9f6b49b60e01b8352338c840152165afa9081156103f2576102df9392916103d79186916101965750610bdc565b61014a85516103e581610a4f565b8581524690610144610e8f565b85513d86823e3d90fd5b6104139150823d84116101f3576101e58183610a87565b3861039f565b50346102045761042836610b59565b949190610433610c44565b835485516302abf57960e61b815267526567697374727960c01b85820152602097916001600160a01b03919089908290602490829086165afa9081156104d65790899188916104b9575b50602489518094819363f9f6b49b60e01b8352338b840152165afa9081156101fa57916102d561014a9261015096959489916103025750610bdc565b6104d09150823d84116101f3576101e58183610a87565b3861047d565b88513d89823e3d90fd5b50913461033657826104f136610b8f565b926104fa610c44565b60ff1993846002541660025560018060a01b03928385541693875180956302abf57960e61b825267526567697374727960c01b8683015281602460209889935afa90811561067e57829187918991610688575b5060248b518094819363f9f6b49b60e01b8352338b840152165afa801561067e5761057e9188916106675750610bdc565b6105a361059c895161058f81610a4f565b8881524690610144610e8f565b8484610c96565b6105b8575b8588600189600254161760025551f35b6105ff906105c46110ac565b16916105f16105e48a516105d781610a4f565b8981524690610144610e8f565b8a51958693898501610c28565b03601f198101845283610a87565b803b156106635761062d93858094895196879586948593636cc175dd60e11b85528401526024830190610b34565b03925af1801561065957610645575b808080806105a8565b61064e90610a25565b61033657823861063c565b84513d84823e3d90fd5b8480fd5b6101b69150873d89116101bc576101ae8183610a87565b89513d89823e3d90fd5b61069f9150823d84116101f3576101e58183610a87565b3861054d565b50903461022f578160031936011261022f576020906106c26110ac565b90516001600160a01b039091168152f35b5080923461022f576106e436610b59565b6106ef949294610c44565b6002805460ff19908116909155835487516302abf57960e61b815267526567697374727960c01b87820152919660209290916001600160a01b03919084908290602490829086165afa90811561086b57829185918991610875575b508b5163f9f6b49b60e01b8152338b8201529283916024918391165afa801561086b5761077d9188916108545750610bdc565b6107996107924661078c610e8f565b87610eb7565b8684610c96565b6107ae575b858960018a600254161760025551f35b906107da6107cd6107e8936107c16110ac565b16954690610144610e8f565b8a51968793868501610c28565b03601f198101855284610a87565b813b15610850578651636cc175dd60e11b8152948501528391829084908290610815906024830190610b34565b03925af180156108435761082f575b83818080808061079e565b9261083c60019294610a25565b9290610824565b50505051903d90823e3d90fd5b8380fd5b6101b69150853d87116101bc576101ae8183610a87565b8a513d89823e3d90fd5b61088c9150823d84116101f3576101e58183610a87565b3861074a565b50913461033657602090816003193601126108505767ffffffffffffffff81358181116109ca576108c69036908401610ac5565b906108cf610c44565b6002805460ff19908116909155926001600160a01b036108ed6110ac565b1633036109875750815182016080838683019203126109835784830151918684015190606085015190811161097f57840182603f8201121561097f57868101519461093786610aa9565b936109448a519586610a87565b86855289878401011161097b57610968610970966080938b60019b88019101610b11565b015192610dac565b600254161760025551f35b8980fd5b8880fd5b8680fd5b855162461bcd60e51b8152908101859052601860248201527f43616c6c6572206d757374206265206d657373656e67657200000000000000006044820152606490fd5b8580fd5b50346102045760203660031901126102045782359067ffffffffffffffff82116102045750610a06610a2193610a0e92369101610ac5565b6102d5610c44565b9051918291602083526020830190610b34565b0390f35b67ffffffffffffffff8111610a3957604052565b634e487b7160e01b600052604160045260246000fd5b6020810190811067ffffffffffffffff821117610a3957604052565b6040810190811067ffffffffffffffff821117610a3957604052565b90601f8019910116810190811067ffffffffffffffff821117610a3957604052565b67ffffffffffffffff8111610a3957601f01601f191660200190565b81601f82011215610b0c57803590610adc82610aa9565b92610aea6040519485610a87565b82845260208383010111610b0c57816000926020809301838601378301015290565b600080fd5b60005b838110610b245750506000910152565b8181015183820152602001610b14565b90602091610b4d81518092818552858086019101610b11565b601f01601f1916010190565b6060600319820112610b0c5760043591602435916044359067ffffffffffffffff8211610b0c57610b8c91600401610ac5565b90565b6040906003190112610b0c576004359060243590565b90816020910312610b0c57516001600160a01b0381168103610b0c5790565b90816020910312610b0c57518015158103610b0c5790565b15610be357565b60405162461bcd60e51b815260206004820152601960248201527f43616c6c6572206d7573742062652072656769737465726564000000000000006044820152606490fd5b610b8c9392606092825260208201528160408201520190610b34565b60ff6002541615610c5157565b60405162461bcd60e51b815260206004820152601f60248201527f5265656e7472616e637947756172643a207265656e7472616e742063616c6c006044820152606490fd5b90612000835111610d4057610cac838284610d7e565b9283600052600160205260406000209182549260ff84166003811015610d2a57610d1f5760017f55ad1db144341b8105784dba37a7cb1c3088262f75ea638cfb7c8ecfb73751c69460ff1916179055610d176040519283928352604060208401526040830190610b34565b0390a3600190565b505050505050600090565b634e487b7160e01b600052602160045260246000fd5b60405162461bcd60e51b8152602060048201526016602482015275496e76616c696420616e63696c6c617279206461746160501b6044820152606490fd5b9190610da690610d98604051938492602084019687610c28565b03601f198101835282610a87565b51902090565b91929092610dbb818585610d7e565b9384600052600160205260406000209283549360ff85166003811015610d2a57600214610e3a5760027ffd38de8c79c8c3c553ecd154c6b11b67511ec8dee573c8a488a056d7335b34e89583600184015560ff1916179055610e2f6040519384938452606060208501526060840190610b34565b9060408301520390a3565b50505050505050565b15610e4a57565b60405162461bcd60e51b815260206004820152601b60248201527f507269636520686173206e6f74206265656e207265736f6c76656400000000006044820152606490fd5b60405190610e9c82610a6b565b600c82526b18da1a5b1910da185a5b925960a21b6020830152565b610ecd610ec7610b8c938361102d565b93610f1b565b926040519384918351610ee881602096878088019101610b11565b8301610efc82518093878085019101610b11565b01610f0f82518093868085019101610b11565b01038084520182610a87565b801561100f5780816000925b610ff75750610f3582610aa9565b91610f436040519384610a87565b80835281601f19610f5383610aa9565b01916020923684870137905b610f695750505090565b60001990808201908111610fe1578093600a808204809404811184151516610fe15783028103908111610fe15760ff809116603001908111610fe1578551821015610fcb5760f81b6001600160f81b03191660001a9085018301539182610f5f565b634e487b7160e01b600052603260045260246000fd5b634e487b7160e01b600052601160045260246000fd5b916000198114610fe1576001600a9101920480610f27565b5060405161101c81610a6b565b60018152600360fc1b602082015290565b511561107557610b8c60226040518093600b60fa1b602083015261105b815180926020602186019101610b11565b8101601d60f91b6021820152036002810184520182610a87565b610b8c602160405183611092829551809260208086019101610b11565b8101601d60f91b6020820152036001810184520182610a87565b6000546040516302abf57960e61b81526d21b434b63226b2b9b9b2b733b2b960911b60048201526001600160a01b03916020908290602490829086165afa908115611119576000916110fd57501690565b611115915060203d81116101f3576101e58183610a87565b1690565b6040513d6000823e3d90fdfea26469706673582212205de78227ab04d94a6a1d1db414fa64016a8e671c72597c8e26dd7c7d85f2374164736f6c63430008100033",
  "devdoc": {
    "details": "The intended client of this contract is an OptimisticOracle on sidechain that needs price resolution secured by the DVM on mainnet.",
    "kind": "dev",
    "methods": {
      "getChildMessenger()": {
        "returns": {
          "_0": "ChildMessengerInterface instance of child messenger deployed on L2."
        }
      },
      "getPrice(bytes32,uint256,bytes)": {
        "params": {
          "ancillaryData": "extra data of price request.",
          "identifier": "Identifier of price request.",
          "time": "Timestamp of price request"
        },
        "returns": {
          "_0": "int256 Price, or reverts if no resolved price for any reason."
        }
      },
      "hasPrice(bytes32,uint256,bytes)": {
        "params": {
          "ancillaryData": "extra data of price request.",
          "identifier": "Identifier of price request.",
          "time": "Timestamp of price request"
        },
        "returns": {
          "_0": "True if a price is available, False otherwise. If true, then getPrice will succeed for the request."
        }
      },
      "processMessageFromParent(bytes)": {
        "details": "Can only be called by the ChildMessenger contract which is designed to communicate only with the ParentMessenger contract on Mainnet. See the SpokeBase for the onlyMessenger modifier.",
        "params": {
          "data": "ABI encoded params with which to call `_publishPrice`."
        }
      },
      "requestPrice(bytes32,uint256,bytes)": {
        "details": "Can be called only by a registered contract that is allowed to make DVM price requests. Will mark this price request as Requested, and therefore able to receive the price resolution data from mainnet.Contract registration enables the DVM to validate that the calling contract correctly pays final fees. Therefore, this function does not directly attempt to pull a final fee from the caller.",
        "params": {
          "ancillaryData": "extra data of price request.",
          "identifier": "Identifier of price request.",
          "time": "Timestamp of price request."
        }
      },
      "stampAncillaryData(bytes)": {
        "params": {
          "ancillaryData": "ancillary data of the price being requested."
        },
        "returns": {
          "_0": "the stamped ancillary bytes."
        }
      }
    },
    "title": "Cross-chain Oracle L2 Oracle Spoke.",
    "version": 1
  },
  "userdoc": {
    "kind": "user",
    "methods": {
      "getChildMessenger()": {
        "notice": "Returns the child messenger address set in the finder."
      },
      "getPrice(bytes32,uint256)": {
        "notice": "Overloaded function to provide backwards compatibility for legacy financial contracts that do not use ancillary data."
      },
      "getPrice(bytes32,uint256,bytes)": {
        "notice": "Returns resolved price for the request. Reverts if price is not available."
      },
      "hasPrice(bytes32,uint256)": {
        "notice": "Overloaded function to provide backwards compatibility for legacy financial contracts that do not use ancillary data."
      },
      "hasPrice(bytes32,uint256,bytes)": {
        "notice": "Returns whether a price has resolved for the request. This method will not revert."
      },
      "processMessageFromParent(bytes)": {
        "notice": "Resolves a price request originating from a message sent by the DVM on the parent chain."
      },
      "requestPrice(bytes32,uint256)": {
        "notice": "Overloaded function to provide backwards compatibility for legacy financial contracts that do not use ancillary data."
      },
      "requestPrice(bytes32,uint256,bytes)": {
        "notice": "This is called to bridge a price request to mainnet. This method will enqueue a new price request or return silently if already requested. Price requests are relayed to mainnet (the \"Parent\" chain) via the ChildMessenger contract."
      },
      "stampAncillaryData(bytes)": {
        "notice": "Generates stamped ancillary data in the format that it would be used in the case of a price request."
      }
    },
    "notice": "This contract is primarily intended to receive messages on the child chain from a parent chain and allow contracts deployed on the child chain to interact with this contract as an Oracle. Moreover, this contract gives child chain contracts the ability to trigger cross-chain price requests to the mainnet DVM. This Spoke knows how to communicate with the parent chain via a \"ChildMessenger\" contract which directly communicates with the \"ParentMessenger\" on mainnet.",
    "version": 1
  },
  "storageLayout": {
    "storage": [
      {
        "astId": 16286,
        "contract": "contracts/cross-chain-oracle/OracleSpoke.sol:OracleSpoke",
        "label": "finder",
        "offset": 0,
        "slot": "0",
        "type": "t_contract(FinderInterface)36753"
      },
      {
        "astId": 21870,
        "contract": "contracts/cross-chain-oracle/OracleSpoke.sol:OracleSpoke",
        "label": "prices",
        "offset": 0,
        "slot": "1",
        "type": "t_mapping(t_bytes32,t_struct(Price)21865_storage)"
      },
      {
        "astId": 16304,
        "contract": "contracts/cross-chain-oracle/OracleSpoke.sol:OracleSpoke",
        "label": "_notEntered",
        "offset": 0,
        "slot": "2",
        "type": "t_bool"
      }
    ],
    "types": {
      "t_bool": {
        "encoding": "inplace",
        "label": "bool",
        "numberOfBytes": "1"
      },
      "t_bytes32": {
        "encoding": "inplace",
        "label": "bytes32",
        "numberOfBytes": "32"
      },
      "t_contract(FinderInterface)36753": {
        "encoding": "inplace",
        "label": "contract FinderInterface",
        "numberOfBytes": "20"
      },
      "t_enum(RequestState)21859": {
        "encoding": "inplace",
        "label": "enum OracleBase.RequestState",
        "numberOfBytes": "1"
      },
      "t_int256": {
        "encoding": "inplace",
        "label": "int256",
        "numberOfBytes": "32"
      },
      "t_mapping(t_bytes32,t_struct(Price)21865_storage)": {
        "encoding": "mapping",
        "key": "t_bytes32",
        "label": "mapping(bytes32 => struct OracleBase.Price)",
        "numberOfBytes": "32",
        "value": "t_struct(Price)21865_storage"
      },
      "t_struct(Price)21865_storage": {
        "encoding": "inplace",
        "label": "struct OracleBase.Price",
        "members": [
          {
            "astId": 21862,
            "contract": "contracts/cross-chain-oracle/OracleSpoke.sol:OracleSpoke",
            "label": "state",
            "offset": 0,
            "slot": "0",
            "type": "t_enum(RequestState)21859"
          },
          {
            "astId": 21864,
            "contract": "contracts/cross-chain-oracle/OracleSpoke.sol:OracleSpoke",
            "label": "price",
            "offset": 0,
            "slot": "1",
            "type": "t_int256"
          }
        ],
        "numberOfBytes": "64"
      }
    }
  }
}