{
  "address": "0x50cb0f7Fdd27030Fa9fB8cE1fb4682958FE32e75",
  "abi": [
    {
      "inputs": [
        {
          "internalType": "address",
          "name": "_fxChild",
          "type": "address"
        },
        {
          "internalType": "address",
          "name": "_finderAddress",
          "type": "address"
        }
      ],
      "stateMutability": "nonpayable",
      "type": "constructor"
    },
    {
      "anonymous": false,
      "inputs": [
        {
          "indexed": false,
          "internalType": "bytes",
          "name": "message",
          "type": "bytes"
        }
      ],
      "name": "MessageSent",
      "type": "event"
    },
    {
      "anonymous": false,
      "inputs": [
        {
          "indexed": true,
          "internalType": "bytes32",
          "name": "identifier",
          "type": "bytes32"
        },
        {
          "indexed": false,
          "internalType": "uint256",
          "name": "time",
          "type": "uint256"
        },
        {
          "indexed": false,
          "internalType": "bytes",
          "name": "ancillaryData",
          "type": "bytes"
        },
        {
          "indexed": true,
          "internalType": "bytes32",
          "name": "requestHash",
          "type": "bytes32"
        }
      ],
      "name": "PriceRequestAdded",
      "type": "event"
    },
    {
      "anonymous": false,
      "inputs": [
        {
          "indexed": true,
          "internalType": "bytes32",
          "name": "identifier",
          "type": "bytes32"
        },
        {
          "indexed": false,
          "internalType": "uint256",
          "name": "time",
          "type": "uint256"
        },
        {
          "indexed": false,
          "internalType": "bytes",
          "name": "ancillaryData",
          "type": "bytes"
        },
        {
          "indexed": false,
          "internalType": "int256",
          "name": "price",
          "type": "int256"
        },
        {
          "indexed": true,
          "internalType": "bytes32",
          "name": "requestHash",
          "type": "bytes32"
        }
      ],
      "name": "PushedPrice",
      "type": "event"
    },
    {
      "inputs": [],
      "name": "ancillaryBytesLimit",
      "outputs": [
        {
          "internalType": "uint256",
          "name": "",
          "type": "uint256"
        }
      ],
      "stateMutability": "view",
      "type": "function"
    },
    {
      "inputs": [],
      "name": "finder",
      "outputs": [
        {
          "internalType": "contract FinderInterface",
          "name": "",
          "type": "address"
        }
      ],
      "stateMutability": "view",
      "type": "function"
    },
    {
      "inputs": [],
      "name": "fxChild",
      "outputs": [
        {
          "internalType": "address",
          "name": "",
          "type": "address"
        }
      ],
      "stateMutability": "view",
      "type": "function"
    },
    {
      "inputs": [],
      "name": "fxRootTunnel",
      "outputs": [
        {
          "internalType": "address",
          "name": "",
          "type": "address"
        }
      ],
      "stateMutability": "view",
      "type": "function"
    },
    {
      "inputs": [
        {
          "internalType": "bytes32",
          "name": "identifier",
          "type": "bytes32"
        },
        {
          "internalType": "uint256",
          "name": "time",
          "type": "uint256"
        },
        {
          "internalType": "bytes",
          "name": "ancillaryData",
          "type": "bytes"
        }
      ],
      "name": "getPrice",
      "outputs": [
        {
          "internalType": "int256",
          "name": "",
          "type": "int256"
        }
      ],
      "stateMutability": "view",
      "type": "function"
    },
    {
      "inputs": [
        {
          "internalType": "bytes32",
          "name": "identifier",
          "type": "bytes32"
        },
        {
          "internalType": "uint256",
          "name": "time",
          "type": "uint256"
        },
        {
          "internalType": "bytes",
          "name": "ancillaryData",
          "type": "bytes"
        }
      ],
      "name": "hasPrice",
      "outputs": [
        {
          "internalType": "bool",
          "name": "",
          "type": "bool"
        }
      ],
      "stateMutability": "view",
      "type": "function"
    },
    {
      "inputs": [
        {
          "internalType": "uint256",
          "name": "stateId",
          "type": "uint256"
        },
        {
          "internalType": "address",
          "name": "rootMessageSender",
          "type": "address"
        },
        {
          "internalType": "bytes",
          "name": "data",
          "type": "bytes"
        }
      ],
      "name": "processMessageFromRoot",
      "outputs": [],
      "stateMutability": "nonpayable",
      "type": "function"
    },
    {
      "inputs": [
        {
          "internalType": "bytes32",
          "name": "identifier",
          "type": "bytes32"
        },
        {
          "internalType": "uint256",
          "name": "time",
          "type": "uint256"
        },
        {
          "internalType": "bytes",
          "name": "ancillaryData",
          "type": "bytes"
        }
      ],
      "name": "requestPrice",
      "outputs": [],
      "stateMutability": "nonpayable",
      "type": "function"
    },
    {
      "inputs": [
        {
          "internalType": "address",
          "name": "_fxRootTunnel",
          "type": "address"
        }
      ],
      "name": "setFxRootTunnel",
      "outputs": [],
      "stateMutability": "nonpayable",
      "type": "function"
    },
    {
      "inputs": [
        {
          "internalType": "bytes",
          "name": "ancillaryData",
          "type": "bytes"
        },
        {
          "internalType": "address",
          "name": "requester",
          "type": "address"
        }
      ],
      "name": "stampAncillaryData",
      "outputs": [
        {
          "internalType": "bytes",
          "name": "",
          "type": "bytes"
        }
      ],
      "stateMutability": "view",
      "type": "function"
    }
  ],
  "transactionHash": "0x79ae0588a0b7c17318968ca67c9c397da4f9479c486e1ba4846b6dba1da6f785",
  "args": [
    "0xf6537Fd2A447afAC20bABaFBf9113bc60F4fa594",
    "0xA969917A4dFaB07936dEc60f70FA5c736A1e2b9e"
  ],
  "solcInputHash": "864d61c65c789401ae17358a5af86557",
  "bytecode": "0x60803461009e57601f61113e38819003918201601f19168301916001600160401b038311848410176100a357808492604094855283398101031261009e576020610048826100b9565b916001600160a01b0391829161005e91016100b9565b169160018060a01b03199283600154161760015516906002541617600255600160a01b60ff60a01b19600354161760035560405161107090816100ce8239f35b600080fd5b634e487b7160e01b600052604160045260246000fd5b51906001600160a01b038216820361009e5756fe6040608081526004908136101561001557600080fd5b600091823560e01c908163216666a414610745578163450d11f01461071c578163719c6d56146105b45781637f1e9cb01461058b57816388837094146104ec5781639a7c4b7114610298578163af5d2f3914610230578163b551cd50146100d857508063b9a3c84c146100b05763c371dda71461009157600080fd5b346100ac57816003193601126100ac57602090516120008152f35b5080fd5b50346100ac57816003193601126100ac5760015490516001600160a01b039091168152602090f35b9190503461022c576100e936610a74565b9491906100f4610ba4565b60015484516302abf57960e61b815267526567697374727960c01b87820152602097916001600160a01b03919089908290602490829086165afa9081156102225790899187916101f5575b50602488518094819363f9f6b49b60e01b8352338d840152165afa9081156101eb579161017c6101839261018996959488916101be575b50610b3c565b3390610c27565b91610bf9565b815280845260ff82822054169260038410156101ab5750506002905191148152f35b634e487b7160e01b825260219052602490fd5b6101de91508b3d8d116101e4575b6101d681836109dc565b810190610b24565b38610176565b503d6101cc565b86513d87823e3d90fd5b6102159150823d841161021b575b61020d81836109dc565b810190610b05565b3861013f565b503d610203565b87513d88823e3d90fd5b8280fd5b82843461029557816003193601126102955782359067ffffffffffffffff821161029557506102686102919361027e92369101610a56565b610270610aa7565b90610279610ba4565b610c27565b9051918291602083526020830190610ae0565b0390f35b80fd5b90503461022c57606036600319011261022c576102b3610aa7565b6044359067ffffffffffffffff908183116104e857366023840112156104e8578284013592828411610440573660248583010111610440576002546001600160a01b0394908516330361049b579061030f916024369201610a1a565b9280600354169116036104445781518201906020906080848385019403126104405781840151938681015191606082015190811161043c5781019084603f8301121561043c578382015191610363836109fe565b956103708a5197886109dc565b8387528984830101116104385760809261038f918a8789019101610abd565b015161039c848387610bf9565b958689528884528789209485549160ff831690600382101561042557506001146103c557898951f35b856002610410938560017ffd38de8c79c8c3c553ecd154c6b11b67511ec8dee573c8a488a056d7335b34e89a015560ff19161790556060895195869586528501526060840190610ae0565b90878301520390a33880808080808080898951f35b634e487b7160e01b8c526021905260248bfd5b8980fd5b8880fd5b8680fd5b835162461bcd60e51b8152602081850152602b60248201527f4678426173654368696c6454756e6e656c3a20494e56414c49445f53454e444560448201526a1497d19493d357d493d3d560aa1b6064820152608490fd5b865162461bcd60e51b8152602081880152602160248201527f4678426173654368696c6454756e6e656c3a20494e56414c49445f53454e44456044820152602960f91b6064820152608490fd5b8580fd5b90503461022c57602036600319011261022c576001600160a01b03813581811692908390036105875760035491821661053157506001600160a01b0319161760035551f35b608490602085519162461bcd60e51b8352820152602a60248201527f4678426173654368696c6454756e6e656c3a20524f4f545f54554e4e454c5f4160448201526913149150511657d4d15560b21b6064820152fd5b8480fd5b5050346100ac57816003193601126100ac5760035490516001600160a01b039091168152602090f35b828434610295576105c436610a74565b9491906105cf610ba4565b60015485516302abf57960e61b815267526567697374727960c01b85820152602097916001600160a01b03919089908290602490829086165afa9081156107125790899188916106f5575b50602489518094819363f9f6b49b60e01b8352338b840152165afa908115610222579161017c6101839261065696959489916106d85750610b3c565b82528184528282209160ff8354169060038210156106c557506002036106825750600101549051908152f35b825162461bcd60e51b8152908101849052601b60248201527f507269636520686173206e6f74206265656e207265736f6c76656400000000006044820152606490fd5b634e487b7160e01b815260218352602490fd5b6106ef91508b3d8d116101e4576101d681836109dc565b8b610176565b61070c9150823d841161021b5761020d81836109dc565b8a61061a565b88513d89823e3d90fd5b5050346100ac57816003193601126100ac5760025490516001600160a01b039091168152602090f35b8383346100ac5761075536610a74565b61075d610ba4565b6003805460ff60a01b1990811690915560015485516302abf57960e61b815267526567697374727960c01b898201529194602093909290916001600160a01b03919085908290602490829086165afa9081156109a0579085918a91610983575b50885163f9f6b49b60e01b815233818d01529283916024918391165afa90811561097957906107f291899161095c5750610b3c565b6107fc3382610c27565b61200081511161092057610811818685610bf9565b908189528885528789209081549060ff8216600381101561090d57938661088694898b610879968f966108949b977f8c5261668696ce22758910d05bab8f186d6eb247ceac2af2e82c7dc17669b0369f9e9d9b156108bb575b50505050505050503390610c27565b8851958693868501610b88565b03601f1981018452836109dc565b6108a78551928284938452830190610ae0565b0390a1600160a01b90600354161760035551f35b7f55ad1db144341b8105784dba37a7cb1c3088262f75ea638cfb7c8ecfb73751c69560016108fd9460ff19161790558080519586958652850152830190610ae0565b0390a38b8481888a828f8061086a565b634e487b7160e01b8c5260218d5260248cfd5b865162461bcd60e51b8152808a018590526016602482015275496e76616c696420616e63696c6c617279206461746160501b6044820152606490fd5b6109739150853d87116101e4576101d681836109dc565b8a610176565b87513d8a823e3d90fd5b61099a9150823d841161021b5761020d81836109dc565b8b6107bd565b88513d8b823e3d90fd5b6040810190811067ffffffffffffffff8211176109c657604052565b634e487b7160e01b600052604160045260246000fd5b90601f8019910116810190811067ffffffffffffffff8211176109c657604052565b67ffffffffffffffff81116109c657601f01601f191660200190565b929192610a26826109fe565b91610a3460405193846109dc565b829481845281830111610a51578281602093846000960137010152565b600080fd5b9080601f83011215610a5157816020610a7193359101610a1a565b90565b6060600319820112610a515760043591602435916044359067ffffffffffffffff8211610a5157610a7191600401610a56565b602435906001600160a01b0382168203610a5157565b60005b838110610ad05750506000910152565b8181015183820152602001610ac0565b90602091610af981518092818552858086019101610abd565b601f01601f1916010190565b90816020910312610a5157516001600160a01b0381168103610a515790565b90816020910312610a5157518015158103610a515790565b15610b4357565b60405162461bcd60e51b815260206004820152601960248201527f43616c6c6572206d7573742062652072656769737465726564000000000000006044820152606490fd5b610a719392606092825260208201528160408201520190610ae0565b60ff60035460a01c1615610bb457565b60405162461bcd60e51b815260206004820152601f60248201527f5265656e7472616e637947756172643a207265656e7472616e742063616c6c006044820152606490fd5b9190610c2190610c13604051938492602084019687610b88565b03601f1981018352826109dc565b51902090565b604091825190610c36826109aa565b600e8252610c5c6020926d31b434b6322932b8bab2b9ba32b960911b8482015284610fbb565b93610c7a6fffffffffffffffffffffffffffffffff83851c16610d9d565b916001600160c01b031990610ca09060601b6bffffffffffffffffffffffff1916610d9d565b16938151948486019384528286015260288552606085019285841067ffffffffffffffff8511176109c65784610a7196610d2392610d6a9987875283610cf0608085019788815193849201610abd565b8301610d058251809387608085019101610abd565b01610d17835180936080840190610abd565b010380865201846109dc565b610d4f8251610d31816109aa565b600c81526b18da1a5b1910da185a5b925960a21b8682015284610fbb565b90610d5946610ea5565b925196879451809287870190610abd565b8301610d7e82518093878085019101610abd565b01610d9182518093868085019101610abd565b010380845201826109dc565b7f30303030303030303030303030303030303030303030303030303030303030309067ffffffffffffffff8060801b8260401b169116178060201b1779ffff000000000000ffff000000000000ffff000000000000ffff7dffff000000000000ffff000000000000ffff000000000000ffff000000008260101b169116178060081b177e0f000f000f000f000f000f000f000f000f000f000f000f000f000f000f000f7f0f000f000f000f000f000f000f000f000f000f000f000f000f000f000f000f008260041b1691161760277f0101010101010101010101010101010101010101010101010101010101010101808360011c16818460021c16178360031c161602010190565b8015610f9d579060009082805b610f7f5750610ec0826109fe565b91610ece60405193846109dc565b808352601f19610edd826109fe565b01366020850137925b838115610f785760001991828601958611610f625785600a808304809504811185151516610f625784028203918211610f625760ff809216603001918211610f625785511115610f4c5760f81b6001600160f81b03191660001a908401601f0153610ee6565b634e487b7160e01b600052603260045260246000fd5b634e487b7160e01b600052601160045260246000fd5b5050915090565b909290916000198114610f62576001600a9101920480939193610eb2565b50604051610faa816109aa565b60018152600360fc1b602082015290565b511561100357610a7160226040518093600b60fa1b6020830152610fe9815180926020602186019101610abd565b8101601d60f91b60218201520360028101845201826109dc565b610a71602160405183611020829551809260208086019101610abd565b8101601d60f91b60208201520360018101845201826109dc56fea2646970667358221220473a8fd0de07b8fa1d5fb58bbcdd7ba98aab14de7cde1bbb79f85d1e27e1fa9164736f6c63430008100033",
  "devdoc": {
    "details": "The intended client of this contract is an OptimisticOracle on sidechain that needs price resolution secured by the DVM on mainnet.",
    "kind": "dev",
    "methods": {
      "getPrice(bytes32,uint256,bytes)": {
        "details": "Reverts if price is not available.",
        "params": {
          "ancillaryData": "extra data of price request.",
          "identifier": "Identifier of price request.",
          "time": "Timestamp of price request"
        },
        "returns": {
          "_0": "int256 Price, or reverts if no resolved price for any reason."
        }
      },
      "hasPrice(bytes32,uint256,bytes)": {
        "params": {
          "ancillaryData": "extra data of price request.",
          "identifier": "Identifier of price request.",
          "time": "Timestamp of price request"
        },
        "returns": {
          "_0": "True if a price is available, False otherwise. If true, then getPrice will succeed for the request."
        }
      },
      "requestPrice(bytes32,uint256,bytes)": {
        "details": "Can be called only by a registered contract that is allowed to make DVM price requests. Will mark this price request as Requested, and therefore able to receive the price resolution data from mainnet. Emits a message that will be included in regular checkpoint of all sidechain transactions to mainnet.",
        "params": {
          "ancillaryData": "extra data of price request.",
          "identifier": "Identifier of price request.",
          "time": "Timestamp of price request."
        }
      },
      "stampAncillaryData(bytes,address)": {
        "params": {
          "ancillaryData": "ancillary data of the price being requested.",
          "requester": "sender of the initial price request."
        },
        "returns": {
          "_0": "the stamped ancillary bytes."
        }
      }
    },
    "title": "Adapter deployed on sidechain to give financial contracts the ability to trigger cross-chain price requests to the mainnet DVM. Also has the ability to receive published prices from mainnet. This contract can be treated as the \"DVM\" for this network, because a calling contract can request and access a resolved price request from this contract.",
    "version": 1
  },
  "userdoc": {
    "kind": "user",
    "methods": {
      "getPrice(bytes32,uint256,bytes)": {
        "notice": "Returns resolved price for the request."
      },
      "hasPrice(bytes32,uint256,bytes)": {
        "notice": "Returns whether a price has resolved for the request."
      },
      "requestPrice(bytes32,uint256,bytes)": {
        "notice": "This should be called to bridge a price request to mainnet."
      },
      "stampAncillaryData(bytes,address)": {
        "notice": "Generates stamped ancillary data in the format that it would be used in the case of a price request."
      }
    },
    "version": 1
  },
  "storageLayout": {
    "storage": [
      {
        "astId": 72263,
        "contract": "contracts/polygon-cross-chain-oracle/OracleChildTunnel.sol:OracleChildTunnel",
        "label": "prices",
        "offset": 0,
        "slot": "0",
        "type": "t_mapping(t_bytes32,t_struct(Price)72255_storage)"
      },
      {
        "astId": 72266,
        "contract": "contracts/polygon-cross-chain-oracle/OracleChildTunnel.sol:OracleChildTunnel",
        "label": "finder",
        "offset": 0,
        "slot": "1",
        "type": "t_contract(FinderInterface)36753"
      },
      {
        "astId": 2764,
        "contract": "contracts/polygon-cross-chain-oracle/OracleChildTunnel.sol:OracleChildTunnel",
        "label": "fxChild",
        "offset": 0,
        "slot": "2",
        "type": "t_address"
      },
      {
        "astId": 2766,
        "contract": "contracts/polygon-cross-chain-oracle/OracleChildTunnel.sol:OracleChildTunnel",
        "label": "fxRootTunnel",
        "offset": 0,
        "slot": "3",
        "type": "t_address"
      },
      {
        "astId": 16304,
        "contract": "contracts/polygon-cross-chain-oracle/OracleChildTunnel.sol:OracleChildTunnel",
        "label": "_notEntered",
        "offset": 20,
        "slot": "3",
        "type": "t_bool"
      }
    ],
    "types": {
      "t_address": {
        "encoding": "inplace",
        "label": "address",
        "numberOfBytes": "20"
      },
      "t_bool": {
        "encoding": "inplace",
        "label": "bool",
        "numberOfBytes": "1"
      },
      "t_bytes32": {
        "encoding": "inplace",
        "label": "bytes32",
        "numberOfBytes": "32"
      },
      "t_contract(FinderInterface)36753": {
        "encoding": "inplace",
        "label": "contract FinderInterface",
        "numberOfBytes": "20"
      },
      "t_enum(RequestState)72249": {
        "encoding": "inplace",
        "label": "enum OracleBaseTunnel.RequestState",
        "numberOfBytes": "1"
      },
      "t_int256": {
        "encoding": "inplace",
        "label": "int256",
        "numberOfBytes": "32"
      },
      "t_mapping(t_bytes32,t_struct(Price)72255_storage)": {
        "encoding": "mapping",
        "key": "t_bytes32",
        "label": "mapping(bytes32 => struct OracleBaseTunnel.Price)",
        "numberOfBytes": "32",
        "value": "t_struct(Price)72255_storage"
      },
      "t_struct(Price)72255_storage": {
        "encoding": "inplace",
        "label": "struct OracleBaseTunnel.Price",
        "members": [
          {
            "astId": 72252,
            "contract": "contracts/polygon-cross-chain-oracle/OracleChildTunnel.sol:OracleChildTunnel",
            "label": "state",
            "offset": 0,
            "slot": "0",
            "type": "t_enum(RequestState)72249"
          },
          {
            "astId": 72254,
            "contract": "contracts/polygon-cross-chain-oracle/OracleChildTunnel.sol:OracleChildTunnel",
            "label": "price",
            "offset": 0,
            "slot": "1",
            "type": "t_int256"
          }
        ],
        "numberOfBytes": "64"
      }
    }
  }
}