{
  "address": "0x7C33837C312498FbDC32166f5c4F5E0dcdD13B2E",
  "abi": [
    {
      "inputs": [
        {
          "internalType": "address",
          "name": "_checkpointManager",
          "type": "address"
        },
        {
          "internalType": "address",
          "name": "_fxRoot",
          "type": "address"
        },
        {
          "internalType": "address",
          "name": "_finderAddress",
          "type": "address"
        }
      ],
      "stateMutability": "nonpayable",
      "type": "constructor"
    },
    {
      "anonymous": false,
      "inputs": [
        {
          "indexed": true,
          "internalType": "bytes32",
          "name": "identifier",
          "type": "bytes32"
        },
        {
          "indexed": false,
          "internalType": "uint256",
          "name": "time",
          "type": "uint256"
        },
        {
          "indexed": false,
          "internalType": "bytes",
          "name": "ancillaryData",
          "type": "bytes"
        },
        {
          "indexed": true,
          "internalType": "bytes32",
          "name": "requestHash",
          "type": "bytes32"
        }
      ],
      "name": "PriceRequestAdded",
      "type": "event"
    },
    {
      "anonymous": false,
      "inputs": [
        {
          "indexed": true,
          "internalType": "bytes32",
          "name": "identifier",
          "type": "bytes32"
        },
        {
          "indexed": false,
          "internalType": "uint256",
          "name": "time",
          "type": "uint256"
        },
        {
          "indexed": false,
          "internalType": "bytes",
          "name": "ancillaryData",
          "type": "bytes"
        },
        {
          "indexed": false,
          "internalType": "int256",
          "name": "price",
          "type": "int256"
        },
        {
          "indexed": true,
          "internalType": "bytes32",
          "name": "requestHash",
          "type": "bytes32"
        }
      ],
      "name": "PushedPrice",
      "type": "event"
    },
    {
      "inputs": [],
      "name": "SEND_MESSAGE_EVENT_SIG",
      "outputs": [
        {
          "internalType": "bytes32",
          "name": "",
          "type": "bytes32"
        }
      ],
      "stateMutability": "view",
      "type": "function"
    },
    {
      "inputs": [],
      "name": "ancillaryBytesLimit",
      "outputs": [
        {
          "internalType": "uint256",
          "name": "",
          "type": "uint256"
        }
      ],
      "stateMutability": "view",
      "type": "function"
    },
    {
      "inputs": [],
      "name": "checkpointManager",
      "outputs": [
        {
          "internalType": "contract ICheckpointManager",
          "name": "",
          "type": "address"
        }
      ],
      "stateMutability": "view",
      "type": "function"
    },
    {
      "inputs": [],
      "name": "finder",
      "outputs": [
        {
          "internalType": "contract FinderInterface",
          "name": "",
          "type": "address"
        }
      ],
      "stateMutability": "view",
      "type": "function"
    },
    {
      "inputs": [],
      "name": "fxChildTunnel",
      "outputs": [
        {
          "internalType": "address",
          "name": "",
          "type": "address"
        }
      ],
      "stateMutability": "view",
      "type": "function"
    },
    {
      "inputs": [],
      "name": "fxRoot",
      "outputs": [
        {
          "internalType": "contract IFxStateSender",
          "name": "",
          "type": "address"
        }
      ],
      "stateMutability": "view",
      "type": "function"
    },
    {
      "inputs": [
        {
          "internalType": "bytes32",
          "name": "",
          "type": "bytes32"
        }
      ],
      "name": "processedExits",
      "outputs": [
        {
          "internalType": "bool",
          "name": "",
          "type": "bool"
        }
      ],
      "stateMutability": "view",
      "type": "function"
    },
    {
      "inputs": [
        {
          "internalType": "bytes32",
          "name": "identifier",
          "type": "bytes32"
        },
        {
          "internalType": "uint256",
          "name": "time",
          "type": "uint256"
        },
        {
          "internalType": "bytes",
          "name": "ancillaryData",
          "type": "bytes"
        }
      ],
      "name": "publishPrice",
      "outputs": [],
      "stateMutability": "nonpayable",
      "type": "function"
    },
    {
      "inputs": [
        {
          "internalType": "bytes",
          "name": "inputData",
          "type": "bytes"
        }
      ],
      "name": "receiveMessage",
      "outputs": [],
      "stateMutability": "nonpayable",
      "type": "function"
    },
    {
      "inputs": [
        {
          "internalType": "address",
          "name": "_fxChildTunnel",
          "type": "address"
        }
      ],
      "name": "setFxChildTunnel",
      "outputs": [],
      "stateMutability": "nonpayable",
      "type": "function"
    }
  ],
  "transactionHash": "0x08972d9a3eb74c7e3342d72bbb24b0069cd7475f5494f7fcf300b726b00e413f",
  "args": [
    "0x2d92211362AdAa7963De4609214282FFf44859F6",
    "0x47CACA50f7A2CeE78Fa9f196C04ba8F4E6B54F73",
    "0xA969917A4dFaB07936dEc60f70FA5c736A1e2b9e"
  ],
  "solcInputHash": "864d61c65c789401ae17358a5af86557",
  "bytecode": "0x608034620000be57601f62001e4f38819003918201601f19168301916001600160401b03831184841017620000c357808492606094604052833981010312620000be57620000796200005182620000d9565b9160406200006260208301620000d9565b6001600160a01b03939092849283929101620000d9565b169360018060a01b0319948560015416176001551683600354161760035516906002541617600255600160ff196006541617600655604051611d609081620000ef8239f35b600080fd5b634e487b7160e01b600052604160045260246000fd5b51906001600160a01b0382168203620000be5756fe60806040526004361015610013575b600080fd5b6000803560e01c9081630e387de6146100de57508063607f2d42146100d5578063972c4928146100cc578063aea4e49e146100c3578063b9a3c84c146100ba578063c0857ba0146100b1578063c371dda7146100a8578063de9b771f1461009f578063deda381b146100965763f953cec71461008e57600080fd5b61000e610549565b5061000e6103e0565b5061000e6102a3565b5061000e610285565b5061000e61025b565b5061000e610231565b5061000e610193565b5061000e610158565b5061000e610126565b346101185780600319360112610118577f8c5261668696ce22758910d05bab8f186d6eb247ceac2af2e82c7dc17669b03660805260206080f35b80fd5b600091031261000e57565b503461000e57602036600319011261000e576004356000526005602052602060ff604060002054166040519015158152f35b503461000e57600036600319011261000e576004546040516001600160a01b039091168152602090f35b6001600160a01b0381160361000e57565b503461000e57602036600319011261000e576004356101b181610182565b600454906001600160a01b03908183166101d9576001600160a01b0319909216911617600455005b60405162461bcd60e51b815260206004820152602a60248201527f467842617365526f6f7454756e6e656c3a204348494c445f54554e4e454c5f4160448201526913149150511657d4d15560b21b6064820152608490fd5b503461000e57600036600319011261000e576001546040516001600160a01b039091168152602090f35b503461000e57600036600319011261000e576003546040516001600160a01b039091168152602090f35b503461000e57600036600319011261000e5760206040516120008152f35b503461000e57600036600319011261000e576002546040516001600160a01b039091168152602090f35b50634e487b7160e01b600052604160045260246000fd5b6020810190811067ffffffffffffffff82111761030057604052565b6103086102cd565b604052565b6040810190811067ffffffffffffffff82111761030057604052565b67ffffffffffffffff811161030057604052565b90601f8019910116810190811067ffffffffffffffff82111761030057604052565b6040519061036c8261030d565b565b60209067ffffffffffffffff811161038c575b601f01601f19160190565b6103946102cd565b610381565b81601f8201121561000e578035906103b08261036e565b926103be604051948561033d565b8284526020838301011161000e57816000926020809301838601378301015290565b503461000e57606036600319011261000e5760043560243560443567ffffffffffffffff811161000e57610418903690600401610399565b60065460ff8116156105045760ff19166006556001600160a01b0361043b611c9f565b1690602060405180936338ce36ab60e11b8252818061045f86898b60048501611977565b03915afa9182156104f7575b6000926104c2575b509261049b828561048c6104a9956104ae988887611a2f565b60405195869460208601611993565b03601f19810183528261033d565b6119ba565b6104c0600160ff196006541617600655565b005b90916020823d82116104ef575b816104dc6020938361033d565b810103126101185750519061049b610473565b3d91506104cf565b6104ff61168d565b61046b565b60405162461bcd60e51b815260206004820152601f60248201527f5265656e7472616e637947756172643a207265656e7472616e742063616c6c006044820152606490fd5b503461000e57602036600319011261000e5760043567ffffffffffffffff811161000e5761071661070761058c6105876104c0943690600401610399565b610924565b6106be61059882610d2f565b916105a281610a26565b9061061a61060d6105b28661114a565b61049b6105d36105c186610d48565b60405192839160208301958a8761073e565b5190206105fd6105f76105f0836000526005602052604060002090565b5460ff1690565b15610763565b6000526005602052604060002090565b805460ff19166001179055565b602061069361068e61062b84610b5f565b61063481610d7a565b600454909890610670906001600160a01b031661065f6106538c610dec565b6001600160a01b031690565b6001600160a01b03909116146107bb565b61067986610a6e565b94859201519061068887610d16565b91610ec9565b610815565b61069c82610a3e565b6106a583610a56565b906106b86106b2856109dd565b94610a00565b946116e6565b506107027f8c5261668696ce22758910d05bab8f186d6eb247ceac2af2e82c7dc17669b0366106fc6106f76106f285610e28565b610e6c565b611418565b1461086d565b610e51565b602080825183010191016108fe565b611b07565b60005b83811061072e5750506000910152565b818101518382015260200161071e565b60409392918152610758825180936020808501910161071b565b019060208201520190565b1561076a57565b60405162461bcd60e51b8152602060048201526024808201527f4678526f6f7454756e6e656c3a20455849545f414c52454144595f50524f434560448201526314d4d15160e21b6064820152608490fd5b156107c257565b60405162461bcd60e51b815260206004820152602560248201527f4678526f6f7454756e6e656c3a20494e56414c49445f46585f4348494c445f54604482015264155393915360da1b6064820152608490fd5b1561081c57565b60405162461bcd60e51b815260206004820152602360248201527f4678526f6f7454756e6e656c3a20494e56414c49445f524543454950545f505260448201526227a7a360e91b6064820152608490fd5b1561087457565b60405162461bcd60e51b815260206004820152601f60248201527f4678526f6f7454756e6e656c3a20494e56414c49445f5349474e4154555245006044820152606490fd5b81601f8201121561000e5780516108cf8161036e565b926108dd604051948561033d565b8184526020828401011161000e576108fb916020808501910161071b565b90565b9060208282031261000e57815167ffffffffffffffff811161000e576108fb92016108b9565b61093f610944916060604051610939816102e4565b526112a5565b6112f2565b60405190610951826102e4565b815290565b50634e487b7160e01b600052603260045260246000fd5b60e09080516006101561097e570190565b610986610956565b0190565b60209080511561097e570190565b60409080516001101561097e570190565b6102209080516010101561097e570190565b60209181518110156109d0575b60051b010190565b6109d8610956565b6109c8565b60206108fb91518051156109f3575b0151611418565b6109fb610956565b6109ec565b60406108fb9151805160011015610a19575b01516114bb565b610a21610956565b610a12565b60606108fb91518051600210156109f3570151611418565b60806108fb91518051600310156109f3570151611418565b60a06108fb91518051600410156109f3570151611418565b60c06108fb91518051600510156109f3570151611418565b50634e487b7160e01b600052601160045260246000fd5b600019810191908211610aac57565b61036c610a86565b6020039060208211610aac57565b600119810191908211610aac57565b60bf19810191908211610aac57565b607f19810191908211610aac57565b60f619810191908211610aac57565b60b619810191908211610aac57565b91908203918211610aac57565b60405190610b27826102e4565b60008252565b90610b378261036e565b610b44604051918261033d565b8281528092610b55601f199161036e565b0190602036910137565b604051906060820182811067ffffffffffffffff821117610c0d575b60405260608252610bd4602083019160608352604084019260008452610bb5610bad610ba7845161096d565b516114bb565b8083526112a5565b610bbe816113c5565b15610bd957610bcd91506112f2565b8452610d48565b905290565b5061093f610bcd9151610c08610bf7610bf28351610a9d565b610b2d565b918251908360200190602101610c6e565b6112a5565b610c156102cd565b610b7b565b9060018201809211610aac57565b9060028201809211610aac57565b9060208201809211610aac57565b91908201809211610aac57565b601f8111610c61575b6101000a90565b610c69610a86565b610c5a565b929091928315610d105792915b602093848410610cda5780518252848101809111610ccd575b938101809111610cc0575b91601f198101908111610cb3575b91610c7b565b610cbb610a86565b610cad565b610cc8610a86565b610c9f565b610cd5610a86565b610c94565b919350918015610d0b57610cf8610cf3610cfd92610ab4565b610c51565b610a9d565b905182518216911916179052565b505050565b50915050565b6101006108fb9151805160071015610a195701516114bb565b6101206108fb9151805160081015610a195701516114bb565b6101406108fb91518051600910156109f3570151611418565b60405190610d6e8261030d565b60006020838281520152565b610dbe9060606020604051610d8e8161030d565b610d96610d61565b815201526040610db560808351805160031015610ddf575b01516112f2565b910151906109bb565b51610dc8816112f2565b60405191610dd58361030d565b8252602082015290565b610de7610956565b610dae565b602080910151805115610e1b575b0151601581510361000e576001600160a01b0390610e1790611418565b1690565b610e23610956565b610dfa565b604060206109449260608351610e3d816102e4565b520151805160011015610ddf5701516112f2565b606060206108fb920151805160021015610a195701516114bb565b602090610e77610d61565b5051805115610e8557015190565b610e8d610956565b015190565b6001906000198114610ea2570190565b610986610a86565b906020918051821015610ebc57010190565b610ec4610956565b010190565b9093600093610edc61093f6000956112a5565b90610ee7859761114a565b9182511561106f578597915b8151891015611064578351831161105857610f17610f118a846109bb565b516113ec565b9081516020809301200361105857610f38610f328a846109bb565b516112f2565b90815160118114600014610fe9575084518414610fb9575060ff610f76610f70610f628688610eaa565b516001600160f81b03191690565b60f81c90565b169060108211610fac57610f99610f93610fa593610f9f936109bb565b51611493565b93610c1a565b98610e92565b9791610ef3565b5050505050935050905090565b969750915050610fcf929650610ba791506109a9565b828151910120918151910120146000146108fb5750600190565b9199939091600203610fac5761100b8186611006610ba78e61098a565b61107a565b916110168383610c44565b86511461104357508115610fac57610f93611037610fa59361103d93610c44565b9a610998565b92610e92565b979850505050505093610ba7610fcf91610998565b50505050935050905090565b505050509293505050565b505050935050905090565b909161108760009261114a565b926110928451610b2d565b94825b85518401808511611119575b8110156110f1576110df906001600160f81b03196110bf8286610eaa565b51166110d9868303918383116110e4575b881a918a610eaa565b53610e92565b611095565b6110ec610a86565b6110d0565b509491505060209280519384910120906020815191012014600014611114575090565b905090565b611121610a86565b6110a1565b80600019046002118115151661113d575b60011b90565b611145610a86565b611137565b611152610b1a565b90805161115d575090565b6000915060ff61117f600f60f81b6111748461098a565b5160041c1660f81c90565b1691600192838114908115611233575b501561121257506111a6610bf2610cf88351611126565b916111b08261123e565b60001a6111bc8461098a565b538060ff815b1680915b6111d2575b5050505090565b845181101561120d57806111fa856111f56111f08661120796610b0d565b610c28565b611260565b60001a6110d98288610eaa565b826111c6565b6111cb565b9160ff61122a610bf26112258551611126565b610ac2565b939082916111c2565b60039150143861118f565b805115611253575b60200151600f60f81b1690565b61125b610956565b611246565b906001821661128b576112769160011c90610eaa565b5160fc1c5b60f81b6001600160f81b03191690565b61129b90600f9260011c90610eaa565b5160f81c1661127b565b6112ad610d61565b506020815191604051926112c08461030d565b835201602082015290565b60209067ffffffffffffffff81116112e5575b60051b0190565b6112ed6102cd565b6112de565b6112fb816113c5565b1561000e576113098161151c565b611312816112cb565b91611320604051938461033d565b818352601f1961132f836112cb565b0160005b8181106113ae57505061135460208092015161134e8161162d565b90610c44565b6000905b838210611366575050505090565b6113a2816113766113a8936115a7565b9061137f61035f565b8281528187820152611391868a6109bb565b5261139c85896109bb565b50610c44565b91610e92565b90611358565b6020906113b9610d61565b82828801015201611333565b8051156113e657602060c09101515160001a106113e157600190565b600090565b50600090565b6113f68151610b2d565b90815115611414578060206108fb9201519051908360200190610c6e565b5090565b80518015159081611487575b501561000e576020810190611439825161162d565b90519181830392831161147a575b5190810180911161146d575b519060208110611461575090565b6020036101000a900490565b611475610a86565b611453565b611482610a86565b611447565b60219150111538611424565b602181510361000e5760200151600181018091116114af575190565b6114b7610a86565b5190565b80511561000e576108fb60208201916114d4835161162d565b90519080820391821161150f575b6114eb82610b2d565b9351908101809111611502575b8360200190610c6e565b61150a610a86565b6114f8565b611517610a86565b6114e2565b8051156113e657600090602081019081516115368161162d565b810180911161159a575b91519051810180911161158d575b91905b82811061155e5750905090565b8061156b61157a926115a7565b81018091116115805791610e92565b90611551565b611588610a86565b6113a2565b611595610a86565b61154e565b6115a2610a86565b611540565b805160001a9060808210156115bd575050600190565b60b88210156115d857506115d36108fb91610ae0565b610c1a565b9060c08110156115fc5760b51991600160b783602003016101000a91015104010190565b9060f882101561161357506115d36108fb91610ad1565b60010151602082900360f7016101000a90040160f5190190565b5160001a60808110156116405750600090565b60b881108015611677575b156116565750600190565b60c081101561166b576115d36108fb91610afe565b6115d36108fb91610aef565b5060c0811015801561164b575060f8811061164b565b506040513d6000823e3d90fd5b156116a157565b60405162461bcd60e51b815260206004820152601c60248201527f4678526f6f7454756e6e656c3a20494e56414c49445f484541444552000000006044820152606490fd5b919294939060a0600180821b0360035416926024604051809581936320a9cea560e11b835260048301525afa9586156117e6575b6000948593869861177a575b50926108fb96949261176f92611766611775989661049b60405193849260208401968a889290916080949284526020840152604083015260608201520190565b51902092610b0d565b90611895565b61169a565b935096509360a0833d82116117de575b8161179760a0938361033d565b8101031261011857509161176f826108fb9694611775969451946117666020840151966117cc60806060870151960151610182565b96939a93969850509250929496611726565b3d915061178a565b6117ee61168d565b61171a565b156117fa57565b60405162461bcd60e51b8152602060048201526014602482015273092dcecc2d8d2c840e0e4dedecc40d8cadccee8d60631b6044820152606490fd5b60019060ff8111611845571b90565b61184d610a86565b1b90565b1561185857565b60405162461bcd60e51b81526020600482015260156024820152744c65616620696e64657820697320746f6f2062696760581b6044820152606490fd5b93909192936118ae6118a88651601f1690565b156117f3565b6118cb6118c46118bf875160051c90565b611836565b8410611851565b60209182935b865185116119495786850151600193611917929185831661191d5760408051888101938452602084019290925261190b908290840161049b565b519020935b1c94610c36565b936118d1565b9061194061049b916040519283918a830195869091604092825260208201520190565b51902093611910565b50931493505050565b9060209161196b8151809281855285808601910161071b565b601f01601f1916010190565b6108fb9392606092825260208201528160408201520190611952565b9493926060926119b59287526020870152608060408701526080860190611952565b930152565b6002546004546001600160a01b0391821692911690823b1561000e57611a07926000928360405180968195829463b472047760e01b84526004840152604060248401526044830190611952565b03925af18015611a22575b611a195750565b61036c90610329565b611a2a61168d565b611a12565b91929092611a3e818585611ae7565b9384600052600060205260406000209283549360ff85166003811015611ad157600114611a6f575b50505050505050565b60027ffd38de8c79c8c3c553ecd154c6b11b67511ec8dee573c8a488a056d7335b34e89583600184015560ff1916179055611abc6040519384938452606060208501526060840190611952565b9060408301520390a338808080808080611a66565b634e487b7160e01b600052602160045260246000fd5b9190611b019061049b604051938492602084019687611977565b51902090565b8051810160608282031261000e5760208201519060408301519260608101519167ffffffffffffffff831161000e57611b479260208092019201016108b9565b611b52818484611bd2565b611b5d610653611c9f565b803b1561000e57611b8993600080946040519687958694859363085999a960e21b855260048501611977565b03925af18015611bae575b611b9b5750565b80611ba861036c92610329565b8061011b565b611bb661168d565b611b94565b6040906108fb939281528160208201520190611952565b90612000835111611c6157611be8838284611ae7565b9283600052600060205260406000209160ff8354166003811015611ad15715611c13575b5050505050565b611c457f55ad1db144341b8105784dba37a7cb1c3088262f75ea638cfb7c8ecfb73751c693600160ff19825416179055565b611c5460405192839283611bbb565b0390a33880808080611c0c565b60405162461bcd60e51b8152602060048201526016602482015275496e76616c696420616e63696c6c617279206461746160501b6044820152606490fd5b6001546040516302abf57960e61b8152654f7261636c6560d01b60048201526001600160a01b03916020908290602490829086165afa908115611d1d575b600091611ce957501690565b906020823d8211611d15575b81611d026020938361033d565b81010312610118575051610e1781610182565b3d9150611cf5565b611d2561168d565b611cdd56fea2646970667358221220261e3854209d634db0e8fe65839c75661b039d57161286cfc4205447d958762964736f6c63430008100033",
  "devdoc": {
    "details": "This contract must be a registered financial contract in order to make DVM price requests.",
    "kind": "dev",
    "methods": {
      "publishPrice(bytes32,uint256,bytes)": {
        "details": "Publishes the DVM resolved price for the price request, or reverts if not resolved yet. This contract must be registered with the DVM to query price requests.",
        "params": {
          "ancillaryData": "extra data of price request to resolve.",
          "identifier": "Identifier of price request to resolve.",
          "time": "Timestamp of price request to resolve."
        }
      },
      "receiveMessage(bytes)": {
        "details": "This function verifies if the transaction actually happened on child chain",
        "params": {
          "inputData": "RLP encoded data of the reference tx containing following list of fields  0 - headerNumber - Checkpoint header block number containing the reference tx  1 - blockProof - Proof that the block header (in the child chain) is a leaf in the submitted merkle root  2 - blockNumber - Block number containing the reference tx on child chain  3 - blockTime - Reference tx block time  4 - txRoot - Transactions root of block  5 - receiptRoot - Receipts root of block  6 - receipt - Receipt of the reference transaction  7 - receiptProof - Merkle proof of the reference receipt  8 - branchMask - 32 bits denoting the path of receipt in merkle tree  9 - receiptLogIndex - Log Index to read from the receipt"
        }
      }
    },
    "title": "Adapter deployed on mainnet that validates and sends price requests from sidechain to the DVM on mainnet.",
    "version": 1
  },
  "userdoc": {
    "kind": "user",
    "methods": {
      "publishPrice(bytes32,uint256,bytes)": {
        "notice": "This is the first method that should be called in order to publish a price request to the sidechain."
      },
      "receiveMessage(bytes)": {
        "notice": "receive message from  L2 to L1, validated by proof"
      }
    },
    "version": 1
  },
  "storageLayout": {
    "storage": [
      {
        "astId": 72263,
        "contract": "contracts/polygon-cross-chain-oracle/OracleRootTunnel.sol:OracleRootTunnel",
        "label": "prices",
        "offset": 0,
        "slot": "0",
        "type": "t_mapping(t_bytes32,t_struct(Price)72255_storage)"
      },
      {
        "astId": 72266,
        "contract": "contracts/polygon-cross-chain-oracle/OracleRootTunnel.sol:OracleRootTunnel",
        "label": "finder",
        "offset": 0,
        "slot": "1",
        "type": "t_contract(FinderInterface)36753"
      },
      {
        "astId": 2923,
        "contract": "contracts/polygon-cross-chain-oracle/OracleRootTunnel.sol:OracleRootTunnel",
        "label": "fxRoot",
        "offset": 0,
        "slot": "2",
        "type": "t_contract(IFxStateSender)2873"
      },
      {
        "astId": 2926,
        "contract": "contracts/polygon-cross-chain-oracle/OracleRootTunnel.sol:OracleRootTunnel",
        "label": "checkpointManager",
        "offset": 0,
        "slot": "3",
        "type": "t_contract(ICheckpointManager)2891"
      },
      {
        "astId": 2928,
        "contract": "contracts/polygon-cross-chain-oracle/OracleRootTunnel.sol:OracleRootTunnel",
        "label": "fxChildTunnel",
        "offset": 0,
        "slot": "4",
        "type": "t_address"
      },
      {
        "astId": 2932,
        "contract": "contracts/polygon-cross-chain-oracle/OracleRootTunnel.sol:OracleRootTunnel",
        "label": "processedExits",
        "offset": 0,
        "slot": "5",
        "type": "t_mapping(t_bytes32,t_bool)"
      },
      {
        "astId": 16304,
        "contract": "contracts/polygon-cross-chain-oracle/OracleRootTunnel.sol:OracleRootTunnel",
        "label": "_notEntered",
        "offset": 0,
        "slot": "6",
        "type": "t_bool"
      }
    ],
    "types": {
      "t_address": {
        "encoding": "inplace",
        "label": "address",
        "numberOfBytes": "20"
      },
      "t_bool": {
        "encoding": "inplace",
        "label": "bool",
        "numberOfBytes": "1"
      },
      "t_bytes32": {
        "encoding": "inplace",
        "label": "bytes32",
        "numberOfBytes": "32"
      },
      "t_contract(FinderInterface)36753": {
        "encoding": "inplace",
        "label": "contract FinderInterface",
        "numberOfBytes": "20"
      },
      "t_contract(ICheckpointManager)2891": {
        "encoding": "inplace",
        "label": "contract ICheckpointManager",
        "numberOfBytes": "20"
      },
      "t_contract(IFxStateSender)2873": {
        "encoding": "inplace",
        "label": "contract IFxStateSender",
        "numberOfBytes": "20"
      },
      "t_enum(RequestState)72249": {
        "encoding": "inplace",
        "label": "enum OracleBaseTunnel.RequestState",
        "numberOfBytes": "1"
      },
      "t_int256": {
        "encoding": "inplace",
        "label": "int256",
        "numberOfBytes": "32"
      },
      "t_mapping(t_bytes32,t_bool)": {
        "encoding": "mapping",
        "key": "t_bytes32",
        "label": "mapping(bytes32 => bool)",
        "numberOfBytes": "32",
        "value": "t_bool"
      },
      "t_mapping(t_bytes32,t_struct(Price)72255_storage)": {
        "encoding": "mapping",
        "key": "t_bytes32",
        "label": "mapping(bytes32 => struct OracleBaseTunnel.Price)",
        "numberOfBytes": "32",
        "value": "t_struct(Price)72255_storage"
      },
      "t_struct(Price)72255_storage": {
        "encoding": "inplace",
        "label": "struct OracleBaseTunnel.Price",
        "members": [
          {
            "astId": 72252,
            "contract": "contracts/polygon-cross-chain-oracle/OracleRootTunnel.sol:OracleRootTunnel",
            "label": "state",
            "offset": 0,
            "slot": "0",
            "type": "t_enum(RequestState)72249"
          },
          {
            "astId": 72254,
            "contract": "contracts/polygon-cross-chain-oracle/OracleRootTunnel.sol:OracleRootTunnel",
            "label": "price",
            "offset": 0,
            "slot": "1",
            "type": "t_int256"
          }
        ],
        "numberOfBytes": "64"
      }
    }
  }
}