{
  "address": "0xDb4cd4d240C6927EBA586A889b6d2871c4881192",
  "abi": [
    {
      "inputs": [
        {
          "internalType": "address",
          "name": "_finderAddress",
          "type": "address"
        },
        {
          "internalType": "contract IERC20",
          "name": "_token",
          "type": "address"
        }
      ],
      "stateMutability": "nonpayable",
      "type": "constructor"
    },
    {
      "anonymous": false,
      "inputs": [
        {
          "indexed": true,
          "internalType": "address",
          "name": "previousOwner",
          "type": "address"
        },
        {
          "indexed": true,
          "internalType": "address",
          "name": "newOwner",
          "type": "address"
        }
      ],
      "name": "OwnershipTransferred",
      "type": "event"
    },
    {
      "anonymous": false,
      "inputs": [
        {
          "indexed": true,
          "internalType": "bytes32",
          "name": "identifier",
          "type": "bytes32"
        },
        {
          "indexed": false,
          "internalType": "uint256",
          "name": "time",
          "type": "uint256"
        },
        {
          "indexed": false,
          "internalType": "bytes",
          "name": "ancillaryData",
          "type": "bytes"
        },
        {
          "indexed": true,
          "internalType": "bytes32",
          "name": "requestHash",
          "type": "bytes32"
        }
      ],
      "name": "PriceRequestAdded",
      "type": "event"
    },
    {
      "anonymous": false,
      "inputs": [
        {
          "indexed": true,
          "internalType": "bytes32",
          "name": "identifier",
          "type": "bytes32"
        },
        {
          "indexed": false,
          "internalType": "uint256",
          "name": "time",
          "type": "uint256"
        },
        {
          "indexed": false,
          "internalType": "bytes",
          "name": "ancillaryData",
          "type": "bytes"
        },
        {
          "indexed": false,
          "internalType": "int256",
          "name": "price",
          "type": "int256"
        },
        {
          "indexed": true,
          "internalType": "bytes32",
          "name": "requestHash",
          "type": "bytes32"
        }
      ],
      "name": "PushedPrice",
      "type": "event"
    },
    {
      "anonymous": false,
      "inputs": [
        {
          "indexed": true,
          "internalType": "uint256",
          "name": "chainId",
          "type": "uint256"
        },
        {
          "indexed": true,
          "internalType": "address",
          "name": "parentMessenger",
          "type": "address"
        }
      ],
      "name": "SetParentMessenger",
      "type": "event"
    },
    {
      "inputs": [],
      "name": "finder",
      "outputs": [
        {
          "internalType": "contract FinderInterface",
          "name": "",
          "type": "address"
        }
      ],
      "stateMutability": "view",
      "type": "function"
    },
    {
      "inputs": [
        {
          "internalType": "uint256",
          "name": "",
          "type": "uint256"
        }
      ],
      "name": "messengers",
      "outputs": [
        {
          "internalType": "contract ParentMessengerInterface",
          "name": "",
          "type": "address"
        }
      ],
      "stateMutability": "view",
      "type": "function"
    },
    {
      "inputs": [
        {
          "internalType": "bytes[]",
          "name": "data",
          "type": "bytes[]"
        }
      ],
      "name": "multicall",
      "outputs": [
        {
          "internalType": "bytes[]",
          "name": "results",
          "type": "bytes[]"
        }
      ],
      "stateMutability": "nonpayable",
      "type": "function"
    },
    {
      "inputs": [],
      "name": "owner",
      "outputs": [
        {
          "internalType": "address",
          "name": "",
          "type": "address"
        }
      ],
      "stateMutability": "view",
      "type": "function"
    },
    {
      "inputs": [
        {
          "internalType": "uint256",
          "name": "chainId",
          "type": "uint256"
        },
        {
          "internalType": "bytes",
          "name": "data",
          "type": "bytes"
        }
      ],
      "name": "processMessageFromChild",
      "outputs": [],
      "stateMutability": "nonpayable",
      "type": "function"
    },
    {
      "inputs": [
        {
          "internalType": "uint256",
          "name": "chainId",
          "type": "uint256"
        },
        {
          "internalType": "bytes32",
          "name": "identifier",
          "type": "bytes32"
        },
        {
          "internalType": "uint256",
          "name": "time",
          "type": "uint256"
        },
        {
          "internalType": "bytes",
          "name": "ancillaryData",
          "type": "bytes"
        }
      ],
      "name": "publishPrice",
      "outputs": [],
      "stateMutability": "payable",
      "type": "function"
    },
    {
      "inputs": [],
      "name": "renounceOwnership",
      "outputs": [],
      "stateMutability": "nonpayable",
      "type": "function"
    },
    {
      "inputs": [
        {
          "internalType": "bytes32",
          "name": "identifier",
          "type": "bytes32"
        },
        {
          "internalType": "uint256",
          "name": "time",
          "type": "uint256"
        },
        {
          "internalType": "bytes",
          "name": "ancillaryData",
          "type": "bytes"
        }
      ],
      "name": "requestPrice",
      "outputs": [],
      "stateMutability": "nonpayable",
      "type": "function"
    },
    {
      "inputs": [
        {
          "internalType": "uint256",
          "name": "chainId",
          "type": "uint256"
        },
        {
          "internalType": "contract ParentMessengerInterface",
          "name": "messenger",
          "type": "address"
        }
      ],
      "name": "setMessenger",
      "outputs": [],
      "stateMutability": "nonpayable",
      "type": "function"
    },
    {
      "inputs": [],
      "name": "token",
      "outputs": [
        {
          "internalType": "contract IERC20",
          "name": "",
          "type": "address"
        }
      ],
      "stateMutability": "view",
      "type": "function"
    },
    {
      "inputs": [
        {
          "internalType": "address",
          "name": "newOwner",
          "type": "address"
        }
      ],
      "name": "transferOwnership",
      "outputs": [],
      "stateMutability": "nonpayable",
      "type": "function"
    }
  ],
  "transactionHash": "0x88a1cc6f9272175b795df76b65db3eeae2114758bae23cd9b203c05f05e4f581",
  "args": [
    "0xA969917A4dFaB07936dEc60f70FA5c736A1e2b9e",
    "0x473411E26885aE3A291EF4F4eB430F33946EDAD7"
  ],
  "solcInputHash": "864d61c65c789401ae17358a5af86557",
  "bytecode": "0x6080346100da57601f61153d38819003918201601f19168301916001600160401b038311848410176100df5780849260409485528339810103126100da5780516001600160a01b0391828216918290036100da5760200151908282168092036100da5760018060a01b03199081600054161760005560025460405193339082167f8be0079c531659141344cd1fd0a4f28419497f9722a3daafe3b4186f6b6457e0600087a36001600160a81b0319163360ff60a01b191617600160a01b17600255600380549190911691909117905561144790816100f68239f35b600080fd5b634e487b7160e01b600052604160045260246000fdfe60806040526004361015610013575b600080fd5b60003560e01c8063109ea4bf146100ef578063216666a4146100e657806324ec66b3146100dd5780636423b60e146100d4578063715018a6146100cb5780638da5cb5b146100c2578063ac9650d8146100b9578063b9a3c84c146100b0578063ba609423146100a7578063f2fde38b1461009e5763fc0c546a1461009657600080fd5b61000e610a40565b5061000e61096b565b5061000e610707565b5061000e6106dd565b5061000e610673565b5061000e61059f565b5061000e61053a565b5061000e610470565b5061000e61043b565b5061000e6102ac565b5061000e610109565b6001600160a01b0381160361000e57565b503461000e57604036600319011261000e57600060043560243561012c816100f8565b610134610d56565b6002805460ff60a01b19169055610149610a6a565b8183526004602052604080842080546001600160a01b0319166001600160a01b03909316928317905551917fcf56c779a9eca65535bf3ac68fb105d582ccb9c630e86864b96a2994afec6f938484a36002805460ff60a01b1916600160a01b179055f35b50634e487b7160e01b600052604160045260246000fd5b6001600160401b0381116101d757604052565b6101df6101ad565b604052565b60a081019081106001600160401b038211176101d757604052565b604081019081106001600160401b038211176101d757604052565b90601f801991011681019081106001600160401b038211176101d757604052565b6020906001600160401b038111610258575b601f01601f19160190565b6102606101ad565b61024d565b81601f8201121561000e5780359061027c8261023b565b9261028a604051948561021a565b8284526020838301011161000e57816000926020809301838601378301015290565b503461000e57606036600319011261000e576024356004356044356001600160401b03811161000e576102e3903690600401610265565b6102eb610d56565b6002805460ff60a01b19169055610303818484611050565b61031d575b6002805460ff60a01b1916600160a01b179055005b61038c61033761032b6113c9565b6001600160a01b031690565b600354604051635b97aadd60e01b81526001600160a01b039091166004820181905291602090829060249082905afa90811561042e575b600091610400575b50519061038461032b6113c9565b903390611161565b61039761032b611346565b803b1561000e576103c393600080946040519687958694859363085999a960e21b855260048501610dba565b03925af180156103f3575b6103da575b8080610308565b806103e76103ed926101c4565b8061052f565b386103d3565b6103fb610dd6565b6103ce565b610421915060203d8111610427575b610419818361021a565b810190611125565b38610376565b503d61040f565b610436610dd6565b61036e565b503461000e57602036600319011261000e576004356000526004602052602060018060a01b0360406000205416604051908152f35b503461000e57604036600319011261000e576024356001600160401b03811161000e576104a1903690600401610265565b6104a9610d56565b6002805460ff60a01b19169055600435600052600460205260018060a01b036040600020541633036104de5761030890610f72565b60405162461bcd60e51b8152602060048201526024808201527f43616c6c6572206d757374206265206d657373656e67657220666f72206e6574604482015263776f726b60e01b6064820152608490fd5b600091031261000e57565b503461000e5760008060031936011261059c57610555610a6a565b600280546001600160a01b031981169091556040519082906001600160a01b03167f8be0079c531659141344cd1fd0a4f28419497f9722a3daafe3b4186f6b6457e08284a3f35b80fd5b503461000e57600036600319011261000e576002546040516001600160a01b039091168152602090f35b60005b8381106105dc5750506000910152565b81810151838201526020016105cc565b90602091610605815180928185528580860191016105c9565b601f01601f1916010190565b602080820190808352835180925260408301928160408460051b8301019501936000915b8483106106455750505050505090565b9091929394958480610663600193603f198682030187528a516105ec565b9801930193019194939290610635565b503461000e57602036600319011261000e576001600160401b0360043581811161000e573660238201121561000e57806004013591821161000e573660248360051b8301011161000e576106d99160246106cd9201610c9e565b60405191829182610611565b0390f35b503461000e57600036600319011261000e576000546040516001600160a01b039091168152602090f35b50608036600319011261000e576044356004356024356064356001600160401b03811161000e5783610834610743610842933690600401610265565b61074b610d56565b6002805460ff60a01b1916905561076361032b611346565b906040968487895180956338ce36ab60e11b8252818061078b8860209c8d9760048501610dba565b03915afa93841561095e575b60009461092b575b506107d7610827926107b6868661032b958d610ebb565b61080f6004898d6107e461032b6107d7876000526004602052604060002090565b546001600160a01b031690565b90516308f1ed1560e01b815292839182905afa90811561091e575b6000916108f1575b503414610de3565b8a346108b4575b506000526004602052604060002090565b9787519687958601610e74565b03601f19810183528261021a565b823b1561000e57600061086d8194829385519485809481936309813cdd60e31b835260048301610c6b565b03925af180156108a7575b610894575b506002805460ff60a01b1916600160a01b17905551f35b806103e76108a1926101c4565b3861087d565b6108af610dd6565b610878565b600080806108eb936108d661032b6107d7886000526004602052604060002090565b90519034905af16108e5610bcb565b50610e28565b8a610816565b61091191508a3d8c11610917575b610909818361021a565b810190610dab565b38610807565b503d6108ff565b610926610dd6565b6107ff565b839450610827926107b661032b936109526107d7948b3d8d1161091757610909818361021a565b9750935050925061079f565b610966610dd6565b610797565b503461000e57602036600319011261000e57600435610989816100f8565b610991610a6a565b6001600160a01b039081169081156109ec5760009160025491816bffffffffffffffffffffffff60a01b84161760025560405192167f8be0079c531659141344cd1fd0a4f28419497f9722a3daafe3b4186f6b6457e08484a3f35b60405162461bcd60e51b815260206004820152602660248201527f4f776e61626c653a206e6577206f776e657220697320746865207a65726f206160448201526564647265737360d01b6064820152608490fd5b503461000e57600036600319011261000e576003546040516001600160a01b039091168152602090f35b6002546001600160a01b03163303610a7e57565b606460405162461bcd60e51b815260206004820152602060248201527f4f776e61626c653a2063616c6c6572206973206e6f7420746865206f776e65726044820152fd5b6020906001600160401b038111610adb575b60051b0190565b610ae36101ad565b610ad4565b90610af282610ac2565b610aff604051918261021a565b8281528092610b10601f1991610ac2565b019060005b828110610b2157505050565b806060602080938501015201610b15565b6000198114610b415760010190565b634e487b7160e01b600052601160045260246000fd5b50634e487b7160e01b600052603260045260246000fd5b9190811015610bb0575b60051b81013590601e198136030182121561000e5701908135916001600160401b03831161000e57602001823603811361000e579190565b610bb8610b57565b610b78565b908092918237016000815290565b3d15610bf6573d90610bdc8261023b565b91610bea604051938461021a565b82523d6000602084013e565b606090565b90929192610c088161023b565b91610c16604051938461021a565b82948284528282011161000e576020610c309301906105c9565b565b60208183031261000e578051906001600160401b03821161000e57019080601f8301121561000e578151610c6892602001610bfb565b90565b906020610c689281815201906105ec565b6020918151811015610c91575b60051b010190565b610c99610b57565b610c89565b919091610caa83610ae8565b9260005b818110610cba57505050565b600080610cc8838587610b6e565b60409391610cda855180938193610bbd565b0390305af490610ce8610bcb565b91829015610d1757505090610d1291610d018288610c7c565b52610d0c8187610c7c565b50610b32565b610cae565b6044839293511061000e57610d3d610d5291600480940160248091518301019101610c32565b925162461bcd60e51b81529283928301610c6b565b0390fd5b60ff60025460a01c1615610d6657565b60405162461bcd60e51b815260206004820152601f60248201527f5265656e7472616e637947756172643a207265656e7472616e742063616c6c006044820152606490fd5b9081602091031261000e575190565b610c6893926060928252602082015281604082015201906105ec565b506040513d6000823e3d90fd5b15610dea57565b60405162461bcd60e51b8152602060048201526016602482015275496e73756666696369656e74206d73672e76616c756560501b6044820152606490fd5b15610e2f57565b60405162461bcd60e51b815260206004820152601c60248201527f43616e6e6f742073656e642045544820746f206d657373656e676572000000006044820152606490fd5b949392606092610e9692875260208701526080604087015260808601906105ec565b930152565b60031115610ea557565b634e487b7160e01b600052602160045260246000fd5b91929092610eca818585610f52565b9384600052600160205260406000209283549360ff85166003811015610ea557600214610f495760027ffd38de8c79c8c3c553ecd154c6b11b67511ec8dee573c8a488a056d7335b34e89583600184015560ff1916179055610f3e60405193849384526060602085015260608401906105ec565b9060408301520390a3565b50505050505050565b9190610f6c90610834604051938492602084019687610dba565b51902090565b805181016060826020830192031261000e576020820151906040830151926060810151906001600160401b03821161000e57019080603f8301121561000e576020820151610fc292604001610bfb565b610fcd818484611050565b610fd657505050565b610fe161032b611346565b803b1561000e5761100d93600080946040519687958694859363085999a960e21b855260048501610dba565b03925af1801561102c575b61101f5750565b806103e7610c30926101c4565b611034610dd6565b611018565b604090610c689392815281602082015201906105ec565b906120008351116110e757611066838284610f52565b9261107b846000526001602052604060002090565b91611087835460ff1690565b61109081610e9b565b6110dd576110c67f55ad1db144341b8105784dba37a7cb1c3088262f75ea638cfb7c8ecfb73751c693600160ff19825416179055565b6110d560405192839283611039565b0390a3600190565b5050505050600090565b60405162461bcd60e51b8152602060048201526016602482015275496e76616c696420616e63696c6c617279206461746160501b6044820152606490fd5b9081602091031261000e5760405190602082018281106001600160401b03821117611154575b60405251815290565b61115c6101ad565b61114b565b6040516323b872dd60e01b602082019081526001600160a01b039384166024830152938316604482015260648082019590955293845291926111fb929091906111a9836101e4565b16604051916111b7836101ff565b602083527f5361666545524332303a206c6f772d6c6576656c2063616c6c206661696c65646020840152600080958192519082855af16111f5610bcb565b916112a0565b8051908115918215611214575b5050610c309150611241565b819250906020918101031261123d576020015190811515820361059c5750610c30903880611208565b5080fd5b1561124857565b60405162461bcd60e51b815260206004820152602a60248201527f5361666545524332303a204552433230206f7065726174696f6e20646964206e6044820152691bdd081cdd58d8d9595960b21b6064820152608490fd5b9192901561130257508151156112b4575090565b3b156112bd5790565b60405162461bcd60e51b815260206004820152601d60248201527f416464726573733a2063616c6c20746f206e6f6e2d636f6e74726163740000006044820152606490fd5b8251909150156113155750805190602001fd5b60405162461bcd60e51b8152908190610d529060048301610c6b565b9081602091031261000e5751610c68816100f8565b6000546040516302abf57960e61b8152654f7261636c6560d01b60048201526001600160a01b03916020908290602490829086165afa9081156113bc575b60009161139057501690565b6113b1915060203d81116113b5575b6113a9818361021a565b810190611331565b1690565b503d61139f565b6113c4610dd6565b611384565b6000546040516302abf57960e61b81526453746f726560d81b60048201526001600160a01b03916020908290602490829086165afa9081156113bc576000916113905750169056fea26469706673582212208f4ec7c151349d48256704486388b7bb31016a558d43bb67a41daa618625a5b764736f6c63430008100033",
  "devdoc": {
    "details": "This contract must be a registered financial contract in order to make and query DVM price requests.",
    "kind": "dev",
    "methods": {
      "owner()": {
        "details": "Returns the address of the current owner."
      },
      "processMessageFromChild(uint256,bytes)": {
        "details": "This contract must be registered to submit price requests to the DVM. Only the ParentMessenger can call this method. If the original requester on the child chain wants to expedite the Child --> Parent message, then they can call `requestPrice` on this contract for the same unique price request.",
        "params": {
          "chainId": "id of the child chain that sent the price request.",
          "data": "ABI encoded params with which to call `_requestPrice`."
        }
      },
      "publishPrice(uint256,bytes32,uint256,bytes)": {
        "details": "This method will always attempt to call `messenger.sendMessageToChild` even if it is a duplicate call for this price request. Therefore the Messenger contract for this `chainId` should determine how to handle duplicate calls.This method is `payable` so that ETH can be forwarded to Messenger contracts that need to send ETH from L1 to L2, like Arbitrum messengers for example. For networks that do not use ETH, the caller will lose ETH, therefore it is the caller's responsibility to know when to send ETH. This is allowed to be `payable` because any EOA can call this function.",
        "params": {
          "ancillaryData": "extra data of price request to resolve.",
          "chainId": "Network to resolve price for.",
          "identifier": "Identifier of price request to resolve.",
          "time": "Timestamp of price request to resolve."
        }
      },
      "renounceOwnership()": {
        "details": "Leaves the contract without owner. It will not be possible to call `onlyOwner` functions. Can only be called by the current owner. NOTE: Renouncing ownership will leave the contract without an owner, thereby disabling any functionality that is only available to the owner."
      },
      "requestPrice(bytes32,uint256,bytes)": {
        "details": "The caller must pay a final fee and have approved this contract to pull final fee from it.If the price request params including the ancillary data does not match exactly the price request submitted on the child chain, then the child chain's price request will not resolve. The caller is recommended to use the `stampAncillaryData` method on the OracleSpoke to reconstruct the ancillary data.",
        "params": {
          "ancillaryData": "Extra data for price request.",
          "identifier": "Identifier for price request.",
          "time": "time for price request."
        }
      },
      "setMessenger(uint256,address)": {
        "details": "Only callable by the owner (presumably the Ethereum Governor contract).",
        "params": {
          "chainId": "network that has a child messenger contract that parent messenger contract will communicate with.",
          "messenger": "ParentMessenger contract that sends messages to ChildMessenger on network with ID `chainId`."
        }
      },
      "transferOwnership(address)": {
        "details": "Transfers ownership of the contract to a new account (`newOwner`). Can only be called by the current owner."
      }
    },
    "title": "Cross-chain Oracle L1 Oracle Hub.",
    "version": 1
  },
  "userdoc": {
    "kind": "user",
    "methods": {
      "processMessageFromChild(uint256,bytes)": {
        "notice": "Submits a price request originating from an OracleSpoke. Request data must be sent via the Child --> Parent Messenger communication channel. Returns silently if price request is a duplicate."
      },
      "publishPrice(uint256,bytes32,uint256,bytes)": {
        "notice": "Publishes a DVM resolved price to the OracleSpoke deployed on the network linked  with `chainId`, or reverts if not resolved yet. This contract must be registered with the DVM to query price requests. The DVM price resolution is communicated to the OracleSpoke via the Parent-->Child messenger channel."
      },
      "requestPrice(bytes32,uint256,bytes)": {
        "notice": "Anyone can call this method to directly request a price to the DVM. This could be used by the child chain requester in the case where Child --> Parent communication takes too long and the requester wants to speed up the price resolution process. Returns silently if price request is a duplicate. Calling this method from the user's point of view is no different than calling the OptimisticOracle.requestPrice method, but with a different interface."
      },
      "setMessenger(uint256,address)": {
        "notice": "Set new ParentMessenger contract for chainId."
      }
    },
    "notice": "Gatekeeper contract deployed on mainnet that validates and sends price requests from sidechain to the DVM on mainnet. This is a \"gate keeper\" contract because it performs the final validation for any messages originating from a child chain's oracle before submitting price requests to the DVM. This contract also can publish DVM price resolution data to OracleSpokes on any chainId via the messenger for that chainId.",
    "version": 1
  },
  "storageLayout": {
    "storage": [
      {
        "astId": 16286,
        "contract": "contracts/cross-chain-oracle/OracleHub.sol:OracleHub",
        "label": "finder",
        "offset": 0,
        "slot": "0",
        "type": "t_contract(FinderInterface)36753"
      },
      {
        "astId": 21870,
        "contract": "contracts/cross-chain-oracle/OracleHub.sol:OracleHub",
        "label": "prices",
        "offset": 0,
        "slot": "1",
        "type": "t_mapping(t_bytes32,t_struct(Price)21865_storage)"
      },
      {
        "astId": 4304,
        "contract": "contracts/cross-chain-oracle/OracleHub.sol:OracleHub",
        "label": "_owner",
        "offset": 0,
        "slot": "2",
        "type": "t_address"
      },
      {
        "astId": 16304,
        "contract": "contracts/cross-chain-oracle/OracleHub.sol:OracleHub",
        "label": "_notEntered",
        "offset": 20,
        "slot": "2",
        "type": "t_bool"
      },
      {
        "astId": 22065,
        "contract": "contracts/cross-chain-oracle/OracleHub.sol:OracleHub",
        "label": "token",
        "offset": 0,
        "slot": "3",
        "type": "t_contract(IERC20)5182"
      },
      {
        "astId": 22070,
        "contract": "contracts/cross-chain-oracle/OracleHub.sol:OracleHub",
        "label": "messengers",
        "offset": 0,
        "slot": "4",
        "type": "t_mapping(t_uint256,t_contract(ParentMessengerInterface)24537)"
      }
    ],
    "types": {
      "t_address": {
        "encoding": "inplace",
        "label": "address",
        "numberOfBytes": "20"
      },
      "t_bool": {
        "encoding": "inplace",
        "label": "bool",
        "numberOfBytes": "1"
      },
      "t_bytes32": {
        "encoding": "inplace",
        "label": "bytes32",
        "numberOfBytes": "32"
      },
      "t_contract(FinderInterface)36753": {
        "encoding": "inplace",
        "label": "contract FinderInterface",
        "numberOfBytes": "20"
      },
      "t_contract(IERC20)5182": {
        "encoding": "inplace",
        "label": "contract IERC20",
        "numberOfBytes": "20"
      },
      "t_contract(ParentMessengerInterface)24537": {
        "encoding": "inplace",
        "label": "contract ParentMessengerInterface",
        "numberOfBytes": "20"
      },
      "t_enum(RequestState)21859": {
        "encoding": "inplace",
        "label": "enum OracleBase.RequestState",
        "numberOfBytes": "1"
      },
      "t_int256": {
        "encoding": "inplace",
        "label": "int256",
        "numberOfBytes": "32"
      },
      "t_mapping(t_bytes32,t_struct(Price)21865_storage)": {
        "encoding": "mapping",
        "key": "t_bytes32",
        "label": "mapping(bytes32 => struct OracleBase.Price)",
        "numberOfBytes": "32",
        "value": "t_struct(Price)21865_storage"
      },
      "t_mapping(t_uint256,t_contract(ParentMessengerInterface)24537)": {
        "encoding": "mapping",
        "key": "t_uint256",
        "label": "mapping(uint256 => contract ParentMessengerInterface)",
        "numberOfBytes": "32",
        "value": "t_contract(ParentMessengerInterface)24537"
      },
      "t_struct(Price)21865_storage": {
        "encoding": "inplace",
        "label": "struct OracleBase.Price",
        "members": [
          {
            "astId": 21862,
            "contract": "contracts/cross-chain-oracle/OracleHub.sol:OracleHub",
            "label": "state",
            "offset": 0,
            "slot": "0",
            "type": "t_enum(RequestState)21859"
          },
          {
            "astId": 21864,
            "contract": "contracts/cross-chain-oracle/OracleHub.sol:OracleHub",
            "label": "price",
            "offset": 0,
            "slot": "1",
            "type": "t_int256"
          }
        ],
        "numberOfBytes": "64"
      },
      "t_uint256": {
        "encoding": "inplace",
        "label": "uint256",
        "numberOfBytes": "32"
      }
    }
  }
}