{
  "address": "0xd62c14eb790AE64D78760017B52e3250a16D4627",
  "abi": [
    {
      "inputs": [
        {
          "internalType": "address",
          "name": "_finderAddress",
          "type": "address"
        },
        {
          "internalType": "address",
          "name": "_tokenFactoryAddress",
          "type": "address"
        },
        {
          "internalType": "address",
          "name": "_timerAddress",
          "type": "address"
        }
      ],
      "stateMutability": "nonpayable",
      "type": "constructor"
    },
    {
      "anonymous": false,
      "inputs": [
        {
          "indexed": true,
          "internalType": "address",
          "name": "configStoreAddress",
          "type": "address"
        },
        {
          "indexed": true,
          "internalType": "address",
          "name": "ownerAddress",
          "type": "address"
        }
      ],
      "name": "CreatedConfigStore",
      "type": "event"
    },
    {
      "anonymous": false,
      "inputs": [
        {
          "indexed": true,
          "internalType": "address",
          "name": "perpetualAddress",
          "type": "address"
        },
        {
          "indexed": true,
          "internalType": "address",
          "name": "deployerAddress",
          "type": "address"
        }
      ],
      "name": "CreatedPerpetual",
      "type": "event"
    },
    {
      "inputs": [
        {
          "internalType": "address",
          "name": "_collateralAddress",
          "type": "address"
        }
      ],
      "name": "_getSyntheticDecimals",
      "outputs": [
        {
          "internalType": "uint8",
          "name": "decimals",
          "type": "uint8"
        }
      ],
      "stateMutability": "view",
      "type": "function"
    },
    {
      "inputs": [
        {
          "components": [
            {
              "internalType": "address",
              "name": "collateralAddress",
              "type": "address"
            },
            {
              "internalType": "bytes32",
              "name": "priceFeedIdentifier",
              "type": "bytes32"
            },
            {
              "internalType": "bytes32",
              "name": "fundingRateIdentifier",
              "type": "bytes32"
            },
            {
              "internalType": "string",
              "name": "syntheticName",
              "type": "string"
            },
            {
              "internalType": "string",
              "name": "syntheticSymbol",
              "type": "string"
            },
            {
              "components": [
                {
                  "internalType": "uint256",
                  "name": "rawValue",
                  "type": "uint256"
                }
              ],
              "internalType": "struct FixedPoint.Unsigned",
              "name": "collateralRequirement",
              "type": "tuple"
            },
            {
              "components": [
                {
                  "internalType": "uint256",
                  "name": "rawValue",
                  "type": "uint256"
                }
              ],
              "internalType": "struct FixedPoint.Unsigned",
              "name": "disputeBondPercentage",
              "type": "tuple"
            },
            {
              "components": [
                {
                  "internalType": "uint256",
                  "name": "rawValue",
                  "type": "uint256"
                }
              ],
              "internalType": "struct FixedPoint.Unsigned",
              "name": "sponsorDisputeRewardPercentage",
              "type": "tuple"
            },
            {
              "components": [
                {
                  "internalType": "uint256",
                  "name": "rawValue",
                  "type": "uint256"
                }
              ],
              "internalType": "struct FixedPoint.Unsigned",
              "name": "disputerDisputeRewardPercentage",
              "type": "tuple"
            },
            {
              "components": [
                {
                  "internalType": "uint256",
                  "name": "rawValue",
                  "type": "uint256"
                }
              ],
              "internalType": "struct FixedPoint.Unsigned",
              "name": "minSponsorTokens",
              "type": "tuple"
            },
            {
              "components": [
                {
                  "internalType": "uint256",
                  "name": "rawValue",
                  "type": "uint256"
                }
              ],
              "internalType": "struct FixedPoint.Unsigned",
              "name": "tokenScaling",
              "type": "tuple"
            },
            {
              "internalType": "uint256",
              "name": "withdrawalLiveness",
              "type": "uint256"
            },
            {
              "internalType": "uint256",
              "name": "liquidationLiveness",
              "type": "uint256"
            }
          ],
          "internalType": "struct PerpetualCreator.Params",
          "name": "params",
          "type": "tuple"
        },
        {
          "components": [
            {
              "internalType": "uint256",
              "name": "timelockLiveness",
              "type": "uint256"
            },
            {
              "components": [
                {
                  "internalType": "uint256",
                  "name": "rawValue",
                  "type": "uint256"
                }
              ],
              "internalType": "struct FixedPoint.Unsigned",
              "name": "rewardRatePerSecond",
              "type": "tuple"
            },
            {
              "components": [
                {
                  "internalType": "uint256",
                  "name": "rawValue",
                  "type": "uint256"
                }
              ],
              "internalType": "struct FixedPoint.Unsigned",
              "name": "proposerBondPercentage",
              "type": "tuple"
            },
            {
              "components": [
                {
                  "internalType": "int256",
                  "name": "rawValue",
                  "type": "int256"
                }
              ],
              "internalType": "struct FixedPoint.Signed",
              "name": "maxFundingRate",
              "type": "tuple"
            },
            {
              "components": [
                {
                  "internalType": "int256",
                  "name": "rawValue",
                  "type": "int256"
                }
              ],
              "internalType": "struct FixedPoint.Signed",
              "name": "minFundingRate",
              "type": "tuple"
            },
            {
              "internalType": "uint256",
              "name": "proposalTimePastLimit",
              "type": "uint256"
            }
          ],
          "internalType": "struct ConfigStoreInterface.ConfigSettings",
          "name": "configSettings",
          "type": "tuple"
        }
      ],
      "name": "createPerpetual",
      "outputs": [
        {
          "internalType": "address",
          "name": "",
          "type": "address"
        }
      ],
      "stateMutability": "nonpayable",
      "type": "function"
    },
    {
      "inputs": [],
      "name": "getCurrentTime",
      "outputs": [
        {
          "internalType": "uint256",
          "name": "",
          "type": "uint256"
        }
      ],
      "stateMutability": "view",
      "type": "function"
    },
    {
      "inputs": [
        {
          "internalType": "uint256",
          "name": "time",
          "type": "uint256"
        }
      ],
      "name": "setCurrentTime",
      "outputs": [],
      "stateMutability": "nonpayable",
      "type": "function"
    },
    {
      "inputs": [],
      "name": "timerAddress",
      "outputs": [
        {
          "internalType": "address",
          "name": "",
          "type": "address"
        }
      ],
      "stateMutability": "view",
      "type": "function"
    },
    {
      "inputs": [],
      "name": "tokenFactoryAddress",
      "outputs": [
        {
          "internalType": "address",
          "name": "",
          "type": "address"
        }
      ],
      "stateMutability": "view",
      "type": "function"
    }
  ],
  "transactionHash": "0xbe678dae644ac304a29e5dccae295be5050173f828ac98f0b378f591e17c0955",
  "args": [
    "0xA969917A4dFaB07936dEc60f70FA5c736A1e2b9e",
    "0x8Aa853D41A08c9E22CB27A383344a273d12310C3",
    "0xf8815ce169E5450aa6908e76E1B970dBcEC11550"
  ],
  "solcInputHash": "864d61c65c789401ae17358a5af86557",
  "bytecode": "0x60803461011457601f6120d638819003918201601f19168301916001600160401b0383118484101761011957808492606094604052833981010312610114576100478161012f565b9061006060406100596020840161012f565b920161012f565b600080546001600160a01b039485166001600160a01b031991821617909155600154600160a01b949283166001600160a81b03199091161784179290919060ff60a085901c16156100cf571690600254161760025560ff60a01b191617600155604051611f9290816101448239f35b60405162461bcd60e51b815260206004820152601f60248201527f5265656e7472616e637947756172643a207265656e7472616e742063616c6c006044820152606490fd5b600080fd5b634e487b7160e01b600052604160045260246000fd5b51906001600160a01b03821682036101145756fe60808060405260043610156200001457600080fd5b600090813560e01c9081631c39c38d14620010145750806322934b2e146200018d57806322f8e566146200010357806329cb924d14620000dc5780634ead6e5114620000975763be19f0a7146200006a57600080fd5b3462000094578060031936011262000094576002546040516001600160a01b039091168152602090f35b80fd5b50346200009457602036600319011262000094576004356001600160a01b0381168103620000d757620000cc602091620011f3565b60ff60405191168152f35b600080fd5b503462000094578060031936011262000094576020620000fb6200110d565b604051908152f35b503462000094576020366003190112620000945760015481906001600160a01b031680156200018a57803b156200018a5781809160246040518094819363117c72b360e11b835260043560048401525af180156200017f5762000167575b50604051f35b62000172906200103b565b6200009457803862000161565b6040513d84823e3d90fd5b50fd5b5034620000945760e0366003190112620000945767ffffffffffffffff6004351162000094576101a06004353603600319011262000094576040516101a0810181811067ffffffffffffffff82111762001000576040526004803501356001600160a01b038116810362000f2057815260043560248101356020830152604481013560408301526064013567ffffffffffffffff811162000f20576200023b90600436918135010162001090565b60608201526084600435013567ffffffffffffffff811162000f20576200026a90600436918135010162001090565b6080820152620002803660a460043501620010ec565b60a0820152620002963660c460043501620010ec565b60c0820152620002ac3660e460043501620010ec565b60e0820152620002c33661010460043501620010ec565b610100820152620002db3661012460043501620010ec565b610120820152620002f33661014460043501620010ec565b610140820152600435610164810135610160830152610184013561018082015260c036602319011262000b7d576040518060c081011067ffffffffffffffff60c083011117620010005760c081016040526024358152602036604319011262000f2057604051620003648162001050565b60443581526020820152602060631936011262000f2057604051620003898162001050565b60643581526040820152602036608319011262000f2057604051620003ae8162001050565b6084358152606082015260203660a319011262000f2057604051620003d38162001050565b60a4358152608082015260c43560a082015260015460ff8160a01c161562000fbb5760ff60a01b1981166001556060830151511562000f7d576080830151511562000f38576040519182610ce981011067ffffffffffffffff610ce98501111762000f245760a090610ce96200127485398051610ce98501908152602080830151519082015260408083015151908201526060808301515190820152608080830151519082015291015160a08201526001600160a01b039190911660c082015281900360e0019083f080156200017f576001600160a01b031690813b1562000f205760405163f2fde38b60e01b8152336004820152838160248183875af1801562000bec5762000f0a575b50604051638da5cb5b60e01b8152602081600481865afa90811562000bec57849162000ee6575b5060018060a01b0316827f23d45bf4c833a71e3d850a2349ce5f05b911128e2c57e7b4f6204adabd6cf06885604051a36002548151620005a6916020916001600160a01b03918216916200055a9116620011f3565b906200059387606087015160808801519460ff6040519889978896879563e8a0aed360e01b8752606060048801526064870190620011b1565b85810360031901602487015290620011b1565b9116604483015203925af190811562000bec57849162000e9d575b5060405192836101e081011067ffffffffffffffff6101e08601111762000e87576101e084016040528484528460208501528460408501528460608501528460808501528460a08501528460c08501528460e0850152604051620006258162001050565b8581526101008501526040516200063c8162001050565b858152610120850152846101408501526040516200065a8162001050565b858152610160850152604051620006718162001050565b858152610180850152604051620006888162001050565b8581526101a08501526040516200069f8162001050565b8581526101c085015284546001600160a01b039081166080860181905260015490911660a08601526101608401511562000e42576101808401511562000dfe5783516040516302abf57960e61b81527210dbdb1b185d195c985b15da1a5d195b1a5cdd606a1b6004820152916001600160a01b0390911690602090839060249082905afa91821562000df357879262000dcc575b50604051631d1d5b3960e11b8152600481019190915290602090829060249082906001600160a01b03165afa90811562000dc157869162000d7b575b501562000d365763bb74480080610160850151101562000cf157610180840151101562000cac57604051620007a48162001050565b6305f5e1008152604051620007b98162001050565b6b204fce5e3e250261100000008091526101408501515191518211918262000ca1575b50501562000c6557849261014091602086015260018060a01b038316606086015260018060a01b038151166040860152602081015160c0860152604081015160e086015260a081015161016086015260c081015161018086015260e08101516101a08601526101008101516101c086015261012081015161010086015261016081015185526101808101518286015201516101208401526101c060405193634048d03b60e01b85528051600486015260018060a01b03602082015116602486015260018060a01b03604082015116604486015260018060a01b03606082015116606486015260018060a01b03608082015116608486015260018060a01b0360a08201511660a486015260c081015160c486015260e081015160e4860152610100810151516101048601526101208101515161012486015261014081015161014486015261016081015151610164860152610180810151516101848601526101a0810151516101a48601520151516101c48401526020836101e481734BC79d42400B678CE62038b6d1b3c478F3BBCb815af49283156200017f57829362000c3f575b506001600160a01b0381163b1562000b7d57604051634c1d96ab60e11b81526001600160a01b039384166004820181905293839082906024908290849087165af190811562000b8157839162000c27575b50506001600160a01b0381163b1562000b7d57604051637a231bdd60e11b8152600481018490528281602481836001600160a01b0387165af190811562000b8157839162000c0f575b50506001600160a01b0381163b1562000b7d576040516339e6401560e11b8152600481018490529082908290602490829084906001600160a01b03165af180156200017f5762000bf7575b505060405162000a728162001050565b82815282546040516302abf57960e61b815267526567697374727960c01b600482015290602090829060249082906001600160a01b03165afa90811562000bec57849162000bb6575b506001600160a01b0316803b1562000bb25790839060405192839163066c8c2560e41b835260448301604060048501528151809152602060648501920190855b81811062000b8c575050508383809288602483015203925af1801562000b815762000b65575b6040516020908333817f0973ec8400460054364cff2a05dda9a23216bde72cfcad508b1d5251f780d6dd8885a36001805460ff60a01b1916600160a01b1790558152f35b62000b7183916200103b565b62000b7d573862000b21565b5080fd5b6040513d85823e3d90fd5b82516001600160a01b031684528996508795506020938401939092019160010162000afb565b8380fd5b62000bdd915060203d60201162000be4575b62000bd481836200106d565b81019062001190565b3862000abb565b503d62000bc8565b6040513d86823e3d90fd5b62000c02906200103b565b62000b7d57813862000a62565b62000c1a906200103b565b62000b7d57813862000a17565b62000c32906200103b565b62000b7d578138620009ce565b62000c5d91935060203d60201162000be45762000bd481836200106d565b91386200097d565b60405162461bcd60e51b8152602060048201526014602482015273496e76616c696420746f6b656e5363616c696e6760601b6044820152606490fd5b1090503880620007dc565b60405162461bcd60e51b815260206004820152601e60248201527f4c69717569646174696f6e206c6976656e65737320746f6f206c6172676500006044820152606490fd5b60405162461bcd60e51b815260206004820152601d60248201527f5769746864726177616c206c6976656e65737320746f6f206c617267650000006044820152606490fd5b60405162461bcd60e51b815260206004820152601a60248201527f436f6c6c61746572616c206e6f742077686974656c69737465640000000000006044820152606490fd5b90506020813d60201162000db8575b8162000d99602093836200106d565b8101031262000db45751801515810362000db457386200076f565b8580fd5b3d915062000d8a565b6040513d88823e3d90fd5b602091925062000deb90823d841162000be45762000bd481836200106d565b919062000733565b6040513d89823e3d90fd5b606460405162461bcd60e51b815260206004820152602060248201527f4c69717569646174696f6e206c6976656e6573732063616e6e6f7420626520306044820152fd5b60405162461bcd60e51b815260206004820152601f60248201527f5769746864726177616c206c6976656e6573732063616e6e6f742062652030006044820152606490fd5b634e487b7160e01b600052604160045260246000fd5b90506020813d60201162000edd575b8162000ebb602093836200106d565b8101031262000bb257516001600160a01b038116810362000bb25738620005c1565b3d915062000eac565b62000f03915060203d60201162000be45762000bd481836200106d565b3862000505565b62000f18909391936200103b565b9138620004de565b8280fd5b634e487b7160e01b85526041600452602485fd5b60405162461bcd60e51b815260206004820152601860248201527f4d697373696e672073796e7468657469632073796d626f6c00000000000000006044820152606490fd5b60405162461bcd60e51b81526020600482015260166024820152754d697373696e672073796e746865746963206e616d6560501b6044820152606490fd5b60405162461bcd60e51b815260206004820152601f60248201527f5265656e7472616e637947756172643a207265656e7472616e742063616c6c006044820152606490fd5b634e487b7160e01b83526041600452602483fd5b90503462000b7d578160031936011262000b7d576001546001600160a01b03168152602090f35b67ffffffffffffffff811162000e8757604052565b6020810190811067ffffffffffffffff82111762000e8757604052565b90601f8019910116810190811067ffffffffffffffff82111762000e8757604052565b81601f82011215620000d75780359067ffffffffffffffff821162000e875760405192620010c9601f8401601f1916602001856200106d565b82845260208383010111620000d757816000926020809301838601378301015290565b9190826020910312620000d757604051620011078162001050565b91358252565b6001546001600160a01b031680156200118b576020600491604051928380926329cb924d60e01b82525afa9081156200117f576000916200114c575090565b906020823d821162001176575b8162001168602093836200106d565b810103126200009457505190565b3d915062001159565b6040513d6000823e3d90fd5b504290565b90816020910312620000d757516001600160a01b0381168103620000d75790565b919082519283825260005b848110620011de575050826000602080949584010152601f8019910116010190565b602081830181015184830182015201620011bc565b60405163313ce56760e01b815290602090829060049082906001600160a01b03165afa809160009162001231575b50906200122e5750601290565b90565b6020813d82116200126a575b816200124c602093836200106d565b8101031262000b7d57519060ff821682036200009457503862001221565b3d91506200123d56fe6080346200026457601f62000ce938819003918201601f1916830192916001600160401b0391828511848610176200026957819060409586528439820182810360e08112620002645760c013620002645783519160c083019081118382101762000269578452825182526200007881602085016200029f565b602083019081526200008d828686016200029f565b90858401918252620000b9620000a784606088016200029f565b9360608601948552608087016200029f565b936080810194855260c060a08701519660a08301978852015160018060a01b03908181168091036200026457600080546001600160a81b031916909117600160a01b178155600180546001600160a01b03198116339081179092558a519391929116907f8be0079c531659141344cd1fd0a4f28419497f9722a3daafe3b4186f6b6457e09084a3815162093a80811115908162000255575b50156200021357506000620001656200027f565b5262989680620001746200027f565b6801c9f78d2893e40000815260006200018c6200027f565b525104806200019a6200027f565b528251511015620001cf575160025551516003555151600455515160055551516006555160075551610a199081620002d08239f35b865162461bcd60e51b815260206004820152601b60248201527f496e76616c696420726577617264526174655065725365636f6e6400000000006044820152606490fd5b62461bcd60e51b815260206004820152601860248201527f496e76616c69642074696d656c6f636b4c6976656e65737300000000000000006044820152606490fd5b62015180915010153862000151565b600080fd5b634e487b7160e01b600052604160045260246000fd5b60405190602082016001600160401b038111838210176200026957604052565b91908260209103126200026457604051602081016001600160401b0381118282101762000269576040529151825256fe6080604081815260048036101561001557600080fd5b600092833560e01c908163145701f81461064c575080631c39c38d1461062457806322f8e5661461059557806329cb924d146105715780633950917f14610552578063633b291b146102c2578063715018a61461026157806373c6a288146101df5780638da5cb5b146101b6578063e6bde913146101715763f2fde38b1461009c57600080fd5b3461016d57602036600319011261016d576001600160a01b0381358181169290839003610169576100cb6107d4565b8215610117575060015492826bffffffffffffffffffffffff60a01b8516176001555192167f8be0079c531659141344cd1fd0a4f28419497f9722a3daafe3b4186f6b6457e0600084a3f35b608490602085519162461bcd60e51b8352820152602660248201527f4f776e61626c653a206e6577206f776e657220697320746865207a65726f206160448201526564647265737360d01b6064820152fd5b8480fd5b8280fd5b5050346101b257816003193601126101b25761018b6108d8565b60ff60a01b1980600054166000556101a161092d565b600160a01b90600054161760005551f35b5080fd5b5050346101b257816003193601126101b25760015490516001600160a01b039091168152602090f35b5050346101b257816003193601126101b257600854815160c092610202826107b8565b6009548252805190610213826107b8565b600a548252805190610224826107b8565b600b548252805192610235846107b8565b600c548452600d54948251968752516020870152519085015251606084015251608083015260a0820152f35b5050346101b257816003193601126101b25761027b6107d4565b600180546001600160a01b031981169091559051906000906001600160a01b03167f8be0079c531659141344cd1fd0a4f28419497f9722a3daafe3b4186f6b6457e08284a3f35b503461016d5760c036600319011261016d5781516102df81610786565b813581526020918260231936011261054d578351926102fd846107b8565b60243584528083019384528060431936011261054d5784519261031f846107b8565b60443584528581019384528160631936011261054d578551610340816107b8565b6064358152606082019081528260831936011261054d57865190610363826107b8565b60843582526080830191825260a083019260a43584526103816107d4565b6103896108d8565b60ff60a01b199788600054166000556103a061092d565b815162093a80811115908161053f575b50156104fc578a8a516103c2816107b8565b52629896808a516103d2816107b8565b6801c9f78d2893e4000081528c8c516103ea816107b8565b525104808b516103f9816107b8565b5281515110156104b9578151600855805151600955875151600a55825151600b55835151600c558451600d5561042d61082c565b9660025488018098116104a6575086600e55515196515190519151519251519351948951978852870152878601526060850152608084015260a083015260c08201527fbd8bc3d3f0d8c0858d97147138d622cb8f4442c8219dc1b792f69ec651a3370860e03392a2600160a01b90600054161760005551f35b634e487b7160e01b8c526011905260248bfd5b895162461bcd60e51b8152808801879052601b60248201527f496e76616c696420726577617264526174655065725365636f6e6400000000006044820152606490fd5b895162461bcd60e51b8152808801879052601860248201527f496e76616c69642074696d656c6f636b4c6976656e65737300000000000000006044820152606490fd5b6201518091501015386103b0565b600080fd5b5050346101b257816003193601126101b257602090600e549051908152f35b5050346101b257816003193601126101b25760209061058e61082c565b9051908152f35b508290346101b25760203660031901126101b25781546001600160a01b0316801561016d57803b1561016d5790828092602486518095819363117c72b360e11b83528635878401525af1801561061a576105ee57828451f35b67ffffffffffffffff8211610607575082528280828451f35b634e487b7160e01b835260419052602482fd5b84513d85823e3d90fd5b5050346101b257816003193601126101b257905490516001600160a01b039091168152602090f35b905034610782578360031936011261078257928060a08561066e60c097610786565b828152855161067c816107b8565b8381526020820152855161068f816107b8565b8381528682015285516106a1816107b8565b838152606082015285516106b4816107b8565b838152608082015201526106c661092d565b6106ce6108d8565b60ff60a01b19815416918351936106e485610786565b60025485528051916106f5836107b8565b60035483526020860192835281519061070d826107b8565b548152818601908152815192610722846107b8565b60055484526060870193845282519461073a866107b8565b6006548652608088019586526007549660a08901978852600160a01b1790558251965187525151602087015251519085015251516060840152515160808301525160a0820152f35b8380fd5b60c0810190811067ffffffffffffffff8211176107a257604052565b634e487b7160e01b600052604160045260246000fd5b6020810190811067ffffffffffffffff8211176107a257604052565b6001546001600160a01b031633036107e857565b606460405162461bcd60e51b815260206004820152602060248201527f4f776e61626c653a2063616c6c6572206973206e6f7420746865206f776e65726044820152fd5b600080546001600160a01b031680156108d2576020600491604051928380926329cb924d60e01b82525afa9182156108c657809261086957505090565b90915060203d81116108bf575b601f8101601f1916830167ffffffffffffffff8111848210176108ab576020918491604052810103126108a857505190565b80fd5b634e487b7160e01b83526041600452602483fd5b503d610876565b604051903d90823e3d90fd5b50504290565b60ff60005460a01c16156108e857565b60405162461bcd60e51b815260206004820152601f60248201527f5265656e7472616e637947756172643a207265656e7472616e742063616c6c006044820152606490fd5b600e5480151590816109d1575b5061094157565b7f8722f0f2d3017a4a2c429a68c4b2a28bcc86c7c79200913fc6db14237364eed760c0600854806002556009549081600355600a549081600455600b5480600555600c549182600655600d5493846007556000806008558060095580600a5580600b5580600c5580600d55600e55604051958652602086015260408501526060840152608083015260a0820152a1565b90506109db61082c565b10153861093a56fea264697066735822122089cf342bffbcf24a3c2afdfc80099257fe9ab7f60f0a0485425c2c8f7d982ed664736f6c63430008100033a2646970667358221220f013838dcf6058f0cb4c7ba976fdbff425fa1848eacf3a623aea7312ad4e6bc964736f6c63430008100033",
  "deployedBytecode": "0x60808060405260043610156200001457600080fd5b600090813560e01c9081631c39c38d14620010145750806322934b2e146200018d57806322f8e566146200010357806329cb924d14620000dc5780634ead6e5114620000975763be19f0a7146200006a57600080fd5b3462000094578060031936011262000094576002546040516001600160a01b039091168152602090f35b80fd5b50346200009457602036600319011262000094576004356001600160a01b0381168103620000d757620000cc602091620011f3565b60ff60405191168152f35b600080fd5b503462000094578060031936011262000094576020620000fb6200110d565b604051908152f35b503462000094576020366003190112620000945760015481906001600160a01b031680156200018a57803b156200018a5781809160246040518094819363117c72b360e11b835260043560048401525af180156200017f5762000167575b50604051f35b62000172906200103b565b6200009457803862000161565b6040513d84823e3d90fd5b50fd5b5034620000945760e0366003190112620000945767ffffffffffffffff6004351162000094576101a06004353603600319011262000094576040516101a0810181811067ffffffffffffffff82111762001000576040526004803501356001600160a01b038116810362000f2057815260043560248101356020830152604481013560408301526064013567ffffffffffffffff811162000f20576200023b90600436918135010162001090565b60608201526084600435013567ffffffffffffffff811162000f20576200026a90600436918135010162001090565b6080820152620002803660a460043501620010ec565b60a0820152620002963660c460043501620010ec565b60c0820152620002ac3660e460043501620010ec565b60e0820152620002c33661010460043501620010ec565b610100820152620002db3661012460043501620010ec565b610120820152620002f33661014460043501620010ec565b610140820152600435610164810135610160830152610184013561018082015260c036602319011262000b7d576040518060c081011067ffffffffffffffff60c083011117620010005760c081016040526024358152602036604319011262000f2057604051620003648162001050565b60443581526020820152602060631936011262000f2057604051620003898162001050565b60643581526040820152602036608319011262000f2057604051620003ae8162001050565b6084358152606082015260203660a319011262000f2057604051620003d38162001050565b60a4358152608082015260c43560a082015260015460ff8160a01c161562000fbb5760ff60a01b1981166001556060830151511562000f7d576080830151511562000f38576040519182610ce981011067ffffffffffffffff610ce98501111762000f245760a090610ce96200127485398051610ce98501908152602080830151519082015260408083015151908201526060808301515190820152608080830151519082015291015160a08201526001600160a01b039190911660c082015281900360e0019083f080156200017f576001600160a01b031690813b1562000f205760405163f2fde38b60e01b8152336004820152838160248183875af1801562000bec5762000f0a575b50604051638da5cb5b60e01b8152602081600481865afa90811562000bec57849162000ee6575b5060018060a01b0316827f23d45bf4c833a71e3d850a2349ce5f05b911128e2c57e7b4f6204adabd6cf06885604051a36002548151620005a6916020916001600160a01b03918216916200055a9116620011f3565b906200059387606087015160808801519460ff6040519889978896879563e8a0aed360e01b8752606060048801526064870190620011b1565b85810360031901602487015290620011b1565b9116604483015203925af190811562000bec57849162000e9d575b5060405192836101e081011067ffffffffffffffff6101e08601111762000e87576101e084016040528484528460208501528460408501528460608501528460808501528460a08501528460c08501528460e0850152604051620006258162001050565b8581526101008501526040516200063c8162001050565b858152610120850152846101408501526040516200065a8162001050565b858152610160850152604051620006718162001050565b858152610180850152604051620006888162001050565b8581526101a08501526040516200069f8162001050565b8581526101c085015284546001600160a01b039081166080860181905260015490911660a08601526101608401511562000e42576101808401511562000dfe5783516040516302abf57960e61b81527210dbdb1b185d195c985b15da1a5d195b1a5cdd606a1b6004820152916001600160a01b0390911690602090839060249082905afa91821562000df357879262000dcc575b50604051631d1d5b3960e11b8152600481019190915290602090829060249082906001600160a01b03165afa90811562000dc157869162000d7b575b501562000d365763bb74480080610160850151101562000cf157610180840151101562000cac57604051620007a48162001050565b6305f5e1008152604051620007b98162001050565b6b204fce5e3e250261100000008091526101408501515191518211918262000ca1575b50501562000c6557849261014091602086015260018060a01b038316606086015260018060a01b038151166040860152602081015160c0860152604081015160e086015260a081015161016086015260c081015161018086015260e08101516101a08601526101008101516101c086015261012081015161010086015261016081015185526101808101518286015201516101208401526101c060405193634048d03b60e01b85528051600486015260018060a01b03602082015116602486015260018060a01b03604082015116604486015260018060a01b03606082015116606486015260018060a01b03608082015116608486015260018060a01b0360a08201511660a486015260c081015160c486015260e081015160e4860152610100810151516101048601526101208101515161012486015261014081015161014486015261016081015151610164860152610180810151516101848601526101a0810151516101a48601520151516101c48401526020836101e48173__$8218b5872f0bfbafa1c9542424c69b3f54$__5af49283156200017f57829362000c3f575b506001600160a01b0381163b1562000b7d57604051634c1d96ab60e11b81526001600160a01b039384166004820181905293839082906024908290849087165af190811562000b8157839162000c27575b50506001600160a01b0381163b1562000b7d57604051637a231bdd60e11b8152600481018490528281602481836001600160a01b0387165af190811562000b8157839162000c0f575b50506001600160a01b0381163b1562000b7d576040516339e6401560e11b8152600481018490529082908290602490829084906001600160a01b03165af180156200017f5762000bf7575b505060405162000a728162001050565b82815282546040516302abf57960e61b815267526567697374727960c01b600482015290602090829060249082906001600160a01b03165afa90811562000bec57849162000bb6575b506001600160a01b0316803b1562000bb25790839060405192839163066c8c2560e41b835260448301604060048501528151809152602060648501920190855b81811062000b8c575050508383809288602483015203925af1801562000b815762000b65575b6040516020908333817f0973ec8400460054364cff2a05dda9a23216bde72cfcad508b1d5251f780d6dd8885a36001805460ff60a01b1916600160a01b1790558152f35b62000b7183916200103b565b62000b7d573862000b21565b5080fd5b6040513d85823e3d90fd5b82516001600160a01b031684528996508795506020938401939092019160010162000afb565b8380fd5b62000bdd915060203d60201162000be4575b62000bd481836200106d565b81019062001190565b3862000abb565b503d62000bc8565b6040513d86823e3d90fd5b62000c02906200103b565b62000b7d57813862000a62565b62000c1a906200103b565b62000b7d57813862000a17565b62000c32906200103b565b62000b7d578138620009ce565b62000c5d91935060203d60201162000be45762000bd481836200106d565b91386200097d565b60405162461bcd60e51b8152602060048201526014602482015273496e76616c696420746f6b656e5363616c696e6760601b6044820152606490fd5b1090503880620007dc565b60405162461bcd60e51b815260206004820152601e60248201527f4c69717569646174696f6e206c6976656e65737320746f6f206c6172676500006044820152606490fd5b60405162461bcd60e51b815260206004820152601d60248201527f5769746864726177616c206c6976656e65737320746f6f206c617267650000006044820152606490fd5b60405162461bcd60e51b815260206004820152601a60248201527f436f6c6c61746572616c206e6f742077686974656c69737465640000000000006044820152606490fd5b90506020813d60201162000db8575b8162000d99602093836200106d565b8101031262000db45751801515810362000db457386200076f565b8580fd5b3d915062000d8a565b6040513d88823e3d90fd5b602091925062000deb90823d841162000be45762000bd481836200106d565b919062000733565b6040513d89823e3d90fd5b606460405162461bcd60e51b815260206004820152602060248201527f4c69717569646174696f6e206c6976656e6573732063616e6e6f7420626520306044820152fd5b60405162461bcd60e51b815260206004820152601f60248201527f5769746864726177616c206c6976656e6573732063616e6e6f742062652030006044820152606490fd5b634e487b7160e01b600052604160045260246000fd5b90506020813d60201162000edd575b8162000ebb602093836200106d565b8101031262000bb257516001600160a01b038116810362000bb25738620005c1565b3d915062000eac565b62000f03915060203d60201162000be45762000bd481836200106d565b3862000505565b62000f18909391936200103b565b9138620004de565b8280fd5b634e487b7160e01b85526041600452602485fd5b60405162461bcd60e51b815260206004820152601860248201527f4d697373696e672073796e7468657469632073796d626f6c00000000000000006044820152606490fd5b60405162461bcd60e51b81526020600482015260166024820152754d697373696e672073796e746865746963206e616d6560501b6044820152606490fd5b60405162461bcd60e51b815260206004820152601f60248201527f5265656e7472616e637947756172643a207265656e7472616e742063616c6c006044820152606490fd5b634e487b7160e01b83526041600452602483fd5b90503462000b7d578160031936011262000b7d576001546001600160a01b03168152602090f35b67ffffffffffffffff811162000e8757604052565b6020810190811067ffffffffffffffff82111762000e8757604052565b90601f8019910116810190811067ffffffffffffffff82111762000e8757604052565b81601f82011215620000d75780359067ffffffffffffffff821162000e875760405192620010c9601f8401601f1916602001856200106d565b82845260208383010111620000d757816000926020809301838601378301015290565b9190826020910312620000d757604051620011078162001050565b91358252565b6001546001600160a01b031680156200118b576020600491604051928380926329cb924d60e01b82525afa9081156200117f576000916200114c575090565b906020823d821162001176575b8162001168602093836200106d565b810103126200009457505190565b3d915062001159565b6040513d6000823e3d90fd5b504290565b90816020910312620000d757516001600160a01b0381168103620000d75790565b919082519283825260005b848110620011de575050826000602080949584010152601f8019910116010190565b602081830181015184830182015201620011bc565b60405163313ce56760e01b815290602090829060049082906001600160a01b03165afa809160009162001231575b50906200122e5750601290565b90565b6020813d82116200126a575b816200124c602093836200106d565b8101031262000b7d57519060ff821682036200009457503862001221565b3d91506200123d56fe6080346200026457601f62000ce938819003918201601f1916830192916001600160401b0391828511848610176200026957819060409586528439820182810360e08112620002645760c013620002645783519160c083019081118382101762000269578452825182526200007881602085016200029f565b602083019081526200008d828686016200029f565b90858401918252620000b9620000a784606088016200029f565b9360608601948552608087016200029f565b936080810194855260c060a08701519660a08301978852015160018060a01b03908181168091036200026457600080546001600160a81b031916909117600160a01b178155600180546001600160a01b03198116339081179092558a519391929116907f8be0079c531659141344cd1fd0a4f28419497f9722a3daafe3b4186f6b6457e09084a3815162093a80811115908162000255575b50156200021357506000620001656200027f565b5262989680620001746200027f565b6801c9f78d2893e40000815260006200018c6200027f565b525104806200019a6200027f565b528251511015620001cf575160025551516003555151600455515160055551516006555160075551610a199081620002d08239f35b865162461bcd60e51b815260206004820152601b60248201527f496e76616c696420726577617264526174655065725365636f6e6400000000006044820152606490fd5b62461bcd60e51b815260206004820152601860248201527f496e76616c69642074696d656c6f636b4c6976656e65737300000000000000006044820152606490fd5b62015180915010153862000151565b600080fd5b634e487b7160e01b600052604160045260246000fd5b60405190602082016001600160401b038111838210176200026957604052565b91908260209103126200026457604051602081016001600160401b0381118282101762000269576040529151825256fe6080604081815260048036101561001557600080fd5b600092833560e01c908163145701f81461064c575080631c39c38d1461062457806322f8e5661461059557806329cb924d146105715780633950917f14610552578063633b291b146102c2578063715018a61461026157806373c6a288146101df5780638da5cb5b146101b6578063e6bde913146101715763f2fde38b1461009c57600080fd5b3461016d57602036600319011261016d576001600160a01b0381358181169290839003610169576100cb6107d4565b8215610117575060015492826bffffffffffffffffffffffff60a01b8516176001555192167f8be0079c531659141344cd1fd0a4f28419497f9722a3daafe3b4186f6b6457e0600084a3f35b608490602085519162461bcd60e51b8352820152602660248201527f4f776e61626c653a206e6577206f776e657220697320746865207a65726f206160448201526564647265737360d01b6064820152fd5b8480fd5b8280fd5b5050346101b257816003193601126101b25761018b6108d8565b60ff60a01b1980600054166000556101a161092d565b600160a01b90600054161760005551f35b5080fd5b5050346101b257816003193601126101b25760015490516001600160a01b039091168152602090f35b5050346101b257816003193601126101b257600854815160c092610202826107b8565b6009548252805190610213826107b8565b600a548252805190610224826107b8565b600b548252805192610235846107b8565b600c548452600d54948251968752516020870152519085015251606084015251608083015260a0820152f35b5050346101b257816003193601126101b25761027b6107d4565b600180546001600160a01b031981169091559051906000906001600160a01b03167f8be0079c531659141344cd1fd0a4f28419497f9722a3daafe3b4186f6b6457e08284a3f35b503461016d5760c036600319011261016d5781516102df81610786565b813581526020918260231936011261054d578351926102fd846107b8565b60243584528083019384528060431936011261054d5784519261031f846107b8565b60443584528581019384528160631936011261054d578551610340816107b8565b6064358152606082019081528260831936011261054d57865190610363826107b8565b60843582526080830191825260a083019260a43584526103816107d4565b6103896108d8565b60ff60a01b199788600054166000556103a061092d565b815162093a80811115908161053f575b50156104fc578a8a516103c2816107b8565b52629896808a516103d2816107b8565b6801c9f78d2893e4000081528c8c516103ea816107b8565b525104808b516103f9816107b8565b5281515110156104b9578151600855805151600955875151600a55825151600b55835151600c558451600d5561042d61082c565b9660025488018098116104a6575086600e55515196515190519151519251519351948951978852870152878601526060850152608084015260a083015260c08201527fbd8bc3d3f0d8c0858d97147138d622cb8f4442c8219dc1b792f69ec651a3370860e03392a2600160a01b90600054161760005551f35b634e487b7160e01b8c526011905260248bfd5b895162461bcd60e51b8152808801879052601b60248201527f496e76616c696420726577617264526174655065725365636f6e6400000000006044820152606490fd5b895162461bcd60e51b8152808801879052601860248201527f496e76616c69642074696d656c6f636b4c6976656e65737300000000000000006044820152606490fd5b6201518091501015386103b0565b600080fd5b5050346101b257816003193601126101b257602090600e549051908152f35b5050346101b257816003193601126101b25760209061058e61082c565b9051908152f35b508290346101b25760203660031901126101b25781546001600160a01b0316801561016d57803b1561016d5790828092602486518095819363117c72b360e11b83528635878401525af1801561061a576105ee57828451f35b67ffffffffffffffff8211610607575082528280828451f35b634e487b7160e01b835260419052602482fd5b84513d85823e3d90fd5b5050346101b257816003193601126101b257905490516001600160a01b039091168152602090f35b905034610782578360031936011261078257928060a08561066e60c097610786565b828152855161067c816107b8565b8381526020820152855161068f816107b8565b8381528682015285516106a1816107b8565b838152606082015285516106b4816107b8565b838152608082015201526106c661092d565b6106ce6108d8565b60ff60a01b19815416918351936106e485610786565b60025485528051916106f5836107b8565b60035483526020860192835281519061070d826107b8565b548152818601908152815192610722846107b8565b60055484526060870193845282519461073a866107b8565b6006548652608088019586526007549660a08901978852600160a01b1790558251965187525151602087015251519085015251516060840152515160808301525160a0820152f35b8380fd5b60c0810190811067ffffffffffffffff8211176107a257604052565b634e487b7160e01b600052604160045260246000fd5b6020810190811067ffffffffffffffff8211176107a257604052565b6001546001600160a01b031633036107e857565b606460405162461bcd60e51b815260206004820152602060248201527f4f776e61626c653a2063616c6c6572206973206e6f7420746865206f776e65726044820152fd5b600080546001600160a01b031680156108d2576020600491604051928380926329cb924d60e01b82525afa9182156108c657809261086957505090565b90915060203d81116108bf575b601f8101601f1916830167ffffffffffffffff8111848210176108ab576020918491604052810103126108a857505190565b80fd5b634e487b7160e01b83526041600452602483fd5b503d610876565b604051903d90823e3d90fd5b50504290565b60ff60005460a01c16156108e857565b60405162461bcd60e51b815260206004820152601f60248201527f5265656e7472616e637947756172643a207265656e7472616e742063616c6c006044820152606490fd5b600e5480151590816109d1575b5061094157565b7f8722f0f2d3017a4a2c429a68c4b2a28bcc86c7c79200913fc6db14237364eed760c0600854806002556009549081600355600a549081600455600b5480600555600c549182600655600d5493846007556000806008558060095580600a5580600b5580600c5580600d55600e55604051958652602086015260408501526060840152608083015260a0820152a1565b90506109db61082c565b10153861093a56fea264697066735822122089cf342bffbcf24a3c2afdfc80099257fe9ab7f60f0a0485425c2c8f7d982ed664736f6c63430008100033a2646970667358221220f013838dcf6058f0cb4c7ba976fdbff425fa1848eacf3a623aea7312ad4e6bc964736f6c63430008100033",
  "libraries": {
    "PerpetualLib": "0x4BC79d42400B678CE62038b6d1b3c478F3BBCb81"
  },
  "devdoc": {
    "kind": "dev",
    "methods": {
      "constructor": {
        "params": {
          "_finderAddress": "UMA protocol Finder used to discover other protocol contracts.",
          "_timerAddress": "Contract that stores the current time in a testing environment.",
          "_tokenFactoryAddress": "ERC20 token factory used to deploy synthetic token instances."
        }
      },
      "createPerpetual((address,bytes32,bytes32,string,string,(uint256),(uint256),(uint256),(uint256),(uint256),(uint256),uint256,uint256),(uint256,(uint256),(uint256),(int256),(int256),uint256))": {
        "params": {
          "params": "is a `ConstructorParams` object from Perpetual."
        },
        "returns": {
          "_0": "address of the deployed contract."
        }
      },
      "getCurrentTime()": {
        "returns": {
          "_0": "uint for the current Testable timestamp."
        }
      },
      "setCurrentTime(uint256)": {
        "details": "Will revert if not running in test mode.",
        "params": {
          "time": "timestamp to set current Testable time to."
        }
      }
    },
    "title": "Perpetual Contract creator.",
    "version": 1
  },
  "userdoc": {
    "kind": "user",
    "methods": {
      "constructor": {
        "notice": "Constructs the Perpetual contract."
      },
      "createPerpetual((address,bytes32,bytes32,string,string,(uint256),(uint256),(uint256),(uint256),(uint256),(uint256),uint256,uint256),(uint256,(uint256),(uint256),(int256),(int256),uint256))": {
        "notice": "Creates an instance of perpetual and registers it within the registry."
      },
      "getCurrentTime()": {
        "notice": "Gets the current time. Will return the last time set in `setCurrentTime` if running in test mode. Otherwise, it will return the block timestamp."
      },
      "setCurrentTime(uint256)": {
        "notice": "Sets the current time."
      }
    },
    "notice": "Factory contract to create and register new instances of perpetual contracts. Responsible for constraining the parameters used to construct a new perpetual. This creator contains a number of constraints that are applied to newly created contract. These constraints can evolve over time and are initially constrained to conservative values in this first iteration. Technically there is nothing in the Perpetual contract requiring these constraints. However, because `createPerpetual()` is intended to be the only way to create valid financial contracts that are registered with the DVM (via _registerContract), we can enforce deployment configurations here.",
    "version": 1
  },
  "storageLayout": {
    "storage": [
      {
        "astId": 24995,
        "contract": "contracts/financial-templates/perpetual-multiparty/PerpetualCreator.sol:PerpetualCreator",
        "label": "finderAddress",
        "offset": 0,
        "slot": "0",
        "type": "t_address"
      },
      {
        "astId": 17751,
        "contract": "contracts/financial-templates/perpetual-multiparty/PerpetualCreator.sol:PerpetualCreator",
        "label": "timerAddress",
        "offset": 0,
        "slot": "1",
        "type": "t_address"
      },
      {
        "astId": 16304,
        "contract": "contracts/financial-templates/perpetual-multiparty/PerpetualCreator.sol:PerpetualCreator",
        "label": "_notEntered",
        "offset": 20,
        "slot": "1",
        "type": "t_bool"
      },
      {
        "astId": 53289,
        "contract": "contracts/financial-templates/perpetual-multiparty/PerpetualCreator.sol:PerpetualCreator",
        "label": "tokenFactoryAddress",
        "offset": 0,
        "slot": "2",
        "type": "t_address"
      }
    ],
    "types": {
      "t_address": {
        "encoding": "inplace",
        "label": "address",
        "numberOfBytes": "20"
      },
      "t_bool": {
        "encoding": "inplace",
        "label": "bool",
        "numberOfBytes": "1"
      }
    }
  }
}