{
  "address": "0x266be193141e3B0197A02194baf2Bd05A0aE48EE",
  "abi": [
    {
      "inputs": [
        {
          "internalType": "contract IERC20",
          "name": "_token",
          "type": "address"
        },
        {
          "internalType": "uint256",
          "name": "_bond",
          "type": "uint256"
        },
        {
          "internalType": "contract GovernorV2",
          "name": "_governor",
          "type": "address"
        },
        {
          "internalType": "contract Finder",
          "name": "_finder",
          "type": "address"
        }
      ],
      "stateMutability": "nonpayable",
      "type": "constructor"
    },
    {
      "anonymous": false,
      "inputs": [
        {
          "indexed": false,
          "internalType": "uint256",
          "name": "bond",
          "type": "uint256"
        }
      ],
      "name": "BondSet",
      "type": "event"
    },
    {
      "anonymous": false,
      "inputs": [
        {
          "indexed": true,
          "internalType": "address",
          "name": "previousOwner",
          "type": "address"
        },
        {
          "indexed": true,
          "internalType": "address",
          "name": "newOwner",
          "type": "address"
        }
      ],
      "name": "OwnershipTransferred",
      "type": "event"
    },
    {
      "anonymous": false,
      "inputs": [
        {
          "indexed": true,
          "internalType": "uint256",
          "name": "id",
          "type": "uint256"
        },
        {
          "indexed": false,
          "internalType": "bool",
          "name": "success",
          "type": "bool"
        }
      ],
      "name": "ProposalResolved",
      "type": "event"
    },
    {
      "inputs": [],
      "name": "bond",
      "outputs": [
        {
          "internalType": "uint256",
          "name": "",
          "type": "uint256"
        }
      ],
      "stateMutability": "view",
      "type": "function"
    },
    {
      "inputs": [
        {
          "internalType": "uint256",
          "name": "",
          "type": "uint256"
        }
      ],
      "name": "bondedProposals",
      "outputs": [
        {
          "internalType": "address",
          "name": "sender",
          "type": "address"
        },
        {
          "internalType": "uint64",
          "name": "time",
          "type": "uint64"
        },
        {
          "internalType": "uint256",
          "name": "lockedBond",
          "type": "uint256"
        },
        {
          "internalType": "bytes",
          "name": "ancillaryData",
          "type": "bytes"
        }
      ],
      "stateMutability": "view",
      "type": "function"
    },
    {
      "inputs": [],
      "name": "finder",
      "outputs": [
        {
          "internalType": "contract Finder",
          "name": "",
          "type": "address"
        }
      ],
      "stateMutability": "view",
      "type": "function"
    },
    {
      "inputs": [],
      "name": "getCurrentTime",
      "outputs": [
        {
          "internalType": "uint256",
          "name": "",
          "type": "uint256"
        }
      ],
      "stateMutability": "view",
      "type": "function"
    },
    {
      "inputs": [],
      "name": "governor",
      "outputs": [
        {
          "internalType": "contract GovernorV2",
          "name": "",
          "type": "address"
        }
      ],
      "stateMutability": "view",
      "type": "function"
    },
    {
      "inputs": [
        {
          "internalType": "bytes[]",
          "name": "data",
          "type": "bytes[]"
        }
      ],
      "name": "multicall",
      "outputs": [
        {
          "internalType": "bytes[]",
          "name": "results",
          "type": "bytes[]"
        }
      ],
      "stateMutability": "nonpayable",
      "type": "function"
    },
    {
      "inputs": [],
      "name": "owner",
      "outputs": [
        {
          "internalType": "address",
          "name": "",
          "type": "address"
        }
      ],
      "stateMutability": "view",
      "type": "function"
    },
    {
      "inputs": [
        {
          "components": [
            {
              "internalType": "address",
              "name": "to",
              "type": "address"
            },
            {
              "internalType": "uint256",
              "name": "value",
              "type": "uint256"
            },
            {
              "internalType": "bytes",
              "name": "data",
              "type": "bytes"
            }
          ],
          "internalType": "struct GovernorV2.Transaction[]",
          "name": "transactions",
          "type": "tuple[]"
        },
        {
          "internalType": "bytes",
          "name": "ancillaryData",
          "type": "bytes"
        }
      ],
      "name": "propose",
      "outputs": [
        {
          "internalType": "uint256",
          "name": "",
          "type": "uint256"
        }
      ],
      "stateMutability": "nonpayable",
      "type": "function"
    },
    {
      "inputs": [],
      "name": "renounceOwnership",
      "outputs": [],
      "stateMutability": "nonpayable",
      "type": "function"
    },
    {
      "inputs": [
        {
          "internalType": "uint256",
          "name": "id",
          "type": "uint256"
        }
      ],
      "name": "resolveProposal",
      "outputs": [],
      "stateMutability": "nonpayable",
      "type": "function"
    },
    {
      "inputs": [
        {
          "internalType": "uint256",
          "name": "_bond",
          "type": "uint256"
        }
      ],
      "name": "setBond",
      "outputs": [],
      "stateMutability": "nonpayable",
      "type": "function"
    },
    {
      "inputs": [],
      "name": "token",
      "outputs": [
        {
          "internalType": "contract IERC20",
          "name": "",
          "type": "address"
        }
      ],
      "stateMutability": "view",
      "type": "function"
    },
    {
      "inputs": [
        {
          "internalType": "address",
          "name": "newOwner",
          "type": "address"
        }
      ],
      "name": "transferOwnership",
      "outputs": [],
      "stateMutability": "nonpayable",
      "type": "function"
    }
  ],
  "transactionHash": "0x3f5ee5efa45dff81a9dfceb76b45f7be8e32f3c22d0e73cf4392ad965240cf38",
  "args": [
    "0x473411E26885aE3A291EF4F4eB430F33946EDAD7",
    "5000000000000000000000",
    "0x681c205Ff833dFc748477061E9c299cDb07DE82e",
    "0xA969917A4dFaB07936dEc60f70FA5c736A1e2b9e"
  ],
  "solcInputHash": "864d61c65c789401ae17358a5af86557",
  "bytecode": "0x60e034620001f157601f62001a2538819003918201601f191683019291906001600160401b03841183851017620001f6578160809284926040968752833981010312620001f15780516001600160a01b038082168203620001f157602083015190848401519080821694858303620001f157606001519081168103620001f1576200008a3362000265565b60ff60a01b196000541691600160a01b83179460805260a05260c05260ff8360a01c1615620001ad577f1b44689fb73c0c9cdf591d534287488fc7959fd3647346821063a3e567ec9a9991602091600055620000e56200020c565b806001558551908152a1600055620000fc6200020c565b80156200015a576200010e9062000265565b516117739081620002b282396080518181816102af0152818161036e01528181610c300152610f97015260a0518181816104c20152610f49015260c0518181816101a30152610b1d0152f35b815162461bcd60e51b815260206004820152602660248201527f4f776e61626c653a206e6577206f776e657220697320746865207a65726f206160448201526564647265737360d01b6064820152608490fd5b845162461bcd60e51b815260206004820152601f60248201527f5265656e7472616e637947756172643a207265656e7472616e742063616c6c006044820152606490fd5b600080fd5b634e487b7160e01b600052604160045260246000fd5b6000546001600160a01b031633036200022157565b606460405162461bcd60e51b815260206004820152602060248201527f4f776e61626c653a2063616c6c6572206973206e6f7420746865206f776e65726044820152fd5b600080546001600160a01b039283166001600160a01b03198216811783556040519093909116917f8be0079c531659141344cd1fd0a4f28419497f9722a3daafe3b4186f6b6457e091a356fe60806040526004361015610013575b600080fd5b60003560e01c806262804e146101165780630c340a241461010d57806311a9b77b14610104578063259bd920146100fb57806329cb924d146100f257806364c9ec6f146100e9578063715018a6146100e05780638da5cb5b146100d7578063a7d0967c146100ce578063ac9650d8146100c5578063b9a3c84c146100bc578063f2fde38b146100b35763fc0c546a146100ab57600080fd5b61000e610c19565b5061000e610b4c565b5061000e610b06565b5061000e610aa0565b5061000e610929565b5061000e61084a565b5061000e6107e8565b5061000e6107c9565b5061000e6107ad565b5061000e610738565b5061000e6106c2565b5061000e6104ab565b503461000e5760208060031936011261000e5760009061031f61031a60043561013d6114d6565b6000805460ff60a01b19169055610166610161826000526002602052604060002090565b61152b565b80516001600160a01b03959061017f908716151561158d565b604080516302abf57960e61b808252654f7261636c6560d01b6004830152919788927f0000000000000000000000000000000000000000000000000000000000000000821692909161027a918691908281602481895afa908115610493575b8e91610476575b50166101f0896116df565b908861025b84820161024e610233878c606061021386516001600160401b031690565b970196875191519384928392630b551cd560e41b84528c600485016115e4565b0381895afa908115610469575b60009161043c575b50611609565b516001600160401b031690565b905188516338ce36ab60e11b81529586948593849391600485016115e4565b03915afa90811561042f575b8b91610402575b5015158a1461033557505082516102d39392506001600160a01b0316910151907f00000000000000000000000000000000000000000000000000000000000000006116a1565b807fdb53c862706d03ae7c85dcaa4fd1aa1df7fa8914c2b999a15b37e280bf5a207c85518061030781906001602083019252565b0390a26000526002602052604060002090565b611649565b6000805460ff60a01b1916600160a01b17905551f35b82519081526453746f726560d81b600482015261039294918490829060249082905afa9384156103f5575b8a946103c6575b50500151907f00000000000000000000000000000000000000000000000000000000000000006116a1565b807fdb53c862706d03ae7c85dcaa4fd1aa1df7fa8914c2b999a15b37e280bf5a207c85518061030781906000602083019252565b6103e6929450803d106103ee575b6103de81836105b3565b8101906115cf565b913880610367565b503d6103d4565b6103fd6110b4565b610360565b6104229150853d8711610428575b61041a81836105b3565b8101906110a5565b3861028d565b503d610410565b6104376110b4565b610286565b61045c9150883d8a11610462575b61045481836105b3565b810190611347565b38610248565b503d61044a565b6104716110b4565b610240565b61048d9150833d85116103ee576103de81836105b3565b386101e5565b61049b6110b4565b6101de565b600091031261000e57565b503461000e57600036600319011261000e576040517f00000000000000000000000000000000000000000000000000000000000000006001600160a01b03168152602090f35b90600182811c92168015610521575b602083101461050b57565b634e487b7160e01b600052602260045260246000fd5b91607f1691610500565b50634e487b7160e01b600052604160045260246000fd5b606081019081106001600160401b0382111761055d57604052565b61056561052b565b604052565b6001600160401b03811161055d57604052565b608081019081106001600160401b0382111761055d57604052565b604081019081106001600160401b0382111761055d57604052565b90601f801991011681019081106001600160401b0382111761055d57604052565b90604051918260008254926105e8846104f1565b9081845260019485811690816000146106575750600114610614575b5050610612925003836105b3565b565b9093915060005260209081600020936000915b81831061063f57505061061293508201013880610604565b85548884018501529485019487945091830191610627565b91505061061294506020925060ff191682840152151560051b8201013880610604565b60005b83811061068d5750506000910152565b818101518382015260200161067d565b906020916106b68151809281855285808601910161067a565b601f01601f1916010190565b503461000e57602036600319011261000e5760043560005260026020526001600160401b0360406000206107348154916107036002600183015492016105d4565b9060405194859460018060a01b038116865260a01c166020850152604084015260806060840152608083019061069d565b0390f35b503461000e57602036600319011261000e577f1b44689fb73c0c9cdf591d534287488fc7959fd3647346821063a3e567ec9a9960206004356107786114d6565b6000805460ff60a01b1916905561078d610c5f565b80600155604051908152a16000805460ff60a01b1916600160a01b179055005b503461000e57600036600319011261000e576020604051428152f35b503461000e57600036600319011261000e576020600154604051908152f35b503461000e5760008060031936011261084757610803610c5f565b80546001600160a01b0319811682556040519082906001600160a01b03167f8be0079c531659141344cd1fd0a4f28419497f9722a3daafe3b4186f6b6457e08284a3f35b80fd5b503461000e57600036600319011261000e576000546040516001600160a01b039091168152602090f35b604051906106128261057d565b6020906001600160401b03811161089a575b60051b0190565b6108a261052b565b610893565b6001600160a01b0381160361000e57565b6020906001600160401b0381116108d5575b601f01601f19160190565b6108dd61052b565b6108ca565b81601f8201121561000e578035906108f9826108b8565b9261090760405194856105b3565b8284526020838301011161000e57816000926020809301838601378301015290565b503461000e5760408060031936011261000e57600435906001600160401b0380831161000e573660238401121561000e57826004013561096881610881565b93610975845195866105b3565b8185526020908186016024809460051b8301019136831161000e57848101915b8383106109d35750505050503590811161000e57610734926109be6109c49236906004016108e2565b90610f24565b90519081529081906020820190565b823587811161000e5782016060602319823603011261000e578851916109f883610542565b87820135610a05816108a7565b835260448201358784015260648201359289841161000e57610a2f8894938a8695369201016108e2565b8b820152815201920191610995565b602080820190808352835180925260408301928160408460051b8301019501936000915b848310610a725750505050505090565b9091929394958480610a90600193603f198682030187528a5161069d565b9801930193019194939290610a62565b503461000e57602036600319011261000e576001600160401b0360043581811161000e573660238201121561000e57806004013591821161000e573660248360051b8301011161000e57610734916024610afa9201610e6c565b60405191829182610a3e565b503461000e57600036600319011261000e576040517f00000000000000000000000000000000000000000000000000000000000000006001600160a01b03168152602090f35b503461000e57602036600319011261000e57600435610b6a816108a7565b610b72610c5f565b6001600160a01b03908116908115610bc557600080546001600160a01b031981168417825560405191939192167f8be0079c531659141344cd1fd0a4f28419497f9722a3daafe3b4186f6b6457e08484a3f35b60405162461bcd60e51b815260206004820152602660248201527f4f776e61626c653a206e6577206f776e657220697320746865207a65726f206160448201526564647265737360d01b6064820152608490fd5b503461000e57600036600319011261000e576040517f00000000000000000000000000000000000000000000000000000000000000006001600160a01b03168152602090f35b6000546001600160a01b03163303610c7357565b606460405162461bcd60e51b815260206004820152602060248201527f4f776e61626c653a2063616c6c6572206973206e6f7420746865206f776e65726044820152fd5b90610cc182610881565b610cce60405191826105b3565b8281528092610cdf601f1991610881565b019060005b828110610cf057505050565b806060602080938501015201610ce4565b50634e487b7160e01b600052601160045260246000fd5b6001906000198114610d28570190565b610d30610d01565b0190565b50634e487b7160e01b600052603260045260246000fd5b9190811015610d8d575b60051b81013590601e198136030182121561000e5701908135916001600160401b03831161000e57602001823603811361000e579190565b610d95610d34565b610d55565b908092918237016000815290565b3d15610dd3573d90610db9826108b8565b91610dc760405193846105b3565b82523d6000602084013e565b606090565b60208183031261000e578051906001600160401b03821161000e570181601f8201121561000e578051610e0a816108b8565b92610e1860405194856105b3565b8184526020828401011161000e57610e36916020808501910161067a565b90565b906020610e3692818152019061069d565b6020918151811015610e5f575b60051b010190565b610e67610d34565b610e57565b919091610e7883610cb7565b9260005b818110610e8857505050565b600080610e96838587610d4b565b60409391610ea8855180938193610d9a565b0390305af490610eb6610da8565b91829015610ee557505090610ee091610ecf8288610e4a565b52610eda8187610e4a565b50610d18565b610e7c565b6044839293511061000e57610f0b610f2091600480940160248091518301019101610dd8565b925162461bcd60e51b81529283928301610e39565b0390fd5b610f2c6114d6565b6000805460ff60a01b1916905560405163400e394960e01b8152917f00000000000000000000000000000000000000000000000000000000000000006001600160a01b03169190602084600481865afa938415611098575b600094611078575b50610fbb60015430337f00000000000000000000000000000000000000000000000000000000000000006112e2565b611000600154610fc9610874565b33815290426001600160401b031660208301526040820152826060820152610ffb866000526002602052604060002090565b61111d565b823b1561000e5761102b92600092836040518096819582946329f4259f60e21b84526004840161124a565b03925af1801561106b575b611052575b506000805460ff60a01b1916600160a01b17905590565b8061105f6110659261056a565b806104a0565b3861103b565b6110736110b4565b611036565b61109191945060203d81116104285761041a81836105b3565b9238610f8c565b6110a06110b4565b610f84565b9081602091031261000e575190565b506040513d6000823e3d90fd5b8181106110cc575050565b600081556001016110c1565b9190601f81116110e757505050565b610612926000526020600020906020601f840160051c83019310611113575b601f0160051c01906110c1565b9091508190611106565b815181546020808501516001600160e01b03199092166001600160a01b039093169290921760a09190911b67ffffffffffffffff60a01b16178255604083015160018084019190915560609093015180516002909301939291906001600160401b03831161123d575b61119a8361119487546104f1565b876110d8565b81601f84116001146111d357509282939183926000946111c8575b50501b916000199060031b1c1916179055565b0151925038806111b5565b919083601f1981166111ea88600052602060002090565b946000905b88838310611223575050501061120a575b505050811b019055565b015160001960f88460031b161c19169055388080611200565b8587015188559096019594850194879350908101906111ef565b61124561052b565b611186565b929160409182850192808652815180945260609384870194808260051b890101956020809501936000925b8484106112935750505050505093610e36939481840391015261069d565b90919293949786806112d2600193858f8e8991605f19908503018b5251878060a01b03815116845285810151868501520151918189820152019061069d565b9a01940194019294939190611275565b6040516323b872dd60e01b60208201526001600160a01b0392831660248201529290911660448301526064808301939093529181526106129160a082018281106001600160401b0382111761133a575b60405261135f565b61134261052b565b611332565b9081602091031261000e5751801515810361000e5790565b6040516113bd916001600160a01b031661137882610598565b6000806020958685527f5361666545524332303a206c6f772d6c6576656c2063616c6c206661696c656487860152868151910182855af16113b7610da8565b91611445565b80519082821592831561142d575b505050156113d65750565b6084906040519062461bcd60e51b82526004820152602a60248201527f5361666545524332303a204552433230206f7065726174696f6e20646964206e6044820152691bdd081cdd58d8d9595960b21b6064820152fd5b61143d9350820181019101611347565b3882816113cb565b919290156114a75750815115611459575090565b3b156114625790565b60405162461bcd60e51b815260206004820152601d60248201527f416464726573733a2063616c6c20746f206e6f6e2d636f6e74726163740000006044820152606490fd5b8251909150156114ba5750805190602001fd5b60405162461bcd60e51b8152908190610f209060048301610e39565b60ff60005460a01c16156114e657565b60405162461bcd60e51b815260206004820152601f60248201527f5265656e7472616e637947756172643a207265656e7472616e742063616c6c006044820152606490fd5b90604051606061157b600260808401956001600160401b039685811088821117611580575b6040528496815460018060a01b038116875260a01c16602086015260018101546040860152016105d4565b910152565b61158861052b565b611550565b1561159457565b60405162461bcd60e51b8152602060048201526013602482015272125b9d985b1a59081c1c9bdc1bdcd85b081a59606a1b6044820152606490fd5b9081602091031261000e5751610e36816108a7565b6001600160401b03610e3694936060938352166020820152816040820152019061069d565b1561161057565b60405162461bcd60e51b8152602060048201526011602482015270139bc81c1c9a58d9481c995cdbdb1d9959607a1b6044820152606490fd5b60026000918281558260018201550161166281546104f1565b8061166c57505050565b601f811160011461167b575055565b8183526020832061169791601f0160051c8101906001016110c1565b8160208120915555565b60405163a9059cbb60e01b60208201526001600160a01b039092166024830152604480830193909352918152610612916116da8261057d565b61135f565b600090806117015750600360fc1b90505b60301c65020b236b4b7160d51b1790565b805b61170d57506116f0565b90600a9081830660308101809111611730575b60f81b9060081c17910480611703565b611738610d01565b61172056fea2646970667358221220cd9fc01c343f41d212b1a8502dd14ea0b829b765466ee37894fd40fb735fcfc764736f6c63430008100033",
  "devdoc": {
    "kind": "dev",
    "methods": {
      "constructor": {
        "params": {
          "_bond": "the bond amount.",
          "_finder": "the finder contract used to look up addresses.",
          "_governor": "the governor contract that this contract makes proposals to.",
          "_token": "the ERC20 token that the bond is paid in."
        }
      },
      "getCurrentTime()": {
        "details": "Can be overridden to control contract time.",
        "returns": {
          "_0": "the current block timestamp."
        }
      },
      "owner()": {
        "details": "Returns the address of the current owner."
      },
      "propose((address,uint256,bytes)[],bytes)": {
        "details": "Pulls bond from the caller.",
        "params": {
          "ancillaryData": "arbitrary data appended to a price request to give the voters more info from the caller.",
          "transactions": "list of transactions for the governor to execute."
        },
        "returns": {
          "_0": "id the id of the governor proposal."
        }
      },
      "renounceOwnership()": {
        "details": "Leaves the contract without owner. It will not be possible to call `onlyOwner` functions. Can only be called by the current owner. NOTE: Renouncing ownership will leave the contract without an owner, thereby disabling any functionality that is only available to the owner."
      },
      "resolveProposal(uint256)": {
        "details": "For the resolution to work correctly, this contract must be a registered contract in the DVM.",
        "params": {
          "id": "proposal id."
        }
      },
      "setBond(uint256)": {
        "details": "Admin is intended to be the governance system itself.",
        "params": {
          "_bond": "the new bond."
        }
      },
      "transferOwnership(address)": {
        "details": "Transfers ownership of the contract to a new account (`newOwner`). Can only be called by the current owner."
      }
    },
    "title": "Proposer contract that allows anyone to make governance proposals with a bond.",
    "version": 1
  },
  "userdoc": {
    "kind": "user",
    "methods": {
      "constructor": {
        "notice": "Construct the Proposer contract."
      },
      "getCurrentTime()": {
        "notice": "Returns the current block timestamp."
      },
      "propose((address,uint256,bytes)[],bytes)": {
        "notice": "Propose a new set of governance transactions for vote."
      },
      "resolveProposal(uint256)": {
        "notice": "Resolves a proposal by checking the status of the request in the Voting contract."
      },
      "setBond(uint256)": {
        "notice": "Admin method to set the bond amount."
      }
    },
    "version": 1
  },
  "storageLayout": {
    "storage": [
      {
        "astId": 4304,
        "contract": "contracts/data-verification-mechanism/implementation/ProposerV2.sol:ProposerV2",
        "label": "_owner",
        "offset": 0,
        "slot": "0",
        "type": "t_address"
      },
      {
        "astId": 16304,
        "contract": "contracts/data-verification-mechanism/implementation/ProposerV2.sol:ProposerV2",
        "label": "_notEntered",
        "offset": 20,
        "slot": "0",
        "type": "t_bool"
      },
      {
        "astId": 27765,
        "contract": "contracts/data-verification-mechanism/implementation/ProposerV2.sol:ProposerV2",
        "label": "bond",
        "offset": 0,
        "slot": "1",
        "type": "t_uint256"
      },
      {
        "astId": 27785,
        "contract": "contracts/data-verification-mechanism/implementation/ProposerV2.sol:ProposerV2",
        "label": "bondedProposals",
        "offset": 0,
        "slot": "2",
        "type": "t_mapping(t_uint256,t_struct(BondedProposal)27780_storage)"
      }
    ],
    "types": {
      "t_address": {
        "encoding": "inplace",
        "label": "address",
        "numberOfBytes": "20"
      },
      "t_bool": {
        "encoding": "inplace",
        "label": "bool",
        "numberOfBytes": "1"
      },
      "t_bytes_storage": {
        "encoding": "bytes",
        "label": "bytes",
        "numberOfBytes": "32"
      },
      "t_mapping(t_uint256,t_struct(BondedProposal)27780_storage)": {
        "encoding": "mapping",
        "key": "t_uint256",
        "label": "mapping(uint256 => struct ProposerV2.BondedProposal)",
        "numberOfBytes": "32",
        "value": "t_struct(BondedProposal)27780_storage"
      },
      "t_struct(BondedProposal)27780_storage": {
        "encoding": "inplace",
        "label": "struct ProposerV2.BondedProposal",
        "members": [
          {
            "astId": 27773,
            "contract": "contracts/data-verification-mechanism/implementation/ProposerV2.sol:ProposerV2",
            "label": "sender",
            "offset": 0,
            "slot": "0",
            "type": "t_address"
          },
          {
            "astId": 27775,
            "contract": "contracts/data-verification-mechanism/implementation/ProposerV2.sol:ProposerV2",
            "label": "time",
            "offset": 20,
            "slot": "0",
            "type": "t_uint64"
          },
          {
            "astId": 27777,
            "contract": "contracts/data-verification-mechanism/implementation/ProposerV2.sol:ProposerV2",
            "label": "lockedBond",
            "offset": 0,
            "slot": "1",
            "type": "t_uint256"
          },
          {
            "astId": 27779,
            "contract": "contracts/data-verification-mechanism/implementation/ProposerV2.sol:ProposerV2",
            "label": "ancillaryData",
            "offset": 0,
            "slot": "2",
            "type": "t_bytes_storage"
          }
        ],
        "numberOfBytes": "96"
      },
      "t_uint256": {
        "encoding": "inplace",
        "label": "uint256",
        "numberOfBytes": "32"
      },
      "t_uint64": {
        "encoding": "inplace",
        "label": "uint64",
        "numberOfBytes": "8"
      }
    }
  }
}