{
  "address": "0xAf2b10DF4f202E09012C171C828f72F44A70F483",
  "abi": [
    {
      "inputs": [
        {
          "internalType": "contract IERC20",
          "name": "_token",
          "type": "address"
        },
        {
          "internalType": "uint256",
          "name": "_bond",
          "type": "uint256"
        },
        {
          "internalType": "contract Governor",
          "name": "_governor",
          "type": "address"
        },
        {
          "internalType": "contract Finder",
          "name": "_finder",
          "type": "address"
        },
        {
          "internalType": "address",
          "name": "_timer",
          "type": "address"
        }
      ],
      "stateMutability": "nonpayable",
      "type": "constructor"
    },
    {
      "anonymous": false,
      "inputs": [
        {
          "indexed": false,
          "internalType": "uint256",
          "name": "bond",
          "type": "uint256"
        }
      ],
      "name": "BondSet",
      "type": "event"
    },
    {
      "anonymous": false,
      "inputs": [
        {
          "indexed": true,
          "internalType": "address",
          "name": "previousOwner",
          "type": "address"
        },
        {
          "indexed": true,
          "internalType": "address",
          "name": "newOwner",
          "type": "address"
        }
      ],
      "name": "OwnershipTransferred",
      "type": "event"
    },
    {
      "anonymous": false,
      "inputs": [
        {
          "indexed": true,
          "internalType": "uint256",
          "name": "id",
          "type": "uint256"
        },
        {
          "indexed": false,
          "internalType": "bool",
          "name": "success",
          "type": "bool"
        }
      ],
      "name": "ProposalResolved",
      "type": "event"
    },
    {
      "inputs": [],
      "name": "bond",
      "outputs": [
        {
          "internalType": "uint256",
          "name": "",
          "type": "uint256"
        }
      ],
      "stateMutability": "view",
      "type": "function"
    },
    {
      "inputs": [
        {
          "internalType": "uint256",
          "name": "",
          "type": "uint256"
        }
      ],
      "name": "bondedProposals",
      "outputs": [
        {
          "internalType": "address",
          "name": "sender",
          "type": "address"
        },
        {
          "internalType": "uint64",
          "name": "time",
          "type": "uint64"
        },
        {
          "internalType": "uint256",
          "name": "lockedBond",
          "type": "uint256"
        }
      ],
      "stateMutability": "view",
      "type": "function"
    },
    {
      "inputs": [],
      "name": "finder",
      "outputs": [
        {
          "internalType": "contract Finder",
          "name": "",
          "type": "address"
        }
      ],
      "stateMutability": "view",
      "type": "function"
    },
    {
      "inputs": [],
      "name": "getCurrentTime",
      "outputs": [
        {
          "internalType": "uint256",
          "name": "",
          "type": "uint256"
        }
      ],
      "stateMutability": "view",
      "type": "function"
    },
    {
      "inputs": [],
      "name": "governor",
      "outputs": [
        {
          "internalType": "contract Governor",
          "name": "",
          "type": "address"
        }
      ],
      "stateMutability": "view",
      "type": "function"
    },
    {
      "inputs": [],
      "name": "owner",
      "outputs": [
        {
          "internalType": "address",
          "name": "",
          "type": "address"
        }
      ],
      "stateMutability": "view",
      "type": "function"
    },
    {
      "inputs": [
        {
          "components": [
            {
              "internalType": "address",
              "name": "to",
              "type": "address"
            },
            {
              "internalType": "uint256",
              "name": "value",
              "type": "uint256"
            },
            {
              "internalType": "bytes",
              "name": "data",
              "type": "bytes"
            }
          ],
          "internalType": "struct Governor.Transaction[]",
          "name": "transactions",
          "type": "tuple[]"
        }
      ],
      "name": "propose",
      "outputs": [
        {
          "internalType": "uint256",
          "name": "id",
          "type": "uint256"
        }
      ],
      "stateMutability": "nonpayable",
      "type": "function"
    },
    {
      "inputs": [],
      "name": "renounceOwnership",
      "outputs": [],
      "stateMutability": "nonpayable",
      "type": "function"
    },
    {
      "inputs": [
        {
          "internalType": "uint256",
          "name": "id",
          "type": "uint256"
        }
      ],
      "name": "resolveProposal",
      "outputs": [],
      "stateMutability": "nonpayable",
      "type": "function"
    },
    {
      "inputs": [
        {
          "internalType": "uint256",
          "name": "_bond",
          "type": "uint256"
        }
      ],
      "name": "setBond",
      "outputs": [],
      "stateMutability": "nonpayable",
      "type": "function"
    },
    {
      "inputs": [
        {
          "internalType": "uint256",
          "name": "time",
          "type": "uint256"
        }
      ],
      "name": "setCurrentTime",
      "outputs": [],
      "stateMutability": "nonpayable",
      "type": "function"
    },
    {
      "inputs": [],
      "name": "timerAddress",
      "outputs": [
        {
          "internalType": "address",
          "name": "",
          "type": "address"
        }
      ],
      "stateMutability": "view",
      "type": "function"
    },
    {
      "inputs": [],
      "name": "token",
      "outputs": [
        {
          "internalType": "contract IERC20",
          "name": "",
          "type": "address"
        }
      ],
      "stateMutability": "view",
      "type": "function"
    },
    {
      "inputs": [
        {
          "internalType": "address",
          "name": "newOwner",
          "type": "address"
        }
      ],
      "name": "transferOwnership",
      "outputs": [],
      "stateMutability": "nonpayable",
      "type": "function"
    }
  ],
  "transactionHash": "0x78d8c437f4417d177063e9af50ff1cb4002f0cc461f117d920cf10577e271fd0",
  "args": [
    "0x473411E26885aE3A291EF4F4eB430F33946EDAD7",
    "5000000000000000000000",
    "0xBaF49aB29D61F6A58dfC76D249aD3c20bc8F5487",
    "0xA969917A4dFaB07936dEc60f70FA5c736A1e2b9e",
    "0xf8815ce169E5450aa6908e76E1B970dBcEC11550"
  ],
  "solcInputHash": "864d61c65c789401ae17358a5af86557",
  "bytecode": "0x608034620001f057601f6200127f38819003918201601f191683019291906001600160401b03841183851017620001f5578160a09284926040968752833981010312620001f05780516001600160a01b039081811690819003620001f0576020830151908484015193838516809503620001f057606081015190848216809203620001f05760800151938416809403620001f0576200009e3362000264565b600160a01b809460018060a81b03196001541617179160018060a01b03199081600254161760025585816004541617600455600554161760055560ff8160a01c1615620001ac5760ff60a01b19166001819055907f1b44689fb73c0c9cdf591d534287488fc7959fd3647346821063a3e567ec9a9990602090620001216200020b565b806003558651908152a117600155620001396200020b565b801562000159576200014b9062000264565b51610fce9081620002b18239f35b815162461bcd60e51b815260206004820152602660248201527f4f776e61626c653a206e6577206f776e657220697320746865207a65726f206160448201526564647265737360d01b6064820152608490fd5b845162461bcd60e51b815260206004820152601f60248201527f5265656e7472616e637947756172643a207265656e7472616e742063616c6c006044820152606490fd5b600080fd5b634e487b7160e01b600052604160045260246000fd5b6000546001600160a01b031633036200022057565b606460405162461bcd60e51b815260206004820152602060248201527f4f776e61626c653a2063616c6c6572206973206e6f7420746865206f776e65726044820152fd5b600080546001600160a01b039283166001600160a01b03198216811783556040519093909116917f8be0079c531659141344cd1fd0a4f28419497f9722a3daafe3b4186f6b6457e091a356fe6040608081526004908136101561001557600080fd5b600091823560e01c90816262804e146107e55781630c340a24146107bd57816311a9b77b1461076e5781631c39c38d1461074557816322f8e566146106d2578163259bd9201461066657816329cb924d1461064257816364c9ec6f14610623578163715018a6146105c65781638da5cb5b1461059e578163b9a3c84c14610575578163c62fdef7146101bf578163f2fde38b146100e7575063fc0c546a146100bc57600080fd5b346100e357816003193601126100e35760025490516001600160a01b039091168152602090f35b5080fd5b9050346101bb5760203660031901126101bb576001600160a01b03813581811692908390036101b657610118610b83565b8215610164575060005492826bffffffffffffffffffffffff60a01b8516176000555192167f8be0079c531659141344cd1fd0a4f28419497f9722a3daafe3b4186f6b6457e0600084a3f35b608490602085519162461bcd60e51b8352820152602660248201527f4f776e61626c653a206e6577206f776e657220697320746865207a65726f206160448201526564647265737360d01b6064820152fd5b600080fd5b8280fd5b919050346101bb57602092836003193601126103c357823567ffffffffffffffff918282116103c357366023830112156103c35781850135838111610562578060051b9085519061021289840183610b45565b81528781019384602480948301019136831161055e57848101915b8383106104895750505050610240610e66565b60ff60a01b19938760019686885416885560018060a01b038b818454168b519c8d809263400e394960e01b82525afa9a8b1561047f57879b610450575b508b81600254166003548c51926323b872dd60e01b90840152338984015230604484015260648301526064825260a082018281108582111761043c578c526102c59190610cae565b600354826102d1610bdb565b16908b51916060948584019084821090821117610428578d52338352828f01908152828d019182528d8a5260068f528c8a209251835491516001600160e01b03199092169085161760a09190911b67ffffffffffffffff60a01b1617825551908a01558254811694853b1561042457928a8d9795939288938a989683519a8b9963c62fdef760e01b8b528a01958a01525180945260448801918d60448660051b8b010197968b955b8787106103d0575050505050505050508383809203925af180156103c6576103af575b5050815416600160a01b17905551908152f35b6103b98291610b1b565b6103c3578061039c565b80fd5b85513d84823e3d90fd5b909380979a9c508493969981838b9e9b61040b96999c604319908503018d52518a815116845287810151888501520151938201520190610c56565b9801940194019093899795928f958d8f978c9a98610379565b8780fd5b89604188634e487b7160e01b600052526000fd5b88604187634e487b7160e01b600052526000fd5b909a508b81813d8311610478575b6104688183610b45565b810103126101b65751993861027d565b503d61045e565b8a513d89823e3d90fd5b8235898111610424578201606090816023198236030112610542578b519182018281108c82111761054a578c52808801356001600160a01b03811681036101b657825260448101358e8301526064810135908b82116105465701366043820112156105425780888d9201359061050a61050183610b67565b93519384610b45565b818352366044838301011161053e57918f9492858381969460448f940183860137830101528d82015281520192019161022d565b8a80fd5b8880fd5b8980fd5b8860418f634e487b7160e01b600052526000fd5b8580fd5b634e487b7160e01b825260418652602482fd5b5050346100e357816003193601126100e35760055490516001600160a01b039091168152602090f35b5050346100e357816003193601126100e357905490516001600160a01b039091168152602090f35b5050346100e357816003193601126100e3576105e0610b83565b600080546001600160a01b0319811682559151916001600160a01b03167f8be0079c531659141344cd1fd0a4f28419497f9722a3daafe3b4186f6b6457e08284a3f35b5050346100e357816003193601126100e3576020906003549051908152f35b5050346100e357816003193601126100e35760209061065f610bdb565b9051908152f35b9050346101bb5760203660031901126101bb5735610682610e66565b7f1b44689fb73c0c9cdf591d534287488fc7959fd3647346821063a3e567ec9a99602060ff60a01b196001541692836001556106bc610b83565b806003558451908152a1600160a01b1760015551f35b839150346100e35760203660031901126100e3576001546001600160a01b03169081156101bb57813b156101bb578291602483928651948593849263117c72b360e11b84528035908401525af1801561073b5761072e57509051f35b61073790610b1b565b9051f35b83513d84823e3d90fd5b5050346100e357816003193601126100e35760015490516001600160a01b039091168152602090f35b9050346101bb5760203660031901126101bb57606092829135815260066020522090600182549201549067ffffffffffffffff81519360018060a01b038116855260a01c166020840152820152f35b9050346101bb57826003193601126101bb575490516001600160a01b03909116815260209150f35b9050346101bb57602080600319360112610b1757813591610804610e66565b6001805460ff60a01b1990811682558487526006845285872060055487516302abf57960e61b808252654f7261636c6560d01b82880152949793966001600160a01b0396909592871692918a908c908881602481895afa90811561073b578a9291610afa575b50168c6108c88961087a8a610f2c565b9467ffffffffffffffff8a5460a01c16958691519384928392630b551cd560e41b84528a84019060809267ffffffffffffffff91835216602082015260606040820152600060608201520190565b0381865afa918215610aef5791610ac2575b5015610a8b5761092d9188918d6108f08a610f2c565b90518095819482936338ce36ab60e11b84528984019060809267ffffffffffffffff91835216602082015260606040820152600060608201520190565b03915afa908115610a81578c91610a50575b50156109a857505050836109629187600696600254169282541691015491610eda565b807fdb53c862706d03ae7c85dcaa4fd1aa1df7fa8914c2b999a15b37e280bf5a207c838851888152a25b8652528284208481558201849055815416600160a01b17905551f35b60248692939760025416938b51988993849283526453746f726560d81b908301525afa8015610a4657876109e9936006978c93610a17575b50015491610eda565b807fdb53c862706d03ae7c85dcaa4fd1aa1df7fa8914c2b999a15b37e280bf5a207c8388518a8152a261098c565b610a38919350873d8911610a3f575b610a308183610b45565b810190610ebb565b91386109e0565b503d610a26565b88513d8b823e3d90fd5b90508681813d8311610a7a575b610a678183610b45565b81010312610a7657513861093f565b8b80fd5b503d610a5d565b8b513d8e823e3d90fd5b8b5162461bcd60e51b81528084018990526011602482015270139bc81c1c9a58d9481c995cdbdb1d9959607a1b6044820152606490fd5b610ae29150893d8b11610ae8575b610ada8183610b45565b810190610c96565b386108da565b503d610ad0565b8e51903d90823e3d90fd5b610b119150893d8b11610a3f57610a308183610b45565b3861086a565b8380fd5b67ffffffffffffffff8111610b2f57604052565b634e487b7160e01b600052604160045260246000fd5b90601f8019910116810190811067ffffffffffffffff821117610b2f57604052565b67ffffffffffffffff8111610b2f57601f01601f191660200190565b6000546001600160a01b03163303610b9757565b606460405162461bcd60e51b815260206004820152602060248201527f4f776e61626c653a2063616c6c6572206973206e6f7420746865206f776e65726044820152fd5b6001546001600160a01b03168015610c51576020600491604051928380926329cb924d60e01b82525afa908115610c4557600091610c17575090565b906020823d8211610c3d575b81610c3060209383610b45565b810103126103c357505190565b3d9150610c23565b6040513d6000823e3d90fd5b504290565b919082519283825260005b848110610c82575050826000602080949584010152601f8019910116010190565b602081830181015184830182015201610c61565b908160209103126101b6575180151581036101b65790565b60408051908101916001600160a01b031667ffffffffffffffff831182841017610b2f57610d3d926040526000806020958685527f5361666545524332303a206c6f772d6c6576656c2063616c6c206661696c656487860152868151910182855af13d15610dc5573d91610d2183610b67565b92610d2f6040519485610b45565b83523d60008785013e610dc9565b805190828215928315610dad575b50505015610d565750565b6084906040519062461bcd60e51b82526004820152602a60248201527f5361666545524332303a204552433230206f7065726174696f6e20646964206e6044820152691bdd081cdd58d8d9595960b21b6064820152fd5b610dbd9350820181019101610c96565b388281610d4b565b6060915b91929015610e2b5750815115610ddd575090565b3b15610de65790565b60405162461bcd60e51b815260206004820152601d60248201527f416464726573733a2063616c6c20746f206e6f6e2d636f6e74726163740000006044820152606490fd5b825190915015610e3e5750805190602001fd5b60405162461bcd60e51b815260206004820152908190610e62906024830190610c56565b0390fd5b60ff60015460a01c1615610e7657565b60405162461bcd60e51b815260206004820152601f60248201527f5265656e7472616e637947756172643a207265656e7472616e742063616c6c006044820152606490fd5b908160209103126101b657516001600160a01b03811681036101b65790565b60405163a9059cbb60e01b60208201526001600160a01b039092166024830152604480830193909352918152608081019167ffffffffffffffff831182841017610b2f57610f2a92604052610cae565b565b600090819080610f515750600360fc1b9150505b60301c65020b236b4b7160d51b1790565b90815b610f5f575050610f40565b9091600a9081840660308101809111610f845760f81b9060081c179204809190610f54565b634e487b7160e01b84526011600452602484fdfea2646970667358221220ca86359fc6da32228ba85f684c1045223cd676b09343afb8e3eb37aaaf8526a764736f6c63430008100033",
  "devdoc": {
    "kind": "dev",
    "methods": {
      "constructor": {
        "params": {
          "_bond": "the bond amount.",
          "_finder": "the finder contract used to look up addresses.",
          "_governor": "the governor contract that this contract makes proposals to.",
          "_timer": "the timer contract to control the output of getCurrentTime(). Set to 0x0 if in production.",
          "_token": "the ERC20 token that the bond is paid in."
        }
      },
      "getCurrentTime()": {
        "returns": {
          "_0": "uint for the current Testable timestamp."
        }
      },
      "owner()": {
        "details": "Returns the address of the current owner."
      },
      "propose((address,uint256,bytes)[])": {
        "details": "Pulls bond from the caller.",
        "params": {
          "transactions": "list of transactions for the governor to execute."
        },
        "returns": {
          "id": "the id of the governor proposal."
        }
      },
      "renounceOwnership()": {
        "details": "Leaves the contract without owner. It will not be possible to call `onlyOwner` functions. Can only be called by the current owner. NOTE: Renouncing ownership will leave the contract without an owner, thereby disabling any functionality that is only available to the owner."
      },
      "resolveProposal(uint256)": {
        "details": "For the resolution to work correctly, this contract must be a registered contract in the DVM.",
        "params": {
          "id": "proposal id."
        }
      },
      "setBond(uint256)": {
        "details": "Admin is intended to be the governance system, itself.",
        "params": {
          "_bond": "the new bond."
        }
      },
      "setCurrentTime(uint256)": {
        "details": "Will revert if not running in test mode.",
        "params": {
          "time": "timestamp to set current Testable time to."
        }
      },
      "transferOwnership(address)": {
        "details": "Transfers ownership of the contract to a new account (`newOwner`). Can only be called by the current owner."
      }
    },
    "title": "Proposer contract that allows anyone to make governance proposals with a bond.",
    "version": 1
  },
  "userdoc": {
    "kind": "user",
    "methods": {
      "constructor": {
        "notice": "Construct the Proposer contract."
      },
      "getCurrentTime()": {
        "notice": "Gets the current time. Will return the last time set in `setCurrentTime` if running in test mode. Otherwise, it will return the block timestamp."
      },
      "propose((address,uint256,bytes)[])": {
        "notice": "Propose a new set of governance transactions for vote."
      },
      "resolveProposal(uint256)": {
        "notice": "Resolves a proposal by checking the status of the request in the Voting contract."
      },
      "setBond(uint256)": {
        "notice": "Admin method to set the bond amount."
      },
      "setCurrentTime(uint256)": {
        "notice": "Sets the current time."
      }
    },
    "version": 1
  },
  "storageLayout": {
    "storage": [
      {
        "astId": 4304,
        "contract": "contracts/data-verification-mechanism/implementation/Proposer.sol:Proposer",
        "label": "_owner",
        "offset": 0,
        "slot": "0",
        "type": "t_address"
      },
      {
        "astId": 17751,
        "contract": "contracts/data-verification-mechanism/implementation/Proposer.sol:Proposer",
        "label": "timerAddress",
        "offset": 0,
        "slot": "1",
        "type": "t_address"
      },
      {
        "astId": 16304,
        "contract": "contracts/data-verification-mechanism/implementation/Proposer.sol:Proposer",
        "label": "_notEntered",
        "offset": 20,
        "slot": "1",
        "type": "t_bool"
      },
      {
        "astId": 27499,
        "contract": "contracts/data-verification-mechanism/implementation/Proposer.sol:Proposer",
        "label": "token",
        "offset": 0,
        "slot": "2",
        "type": "t_contract(IERC20)5182"
      },
      {
        "astId": 27501,
        "contract": "contracts/data-verification-mechanism/implementation/Proposer.sol:Proposer",
        "label": "bond",
        "offset": 0,
        "slot": "3",
        "type": "t_uint256"
      },
      {
        "astId": 27504,
        "contract": "contracts/data-verification-mechanism/implementation/Proposer.sol:Proposer",
        "label": "governor",
        "offset": 0,
        "slot": "4",
        "type": "t_contract(Governor)26874"
      },
      {
        "astId": 27507,
        "contract": "contracts/data-verification-mechanism/implementation/Proposer.sol:Proposer",
        "label": "finder",
        "offset": 0,
        "slot": "5",
        "type": "t_contract(Finder)26292"
      },
      {
        "astId": 27519,
        "contract": "contracts/data-verification-mechanism/implementation/Proposer.sol:Proposer",
        "label": "bondedProposals",
        "offset": 0,
        "slot": "6",
        "type": "t_mapping(t_uint256,t_struct(BondedProposal)27514_storage)"
      }
    ],
    "types": {
      "t_address": {
        "encoding": "inplace",
        "label": "address",
        "numberOfBytes": "20"
      },
      "t_bool": {
        "encoding": "inplace",
        "label": "bool",
        "numberOfBytes": "1"
      },
      "t_contract(Finder)26292": {
        "encoding": "inplace",
        "label": "contract Finder",
        "numberOfBytes": "20"
      },
      "t_contract(Governor)26874": {
        "encoding": "inplace",
        "label": "contract Governor",
        "numberOfBytes": "20"
      },
      "t_contract(IERC20)5182": {
        "encoding": "inplace",
        "label": "contract IERC20",
        "numberOfBytes": "20"
      },
      "t_mapping(t_uint256,t_struct(BondedProposal)27514_storage)": {
        "encoding": "mapping",
        "key": "t_uint256",
        "label": "mapping(uint256 => struct Proposer.BondedProposal)",
        "numberOfBytes": "32",
        "value": "t_struct(BondedProposal)27514_storage"
      },
      "t_struct(BondedProposal)27514_storage": {
        "encoding": "inplace",
        "label": "struct Proposer.BondedProposal",
        "members": [
          {
            "astId": 27509,
            "contract": "contracts/data-verification-mechanism/implementation/Proposer.sol:Proposer",
            "label": "sender",
            "offset": 0,
            "slot": "0",
            "type": "t_address"
          },
          {
            "astId": 27511,
            "contract": "contracts/data-verification-mechanism/implementation/Proposer.sol:Proposer",
            "label": "time",
            "offset": 20,
            "slot": "0",
            "type": "t_uint64"
          },
          {
            "astId": 27513,
            "contract": "contracts/data-verification-mechanism/implementation/Proposer.sol:Proposer",
            "label": "lockedBond",
            "offset": 0,
            "slot": "1",
            "type": "t_uint256"
          }
        ],
        "numberOfBytes": "64"
      },
      "t_uint256": {
        "encoding": "inplace",
        "label": "uint256",
        "numberOfBytes": "32"
      },
      "t_uint64": {
        "encoding": "inplace",
        "label": "uint64",
        "numberOfBytes": "8"
      }
    }
  }
}