{
  "address": "0x7d6eE94b9AF1f583f5808059c5896B104f24b072",
  "abi": [
    {
      "inputs": [
        {
          "internalType": "address",
          "name": "",
          "type": "address"
        }
      ],
      "name": "longShortPairParameters",
      "outputs": [
        {
          "internalType": "uint256",
          "name": "highPriceRange",
          "type": "uint256"
        },
        {
          "internalType": "uint256",
          "name": "lowPriceRange",
          "type": "uint256"
        }
      ],
      "stateMutability": "view",
      "type": "function"
    },
    {
      "inputs": [
        {
          "internalType": "int256",
          "name": "expiryPrice",
          "type": "int256"
        }
      ],
      "name": "percentageLongCollateralAtExpiry",
      "outputs": [
        {
          "internalType": "uint256",
          "name": "",
          "type": "uint256"
        }
      ],
      "stateMutability": "view",
      "type": "function"
    },
    {
      "inputs": [
        {
          "internalType": "address",
          "name": "longShortPair",
          "type": "address"
        },
        {
          "internalType": "uint256",
          "name": "highPriceRange",
          "type": "uint256"
        },
        {
          "internalType": "uint256",
          "name": "lowPriceRange",
          "type": "uint256"
        }
      ],
      "name": "setLongShortPairParameters",
      "outputs": [],
      "stateMutability": "nonpayable",
      "type": "function"
    }
  ],
  "transactionHash": "0x432d3805cced8efcbcfb328df87f5908b6da16bba101eb11ba6f0c4eb3d45ae2",
  "args": [],
  "solcInputHash": "864d61c65c789401ae17358a5af86557",
  "bytecode": "0x6080806040523461002357600160ff19600054161760005561055990816100298239f35b600080fdfe6040608081526004908136101561001557600080fd5b600090813560e01c80632da52361146102765780639299cbed14610235576392a98f531461004257600080fd5b346102315760603660031901126102315761005b6102a8565b602435604435610069610311565b845460ff1990811686558451634fa1eee960e11b815260209791946001600160a01b0316919088818381865afa9081156102275788916101cc575b5015610193578284111561015f57818752600188528786882087516100c8816102c3565b600182549283835201549283910152159081610156575b501561011a57506001939291848881938851956100fb876102c3565b8652818601938452895252858720925183555191015583541617825551f35b855162461bcd60e51b8152908101889052601660248201527514185c985b595d195c9cc8185b1c9958591e481cd95d60521b6044820152606490fd5b905015386100df565b855162461bcd60e51b8152908101889052600e60248201526d496e76616c696420626f756e647360901b6044820152606490fd5b855162461bcd60e51b81529081018890526013602482015272496e76616c6964204c5350206164647265737360681b6044820152606490fd5b9050883d8a11610220575b601f8101601f1916820167ffffffffffffffff81118382101761020d578a9183918a52810103126102095751386100a4565b8780fd5b634e487b7160e01b8a526041845260248afd5b503d6101d7565b87513d8a823e3d90fd5b5080fd5b5034610231576020366003190112610231579081906001600160a01b0361025a6102a8565b1681526001602052206001815491015482519182526020820152f35b5090346102a55760203660031901126102a5575061029e602092610298610311565b35610363565b9051908152f35b80fd5b600435906001600160a01b03821682036102be57565b600080fd5b6040810190811067ffffffffffffffff8211176102df57604052565b634e487b7160e01b600052604160045260246000fd5b6020810190811067ffffffffffffffff8211176102df57604052565b60ff600054161561031e57565b60405162461bcd60e51b815260206004820152601f60248201527f5265656e7472616e637947756172643a207265656e7472616e742063616c6c006044820152606490fd5b60009033825260016020526040908183209282519183830183811067ffffffffffffffff82111761049d5784526001855495868552015460208401958187521590811591610493575b501561044f578181131561044857905b845182111561041e575081518111156103fc57506103f89251908251916103e2836102f5565b8252519151916103f1836102f5565b82526104b1565b5190565b9190506103f8925190805191610411836102f5565b825251916103f1836102f5565b9293505050815161042e816102f5565b5251610439816102f5565b670de0b6b3a764000080915290565b50806103bc565b835162461bcd60e51b815260206004820152601e60248201527f506172616d73206e6f742073657420666f722063616c6c696e67204c535000006044820152606490fd5b90501515386103ac565b634e487b7160e01b83526041600452602483fd5b60006040516104bf816102f5565b525190670de0b6b3a764000090826000190482118315151661050d57519081156104f757604051926104f0846102f5565b0204815290565b634e487b7160e01b600052601260045260246000fd5b634e487b7160e01b600052601160045260246000fdfea26469706673582212202679114da57a068ef74aacf1ce24df58f62cef97f2d33a017d8198175aedabba64736f6c63430008100033",
  "devdoc": {
    "kind": "dev",
    "methods": {
      "percentageLongCollateralAtExpiry(int256)": {
        "params": {
          "expiryPrice": "price from the optimistic oracle for the LSP price identifier."
        },
        "returns": {
          "_0": "expiryPercentLong to indicate how much collateral should be sent between long and short tokens."
        }
      },
      "setLongShortPairParameters(address,uint256,uint256)": {
        "details": "between highPriceRange and lowPriceRange the contract will payout a fixed amount of lowPriceRange*collateralPerPair (i.e the \"notional\" of the yield dollar).Note: a) Any address can set these parameters b) existing LSP parameters for address not set. c) highPriceRange > lowPriceRange. d) parameters price can only be set once to prevent the deployer from changing the parameters after the fact. e) For safety, a parameters should be set before depositing any synthetic tokens in a liquidity pool. f) longShortPair must expose an expirationTimestamp method to validate it is correctly deployed.",
        "params": {
          "highPriceRange": "high price range after which the payout transforms from a yield dollar to a call option.",
          "longShortPair": "address of the LSP contract.",
          "lowPriceRange": "low price range below which the payout transforms from a yield dollar to a short put option."
        }
      }
    },
    "title": "Range Bond Long Short Pair Financial Product Library",
    "version": 1
  },
  "userdoc": {
    "kind": "user",
    "methods": {
      "percentageLongCollateralAtExpiry(int256)": {
        "notice": "Returns a number between 0 and 1e18 to indicate how much collateral each long and short token are entitled to per collateralPerPair."
      },
      "setLongShortPairParameters(address,uint256,uint256)": {
        "notice": "Enables any address to set the parameters price for an associated financial product."
      }
    },
    "notice": "Adds settlement logic to create range bond LSPs. A range bond is the combination of a Yield dollar, short put option and long call option enabling the token sponsor to issue structured products to unlock DeFi treasuries. A range bond is defined as = Yield Dollar - Put Option + Call option. Numerically this is found using: N = Notional of bond P = price of token T = number of tokens R1 = low price range R2 = high price range T = min(N/P,N/R1) + max((N/R2*(P-R2))/P,0) - At any price below the low price range (R1) the long side effectively holds a fixed number of collateral equal to collateralPerPair from the LSP with the value of expiryPercentLong = 1. This is the max payout in collateral. - Any price between R1 and R2 gives a payout equivalent to a yield dollar (bond) of notional N. In this range the expiryPercentLong shifts to keep the payout in dollar terms equal to the bond notional. - At any price above R2 the long holders are entitled to a fixed, minimum number of collateral equal to N/R2 with a expiryPercentLong=(N/R2)/collateralPerPair. The expression for the number of tokens paid out to the long side (T above) can be algebraically simplified, transformed to remove the notional and reframed to express the expiryPercentLong as [min(max(1/R2,1/P),1/R1)]/(1/R1) With this equation, the contract deployer does not need to specify the bond notional N. The notional can be calculated by taking R1*collateralPerPair from the LSP.",
    "version": 1
  },
  "storageLayout": {
    "storage": [
      {
        "astId": 16304,
        "contract": "contracts/financial-templates/common/financial-product-libraries/long-short-pair-libraries/RangeBondLongShortPairFinancialProductLibrary.sol:RangeBondLongShortPairFinancialProductLibrary",
        "label": "_notEntered",
        "offset": 0,
        "slot": "0",
        "type": "t_bool"
      },
      {
        "astId": 44425,
        "contract": "contracts/financial-templates/common/financial-product-libraries/long-short-pair-libraries/RangeBondLongShortPairFinancialProductLibrary.sol:RangeBondLongShortPairFinancialProductLibrary",
        "label": "longShortPairParameters",
        "offset": 0,
        "slot": "1",
        "type": "t_mapping(t_address,t_struct(RangeBondLongShortPairParameters)44420_storage)"
      }
    ],
    "types": {
      "t_address": {
        "encoding": "inplace",
        "label": "address",
        "numberOfBytes": "20"
      },
      "t_bool": {
        "encoding": "inplace",
        "label": "bool",
        "numberOfBytes": "1"
      },
      "t_mapping(t_address,t_struct(RangeBondLongShortPairParameters)44420_storage)": {
        "encoding": "mapping",
        "key": "t_address",
        "label": "mapping(address => struct RangeBondLongShortPairFinancialProductLibrary.RangeBondLongShortPairParameters)",
        "numberOfBytes": "32",
        "value": "t_struct(RangeBondLongShortPairParameters)44420_storage"
      },
      "t_struct(RangeBondLongShortPairParameters)44420_storage": {
        "encoding": "inplace",
        "label": "struct RangeBondLongShortPairFinancialProductLibrary.RangeBondLongShortPairParameters",
        "members": [
          {
            "astId": 44417,
            "contract": "contracts/financial-templates/common/financial-product-libraries/long-short-pair-libraries/RangeBondLongShortPairFinancialProductLibrary.sol:RangeBondLongShortPairFinancialProductLibrary",
            "label": "highPriceRange",
            "offset": 0,
            "slot": "0",
            "type": "t_uint256"
          },
          {
            "astId": 44419,
            "contract": "contracts/financial-templates/common/financial-product-libraries/long-short-pair-libraries/RangeBondLongShortPairFinancialProductLibrary.sol:RangeBondLongShortPairFinancialProductLibrary",
            "label": "lowPriceRange",
            "offset": 0,
            "slot": "1",
            "type": "t_uint256"
          }
        ],
        "numberOfBytes": "64"
      },
      "t_uint256": {
        "encoding": "inplace",
        "label": "uint256",
        "numberOfBytes": "32"
      }
    }
  }
}