{
  "address": "0xbFD46999D8917Db397fe88F9b8bBfAc6d692be7E",
  "abi": [
    {
      "inputs": [
        {
          "internalType": "address",
          "name": "",
          "type": "address"
        }
      ],
      "name": "longShortPairStrikePrices",
      "outputs": [
        {
          "internalType": "uint256",
          "name": "",
          "type": "uint256"
        }
      ],
      "stateMutability": "view",
      "type": "function"
    },
    {
      "inputs": [
        {
          "internalType": "int256",
          "name": "expiryPrice",
          "type": "int256"
        }
      ],
      "name": "percentageLongCollateralAtExpiry",
      "outputs": [
        {
          "internalType": "uint256",
          "name": "",
          "type": "uint256"
        }
      ],
      "stateMutability": "view",
      "type": "function"
    },
    {
      "inputs": [
        {
          "internalType": "address",
          "name": "longShortPair",
          "type": "address"
        },
        {
          "internalType": "uint256",
          "name": "strikePrice",
          "type": "uint256"
        }
      ],
      "name": "setLongShortPairParameters",
      "outputs": [],
      "stateMutability": "nonpayable",
      "type": "function"
    }
  ],
  "transactionHash": "0xafebfc9238553ee98f4dedfbe04025178d4b419821320608f70563a61007d08a",
  "args": [],
  "solcInputHash": "864d61c65c789401ae17358a5af86557",
  "bytecode": "0x6080806040523461003357600160ff1960005416176000556706f05b59d3b20000806002556003556104db90816100398239f35b600080fdfe6040608081526004908136101561001557600080fd5b600091823560e01c80632da52361146101e85780636cf3f769146101ac576371b0b3601461004257600080fd5b346101a857816003193601126101a85761005a61021a565b90610063610267565b835460ff1990811685558351634fa1eee960e11b815290926020926001600160a01b039091169183818381865afa90811561019e578791610143575b501561010a5781865260018352848620546100ce57506001929183918652526024358385205583541617825551f35b845162461bcd60e51b8152908101839052601660248201527514185c985b595d195c9cc8185b1c9958591e481cd95d60521b6044820152606490fd5b845162461bcd60e51b81529081018390526013602482015272496e76616c6964204c5350206164647265737360681b6044820152606490fd5b9050833d8511610197575b601f8101601f1916820167ffffffffffffffff811183821017610184578591839189528101031261018057513861009f565b8680fd5b634e487b7160e01b895260418452602489fd5b503d61014e565b86513d89823e3d90fd5b8280fd5b5050346101e45760203660031901126101e45760209181906001600160a01b036101d461021a565b1681526001845220549051908152f35b5080fd5b509134610217576020366003190112610217575061021060209261020a610267565b356102b9565b9051908152f35b80fd5b600435906001600160a01b038216820361023057565b600080fd5b6020810190811067ffffffffffffffff82111761025157604052565b634e487b7160e01b600052604160045260246000fd5b60ff600054161561027457565b60405162461bcd60e51b815260206004820152601f60248201527f5265656e7472616e637947756172643a207265656e7472616e742063616c6c006044820152606490fd5b6000338152600160205260409081812054928315610461578181131561045a575b80158015610450575b61044657600254908351916102f783610235565b825260035484519061030882610235565b8152845161031581610235565b82815285519661032488610235565b875284865161033281610235565b52519551860395861161041e5784519561034b87610235565b865283855161035981610235565b5251945190600019958087048311811515166104325785519061037b82610235565b670de0b6b3a76400009384910204815285519161039783610235565b82528486516103a581610235565b525180960482118615151661041e575190811561040a578451956103c887610235565b020484528183516103d881610235565b5251925183018093116103f657508190516103f281610235565b5290565b634e487b7160e01b81526011600452602490fd5b634e487b7160e01b84526012600452602484fd5b634e487b7160e01b84526011600452602484fd5b634e487b7160e01b85526011600452602485fd5b5050505060025490565b50838111156102e3565b50806102da565b825162461bcd60e51b815260206004820152601e60248201527f506172616d73206e6f742073657420666f722063616c6c696e67204c535000006044820152606490fdfea26469706673582212209906ad3f3974a667dfcaa0e35b6b31d4137031bb9d836e80be6ae1f52ac2fd2664736f6c63430008100033",
  "devdoc": {
    "kind": "dev",
    "methods": {
      "percentageLongCollateralAtExpiry(int256)": {
        "params": {
          "expiryPrice": "price from the optimistic oracle for the LSP price identifier."
        },
        "returns": {
          "_0": "expiryPercentLong to indicate how much collateral should be sent between long and short tokens."
        }
      },
      "setLongShortPairParameters(address,uint256)": {
        "details": "Note: a) Any address can set the initial strike price b) A strike price cannot be 0. c) A strike price can only be set once to prevent the deployer from changing the strike after the fact. d) For safety, a strike price should be set before depositing any synthetic tokens in a liquidity pool. e) longShortPair must expose an expirationTimestamp method to validate it is correctly deployed.",
        "params": {
          "longShortPair": "address of the LSP.",
          "strikePrice": "the strike price for the covered call for the associated LSP."
        }
      }
    },
    "title": "Simple Success Token Long Short Pair Financial Product Library.",
    "version": 1
  },
  "userdoc": {
    "kind": "user",
    "methods": {
      "percentageLongCollateralAtExpiry(int256)": {
        "notice": "Returns a number between 0 and 1e18 to indicate how much collateral each long and short token are entitled to per collateralPerPair."
      },
      "setLongShortPairParameters(address,uint256)": {
        "notice": "Enables any address to set the strike price for an associated LSP."
      }
    },
    "notice": "Adds settlement logic to create success token LSPs. A success token pays out 50% of collateral as a floor, with the remaining 50% functioning like an embedded covered call. If the settlement is below the strike price then longs are worth 50% of collateral. If the settlement is above the strike then the payout is equal to: 0.5 + (0.5 * (expiryPrice - strikePrice) / expiryPrice) For example, consider a covered call option collateralized in SUSHI, with a strike a price of $20, and collateralPerPair of 2. - If the price is less than $20 then the each long is worth 0.5 collateralPerPair and each short is worth 0.5 collateralPerPair. i.e., each long is worth 1 SUSHI (calls expire worthless). - If the price is more than $20 then each long is worth 0.5 collateralPerPair plus 0.5 times the fraction of collateralPerPair that was in the money, and each short is worth the remaining collateralPerPair. - Say settlement price is $30.  Then expiryPercentLong = 0.5 + (0.5 * (30 - 20) / 30) = 0.6667. If the collateralPerPair is 2, that means the long payout is 0.6667*2 = 1.3333 $SUSHI, which at a settlement price of $30 is worth $40. This is equivalent to the value of 1 $SUSHI plus the value of the $20 strike embedded call.",
    "version": 1
  },
  "storageLayout": {
    "storage": [
      {
        "astId": 16304,
        "contract": "contracts/financial-templates/common/financial-product-libraries/long-short-pair-libraries/SimpleSuccessTokenLongShortPairFinancialProductLibrary.sol:SimpleSuccessTokenLongShortPairFinancialProductLibrary",
        "label": "_notEntered",
        "offset": 0,
        "slot": "0",
        "type": "t_bool"
      },
      {
        "astId": 44591,
        "contract": "contracts/financial-templates/common/financial-product-libraries/long-short-pair-libraries/SimpleSuccessTokenLongShortPairFinancialProductLibrary.sol:SimpleSuccessTokenLongShortPairFinancialProductLibrary",
        "label": "longShortPairStrikePrices",
        "offset": 0,
        "slot": "1",
        "type": "t_mapping(t_address,t_uint256)"
      },
      {
        "astId": 44594,
        "contract": "contracts/financial-templates/common/financial-product-libraries/long-short-pair-libraries/SimpleSuccessTokenLongShortPairFinancialProductLibrary.sol:SimpleSuccessTokenLongShortPairFinancialProductLibrary",
        "label": "basePercentage",
        "offset": 0,
        "slot": "2",
        "type": "t_uint256"
      },
      {
        "astId": 44602,
        "contract": "contracts/financial-templates/common/financial-product-libraries/long-short-pair-libraries/SimpleSuccessTokenLongShortPairFinancialProductLibrary.sol:SimpleSuccessTokenLongShortPairFinancialProductLibrary",
        "label": "variablePercentage",
        "offset": 0,
        "slot": "3",
        "type": "t_uint256"
      }
    ],
    "types": {
      "t_address": {
        "encoding": "inplace",
        "label": "address",
        "numberOfBytes": "20"
      },
      "t_bool": {
        "encoding": "inplace",
        "label": "bool",
        "numberOfBytes": "1"
      },
      "t_mapping(t_address,t_uint256)": {
        "encoding": "mapping",
        "key": "t_address",
        "label": "mapping(address => uint256)",
        "numberOfBytes": "32",
        "value": "t_uint256"
      },
      "t_uint256": {
        "encoding": "inplace",
        "label": "uint256",
        "numberOfBytes": "32"
      }
    }
  }
}