{
  "address": "0xbC6fE2e803B5B61382A02Ab9c7fAE576356D36Bd",
  "abi": [
    {
      "inputs": [
        {
          "internalType": "uint256",
          "name": "_liveness",
          "type": "uint256"
        },
        {
          "internalType": "address",
          "name": "_finderAddress",
          "type": "address"
        },
        {
          "internalType": "address",
          "name": "_timerAddress",
          "type": "address"
        }
      ],
      "stateMutability": "nonpayable",
      "type": "constructor"
    },
    {
      "anonymous": false,
      "inputs": [
        {
          "indexed": true,
          "internalType": "address",
          "name": "requester",
          "type": "address"
        },
        {
          "indexed": true,
          "internalType": "bytes32",
          "name": "identifier",
          "type": "bytes32"
        },
        {
          "indexed": false,
          "internalType": "uint32",
          "name": "timestamp",
          "type": "uint32"
        },
        {
          "indexed": false,
          "internalType": "bytes",
          "name": "ancillaryData",
          "type": "bytes"
        },
        {
          "components": [
            {
              "internalType": "address",
              "name": "proposer",
              "type": "address"
            },
            {
              "internalType": "address",
              "name": "disputer",
              "type": "address"
            },
            {
              "internalType": "contract IERC20",
              "name": "currency",
              "type": "address"
            },
            {
              "internalType": "bool",
              "name": "settled",
              "type": "bool"
            },
            {
              "internalType": "int256",
              "name": "proposedPrice",
              "type": "int256"
            },
            {
              "internalType": "int256",
              "name": "resolvedPrice",
              "type": "int256"
            },
            {
              "internalType": "uint256",
              "name": "expirationTime",
              "type": "uint256"
            },
            {
              "internalType": "uint256",
              "name": "reward",
              "type": "uint256"
            },
            {
              "internalType": "uint256",
              "name": "finalFee",
              "type": "uint256"
            },
            {
              "internalType": "uint256",
              "name": "bond",
              "type": "uint256"
            },
            {
              "internalType": "uint256",
              "name": "customLiveness",
              "type": "uint256"
            }
          ],
          "indexed": false,
          "internalType": "struct SkinnyOptimisticOracleInterface.Request",
          "name": "request",
          "type": "tuple"
        }
      ],
      "name": "DisputePrice",
      "type": "event"
    },
    {
      "anonymous": false,
      "inputs": [
        {
          "indexed": true,
          "internalType": "address",
          "name": "requester",
          "type": "address"
        },
        {
          "indexed": true,
          "internalType": "bytes32",
          "name": "identifier",
          "type": "bytes32"
        },
        {
          "indexed": false,
          "internalType": "uint32",
          "name": "timestamp",
          "type": "uint32"
        },
        {
          "indexed": false,
          "internalType": "bytes",
          "name": "ancillaryData",
          "type": "bytes"
        },
        {
          "components": [
            {
              "internalType": "address",
              "name": "proposer",
              "type": "address"
            },
            {
              "internalType": "address",
              "name": "disputer",
              "type": "address"
            },
            {
              "internalType": "contract IERC20",
              "name": "currency",
              "type": "address"
            },
            {
              "internalType": "bool",
              "name": "settled",
              "type": "bool"
            },
            {
              "internalType": "int256",
              "name": "proposedPrice",
              "type": "int256"
            },
            {
              "internalType": "int256",
              "name": "resolvedPrice",
              "type": "int256"
            },
            {
              "internalType": "uint256",
              "name": "expirationTime",
              "type": "uint256"
            },
            {
              "internalType": "uint256",
              "name": "reward",
              "type": "uint256"
            },
            {
              "internalType": "uint256",
              "name": "finalFee",
              "type": "uint256"
            },
            {
              "internalType": "uint256",
              "name": "bond",
              "type": "uint256"
            },
            {
              "internalType": "uint256",
              "name": "customLiveness",
              "type": "uint256"
            }
          ],
          "indexed": false,
          "internalType": "struct SkinnyOptimisticOracleInterface.Request",
          "name": "request",
          "type": "tuple"
        }
      ],
      "name": "ProposePrice",
      "type": "event"
    },
    {
      "anonymous": false,
      "inputs": [
        {
          "indexed": true,
          "internalType": "address",
          "name": "requester",
          "type": "address"
        },
        {
          "indexed": true,
          "internalType": "bytes32",
          "name": "identifier",
          "type": "bytes32"
        },
        {
          "indexed": false,
          "internalType": "uint32",
          "name": "timestamp",
          "type": "uint32"
        },
        {
          "indexed": false,
          "internalType": "bytes",
          "name": "ancillaryData",
          "type": "bytes"
        },
        {
          "components": [
            {
              "internalType": "address",
              "name": "proposer",
              "type": "address"
            },
            {
              "internalType": "address",
              "name": "disputer",
              "type": "address"
            },
            {
              "internalType": "contract IERC20",
              "name": "currency",
              "type": "address"
            },
            {
              "internalType": "bool",
              "name": "settled",
              "type": "bool"
            },
            {
              "internalType": "int256",
              "name": "proposedPrice",
              "type": "int256"
            },
            {
              "internalType": "int256",
              "name": "resolvedPrice",
              "type": "int256"
            },
            {
              "internalType": "uint256",
              "name": "expirationTime",
              "type": "uint256"
            },
            {
              "internalType": "uint256",
              "name": "reward",
              "type": "uint256"
            },
            {
              "internalType": "uint256",
              "name": "finalFee",
              "type": "uint256"
            },
            {
              "internalType": "uint256",
              "name": "bond",
              "type": "uint256"
            },
            {
              "internalType": "uint256",
              "name": "customLiveness",
              "type": "uint256"
            }
          ],
          "indexed": false,
          "internalType": "struct SkinnyOptimisticOracleInterface.Request",
          "name": "request",
          "type": "tuple"
        }
      ],
      "name": "RequestPrice",
      "type": "event"
    },
    {
      "anonymous": false,
      "inputs": [
        {
          "indexed": true,
          "internalType": "address",
          "name": "requester",
          "type": "address"
        },
        {
          "indexed": true,
          "internalType": "bytes32",
          "name": "identifier",
          "type": "bytes32"
        },
        {
          "indexed": false,
          "internalType": "uint32",
          "name": "timestamp",
          "type": "uint32"
        },
        {
          "indexed": false,
          "internalType": "bytes",
          "name": "ancillaryData",
          "type": "bytes"
        },
        {
          "components": [
            {
              "internalType": "address",
              "name": "proposer",
              "type": "address"
            },
            {
              "internalType": "address",
              "name": "disputer",
              "type": "address"
            },
            {
              "internalType": "contract IERC20",
              "name": "currency",
              "type": "address"
            },
            {
              "internalType": "bool",
              "name": "settled",
              "type": "bool"
            },
            {
              "internalType": "int256",
              "name": "proposedPrice",
              "type": "int256"
            },
            {
              "internalType": "int256",
              "name": "resolvedPrice",
              "type": "int256"
            },
            {
              "internalType": "uint256",
              "name": "expirationTime",
              "type": "uint256"
            },
            {
              "internalType": "uint256",
              "name": "reward",
              "type": "uint256"
            },
            {
              "internalType": "uint256",
              "name": "finalFee",
              "type": "uint256"
            },
            {
              "internalType": "uint256",
              "name": "bond",
              "type": "uint256"
            },
            {
              "internalType": "uint256",
              "name": "customLiveness",
              "type": "uint256"
            }
          ],
          "indexed": false,
          "internalType": "struct SkinnyOptimisticOracleInterface.Request",
          "name": "request",
          "type": "tuple"
        }
      ],
      "name": "Settle",
      "type": "event"
    },
    {
      "inputs": [],
      "name": "ancillaryBytesLimit",
      "outputs": [
        {
          "internalType": "uint256",
          "name": "",
          "type": "uint256"
        }
      ],
      "stateMutability": "view",
      "type": "function"
    },
    {
      "inputs": [],
      "name": "defaultLiveness",
      "outputs": [
        {
          "internalType": "uint256",
          "name": "",
          "type": "uint256"
        }
      ],
      "stateMutability": "view",
      "type": "function"
    },
    {
      "inputs": [
        {
          "internalType": "address",
          "name": "requester",
          "type": "address"
        },
        {
          "internalType": "bytes32",
          "name": "identifier",
          "type": "bytes32"
        },
        {
          "internalType": "uint32",
          "name": "timestamp",
          "type": "uint32"
        },
        {
          "internalType": "bytes",
          "name": "ancillaryData",
          "type": "bytes"
        },
        {
          "components": [
            {
              "internalType": "address",
              "name": "proposer",
              "type": "address"
            },
            {
              "internalType": "address",
              "name": "disputer",
              "type": "address"
            },
            {
              "internalType": "contract IERC20",
              "name": "currency",
              "type": "address"
            },
            {
              "internalType": "bool",
              "name": "settled",
              "type": "bool"
            },
            {
              "internalType": "int256",
              "name": "proposedPrice",
              "type": "int256"
            },
            {
              "internalType": "int256",
              "name": "resolvedPrice",
              "type": "int256"
            },
            {
              "internalType": "uint256",
              "name": "expirationTime",
              "type": "uint256"
            },
            {
              "internalType": "uint256",
              "name": "reward",
              "type": "uint256"
            },
            {
              "internalType": "uint256",
              "name": "finalFee",
              "type": "uint256"
            },
            {
              "internalType": "uint256",
              "name": "bond",
              "type": "uint256"
            },
            {
              "internalType": "uint256",
              "name": "customLiveness",
              "type": "uint256"
            }
          ],
          "internalType": "struct SkinnyOptimisticOracleInterface.Request",
          "name": "request",
          "type": "tuple"
        }
      ],
      "name": "disputePrice",
      "outputs": [
        {
          "internalType": "uint256",
          "name": "totalBond",
          "type": "uint256"
        }
      ],
      "stateMutability": "nonpayable",
      "type": "function"
    },
    {
      "inputs": [
        {
          "internalType": "bytes32",
          "name": "identifier",
          "type": "bytes32"
        },
        {
          "internalType": "uint32",
          "name": "timestamp",
          "type": "uint32"
        },
        {
          "internalType": "bytes",
          "name": "ancillaryData",
          "type": "bytes"
        },
        {
          "components": [
            {
              "internalType": "address",
              "name": "proposer",
              "type": "address"
            },
            {
              "internalType": "address",
              "name": "disputer",
              "type": "address"
            },
            {
              "internalType": "contract IERC20",
              "name": "currency",
              "type": "address"
            },
            {
              "internalType": "bool",
              "name": "settled",
              "type": "bool"
            },
            {
              "internalType": "int256",
              "name": "proposedPrice",
              "type": "int256"
            },
            {
              "internalType": "int256",
              "name": "resolvedPrice",
              "type": "int256"
            },
            {
              "internalType": "uint256",
              "name": "expirationTime",
              "type": "uint256"
            },
            {
              "internalType": "uint256",
              "name": "reward",
              "type": "uint256"
            },
            {
              "internalType": "uint256",
              "name": "finalFee",
              "type": "uint256"
            },
            {
              "internalType": "uint256",
              "name": "bond",
              "type": "uint256"
            },
            {
              "internalType": "uint256",
              "name": "customLiveness",
              "type": "uint256"
            }
          ],
          "internalType": "struct SkinnyOptimisticOracleInterface.Request",
          "name": "request",
          "type": "tuple"
        },
        {
          "internalType": "address",
          "name": "disputer",
          "type": "address"
        },
        {
          "internalType": "address",
          "name": "requester",
          "type": "address"
        }
      ],
      "name": "disputePriceFor",
      "outputs": [
        {
          "internalType": "uint256",
          "name": "totalBond",
          "type": "uint256"
        }
      ],
      "stateMutability": "nonpayable",
      "type": "function"
    },
    {
      "inputs": [],
      "name": "finder",
      "outputs": [
        {
          "internalType": "contract FinderInterface",
          "name": "",
          "type": "address"
        }
      ],
      "stateMutability": "view",
      "type": "function"
    },
    {
      "inputs": [],
      "name": "getCurrentTime",
      "outputs": [
        {
          "internalType": "uint256",
          "name": "",
          "type": "uint256"
        }
      ],
      "stateMutability": "view",
      "type": "function"
    },
    {
      "inputs": [
        {
          "internalType": "address",
          "name": "requester",
          "type": "address"
        },
        {
          "internalType": "bytes32",
          "name": "identifier",
          "type": "bytes32"
        },
        {
          "internalType": "uint32",
          "name": "timestamp",
          "type": "uint32"
        },
        {
          "internalType": "bytes",
          "name": "ancillaryData",
          "type": "bytes"
        },
        {
          "components": [
            {
              "internalType": "address",
              "name": "proposer",
              "type": "address"
            },
            {
              "internalType": "address",
              "name": "disputer",
              "type": "address"
            },
            {
              "internalType": "contract IERC20",
              "name": "currency",
              "type": "address"
            },
            {
              "internalType": "bool",
              "name": "settled",
              "type": "bool"
            },
            {
              "internalType": "int256",
              "name": "proposedPrice",
              "type": "int256"
            },
            {
              "internalType": "int256",
              "name": "resolvedPrice",
              "type": "int256"
            },
            {
              "internalType": "uint256",
              "name": "expirationTime",
              "type": "uint256"
            },
            {
              "internalType": "uint256",
              "name": "reward",
              "type": "uint256"
            },
            {
              "internalType": "uint256",
              "name": "finalFee",
              "type": "uint256"
            },
            {
              "internalType": "uint256",
              "name": "bond",
              "type": "uint256"
            },
            {
              "internalType": "uint256",
              "name": "customLiveness",
              "type": "uint256"
            }
          ],
          "internalType": "struct SkinnyOptimisticOracleInterface.Request",
          "name": "request",
          "type": "tuple"
        }
      ],
      "name": "getState",
      "outputs": [
        {
          "internalType": "enum OptimisticOracleInterface.State",
          "name": "",
          "type": "uint8"
        }
      ],
      "stateMutability": "nonpayable",
      "type": "function"
    },
    {
      "inputs": [
        {
          "internalType": "address",
          "name": "requester",
          "type": "address"
        },
        {
          "internalType": "bytes32",
          "name": "identifier",
          "type": "bytes32"
        },
        {
          "internalType": "uint32",
          "name": "timestamp",
          "type": "uint32"
        },
        {
          "internalType": "bytes",
          "name": "ancillaryData",
          "type": "bytes"
        },
        {
          "components": [
            {
              "internalType": "address",
              "name": "proposer",
              "type": "address"
            },
            {
              "internalType": "address",
              "name": "disputer",
              "type": "address"
            },
            {
              "internalType": "contract IERC20",
              "name": "currency",
              "type": "address"
            },
            {
              "internalType": "bool",
              "name": "settled",
              "type": "bool"
            },
            {
              "internalType": "int256",
              "name": "proposedPrice",
              "type": "int256"
            },
            {
              "internalType": "int256",
              "name": "resolvedPrice",
              "type": "int256"
            },
            {
              "internalType": "uint256",
              "name": "expirationTime",
              "type": "uint256"
            },
            {
              "internalType": "uint256",
              "name": "reward",
              "type": "uint256"
            },
            {
              "internalType": "uint256",
              "name": "finalFee",
              "type": "uint256"
            },
            {
              "internalType": "uint256",
              "name": "bond",
              "type": "uint256"
            },
            {
              "internalType": "uint256",
              "name": "customLiveness",
              "type": "uint256"
            }
          ],
          "internalType": "struct SkinnyOptimisticOracleInterface.Request",
          "name": "request",
          "type": "tuple"
        }
      ],
      "name": "hasPrice",
      "outputs": [
        {
          "internalType": "bool",
          "name": "",
          "type": "bool"
        }
      ],
      "stateMutability": "nonpayable",
      "type": "function"
    },
    {
      "inputs": [
        {
          "internalType": "address",
          "name": "requester",
          "type": "address"
        },
        {
          "internalType": "bytes32",
          "name": "identifier",
          "type": "bytes32"
        },
        {
          "internalType": "uint32",
          "name": "timestamp",
          "type": "uint32"
        },
        {
          "internalType": "bytes",
          "name": "ancillaryData",
          "type": "bytes"
        },
        {
          "components": [
            {
              "internalType": "address",
              "name": "proposer",
              "type": "address"
            },
            {
              "internalType": "address",
              "name": "disputer",
              "type": "address"
            },
            {
              "internalType": "contract IERC20",
              "name": "currency",
              "type": "address"
            },
            {
              "internalType": "bool",
              "name": "settled",
              "type": "bool"
            },
            {
              "internalType": "int256",
              "name": "proposedPrice",
              "type": "int256"
            },
            {
              "internalType": "int256",
              "name": "resolvedPrice",
              "type": "int256"
            },
            {
              "internalType": "uint256",
              "name": "expirationTime",
              "type": "uint256"
            },
            {
              "internalType": "uint256",
              "name": "reward",
              "type": "uint256"
            },
            {
              "internalType": "uint256",
              "name": "finalFee",
              "type": "uint256"
            },
            {
              "internalType": "uint256",
              "name": "bond",
              "type": "uint256"
            },
            {
              "internalType": "uint256",
              "name": "customLiveness",
              "type": "uint256"
            }
          ],
          "internalType": "struct SkinnyOptimisticOracleInterface.Request",
          "name": "request",
          "type": "tuple"
        },
        {
          "internalType": "int256",
          "name": "proposedPrice",
          "type": "int256"
        }
      ],
      "name": "proposePrice",
      "outputs": [
        {
          "internalType": "uint256",
          "name": "totalBond",
          "type": "uint256"
        }
      ],
      "stateMutability": "nonpayable",
      "type": "function"
    },
    {
      "inputs": [
        {
          "internalType": "address",
          "name": "requester",
          "type": "address"
        },
        {
          "internalType": "bytes32",
          "name": "identifier",
          "type": "bytes32"
        },
        {
          "internalType": "uint32",
          "name": "timestamp",
          "type": "uint32"
        },
        {
          "internalType": "bytes",
          "name": "ancillaryData",
          "type": "bytes"
        },
        {
          "components": [
            {
              "internalType": "address",
              "name": "proposer",
              "type": "address"
            },
            {
              "internalType": "address",
              "name": "disputer",
              "type": "address"
            },
            {
              "internalType": "contract IERC20",
              "name": "currency",
              "type": "address"
            },
            {
              "internalType": "bool",
              "name": "settled",
              "type": "bool"
            },
            {
              "internalType": "int256",
              "name": "proposedPrice",
              "type": "int256"
            },
            {
              "internalType": "int256",
              "name": "resolvedPrice",
              "type": "int256"
            },
            {
              "internalType": "uint256",
              "name": "expirationTime",
              "type": "uint256"
            },
            {
              "internalType": "uint256",
              "name": "reward",
              "type": "uint256"
            },
            {
              "internalType": "uint256",
              "name": "finalFee",
              "type": "uint256"
            },
            {
              "internalType": "uint256",
              "name": "bond",
              "type": "uint256"
            },
            {
              "internalType": "uint256",
              "name": "customLiveness",
              "type": "uint256"
            }
          ],
          "internalType": "struct SkinnyOptimisticOracleInterface.Request",
          "name": "request",
          "type": "tuple"
        },
        {
          "internalType": "address",
          "name": "proposer",
          "type": "address"
        },
        {
          "internalType": "int256",
          "name": "proposedPrice",
          "type": "int256"
        }
      ],
      "name": "proposePriceFor",
      "outputs": [
        {
          "internalType": "uint256",
          "name": "totalBond",
          "type": "uint256"
        }
      ],
      "stateMutability": "nonpayable",
      "type": "function"
    },
    {
      "inputs": [
        {
          "internalType": "bytes32",
          "name": "identifier",
          "type": "bytes32"
        },
        {
          "internalType": "uint32",
          "name": "timestamp",
          "type": "uint32"
        },
        {
          "internalType": "bytes",
          "name": "ancillaryData",
          "type": "bytes"
        },
        {
          "internalType": "contract IERC20",
          "name": "currency",
          "type": "address"
        },
        {
          "internalType": "uint256",
          "name": "reward",
          "type": "uint256"
        },
        {
          "internalType": "uint256",
          "name": "bond",
          "type": "uint256"
        },
        {
          "internalType": "uint256",
          "name": "customLiveness",
          "type": "uint256"
        },
        {
          "internalType": "address",
          "name": "proposer",
          "type": "address"
        },
        {
          "internalType": "int256",
          "name": "proposedPrice",
          "type": "int256"
        }
      ],
      "name": "requestAndProposePriceFor",
      "outputs": [
        {
          "internalType": "uint256",
          "name": "totalBond",
          "type": "uint256"
        }
      ],
      "stateMutability": "nonpayable",
      "type": "function"
    },
    {
      "inputs": [
        {
          "internalType": "bytes32",
          "name": "identifier",
          "type": "bytes32"
        },
        {
          "internalType": "uint32",
          "name": "timestamp",
          "type": "uint32"
        },
        {
          "internalType": "bytes",
          "name": "ancillaryData",
          "type": "bytes"
        },
        {
          "internalType": "contract IERC20",
          "name": "currency",
          "type": "address"
        },
        {
          "internalType": "uint256",
          "name": "reward",
          "type": "uint256"
        },
        {
          "internalType": "uint256",
          "name": "bond",
          "type": "uint256"
        },
        {
          "internalType": "uint256",
          "name": "customLiveness",
          "type": "uint256"
        }
      ],
      "name": "requestPrice",
      "outputs": [
        {
          "internalType": "uint256",
          "name": "totalBond",
          "type": "uint256"
        }
      ],
      "stateMutability": "nonpayable",
      "type": "function"
    },
    {
      "inputs": [
        {
          "internalType": "bytes32",
          "name": "",
          "type": "bytes32"
        }
      ],
      "name": "requests",
      "outputs": [
        {
          "internalType": "bytes32",
          "name": "",
          "type": "bytes32"
        }
      ],
      "stateMutability": "view",
      "type": "function"
    },
    {
      "inputs": [
        {
          "internalType": "uint256",
          "name": "time",
          "type": "uint256"
        }
      ],
      "name": "setCurrentTime",
      "outputs": [],
      "stateMutability": "nonpayable",
      "type": "function"
    },
    {
      "inputs": [
        {
          "internalType": "address",
          "name": "requester",
          "type": "address"
        },
        {
          "internalType": "bytes32",
          "name": "identifier",
          "type": "bytes32"
        },
        {
          "internalType": "uint32",
          "name": "timestamp",
          "type": "uint32"
        },
        {
          "internalType": "bytes",
          "name": "ancillaryData",
          "type": "bytes"
        },
        {
          "components": [
            {
              "internalType": "address",
              "name": "proposer",
              "type": "address"
            },
            {
              "internalType": "address",
              "name": "disputer",
              "type": "address"
            },
            {
              "internalType": "contract IERC20",
              "name": "currency",
              "type": "address"
            },
            {
              "internalType": "bool",
              "name": "settled",
              "type": "bool"
            },
            {
              "internalType": "int256",
              "name": "proposedPrice",
              "type": "int256"
            },
            {
              "internalType": "int256",
              "name": "resolvedPrice",
              "type": "int256"
            },
            {
              "internalType": "uint256",
              "name": "expirationTime",
              "type": "uint256"
            },
            {
              "internalType": "uint256",
              "name": "reward",
              "type": "uint256"
            },
            {
              "internalType": "uint256",
              "name": "finalFee",
              "type": "uint256"
            },
            {
              "internalType": "uint256",
              "name": "bond",
              "type": "uint256"
            },
            {
              "internalType": "uint256",
              "name": "customLiveness",
              "type": "uint256"
            }
          ],
          "internalType": "struct SkinnyOptimisticOracleInterface.Request",
          "name": "request",
          "type": "tuple"
        }
      ],
      "name": "settle",
      "outputs": [
        {
          "internalType": "uint256",
          "name": "payout",
          "type": "uint256"
        },
        {
          "internalType": "int256",
          "name": "resolvedPrice",
          "type": "int256"
        }
      ],
      "stateMutability": "nonpayable",
      "type": "function"
    },
    {
      "inputs": [
        {
          "internalType": "bytes",
          "name": "ancillaryData",
          "type": "bytes"
        },
        {
          "internalType": "address",
          "name": "requester",
          "type": "address"
        }
      ],
      "name": "stampAncillaryData",
      "outputs": [
        {
          "internalType": "bytes",
          "name": "",
          "type": "bytes"
        }
      ],
      "stateMutability": "pure",
      "type": "function"
    },
    {
      "inputs": [],
      "name": "timerAddress",
      "outputs": [
        {
          "internalType": "address",
          "name": "",
          "type": "address"
        }
      ],
      "stateMutability": "view",
      "type": "function"
    }
  ],
  "transactionHash": "0x757076f73887b325e76294bbff3140312e22b023a1029527bafaed509621fb9d",
  "args": [
    7200,
    "0xA969917A4dFaB07936dEc60f70FA5c736A1e2b9e",
    "0xf8815ce169E5450aa6908e76E1B970dBcEC11550"
  ],
  "solcInputHash": "864d61c65c789401ae17358a5af86557",
  "bytecode": "0x6080346200013b57601f620028c538819003918201601f19168301916001600160401b0383118484101762000140578084926060946040528339810103126200013b57805190620000536020820162000156565b6001600160a01b0391600160a01b908390620000729060400162000156565b1660018060a81b03196000541617176000551660018060a01b0319600254161760025563bb74480081101562000101578015620000bc5760035560405161275990816200016c8239f35b60405162461bcd60e51b815260206004820152601460248201527f4c6976656e6573732063616e6e6f7420626520300000000000000000000000006044820152606490fd5b60405162461bcd60e51b81526020600482015260126024820152714c6976656e65737320746f6f206c6172676560701b6044820152606490fd5b600080fd5b634e487b7160e01b600052604160045260246000fd5b51906001600160a01b03821682036200013b5756fe60e080604052600436101561001357600080fd5b600090813560e01c9081631c39c38d1461104f5750806322f8e56614610fd657806329cb924d14610fbb5780633a31577e14610f9f5780635120555414610f3557806393c44ef714610ed15780639ce320c814610dcb5780639d86698514610da1578063a337e1ad14610ce6578063af355d1e146108f4578063af5d2f3914610878578063b1a166b214610804578063b730539f14610445578063b9a3c84c1461041c578063c371dda7146103ff578063d6228407146100fc5763fe4e1983146100dc57600080fd5b346100f957806003193601126100f9576020600354604051908152f35b80fd5b50346100f95760e03660031901126100f9576101166110b3565b6044356001600160401b0381116103fb5761013590369060040161117d565b9061013e6111c4565b916101476118ed565b6000805460ff60a01b191690556101628183600435336120c2565b91828552600160205261017960408620541561143b565b602460206001600160a01b0361018d612453565b16604051928380926390978d1b60e01b825260043560048301525afa80156103a2576101c09187916103dc575b5061149f565b602460206001600160a01b036101d46123b5565b604051631d1d5b3960e11b81526001600160a01b038916600482015293849290918391165afa80156103a2576102119187916103ad575b506114e4565b61022a61021c6113c0565b63ffffffff83161115611527565b61024a6120006102423361023c6124a9565b866124d0565b511115611569565b602460206001600160a01b0361025e61240b565b604051635b97aadd60e01b81526001600160a01b038916600482015293849290918391165afa9081156103a2576103318761033a97969594937f6f8b57987b901f40681c863d8aed32c2cc6150062aa4ddb828c89aaa896c16689360209a91610375575b5051966102cd6115d3565b6001600160a01b038216604082015260843560e0820181905261010082018a905290925060a4358381156103695761031791995b61012082019a8b5260c43561014083015261220c565b80610355575b5050604051918291600435963396846116a0565b0390a3516118ca565b6000805460ff60a01b1916600160a01b179055604051908152f35b61036291309033906116d0565b388061031d565b61031791508a99610301565b61039591508a3d8c1161039b575b61038d8183611141565b8101906115b5565b386102c2565b503d610383565b6040513d88823e3d90fd5b6103cf915060203d6020116103d5575b6103c78183611141565b810190611487565b3861020b565b503d6103bd565b6103f5915060203d6020116103d5576103c78183611141565b386101ba565b8280fd5b50346100f957806003193601126100f95760206040516120008152f35b50346100f957806003193601126100f9576002546040516001600160a01b039091168152602090f35b50346100f95761045436611282565b936104609392936118ed565b6000805460ff60a01b19169055610479828585846120c2565b93610484868661214d565b60018060a01b038651169360018060a01b036020880151168760018060a01b03604082015116608082015160a083015160c08401519060e085015192610100860151946101406101208801519701519760206040519e8f906104e5826110ef565b8152015260408d0152600160608d015260808c015260a08b015260c08a015260e08901526101008801526101208701526101408601526105288785848487612227565b60078110156107f057600381036106545750610593856080890151978860a083015261058e6105716105668c610100610120820151910151906118ca565b60e08d0151906118ca565b60408c01519b51909b8c916001600160a01b039081169116612114565b61220c565b60018060a01b0383169281847f0a9a88a76857159cb49d0944fe45537825a67ea75e0df805097782be5bdcd0af604051806105d08b8b8a846116a0565b0390a33b6105fc575b6000805460ff60a01b1916600160a01b1790556040805188815260208101889052f35b9082918894933b1561065057849061062a6040519788968795869463413f3f9f60e11b865260048601611bc6565b03925af161063c575b808080806105d9565b61064684916110c6565b6103fb5782610633565b8480fd5b6005036107a1576106a29560206001600160a01b03610671612340565b166106848661067e6124a9565b896124d0565b9060405180809b81946338ce36ab60e11b835289896004850161209d565b03915afa96871561079657899761075e575b50868060a08801526080890151141561012089015161012088015160011c81039080821161074a5788928c61070e8d60e06107056106f96105939a9861058e986118ca565b610100840151906118ca565b910151906118ca565b9c8d9260018060a01b03604083015116925060001461073a57602001516001600160a01b031690612114565b516001600160a01b031690612114565b634e487b7160e01b8c52601160045260248cfd5b9096506020813d60201161078e575b8161077a60209383611141565b8101031261078a575195386106b4565b8880fd5b3d915061076d565b6040513d8b823e3d90fd5b60405162461bcd60e51b815260206004820152602160248201527f416c726561647920736574746c6564206f72206e6f7420736574746c6561626c6044820152606560f81b6064820152608490fd5b634e487b7160e01b89526021600452602489fd5b50346100f9576102203660031901126100f95761081f611073565b906108286110a0565b90606435906001600160401b0382116100f9576020610870858561084f366004880161117d565b610858366111da565b90610861611089565b92610204359460243590611942565b604051908152f35b50346100f95760403660031901126100f9576004356001600160401b0381116108f0576108a990369060040161117d565b602435906001600160a01b03821682036108eb576108e7916108d3916108cd6124a9565b906124d0565b60405191829160208352602083019061139b565b0390f35b600080fd5b5080fd5b50346100f9576101203660031901126100f95761090f6110b3565b6044356001600160401b0381116103fb5761092e90369060040161117d565b906109376111c4565b9160e435916001600160a01b03831683036108eb576109546118ed565b6000805460ff60a01b1916905561096f8282600435336120c2565b92838652600160205261098660408720541561143b565b6001600160a01b03811615610ca15760249060206001600160a01b036109aa612453565b16604051938480926390978d1b60e01b825260043560048301525afa918215610c96576024926109e09189916103dc575061149f565b60206001600160a01b036109f26123b5565b604051631d1d5b3960e11b81526001600160a01b038a16600482015294859290918391165afa918215610c9657602492610a329189916103ad57506114e4565b610a4b610a3d6113c0565b63ffffffff85161115611527565b610a6361200061024233610a5d6124a9565b886124d0565b60206001600160a01b03610a7561240b565b604051635b97aadd60e01b81526001600160a01b038a16600482015294859290918391165afa8015610c9657610b4b928891610c77575b505190610ab76115d3565b9560018060a01b0388166040880152610b3b87608435928360e0830152610b318c61010084019780895260a43590811515600014610c6f5750965b610120850197885260c43561014086018190526001600160a01b039091168552610104356080860152610b236113c0565b91508015610c6557906118ca565b60c083015261220c565b80610c53575b50519051906118ca565b938480610c3f575b5050604051600435907f6f8b57987b901f40681c863d8aed32c2cc6150062aa4ddb828c89aaa896c1668339180610b8c888888846116a0565b0390a3604051600435907fdb27b6b59f934dc351fe9188a12f94a06c3c867c683c6e65c7e2b4c8aa6e9a04339180610bc6888888846116a0565b0390a3333b610bee575b6000805460ff60a01b1916600160a01b179055604051848152602090f35b908491333b156103fb57610c196040519485938493631c93c60560e21b855260043560048601611bc6565b038183335af1610c2b575b8080610bd0565b610c3583916110c6565b6108f05781610c24565b610c4c91309033906116d0565b3884610b53565b610c5f9030338a6116d0565b38610b41565b50600354906118ca565b905096610af2565b610c90915060203d60201161039b5761038d8183611141565b38610aac565b6040513d89823e3d90fd5b60405162461bcd60e51b815260206004820152601e60248201527f70726f706f7365722061646472657373206d757374206265206e6f6e203000006044820152606490fd5b50346100f957610d3290610cf936611282565b92610d089694969291926118ed565b6000805460ff60a01b19169081905596610d2d85610d28868686866120c2565b61214d565b612227565b9160078310159182610d7f5760068414928315610d93575b8315610d68575b600160a01b83176000556040518415158152602090f35b90919250610d7f5750600360209214903880610d51565b634e487b7160e01b81526021600452602490fd5b506005841492506000610d4a565b50346100f95760203660031901126100f95760406020916004358152600183522054604051908152f35b50346100f9576102003660031901126100f957610de66110b3565b90604435906001600160401b0382116100f95750610e0890369060040161117d565b6101603660631901126108eb5760405191610e22836110ef565b6001600160a01b0360643581811681036108eb57845260843581811681036108eb57602085015260a43581811681036108eb57604085015260c43580151581036108eb57606085015260e43560808501526101043560a08501526101243560c08501526101443560e085015261016435610100850152610184356101208501526101a4356101408501526101c43590811681036108eb5760209361087093610ec8611089565b93600435611bf2565b50346100f9576102003660031901126100f957610eec611073565b610ef46110a0565b91606435906001600160401b0382116100f95760206108708585610f1b366004880161117d565b610f24366111da565b906101e43593339360243590611942565b50346100f957610f6b610f4736611282565b92610f569594959291926118ed565b6000805460ff60a01b19169081905595612227565b600160a01b909117600055604051906007811015610f8b57602092508152f35b634e487b7160e01b83526021600452602483fd5b50346100f9576020610870610fb336611282565b913393611bf2565b50346100f957806003193601126100f95760206108706113c0565b50346100f95760203660031901126100f957805481906001600160a01b0316801561104c57803b1561104c57819060246040518094819363117c72b360e11b835260043560048401525af1801561104157611032575b50604051f35b61103b906110c6565b3861102c565b6040513d84823e3d90fd5b50fd5b9050346108f057816003193601126108f05790546001600160a01b03168152602090f35b600435906001600160a01b03821682036108eb57565b6101e435906001600160a01b03821682036108eb57565b6044359063ffffffff821682036108eb57565b6024359063ffffffff821682036108eb57565b6001600160401b0381116110d957604052565b634e487b7160e01b600052604160045260246000fd5b61016081019081106001600160401b038211176110d957604052565b602081019081106001600160401b038211176110d957604052565b604081019081106001600160401b038211176110d957604052565b90601f801991011681019081106001600160401b038211176110d957604052565b6001600160401b0381116110d957601f01601f191660200190565b81601f820112156108eb5780359061119482611162565b926111a26040519485611141565b828452602083830101116108eb57816000926020809301838601378301015290565b606435906001600160a01b03821682036108eb57565b6101609060831901126108eb57604051906111f4826110ef565b816001600160a01b0360843581811681036108eb57825260a43581811681036108eb57602083015260c43590811681036108eb57604082015260e43580151581036108eb5760608201526101043560808201526101243560a08201526101443560c08201526101643560e0820152610184356101008201526101a4356101208201526101406101c435910152565b906101e06003198301126108eb576001600160a01b0360043581811681036108eb57926024359260443563ffffffff811681036108eb57926064356001600160401b0381116108eb576112db846101609260040161117d565b9360831901126108eb57604051906112f2826110ef565b60843581811681036108eb57825260a43581811681036108eb57602083015260c43590811681036108eb57604082015260e43580151581036108eb5760608201526101043560808201526101243560a08201526101443560c08201526101643560e0820152610184356101008201526101a4356101208201526101c43561014082015290565b60005b83811061138b5750506000910152565b818101518382015260200161137b565b906020916113b481518092818552858086019101611378565b601f01601f1916010190565b6000546001600160a01b03168015611436576020600491604051928380926329cb924d60e01b82525afa90811561142a576000916113fc575090565b906020823d8211611422575b8161141560209383611141565b810103126100f957505190565b3d9150611408565b6040513d6000823e3d90fd5b504290565b1561144257565b60405162461bcd60e51b815260206004820152601b60248201527f5265717565737420616c726561647920696e697469616c697a656400000000006044820152606490fd5b908160209103126108eb575180151581036108eb5790565b156114a657565b60405162461bcd60e51b81526020600482015260166024820152752ab739bab83837b93a32b21034b232b73a34b334b2b960511b6044820152606490fd5b156114eb57565b60405162461bcd60e51b8152602060048201526014602482015273556e737570706f727465642063757272656e637960601b6044820152606490fd5b1561152e57565b60405162461bcd60e51b815260206004820152601360248201527254696d657374616d7020696e2066757475726560681b6044820152606490fd5b1561157057565b60405162461bcd60e51b815260206004820152601760248201527f416e63696c6c617279204461746120746f6f206c6f6e670000000000000000006044820152606490fd5b908160209103126108eb57604051906115cd8261110b565b51815290565b604051906115e0826110ef565b816101406000918281528260208201528260408201528260608201528260808201528260a08201528260c08201528260e082015282610100820152826101208201520152565b60018060a01b0380825116835280602083015116602084015260408201511660408301526060810151151560608301526080810151608083015260a081015160a083015260c081015160c083015260e081015160e08301526101008082015190830152610120808201519083015261014080910151910152565b9392906116c66116ce9363ffffffff6040931687526101a080602089015287019061139b565b940190611626565b565b6040516323b872dd60e01b60208201526001600160a01b03928316602482015292909116604483015260648083019390935291815260a08101918183106001600160401b038411176110d9576116ce926040525b6040516117a1916001600160a01b031661173d82611126565b6000806020958685527f5361666545524332303a206c6f772d6c6576656c2063616c6c206661696c656487860152868151910182855af13d15611829573d9161178583611162565b926117936040519485611141565b83523d60008785013e61182d565b805190828215928315611811575b505050156117ba5750565b6084906040519062461bcd60e51b82526004820152602a60248201527f5361666545524332303a204552433230206f7065726174696f6e20646964206e6044820152691bdd081cdd58d8d9595960b21b6064820152fd5b6118219350820181019101611487565b3882816117af565b6060915b9192901561188f5750815115611841575090565b3b1561184a5790565b60405162461bcd60e51b815260206004820152601d60248201527f416464726573733a2063616c6c20746f206e6f6e2d636f6e74726163740000006044820152606490fd5b8251909150156118a25750805190602001fd5b60405162461bcd60e51b8152602060048201529081906118c690602483019061139b565b0390fd5b919082018092116118d757565b634e487b7160e01b600052601160045260246000fd5b60ff60005460a01c16156118fd57565b60405162461bcd60e51b815260206004820152601f60248201527f5265656e7472616e637947756172643a207265656e7472616e742063616c6c006044820152606490fd5b919296959660a0526119526118ed565b6000805460ff60a01b1990811682559790956001600160a01b03908116918215611b81576119858760a051888789612227565b60078110156107f057600103611b48576119a360a0518786886120c2565b966119ae818961214d565b826020820151166080526040810197838951168a606084015115159360a08101516119f06119da6113c0565b610140840180519095508015610c6557906118ca565b60e083015191610100840198895194610120019889519651976040519d60c09e8f90808252611a1e906110ef565b51528d6080519051602001528d51604001528c51606001528b51608001528a5160a001528980510152885160e001528751610100015286516101200152855161014001528451611a6d9161220c565b519051611a79916118ca565b95868281611b31575b50505083169282847fdb27b6b59f934dc351fe9188a12f94a06c3c867c683c6e65c7e2b4c8aa6e9a0460405180611abe875160a0518c846116a0565b0390a33b611ada575b5050505092600160a01b90825416179055565b823b15611b2d5791611b0d939186809460405196879586948593631c93c60560e21b8552519160a0519160048601611bc6565b03925af1611b1e575b808080611ac7565b611b27906110c6565b38611b16565b8580fd5b611b40925116309033906116d0565b388682611a82565b60405162461bcd60e51b8152602060048201526011602482015270135d5cdd081899481c995c5d595cdd1959607a1b6044820152606490fd5b60405162461bcd60e51b815260206004820152601e60248201527f50726f706f7365722061646472657373206d757374206265206e6f6e203000006044820152606490fd5b9493916116ce9363ffffffff6116c69260609489521660208801526101c080604089015287019061139b565b919594909295600093611c036118ed565b845460ff60a01b199081168655976001600160a01b0387161561205857611c2d8184848888612227565b60078110156120445760020361200c57611c49838387876120c2565b611c53828261214d565b600160a01b60019003825116600160a01b6001900360408401511660608401511515608085015160a086015160c08701519160e088015193610100890151956101208a01519f6101408b0151986040518060c052611cb0906110ef565b60c05152600160a01b600190031660c0516020015260c0516040015260c0516060015260c0516080015260c05160a0015260c05160c0015260c05160e0015260c051610100015260c0516101200198895260c051610140015260c051611d159161220c565b610120810151610100820151611d2a916118ca565b9687611fea575b611d4c611d3c61240b565b915160011c6101008401516118ca565b9081611e87575b506001600160a01b039150611d689050612340565b16611d7b84611d756124a9565b856124d0565b813b15611e8357611da78792839260405194858094819363085999a960e21b8352898d6004850161209d565b03925af180156103a257908691611e6f575b505060018060a01b0383169284847f2d2ed23d7d2e875b405c36213cc1668e3adf8b4d845653bd9f977c313d599ffe60405180611dfa60c0518989846116a0565b0390a33b611e19575b505050505091600160a01b906000541617600055565b823b156106505791611e4a9391858094604051968795869485936308dd6a0560e11b855260c0519260048601611bc6565b03925af1611e5b575b808080611e03565b611e6582916110c6565b6100f95780611e53565b611e78906110c6565b610650578438611db9565b8680fd5b6040838101519051636eb1769f60e11b81523060048201526001600160a01b03928316602482018190529290911690602081604481855afa908115611fdf579084918b91611fa4575b50611ee3611f21949392611f1c926118ca565b60405163095ea7b360e01b60208201526001600160a01b039094166024850152604484015282606481015b03601f198101845283611141565b611724565b6001600160a01b03611f3161240b565b1691604060018060a01b039101511660405191611f4d8361110b565b8252823b15611fa057906044889283604051958694859363432ce91960e11b855260048501525160248401525af180156103a257611f8d575b8080611d53565b611f99909591956110c6565b9338611f86565b8780fd5b9150506020813d602011611fd7575b81611fc060209383611141565b81010312611fd357518390611ee3611ed0565b8980fd5b3d9150611fb3565b6040513d8c823e3d90fd5b6040820151612007908990309033906001600160a01b03166116d0565b611d31565b60405162461bcd60e51b815260206004820152601060248201526f135d5cdd081899481c1c9bdc1bdcd95960821b6044820152606490fd5b634e487b7160e01b87526021600452602487fd5b60405162461bcd60e51b815260206004820152601e60248201527f64697370757465722061646472657373206d757374206265206e6f6e203000006044820152606490fd5b63ffffffff6120bf94936060938352166020820152816040820152019061139b565b90565b929061210061210e9263ffffffff604051958694602086019860018060a01b03168952604086015216606084015260808084015260a083019061139b565b03601f198101835282611141565b51902090565b60405163a9059cbb60e01b60208201526001600160a01b03909216602483015260448201929092526116ce91611f1c8260648101611f0e565b6000526001602052612164604060002054916121d6565b0361216b57565b60405162461bcd60e51b815260206004820152603860248201527f486173686564207265717565737420706172616d7320646f206e6f74206d617460448201527f6368206578697374696e672072657175657374206861736800000000000000006064820152608490fd5b6040516121e7602082018093611626565b610160815261018081018181106001600160401b038211176110d95760405251902090565b90612216906121d6565b906000526001602052604060002055565b6040850151919490916001600160a01b03919082161561231657818151161561230b5760608101516123005781602082015116156122de57509161227f6020949261229d9694612275612340565b16936108cd6124a9565b604051630b551cd560e41b815295869485938493916004850161209d565b03915afa90811561142a576000916122c0575b50156122bb57600590565b600490565b6122d8915060203d81116103d5576103c78183611141565b386122b0565b935050505060c0915001516122f16113c0565b106122fb57600390565b600290565b505050505050600690565b505050505050600190565b505050505050600090565b908160209103126108eb57516001600160a01b03811681036108eb5790565b6002546040516302abf57960e61b8152654f7261636c6560d01b60048201526001600160a01b03916020908290602490829086165afa90811561142a5760009161238957501690565b6123aa915060203d81116123ae575b6123a28183611141565b810190612321565b1690565b503d612398565b6002546040516302abf57960e61b81527210dbdb1b185d195c985b15da1a5d195b1a5cdd606a1b60048201526001600160a01b03916020908290602490829086165afa90811561142a5760009161238957501690565b6002546040516302abf57960e61b81526453746f726560d81b60048201526001600160a01b03916020908290602490829086165afa90811561142a5760009161238957501690565b6002546040516302abf57960e61b8152721259195b9d1a599a595c95da1a5d195b1a5cdd606a1b60048201526001600160a01b03916020908290602490829086165afa90811561142a5760009161238957501690565b604051906124b682611126565b600b82526a37b7a932b8bab2b9ba32b960a91b6020830152565b906124db90826126a4565b906124fa6fffffffffffffffffffffffffffffffff8460201c1661259d565b926001600160c01b0319906125209060601b6bffffffffffffffffffffffff191661259d565b16604051906020820194855260408201526028815260608101938185106001600160401b038611176110d9576120bf936020938660405261256a8151809287608088019101611378565b830161257f8251809387608085019101611378565b01612591835180936080840190611378565b01038084520182611141565b7f3030303030303030303030303030303030303030303030303030303030303030906001600160401b038060801b8260401b169116178060201b1779ffff000000000000ffff000000000000ffff000000000000ffff7dffff000000000000ffff000000000000ffff000000000000ffff000000008260101b169116178060081b177e0f000f000f000f000f000f000f000f000f000f000f000f000f000f000f000f7f0f000f000f000f000f000f000f000f000f000f000f000f000f000f000f000f008260041b1691161760277f0101010101010101010101010101010101010101010101010101010101010101808360011c16818460021c16178360031c161602010190565b51156126ec576120bf60226040518093600b60fa1b60208301526126d2815180926020602186019101611378565b8101601d60f91b6021820152036002810184520182611141565b6120bf602160405183612709829551809260208086019101611378565b8101601d60f91b602082015203600181018452018261114156fea264697066735822122029ee9719a7f03760a4e2759b5a3d6fc31f811344b72b0d906bba32e989ee4d0164736f6c63430008100033",
  "devdoc": {
    "kind": "dev",
    "methods": {
      "constructor": {
        "params": {
          "_finderAddress": "finder to use to get addresses of DVM contracts.",
          "_liveness": "default liveness applied to each price request.",
          "_timerAddress": "address of the timer contract. Should be 0x0 in prod."
        }
      },
      "disputePrice(address,bytes32,uint32,bytes,(address,address,address,bool,int256,int256,uint256,uint256,uint256,uint256,uint256))": {
        "params": {
          "ancillaryData": "ancillary data of the price being requested.",
          "identifier": "price identifier to identify the existing request.",
          "request": "price request parameters whose hash must match the request that the caller wants to             dispute.",
          "requester": "sender of the initial price request.",
          "timestamp": "timestamp to identify the existing request."
        },
        "returns": {
          "totalBond": "the amount that's pulled from the caller's wallet as a bond. The bond will be returned to the disputer once settled if the dispute was valid (the proposal was incorrect)."
        }
      },
      "disputePriceFor(bytes32,uint32,bytes,(address,address,address,bool,int256,int256,uint256,uint256,uint256,uint256,uint256),address,address)": {
        "params": {
          "ancillaryData": "ancillary data of the price being requested.",
          "disputer": "address to set as the disputer.",
          "identifier": "price identifier to identify the existing request.",
          "request": "price request parameters whose hash must match the request that the caller wants to              dispute.",
          "requester": "sender of the initial price request.",
          "timestamp": "timestamp to identify the existing request."
        },
        "returns": {
          "totalBond": "the amount that's pulled from the caller's wallet as a bond. The bond will be returned to the disputer once settled if the dispute was valid (the proposal was incorrect)."
        }
      },
      "getCurrentTime()": {
        "returns": {
          "_0": "uint for the current Testable timestamp."
        }
      },
      "getState(address,bytes32,uint32,bytes,(address,address,address,bool,int256,int256,uint256,uint256,uint256,uint256,uint256))": {
        "params": {
          "ancillaryData": "ancillary data of the price being requested.",
          "identifier": "price identifier to identify the existing request.",
          "request": "price request parameters.",
          "requester": "sender of the initial price request.",
          "timestamp": "timestamp to identify the existing request."
        },
        "returns": {
          "_0": "the State."
        }
      },
      "hasPrice(address,bytes32,uint32,bytes,(address,address,address,bool,int256,int256,uint256,uint256,uint256,uint256,uint256))": {
        "params": {
          "ancillaryData": "ancillary data of the price being requested.",
          "identifier": "price identifier to identify the existing request.",
          "request": "price request parameters. The hash of these parameters must match with the request hash that is associated with the price request unique ID {requester, identifier, timestamp, ancillaryData}, or this method will revert.",
          "requester": "sender of the initial price request.",
          "timestamp": "timestamp to identify the existing request."
        },
        "returns": {
          "_0": "boolean indicating true if price exists and false if not."
        }
      },
      "proposePrice(address,bytes32,uint32,bytes,(address,address,address,bool,int256,int256,uint256,uint256,uint256,uint256,uint256),int256)": {
        "params": {
          "ancillaryData": "ancillary data of the price being requested.",
          "identifier": "price identifier to identify the existing request.",
          "proposedPrice": "price being proposed.",
          "request": "price request parameters whose hash must match the request that the caller wants to propose a price for.",
          "requester": "sender of the initial price request.",
          "timestamp": "timestamp to identify the existing request."
        },
        "returns": {
          "totalBond": "the amount that's pulled from the caller's wallet as a bond. The bond will be returned to the proposer once settled if the proposal is correct."
        }
      },
      "proposePriceFor(address,bytes32,uint32,bytes,(address,address,address,bool,int256,int256,uint256,uint256,uint256,uint256,uint256),address,int256)": {
        "params": {
          "ancillaryData": "ancillary data of the price being requested.",
          "identifier": "price identifier to identify the existing request.",
          "proposedPrice": "price being proposed.",
          "proposer": "address to set as the proposer.",
          "request": "price request parameters whose hash must match the request that the caller wants to propose a price for.",
          "requester": "sender of the initial price request.",
          "timestamp": "timestamp to identify the existing request."
        },
        "returns": {
          "totalBond": "the amount that's pulled from the caller's wallet as a bond. The bond will be returned to the proposer once settled if the proposal is correct."
        }
      },
      "requestAndProposePriceFor(bytes32,uint32,bytes,address,uint256,uint256,uint256,address,int256)": {
        "details": "The caller is the requester, but the proposer can be customized.",
        "params": {
          "ancillaryData": "ancillary data of the price being requested.",
          "bond": "custom proposal bond to set for request. If set to 0, defaults to the final fee.",
          "currency": "ERC20 token used for payment of rewards and fees. Must be approved for use with the DVM.",
          "customLiveness": "custom proposal liveness to set for request.",
          "identifier": "price identifier to identify the existing request.",
          "proposedPrice": "price being proposed.",
          "proposer": "address to set as the proposer.",
          "reward": "reward offered to a successful proposer. Will be pulled from the caller. Note: this can be 0,               which could make sense if the contract requests and proposes the value in the same call or               provides its own reward system.",
          "timestamp": "timestamp to identify the existing request."
        },
        "returns": {
          "totalBond": "the amount that's pulled from the caller's wallet as a bond. The bond will be returned to the proposer once settled if the proposal is correct."
        }
      },
      "requestPrice(bytes32,uint32,bytes,address,uint256,uint256,uint256)": {
        "params": {
          "ancillaryData": "ancillary data representing additional args being passed with the price request.",
          "bond": "custom proposal bond to set for request. If set to 0, defaults to the final fee.",
          "currency": "ERC20 token used for payment of rewards and fees. Must be approved for use with the DVM.",
          "customLiveness": "custom proposal liveness to set for request.",
          "identifier": "price identifier being requested.",
          "reward": "reward offered to a successful proposer. Will be pulled from the caller. Note: this can be 0,               which could make sense if the contract requests and proposes the value in the same call or               provides its own reward system.",
          "timestamp": "timestamp of the price being requested."
        },
        "returns": {
          "totalBond": "default bond + final fee that the proposer and disputer will be required to pay."
        }
      },
      "setCurrentTime(uint256)": {
        "details": "Will revert if not running in test mode.",
        "params": {
          "time": "timestamp to set current Testable time to."
        }
      },
      "settle(address,bytes32,uint32,bytes,(address,address,address,bool,int256,int256,uint256,uint256,uint256,uint256,uint256))": {
        "params": {
          "ancillaryData": "ancillary data of the price being requested.",
          "identifier": "price identifier to identify the existing request.",
          "request": "price request parameters whose hash must match the request that the caller wants to              settle.",
          "requester": "sender of the initial price request.",
          "timestamp": "timestamp to identify the existing request."
        },
        "returns": {
          "payout": "the amount that the \"winner\" (proposer or disputer) receives on settlement. This amount includes the returned bonds as well as additional rewards.",
          "resolvedPrice": "the price that the request settled to."
        }
      },
      "stampAncillaryData(bytes,address)": {
        "params": {
          "ancillaryData": "ancillary data of the price being requested.",
          "requester": "sender of the initial price request."
        },
        "returns": {
          "_0": "the stamped ancillary bytes."
        }
      }
    },
    "title": "Optimistic Oracle with a different interface and fewer features that emphasizes gas cost reductions.",
    "version": 1
  },
  "userdoc": {
    "kind": "user",
    "methods": {
      "constructor": {
        "notice": "Constructor."
      },
      "disputePrice(address,bytes32,uint32,bytes,(address,address,address,bool,int256,int256,uint256,uint256,uint256,uint256,uint256))": {
        "notice": "Disputes a price request with an active proposal where caller is the disputer."
      },
      "disputePriceFor(bytes32,uint32,bytes,(address,address,address,bool,int256,int256,uint256,uint256,uint256,uint256,uint256),address,address)": {
        "notice": "Disputes a price request with an active proposal on another address' behalf. Note: this address will receive any rewards that come from this dispute. However, any bonds are pulled from the caller."
      },
      "getCurrentTime()": {
        "notice": "Gets the current time. Will return the last time set in `setCurrentTime` if running in test mode. Otherwise, it will return the block timestamp."
      },
      "getState(address,bytes32,uint32,bytes,(address,address,address,bool,int256,int256,uint256,uint256,uint256,uint256,uint256))": {
        "notice": "Computes the current state of a price request. See the State enum for more details."
      },
      "hasPrice(address,bytes32,uint32,bytes,(address,address,address,bool,int256,int256,uint256,uint256,uint256,uint256,uint256))": {
        "notice": "Checks if a given request has resolved, expired or been settled (i.e the optimistic oracle has a price)."
      },
      "proposePrice(address,bytes32,uint32,bytes,(address,address,address,bool,int256,int256,uint256,uint256,uint256,uint256,uint256),int256)": {
        "notice": "Proposes a price value where caller is the proposer."
      },
      "proposePriceFor(address,bytes32,uint32,bytes,(address,address,address,bool,int256,int256,uint256,uint256,uint256,uint256,uint256),address,int256)": {
        "notice": "Proposes a price value on another address' behalf. Note: this address will receive any rewards that come from this proposal. However, any bonds are pulled from the caller."
      },
      "requestAndProposePriceFor(bytes32,uint32,bytes,address,uint256,uint256,uint256,address,int256)": {
        "notice": "Combines logic of requestPrice and proposePrice while taking advantage of gas savings from not having to overwrite Request params that a normal requestPrice() => proposePrice() flow would entail. Note: The proposer will receive any rewards that come from this proposal. However, any bonds are pulled from the caller."
      },
      "requestPrice(bytes32,uint32,bytes,address,uint256,uint256,uint256)": {
        "notice": "Requests a new price."
      },
      "setCurrentTime(uint256)": {
        "notice": "Sets the current time."
      },
      "settle(address,bytes32,uint32,bytes,(address,address,address,bool,int256,int256,uint256,uint256,uint256,uint256,uint256))": {
        "notice": "Attempts to settle an outstanding price request. Will revert if it isn't settleable."
      },
      "stampAncillaryData(bytes,address)": {
        "notice": "Generates stamped ancillary data in the format that it would be used in the case of a price dispute."
      }
    },
    "notice": "Pre-DVM escalation contract that allows faster settlement.",
    "version": 1
  },
  "storageLayout": {
    "storage": [
      {
        "astId": 17751,
        "contract": "contracts/optimistic-oracle-v2/previous-versions/SkinnyOptimisticOracle.sol:SkinnyOptimisticOracle",
        "label": "timerAddress",
        "offset": 0,
        "slot": "0",
        "type": "t_address"
      },
      {
        "astId": 16304,
        "contract": "contracts/optimistic-oracle-v2/previous-versions/SkinnyOptimisticOracle.sol:SkinnyOptimisticOracle",
        "label": "_notEntered",
        "offset": 20,
        "slot": "0",
        "type": "t_bool"
      },
      {
        "astId": 65075,
        "contract": "contracts/optimistic-oracle-v2/previous-versions/SkinnyOptimisticOracle.sol:SkinnyOptimisticOracle",
        "label": "requests",
        "offset": 0,
        "slot": "1",
        "type": "t_mapping(t_bytes32,t_bytes32)"
      },
      {
        "astId": 65078,
        "contract": "contracts/optimistic-oracle-v2/previous-versions/SkinnyOptimisticOracle.sol:SkinnyOptimisticOracle",
        "label": "finder",
        "offset": 0,
        "slot": "2",
        "type": "t_contract(FinderInterface)36753"
      },
      {
        "astId": 65080,
        "contract": "contracts/optimistic-oracle-v2/previous-versions/SkinnyOptimisticOracle.sol:SkinnyOptimisticOracle",
        "label": "defaultLiveness",
        "offset": 0,
        "slot": "3",
        "type": "t_uint256"
      }
    ],
    "types": {
      "t_address": {
        "encoding": "inplace",
        "label": "address",
        "numberOfBytes": "20"
      },
      "t_bool": {
        "encoding": "inplace",
        "label": "bool",
        "numberOfBytes": "1"
      },
      "t_bytes32": {
        "encoding": "inplace",
        "label": "bytes32",
        "numberOfBytes": "32"
      },
      "t_contract(FinderInterface)36753": {
        "encoding": "inplace",
        "label": "contract FinderInterface",
        "numberOfBytes": "20"
      },
      "t_mapping(t_bytes32,t_bytes32)": {
        "encoding": "mapping",
        "key": "t_bytes32",
        "label": "mapping(bytes32 => bytes32)",
        "numberOfBytes": "32",
        "value": "t_bytes32"
      },
      "t_uint256": {
        "encoding": "inplace",
        "label": "uint256",
        "numberOfBytes": "32"
      }
    }
  }
}