{
  "address": "0x0894A36fde2B7C0b840d5282bBB566635dd79e8c",
  "abi": [
    {
      "inputs": [
        {
          "internalType": "uint256",
          "name": "_liveness",
          "type": "uint256"
        },
        {
          "internalType": "address",
          "name": "_finderAddress",
          "type": "address"
        },
        {
          "internalType": "address",
          "name": "_timerAddress",
          "type": "address"
        }
      ],
      "stateMutability": "nonpayable",
      "type": "constructor"
    },
    {
      "anonymous": false,
      "inputs": [
        {
          "indexed": true,
          "internalType": "address",
          "name": "requester",
          "type": "address"
        },
        {
          "indexed": true,
          "internalType": "bytes32",
          "name": "identifier",
          "type": "bytes32"
        },
        {
          "indexed": false,
          "internalType": "uint32",
          "name": "timestamp",
          "type": "uint32"
        },
        {
          "indexed": false,
          "internalType": "bytes",
          "name": "ancillaryData",
          "type": "bytes"
        },
        {
          "components": [
            {
              "internalType": "address",
              "name": "proposer",
              "type": "address"
            },
            {
              "internalType": "address",
              "name": "disputer",
              "type": "address"
            },
            {
              "internalType": "contract IERC20",
              "name": "currency",
              "type": "address"
            },
            {
              "internalType": "bool",
              "name": "settled",
              "type": "bool"
            },
            {
              "components": [
                {
                  "internalType": "bool",
                  "name": "callbackOnPriceProposed",
                  "type": "bool"
                },
                {
                  "internalType": "bool",
                  "name": "callbackOnPriceDisputed",
                  "type": "bool"
                },
                {
                  "internalType": "bool",
                  "name": "callbackOnPriceSettled",
                  "type": "bool"
                },
                {
                  "internalType": "uint256",
                  "name": "bond",
                  "type": "uint256"
                },
                {
                  "internalType": "uint256",
                  "name": "customLiveness",
                  "type": "uint256"
                }
              ],
              "internalType": "struct SkinnyOptimisticOracleV2Interface.RequestSettings",
              "name": "requestSettings",
              "type": "tuple"
            },
            {
              "internalType": "int256",
              "name": "proposedPrice",
              "type": "int256"
            },
            {
              "internalType": "int256",
              "name": "resolvedPrice",
              "type": "int256"
            },
            {
              "internalType": "uint256",
              "name": "expirationTime",
              "type": "uint256"
            },
            {
              "internalType": "uint256",
              "name": "reward",
              "type": "uint256"
            },
            {
              "internalType": "uint256",
              "name": "finalFee",
              "type": "uint256"
            }
          ],
          "indexed": false,
          "internalType": "struct SkinnyOptimisticOracleV2Interface.Request",
          "name": "request",
          "type": "tuple"
        }
      ],
      "name": "DisputePrice",
      "type": "event"
    },
    {
      "anonymous": false,
      "inputs": [
        {
          "indexed": true,
          "internalType": "address",
          "name": "requester",
          "type": "address"
        },
        {
          "indexed": true,
          "internalType": "bytes32",
          "name": "identifier",
          "type": "bytes32"
        },
        {
          "indexed": false,
          "internalType": "uint32",
          "name": "timestamp",
          "type": "uint32"
        },
        {
          "indexed": false,
          "internalType": "bytes",
          "name": "ancillaryData",
          "type": "bytes"
        },
        {
          "components": [
            {
              "internalType": "address",
              "name": "proposer",
              "type": "address"
            },
            {
              "internalType": "address",
              "name": "disputer",
              "type": "address"
            },
            {
              "internalType": "contract IERC20",
              "name": "currency",
              "type": "address"
            },
            {
              "internalType": "bool",
              "name": "settled",
              "type": "bool"
            },
            {
              "components": [
                {
                  "internalType": "bool",
                  "name": "callbackOnPriceProposed",
                  "type": "bool"
                },
                {
                  "internalType": "bool",
                  "name": "callbackOnPriceDisputed",
                  "type": "bool"
                },
                {
                  "internalType": "bool",
                  "name": "callbackOnPriceSettled",
                  "type": "bool"
                },
                {
                  "internalType": "uint256",
                  "name": "bond",
                  "type": "uint256"
                },
                {
                  "internalType": "uint256",
                  "name": "customLiveness",
                  "type": "uint256"
                }
              ],
              "internalType": "struct SkinnyOptimisticOracleV2Interface.RequestSettings",
              "name": "requestSettings",
              "type": "tuple"
            },
            {
              "internalType": "int256",
              "name": "proposedPrice",
              "type": "int256"
            },
            {
              "internalType": "int256",
              "name": "resolvedPrice",
              "type": "int256"
            },
            {
              "internalType": "uint256",
              "name": "expirationTime",
              "type": "uint256"
            },
            {
              "internalType": "uint256",
              "name": "reward",
              "type": "uint256"
            },
            {
              "internalType": "uint256",
              "name": "finalFee",
              "type": "uint256"
            }
          ],
          "indexed": false,
          "internalType": "struct SkinnyOptimisticOracleV2Interface.Request",
          "name": "request",
          "type": "tuple"
        }
      ],
      "name": "ProposePrice",
      "type": "event"
    },
    {
      "anonymous": false,
      "inputs": [
        {
          "indexed": true,
          "internalType": "address",
          "name": "requester",
          "type": "address"
        },
        {
          "indexed": true,
          "internalType": "bytes32",
          "name": "identifier",
          "type": "bytes32"
        },
        {
          "indexed": false,
          "internalType": "uint32",
          "name": "timestamp",
          "type": "uint32"
        },
        {
          "indexed": false,
          "internalType": "bytes",
          "name": "ancillaryData",
          "type": "bytes"
        },
        {
          "components": [
            {
              "internalType": "address",
              "name": "proposer",
              "type": "address"
            },
            {
              "internalType": "address",
              "name": "disputer",
              "type": "address"
            },
            {
              "internalType": "contract IERC20",
              "name": "currency",
              "type": "address"
            },
            {
              "internalType": "bool",
              "name": "settled",
              "type": "bool"
            },
            {
              "components": [
                {
                  "internalType": "bool",
                  "name": "callbackOnPriceProposed",
                  "type": "bool"
                },
                {
                  "internalType": "bool",
                  "name": "callbackOnPriceDisputed",
                  "type": "bool"
                },
                {
                  "internalType": "bool",
                  "name": "callbackOnPriceSettled",
                  "type": "bool"
                },
                {
                  "internalType": "uint256",
                  "name": "bond",
                  "type": "uint256"
                },
                {
                  "internalType": "uint256",
                  "name": "customLiveness",
                  "type": "uint256"
                }
              ],
              "internalType": "struct SkinnyOptimisticOracleV2Interface.RequestSettings",
              "name": "requestSettings",
              "type": "tuple"
            },
            {
              "internalType": "int256",
              "name": "proposedPrice",
              "type": "int256"
            },
            {
              "internalType": "int256",
              "name": "resolvedPrice",
              "type": "int256"
            },
            {
              "internalType": "uint256",
              "name": "expirationTime",
              "type": "uint256"
            },
            {
              "internalType": "uint256",
              "name": "reward",
              "type": "uint256"
            },
            {
              "internalType": "uint256",
              "name": "finalFee",
              "type": "uint256"
            }
          ],
          "indexed": false,
          "internalType": "struct SkinnyOptimisticOracleV2Interface.Request",
          "name": "request",
          "type": "tuple"
        }
      ],
      "name": "RequestPrice",
      "type": "event"
    },
    {
      "anonymous": false,
      "inputs": [
        {
          "indexed": true,
          "internalType": "address",
          "name": "requester",
          "type": "address"
        },
        {
          "indexed": true,
          "internalType": "bytes32",
          "name": "identifier",
          "type": "bytes32"
        },
        {
          "indexed": false,
          "internalType": "uint32",
          "name": "timestamp",
          "type": "uint32"
        },
        {
          "indexed": false,
          "internalType": "bytes",
          "name": "ancillaryData",
          "type": "bytes"
        },
        {
          "components": [
            {
              "internalType": "address",
              "name": "proposer",
              "type": "address"
            },
            {
              "internalType": "address",
              "name": "disputer",
              "type": "address"
            },
            {
              "internalType": "contract IERC20",
              "name": "currency",
              "type": "address"
            },
            {
              "internalType": "bool",
              "name": "settled",
              "type": "bool"
            },
            {
              "components": [
                {
                  "internalType": "bool",
                  "name": "callbackOnPriceProposed",
                  "type": "bool"
                },
                {
                  "internalType": "bool",
                  "name": "callbackOnPriceDisputed",
                  "type": "bool"
                },
                {
                  "internalType": "bool",
                  "name": "callbackOnPriceSettled",
                  "type": "bool"
                },
                {
                  "internalType": "uint256",
                  "name": "bond",
                  "type": "uint256"
                },
                {
                  "internalType": "uint256",
                  "name": "customLiveness",
                  "type": "uint256"
                }
              ],
              "internalType": "struct SkinnyOptimisticOracleV2Interface.RequestSettings",
              "name": "requestSettings",
              "type": "tuple"
            },
            {
              "internalType": "int256",
              "name": "proposedPrice",
              "type": "int256"
            },
            {
              "internalType": "int256",
              "name": "resolvedPrice",
              "type": "int256"
            },
            {
              "internalType": "uint256",
              "name": "expirationTime",
              "type": "uint256"
            },
            {
              "internalType": "uint256",
              "name": "reward",
              "type": "uint256"
            },
            {
              "internalType": "uint256",
              "name": "finalFee",
              "type": "uint256"
            }
          ],
          "indexed": false,
          "internalType": "struct SkinnyOptimisticOracleV2Interface.Request",
          "name": "request",
          "type": "tuple"
        }
      ],
      "name": "Settle",
      "type": "event"
    },
    {
      "inputs": [],
      "name": "ancillaryBytesLimit",
      "outputs": [
        {
          "internalType": "uint256",
          "name": "",
          "type": "uint256"
        }
      ],
      "stateMutability": "view",
      "type": "function"
    },
    {
      "inputs": [],
      "name": "defaultLiveness",
      "outputs": [
        {
          "internalType": "uint256",
          "name": "",
          "type": "uint256"
        }
      ],
      "stateMutability": "view",
      "type": "function"
    },
    {
      "inputs": [
        {
          "internalType": "address",
          "name": "requester",
          "type": "address"
        },
        {
          "internalType": "bytes32",
          "name": "identifier",
          "type": "bytes32"
        },
        {
          "internalType": "uint32",
          "name": "timestamp",
          "type": "uint32"
        },
        {
          "internalType": "bytes",
          "name": "ancillaryData",
          "type": "bytes"
        },
        {
          "components": [
            {
              "internalType": "address",
              "name": "proposer",
              "type": "address"
            },
            {
              "internalType": "address",
              "name": "disputer",
              "type": "address"
            },
            {
              "internalType": "contract IERC20",
              "name": "currency",
              "type": "address"
            },
            {
              "internalType": "bool",
              "name": "settled",
              "type": "bool"
            },
            {
              "components": [
                {
                  "internalType": "bool",
                  "name": "callbackOnPriceProposed",
                  "type": "bool"
                },
                {
                  "internalType": "bool",
                  "name": "callbackOnPriceDisputed",
                  "type": "bool"
                },
                {
                  "internalType": "bool",
                  "name": "callbackOnPriceSettled",
                  "type": "bool"
                },
                {
                  "internalType": "uint256",
                  "name": "bond",
                  "type": "uint256"
                },
                {
                  "internalType": "uint256",
                  "name": "customLiveness",
                  "type": "uint256"
                }
              ],
              "internalType": "struct SkinnyOptimisticOracleV2Interface.RequestSettings",
              "name": "requestSettings",
              "type": "tuple"
            },
            {
              "internalType": "int256",
              "name": "proposedPrice",
              "type": "int256"
            },
            {
              "internalType": "int256",
              "name": "resolvedPrice",
              "type": "int256"
            },
            {
              "internalType": "uint256",
              "name": "expirationTime",
              "type": "uint256"
            },
            {
              "internalType": "uint256",
              "name": "reward",
              "type": "uint256"
            },
            {
              "internalType": "uint256",
              "name": "finalFee",
              "type": "uint256"
            }
          ],
          "internalType": "struct SkinnyOptimisticOracleV2Interface.Request",
          "name": "request",
          "type": "tuple"
        }
      ],
      "name": "disputePrice",
      "outputs": [
        {
          "internalType": "uint256",
          "name": "totalBond",
          "type": "uint256"
        }
      ],
      "stateMutability": "nonpayable",
      "type": "function"
    },
    {
      "inputs": [
        {
          "internalType": "bytes32",
          "name": "identifier",
          "type": "bytes32"
        },
        {
          "internalType": "uint32",
          "name": "timestamp",
          "type": "uint32"
        },
        {
          "internalType": "bytes",
          "name": "ancillaryData",
          "type": "bytes"
        },
        {
          "components": [
            {
              "internalType": "address",
              "name": "proposer",
              "type": "address"
            },
            {
              "internalType": "address",
              "name": "disputer",
              "type": "address"
            },
            {
              "internalType": "contract IERC20",
              "name": "currency",
              "type": "address"
            },
            {
              "internalType": "bool",
              "name": "settled",
              "type": "bool"
            },
            {
              "components": [
                {
                  "internalType": "bool",
                  "name": "callbackOnPriceProposed",
                  "type": "bool"
                },
                {
                  "internalType": "bool",
                  "name": "callbackOnPriceDisputed",
                  "type": "bool"
                },
                {
                  "internalType": "bool",
                  "name": "callbackOnPriceSettled",
                  "type": "bool"
                },
                {
                  "internalType": "uint256",
                  "name": "bond",
                  "type": "uint256"
                },
                {
                  "internalType": "uint256",
                  "name": "customLiveness",
                  "type": "uint256"
                }
              ],
              "internalType": "struct SkinnyOptimisticOracleV2Interface.RequestSettings",
              "name": "requestSettings",
              "type": "tuple"
            },
            {
              "internalType": "int256",
              "name": "proposedPrice",
              "type": "int256"
            },
            {
              "internalType": "int256",
              "name": "resolvedPrice",
              "type": "int256"
            },
            {
              "internalType": "uint256",
              "name": "expirationTime",
              "type": "uint256"
            },
            {
              "internalType": "uint256",
              "name": "reward",
              "type": "uint256"
            },
            {
              "internalType": "uint256",
              "name": "finalFee",
              "type": "uint256"
            }
          ],
          "internalType": "struct SkinnyOptimisticOracleV2Interface.Request",
          "name": "request",
          "type": "tuple"
        },
        {
          "internalType": "address",
          "name": "disputer",
          "type": "address"
        },
        {
          "internalType": "address",
          "name": "requester",
          "type": "address"
        }
      ],
      "name": "disputePriceFor",
      "outputs": [
        {
          "internalType": "uint256",
          "name": "totalBond",
          "type": "uint256"
        }
      ],
      "stateMutability": "nonpayable",
      "type": "function"
    },
    {
      "inputs": [],
      "name": "finder",
      "outputs": [
        {
          "internalType": "contract FinderInterface",
          "name": "",
          "type": "address"
        }
      ],
      "stateMutability": "view",
      "type": "function"
    },
    {
      "inputs": [],
      "name": "getCurrentTime",
      "outputs": [
        {
          "internalType": "uint256",
          "name": "",
          "type": "uint256"
        }
      ],
      "stateMutability": "view",
      "type": "function"
    },
    {
      "inputs": [
        {
          "internalType": "address",
          "name": "requester",
          "type": "address"
        },
        {
          "internalType": "bytes32",
          "name": "identifier",
          "type": "bytes32"
        },
        {
          "internalType": "uint32",
          "name": "timestamp",
          "type": "uint32"
        },
        {
          "internalType": "bytes",
          "name": "ancillaryData",
          "type": "bytes"
        },
        {
          "components": [
            {
              "internalType": "address",
              "name": "proposer",
              "type": "address"
            },
            {
              "internalType": "address",
              "name": "disputer",
              "type": "address"
            },
            {
              "internalType": "contract IERC20",
              "name": "currency",
              "type": "address"
            },
            {
              "internalType": "bool",
              "name": "settled",
              "type": "bool"
            },
            {
              "components": [
                {
                  "internalType": "bool",
                  "name": "callbackOnPriceProposed",
                  "type": "bool"
                },
                {
                  "internalType": "bool",
                  "name": "callbackOnPriceDisputed",
                  "type": "bool"
                },
                {
                  "internalType": "bool",
                  "name": "callbackOnPriceSettled",
                  "type": "bool"
                },
                {
                  "internalType": "uint256",
                  "name": "bond",
                  "type": "uint256"
                },
                {
                  "internalType": "uint256",
                  "name": "customLiveness",
                  "type": "uint256"
                }
              ],
              "internalType": "struct SkinnyOptimisticOracleV2Interface.RequestSettings",
              "name": "requestSettings",
              "type": "tuple"
            },
            {
              "internalType": "int256",
              "name": "proposedPrice",
              "type": "int256"
            },
            {
              "internalType": "int256",
              "name": "resolvedPrice",
              "type": "int256"
            },
            {
              "internalType": "uint256",
              "name": "expirationTime",
              "type": "uint256"
            },
            {
              "internalType": "uint256",
              "name": "reward",
              "type": "uint256"
            },
            {
              "internalType": "uint256",
              "name": "finalFee",
              "type": "uint256"
            }
          ],
          "internalType": "struct SkinnyOptimisticOracleV2Interface.Request",
          "name": "request",
          "type": "tuple"
        }
      ],
      "name": "getState",
      "outputs": [
        {
          "internalType": "enum OptimisticOracleInterface.State",
          "name": "",
          "type": "uint8"
        }
      ],
      "stateMutability": "nonpayable",
      "type": "function"
    },
    {
      "inputs": [
        {
          "internalType": "address",
          "name": "requester",
          "type": "address"
        },
        {
          "internalType": "bytes32",
          "name": "identifier",
          "type": "bytes32"
        },
        {
          "internalType": "uint32",
          "name": "timestamp",
          "type": "uint32"
        },
        {
          "internalType": "bytes",
          "name": "ancillaryData",
          "type": "bytes"
        },
        {
          "components": [
            {
              "internalType": "address",
              "name": "proposer",
              "type": "address"
            },
            {
              "internalType": "address",
              "name": "disputer",
              "type": "address"
            },
            {
              "internalType": "contract IERC20",
              "name": "currency",
              "type": "address"
            },
            {
              "internalType": "bool",
              "name": "settled",
              "type": "bool"
            },
            {
              "components": [
                {
                  "internalType": "bool",
                  "name": "callbackOnPriceProposed",
                  "type": "bool"
                },
                {
                  "internalType": "bool",
                  "name": "callbackOnPriceDisputed",
                  "type": "bool"
                },
                {
                  "internalType": "bool",
                  "name": "callbackOnPriceSettled",
                  "type": "bool"
                },
                {
                  "internalType": "uint256",
                  "name": "bond",
                  "type": "uint256"
                },
                {
                  "internalType": "uint256",
                  "name": "customLiveness",
                  "type": "uint256"
                }
              ],
              "internalType": "struct SkinnyOptimisticOracleV2Interface.RequestSettings",
              "name": "requestSettings",
              "type": "tuple"
            },
            {
              "internalType": "int256",
              "name": "proposedPrice",
              "type": "int256"
            },
            {
              "internalType": "int256",
              "name": "resolvedPrice",
              "type": "int256"
            },
            {
              "internalType": "uint256",
              "name": "expirationTime",
              "type": "uint256"
            },
            {
              "internalType": "uint256",
              "name": "reward",
              "type": "uint256"
            },
            {
              "internalType": "uint256",
              "name": "finalFee",
              "type": "uint256"
            }
          ],
          "internalType": "struct SkinnyOptimisticOracleV2Interface.Request",
          "name": "request",
          "type": "tuple"
        }
      ],
      "name": "hasPrice",
      "outputs": [
        {
          "internalType": "bool",
          "name": "",
          "type": "bool"
        }
      ],
      "stateMutability": "nonpayable",
      "type": "function"
    },
    {
      "inputs": [
        {
          "internalType": "address",
          "name": "requester",
          "type": "address"
        },
        {
          "internalType": "bytes32",
          "name": "identifier",
          "type": "bytes32"
        },
        {
          "internalType": "uint32",
          "name": "timestamp",
          "type": "uint32"
        },
        {
          "internalType": "bytes",
          "name": "ancillaryData",
          "type": "bytes"
        },
        {
          "components": [
            {
              "internalType": "address",
              "name": "proposer",
              "type": "address"
            },
            {
              "internalType": "address",
              "name": "disputer",
              "type": "address"
            },
            {
              "internalType": "contract IERC20",
              "name": "currency",
              "type": "address"
            },
            {
              "internalType": "bool",
              "name": "settled",
              "type": "bool"
            },
            {
              "components": [
                {
                  "internalType": "bool",
                  "name": "callbackOnPriceProposed",
                  "type": "bool"
                },
                {
                  "internalType": "bool",
                  "name": "callbackOnPriceDisputed",
                  "type": "bool"
                },
                {
                  "internalType": "bool",
                  "name": "callbackOnPriceSettled",
                  "type": "bool"
                },
                {
                  "internalType": "uint256",
                  "name": "bond",
                  "type": "uint256"
                },
                {
                  "internalType": "uint256",
                  "name": "customLiveness",
                  "type": "uint256"
                }
              ],
              "internalType": "struct SkinnyOptimisticOracleV2Interface.RequestSettings",
              "name": "requestSettings",
              "type": "tuple"
            },
            {
              "internalType": "int256",
              "name": "proposedPrice",
              "type": "int256"
            },
            {
              "internalType": "int256",
              "name": "resolvedPrice",
              "type": "int256"
            },
            {
              "internalType": "uint256",
              "name": "expirationTime",
              "type": "uint256"
            },
            {
              "internalType": "uint256",
              "name": "reward",
              "type": "uint256"
            },
            {
              "internalType": "uint256",
              "name": "finalFee",
              "type": "uint256"
            }
          ],
          "internalType": "struct SkinnyOptimisticOracleV2Interface.Request",
          "name": "request",
          "type": "tuple"
        },
        {
          "internalType": "int256",
          "name": "proposedPrice",
          "type": "int256"
        }
      ],
      "name": "proposePrice",
      "outputs": [
        {
          "internalType": "uint256",
          "name": "totalBond",
          "type": "uint256"
        }
      ],
      "stateMutability": "nonpayable",
      "type": "function"
    },
    {
      "inputs": [
        {
          "internalType": "address",
          "name": "requester",
          "type": "address"
        },
        {
          "internalType": "bytes32",
          "name": "identifier",
          "type": "bytes32"
        },
        {
          "internalType": "uint32",
          "name": "timestamp",
          "type": "uint32"
        },
        {
          "internalType": "bytes",
          "name": "ancillaryData",
          "type": "bytes"
        },
        {
          "components": [
            {
              "internalType": "address",
              "name": "proposer",
              "type": "address"
            },
            {
              "internalType": "address",
              "name": "disputer",
              "type": "address"
            },
            {
              "internalType": "contract IERC20",
              "name": "currency",
              "type": "address"
            },
            {
              "internalType": "bool",
              "name": "settled",
              "type": "bool"
            },
            {
              "components": [
                {
                  "internalType": "bool",
                  "name": "callbackOnPriceProposed",
                  "type": "bool"
                },
                {
                  "internalType": "bool",
                  "name": "callbackOnPriceDisputed",
                  "type": "bool"
                },
                {
                  "internalType": "bool",
                  "name": "callbackOnPriceSettled",
                  "type": "bool"
                },
                {
                  "internalType": "uint256",
                  "name": "bond",
                  "type": "uint256"
                },
                {
                  "internalType": "uint256",
                  "name": "customLiveness",
                  "type": "uint256"
                }
              ],
              "internalType": "struct SkinnyOptimisticOracleV2Interface.RequestSettings",
              "name": "requestSettings",
              "type": "tuple"
            },
            {
              "internalType": "int256",
              "name": "proposedPrice",
              "type": "int256"
            },
            {
              "internalType": "int256",
              "name": "resolvedPrice",
              "type": "int256"
            },
            {
              "internalType": "uint256",
              "name": "expirationTime",
              "type": "uint256"
            },
            {
              "internalType": "uint256",
              "name": "reward",
              "type": "uint256"
            },
            {
              "internalType": "uint256",
              "name": "finalFee",
              "type": "uint256"
            }
          ],
          "internalType": "struct SkinnyOptimisticOracleV2Interface.Request",
          "name": "request",
          "type": "tuple"
        },
        {
          "internalType": "address",
          "name": "proposer",
          "type": "address"
        },
        {
          "internalType": "int256",
          "name": "proposedPrice",
          "type": "int256"
        }
      ],
      "name": "proposePriceFor",
      "outputs": [
        {
          "internalType": "uint256",
          "name": "totalBond",
          "type": "uint256"
        }
      ],
      "stateMutability": "nonpayable",
      "type": "function"
    },
    {
      "inputs": [
        {
          "internalType": "bytes32",
          "name": "identifier",
          "type": "bytes32"
        },
        {
          "internalType": "uint32",
          "name": "timestamp",
          "type": "uint32"
        },
        {
          "internalType": "bytes",
          "name": "ancillaryData",
          "type": "bytes"
        },
        {
          "internalType": "contract IERC20",
          "name": "currency",
          "type": "address"
        },
        {
          "internalType": "uint256",
          "name": "reward",
          "type": "uint256"
        },
        {
          "components": [
            {
              "internalType": "bool",
              "name": "callbackOnPriceProposed",
              "type": "bool"
            },
            {
              "internalType": "bool",
              "name": "callbackOnPriceDisputed",
              "type": "bool"
            },
            {
              "internalType": "bool",
              "name": "callbackOnPriceSettled",
              "type": "bool"
            },
            {
              "internalType": "uint256",
              "name": "bond",
              "type": "uint256"
            },
            {
              "internalType": "uint256",
              "name": "customLiveness",
              "type": "uint256"
            }
          ],
          "internalType": "struct SkinnyOptimisticOracleV2Interface.RequestSettings",
          "name": "requestSettings",
          "type": "tuple"
        },
        {
          "internalType": "address",
          "name": "proposer",
          "type": "address"
        },
        {
          "internalType": "int256",
          "name": "proposedPrice",
          "type": "int256"
        }
      ],
      "name": "requestAndProposePriceFor",
      "outputs": [
        {
          "internalType": "uint256",
          "name": "totalBond",
          "type": "uint256"
        }
      ],
      "stateMutability": "nonpayable",
      "type": "function"
    },
    {
      "inputs": [
        {
          "internalType": "bytes32",
          "name": "identifier",
          "type": "bytes32"
        },
        {
          "internalType": "uint32",
          "name": "timestamp",
          "type": "uint32"
        },
        {
          "internalType": "bytes",
          "name": "ancillaryData",
          "type": "bytes"
        },
        {
          "internalType": "contract IERC20",
          "name": "currency",
          "type": "address"
        },
        {
          "internalType": "uint256",
          "name": "reward",
          "type": "uint256"
        },
        {
          "components": [
            {
              "internalType": "bool",
              "name": "callbackOnPriceProposed",
              "type": "bool"
            },
            {
              "internalType": "bool",
              "name": "callbackOnPriceDisputed",
              "type": "bool"
            },
            {
              "internalType": "bool",
              "name": "callbackOnPriceSettled",
              "type": "bool"
            },
            {
              "internalType": "uint256",
              "name": "bond",
              "type": "uint256"
            },
            {
              "internalType": "uint256",
              "name": "customLiveness",
              "type": "uint256"
            }
          ],
          "internalType": "struct SkinnyOptimisticOracleV2Interface.RequestSettings",
          "name": "requestSettings",
          "type": "tuple"
        }
      ],
      "name": "requestPrice",
      "outputs": [
        {
          "internalType": "uint256",
          "name": "totalBond",
          "type": "uint256"
        }
      ],
      "stateMutability": "nonpayable",
      "type": "function"
    },
    {
      "inputs": [
        {
          "internalType": "bytes32",
          "name": "",
          "type": "bytes32"
        }
      ],
      "name": "requests",
      "outputs": [
        {
          "internalType": "bytes32",
          "name": "",
          "type": "bytes32"
        }
      ],
      "stateMutability": "view",
      "type": "function"
    },
    {
      "inputs": [
        {
          "internalType": "uint256",
          "name": "time",
          "type": "uint256"
        }
      ],
      "name": "setCurrentTime",
      "outputs": [],
      "stateMutability": "nonpayable",
      "type": "function"
    },
    {
      "inputs": [
        {
          "internalType": "address",
          "name": "requester",
          "type": "address"
        },
        {
          "internalType": "bytes32",
          "name": "identifier",
          "type": "bytes32"
        },
        {
          "internalType": "uint32",
          "name": "timestamp",
          "type": "uint32"
        },
        {
          "internalType": "bytes",
          "name": "ancillaryData",
          "type": "bytes"
        },
        {
          "components": [
            {
              "internalType": "address",
              "name": "proposer",
              "type": "address"
            },
            {
              "internalType": "address",
              "name": "disputer",
              "type": "address"
            },
            {
              "internalType": "contract IERC20",
              "name": "currency",
              "type": "address"
            },
            {
              "internalType": "bool",
              "name": "settled",
              "type": "bool"
            },
            {
              "components": [
                {
                  "internalType": "bool",
                  "name": "callbackOnPriceProposed",
                  "type": "bool"
                },
                {
                  "internalType": "bool",
                  "name": "callbackOnPriceDisputed",
                  "type": "bool"
                },
                {
                  "internalType": "bool",
                  "name": "callbackOnPriceSettled",
                  "type": "bool"
                },
                {
                  "internalType": "uint256",
                  "name": "bond",
                  "type": "uint256"
                },
                {
                  "internalType": "uint256",
                  "name": "customLiveness",
                  "type": "uint256"
                }
              ],
              "internalType": "struct SkinnyOptimisticOracleV2Interface.RequestSettings",
              "name": "requestSettings",
              "type": "tuple"
            },
            {
              "internalType": "int256",
              "name": "proposedPrice",
              "type": "int256"
            },
            {
              "internalType": "int256",
              "name": "resolvedPrice",
              "type": "int256"
            },
            {
              "internalType": "uint256",
              "name": "expirationTime",
              "type": "uint256"
            },
            {
              "internalType": "uint256",
              "name": "reward",
              "type": "uint256"
            },
            {
              "internalType": "uint256",
              "name": "finalFee",
              "type": "uint256"
            }
          ],
          "internalType": "struct SkinnyOptimisticOracleV2Interface.Request",
          "name": "request",
          "type": "tuple"
        }
      ],
      "name": "settle",
      "outputs": [
        {
          "internalType": "uint256",
          "name": "payout",
          "type": "uint256"
        },
        {
          "internalType": "int256",
          "name": "resolvedPrice",
          "type": "int256"
        }
      ],
      "stateMutability": "nonpayable",
      "type": "function"
    },
    {
      "inputs": [
        {
          "internalType": "bytes",
          "name": "ancillaryData",
          "type": "bytes"
        },
        {
          "internalType": "address",
          "name": "requester",
          "type": "address"
        }
      ],
      "name": "stampAncillaryData",
      "outputs": [
        {
          "internalType": "bytes",
          "name": "",
          "type": "bytes"
        }
      ],
      "stateMutability": "pure",
      "type": "function"
    },
    {
      "inputs": [],
      "name": "timerAddress",
      "outputs": [
        {
          "internalType": "address",
          "name": "",
          "type": "address"
        }
      ],
      "stateMutability": "view",
      "type": "function"
    }
  ],
  "transactionHash": "0x485a06d37782b1907699a61dd97e22b5162d87a2507f68c67d9d2b9027c0e17e",
  "args": [
    7200,
    "0xA969917A4dFaB07936dEc60f70FA5c736A1e2b9e",
    "0xf8815ce169E5450aa6908e76E1B970dBcEC11550"
  ],
  "solcInputHash": "864d61c65c789401ae17358a5af86557",
  "bytecode": "0x6080346200013b57601f62002ac038819003918201601f19168301916001600160401b0383118484101762000140578084926060946040528339810103126200013b57805190620000536020820162000156565b6001600160a01b0391600160a01b908390620000729060400162000156565b1660018060a81b03196000541617176000551660018060a01b0319600254161760025563bb74480081101562000101578015620000bc5760035560405161295490816200016c8239f35b60405162461bcd60e51b815260206004820152601460248201527f4c6976656e6573732063616e6e6f7420626520300000000000000000000000006044820152606490fd5b60405162461bcd60e51b81526020600482015260126024820152714c6976656e65737320746f6f206c6172676560701b6044820152606490fd5b600080fd5b634e487b7160e01b600052604160045260246000fd5b51906001600160a01b03821682036200013b5756fe60a0604052600436101561001257600080fd5b6000803560e01c8063137cee7614610cd95780631c39c38d14610cb257806322f8e56614610c3957806329cb924d14610c1e578063432bcbb914610835578063640f9d941461055157806367831110146105355780636c534fbb146104cb5780637c4b089e1461045f5780639d86698514610435578063af5d2f39146103be578063af8475d314610304578063b9a3c84c146102db578063bc5013bb14610277578063c371dda71461025a578063dc5e0225146100f85763fe4e1983146100d857600080fd5b346100f557806003193601126100f5576020600354604051908152f35b80fd5b50346100f5576102603660031901126100f5576101136110b7565b90604435906001600160401b0382116100f557506101359036906004016111af565b6101c0366063190112610255576040519161014f83611106565b6001600160a01b036064358181168103610255578452608435818116810361025557602085015260a435818116810361025557604085015260c435801515810361025557606085015260a03660e3190112610255576040516101b081611122565b60e435801515810361025557815261010435801515810361025557602082015261012435801515810361025557604082015261014435606082015261016435608082015260808501526101843560a08501526101a43560c08501526101c43560e08501526101e435610100850152610204356101208501526102243590811681036102555760209361024d93610244611280565b93600435611de7565b604051908152f35b600080fd5b50346100f557806003193601126100f55760206040516120008152f35b50346100f5576102603660031901126100f55761029261126a565b61029a6110ca565b91606435906001600160401b0382116100f557602061024d85856102c136600488016111af565b6102ca36611297565b906102443593339360243590611b13565b50346100f557806003193601126100f5576002546040516001600160a01b039091168152602090f35b50346100f5576103509061031736611392565b92610326969496929192611abe565b6000805460ff60a01b1916908190559661034b85610346868686866122bd565b612348565b612422565b916007831015918261039d57600684149283156103b1575b8315610386575b600160a01b83176000556040518415158152602090f35b9091925061039d575060036020921490388061036f565b634e487b7160e01b81526021600452602490fd5b5060058414925080610368565b50346100f55760403660031901126100f5576004356001600160401b038111610431576103ef9036906004016111af565b602435906001600160a01b03821682036102555761042d91610419916104136126a4565b906126cb565b6040519182916020835260208301906114fd565b0390f35b5080fd5b50346100f55760203660031901126100f55760406020916004358152600183522054604051908152f35b50346100f5576102803660031901126100f55761047a61126a565b906104836110ca565b90606435906001600160401b0382116100f557602061024d85856104aa36600488016111af565b6104b336611297565b906104bc611280565b92610264359460243590611b13565b50346100f5576105016104dd36611392565b926104ec959495929192611abe565b6000805460ff60a01b19169081905595612422565b600160a01b90911760005560405190600781101561052157602092508152f35b634e487b7160e01b83526021600452602483fd5b50346100f557602061024d61054936611392565b913393611de7565b50346100f5576101403660031901126100f55761056c6110b7565b6044356001600160401b0381116108315761058b9036906004016111af565b6105936111f6565b90608435926105a13661120c565b926105aa611abe565b6000805460ff60a01b191690556105c58383600435336122bd565b9485875260016020526105dc60408820541561159d565b6001600160a01b0360246020826105f161264e565b16604051928380926390978d1b60e01b825260043560048301525afa80156107d857610624918a91610812575b50611601565b60246020826106316125b0565b1660405192838092631d1d5b3960e11b825286891660048301525afa80156107d857610664918a916107e3575b50611646565b61067d61066f611522565b63ffffffff86161115611689565b61069d6120006106953361068f6126a4565b896126cb565b5111156116cb565b60246020826106aa612606565b1660405192838092635b97aadd60e01b825286891660048301525afa9081156107d85798606096946107739998969461074e7f192e8f0cfffe62f0d9a7860dd72713d2e571aac42d020883efbb1248e9f02afe956107689560209e86916107aa575b50519b610717611735565b9185166040830152610100820184905261012082018d9052608082018b81529a8c018051929650869280156107a257905b52612407565b8061078e575b505060405191829160043596339684611871565b0390a3510151611a9b565b6000805460ff60a01b1916600160a01b179055604051908152f35b61079b91309033906118a1565b3880610754565b508d90610748565b8f6107cb92503d6020116107d1575b6107c38183611173565b810190611717565b3861070c565b503d6107b9565b6040513d8b823e3d90fd5b610805915060203d60201161080b575b6107fd8183611173565b8101906115e9565b3861065e565b503d6107f3565b61082b915060203d60201161080b576107fd8183611173565b3861061e565b8280fd5b50346100f5576108c861084736611392565b939091610855959395611abe565b6000805460ff60a01b1916905561086e838288856122bd565b956108798688612348565b8551602087015160408089015160a08a015160c08b015160e08c01516101008d01516101208e015160808f015196519d90989197929693956001600160a01b039081169381169216908e611106565b8d5260208d015260408c0152600160608c015260808b015260a08a015260c089015260e08801526101008701526101208601526109088685848487612422565b6007811015610c0a5760038103610a66575060a0860151958660c08701526109788661095161094560606080860151015161012086015190611a9b565b61010085015190611a9b565b60408401518451919b91610973918d916001600160a01b03908116911661230f565b612407565b60018060a01b0384169382857f43f50314b00d371b4350379432da938cbb5263cfc9e1c48131e2811a6ca7c657604051806109b58c8c8b84611871565b0390a33b15159081610a54575b506109eb575b6000805460ff60a01b1916600160a01b1790556040805188815260208101889052f35b9082918894933b15610a50578490610a196040519788968795869463e4c311f160e01b865260048601611dbb565b03925af18015610a4557610a31575b808080806109c8565b610a3b84916110dd565b6108315782610a28565b6040513d86823e3d90fd5b8480fd5b604091506080015101511515386109c2565b969796600503610bbb57610ab19560206001600160a01b03610a8661253b565b16610a938661068f6126a4565b9060405180809b81946338ce36ab60e11b8352898960048501612298565b03915afa968715610bb0578897610b78575b50868060c088015260a082015114159860606080830151015160606080890151015160011c810390808211610b6457916109738b9c610b24610b18610b0c8d9661097898611a9b565b61012089015190611a9b565b61010088015190611a9b565b6040870151909d508d916001600160a01b039091169015610b535760208701516001600160a01b03169061230f565b86516001600160a01b03169061230f565b634e487b7160e01b8b52601160045260248bfd5b9096506020813d602011610ba8575b81610b9460209383611173565b81010312610ba457519538610ac3565b8780fd5b3d9150610b87565b6040513d8a823e3d90fd5b60405162461bcd60e51b815260206004820152602160248201527f416c726561647920736574746c6564206f72206e6f7420736574746c6561626c6044820152606560f81b6064820152608490fd5b634e487b7160e01b89526021600452602489fd5b50346100f557806003193601126100f557602061024d611522565b50346100f55760203660031901126100f557805481906001600160a01b03168015610caf57803b15610caf57819060246040518094819363117c72b360e11b835260043560048401525af18015610ca457610c95575b50604051f35b610c9e906110dd565b38610c8f565b6040513d84823e3d90fd5b50fd5b50346100f557806003193601126100f557546040516001600160a01b039091168152602090f35b50346100f5576101803660031901126100f557610cf46110b7565b6044356001600160401b03811161083157610d139036906004016111af565b91610d1c6111f6565b91610d263661120c565b61014435906001600160a01b03908183168303610a5057610d45611abe565b845460ff60a01b1916855560043592610d60888686336122bd565b908187526001602052610d7760408820541561159d565b83811615611072576024602085610d8c61264e565b16604051928380926390978d1b60e01b82528a60048301525afa908115610bb05790610dbe9189916108125750611601565b83610dc76125b0565b1660208560248b6040519485938492631d1d5b3960e11b84521660048301525afa908115610bb05790610e009189916107e35750611646565b610e19610e0b611522565b63ffffffff88161115611689565b610e3161200061069533610e2b6126a4565b8d6126cb565b83610e3a612606565b1660208560248b6040519485938492635b97aadd60e01b84521660048301525afa908115610bb057610f069392610ef48b6060948c948591611053575b50519589610e83611735565b9a8b931660408401526084359485610100850152610120840198808a5260808501978c8952898d01918251915081151560001461104b5750905b521682526101643560a0830152610eea8d610ed6611522565b60808c015190915080156110415790611a9b565b60e0830152612407565b8061102f575b50510151905190611a9b565b95868061101b575b5050826040517f192e8f0cfffe62f0d9a7860dd72713d2e571aac42d020883efbb1248e9f02afe339180610f44878d8b84611871565b0390a3826040517f6b4607a9e123267af7874ba0937d994b2a8c72b78028529d7cf15c08889c6396339180610f7b878d8b84611871565b0390a3333b15159081611010575b50610fab575b835460ff60a01b1916600160a01b178455604051858152602090f35b333b1561100c5790610fd4849392604051978894859463191b130b60e31b865260048601611dbb565b038183335af1928315610fff57602093610ff0575b8080610f8f565b610ff9906110dd565b38610fe9565b50604051903d90823e3d90fd5b8380fd5b905051151538610f89565b61102891309033906118a1565b3886610f0e565b61103b9030338d6118a1565b38610efa565b5060035490611a9b565b905090610ebd565b61106c915060203d6020116107d1576107c38183611173565b38610e77565b60405162461bcd60e51b815260206004820152601e60248201527f70726f706f7365722061646472657373206d757374206265206e6f6e203000006044820152606490fd5b6024359063ffffffff8216820361025557565b6044359063ffffffff8216820361025557565b6001600160401b0381116110f057604052565b634e487b7160e01b600052604160045260246000fd5b61014081019081106001600160401b038211176110f057604052565b60a081019081106001600160401b038211176110f057604052565b602081019081106001600160401b038211176110f057604052565b604081019081106001600160401b038211176110f057604052565b90601f801991011681019081106001600160401b038211176110f057604052565b6001600160401b0381116110f057601f01601f191660200190565b81601f82011215610255578035906111c682611194565b926111d46040519485611173565b8284526020838301011161025557816000926020809301838601378301015290565b606435906001600160a01b038216820361025557565b60a09060a3190112610255576040519061122582611122565b8160a435801515810361025557815260c435801515810361025557602082015260e4358015158103610255576040820152610104356060820152608061012435910152565b600435906001600160a01b038216820361025557565b61024435906001600160a01b038216820361025557565b906101c0608319830112610255576040516112b181611106565b9182906001600160a01b03608435818116810361025557835260a435818116810361025557602084015260c435908116810361025557604083015260e4359081151582036102555760a09160608401526101031901126102555760405161131781611122565b61010435801515810361025557815261012435801515810361025557602082015261014435801515810361025557604082015261016435606082015261018435608082015260808201526101a43560a08201526101c43560c08201526101e43560e08201526102043561010082015261012061022435910152565b90610240600319830112610255576001600160a01b03600435818116810361025557926024359260443563ffffffff8116810361025557926064356001600160401b03811161025557836113e8916004016111af565b926101c0608319820112610255576040519161140383611106565b608435818116810361025557835260a435818116810361025557602084015260c435908116810361025557604083015260e4359081151582036102555760a09160608401526101031901126102555760405161145e81611122565b61010435801515810361025557815261012435801515810361025557602082015261014435801515810361025557604082015261016435606082015261018435608082015260808201526101a43560a08201526101c43560c08201526101e43560e0820152610204356101008201526102243561012082015290565b60005b8381106114ed5750506000910152565b81810151838201526020016114dd565b90602091611516815180928185528580860191016114da565b601f01601f1916010190565b6000546001600160a01b03168015611598576020600491604051928380926329cb924d60e01b82525afa90811561158c5760009161155e575090565b906020823d8211611584575b8161157760209383611173565b810103126100f557505190565b3d915061156a565b6040513d6000823e3d90fd5b504290565b156115a457565b60405162461bcd60e51b815260206004820152601b60248201527f5265717565737420616c726561647920696e697469616c697a656400000000006044820152606490fd5b90816020910312610255575180151581036102555790565b1561160857565b60405162461bcd60e51b81526020600482015260166024820152752ab739bab83837b93a32b21034b232b73a34b334b2b960511b6044820152606490fd5b1561164d57565b60405162461bcd60e51b8152602060048201526014602482015273556e737570706f727465642063757272656e637960601b6044820152606490fd5b1561169057565b60405162461bcd60e51b815260206004820152601360248201527254696d657374616d7020696e2066757475726560681b6044820152606490fd5b156116d257565b60405162461bcd60e51b815260206004820152601760248201527f416e63696c6c617279204461746120746f6f206c6f6e670000000000000000006044820152606490fd5b90816020910312610255576040519061172f8261113d565b51815290565b6040519061174282611106565b8160009081815281602082015281604082015281606082015260405160a081018181106001600160401b038211176117ba5790610120929160405283815283602082015283604082015283606082015283608082015260808201528260a08201528260c08201528260e0820152826101008201520152565b634e487b7160e01b84526041600452602484fd5b6101a09060018060a01b03808251168452806020830151166020850152604082015116604084015260608101511515606084015260808082015180511515828601526020810151151560a08601526040810151151560c0860152606081015160e0860152015190610100918285015260a081015191610120928386015260c082015161014086015260e08201516101608601528101516101808501520151910152565b93929061189761189f9363ffffffff6040931687526102008060208901528701906114fd565b9401906117ce565b565b6040516323b872dd60e01b60208201526001600160a01b03928316602482015292909116604483015260648083019390935291815260a08101918183106001600160401b038411176110f05761189f926040525b604051611972916001600160a01b031661190e82611158565b6000806020958685527f5361666545524332303a206c6f772d6c6576656c2063616c6c206661696c656487860152868151910182855af13d156119fa573d9161195683611194565b926119646040519485611173565b83523d60008785013e6119fe565b8051908282159283156119e2575b5050501561198b5750565b6084906040519062461bcd60e51b82526004820152602a60248201527f5361666545524332303a204552433230206f7065726174696f6e20646964206e6044820152691bdd081cdd58d8d9595960b21b6064820152fd5b6119f293508201810191016115e9565b388281611980565b6060915b91929015611a605750815115611a12575090565b3b15611a1b5790565b60405162461bcd60e51b815260206004820152601d60248201527f416464726573733a2063616c6c20746f206e6f6e2d636f6e74726163740000006044820152606490fd5b825190915015611a735750805190602001fd5b60405162461bcd60e51b815260206004820152908190611a979060248301906114fd565b0390fd5b91908201809211611aa857565b634e487b7160e01b600052601160045260246000fd5b60ff60005460a01c1615611ace57565b60405162461bcd60e51b815260206004820152601f60248201527f5265656e7472616e637947756172643a207265656e7472616e742063616c6c006044820152606490fd5b9695949196929092611b23611abe565b6000805460ff60a01b1990811682559890966001600160a01b03948516908115611d7657611b548886858a88612422565b6007811015611d6257600103611d2957611b70858489876122bd565b95611b7b8988612348565b8060208a0151166040978b898c019b848d51168b606083015115159160c0840151611ba4611522565b9960809b8c95611bca8789019d8e9a898c51015190508015156000146110415790611a9b565b9461010096878a015198610120809b019d8e519c51958351808452611bee90611106565b8251528151602001525101528d51606001528c805101528b5160a001528a5160c00152895160e0015288510152865101528451611c2a91612407565b8251606001519051611c3b91611a9b565b98898281611d12575b50505084169387857f6b4607a9e123267af7874ba0937d994b2a8c72b78028529d7cf15c08889c6396895180611c7d88518c8b84611871565b0390a33b15159081611d06575b50611ca5575b50505050505092600160a01b90825416179055565b823b15610ba457908780949392611cd387519889968795869463191b130b60e31b8652519260048601611dbb565b03925af1908115611cfd5750611cee575b8080808080611c90565b611cf7906110dd565b38611ce4565b513d85823e3d90fd5b90505151151538611c8a565b611d21925116309033906118a1565b388982611c44565b60405162461bcd60e51b8152602060048201526011602482015270135d5cdd081899481c995c5d595cdd1959607a1b6044820152606490fd5b634e487b7160e01b8a52602160045260248afd5b60405162461bcd60e51b815260206004820152601e60248201527f50726f706f7365722061646472657373206d757374206265206e6f6e203000006044820152606490fd5b94939161189f9363ffffffff6118979260609489521660208801526102208060408901528701906114fd565b95949391909293600093611df9611abe565b845460ff60a01b199081168655976001600160a01b0385161561225357611e238785848487612422565b600781101561223f5760020361220757611e3f848383866122bd565b96611e4a8189612348565b600160a01b6001900381511697600160a01b60019003604083015116986060830151151560a084015160c085015160e086015190610100870151926101208801519460808901519f6040519e8f98611ea18a611106565b89526001600160a01b0316602089015260408801526060870152608086019e8f5260a086015260c085015260e0840152610100830152610120820152611ee691612407565b608081015160600151610120820151611efe91611a9b565b97886121e5575b611f246060611f12612606565b9251015160011c610120840151611a9b565b9081612083575b506001600160a01b039050611f3e61253b565b16611f5185611f4b6126a4565b886126cb565b813b1561207f57611f7d8992839260405194858094819363085999a960e21b83528b8b60048501612298565b03925af18015610bb057908891612067575b505060018060a01b0384169382857fda5b062985693ef810f4e00ffa659095b4d7d5c9b3c5b6dd33a3979e12deffaa60405180611fce8c8c8b84611871565b0390a33b15159081612055575b50611ff8575b50505050505091600160a01b906000541617600055565b823b15612051579085809493926120256040519788968795869463613f703960e11b865260048601611dbb565b03925af18015610ca45761203d575b80808080611fe1565b61204782916110dd565b6100f55780612034565b8580fd5b60209150608001510151151538611fdb565b612070906110dd565b61207b578638611f8f565b8680fd5b8880fd5b6040838101519051636eb1769f60e11b81523060048201526001600160a01b03928316602482018190529290911690602081604481855afa9081156121da579084918c9161219f575b506120df61211d94939261211892611a9b565b60405163095ea7b360e01b60208201526001600160a01b039094166024850152604484015282606481015b03601f198101845283611173565b6118f5565b6001600160a01b0361212d612606565b169060018060a01b03604084015116604051916121498361113d565b8252823b1561219b579060448a9283604051958694859363432ce91960e11b855260048501525160248401525af18015610bb057612188575b80611f2b565b612194909791976110dd565b9538612182565b8980fd5b9150506020813d6020116121d2575b816121bb60209383611173565b810103126121ce575183906120df6120cc565b8a80fd5b3d91506121ae565b6040513d8d823e3d90fd5b6040820151612202908a90309033906001600160a01b03166118a1565b611f05565b60405162461bcd60e51b815260206004820152601060248201526f135d5cdd081899481c1c9bdc1bdcd95960821b6044820152606490fd5b634e487b7160e01b87526021600452602487fd5b60405162461bcd60e51b815260206004820152601e60248201527f64697370757465722061646472657373206d757374206265206e6f6e203000006044820152606490fd5b63ffffffff6122ba9493606093835216602082015281604082015201906114fd565b90565b92906122fb6123099263ffffffff604051958694602086019860018060a01b03168952604086015216606084015260808084015260a08301906114fd565b03601f198101835282611173565b51902090565b60405163a9059cbb60e01b60208201526001600160a01b039092166024830152604482019290925261189f91612118826064810161210a565b600052600160205261235f604060002054916123d1565b0361236657565b60405162461bcd60e51b815260206004820152603860248201527f486173686564207265717565737420706172616d7320646f206e6f74206d617460448201527f6368206578697374696e672072657175657374206861736800000000000000006064820152608490fd5b6040516123e26020820180936117ce565b6101c081526101e081018181106001600160401b038211176110f05760405251902090565b90612411906123d1565b906000526001602052604060002055565b6040850151919490916001600160a01b0391908216156125115781815116156125065760608101516124fb5781602082015116156124d957509161247a60209492612498969461247061253b565b16936104136126a4565b604051630b551cd560e41b8152958694859384939160048501612298565b03915afa90811561158c576000916124bb575b50156124b657600590565b600490565b6124d3915060203d811161080b576107fd8183611173565b386124ab565b935050505060e0915001516124ec611522565b106124f657600390565b600290565b505050505050600690565b505050505050600190565b505050505050600090565b9081602091031261025557516001600160a01b03811681036102555790565b6002546040516302abf57960e61b8152654f7261636c6560d01b60048201526001600160a01b03916020908290602490829086165afa90811561158c5760009161258457501690565b6125a5915060203d81116125a9575b61259d8183611173565b81019061251c565b1690565b503d612593565b6002546040516302abf57960e61b81527210dbdb1b185d195c985b15da1a5d195b1a5cdd606a1b60048201526001600160a01b03916020908290602490829086165afa90811561158c5760009161258457501690565b6002546040516302abf57960e61b81526453746f726560d81b60048201526001600160a01b03916020908290602490829086165afa90811561158c5760009161258457501690565b6002546040516302abf57960e61b8152721259195b9d1a599a595c95da1a5d195b1a5cdd606a1b60048201526001600160a01b03916020908290602490829086165afa90811561158c5760009161258457501690565b604051906126b182611158565b600b82526a37b7a932b8bab2b9ba32b960a91b6020830152565b906126d6908261289f565b906126f56fffffffffffffffffffffffffffffffff8460201c16612798565b926001600160c01b03199061271b9060601b6bffffffffffffffffffffffff1916612798565b16604051906020820194855260408201526028815260608101938185106001600160401b038611176110f0576122ba936020938660405261276581518092876080880191016114da565b830161277a82518093876080850191016114da565b0161278c8351809360808401906114da565b01038084520182611173565b7f3030303030303030303030303030303030303030303030303030303030303030906001600160401b038060801b8260401b169116178060201b1779ffff000000000000ffff000000000000ffff000000000000ffff7dffff000000000000ffff000000000000ffff000000000000ffff000000008260101b169116178060081b177e0f000f000f000f000f000f000f000f000f000f000f000f000f000f000f000f7f0f000f000f000f000f000f000f000f000f000f000f000f000f000f000f000f008260041b1691161760277f0101010101010101010101010101010101010101010101010101010101010101808360011c16818460021c16178360031c161602010190565b51156128e7576122ba60226040518093600b60fa1b60208301526128cd8151809260206021860191016114da565b8101601d60f91b6021820152036002810184520182611173565b6122ba6021604051836129048295518092602080860191016114da565b8101601d60f91b602082015203600181018452018261117356fea2646970667358221220977f2ec65b4916e4cf5bffa7726d5aecf86966a0f955d9e67d36f1664487e22364736f6c63430008100033",
  "devdoc": {
    "kind": "dev",
    "methods": {
      "constructor": {
        "params": {
          "_finderAddress": "finder to use to get addresses of DVM contracts.",
          "_liveness": "default liveness applied to each price request.",
          "_timerAddress": "address of the timer contract. Should be 0x0 in prod."
        }
      },
      "disputePrice(address,bytes32,uint32,bytes,(address,address,address,bool,(bool,bool,bool,uint256,uint256),int256,int256,uint256,uint256,uint256))": {
        "params": {
          "ancillaryData": "ancillary data of the price being requested.",
          "identifier": "price identifier to identify the existing request.",
          "request": "price request parameters whose hash must match the request that the caller wants to             dispute.",
          "requester": "sender of the initial price request.",
          "timestamp": "timestamp to identify the existing request."
        },
        "returns": {
          "totalBond": "the amount that's pulled from the caller's wallet as a bond. The bond will be returned to the disputer once settled if the dispute was valid (the proposal was incorrect)."
        }
      },
      "disputePriceFor(bytes32,uint32,bytes,(address,address,address,bool,(bool,bool,bool,uint256,uint256),int256,int256,uint256,uint256,uint256),address,address)": {
        "params": {
          "ancillaryData": "ancillary data of the price being requested.",
          "disputer": "address to set as the disputer.",
          "identifier": "price identifier to identify the existing request.",
          "request": "price request parameters whose hash must match the request that the caller wants to              dispute.",
          "requester": "sender of the initial price request.",
          "timestamp": "timestamp to identify the existing request."
        },
        "returns": {
          "totalBond": "the amount that's pulled from the caller's wallet as a bond. The bond will be returned to the disputer once settled if the dispute was valid (the proposal was incorrect)."
        }
      },
      "getCurrentTime()": {
        "returns": {
          "_0": "uint for the current Testable timestamp."
        }
      },
      "getState(address,bytes32,uint32,bytes,(address,address,address,bool,(bool,bool,bool,uint256,uint256),int256,int256,uint256,uint256,uint256))": {
        "params": {
          "ancillaryData": "ancillary data of the price being requested.",
          "identifier": "price identifier to identify the existing request.",
          "request": "price request parameters.",
          "requester": "sender of the initial price request.",
          "timestamp": "timestamp to identify the existing request."
        },
        "returns": {
          "_0": "the State."
        }
      },
      "hasPrice(address,bytes32,uint32,bytes,(address,address,address,bool,(bool,bool,bool,uint256,uint256),int256,int256,uint256,uint256,uint256))": {
        "params": {
          "ancillaryData": "ancillary data of the price being requested.",
          "identifier": "price identifier to identify the existing request.",
          "request": "price request parameters. The hash of these parameters must match with the request hash that is associated with the price request unique ID {requester, identifier, timestamp, ancillaryData}, or this method will revert.",
          "requester": "sender of the initial price request.",
          "timestamp": "timestamp to identify the existing request."
        },
        "returns": {
          "_0": "boolean indicating true if price exists and false if not."
        }
      },
      "proposePrice(address,bytes32,uint32,bytes,(address,address,address,bool,(bool,bool,bool,uint256,uint256),int256,int256,uint256,uint256,uint256),int256)": {
        "params": {
          "ancillaryData": "ancillary data of the price being requested.",
          "identifier": "price identifier to identify the existing request.",
          "proposedPrice": "price being proposed.",
          "request": "price request parameters whose hash must match the request that the caller wants to propose a price for.",
          "requester": "sender of the initial price request.",
          "timestamp": "timestamp to identify the existing request."
        },
        "returns": {
          "totalBond": "the amount that's pulled from the caller's wallet as a bond. The bond will be returned to the proposer once settled if the proposal is correct."
        }
      },
      "proposePriceFor(address,bytes32,uint32,bytes,(address,address,address,bool,(bool,bool,bool,uint256,uint256),int256,int256,uint256,uint256,uint256),address,int256)": {
        "params": {
          "ancillaryData": "ancillary data of the price being requested.",
          "identifier": "price identifier to identify the existing request.",
          "proposedPrice": "price being proposed.",
          "proposer": "address to set as the proposer.",
          "request": "price request parameters whose hash must match the request that the caller wants to propose a price for.",
          "requester": "sender of the initial price request.",
          "timestamp": "timestamp to identify the existing request."
        },
        "returns": {
          "totalBond": "the amount that's pulled from the caller's wallet as a bond. The bond will be returned to the proposer once settled if the proposal is correct."
        }
      },
      "requestAndProposePriceFor(bytes32,uint32,bytes,address,uint256,(bool,bool,bool,uint256,uint256),address,int256)": {
        "details": "The caller is the requester, but the proposer can be customized.",
        "params": {
          "ancillaryData": "ancillary data of the price being requested.",
          "currency": "ERC20 token used for payment of rewards and fees. Must be approved for use with the DVM.",
          "identifier": "price identifier to identify the existing request.",
          "proposedPrice": "price being proposed.",
          "proposer": "address to set as the proposer.",
          "requestSettings": "settings for the request.",
          "reward": "reward offered to a successful proposer. Will be pulled from the caller. Note: this can be 0,               which could make sense if the contract requests and proposes the value in the same call or               provides its own reward system.",
          "timestamp": "timestamp to identify the existing request."
        },
        "returns": {
          "totalBond": "the amount that's pulled from the caller's wallet as a bond. The bond will be returned to the proposer once settled if the proposal is correct."
        }
      },
      "requestPrice(bytes32,uint32,bytes,address,uint256,(bool,bool,bool,uint256,uint256))": {
        "params": {
          "ancillaryData": "ancillary data representing additional args being passed with the price request.",
          "currency": "ERC20 token used for payment of rewards and fees. Must be approved for use with the DVM.",
          "identifier": "price identifier being requested.",
          "requestSettings": "settings for the request.",
          "reward": "reward offered to a successful proposer. Will be pulled from the caller. Note: this can be 0,               which could make sense if the contract requests and proposes the value in the same call or               provides its own reward system.",
          "timestamp": "timestamp of the price being requested."
        },
        "returns": {
          "totalBond": "default bond + final fee that the proposer and disputer will be required to pay."
        }
      },
      "setCurrentTime(uint256)": {
        "details": "Will revert if not running in test mode.",
        "params": {
          "time": "timestamp to set current Testable time to."
        }
      },
      "settle(address,bytes32,uint32,bytes,(address,address,address,bool,(bool,bool,bool,uint256,uint256),int256,int256,uint256,uint256,uint256))": {
        "params": {
          "ancillaryData": "ancillary data of the price being requested.",
          "identifier": "price identifier to identify the existing request.",
          "request": "price request parameters whose hash must match the request that the caller wants to              settle.",
          "requester": "sender of the initial price request.",
          "timestamp": "timestamp to identify the existing request."
        },
        "returns": {
          "payout": "the amount that the \"winner\" (proposer or disputer) receives on settlement. This amount includes the returned bonds as well as additional rewards.",
          "resolvedPrice": "the price that the request settled to."
        }
      },
      "stampAncillaryData(bytes,address)": {
        "params": {
          "ancillaryData": "ancillary data of the price being requested.",
          "requester": "sender of the initial price request."
        },
        "returns": {
          "_0": "the stamped ancillary bytes."
        }
      }
    },
    "title": "Optimistic Oracle with a different interface and fewer features that emphasizes gas cost reductions.",
    "version": 1
  },
  "userdoc": {
    "kind": "user",
    "methods": {
      "constructor": {
        "notice": "Constructor."
      },
      "disputePrice(address,bytes32,uint32,bytes,(address,address,address,bool,(bool,bool,bool,uint256,uint256),int256,int256,uint256,uint256,uint256))": {
        "notice": "Disputes a price request with an active proposal where caller is the disputer."
      },
      "disputePriceFor(bytes32,uint32,bytes,(address,address,address,bool,(bool,bool,bool,uint256,uint256),int256,int256,uint256,uint256,uint256),address,address)": {
        "notice": "Disputes a price request with an active proposal on another address' behalf. Note: this address will receive any rewards that come from this dispute. However, any bonds are pulled from the caller."
      },
      "getCurrentTime()": {
        "notice": "Gets the current time. Will return the last time set in `setCurrentTime` if running in test mode. Otherwise, it will return the block timestamp."
      },
      "getState(address,bytes32,uint32,bytes,(address,address,address,bool,(bool,bool,bool,uint256,uint256),int256,int256,uint256,uint256,uint256))": {
        "notice": "Computes the current state of a price request. See the State enum for more details."
      },
      "hasPrice(address,bytes32,uint32,bytes,(address,address,address,bool,(bool,bool,bool,uint256,uint256),int256,int256,uint256,uint256,uint256))": {
        "notice": "Checks if a given request has resolved, expired or been settled (i.e the optimistic oracle has a price)."
      },
      "proposePrice(address,bytes32,uint32,bytes,(address,address,address,bool,(bool,bool,bool,uint256,uint256),int256,int256,uint256,uint256,uint256),int256)": {
        "notice": "Proposes a price value where caller is the proposer."
      },
      "proposePriceFor(address,bytes32,uint32,bytes,(address,address,address,bool,(bool,bool,bool,uint256,uint256),int256,int256,uint256,uint256,uint256),address,int256)": {
        "notice": "Proposes a price value on another address' behalf. Note: this address will receive any rewards that come from this proposal. However, any bonds are pulled from the caller."
      },
      "requestAndProposePriceFor(bytes32,uint32,bytes,address,uint256,(bool,bool,bool,uint256,uint256),address,int256)": {
        "notice": "Combines logic of requestPrice and proposePrice while taking advantage of gas savings from not having to overwrite Request params that a normal requestPrice() => proposePrice() flow would entail. Note: The proposer will receive any rewards that come from this proposal. However, any bonds are pulled from the caller."
      },
      "requestPrice(bytes32,uint32,bytes,address,uint256,(bool,bool,bool,uint256,uint256))": {
        "notice": "Requests a new price."
      },
      "setCurrentTime(uint256)": {
        "notice": "Sets the current time."
      },
      "settle(address,bytes32,uint32,bytes,(address,address,address,bool,(bool,bool,bool,uint256,uint256),int256,int256,uint256,uint256,uint256))": {
        "notice": "Attempts to settle an outstanding price request. Will revert if it isn't settleable."
      },
      "stampAncillaryData(bytes,address)": {
        "notice": "Generates stamped ancillary data in the format that it would be used in the case of a price dispute."
      }
    },
    "notice": "Pre-DVM escalation contract that allows faster settlement.",
    "version": 1
  },
  "storageLayout": {
    "storage": [
      {
        "astId": 17751,
        "contract": "contracts/optimistic-oracle-v2/implementation/SkinnyOptimisticOracleV2.sol:SkinnyOptimisticOracleV2",
        "label": "timerAddress",
        "offset": 0,
        "slot": "0",
        "type": "t_address"
      },
      {
        "astId": 16304,
        "contract": "contracts/optimistic-oracle-v2/implementation/SkinnyOptimisticOracleV2.sol:SkinnyOptimisticOracleV2",
        "label": "_notEntered",
        "offset": 20,
        "slot": "0",
        "type": "t_bool"
      },
      {
        "astId": 60740,
        "contract": "contracts/optimistic-oracle-v2/implementation/SkinnyOptimisticOracleV2.sol:SkinnyOptimisticOracleV2",
        "label": "requests",
        "offset": 0,
        "slot": "1",
        "type": "t_mapping(t_bytes32,t_bytes32)"
      },
      {
        "astId": 60743,
        "contract": "contracts/optimistic-oracle-v2/implementation/SkinnyOptimisticOracleV2.sol:SkinnyOptimisticOracleV2",
        "label": "finder",
        "offset": 0,
        "slot": "2",
        "type": "t_contract(FinderInterface)36753"
      },
      {
        "astId": 60745,
        "contract": "contracts/optimistic-oracle-v2/implementation/SkinnyOptimisticOracleV2.sol:SkinnyOptimisticOracleV2",
        "label": "defaultLiveness",
        "offset": 0,
        "slot": "3",
        "type": "t_uint256"
      }
    ],
    "types": {
      "t_address": {
        "encoding": "inplace",
        "label": "address",
        "numberOfBytes": "20"
      },
      "t_bool": {
        "encoding": "inplace",
        "label": "bool",
        "numberOfBytes": "1"
      },
      "t_bytes32": {
        "encoding": "inplace",
        "label": "bytes32",
        "numberOfBytes": "32"
      },
      "t_contract(FinderInterface)36753": {
        "encoding": "inplace",
        "label": "contract FinderInterface",
        "numberOfBytes": "20"
      },
      "t_mapping(t_bytes32,t_bytes32)": {
        "encoding": "mapping",
        "key": "t_bytes32",
        "label": "mapping(bytes32 => bytes32)",
        "numberOfBytes": "32",
        "value": "t_bytes32"
      },
      "t_uint256": {
        "encoding": "inplace",
        "label": "uint256",
        "numberOfBytes": "32"
      }
    }
  }
}