{
  "address": "0x9400a943a2c79AC68853F222b6394201ba7cC05a",
  "abi": [
    {
      "inputs": [
        {
          "internalType": "address",
          "name": "user",
          "type": "address"
        }
      ],
      "name": "balanceOf",
      "outputs": [
        {
          "internalType": "uint256",
          "name": "",
          "type": "uint256"
        }
      ],
      "stateMutability": "view",
      "type": "function"
    },
    {
      "inputs": [],
      "name": "votingV2",
      "outputs": [
        {
          "internalType": "contract VotingInterface",
          "name": "",
          "type": "address"
        }
      ],
      "stateMutability": "view",
      "type": "function"
    }
  ],
  "transactionHash": "0xcdec97a24d87ba56a4c59499a7b74550e800de6403ad9147b5beb701176f935a",
  "args": [],
  "solcInputHash": "864d61c65c789401ae17358a5af86557",
  "bytecode": "0x60a0806040523461003c57724395edb43efca9885cedad51ec9faf93bd34ac608052610373908161004282396080518181816086015261015d0152f35b600080fdfe608080604052600436101561001357600080fd5b600090813560e01c90816307f666a51461007257506370a082311461003757600080fd5b3461006f57602036600319011261006f57600435906001600160a01b038216820361006f57602061006783610133565b604051908152f35b80fd5b9050346100b557816003193601126100b5577f00000000000000000000000000000000000000000000000000000000000000006001600160a01b03168152602090f35b5080fd5b90601f8019910116810190811067ffffffffffffffff8211176100db57604052565b634e487b7160e01b600052604160045260246000fd5b51906001600160a01b038216820361010557565b600080fd5b51906001600160801b038216820361010557565b519067ffffffffffffffff8216820361010557565b60408051631d51f68d60e11b81526001600160a01b039283166004820181905260209390929091907f000000000000000000000000000000000000000000000000000000000000000083168583602481845afa9283156103325790849392916000936102f5575b508151938493634edd8d5360e01b85521660048401528260246101009586935afa9586156102ea57600096610202575b5050505060e08301511680151591826101f7575b50506101f157516001600160801b031690565b50600090565b1415905038806101de565b838381969894953d83116102e3575b61021b81836100b9565b810103126102df57815194850185811067ffffffffffffffff8211176102cb5782526102468461010a565b855261025381850161010a565b9085015261026281840161010a565b908401526102726060830161010a565b606084015260808201519081600f0b820361006f57506102bc9160e09160808501526102a060a0820161011e565b60a08501526102b160c0820161011e565b60c0850152016100f1565b60e082015291388080806101ca565b634e487b7160e01b84526041600452602484fd5b8280fd5b503d610211565b50513d6000823e3d90fd5b91929093508682813d831161032b575b61030f81836100b9565b8101031261006f5750906103248493926100f1565b913861019a565b503d610305565b82513d6000823e3d90fdfea264697066735822122055a1090fb257de1dad37a69d2c14d1270c460c15165334f61c5cbd6976b774c564736f6c63430008100033",
  "devdoc": {
    "kind": "dev",
    "methods": {
      "balanceOf(address)": {
        "params": {
          "user": "address of the user for whom to calculate voting power."
        },
        "returns": {
          "_0": "uint256 value of user's voting power based on staked UMA at DVM2.0.*"
        }
      }
    },
    "title": "SnapshotVotingPower",
    "version": 1
  },
  "userdoc": {
    "kind": "user",
    "methods": {
      "balanceOf(address)": {
        "notice": "This is only used by Snapshot to calculate voting power and does not represent transferable tokens."
      }
    },
    "notice": "Helper contract to support offchain voting with Snapshot.",
    "version": 1
  },
  "storageLayout": {
    "storage": [],
    "types": null
  }
}