{
  "address": "0xF3429b8B8d4BE9c70FBF92DcE69526f502D94017",
  "abi": [
    {
      "anonymous": false,
      "inputs": [
        {
          "indexed": true,
          "internalType": "uint256",
          "name": "id",
          "type": "uint256"
        },
        {
          "indexed": true,
          "internalType": "address",
          "name": "contractAddress",
          "type": "address"
        },
        {
          "indexed": false,
          "internalType": "bytes",
          "name": "data",
          "type": "bytes"
        }
      ],
      "name": "StateSynced",
      "type": "event"
    },
    {
      "inputs": [
        {
          "internalType": "address",
          "name": "receiver",
          "type": "address"
        },
        {
          "internalType": "bytes",
          "name": "data",
          "type": "bytes"
        }
      ],
      "name": "syncState",
      "outputs": [],
      "stateMutability": "nonpayable",
      "type": "function"
    }
  ],
  "transactionHash": "0x1448d5ed790c8bbf14a84d35319cd7bdbe24e60a1f8a5e8e565425387c26248a",
  "args": [],
  "solcInputHash": "864d61c65c789401ae17358a5af86557",
  "bytecode": "0x6080806040523461001657610112908161001c8239f35b600080fdfe608060408181526004361015601357600080fd5b600091823560e01c6316f1983114602957600080fd5b3460d8578160031936011260d8576004356001600160a01b038116919082900360d45760243567ffffffffffffffff9182821160d0573660238301121560d057816004013592831160d057366024848401011160d05784818460019560247f103fed9db65eac19c4d870f49ab7520fe03b99f1838e5996caf47e9e43308392966020855282602086015201848401378181018301899052601f01601f19168101030190a351f35b8580fd5b8380fd5b8280fdfea2646970667358221220f0e8ff3516a66d2a004445905764d25fb2bcd836e58b2e6059ac5edb698aebb164736f6c63430008100033",
  "devdoc": {
    "events": {
      "StateSynced(uint256,address,bytes)": {
        "details": "Heimdall bridge listens to this event and sends the data to receiver contract on child chain",
        "params": {
          "contractAddress": "the contract receiving data on child chain",
          "data": "bytes data to be sent",
          "id": "Id of the sync, increamented for each event in case of actual state sender contract"
        }
      }
    },
    "kind": "dev",
    "methods": {
      "syncState(address,bytes)": {
        "details": "sender and receiver contracts need to be registered in case of actual state sender contract",
        "params": {
          "data": "bytes data to be sent",
          "receiver": "the contract receiving data on child chain"
        }
      }
    },
    "version": 1
  },
  "userdoc": {
    "events": {
      "StateSynced(uint256,address,bytes)": {
        "notice": "Event emitted when when syncState is called"
      }
    },
    "kind": "user",
    "methods": {
      "syncState(address,bytes)": {
        "notice": "called to send data to child chain"
      }
    },
    "notice": "Dummy State Sender contract to simulate plasma state sender while testing",
    "version": 1
  },
  "storageLayout": {
    "storage": [],
    "types": null
  }
}