{
  "address": "0x8E068DAEb81B6a60A40613E5D45b5a02354e778d",
  "abi": [
    {
      "inputs": [
        {
          "components": [
            {
              "internalType": "uint256",
              "name": "rawValue",
              "type": "uint256"
            }
          ],
          "internalType": "struct FixedPoint.Unsigned",
          "name": "_fixedOracleFeePerSecondPerPfc",
          "type": "tuple"
        },
        {
          "components": [
            {
              "internalType": "uint256",
              "name": "rawValue",
              "type": "uint256"
            }
          ],
          "internalType": "struct FixedPoint.Unsigned",
          "name": "_weeklyDelayFeePerSecondPerPfc",
          "type": "tuple"
        },
        {
          "internalType": "address",
          "name": "_timerAddress",
          "type": "address"
        }
      ],
      "stateMutability": "nonpayable",
      "type": "constructor"
    },
    {
      "anonymous": false,
      "inputs": [
        {
          "indexed": true,
          "internalType": "uint256",
          "name": "roleId",
          "type": "uint256"
        },
        {
          "indexed": true,
          "internalType": "address",
          "name": "newMember",
          "type": "address"
        },
        {
          "indexed": true,
          "internalType": "address",
          "name": "manager",
          "type": "address"
        }
      ],
      "name": "AddedSharedMember",
      "type": "event"
    },
    {
      "anonymous": false,
      "inputs": [
        {
          "components": [
            {
              "internalType": "uint256",
              "name": "rawValue",
              "type": "uint256"
            }
          ],
          "indexed": false,
          "internalType": "struct FixedPoint.Unsigned",
          "name": "newFinalFee",
          "type": "tuple"
        }
      ],
      "name": "NewFinalFee",
      "type": "event"
    },
    {
      "anonymous": false,
      "inputs": [
        {
          "components": [
            {
              "internalType": "uint256",
              "name": "rawValue",
              "type": "uint256"
            }
          ],
          "indexed": false,
          "internalType": "struct FixedPoint.Unsigned",
          "name": "newOracleFee",
          "type": "tuple"
        }
      ],
      "name": "NewFixedOracleFeePerSecondPerPfc",
      "type": "event"
    },
    {
      "anonymous": false,
      "inputs": [
        {
          "components": [
            {
              "internalType": "uint256",
              "name": "rawValue",
              "type": "uint256"
            }
          ],
          "indexed": false,
          "internalType": "struct FixedPoint.Unsigned",
          "name": "newWeeklyDelayFeePerSecondPerPfc",
          "type": "tuple"
        }
      ],
      "name": "NewWeeklyDelayFeePerSecondPerPfc",
      "type": "event"
    },
    {
      "anonymous": false,
      "inputs": [
        {
          "indexed": true,
          "internalType": "uint256",
          "name": "roleId",
          "type": "uint256"
        },
        {
          "indexed": true,
          "internalType": "address",
          "name": "oldMember",
          "type": "address"
        },
        {
          "indexed": true,
          "internalType": "address",
          "name": "manager",
          "type": "address"
        }
      ],
      "name": "RemovedSharedMember",
      "type": "event"
    },
    {
      "anonymous": false,
      "inputs": [
        {
          "indexed": true,
          "internalType": "uint256",
          "name": "roleId",
          "type": "uint256"
        },
        {
          "indexed": true,
          "internalType": "address",
          "name": "newMember",
          "type": "address"
        },
        {
          "indexed": true,
          "internalType": "address",
          "name": "manager",
          "type": "address"
        }
      ],
      "name": "ResetExclusiveMember",
      "type": "event"
    },
    {
      "inputs": [],
      "name": "SECONDS_PER_WEEK",
      "outputs": [
        {
          "internalType": "uint256",
          "name": "",
          "type": "uint256"
        }
      ],
      "stateMutability": "view",
      "type": "function"
    },
    {
      "inputs": [
        {
          "internalType": "uint256",
          "name": "roleId",
          "type": "uint256"
        },
        {
          "internalType": "address",
          "name": "newMember",
          "type": "address"
        }
      ],
      "name": "addMember",
      "outputs": [],
      "stateMutability": "nonpayable",
      "type": "function"
    },
    {
      "inputs": [
        {
          "internalType": "address",
          "name": "currency",
          "type": "address"
        }
      ],
      "name": "computeFinalFee",
      "outputs": [
        {
          "components": [
            {
              "internalType": "uint256",
              "name": "rawValue",
              "type": "uint256"
            }
          ],
          "internalType": "struct FixedPoint.Unsigned",
          "name": "",
          "type": "tuple"
        }
      ],
      "stateMutability": "view",
      "type": "function"
    },
    {
      "inputs": [
        {
          "internalType": "uint256",
          "name": "startTime",
          "type": "uint256"
        },
        {
          "internalType": "uint256",
          "name": "endTime",
          "type": "uint256"
        },
        {
          "components": [
            {
              "internalType": "uint256",
              "name": "rawValue",
              "type": "uint256"
            }
          ],
          "internalType": "struct FixedPoint.Unsigned",
          "name": "pfc",
          "type": "tuple"
        }
      ],
      "name": "computeRegularFee",
      "outputs": [
        {
          "components": [
            {
              "internalType": "uint256",
              "name": "rawValue",
              "type": "uint256"
            }
          ],
          "internalType": "struct FixedPoint.Unsigned",
          "name": "regularFee",
          "type": "tuple"
        },
        {
          "components": [
            {
              "internalType": "uint256",
              "name": "rawValue",
              "type": "uint256"
            }
          ],
          "internalType": "struct FixedPoint.Unsigned",
          "name": "latePenalty",
          "type": "tuple"
        }
      ],
      "stateMutability": "view",
      "type": "function"
    },
    {
      "inputs": [
        {
          "internalType": "address",
          "name": "",
          "type": "address"
        }
      ],
      "name": "finalFees",
      "outputs": [
        {
          "internalType": "uint256",
          "name": "rawValue",
          "type": "uint256"
        }
      ],
      "stateMutability": "view",
      "type": "function"
    },
    {
      "inputs": [],
      "name": "fixedOracleFeePerSecondPerPfc",
      "outputs": [
        {
          "internalType": "uint256",
          "name": "rawValue",
          "type": "uint256"
        }
      ],
      "stateMutability": "view",
      "type": "function"
    },
    {
      "inputs": [],
      "name": "getCurrentTime",
      "outputs": [
        {
          "internalType": "uint256",
          "name": "",
          "type": "uint256"
        }
      ],
      "stateMutability": "view",
      "type": "function"
    },
    {
      "inputs": [
        {
          "internalType": "uint256",
          "name": "roleId",
          "type": "uint256"
        }
      ],
      "name": "getMember",
      "outputs": [
        {
          "internalType": "address",
          "name": "",
          "type": "address"
        }
      ],
      "stateMutability": "view",
      "type": "function"
    },
    {
      "inputs": [
        {
          "internalType": "uint256",
          "name": "roleId",
          "type": "uint256"
        },
        {
          "internalType": "address",
          "name": "memberToCheck",
          "type": "address"
        }
      ],
      "name": "holdsRole",
      "outputs": [
        {
          "internalType": "bool",
          "name": "",
          "type": "bool"
        }
      ],
      "stateMutability": "view",
      "type": "function"
    },
    {
      "inputs": [],
      "name": "payOracleFees",
      "outputs": [],
      "stateMutability": "payable",
      "type": "function"
    },
    {
      "inputs": [
        {
          "internalType": "address",
          "name": "erc20Address",
          "type": "address"
        },
        {
          "components": [
            {
              "internalType": "uint256",
              "name": "rawValue",
              "type": "uint256"
            }
          ],
          "internalType": "struct FixedPoint.Unsigned",
          "name": "amount",
          "type": "tuple"
        }
      ],
      "name": "payOracleFeesErc20",
      "outputs": [],
      "stateMutability": "nonpayable",
      "type": "function"
    },
    {
      "inputs": [
        {
          "internalType": "uint256",
          "name": "roleId",
          "type": "uint256"
        },
        {
          "internalType": "address",
          "name": "memberToRemove",
          "type": "address"
        }
      ],
      "name": "removeMember",
      "outputs": [],
      "stateMutability": "nonpayable",
      "type": "function"
    },
    {
      "inputs": [
        {
          "internalType": "uint256",
          "name": "roleId",
          "type": "uint256"
        }
      ],
      "name": "renounceMembership",
      "outputs": [],
      "stateMutability": "nonpayable",
      "type": "function"
    },
    {
      "inputs": [
        {
          "internalType": "uint256",
          "name": "roleId",
          "type": "uint256"
        },
        {
          "internalType": "address",
          "name": "newMember",
          "type": "address"
        }
      ],
      "name": "resetMember",
      "outputs": [],
      "stateMutability": "nonpayable",
      "type": "function"
    },
    {
      "inputs": [
        {
          "internalType": "uint256",
          "name": "time",
          "type": "uint256"
        }
      ],
      "name": "setCurrentTime",
      "outputs": [],
      "stateMutability": "nonpayable",
      "type": "function"
    },
    {
      "inputs": [
        {
          "internalType": "address",
          "name": "currency",
          "type": "address"
        },
        {
          "components": [
            {
              "internalType": "uint256",
              "name": "rawValue",
              "type": "uint256"
            }
          ],
          "internalType": "struct FixedPoint.Unsigned",
          "name": "newFinalFee",
          "type": "tuple"
        }
      ],
      "name": "setFinalFee",
      "outputs": [],
      "stateMutability": "nonpayable",
      "type": "function"
    },
    {
      "inputs": [
        {
          "components": [
            {
              "internalType": "uint256",
              "name": "rawValue",
              "type": "uint256"
            }
          ],
          "internalType": "struct FixedPoint.Unsigned",
          "name": "newFixedOracleFeePerSecondPerPfc",
          "type": "tuple"
        }
      ],
      "name": "setFixedOracleFeePerSecondPerPfc",
      "outputs": [],
      "stateMutability": "nonpayable",
      "type": "function"
    },
    {
      "inputs": [
        {
          "components": [
            {
              "internalType": "uint256",
              "name": "rawValue",
              "type": "uint256"
            }
          ],
          "internalType": "struct FixedPoint.Unsigned",
          "name": "newWeeklyDelayFeePerSecondPerPfc",
          "type": "tuple"
        }
      ],
      "name": "setWeeklyDelayFeePerSecondPerPfc",
      "outputs": [],
      "stateMutability": "nonpayable",
      "type": "function"
    },
    {
      "inputs": [],
      "name": "timerAddress",
      "outputs": [
        {
          "internalType": "address",
          "name": "",
          "type": "address"
        }
      ],
      "stateMutability": "view",
      "type": "function"
    },
    {
      "inputs": [],
      "name": "weeklyDelayFeePerSecondPerPfc",
      "outputs": [
        {
          "internalType": "uint256",
          "name": "rawValue",
          "type": "uint256"
        }
      ],
      "stateMutability": "view",
      "type": "function"
    },
    {
      "inputs": [
        {
          "internalType": "uint256",
          "name": "amount",
          "type": "uint256"
        }
      ],
      "name": "withdraw",
      "outputs": [],
      "stateMutability": "nonpayable",
      "type": "function"
    },
    {
      "inputs": [
        {
          "internalType": "address",
          "name": "erc20Address",
          "type": "address"
        },
        {
          "internalType": "uint256",
          "name": "amount",
          "type": "uint256"
        }
      ],
      "name": "withdrawErc20",
      "outputs": [],
      "stateMutability": "nonpayable",
      "type": "function"
    }
  ],
  "transactionHash": "0xc8e9b2a8a6846e96421142f87c0babd0e6258d4cca642d5191917ff2f8888f08",
  "args": [
    {
      "rawValue": "0"
    },
    {
      "rawValue": "0"
    },
    "0xf8815ce169E5450aa6908e76E1B970dBcEC11550"
  ],
  "solcInputHash": "864d61c65c789401ae17358a5af86557",
  "bytecode": "0x6080346200048657601f620019c538819003918201601f191683019291906001600160401b038411838510176200048b578190604094855283398101906060818303126200048657620000538282620004c1565b8362000064602094858501620004c1565b9201516001600160a01b03811690819003620004865760018060a01b03199081600254161760025560009081805281855260019060ff82888520015416600381101562000472576200042e5782805282865286832060028382019160ff19928584825416179055858155013315620003de57338382541617905583805283875260ff838986200154166003811015620003715715620003855782805582845283875260ff83898620015416600381101562000371576200032d5782845283875287842080840180549092168417909155838155600201805490911633179055818052858220015460ff166003811015620003195715620002c057620001736200016d3362000549565b620004f1565b8151918162000181620004a1565b52670de0b6b3a764000080938162000198620004a1565b5210156200027c57847e41cf46cedaae9927def5c0647b190fd958c8ab8cde4219dad74319bc05d3d99151806003558751908152a1620001dc6200016d3362000549565b825190620001e9620004a1565b5281620001f5620004a1565b5210156200023957907f2e6cd3e6f7808568620c647ac0e652b0e95bef2494692adbc118fbbd02a8e82e9151806004558351908152a1516113839081620006228239f35b50606491519062461bcd60e51b82526004820152601f60248201527f7765656b6c792064656c617920666565206d757374206265203c2031303025006044820152fd5b855162461bcd60e51b815260048101869052601e60248201527f466565206d757374206265203c203130302520706572207365636f6e642e00006044820152606490fd5b845162461bcd60e51b815260048101859052603c6024820152600080516020620019a583398151915260448201527f20746f206d616e61676520616e206578636c757369766520726f6c65000000006064820152608490fd5b634e487b7160e01b82526021600452602482fd5b875162461bcd60e51b815260048101889052601e60248201527f43616e6e6f74207573652061207072652d6578697374696e6720726f6c6500006044820152606490fd5b634e487b7160e01b85526021600452602485fd5b875162461bcd60e51b815260048101889052603c6024820152600080516020620019a583398151915260448201527f20746f206d616e61676520616e206578636c757369766520726f6c65000000006064820152608490fd5b885162461bcd60e51b815260048101899052602360248201527f43616e6e6f742073657420616e206578636c757369766520726f6c6520746f2060448201526203078360ec1b6064820152608490fd5b865162461bcd60e51b815260048101879052601e60248201527f43616e6e6f74207573652061207072652d6578697374696e6720726f6c6500006044820152606490fd5b634e487b7160e01b84526021600452602484fd5b600080fd5b634e487b7160e01b600052604160045260246000fd5b60405190602082016001600160401b038111838210176200048b57604052565b91908260209103126200048657604051602081016001600160401b038111828210176200048b5760405291518252565b15620004f957565b60405162461bcd60e51b815260206004820152602260248201527f53656e64657220646f6573206e6f7420686f6c6420726571756972656420726f6044820152616c6560f01b6064820152608490fd5b600080805260208190527fad3228b676f7d3cd4284a5443f17f1962b36e491b30a40b2405849e597ba5fb6547fad3228b676f7d3cd4284a5443f17f1962b36e491b30a40b2405849e597ba5fb5919060ff166003811015620003195760018103620005c5575050600201546001600160a01b0391821691161490565b600214620006035760405162461bcd60e51b815260206004820152600e60248201526d125b9d985b1a59081c9bdb19525960921b6044820152606490fd5b6001600160a01b039092168252600301602052604090205460ff169056fe608060408181526004908136101561001657600080fd5b600092833560e01c9081631c39c38d14610c525750806322f8e56614610bc257806329cb924d14610b9e5780632e1a7d4d14610aab5780632fee209814610a8c5780635b97aadd14610a395780636be7658b146109655780636f356f4a1461092d57806374201feb1461086657806374d0a6761461076b5780637cdc1cb91461073a5780637d69dfdb1461071c5780637e7e591d146106a857806384ae2a741461068a5780638659d232146105a1578063aaa14ca3146104f4578063ab3545e514610482578063acb6f6cb146103d3578063b187487d14610325578063bd1f4b521461028b578063cd3a9b24146102325763d97c05be1461011657600080fd5b3461022e578060031936011261022e57813590610131610c92565b8285528460205260ff6001838720015416600381101561021b5760016101579114610e83565b8285528460205261017461016f838720543390610e45565b610ee7565b828552846020526002828620019060018060a01b03169384156101cc575080546001600160a01b03191684179055519133917f3b855c56b409b671c7112789d022675eb639d0bcb8896f1b6197c132f799e7468585a4f35b608490602084519162461bcd60e51b8352820152602360248201527f43616e6e6f742073657420616e206578636c757369766520726f6c6520746f2060448201526203078360ec1b6064820152fd5b634e487b7160e01b865260218552602486fd5b8280fd5b50908260031936011261022e573415610249575051f35b6020606492519162461bcd60e51b8352820152601860248201527f56616c75652073656e742063616e2774206265207a65726f00000000000000006044820152fd5b508290346103215780600319360112610321576102a6610c77565b6102bb6102b66001543390610e45565b610fa0565b81519063a9059cbb60e01b60208301523360248301526024356044830152604482526080820182811067ffffffffffffffff82111761030c57835261030991906001600160a01b03166110b2565b51f35b604186634e487b7160e01b6000525260246000fd5b5080fd5b50903461022e57602036600319011261022e5761034136610d3c565b61034d6102b633610d5c565b805161035761128e565b511115610390577f2e6cd3e6f7808568620c647ac0e652b0e95bef2494692adbc118fbbd02a8e82e91602091518091558351908152a151f35b506020606492519162461bcd60e51b8352820152601f60248201527f7765656b6c792064656c617920666565206d757374206265203c2031303025006044820152fd5b50903461022e57602036600319011261022e576103ef36610d3c565b906103fc6102b633610d5c565b815161040661128e565b51111561043f575060207e41cf46cedaae9927def5c0647b190fd958c8ab8cde4219dad74319bc05d3d99151806003558351908152a151f35b606490602084519162461bcd60e51b8352820152601e60248201527f466565206d757374206265203c203130302520706572207365636f6e642e00006044820152fd5b5082346104f15760203660031901126104f15782358082528160205260ff600184842001541660038110156104de576020945060016104c19114610e83565b81528083528190206002015490516001600160a01b039091168152f35b634e487b7160e01b835260218552602483fd5b80fd5b503461022e57602036600319011261022e578135918284528360205260ff600183862001541690600382101561058e575060026105319114610f3f565b61053e6102b63384610e45565b8183526020838152818420336000818152600390920190925260409020805460ff1916905590519181907feb3e33034c392e69263b04ec0fa376dc12784a41b6676c7f31b936cbc0fbb5af8585a4f35b634e487b7160e01b855260219052602484fd5b508290346103215780600319360112610321576105bc610c77565b602036602319011261022e576105d136610d1c565b51600083516105df81610ca8565b52600083516105ed81610ca8565b5215610647578151906323b872dd60e01b602083015233602483015230604483015260243560648301526064825260a0820182811067ffffffffffffffff82111761030c57835261030991906001600160a01b03166110b2565b815162461bcd60e51b8152602081860152601960248201527f416d6f756e742073656e742063616e2774206265207a65726f000000000000006044820152606490fd5b8382346103215781600319360112610321576020905162093a808152f35b8382346103215780600319360112610321577f98c807f575ae6584ff8200eaf3205f3f20abf9c954fff030c152f5e7c5446d6e60206106e5610c77565b6106ee36610d1c565b906106fb6102b633610d5c565b6001600160a01b03168552600582528385209051908190558351908152a151f35b50903461022e578260031936011261022e5760209250549051908152f35b5082346104f157816003193601126104f1575061076260209261075b610c92565b9035610e45565b90519015158152f35b503461022e578060031936011261022e57813590610787610c92565b8285528460205260ff6001838720015416600381101561021b5760026107ad9114610f3f565b828552846020526107c561016f838720543390610e45565b828552846020526003828620019060018060a01b031693841561082357508360005260205280600020600160ff19825416179055519133917f63502af7324ff6db91ab38f8236a648727d9385ea6c782073dd4882d8a61a48f8585a4f35b606490602084519162461bcd60e51b8352820152601f60248201527f43616e6e6f74206164642030783020746f20612073686172656420726f6c65006044820152fd5b509190346103215760603660031901126103215780359160203660431901126104f157908161091f92855161089a81610ca8565b5284516108a681610ca8565b5261091a6109106108b9856024356112e0565b9262093a806108fa6108ec6108d6876108d136610cfc565b611326565b8a51906108e282610ca8565b60035482526112ed565b976108f5610ff7565b6112e0565b88519261090684610ca8565b5483520490611326565b916108d136610cfc565b6112ed565b825191518252516020820152f35b8382346103215760203660031901126103215760209181906001600160a01b03610955610c77565b1681526005845220549051908152f35b50903461022e578160031936011261022e57803591610982610c92565b918385528460205260ff6001838720015416906003821015610a26575060026109ab9114610f3f565b828452836020526109c361016f828620543390610e45565b828452836020526109f2826003838720019060018060a01b0316600052602052604060002060ff198154169055565b519133916001600160a01b0316907feb3e33034c392e69263b04ec0fa376dc12784a41b6676c7f31b936cbc0fbb5af8585a4f35b634e487b7160e01b865260219052602485fd5b8382346103215760203660031901126103215780602092610a58610c77565b818351610a6481610ca8565b526001600160a01b03168152600584522081519190610a8283610ca8565b5480925251908152f35b8382346103215781600319360112610321576020906003549051908152f35b50903461022e57602036600319011261022e578035610ad06102b66001543390610e45565b804710610b5b5783808092855190335af1610ae9611072565b5015610af3575051f35b6020608492519162461bcd60e51b8352820152603a60248201527f416464726573733a20756e61626c6520746f2073656e642076616c75652c207260448201527f6563697069656e74206d617920686176652072657665727465640000000000006064820152fd5b506020606492519162461bcd60e51b8352820152601d60248201527f416464726573733a20696e73756666696369656e742062616c616e63650000006044820152fd5b838234610321578160031936011261032157602090610bbb610ff7565b9051908152f35b50919034610321576020366003190112610321576002546001600160a01b0316801561022e57803b1561022e5790828092602486518095819363117c72b360e11b83528635878401525af18015610c4857610c1c57828451f35b67ffffffffffffffff8211610c35575082523880828451f35b634e487b7160e01b835260419052602482fd5b84513d85823e3d90fd5b8490346103215781600319360112610321576002546001600160a01b03168152602090f35b600435906001600160a01b0382168203610c8d57565b600080fd5b602435906001600160a01b0382168203610c8d57565b6020810190811067ffffffffffffffff821117610cc457604052565b634e487b7160e01b600052604160045260246000fd5b90601f8019910116810190811067ffffffffffffffff821117610cc457604052565b6020906043190112610c8d5760405190610d1582610ca8565b6044358252565b6020906023190112610c8d5760405190610d3582610ca8565b6024358252565b6020906003190112610c8d5760405190610d5582610ca8565b6004358252565b600080805260208190527fad3228b676f7d3cd4284a5443f17f1962b36e491b30a40b2405849e597ba5fb6547fad3228b676f7d3cd4284a5443f17f1962b36e491b30a40b2405849e597ba5fb5919060ff166003811015610e315760018103610dd6575050600201546001600160a01b0391821691161490565b600214610e135760405162461bcd60e51b815260206004820152600e60248201526d125b9d985b1a59081c9bdb19525960921b6044820152606490fd5b6001600160a01b039092168252600301602052604090205460ff1690565b634e487b7160e01b82526021600452602482fd5b600090815280602052604081209060ff6001830154166003811015610e315760018103610dd6575050600201546001600160a01b0391821691161490565b15610e8a57565b60405162461bcd60e51b815260206004820152602f60248201527f4d7573742062652063616c6c6564206f6e20616e20696e697469616c697a656460448201526e204578636c757369766520726f6c6560881b6064820152608490fd5b15610eee57565b60405162461bcd60e51b8152602060048201526024808201527f43616e206f6e6c792062652063616c6c6564206279206120726f6c65206d616e60448201526330b3b2b960e11b6064820152608490fd5b15610f4657565b60405162461bcd60e51b815260206004820152602c60248201527f4d7573742062652063616c6c6564206f6e20616e20696e697469616c697a656460448201526b2053686172656420726f6c6560a01b6064820152608490fd5b15610fa757565b60405162461bcd60e51b815260206004820152602260248201527f53656e64657220646f6573206e6f7420686f6c6420726571756972656420726f6044820152616c6560f01b6064820152608490fd5b6002546001600160a01b0316801561106d576020600491604051928380926329cb924d60e01b82525afa90811561106157600091611033575090565b906020823d8211611059575b8161104c60209383610cda565b810103126104f157505190565b3d915061103f565b6040513d6000823e3d90fd5b504290565b3d156110ad573d9067ffffffffffffffff8211610cc457604051916110a1601f8201601f191660200184610cda565b82523d6000602084013e565b606090565b60018060a01b031690604051604081019080821067ffffffffffffffff831117610cc457611124916040526020938482527f5361666545524332303a206c6f772d6c6576656c2063616c6c206661696c6564858301526000808587829751910182855af161111e611072565b916111ba565b805191821591848315611196575b50505090501561113f5750565b6084906040519062461bcd60e51b82526004820152602a60248201527f5361666545524332303a204552433230206f7065726174696f6e20646964206e6044820152691bdd081cdd58d8d9595960b21b6064820152fd5b919381809450010312610321578201519081151582036104f1575080388084611132565b9192901561121c57508151156111ce575090565b3b156111d75790565b60405162461bcd60e51b815260206004820152601d60248201527f416464726573733a2063616c6c20746f206e6f6e2d636f6e74726163740000006044820152606490fd5b82519091501561122f5750805190602001fd5b6040519062461bcd60e51b82528160208060048301528251908160248401526000935b828510611275575050604492506000838284010152601f80199101168101030190fd5b8481018201518686016044015293810193859350611252565b600060405161129c81610ca8565b526040516112a981610ca8565b670de0b6b3a7640000815290565b80600019048211811515166112ca570290565b634e487b7160e01b600052601160045260246000fd5b919082039182116112ca57565b670de0b6b3a76400009161131391600060405161130981610ca8565b52519051906112b7565b046040519061132182610ca8565b815290565b9061134091600060405161133981610ca8565b52516112b7565b6040519061132182610ca856fea2646970667358221220786885fb06a40edde00d1c00a3788e08720a9749c72956fe7b8440e03c55acd464736f6c63430008100033417474656d7074656420746f2075736520616e20696e76616c696420726f6c65",
  "devdoc": {
    "kind": "dev",
    "methods": {
      "addMember(uint256,address)": {
        "details": "Reverts if `roleId` does not represent an initialized, SharedRole or if the caller is not a member of the managing role for `roleId`.",
        "params": {
          "newMember": "the new SharedRole member.",
          "roleId": "the SharedRole membership to modify."
        }
      },
      "computeFinalFee(address)": {
        "params": {
          "currency": "token used to pay the final fee."
        },
        "returns": {
          "_0": "finalFee amount due denominated in units of `currency`."
        }
      },
      "computeRegularFee(uint256,uint256,(uint256))": {
        "details": "The late penalty is similar to the regular fee in that is is charged per second over the period between startTime and endTime. The late penalty percentage increases over time as follows: - 0-1 week since startTime: no late penalty - 1-2 weeks since startTime: 1x late penalty percentage is applied - 2-3 weeks since startTime: 2x late penalty percentage is applied - ...",
        "params": {
          "endTime": "end time until which the fee is paid.",
          "pfc": "\"profit from corruption\", or the maximum amount of margin currency that a token sponsor could extract from the contract through corrupting the price feed in their favor.",
          "startTime": "defines the beginning time from which the fee is paid."
        },
        "returns": {
          "latePenalty": "penalty percentage, if any, for paying the fee after the deadline.",
          "regularFee": "amount owed for the duration from start to end time for the given pfc."
        }
      },
      "getCurrentTime()": {
        "returns": {
          "_0": "uint for the current Testable timestamp."
        }
      },
      "getMember(uint256)": {
        "details": "Reverts if `roleId` does not represent an initialized, exclusive role.",
        "params": {
          "roleId": "the ExclusiveRole membership to check."
        },
        "returns": {
          "_0": "the address of the current ExclusiveRole member."
        }
      },
      "holdsRole(uint256,address)": {
        "details": "Reverts if roleId does not correspond to an initialized role.",
        "params": {
          "memberToCheck": "the address to check.",
          "roleId": "the Role to check."
        },
        "returns": {
          "_0": "True if `memberToCheck` is a member of `roleId`."
        }
      },
      "payOracleFees()": {
        "details": "To be used by contracts whose margin currency is ETH."
      },
      "payOracleFeesErc20(address,(uint256))": {
        "details": "To be used if the margin currency is an ERC20 token rather than ETH.",
        "params": {
          "amount": "number of tokens to transfer. An approval for at least this amount must exist.",
          "erc20Address": "address of the ERC20 token used to pay the fee."
        }
      },
      "removeMember(uint256,address)": {
        "details": "Reverts if `roleId` does not represent an initialized, SharedRole or if the caller is not a member of the managing role for `roleId`.",
        "params": {
          "memberToRemove": "the current SharedRole member to remove.",
          "roleId": "the SharedRole membership to modify."
        }
      },
      "renounceMembership(uint256)": {
        "details": "Reverts if the caller is not a member of the role for `roleId` or if `roleId` is not an initialized, SharedRole.",
        "params": {
          "roleId": "the SharedRole membership to modify."
        }
      },
      "resetMember(uint256,address)": {
        "details": "Reverts if the caller is not a member of the managing role for `roleId` or if `roleId` is not an initialized, ExclusiveRole.",
        "params": {
          "newMember": "the new ExclusiveRole member.",
          "roleId": "the ExclusiveRole membership to modify."
        }
      },
      "setCurrentTime(uint256)": {
        "details": "Will revert if not running in test mode.",
        "params": {
          "time": "timestamp to set current Testable time to."
        }
      },
      "setFinalFee(address,(uint256))": {
        "params": {
          "currency": "defines the token currency used to pay the final fee.",
          "newFinalFee": "final fee amount."
        }
      },
      "setFixedOracleFeePerSecondPerPfc((uint256))": {
        "params": {
          "newFixedOracleFeePerSecondPerPfc": "new fee per second charged to use the oracle."
        }
      },
      "setWeeklyDelayFeePerSecondPerPfc((uint256))": {
        "params": {
          "newWeeklyDelayFeePerSecondPerPfc": "fee escalation per week of late fee payment."
        }
      },
      "withdrawErc20(address,uint256)": {
        "params": {
          "amount": "amount of tokens to withdraw.",
          "erc20Address": "ERC20 token to withdraw."
        }
      }
    },
    "title": "An implementation of Store that can accept Oracle fees in ETH or any arbitrary ERC20 token.",
    "version": 1
  },
  "userdoc": {
    "kind": "user",
    "methods": {
      "addMember(uint256,address)": {
        "notice": "Adds `newMember` to the shared role, `roleId`."
      },
      "computeFinalFee(address)": {
        "notice": "Computes the final oracle fees that a contract should pay at settlement."
      },
      "computeRegularFee(uint256,uint256,(uint256))": {
        "notice": "Computes the regular oracle fees that a contract should pay for a period."
      },
      "constructor": {
        "notice": "Construct the Store contract."
      },
      "getCurrentTime()": {
        "notice": "Gets the current time. Will return the last time set in `setCurrentTime` if running in test mode. Otherwise, it will return the block timestamp."
      },
      "getMember(uint256)": {
        "notice": "Gets the current holder of the exclusive role, `roleId`."
      },
      "holdsRole(uint256,address)": {
        "notice": "Whether `memberToCheck` is a member of roleId."
      },
      "payOracleFees()": {
        "notice": "Pays Oracle fees in ETH to the store."
      },
      "payOracleFeesErc20(address,(uint256))": {
        "notice": "Pays oracle fees in the margin currency, erc20Address, to the store."
      },
      "removeMember(uint256,address)": {
        "notice": "Removes `memberToRemove` from the shared role, `roleId`."
      },
      "renounceMembership(uint256)": {
        "notice": "Removes caller from the role, `roleId`."
      },
      "resetMember(uint256,address)": {
        "notice": "Changes the exclusive role holder of `roleId` to `newMember`."
      },
      "setCurrentTime(uint256)": {
        "notice": "Sets the current time."
      },
      "setFinalFee(address,(uint256))": {
        "notice": "Sets a new final fee for a particular currency."
      },
      "setFixedOracleFeePerSecondPerPfc((uint256))": {
        "notice": "Sets a new oracle fee per second."
      },
      "setWeeklyDelayFeePerSecondPerPfc((uint256))": {
        "notice": "Sets a new weekly delay fee."
      },
      "withdraw(uint256)": {
        "notice": "Withdraws ETH from the contract."
      },
      "withdrawErc20(address,uint256)": {
        "notice": "Withdraws ERC20 tokens from the contract."
      }
    },
    "version": 1
  },
  "storageLayout": {
    "storage": [
      {
        "astId": 16654,
        "contract": "contracts/data-verification-mechanism/implementation/Store.sol:Store",
        "label": "roles",
        "offset": 0,
        "slot": "0",
        "type": "t_mapping(t_uint256,t_struct(Role)16649_storage)"
      },
      {
        "astId": 17920,
        "contract": "contracts/data-verification-mechanism/implementation/Store.sol:Store",
        "label": "roleId",
        "offset": 0,
        "slot": "1",
        "type": "t_uint256"
      },
      {
        "astId": 17751,
        "contract": "contracts/data-verification-mechanism/implementation/Store.sol:Store",
        "label": "timerAddress",
        "offset": 0,
        "slot": "2",
        "type": "t_address"
      },
      {
        "astId": 29713,
        "contract": "contracts/data-verification-mechanism/implementation/Store.sol:Store",
        "label": "fixedOracleFeePerSecondPerPfc",
        "offset": 0,
        "slot": "3",
        "type": "t_struct(Unsigned)14666_storage"
      },
      {
        "astId": 29716,
        "contract": "contracts/data-verification-mechanism/implementation/Store.sol:Store",
        "label": "weeklyDelayFeePerSecondPerPfc",
        "offset": 0,
        "slot": "4",
        "type": "t_struct(Unsigned)14666_storage"
      },
      {
        "astId": 29721,
        "contract": "contracts/data-verification-mechanism/implementation/Store.sol:Store",
        "label": "finalFees",
        "offset": 0,
        "slot": "5",
        "type": "t_mapping(t_address,t_struct(Unsigned)14666_storage)"
      }
    ],
    "types": {
      "t_address": {
        "encoding": "inplace",
        "label": "address",
        "numberOfBytes": "20"
      },
      "t_bool": {
        "encoding": "inplace",
        "label": "bool",
        "numberOfBytes": "1"
      },
      "t_enum(RoleType)16637": {
        "encoding": "inplace",
        "label": "enum MultiRole.RoleType",
        "numberOfBytes": "1"
      },
      "t_mapping(t_address,t_bool)": {
        "encoding": "mapping",
        "key": "t_address",
        "label": "mapping(address => bool)",
        "numberOfBytes": "32",
        "value": "t_bool"
      },
      "t_mapping(t_address,t_struct(Unsigned)14666_storage)": {
        "encoding": "mapping",
        "key": "t_address",
        "label": "mapping(address => struct FixedPoint.Unsigned)",
        "numberOfBytes": "32",
        "value": "t_struct(Unsigned)14666_storage"
      },
      "t_mapping(t_uint256,t_struct(Role)16649_storage)": {
        "encoding": "mapping",
        "key": "t_uint256",
        "label": "mapping(uint256 => struct MultiRole.Role)",
        "numberOfBytes": "32",
        "value": "t_struct(Role)16649_storage"
      },
      "t_struct(Role)16649_storage": {
        "encoding": "inplace",
        "label": "struct MultiRole.Role",
        "members": [
          {
            "astId": 16639,
            "contract": "contracts/data-verification-mechanism/implementation/Store.sol:Store",
            "label": "managingRole",
            "offset": 0,
            "slot": "0",
            "type": "t_uint256"
          },
          {
            "astId": 16642,
            "contract": "contracts/data-verification-mechanism/implementation/Store.sol:Store",
            "label": "roleType",
            "offset": 0,
            "slot": "1",
            "type": "t_enum(RoleType)16637"
          },
          {
            "astId": 16645,
            "contract": "contracts/data-verification-mechanism/implementation/Store.sol:Store",
            "label": "exclusiveRoleMembership",
            "offset": 0,
            "slot": "2",
            "type": "t_struct(RoleMembership)16460_storage"
          },
          {
            "astId": 16648,
            "contract": "contracts/data-verification-mechanism/implementation/Store.sol:Store",
            "label": "sharedRoleMembership",
            "offset": 0,
            "slot": "3",
            "type": "t_struct(RoleMembership)16533_storage"
          }
        ],
        "numberOfBytes": "128"
      },
      "t_struct(RoleMembership)16460_storage": {
        "encoding": "inplace",
        "label": "struct Exclusive.RoleMembership",
        "members": [
          {
            "astId": 16459,
            "contract": "contracts/data-verification-mechanism/implementation/Store.sol:Store",
            "label": "member",
            "offset": 0,
            "slot": "0",
            "type": "t_address"
          }
        ],
        "numberOfBytes": "32"
      },
      "t_struct(RoleMembership)16533_storage": {
        "encoding": "inplace",
        "label": "struct Shared.RoleMembership",
        "members": [
          {
            "astId": 16532,
            "contract": "contracts/data-verification-mechanism/implementation/Store.sol:Store",
            "label": "members",
            "offset": 0,
            "slot": "0",
            "type": "t_mapping(t_address,t_bool)"
          }
        ],
        "numberOfBytes": "32"
      },
      "t_struct(Unsigned)14666_storage": {
        "encoding": "inplace",
        "label": "struct FixedPoint.Unsigned",
        "members": [
          {
            "astId": 14665,
            "contract": "contracts/data-verification-mechanism/implementation/Store.sol:Store",
            "label": "rawValue",
            "offset": 0,
            "slot": "0",
            "type": "t_uint256"
          }
        ],
        "numberOfBytes": "32"
      },
      "t_uint256": {
        "encoding": "inplace",
        "label": "uint256",
        "numberOfBytes": "32"
      }
    }
  }
}