{
  "address": "0xEFC47F049F8F51211133422F244cBDfDe57Acec2",
  "abi": [
    {
      "inputs": [
        {
          "internalType": "address",
          "name": "",
          "type": "address"
        }
      ],
      "name": "longShortPairParameters",
      "outputs": [
        {
          "internalType": "uint256",
          "name": "strikePrice",
          "type": "uint256"
        },
        {
          "internalType": "uint256",
          "name": "basePercentage",
          "type": "uint256"
        }
      ],
      "stateMutability": "view",
      "type": "function"
    },
    {
      "inputs": [
        {
          "internalType": "int256",
          "name": "expiryPrice",
          "type": "int256"
        }
      ],
      "name": "percentageLongCollateralAtExpiry",
      "outputs": [
        {
          "internalType": "uint256",
          "name": "",
          "type": "uint256"
        }
      ],
      "stateMutability": "view",
      "type": "function"
    },
    {
      "inputs": [
        {
          "internalType": "address",
          "name": "longShortPair",
          "type": "address"
        },
        {
          "internalType": "uint256",
          "name": "strikePrice",
          "type": "uint256"
        },
        {
          "internalType": "uint256",
          "name": "basePercentage",
          "type": "uint256"
        }
      ],
      "name": "setLongShortPairParameters",
      "outputs": [],
      "stateMutability": "nonpayable",
      "type": "function"
    }
  ],
  "transactionHash": "0x362094c221ef12d0af963c531ec38a41140a48f4d1a2a3a6d7ba9f9ed9767bb7",
  "args": [],
  "solcInputHash": "864d61c65c789401ae17358a5af86557",
  "bytecode": "0x6080806040523461002357600160ff19600054161760005561063090816100298239f35b600080fdfe6040608081526004908136101561001557600080fd5b600090813560e01c80632da52361146102b05780639299cbed1461026f576392a98f531461004257600080fd5b3461026b57606036600319011261026b5761005b6102e2565b60243560443561006961034b565b845460ff1990811686558451634fa1eee960e11b815260209791946001600160a01b0316919088818381865afa908115610261578891610206575b50156101cd57818752600188528786882087516100c0816102fd565b6001825492838352015492839101521590816101c4575b5015610188578315158061017f575b156101205750600193929184888193885195610101876102fd565b8652818601938452895252858720925183555191015583541617825551f35b855162461bcd60e51b8152908101889052603360248201527f426173652070657263656e7461676520616e6420737472696b6520707269636560448201527202063616e6e6f742062652073657420746f203606c1b6064820152608490fd5b508215156100e6565b855162461bcd60e51b8152908101889052601660248201527514185c985b595d195c9cc8185b1c9958591e481cd95d60521b6044820152606490fd5b905015386100d7565b855162461bcd60e51b81529081018890526013602482015272496e76616c6964204c5350206164647265737360681b6044820152606490fd5b9050883d8a1161025a575b601f8101601f1916820167ffffffffffffffff811183821017610247578a9183918a52810103126102435751386100a4565b8780fd5b634e487b7160e01b8a526041845260248afd5b503d610211565b87513d8a823e3d90fd5b5080fd5b503461026b57602036600319011261026b579081906001600160a01b036102946102e2565b1681526001602052206001815491015482519182526020820152f35b5090346102df5760203660031901126102df57506102d86020926102d261034b565b3561039d565b9051908152f35b80fd5b600435906001600160a01b03821682036102f857565b600080fd5b6040810190811067ffffffffffffffff82111761031957604052565b634e487b7160e01b600052604160045260246000fd5b6020810190811067ffffffffffffffff82111761031957604052565b60ff600054161561035857565b60405162461bcd60e51b815260206004820152601f60248201527f5265656e7472616e637947756172643a207265656e7472616e742063616c6c006044820152606490fd5b6000338152600160205260409081812082519383850185811067ffffffffffffffff8211176105e657845260018254928387520154602086019281845215908115916105dc575b50156105985782811315610591575b80158015610586575b61057d5781519184519261040f8461032f565b83525190670de0b6b3a7640000918203828111610569578551906104328261032f565b81528551966104408861032f565b82885251968651976104518961032f565b885285875161045f8161032f565b525196518703968711610569578551966104788861032f565b87528486516104868161032f565b5251955160001996908115158289048211166105555783908751926104aa8461032f565b020481528551916104ba8361032f565b82528486516104c88161032f565b5251809604821186151516610541575190811561052d578451956104eb8761032f565b020484528183516104fb8161032f565b52519251830180931161051957508190516105158161032f565b5290565b634e487b7160e01b81526011600452602490fd5b634e487b7160e01b84526012600452602484fd5b634e487b7160e01b84526011600452602484fd5b634e487b7160e01b86526011600452602486fd5b634e487b7160e01b85526011600452602485fd5b50925050505190565b5084518111156103fc565b50816103f3565b835162461bcd60e51b815260206004820152601e60248201527f506172616d73206e6f742073657420666f722063616c6c696e67204c535000006044820152606490fd5b90501515386103e4565b634e487b7160e01b84526041600452602484fdfea26469706673582212204f7776b32d8c68a5303f98c246f7a6093676d1702c44a7c6fc91ad1bbfa3d4b964736f6c63430008100033",
  "devdoc": {
    "kind": "dev",
    "methods": {
      "percentageLongCollateralAtExpiry(int256)": {
        "params": {
          "expiryPrice": "price from the optimistic oracle for the LSP price identifier."
        },
        "returns": {
          "_0": "expiryPercentLong to indicate how much collateral should be sent between long and short tokens."
        }
      },
      "setLongShortPairParameters(address,uint256,uint256)": {
        "details": "Note: a) Any address can set the initial strike price b) A strike price cannot be 0. c) A strike price can only be set once to prevent the deployer from changing the strike after the fact. d) For safety, a strike price should be set before depositing any synthetic tokens in a liquidity pool. e) longShortPair must expose an expirationTimestamp method to validate it is correctly deployed.",
        "params": {
          "basePercentage": "the base percentage of collateral per pair paid out to long tokens, expressed with 1e18 decimals. E.g., a 50% base percentage should be expressed 500000000000000000, or 0.5 with 1e18 decimals. The base percentage cannot be set to 0.",
          "longShortPair": "address of the LSP.",
          "strikePrice": "the strike price for the covered call for the associated LSP."
        }
      }
    },
    "title": "Success Token Long Short Pair Financial Product Library.",
    "version": 1
  },
  "userdoc": {
    "kind": "user",
    "methods": {
      "percentageLongCollateralAtExpiry(int256)": {
        "notice": "Returns a number between 0 and 1e18 to indicate how much collateral each long and short token are entitled to per collateralPerPair."
      },
      "setLongShortPairParameters(address,uint256,uint256)": {
        "notice": "Enables any address to set the strike price for an associated LSP."
      }
    },
    "notice": "Adds settlement logic to create success token LSPs. A success token pays out a fixed amount of collateral as a floor, with the remaining amount functioning like an embedded option. The embedded option in this case uses payout logic that resembles a covered call. I.e., the token expires to be worth basePercentage + (1 - basePercentage) * (expiryPrice - strikePrice).",
    "version": 1
  },
  "storageLayout": {
    "storage": [
      {
        "astId": 16304,
        "contract": "contracts/financial-templates/common/financial-product-libraries/long-short-pair-libraries/SuccessTokenLongShortPairFinancialProductLibrary.sol:SuccessTokenLongShortPairFinancialProductLibrary",
        "label": "_notEntered",
        "offset": 0,
        "slot": "0",
        "type": "t_bool"
      },
      {
        "astId": 44751,
        "contract": "contracts/financial-templates/common/financial-product-libraries/long-short-pair-libraries/SuccessTokenLongShortPairFinancialProductLibrary.sol:SuccessTokenLongShortPairFinancialProductLibrary",
        "label": "longShortPairParameters",
        "offset": 0,
        "slot": "1",
        "type": "t_mapping(t_address,t_struct(SuccessTokenLongShortPairParameters)44746_storage)"
      }
    ],
    "types": {
      "t_address": {
        "encoding": "inplace",
        "label": "address",
        "numberOfBytes": "20"
      },
      "t_bool": {
        "encoding": "inplace",
        "label": "bool",
        "numberOfBytes": "1"
      },
      "t_mapping(t_address,t_struct(SuccessTokenLongShortPairParameters)44746_storage)": {
        "encoding": "mapping",
        "key": "t_address",
        "label": "mapping(address => struct SuccessTokenLongShortPairFinancialProductLibrary.SuccessTokenLongShortPairParameters)",
        "numberOfBytes": "32",
        "value": "t_struct(SuccessTokenLongShortPairParameters)44746_storage"
      },
      "t_struct(SuccessTokenLongShortPairParameters)44746_storage": {
        "encoding": "inplace",
        "label": "struct SuccessTokenLongShortPairFinancialProductLibrary.SuccessTokenLongShortPairParameters",
        "members": [
          {
            "astId": 44743,
            "contract": "contracts/financial-templates/common/financial-product-libraries/long-short-pair-libraries/SuccessTokenLongShortPairFinancialProductLibrary.sol:SuccessTokenLongShortPairFinancialProductLibrary",
            "label": "strikePrice",
            "offset": 0,
            "slot": "0",
            "type": "t_uint256"
          },
          {
            "astId": 44745,
            "contract": "contracts/financial-templates/common/financial-product-libraries/long-short-pair-libraries/SuccessTokenLongShortPairFinancialProductLibrary.sol:SuccessTokenLongShortPairFinancialProductLibrary",
            "label": "basePercentage",
            "offset": 0,
            "slot": "1",
            "type": "t_uint256"
          }
        ],
        "numberOfBytes": "64"
      },
      "t_uint256": {
        "encoding": "inplace",
        "label": "uint256",
        "numberOfBytes": "32"
      }
    }
  }
}