{
  "address": "0x8Aa853D41A08c9E22CB27A383344a273d12310C3",
  "abi": [
    {
      "inputs": [
        {
          "internalType": "string",
          "name": "tokenName",
          "type": "string"
        },
        {
          "internalType": "string",
          "name": "tokenSymbol",
          "type": "string"
        },
        {
          "internalType": "uint8",
          "name": "tokenDecimals",
          "type": "uint8"
        }
      ],
      "name": "createToken",
      "outputs": [
        {
          "internalType": "contract ExpandedIERC20",
          "name": "newToken",
          "type": "address"
        }
      ],
      "stateMutability": "nonpayable",
      "type": "function"
    }
  ],
  "transactionHash": "0xcf53fcf3bb69687e1ac3aa857fa061fb24665dd59767c954e2348ed7d04be1c7",
  "args": [],
  "solcInputHash": "864d61c65c789401ae17358a5af86557",
  "bytecode": "0x6080806040523461002357600160ff19600054161760005561232a90816100298239f35b600080fdfe608060408181526004908136101561001657600080fd5b600092833560e01c63e8a0aed31461002d57600080fd5b346101d85760603660031901126101d85767ffffffffffffffff92803584811161016e5761005e90369083016101dc565b6024358681116101d45761007590369085016101dc565b906044359160ff83168093036101d05789549660ff88161561018f575060ff199687168a558751946120c480870195908b87118888101761017c57926100d36100e19389989796938d96620002318b3960608952606089019161020f565b91868303602088015261020f565b920152039086f08015610172576001600160a01b031693843b1561016e5783516339e6401560e11b81523383820152908682602481838a5af180156101645761013a575b50505092600160209482541617905551908152f35b819692961161015157835293506001602038610125565b634e487b7160e01b825260418652602482fd5b85513d89823e3d90fd5b8580fd5b83513d87823e3d90fd5b634e487b7160e01b8d526041895260248dfd5b62461bcd60e51b8152602087820152601f60248201527f5265656e7472616e637947756172643a207265656e7472616e742063616c6c006044820152606490fd5b8980fd5b8780fd5b8380fd5b9181601f8401121561020a5782359167ffffffffffffffff831161020a576020838186019501011161020a57565b600080fd5b908060209392818452848401376000828201840152601f01601f191601019056fe60406080815234620007c657620020c4803803806200001e81620007eb565b928339810190606081830312620007c65780516001600160401b039290838111620007c657816200005191840162000811565b9060209081840151858111620007c65786916200007091860162000811565b9301519160ff94858416809403620007c657815193818511620006c6576003918254956001948588811c98168015620007bb575b87891014620007a5578190601f988981116200074f575b508790898311600114620006e857600092620006dc575b505060001982861b1c191690851b1783555b8651908111620006c65760049687548581811c91168015620006bb575b87821014620006a65790818884931162000650575b508690888311600114620005e957600092620005dd575b505060001982851b1c191690841b1786555b60ff1990816006541617600655600080526005918285526200017588858b6000200154166200016e8162000883565b15620008a4565b600080528285526002896000208581018685825416179055600081550133156200058e5780546001600160a01b0319163317905560008080528386528990208401548816620001c48162000883565b156200053657620001d4620007cb565b6000815284600052838652620001f789868c6000200154166200016e8162000883565b84600052838652818a600020868101600286825416179055600081550190856000905b62000492575b5050506000805282855287848a6000200154166200023e8162000883565b156200043a57908793929162000253620007cb565b906000825260026000528387526200027886868d6000200154166200016e8162000883565b60026000528387528a600020858101600285825416179055600081550190846000905b62000386575b5050505060008052835286600020015416620002bd8162000883565b156200032f5761010061ff00196006541617938460081c1615620002ef57505050600655516117b29081620008f28239f35b845162461bcd60e51b81529283015260248201527f5265656e7472616e637947756172643a207265656e7472616e742063616c6c00604482015260649150fd5b8260849186519162461bcd60e51b835282015260386024820152600080516020620020a483398151915260448201527f20746f206d616e61676520612073686172656420726f6c6500000000000000006064820152fd5b909192939495825182101562000431575080851b82018701516001600160a01b03168015620003f0576000528287528a60002086858254161790556000198114620003db57899594939291908501856200029b565b601189634e487b7160e01b6000525260246000fd5b60648a8a8a8f519262461bcd60e51b845283015260248201527f43616e6e6f74206164642030783020746f20612073686172656420726f6c65006044820152fd5b959493620002a1565b885162461bcd60e51b815280880186905260386024820152600080516020620020a483398151915260448201527f20746f206d616e61676520612073686172656420726f6c6500000000000000006064820152608490fd5b8151811015620005305780861b82018801516001600160a01b03168015620004ee576000528288528b60002087868254161790556000198114620004d9578601866200021a565b60118a634e487b7160e01b6000525260246000fd5b5060648a8a8a8f519262461bcd60e51b845283015260248201527f43616e6e6f74206164642030783020746f20612073686172656420726f6c65006044820152fd5b62000220565b885162461bcd60e51b8152808801869052603c6024820152600080516020620020a483398151915260448201527f20746f206d616e61676520616e206578636c757369766520726f6c65000000006064820152608490fd5b895162461bcd60e51b8152808901879052602360248201527f43616e6e6f742073657420616e206578636c757369766520726f6c6520746f2060448201526203078360ec1b6064820152608490fd5b0151905038806200012d565b90869350601f198316918a600052886000209260005b8a82821062000639575050841162000620575b505050811b0186556200013f565b015160001983871b60f8161c1916905538808062000612565b8385015186558a97909501949384019301620005ff565b90915088600052866000208880850160051c8201928986106200069c575b918891869594930160051c01915b8281106200068c57505062000116565b600081558594508891016200067c565b925081926200066e565b602289634e487b7160e01b6000525260246000fd5b90607f169062000101565b634e487b7160e01b600052604160045260246000fd5b015190503880620000d2565b90879350601f1983169187600052896000209260005b8b8282106200073857505084116200071f575b505050811b018355620000e4565b015160001983881b60f8161c1916905538808062000711565b8385015186558b97909501949384019301620006fe565b90915085600052876000208980850160051c8201928a86106200079b575b918991869594930160051c01915b8281106200078b575050620000bb565b600081558594508991016200077b565b925081926200076d565b634e487b7160e01b600052602260045260246000fd5b97607f1697620000a4565b600080fd5b60405190602082016001600160401b03811183821017620006c657604052565b6040519190601f01601f191682016001600160401b03811183821017620006c657604052565b919080601f84011215620007c65782516001600160401b038111620006c65760209062000847601f8201601f19168301620007eb565b92818452828287010111620007c65760005b8181106200086f57508260009394955001015290565b858101830151848201840152820162000859565b600311156200088e57565b634e487b7160e01b600052602160045260246000fd5b15620008ac57565b60405162461bcd60e51b815260206004820152601e60248201527f43616e6e6f74207573652061207072652d6578697374696e6720726f6c6500006044820152606490fdfe60406080815260048036101561001457600080fd5b600091823560e01c80630284685814610f3f57806306fdde0314610e64578063095ea7b314610e3a57806318160ddd14610e1b57806323b872dd14610d515780633092afd514610c86578063313ce56714610c645780633950935114610c1457806340c10f1914610b4457806342966c6814610b175780634334614a14610ae95780636be7658b14610a4157806370a0823114610a0a57806373cc802a1461093b57806374d0a6761461084657806379cc6790146108115780637cdc1cb9146107e957806395d89b41146106c9578063983b2d56146105b3578063a457c2d71461050c578063a9059cbb146104db578063aa271e1a146104a4578063aaa14ca314610413578063ab3545e5146103bf578063d97c05be146102bd578063dd62ed3e146102705763f44637ba1461014957600080fd5b3461026c57602090816003193601126102685761016461100a565b61016c611707565b61ff0019928360065416600655600286526005815261019f600260ff6001868a2001541661019981611317565b146116a6565b60028652600581526101bd6101b88488205433906115cc565b61164e565b60028652600581526003838720019160018060a01b0316948515610227575084865252808420805460ff1916600117905551916101009190339060027f63502af7324ff6db91ab38f8236a648727d9385ea6c782073dd4882d8a61a48f8787a46006541617600655f35b60649184519162461bcd60e51b8352820152601f60248201527f43616e6e6f74206164642030783020746f20612073686172656420726f6c65006044820152fd5b8380fd5b8280fd5b8382346102b957806003193601126102b9578060209261028e61100a565b610296611025565b6001600160a01b0391821683526001865283832091168252845220549051908152f35b5080fd5b503461026c578060031936011261026c578135906102d9611025565b82855260056020526102fe600160ff818589200154166102f881611317565b146115ea565b82855260056020526103176101b88387205433906115cc565b82855260056020526002828620019060018060a01b0316938415610370575080546001600160a01b03191684179055519133917f3b855c56b409b671c7112789d022675eb639d0bcb8896f1b6197c132f799e7468585a4f35b608490602084519162461bcd60e51b8352820152602360248201527f43616e6e6f742073657420616e206578636c757369766520726f6c6520746f2060448201526203078360ec1b6064820152fd5b50903461026c57602036600319011261026c579160209235808252600584526103f5600160ff818686200154166102f881611317565b8152600583528190206002015490516001600160a01b039091168152f35b50903461026c57602036600319011261026c5735908183526005602052610448600260ff600184872001541661019981611317565b61045a61045533846115cc565b611337565b818352600560205261048a336003838620019060018060a01b0316600052602052604060002060ff198154169055565b51903390339060008051602061175d8339815191528585a4f35b8382346102b95760203660031901126102b9576020906104d26104c561100a565b6104cd611707565b611495565b90519015158152f35b8382346102b957806003193601126102b9576020906105056104fb61100a565b60243590336110a7565b5160018152f35b5091346105b057826003193601126105b05761052661100a565b918360243592338152600160205281812060018060a01b038616825260205220549082821061055f576020856105058585038733611215565b608490602086519162461bcd60e51b8352820152602560248201527f45524332303a2064656372656173656420616c6c6f77616e63652062656c6f77604482015264207a65726f60d81b6064820152fd5b80fd5b509190346102b9576020928360031936011261026c576105d161100a565b6105d9611707565b61ff001991826006541660065560019182865260058752610607600260ff85858a2001541661019981611317565b8286526005875261061f6101b88388205433906115cc565b828652600587526003828720019060018060a01b03169485156106865750859685610100969752528086208260ff19825416179055519333917f63502af7324ff6db91ab38f8236a648727d9385ea6c782073dd4882d8a61a48f8787a46006541617600655f35b825162461bcd60e51b8152908101889052601f60248201527f43616e6e6f74206164642030783020746f20612073686172656420726f6c65006044820152606490fd5b508290346102b957816003193601126102b957805190828454600181811c908083169283156107df575b60209384841081146107cc578388529081156107b0575060011461075b575b505050829003601f01601f191682019267ffffffffffffffff841183851017610748575082918261074492528261103b565b0390f35b634e487b7160e01b815260418552602490fd5b8787529192508591837f8a35acfbc15ff81a39ae7d344fd709f28e8600b4aa8c65c6b64bfe7fe36bd19b5b83851061079c5750505050830101858080610712565b805488860183015293019284908201610786565b60ff1916878501525050151560051b8401019050858080610712565b634e487b7160e01b895260228a52602489fd5b91607f16916106f3565b5082346105b057816003193601126105b057506104d260209261080a611025565b90356115cc565b8382346102b957806003193601126102b95760209061050561083161100a565b61083d61045533611572565b6024359061138e565b503461026c578060031936011261026c57813590610862611025565b8285526005602052610882600260ff600185892001541661019981611317565b828552600560205261089b6101b88387205433906115cc565b82855260056020526003828620019060018060a01b03169384156108f85750838552602052808420805460ff19166001179055519133917f63502af7324ff6db91ab38f8236a648727d9385ea6c782073dd4882d8a61a48f8585a4f35b606490602084519162461bcd60e51b8352820152601f60248201527f43616e6e6f74206164642030783020746f20612073686172656420726f6c65006044820152fd5b503461026c57602036600319011261026c5761095561100a565b9061095e611707565b61ff0019918260065416600655848052600560205261098a600160ff818589200154166102f881611317565b84805260056020526109a36101b88387205433906115cc565b84805260056020526002828620019060018060a01b0316938415610370575080546001600160a01b03191684179055519161010091903390857f3b855c56b409b671c7112789d022675eb639d0bcb8896f1b6197c132f799e7468187a46006541617600655f35b8382346102b95760203660031901126102b95760209181906001600160a01b03610a3261100a565b16815280845220549051908152f35b50903461026c578160031936011261026c573590610a5d611025565b908284526005602052610a7e600260ff600184882001541661019981611317565b8284526005602052610a976101b88286205433906115cc565b8284526005602052610ac7826003838720019060018060a01b0316600052602052604060002060ff198154169055565b519133916001600160a01b03169060008051602061175d8339815191528585a4f35b8382346102b95760203660031901126102b9576020906104d2610b0a61100a565b610b12611707565b611572565b50903461026c57602036600319011261026c57610b4190610b3a61045533611572565b353361138e565b51f35b5082346105b057816003193601126105b057610b5e61100a565b9060243591610b6f61045533611495565b6001600160a01b0316918215610bd157602080955081610bb27fddf252ad1be2c89b69c2b068fc378daa952ba7f163c4a11628f55a4df523b3ef93600254611084565b6002558484528382528584208181540190558551908152a35160018152f35b835162461bcd60e51b8152602081870152601f60248201527f45524332303a206d696e7420746f20746865207a65726f2061646472657373006044820152606490fd5b8382346102b957806003193601126102b957610505602092610c5d610c3761100a565b338352600186528483206001600160a01b03821684528652918490205460243590611084565b9033611215565b8382346102b957816003193601126102b95760209060ff600654169051908152f35b8382346102b95760203660031901126102b957610100610ca461100a565b91610cad611707565b61ff0019908160065416600655600185526005602052610cdb600260ff600184892001541661019981611317565b600185526005602052610cf56101b88287205433906115cc565b600185526005602052610d26846003838820019060018060a01b0316600052602052604060002060ff198154169055565b519233906001600160a01b0316600160008051602061175d8339815191528787a46006541617600655f35b509190346102b95760603660031901126102b957610d6d61100a565b610d75611025565b91846044359460018060a01b038416815260016020528181203382526020522054906000198203610daf575b6020866105058787876110a7565b848210610dd85750918391610dcd6020969561050595033383611215565b919394819350610da1565b606490602087519162461bcd60e51b8352820152601d60248201527f45524332303a20696e73756666696369656e7420616c6c6f77616e63650000006044820152fd5b8382346102b957816003193601126102b9576020906002549051908152f35b8382346102b957806003193601126102b957602090610505610e5a61100a565b6024359033611215565b508290346102b957816003193601126102b95780519082600354600181811c90808316928315610f35575b60209384841081146107cc578388529081156107b05750600114610edf57505050829003601f01601f191682019267ffffffffffffffff841183851017610748575082918261074492528261103b565b600387529192508591837fc2575a0e9e593c00f959f8c92f12db2869c3395a3b0502d05e2516446f71f85b5b838510610f215750505050830101858080610712565b805488860183015293019284908201610f0b565b91607f1691610e8f565b8382346102b95760203660031901126102b957610100610f5d61100a565b91610f66611707565b61ff0019908160065416600655600285526005602052610f94600260ff600184892001541661019981611317565b600285526005602052610fae6101b88287205433906115cc565b600285526005602052610fdf846003838820019060018060a01b0316600052602052604060002060ff198154169055565b519233906001600160a01b0316600260008051602061175d8339815191528787a46006541617600655f35b600435906001600160a01b038216820361102057565b600080fd5b602435906001600160a01b038216820361102057565b6020808252825181830181905290939260005b82811061107057505060409293506000838284010152601f8019910116010190565b81810186015184820160400152850161104e565b9190820180921161109157565b634e487b7160e01b600052601160045260246000fd5b6001600160a01b039081169182156111c257169182156111715760008281528060205260408120549180831061111d57604082827fddf252ad1be2c89b69c2b068fc378daa952ba7f163c4a11628f55a4df523b3ef958760209652828652038282205586815220818154019055604051908152a3565b60405162461bcd60e51b815260206004820152602660248201527f45524332303a207472616e7366657220616d6f756e7420657863656564732062604482015265616c616e636560d01b6064820152608490fd5b60405162461bcd60e51b815260206004820152602360248201527f45524332303a207472616e7366657220746f20746865207a65726f206164647260448201526265737360e81b6064820152608490fd5b60405162461bcd60e51b815260206004820152602560248201527f45524332303a207472616e736665722066726f6d20746865207a65726f206164604482015264647265737360d81b6064820152608490fd5b6001600160a01b039081169182156112c657169182156112765760207f8c5be1e5ebec7d5bd14f71427d1e84f3dd0314c0f7b2291e5b200ac8c7c3b925918360005260018252604060002085600052825280604060002055604051908152a3565b60405162461bcd60e51b815260206004820152602260248201527f45524332303a20617070726f766520746f20746865207a65726f206164647265604482015261737360f01b6064820152608490fd5b60405162461bcd60e51b8152602060048201526024808201527f45524332303a20617070726f76652066726f6d20746865207a65726f206164646044820152637265737360e01b6064820152608490fd5b6003111561132157565b634e487b7160e01b600052602160045260246000fd5b1561133e57565b60405162461bcd60e51b815260206004820152602260248201527f53656e64657220646f6573206e6f7420686f6c6420726571756972656420726f6044820152616c6560f01b6064820152608490fd5b6001600160a01b03168015611446576000918183528260205260408320548181106113f657817fddf252ad1be2c89b69c2b068fc378daa952ba7f163c4a11628f55a4df523b3ef926020928587528684520360408620558060025403600255604051908152a3565b60405162461bcd60e51b815260206004820152602260248201527f45524332303a206275726e20616d6f756e7420657863656564732062616c616e604482015261636560f01b6064820152608490fd5b60405162461bcd60e51b815260206004820152602160248201527f45524332303a206275726e2066726f6d20746865207a65726f206164647265736044820152607360f81b6064820152608490fd5b600160005260056020527f1471eb6eb2c5e789fc3de43f8ce62938c7d1836ec861730447e2ada8fd81017c547f1471eb6eb2c5e789fc3de43f8ce62938c7d1836ec861730447e2ada8fd81017b9060ff166114ef81611317565b6001810361150d5750600201546001600160a01b0391821691161490565b80611519600292611317565b146115545760405162461bcd60e51b815260206004820152600e60248201526d125b9d985b1a59081c9bdb19525960921b6044820152606490fd5b60039160018060a01b03166000520160205260ff6040600020541690565b600260005260056020527f89832631fb3c3307a103ba2c84ab569c64d6182a18893dcd163f0f1c2090733b547f89832631fb3c3307a103ba2c84ab569c64d6182a18893dcd163f0f1c2090733a9060ff166114ef81611317565b6000526005602052604060002060ff6001820154166114ef81611317565b156115f157565b60405162461bcd60e51b815260206004820152602f60248201527f4d7573742062652063616c6c6564206f6e20616e20696e697469616c697a656460448201526e204578636c757369766520726f6c6560881b6064820152608490fd5b1561165557565b60405162461bcd60e51b8152602060048201526024808201527f43616e206f6e6c792062652063616c6c6564206279206120726f6c65206d616e60448201526330b3b2b960e11b6064820152608490fd5b156116ad57565b60405162461bcd60e51b815260206004820152602c60248201527f4d7573742062652063616c6c6564206f6e20616e20696e697469616c697a656460448201526b2053686172656420726f6c6560a01b6064820152608490fd5b60ff60065460081c161561171757565b60405162461bcd60e51b815260206004820152601f60248201527f5265656e7472616e637947756172643a207265656e7472616e742063616c6c006044820152606490fdfeeb3e33034c392e69263b04ec0fa376dc12784a41b6676c7f31b936cbc0fbb5afa26469706673582212207e94ec2549cc5eac65d3ba04ab6bfa51e64e5dc4c828ffbce39686be8ce0a3d364736f6c63430008100033417474656d7074656420746f2075736520616e20696e76616c696420726f6c65a26469706673582212200f48139a6ed0a3ebfac3d7979174b17d0a28ffee32465a50bc44acab133eff5464736f6c63430008100033",
  "devdoc": {
    "kind": "dev",
    "methods": {
      "createToken(string,string,uint8)": {
        "details": "The caller will become the only minter and burner and the new owner capable of assigning the roles.",
        "params": {
          "tokenDecimals": "used to define the precision used in the token's numerical representation.",
          "tokenName": "used to describe the new token.",
          "tokenSymbol": "short ticker abbreviation of the name. Ideally < 5 chars."
        },
        "returns": {
          "newToken": "an instance of the newly created token interface."
        }
      }
    },
    "title": "Factory for creating new mintable and burnable tokens.",
    "version": 1
  },
  "userdoc": {
    "kind": "user",
    "methods": {
      "createToken(string,string,uint8)": {
        "notice": "Create a new token and return it to the caller."
      }
    },
    "version": 1
  },
  "storageLayout": {
    "storage": [
      {
        "astId": 16304,
        "contract": "contracts/financial-templates/common/TokenFactory.sol:TokenFactory",
        "label": "_notEntered",
        "offset": 0,
        "slot": "0",
        "type": "t_bool"
      }
    ],
    "types": {
      "t_bool": {
        "encoding": "inplace",
        "label": "bool",
        "numberOfBytes": "1"
      }
    }
  }
}