{
  "address": "0x473411E26885aE3A291EF4F4eB430F33946EDAD7",
  "abi": [
    {
      "inputs": [],
      "stateMutability": "nonpayable",
      "type": "constructor"
    },
    {
      "anonymous": false,
      "inputs": [
        {
          "indexed": true,
          "internalType": "uint256",
          "name": "roleId",
          "type": "uint256"
        },
        {
          "indexed": true,
          "internalType": "address",
          "name": "newMember",
          "type": "address"
        },
        {
          "indexed": true,
          "internalType": "address",
          "name": "manager",
          "type": "address"
        }
      ],
      "name": "AddedSharedMember",
      "type": "event"
    },
    {
      "anonymous": false,
      "inputs": [
        {
          "indexed": true,
          "internalType": "address",
          "name": "owner",
          "type": "address"
        },
        {
          "indexed": true,
          "internalType": "address",
          "name": "spender",
          "type": "address"
        },
        {
          "indexed": false,
          "internalType": "uint256",
          "name": "value",
          "type": "uint256"
        }
      ],
      "name": "Approval",
      "type": "event"
    },
    {
      "anonymous": false,
      "inputs": [
        {
          "indexed": true,
          "internalType": "uint256",
          "name": "roleId",
          "type": "uint256"
        },
        {
          "indexed": true,
          "internalType": "address",
          "name": "oldMember",
          "type": "address"
        },
        {
          "indexed": true,
          "internalType": "address",
          "name": "manager",
          "type": "address"
        }
      ],
      "name": "RemovedSharedMember",
      "type": "event"
    },
    {
      "anonymous": false,
      "inputs": [
        {
          "indexed": true,
          "internalType": "uint256",
          "name": "roleId",
          "type": "uint256"
        },
        {
          "indexed": true,
          "internalType": "address",
          "name": "newMember",
          "type": "address"
        },
        {
          "indexed": true,
          "internalType": "address",
          "name": "manager",
          "type": "address"
        }
      ],
      "name": "ResetExclusiveMember",
      "type": "event"
    },
    {
      "anonymous": false,
      "inputs": [
        {
          "indexed": false,
          "internalType": "uint256",
          "name": "id",
          "type": "uint256"
        }
      ],
      "name": "Snapshot",
      "type": "event"
    },
    {
      "anonymous": false,
      "inputs": [
        {
          "indexed": true,
          "internalType": "address",
          "name": "from",
          "type": "address"
        },
        {
          "indexed": true,
          "internalType": "address",
          "name": "to",
          "type": "address"
        },
        {
          "indexed": false,
          "internalType": "uint256",
          "name": "value",
          "type": "uint256"
        }
      ],
      "name": "Transfer",
      "type": "event"
    },
    {
      "inputs": [
        {
          "internalType": "address",
          "name": "account",
          "type": "address"
        }
      ],
      "name": "addBurner",
      "outputs": [],
      "stateMutability": "nonpayable",
      "type": "function"
    },
    {
      "inputs": [
        {
          "internalType": "uint256",
          "name": "roleId",
          "type": "uint256"
        },
        {
          "internalType": "address",
          "name": "newMember",
          "type": "address"
        }
      ],
      "name": "addMember",
      "outputs": [],
      "stateMutability": "nonpayable",
      "type": "function"
    },
    {
      "inputs": [
        {
          "internalType": "address",
          "name": "account",
          "type": "address"
        }
      ],
      "name": "addMinter",
      "outputs": [],
      "stateMutability": "nonpayable",
      "type": "function"
    },
    {
      "inputs": [
        {
          "internalType": "address",
          "name": "owner",
          "type": "address"
        },
        {
          "internalType": "address",
          "name": "spender",
          "type": "address"
        }
      ],
      "name": "allowance",
      "outputs": [
        {
          "internalType": "uint256",
          "name": "",
          "type": "uint256"
        }
      ],
      "stateMutability": "view",
      "type": "function"
    },
    {
      "inputs": [
        {
          "internalType": "address",
          "name": "spender",
          "type": "address"
        },
        {
          "internalType": "uint256",
          "name": "amount",
          "type": "uint256"
        }
      ],
      "name": "approve",
      "outputs": [
        {
          "internalType": "bool",
          "name": "",
          "type": "bool"
        }
      ],
      "stateMutability": "nonpayable",
      "type": "function"
    },
    {
      "inputs": [
        {
          "internalType": "address",
          "name": "account",
          "type": "address"
        }
      ],
      "name": "balanceOf",
      "outputs": [
        {
          "internalType": "uint256",
          "name": "",
          "type": "uint256"
        }
      ],
      "stateMutability": "view",
      "type": "function"
    },
    {
      "inputs": [
        {
          "internalType": "address",
          "name": "account",
          "type": "address"
        },
        {
          "internalType": "uint256",
          "name": "snapshotId",
          "type": "uint256"
        }
      ],
      "name": "balanceOfAt",
      "outputs": [
        {
          "internalType": "uint256",
          "name": "",
          "type": "uint256"
        }
      ],
      "stateMutability": "view",
      "type": "function"
    },
    {
      "inputs": [
        {
          "internalType": "uint256",
          "name": "value",
          "type": "uint256"
        }
      ],
      "name": "burn",
      "outputs": [],
      "stateMutability": "nonpayable",
      "type": "function"
    },
    {
      "inputs": [
        {
          "internalType": "address",
          "name": "recipient",
          "type": "address"
        },
        {
          "internalType": "uint256",
          "name": "value",
          "type": "uint256"
        }
      ],
      "name": "burnFrom",
      "outputs": [
        {
          "internalType": "bool",
          "name": "",
          "type": "bool"
        }
      ],
      "stateMutability": "nonpayable",
      "type": "function"
    },
    {
      "inputs": [],
      "name": "decimals",
      "outputs": [
        {
          "internalType": "uint8",
          "name": "",
          "type": "uint8"
        }
      ],
      "stateMutability": "view",
      "type": "function"
    },
    {
      "inputs": [
        {
          "internalType": "address",
          "name": "spender",
          "type": "address"
        },
        {
          "internalType": "uint256",
          "name": "subtractedValue",
          "type": "uint256"
        }
      ],
      "name": "decreaseAllowance",
      "outputs": [
        {
          "internalType": "bool",
          "name": "",
          "type": "bool"
        }
      ],
      "stateMutability": "nonpayable",
      "type": "function"
    },
    {
      "inputs": [
        {
          "internalType": "uint256",
          "name": "roleId",
          "type": "uint256"
        }
      ],
      "name": "getMember",
      "outputs": [
        {
          "internalType": "address",
          "name": "",
          "type": "address"
        }
      ],
      "stateMutability": "view",
      "type": "function"
    },
    {
      "inputs": [
        {
          "internalType": "uint256",
          "name": "roleId",
          "type": "uint256"
        },
        {
          "internalType": "address",
          "name": "memberToCheck",
          "type": "address"
        }
      ],
      "name": "holdsRole",
      "outputs": [
        {
          "internalType": "bool",
          "name": "",
          "type": "bool"
        }
      ],
      "stateMutability": "view",
      "type": "function"
    },
    {
      "inputs": [
        {
          "internalType": "address",
          "name": "spender",
          "type": "address"
        },
        {
          "internalType": "uint256",
          "name": "addedValue",
          "type": "uint256"
        }
      ],
      "name": "increaseAllowance",
      "outputs": [
        {
          "internalType": "bool",
          "name": "",
          "type": "bool"
        }
      ],
      "stateMutability": "nonpayable",
      "type": "function"
    },
    {
      "inputs": [
        {
          "internalType": "address",
          "name": "recipient",
          "type": "address"
        },
        {
          "internalType": "uint256",
          "name": "value",
          "type": "uint256"
        }
      ],
      "name": "mint",
      "outputs": [
        {
          "internalType": "bool",
          "name": "",
          "type": "bool"
        }
      ],
      "stateMutability": "nonpayable",
      "type": "function"
    },
    {
      "inputs": [],
      "name": "name",
      "outputs": [
        {
          "internalType": "string",
          "name": "",
          "type": "string"
        }
      ],
      "stateMutability": "view",
      "type": "function"
    },
    {
      "inputs": [
        {
          "internalType": "uint256",
          "name": "roleId",
          "type": "uint256"
        },
        {
          "internalType": "address",
          "name": "memberToRemove",
          "type": "address"
        }
      ],
      "name": "removeMember",
      "outputs": [],
      "stateMutability": "nonpayable",
      "type": "function"
    },
    {
      "inputs": [
        {
          "internalType": "uint256",
          "name": "roleId",
          "type": "uint256"
        }
      ],
      "name": "renounceMembership",
      "outputs": [],
      "stateMutability": "nonpayable",
      "type": "function"
    },
    {
      "inputs": [
        {
          "internalType": "uint256",
          "name": "roleId",
          "type": "uint256"
        },
        {
          "internalType": "address",
          "name": "newMember",
          "type": "address"
        }
      ],
      "name": "resetMember",
      "outputs": [],
      "stateMutability": "nonpayable",
      "type": "function"
    },
    {
      "inputs": [
        {
          "internalType": "address",
          "name": "account",
          "type": "address"
        }
      ],
      "name": "resetOwner",
      "outputs": [],
      "stateMutability": "nonpayable",
      "type": "function"
    },
    {
      "inputs": [],
      "name": "snapshot",
      "outputs": [
        {
          "internalType": "uint256",
          "name": "",
          "type": "uint256"
        }
      ],
      "stateMutability": "nonpayable",
      "type": "function"
    },
    {
      "inputs": [],
      "name": "symbol",
      "outputs": [
        {
          "internalType": "string",
          "name": "",
          "type": "string"
        }
      ],
      "stateMutability": "view",
      "type": "function"
    },
    {
      "inputs": [],
      "name": "totalSupply",
      "outputs": [
        {
          "internalType": "uint256",
          "name": "",
          "type": "uint256"
        }
      ],
      "stateMutability": "view",
      "type": "function"
    },
    {
      "inputs": [
        {
          "internalType": "uint256",
          "name": "snapshotId",
          "type": "uint256"
        }
      ],
      "name": "totalSupplyAt",
      "outputs": [
        {
          "internalType": "uint256",
          "name": "",
          "type": "uint256"
        }
      ],
      "stateMutability": "view",
      "type": "function"
    },
    {
      "inputs": [
        {
          "internalType": "address",
          "name": "to",
          "type": "address"
        },
        {
          "internalType": "uint256",
          "name": "amount",
          "type": "uint256"
        }
      ],
      "name": "transfer",
      "outputs": [
        {
          "internalType": "bool",
          "name": "",
          "type": "bool"
        }
      ],
      "stateMutability": "nonpayable",
      "type": "function"
    },
    {
      "inputs": [
        {
          "internalType": "address",
          "name": "from",
          "type": "address"
        },
        {
          "internalType": "address",
          "name": "to",
          "type": "address"
        },
        {
          "internalType": "uint256",
          "name": "amount",
          "type": "uint256"
        }
      ],
      "name": "transferFrom",
      "outputs": [
        {
          "internalType": "bool",
          "name": "",
          "type": "bool"
        }
      ],
      "stateMutability": "nonpayable",
      "type": "function"
    }
  ],
  "transactionHash": "0xcfaee8034990c404bfe89b4e15d8d372ffa5bea535c4749926d5230177318934",
  "args": [],
  "solcInputHash": "864d61c65c789401ae17358a5af86557",
  "bytecode": "0x604060808152346200073557620000156200073a565b6013815260207f554d4120566f74696e6720546f6b656e20763100000000000000000000000000818301526200004a6200073a565b600380825262554d4160e81b8383015283519193906001600160401b0380841162000635578154936001938486811c961680156200072a575b8787101462000714578190601f96878111620006be575b50879087831160011462000657576000926200064b575b505060001982851b1c191690841b1782555b8551908111620006355760049586548481811c911680156200062a575b878210146200061557908186849311620005bf575b50869086831160011462000558576000926200054c575b505060001982841b1c191690831b1785555b60ff1960128160065416176006556000805260059182865260ff946200015886868b60002001541662000151816200077a565b156200079b565b60008052838752600289600020868101878682541617905560008155013315620004fd5780546001600160a01b0319163317905560008080528488528990208501548616620001a7816200077a565b15620004a557620001b76200075a565b6000815285600052848852620001da87878c60002001541662000151816200077a565b85600052848852828a600020878101600287825416179055600081550190866000905b62000401575b5050506000805283875285858a60002001541662000221816200077a565b15620003a957620002316200075a565b916000835260026000528488526200025687878c60002001541662000151816200077a565b600260005284885289600020868101600286825416179055600081550191856000905b62000306575b5050505050600080528352846000200154166200029c816200077a565b15620002b1578251611c4c9081620007e98239f35b608492519162461bcd60e51b8352820152603860248201526000805160206200243583398151915260448201527f20746f206d616e61676520612073686172656420726f6c6500000000000000006064820152fd5b8151811015620003a35780861b82018901516001600160a01b0316801562000362576000528389528a600020878682541617905560001981146200034d5786018662000279565b60118a634e487b7160e01b6000525260246000fd5b60648b858c8f519262461bcd60e51b845283015260248201527f43616e6e6f74206164642030783020746f20612073686172656420726f6c65006044820152fd5b6200027f565b885162461bcd60e51b8152808901889052603860248201526000805160206200243583398151915260448201527f20746f206d616e61676520612073686172656420726f6c6500000000000000006064820152608490fd5b81518110156200049f5780871b82018a01516001600160a01b031680156200045d57600052828a528b600020888782541617905560001981146200044857870187620001fd565b60118b634e487b7160e01b6000525260246000fd5b5060648b858c8f519262461bcd60e51b845283015260248201527f43616e6e6f74206164642030783020746f20612073686172656420726f6c65006044820152fd5b62000203565b885162461bcd60e51b8152808901889052603c60248201526000805160206200243583398151915260448201527f20746f206d616e61676520616e206578636c757369766520726f6c65000000006064820152608490fd5b895162461bcd60e51b8152808a01899052602360248201527f43616e6e6f742073657420616e206578636c757369766520726f6c6520746f2060448201526203078360ec1b6064820152608490fd5b0151905038806200010c565b90859350601f1983169189600052886000209260005b8a828210620005a857505084116200058f575b505050811b0185556200011e565b015160001983861b60f8161c1916905538808062000581565b83850151865589979095019493840193016200056e565b90915087600052866000208680850160051c8201928986106200060b575b918791869594930160051c01915b828110620005fb575050620000f5565b60008155859450879101620005eb565b92508192620005dd565b602288634e487b7160e01b6000525260246000fd5b90607f1690620000e0565b634e487b7160e01b600052604160045260246000fd5b015190503880620000b1565b90869350601f1983169186600052896000209260005b8b828210620006a757505084116200068e575b505050811b018255620000c3565b015160001983871b60f8161c1916905538808062000680565b8385015186558a979095019493840193016200066d565b90915084600052876000208780850160051c8201928a86106200070a575b918891869594930160051c01915b828110620006fa5750506200009a565b60008155859450889101620006ea565b92508192620006dc565b634e487b7160e01b600052602260045260246000fd5b95607f169562000083565b600080fd5b60408051919082016001600160401b038111838210176200063557604052565b60405190602082016001600160401b038111838210176200063557604052565b600311156200078557565b634e487b7160e01b600052602160045260246000fd5b15620007a357565b60405162461bcd60e51b815260206004820152601e60248201527f43616e6e6f74207573652061207072652d6578697374696e6720726f6c6500006044820152606490fdfe608060408181526004908136101561001657600080fd5b600092833560e01c90816306fdde031461121457508063095ea7b3146111ea57806318160ddd146111cb57806323b872dd14610fc0578063313ce56714610f9e5780633950935114610f4e57806340c10f1914610e7f57806342966c6814610d675780634ee2cd7e14610d0a5780636be7658b14610c5057806370a0823114610c1957806373cc802a14610b6d57806374d0a67614610a7857806379cc6790146109495780637cdc1cb91461091857806395d89b41146107f85780639711715a146107aa578063981b24d014610771578063983b2d56146106c3578063a457c2d714610618578063a9059cbb1461048d578063aaa14ca3146103ea578063ab3545e514610396578063d97c05be14610294578063dd62ed3e146102475763f44637ba1461014257600080fd5b346102435760208060031936011261023f5761015c611336565b906002855260058152610183600260ff600186892001541661017d8161179a565b14611a22565b60028552600581526101a161019c848720543390611948565b6119ca565b60028552600581526003838620019160018060a01b03169384156101fe575083855252808320805460ff191660011790555190339060027f63502af7324ff6db91ab38f8236a648727d9385ea6c782073dd4882d8a61a48f8585a4f35b60649184519162461bcd60e51b8352820152601f60248201527f43616e6e6f74206164642030783020746f20612073686172656420726f6c65006044820152fd5b8380fd5b8280fd5b83823461029057806003193601126102905780602092610265611336565b61026d611351565b6001600160a01b0391821683526001865283832091168252845220549051908152f35b5080fd5b50346102435780600319360112610243578135906102b0611351565b82855260056020526102d5600160ff818589200154166102cf8161179a565b14611966565b82855260056020526102ee61019c838720543390611948565b82855260056020526002828620019060018060a01b0316938415610347575080546001600160a01b03191684179055519133917f3b855c56b409b671c7112789d022675eb639d0bcb8896f1b6197c132f799e7468585a4f35b608490602084519162461bcd60e51b8352820152602360248201527f43616e6e6f742073657420616e206578636c757369766520726f6c6520746f2060448201526203078360ec1b6064820152fd5b509034610243576020366003190112610243579160209235808252600584526103cc600160ff818686200154166102cf8161179a565b8152600583528190206002015490516001600160a01b039091168152f35b509034610243576020366003190112610243573590818352600560205261041f600260ff600184872001541661017d8161179a565b61043161042c3384611948565b6117ba565b8183526005602052610461336003838620019060018060a01b0316600052602052604060002060ff198154169055565b5190339033907feb3e33034c392e69263b04ec0fa376dc12784a41b6676c7f31b936cbc0fbb5af8585a4f35b5082346106155781600319360112610615576104a7611336565b906024359033156105c4576001600160a01b038316928315610575576104d5906104d033611a83565b611a83565b33815280602052838120548281106105235760209550908285923383528288520382822055838152208181540190558251908152600080516020611bf7833981519152843392a35160018152f35b845162461bcd60e51b8152602081880152602660248201527f45524332303a207472616e7366657220616d6f756e7420657863656564732062604482015265616c616e636560d01b6064820152608490fd5b845162461bcd60e51b8152602081880152602360248201527f45524332303a207472616e7366657220746f20746865207a65726f206164647260448201526265737360e81b6064820152608490fd5b835162461bcd60e51b8152602081870152602560248201527f45524332303a207472616e736665722066726f6d20746865207a65726f206164604482015264647265737360d81b6064820152608490fd5b80fd5b509134610615578260031936011261061557610632611336565b918360243592338152600160205281812060018060a01b03861682526020522054908282106106725760208561066b858503873361138a565b5160018152f35b608490602086519162461bcd60e51b8352820152602560248201527f45524332303a2064656372656173656420616c6c6f77616e63652062656c6f77604482015264207a65726f60d81b6064820152fd5b5034610243576020908160031936011261023f576106df611336565b60019283865260058152610700600260ff86868a2001541661017d8161179a565b8386526005815261071861019c848820543390611948565b838652600581526003838720019160018060a01b03169485156101fe575084865252808420805460ff191683179055519133917f63502af7324ff6db91ab38f8236a648727d9385ea6c782073dd4882d8a61a48f8585a4f35b509034610243576020366003190112610243579161079160209335611528565b9150156107a057905b51908152f35b506002549061079a565b8382346102905781600319360112610290576020906001600a54019081600a557f8030e83b04d87bef53480e26263266d6ca66863aa8506aca6f2559d18aa1cb67838251848152a151908152f35b50829034610290578160031936011261029057805190828454600181811c9080831692831561090e575b60209384841081146108fb578388529081156108df575060011461088a575b505050829003601f01601f191682019267ffffffffffffffff84118385101761087757508291826108739252826112ed565b0390f35b634e487b7160e01b815260418552602490fd5b8787529192508591837f8a35acfbc15ff81a39ae7d344fd709f28e8600b4aa8c65c6b64bfe7fe36bd19b5b8385106108cb5750505050830101858080610841565b8054888601830152930192849082016108b5565b60ff1916878501525050151560051b8401019050858080610841565b634e487b7160e01b895260228a52602489fd5b91607f1691610822565b50823461061557816003193601126106155750610940602092610939611351565b9035611948565b90519015158152f35b508234610615578160031936011261061557610963611336565b60243561097261042c336118ee565b6001600160a01b038216918215610a2b5761098c90611a83565b610994611ad2565b81835282602052838320548181106109dd576020955081600080516020611bf7833981519152928792858752868452038686205580600254036002558551908152a35160018152f35b845162461bcd60e51b8152602081880152602260248201527f45524332303a206275726e20616d6f756e7420657863656564732062616c616e604482015261636560f01b6064820152608490fd5b845162461bcd60e51b8152602081880152602160248201527f45524332303a206275726e2066726f6d20746865207a65726f206164647265736044820152607360f81b6064820152608490fd5b5034610243578060031936011261024357813590610a94611351565b8285526005602052610ab4600260ff600185892001541661017d8161179a565b8285526005602052610acd61019c838720543390611948565b82855260056020526003828620019060018060a01b0316938415610b2a5750838552602052808420805460ff19166001179055519133917f63502af7324ff6db91ab38f8236a648727d9385ea6c782073dd4882d8a61a48f8585a4f35b606490602084519162461bcd60e51b8352820152601f60248201527f43616e6e6f74206164642030783020746f20612073686172656420726f6c65006044820152fd5b503461024357602036600319011261024357610b87611336565b8380526005602052610ba6600160ff818588200154166102cf8161179a565b8380526005602052610bbf61019c838620543390611948565b83805260056020526002828520019060018060a01b0316928315610347575080546001600160a01b0319168317905551903390837f3b855c56b409b671c7112789d022675eb639d0bcb8896f1b6197c132f799e7468185a4f35b8382346102905760203660031901126102905760209181906001600160a01b03610c41611336565b16815280845220549051908152f35b5090346102435781600319360112610243573590610c6c611351565b908284526005602052610c8d600260ff600184882001541661017d8161179a565b8284526005602052610ca661019c828620543390611948565b8284526005602052610cd6826003838720019060018060a01b0316600052602052604060002060ff198154169055565b519133916001600160a01b0316907feb3e33034c392e69263b04ec0fa376dc12784a41b6676c7f31b936cbc0fbb5af8585a4f35b838234610290578060031936011261029057602091816001600160a01b03610d30611336565b169182815260078552610d478282206024356115ec565b939015610d58575050509051908152f35b8152808552205491905061079a565b5090346102435760208060031936011261023f57813591610d8a61042c336118ee565b3315610e3457610d9933611a83565b610da1611ad2565b3385528482528385205490838210610de6575082918593600080516020611bf7833981519152923386528583520385852055826002540360025584519283523392a351f35b845162461bcd60e51b8152908101839052602260248201527f45524332303a206275726e20616d6f756e7420657863656564732062616c616e604482015261636560f01b6064820152608490fd5b60849184519162461bcd60e51b8352820152602160248201527f45524332303a206275726e2066726f6d20746865207a65726f206164647265736044820152607360f81b6064820152fd5b508234610615578160031936011261061557610e99611336565b90602435610ea961042c33611811565b6001600160a01b038316928315610f0b5760209550600080516020611bf783398151915291610ed88792611a83565b610ee0611ad2565b610eec81600254611367565b6002558484528382528584208181540190558551908152a35160018152f35b845162461bcd60e51b8152602081880152601f60248201527f45524332303a206d696e7420746f20746865207a65726f2061646472657373006044820152606490fd5b83823461029057806003193601126102905761066b602092610f97610f71611336565b338352600186528483206001600160a01b03821684528652918490205460243590611367565b903361138a565b83823461029057816003193601126102905760209060ff600654169051908152f35b50823461061557606036600319011261061557610fdb611336565b90610fe4611351565b906044359060018060a01b03958685169384835260209760018952878420338552895287842054600019810361116e575b50851561111d5781169586156110ce57906104d061103292611a83565b838252818752858220549083821061107c575091858282600080516020611bf783398151915295878b96528286520382822055868152208181540190558551908152a35160018152f35b865162461bcd60e51b8152908101889052602660248201527f45524332303a207472616e7366657220616d6f756e7420657863656564732062604482015265616c616e636560d01b6064820152608490fd5b875162461bcd60e51b81528084018a9052602360248201527f45524332303a207472616e7366657220746f20746865207a65726f206164647260448201526265737360e81b6064820152608490fd5b875162461bcd60e51b81528084018a9052602560248201527f45524332303a207472616e736665722066726f6d20746865207a65726f206164604482015264647265737360d81b6064820152608490fd5b85811061118857856111829103338961138a565b89611015565b885162461bcd60e51b81528085018b9052601d60248201527f45524332303a20696e73756666696369656e7420616c6c6f77616e63650000006044820152606490fd5b8382346102905781600319360112610290576020906002549051908152f35b83823461029057806003193601126102905760209061066b61120a611336565b602435903361138a565b905083913461024357826003193601126102435782600354600181811c908083169283156112e3575b60209384841081146108fb578388529081156108df575060011461128d57505050829003601f01601f191682019267ffffffffffffffff84118385101761087757508291826108739252826112ed565b600387529192508591837fc2575a0e9e593c00f959f8c92f12db2869c3395a3b0502d05e2516446f71f85b5b8385106112cf5750505050830101858080610841565b8054888601830152930192849082016112b9565b91607f169161123d565b6020808252825181830181905290939260005b82811061132257505060409293506000838284010152601f8019910116010190565b818101860151848201604001528501611300565b600435906001600160a01b038216820361134c57565b600080fd5b602435906001600160a01b038216820361134c57565b9190820180921161137457565b634e487b7160e01b600052601160045260246000fd5b6001600160a01b0390811691821561143b57169182156113eb5760207f8c5be1e5ebec7d5bd14f71427d1e84f3dd0314c0f7b2291e5b200ac8c7c3b925918360005260018252604060002085600052825280604060002055604051908152a3565b60405162461bcd60e51b815260206004820152602260248201527f45524332303a20617070726f766520746f20746865207a65726f206164647265604482015261737360f01b6064820152608490fd5b60405162461bcd60e51b8152602060048201526024808201527f45524332303a20617070726f76652066726f6d20746865207a65726f206164646044820152637265737360e01b6064820152608490fd5b6009548110156114c35760096000527f6e1540171b6c0c960b71a7020d9f60077f6af931a8bbf590da0223dacf75c7af0190600090565b634e487b7160e01b600052603260045260246000fd5b6008548110156114c35760086000527ff3f7a9fe364faab93b216da50a3214154f22a0a2b415b23a84c8169e8b636ee30190600090565b80548210156114c35760005260206000200190600090565b80156115ae57600a5481116115695761154090611623565b60085481036115525750600090600090565b61155b9061148c565b90549060031b1c9060019190565b60405162461bcd60e51b815260206004820152601d60248201527f4552433230536e617073686f743a206e6f6e6578697374656e742069640000006044820152606490fd5b60405162461bcd60e51b815260206004820152601660248201527504552433230536e617073686f743a20696420697320360541b6044820152606490fd5b80156115ae57600a548111611569576116059082611700565b81548103611617575050600090600090565b600161155b9201611510565b600880549182156116f8576000925b80841061169a5750821515918261165d575b50501561165a5760001981019081116113745790565b90565b90915082600019810111611374576000527ff3f7a9fe364faab93b216da50a3214154f22a0a2b415b23a84c8169e8b636ee2820154143880611644565b6001906116ad818618831c828716611367565b918460005283837ff3f7a9fe364faab93b216da50a3214154f22a0a2b415b23a84c8169e8b636ee30154116000146116e6575050611632565b90945081018091116113745792611632565b505050600090565b80549182156116f8576000925b808410611758575082151591826117345750501561165a5760001981019081116113745790565b90915060001990838281011161137457600052826020600020010154143880611644565b60019061176b818618831c828716611367565b91846000528383602060002001541160001461178857505061170d565b9094508101809111611374579261170d565b600311156117a457565b634e487b7160e01b600052602160045260246000fd5b156117c157565b60405162461bcd60e51b815260206004820152602260248201527f53656e64657220646f6573206e6f7420686f6c6420726571756972656420726f6044820152616c6560f01b6064820152608490fd5b600160005260056020527f1471eb6eb2c5e789fc3de43f8ce62938c7d1836ec861730447e2ada8fd81017c547f1471eb6eb2c5e789fc3de43f8ce62938c7d1836ec861730447e2ada8fd81017b9060ff1661186b8161179a565b600181036118895750600201546001600160a01b0391821691161490565b8061189560029261179a565b146118d05760405162461bcd60e51b815260206004820152600e60248201526d125b9d985b1a59081c9bdb19525960921b6044820152606490fd5b60039160018060a01b03166000520160205260ff6040600020541690565b600260005260056020527f89832631fb3c3307a103ba2c84ab569c64d6182a18893dcd163f0f1c2090733b547f89832631fb3c3307a103ba2c84ab569c64d6182a18893dcd163f0f1c2090733a9060ff1661186b8161179a565b6000526005602052604060002060ff60018201541661186b8161179a565b1561196d57565b60405162461bcd60e51b815260206004820152602f60248201527f4d7573742062652063616c6c6564206f6e20616e20696e697469616c697a656460448201526e204578636c757369766520726f6c6560881b6064820152608490fd5b156119d157565b60405162461bcd60e51b8152602060048201526024808201527f43616e206f6e6c792062652063616c6c6564206279206120726f6c65206d616e60448201526330b3b2b960e11b6064820152608490fd5b15611a2957565b60405162461bcd60e51b815260206004820152602c60248201527f4d7573742062652063616c6c6564206f6e20616e20696e697469616c697a656460448201526b2053686172656420726f6c6560a01b6064820152608490fd5b60018060a01b0316600052600760205260406000206000602052604060002054600a5480611ab084611bd3565b10611aba57505050565b82611aca600192611ad095611b6f565b01611b6f565b565b600254600a549081611ae2611ba6565b10611aeb575050565b600854600160401b9081811015611b5957806001611b0c92016008556114d9565b9381549460031b946000199586811b9283911b1691191617905560095490811015611b5957806001611b41920160095561148c565b909283549160031b90811b9283911b16911916179055565b634e487b7160e01b600052604160045260246000fd5b8054600160401b811015611b5957611b8c91600182018155611510565b819291549060031b600019811b9283911b16911916179055565b60085480611bb45750600090565b600019810190811161137457611bc9906114d9565b90549060031b1c90565b805480611be1575050600090565b600019810190811161137457611bc99161151056feddf252ad1be2c89b69c2b068fc378daa952ba7f163c4a11628f55a4df523b3efa2646970667358221220b226e8a8ec6f51fcf9f40b26bbbc9eb72f725eee9eabed4d6af3744417e357d464736f6c63430008100033417474656d7074656420746f2075736520616e20696e76616c696420726f6c65",
  "devdoc": {
    "details": "Supports snapshotting and allows the Oracle to mint new tokens as rewards.",
    "kind": "dev",
    "methods": {
      "addBurner(address)": {
        "details": "The caller must have the Owner role.",
        "params": {
          "account": "The address to which the Burner role is added."
        }
      },
      "addMember(uint256,address)": {
        "details": "Reverts if `roleId` does not represent an initialized, SharedRole or if the caller is not a member of the managing role for `roleId`.",
        "params": {
          "newMember": "the new SharedRole member.",
          "roleId": "the SharedRole membership to modify."
        }
      },
      "addMinter(address)": {
        "details": "The caller must have the Owner role.",
        "params": {
          "account": "The address to which the Minter role is added."
        }
      },
      "allowance(address,address)": {
        "details": "See {IERC20-allowance}."
      },
      "approve(address,uint256)": {
        "details": "See {IERC20-approve}. NOTE: If `amount` is the maximum `uint256`, the allowance is not updated on `transferFrom`. This is semantically equivalent to an infinite approval. Requirements: - `spender` cannot be the zero address."
      },
      "balanceOf(address)": {
        "details": "See {IERC20-balanceOf}."
      },
      "balanceOfAt(address,uint256)": {
        "details": "Retrieves the balance of `account` at the time `snapshotId` was created."
      },
      "burn(uint256)": {
        "details": "Burns `value` tokens owned by `msg.sender`.",
        "params": {
          "value": "amount of tokens to burn."
        }
      },
      "burnFrom(address,uint256)": {
        "details": "Burns `value` tokens owned by `recipient`.",
        "params": {
          "recipient": "address to burn tokens from.",
          "value": "amount of tokens to burn."
        },
        "returns": {
          "_0": "True if the burn succeeded, or False."
        }
      },
      "decreaseAllowance(address,uint256)": {
        "details": "Atomically decreases the allowance granted to `spender` by the caller. This is an alternative to {approve} that can be used as a mitigation for problems described in {IERC20-approve}. Emits an {Approval} event indicating the updated allowance. Requirements: - `spender` cannot be the zero address. - `spender` must have allowance for the caller of at least `subtractedValue`."
      },
      "getMember(uint256)": {
        "details": "Reverts if `roleId` does not represent an initialized, exclusive role.",
        "params": {
          "roleId": "the ExclusiveRole membership to check."
        },
        "returns": {
          "_0": "the address of the current ExclusiveRole member."
        }
      },
      "holdsRole(uint256,address)": {
        "details": "Reverts if roleId does not correspond to an initialized role.",
        "params": {
          "memberToCheck": "the address to check.",
          "roleId": "the Role to check."
        },
        "returns": {
          "_0": "True if `memberToCheck` is a member of `roleId`."
        }
      },
      "increaseAllowance(address,uint256)": {
        "details": "Atomically increases the allowance granted to `spender` by the caller. This is an alternative to {approve} that can be used as a mitigation for problems described in {IERC20-approve}. Emits an {Approval} event indicating the updated allowance. Requirements: - `spender` cannot be the zero address."
      },
      "mint(address,uint256)": {
        "details": "Mints `value` tokens to `recipient`, returning true on success.",
        "params": {
          "recipient": "address to mint to.",
          "value": "amount of tokens to mint."
        },
        "returns": {
          "_0": "True if the mint succeeded, or False."
        }
      },
      "name()": {
        "details": "Returns the name of the token."
      },
      "removeMember(uint256,address)": {
        "details": "Reverts if `roleId` does not represent an initialized, SharedRole or if the caller is not a member of the managing role for `roleId`.",
        "params": {
          "memberToRemove": "the current SharedRole member to remove.",
          "roleId": "the SharedRole membership to modify."
        }
      },
      "renounceMembership(uint256)": {
        "details": "Reverts if the caller is not a member of the role for `roleId` or if `roleId` is not an initialized, SharedRole.",
        "params": {
          "roleId": "the SharedRole membership to modify."
        }
      },
      "resetMember(uint256,address)": {
        "details": "Reverts if the caller is not a member of the managing role for `roleId` or if `roleId` is not an initialized, ExclusiveRole.",
        "params": {
          "newMember": "the new ExclusiveRole member.",
          "roleId": "the ExclusiveRole membership to modify."
        }
      },
      "resetOwner(address)": {
        "details": "The caller must have the Owner role.",
        "params": {
          "account": "The new holder of the Owner role."
        }
      },
      "snapshot()": {
        "returns": {
          "_0": "uint256 Thew new snapshot ID."
        }
      },
      "symbol()": {
        "details": "Returns the symbol of the token, usually a shorter version of the name."
      },
      "totalSupply()": {
        "details": "See {IERC20-totalSupply}."
      },
      "totalSupplyAt(uint256)": {
        "details": "Retrieves the total supply at the time `snapshotId` was created."
      },
      "transfer(address,uint256)": {
        "details": "See {IERC20-transfer}. Requirements: - `to` cannot be the zero address. - the caller must have a balance of at least `amount`."
      },
      "transferFrom(address,address,uint256)": {
        "details": "See {IERC20-transferFrom}. Emits an {Approval} event indicating the updated allowance. This is not required by the EIP. See the note at the beginning of {ERC20}. NOTE: Does not update the allowance if the current allowance is the maximum `uint256`. Requirements: - `from` and `to` cannot be the zero address. - `from` must have a balance of at least `amount`. - the caller must have allowance for ``from``'s tokens of at least `amount`."
      }
    },
    "title": "Ownership of this token allows a voter to respond to price requests.",
    "version": 1
  },
  "userdoc": {
    "kind": "user",
    "methods": {
      "addBurner(address)": {
        "notice": "Add Burner role to account."
      },
      "addMember(uint256,address)": {
        "notice": "Adds `newMember` to the shared role, `roleId`."
      },
      "addMinter(address)": {
        "notice": "Add Minter role to account."
      },
      "constructor": {
        "notice": "Constructs the VotingToken."
      },
      "getMember(uint256)": {
        "notice": "Gets the current holder of the exclusive role, `roleId`."
      },
      "holdsRole(uint256,address)": {
        "notice": "Whether `memberToCheck` is a member of roleId."
      },
      "removeMember(uint256,address)": {
        "notice": "Removes `memberToRemove` from the shared role, `roleId`."
      },
      "renounceMembership(uint256)": {
        "notice": "Removes caller from the role, `roleId`."
      },
      "resetMember(uint256,address)": {
        "notice": "Changes the exclusive role holder of `roleId` to `newMember`."
      },
      "resetOwner(address)": {
        "notice": "Reset Owner role to account."
      },
      "snapshot()": {
        "notice": "Creates a new snapshot ID."
      }
    },
    "version": 1
  },
  "storageLayout": {
    "storage": [
      {
        "astId": 4533,
        "contract": "contracts/data-verification-mechanism/implementation/VotingToken.sol:VotingToken",
        "label": "_balances",
        "offset": 0,
        "slot": "0",
        "type": "t_mapping(t_address,t_uint256)"
      },
      {
        "astId": 4539,
        "contract": "contracts/data-verification-mechanism/implementation/VotingToken.sol:VotingToken",
        "label": "_allowances",
        "offset": 0,
        "slot": "1",
        "type": "t_mapping(t_address,t_mapping(t_address,t_uint256))"
      },
      {
        "astId": 4541,
        "contract": "contracts/data-verification-mechanism/implementation/VotingToken.sol:VotingToken",
        "label": "_totalSupply",
        "offset": 0,
        "slot": "2",
        "type": "t_uint256"
      },
      {
        "astId": 4543,
        "contract": "contracts/data-verification-mechanism/implementation/VotingToken.sol:VotingToken",
        "label": "_name",
        "offset": 0,
        "slot": "3",
        "type": "t_string_storage"
      },
      {
        "astId": 4545,
        "contract": "contracts/data-verification-mechanism/implementation/VotingToken.sol:VotingToken",
        "label": "_symbol",
        "offset": 0,
        "slot": "4",
        "type": "t_string_storage"
      },
      {
        "astId": 16654,
        "contract": "contracts/data-verification-mechanism/implementation/VotingToken.sol:VotingToken",
        "label": "roles",
        "offset": 0,
        "slot": "5",
        "type": "t_mapping(t_uint256,t_struct(Role)16649_storage)"
      },
      {
        "astId": 14442,
        "contract": "contracts/data-verification-mechanism/implementation/VotingToken.sol:VotingToken",
        "label": "_decimals",
        "offset": 0,
        "slot": "6",
        "type": "t_uint8"
      },
      {
        "astId": 5210,
        "contract": "contracts/data-verification-mechanism/implementation/VotingToken.sol:VotingToken",
        "label": "_accountBalanceSnapshots",
        "offset": 0,
        "slot": "7",
        "type": "t_mapping(t_address,t_struct(Snapshots)5205_storage)"
      },
      {
        "astId": 5213,
        "contract": "contracts/data-verification-mechanism/implementation/VotingToken.sol:VotingToken",
        "label": "_totalSupplySnapshots",
        "offset": 0,
        "slot": "8",
        "type": "t_struct(Snapshots)5205_storage"
      },
      {
        "astId": 5216,
        "contract": "contracts/data-verification-mechanism/implementation/VotingToken.sol:VotingToken",
        "label": "_currentSnapshotId",
        "offset": 0,
        "slot": "10",
        "type": "t_struct(Counter)7557_storage"
      }
    ],
    "types": {
      "t_address": {
        "encoding": "inplace",
        "label": "address",
        "numberOfBytes": "20"
      },
      "t_array(t_uint256)dyn_storage": {
        "base": "t_uint256",
        "encoding": "dynamic_array",
        "label": "uint256[]",
        "numberOfBytes": "32"
      },
      "t_bool": {
        "encoding": "inplace",
        "label": "bool",
        "numberOfBytes": "1"
      },
      "t_enum(RoleType)16637": {
        "encoding": "inplace",
        "label": "enum MultiRole.RoleType",
        "numberOfBytes": "1"
      },
      "t_mapping(t_address,t_bool)": {
        "encoding": "mapping",
        "key": "t_address",
        "label": "mapping(address => bool)",
        "numberOfBytes": "32",
        "value": "t_bool"
      },
      "t_mapping(t_address,t_mapping(t_address,t_uint256))": {
        "encoding": "mapping",
        "key": "t_address",
        "label": "mapping(address => mapping(address => uint256))",
        "numberOfBytes": "32",
        "value": "t_mapping(t_address,t_uint256)"
      },
      "t_mapping(t_address,t_struct(Snapshots)5205_storage)": {
        "encoding": "mapping",
        "key": "t_address",
        "label": "mapping(address => struct ERC20Snapshot.Snapshots)",
        "numberOfBytes": "32",
        "value": "t_struct(Snapshots)5205_storage"
      },
      "t_mapping(t_address,t_uint256)": {
        "encoding": "mapping",
        "key": "t_address",
        "label": "mapping(address => uint256)",
        "numberOfBytes": "32",
        "value": "t_uint256"
      },
      "t_mapping(t_uint256,t_struct(Role)16649_storage)": {
        "encoding": "mapping",
        "key": "t_uint256",
        "label": "mapping(uint256 => struct MultiRole.Role)",
        "numberOfBytes": "32",
        "value": "t_struct(Role)16649_storage"
      },
      "t_string_storage": {
        "encoding": "bytes",
        "label": "string",
        "numberOfBytes": "32"
      },
      "t_struct(Counter)7557_storage": {
        "encoding": "inplace",
        "label": "struct Counters.Counter",
        "members": [
          {
            "astId": 7556,
            "contract": "contracts/data-verification-mechanism/implementation/VotingToken.sol:VotingToken",
            "label": "_value",
            "offset": 0,
            "slot": "0",
            "type": "t_uint256"
          }
        ],
        "numberOfBytes": "32"
      },
      "t_struct(Role)16649_storage": {
        "encoding": "inplace",
        "label": "struct MultiRole.Role",
        "members": [
          {
            "astId": 16639,
            "contract": "contracts/data-verification-mechanism/implementation/VotingToken.sol:VotingToken",
            "label": "managingRole",
            "offset": 0,
            "slot": "0",
            "type": "t_uint256"
          },
          {
            "astId": 16642,
            "contract": "contracts/data-verification-mechanism/implementation/VotingToken.sol:VotingToken",
            "label": "roleType",
            "offset": 0,
            "slot": "1",
            "type": "t_enum(RoleType)16637"
          },
          {
            "astId": 16645,
            "contract": "contracts/data-verification-mechanism/implementation/VotingToken.sol:VotingToken",
            "label": "exclusiveRoleMembership",
            "offset": 0,
            "slot": "2",
            "type": "t_struct(RoleMembership)16460_storage"
          },
          {
            "astId": 16648,
            "contract": "contracts/data-verification-mechanism/implementation/VotingToken.sol:VotingToken",
            "label": "sharedRoleMembership",
            "offset": 0,
            "slot": "3",
            "type": "t_struct(RoleMembership)16533_storage"
          }
        ],
        "numberOfBytes": "128"
      },
      "t_struct(RoleMembership)16460_storage": {
        "encoding": "inplace",
        "label": "struct Exclusive.RoleMembership",
        "members": [
          {
            "astId": 16459,
            "contract": "contracts/data-verification-mechanism/implementation/VotingToken.sol:VotingToken",
            "label": "member",
            "offset": 0,
            "slot": "0",
            "type": "t_address"
          }
        ],
        "numberOfBytes": "32"
      },
      "t_struct(RoleMembership)16533_storage": {
        "encoding": "inplace",
        "label": "struct Shared.RoleMembership",
        "members": [
          {
            "astId": 16532,
            "contract": "contracts/data-verification-mechanism/implementation/VotingToken.sol:VotingToken",
            "label": "members",
            "offset": 0,
            "slot": "0",
            "type": "t_mapping(t_address,t_bool)"
          }
        ],
        "numberOfBytes": "32"
      },
      "t_struct(Snapshots)5205_storage": {
        "encoding": "inplace",
        "label": "struct ERC20Snapshot.Snapshots",
        "members": [
          {
            "astId": 5201,
            "contract": "contracts/data-verification-mechanism/implementation/VotingToken.sol:VotingToken",
            "label": "ids",
            "offset": 0,
            "slot": "0",
            "type": "t_array(t_uint256)dyn_storage"
          },
          {
            "astId": 5204,
            "contract": "contracts/data-verification-mechanism/implementation/VotingToken.sol:VotingToken",
            "label": "values",
            "offset": 0,
            "slot": "1",
            "type": "t_array(t_uint256)dyn_storage"
          }
        ],
        "numberOfBytes": "64"
      },
      "t_uint256": {
        "encoding": "inplace",
        "label": "uint256",
        "numberOfBytes": "32"
      },
      "t_uint8": {
        "encoding": "inplace",
        "label": "uint8",
        "numberOfBytes": "1"
      }
    }
  }
}