{
  "address": "0xc4ad63c8793E4f41Bd7a17607fa0fbf434Cb7973",
  "abi": [
    {
      "inputs": [
        {
          "internalType": "uint256",
          "name": "_phaseLength",
          "type": "uint256"
        },
        {
          "components": [
            {
              "internalType": "uint256",
              "name": "rawValue",
              "type": "uint256"
            }
          ],
          "internalType": "struct FixedPoint.Unsigned",
          "name": "_gatPercentage",
          "type": "tuple"
        },
        {
          "components": [
            {
              "internalType": "uint256",
              "name": "rawValue",
              "type": "uint256"
            }
          ],
          "internalType": "struct FixedPoint.Unsigned",
          "name": "_inflationRate",
          "type": "tuple"
        },
        {
          "internalType": "uint256",
          "name": "_rewardsExpirationTimeout",
          "type": "uint256"
        },
        {
          "internalType": "address",
          "name": "_votingToken",
          "type": "address"
        },
        {
          "internalType": "address",
          "name": "_finder",
          "type": "address"
        },
        {
          "internalType": "address",
          "name": "_timerAddress",
          "type": "address"
        }
      ],
      "stateMutability": "nonpayable",
      "type": "constructor"
    },
    {
      "anonymous": false,
      "inputs": [
        {
          "indexed": true,
          "internalType": "address",
          "name": "voter",
          "type": "address"
        },
        {
          "indexed": true,
          "internalType": "uint256",
          "name": "roundId",
          "type": "uint256"
        },
        {
          "indexed": true,
          "internalType": "bytes32",
          "name": "identifier",
          "type": "bytes32"
        },
        {
          "indexed": false,
          "internalType": "uint256",
          "name": "time",
          "type": "uint256"
        },
        {
          "indexed": false,
          "internalType": "bytes",
          "name": "ancillaryData",
          "type": "bytes"
        },
        {
          "indexed": false,
          "internalType": "bytes",
          "name": "encryptedVote",
          "type": "bytes"
        }
      ],
      "name": "EncryptedVote",
      "type": "event"
    },
    {
      "anonymous": false,
      "inputs": [
        {
          "indexed": true,
          "internalType": "address",
          "name": "previousOwner",
          "type": "address"
        },
        {
          "indexed": true,
          "internalType": "address",
          "name": "newOwner",
          "type": "address"
        }
      ],
      "name": "OwnershipTransferred",
      "type": "event"
    },
    {
      "anonymous": false,
      "inputs": [
        {
          "indexed": true,
          "internalType": "uint256",
          "name": "roundId",
          "type": "uint256"
        },
        {
          "indexed": true,
          "internalType": "bytes32",
          "name": "identifier",
          "type": "bytes32"
        },
        {
          "indexed": false,
          "internalType": "uint256",
          "name": "time",
          "type": "uint256"
        }
      ],
      "name": "PriceRequestAdded",
      "type": "event"
    },
    {
      "anonymous": false,
      "inputs": [
        {
          "indexed": true,
          "internalType": "uint256",
          "name": "roundId",
          "type": "uint256"
        },
        {
          "indexed": true,
          "internalType": "bytes32",
          "name": "identifier",
          "type": "bytes32"
        },
        {
          "indexed": false,
          "internalType": "uint256",
          "name": "time",
          "type": "uint256"
        },
        {
          "indexed": false,
          "internalType": "int256",
          "name": "price",
          "type": "int256"
        },
        {
          "indexed": false,
          "internalType": "bytes",
          "name": "ancillaryData",
          "type": "bytes"
        }
      ],
      "name": "PriceResolved",
      "type": "event"
    },
    {
      "anonymous": false,
      "inputs": [
        {
          "indexed": true,
          "internalType": "address",
          "name": "voter",
          "type": "address"
        },
        {
          "indexed": true,
          "internalType": "uint256",
          "name": "roundId",
          "type": "uint256"
        },
        {
          "indexed": true,
          "internalType": "bytes32",
          "name": "identifier",
          "type": "bytes32"
        },
        {
          "indexed": false,
          "internalType": "uint256",
          "name": "time",
          "type": "uint256"
        },
        {
          "indexed": false,
          "internalType": "bytes",
          "name": "ancillaryData",
          "type": "bytes"
        },
        {
          "indexed": false,
          "internalType": "uint256",
          "name": "numTokens",
          "type": "uint256"
        }
      ],
      "name": "RewardsRetrieved",
      "type": "event"
    },
    {
      "anonymous": false,
      "inputs": [
        {
          "indexed": true,
          "internalType": "address",
          "name": "voter",
          "type": "address"
        },
        {
          "indexed": true,
          "internalType": "uint256",
          "name": "roundId",
          "type": "uint256"
        },
        {
          "indexed": true,
          "internalType": "bytes32",
          "name": "identifier",
          "type": "bytes32"
        },
        {
          "indexed": false,
          "internalType": "uint256",
          "name": "time",
          "type": "uint256"
        },
        {
          "indexed": false,
          "internalType": "bytes",
          "name": "ancillaryData",
          "type": "bytes"
        }
      ],
      "name": "VoteCommitted",
      "type": "event"
    },
    {
      "anonymous": false,
      "inputs": [
        {
          "indexed": true,
          "internalType": "address",
          "name": "voter",
          "type": "address"
        },
        {
          "indexed": true,
          "internalType": "uint256",
          "name": "roundId",
          "type": "uint256"
        },
        {
          "indexed": true,
          "internalType": "bytes32",
          "name": "identifier",
          "type": "bytes32"
        },
        {
          "indexed": false,
          "internalType": "uint256",
          "name": "time",
          "type": "uint256"
        },
        {
          "indexed": false,
          "internalType": "int256",
          "name": "price",
          "type": "int256"
        },
        {
          "indexed": false,
          "internalType": "bytes",
          "name": "ancillaryData",
          "type": "bytes"
        },
        {
          "indexed": false,
          "internalType": "uint256",
          "name": "numTokens",
          "type": "uint256"
        }
      ],
      "name": "VoteRevealed",
      "type": "event"
    },
    {
      "inputs": [],
      "name": "ancillaryBytesLimit",
      "outputs": [
        {
          "internalType": "uint256",
          "name": "",
          "type": "uint256"
        }
      ],
      "stateMutability": "view",
      "type": "function"
    },
    {
      "inputs": [
        {
          "components": [
            {
              "internalType": "bytes32",
              "name": "identifier",
              "type": "bytes32"
            },
            {
              "internalType": "uint256",
              "name": "time",
              "type": "uint256"
            },
            {
              "internalType": "bytes",
              "name": "ancillaryData",
              "type": "bytes"
            },
            {
              "internalType": "bytes32",
              "name": "hash",
              "type": "bytes32"
            },
            {
              "internalType": "bytes",
              "name": "encryptedVote",
              "type": "bytes"
            }
          ],
          "internalType": "struct VotingAncillaryInterface.CommitmentAncillary[]",
          "name": "commits",
          "type": "tuple[]"
        }
      ],
      "name": "batchCommit",
      "outputs": [],
      "stateMutability": "nonpayable",
      "type": "function"
    },
    {
      "inputs": [
        {
          "components": [
            {
              "internalType": "bytes32",
              "name": "identifier",
              "type": "bytes32"
            },
            {
              "internalType": "uint256",
              "name": "time",
              "type": "uint256"
            },
            {
              "internalType": "bytes32",
              "name": "hash",
              "type": "bytes32"
            },
            {
              "internalType": "bytes",
              "name": "encryptedVote",
              "type": "bytes"
            }
          ],
          "internalType": "struct VotingInterface.Commitment[]",
          "name": "commits",
          "type": "tuple[]"
        }
      ],
      "name": "batchCommit",
      "outputs": [],
      "stateMutability": "nonpayable",
      "type": "function"
    },
    {
      "inputs": [
        {
          "components": [
            {
              "internalType": "bytes32",
              "name": "identifier",
              "type": "bytes32"
            },
            {
              "internalType": "uint256",
              "name": "time",
              "type": "uint256"
            },
            {
              "internalType": "int256",
              "name": "price",
              "type": "int256"
            },
            {
              "internalType": "int256",
              "name": "salt",
              "type": "int256"
            }
          ],
          "internalType": "struct VotingInterface.Reveal[]",
          "name": "reveals",
          "type": "tuple[]"
        }
      ],
      "name": "batchReveal",
      "outputs": [],
      "stateMutability": "nonpayable",
      "type": "function"
    },
    {
      "inputs": [
        {
          "components": [
            {
              "internalType": "bytes32",
              "name": "identifier",
              "type": "bytes32"
            },
            {
              "internalType": "uint256",
              "name": "time",
              "type": "uint256"
            },
            {
              "internalType": "int256",
              "name": "price",
              "type": "int256"
            },
            {
              "internalType": "bytes",
              "name": "ancillaryData",
              "type": "bytes"
            },
            {
              "internalType": "int256",
              "name": "salt",
              "type": "int256"
            }
          ],
          "internalType": "struct VotingAncillaryInterface.RevealAncillary[]",
          "name": "reveals",
          "type": "tuple[]"
        }
      ],
      "name": "batchReveal",
      "outputs": [],
      "stateMutability": "nonpayable",
      "type": "function"
    },
    {
      "inputs": [
        {
          "internalType": "bytes32",
          "name": "identifier",
          "type": "bytes32"
        },
        {
          "internalType": "uint256",
          "name": "time",
          "type": "uint256"
        },
        {
          "internalType": "bytes",
          "name": "ancillaryData",
          "type": "bytes"
        },
        {
          "internalType": "bytes32",
          "name": "hash",
          "type": "bytes32"
        },
        {
          "internalType": "bytes",
          "name": "encryptedVote",
          "type": "bytes"
        }
      ],
      "name": "commitAndEmitEncryptedVote",
      "outputs": [],
      "stateMutability": "nonpayable",
      "type": "function"
    },
    {
      "inputs": [
        {
          "internalType": "bytes32",
          "name": "identifier",
          "type": "bytes32"
        },
        {
          "internalType": "uint256",
          "name": "time",
          "type": "uint256"
        },
        {
          "internalType": "bytes32",
          "name": "hash",
          "type": "bytes32"
        },
        {
          "internalType": "bytes",
          "name": "encryptedVote",
          "type": "bytes"
        }
      ],
      "name": "commitAndEmitEncryptedVote",
      "outputs": [],
      "stateMutability": "nonpayable",
      "type": "function"
    },
    {
      "inputs": [
        {
          "internalType": "bytes32",
          "name": "identifier",
          "type": "bytes32"
        },
        {
          "internalType": "uint256",
          "name": "time",
          "type": "uint256"
        },
        {
          "internalType": "bytes",
          "name": "ancillaryData",
          "type": "bytes"
        },
        {
          "internalType": "bytes32",
          "name": "hash",
          "type": "bytes32"
        }
      ],
      "name": "commitVote",
      "outputs": [],
      "stateMutability": "nonpayable",
      "type": "function"
    },
    {
      "inputs": [
        {
          "internalType": "bytes32",
          "name": "identifier",
          "type": "bytes32"
        },
        {
          "internalType": "uint256",
          "name": "time",
          "type": "uint256"
        },
        {
          "internalType": "bytes32",
          "name": "hash",
          "type": "bytes32"
        }
      ],
      "name": "commitVote",
      "outputs": [],
      "stateMutability": "nonpayable",
      "type": "function"
    },
    {
      "inputs": [],
      "name": "gatPercentage",
      "outputs": [
        {
          "internalType": "uint256",
          "name": "rawValue",
          "type": "uint256"
        }
      ],
      "stateMutability": "view",
      "type": "function"
    },
    {
      "inputs": [],
      "name": "getCurrentRoundId",
      "outputs": [
        {
          "internalType": "uint256",
          "name": "",
          "type": "uint256"
        }
      ],
      "stateMutability": "view",
      "type": "function"
    },
    {
      "inputs": [],
      "name": "getCurrentTime",
      "outputs": [
        {
          "internalType": "uint256",
          "name": "",
          "type": "uint256"
        }
      ],
      "stateMutability": "view",
      "type": "function"
    },
    {
      "inputs": [],
      "name": "getPendingRequests",
      "outputs": [
        {
          "components": [
            {
              "internalType": "bytes32",
              "name": "identifier",
              "type": "bytes32"
            },
            {
              "internalType": "uint256",
              "name": "time",
              "type": "uint256"
            },
            {
              "internalType": "bytes",
              "name": "ancillaryData",
              "type": "bytes"
            }
          ],
          "internalType": "struct VotingAncillaryInterface.PendingRequestAncillary[]",
          "name": "",
          "type": "tuple[]"
        }
      ],
      "stateMutability": "view",
      "type": "function"
    },
    {
      "inputs": [
        {
          "internalType": "bytes32",
          "name": "identifier",
          "type": "bytes32"
        },
        {
          "internalType": "uint256",
          "name": "time",
          "type": "uint256"
        },
        {
          "internalType": "bytes",
          "name": "ancillaryData",
          "type": "bytes"
        }
      ],
      "name": "getPrice",
      "outputs": [
        {
          "internalType": "int256",
          "name": "",
          "type": "int256"
        }
      ],
      "stateMutability": "view",
      "type": "function"
    },
    {
      "inputs": [
        {
          "internalType": "bytes32",
          "name": "identifier",
          "type": "bytes32"
        },
        {
          "internalType": "uint256",
          "name": "time",
          "type": "uint256"
        }
      ],
      "name": "getPrice",
      "outputs": [
        {
          "internalType": "int256",
          "name": "",
          "type": "int256"
        }
      ],
      "stateMutability": "view",
      "type": "function"
    },
    {
      "inputs": [
        {
          "components": [
            {
              "internalType": "bytes32",
              "name": "identifier",
              "type": "bytes32"
            },
            {
              "internalType": "uint256",
              "name": "time",
              "type": "uint256"
            },
            {
              "internalType": "bytes",
              "name": "ancillaryData",
              "type": "bytes"
            }
          ],
          "internalType": "struct VotingAncillaryInterface.PendingRequestAncillary[]",
          "name": "requests",
          "type": "tuple[]"
        }
      ],
      "name": "getPriceRequestStatuses",
      "outputs": [
        {
          "components": [
            {
              "internalType": "enum Voting.RequestStatus",
              "name": "status",
              "type": "uint8"
            },
            {
              "internalType": "uint256",
              "name": "lastVotingRound",
              "type": "uint256"
            }
          ],
          "internalType": "struct Voting.RequestState[]",
          "name": "",
          "type": "tuple[]"
        }
      ],
      "stateMutability": "view",
      "type": "function"
    },
    {
      "inputs": [
        {
          "components": [
            {
              "internalType": "bytes32",
              "name": "identifier",
              "type": "bytes32"
            },
            {
              "internalType": "uint256",
              "name": "time",
              "type": "uint256"
            }
          ],
          "internalType": "struct VotingInterface.PendingRequest[]",
          "name": "requests",
          "type": "tuple[]"
        }
      ],
      "name": "getPriceRequestStatuses",
      "outputs": [
        {
          "components": [
            {
              "internalType": "enum Voting.RequestStatus",
              "name": "status",
              "type": "uint8"
            },
            {
              "internalType": "uint256",
              "name": "lastVotingRound",
              "type": "uint256"
            }
          ],
          "internalType": "struct Voting.RequestState[]",
          "name": "",
          "type": "tuple[]"
        }
      ],
      "stateMutability": "view",
      "type": "function"
    },
    {
      "inputs": [],
      "name": "getVotePhase",
      "outputs": [
        {
          "internalType": "enum VotingAncillaryInterface.Phase",
          "name": "",
          "type": "uint8"
        }
      ],
      "stateMutability": "view",
      "type": "function"
    },
    {
      "inputs": [
        {
          "internalType": "bytes32",
          "name": "identifier",
          "type": "bytes32"
        },
        {
          "internalType": "uint256",
          "name": "time",
          "type": "uint256"
        }
      ],
      "name": "hasPrice",
      "outputs": [
        {
          "internalType": "bool",
          "name": "",
          "type": "bool"
        }
      ],
      "stateMutability": "view",
      "type": "function"
    },
    {
      "inputs": [
        {
          "internalType": "bytes32",
          "name": "identifier",
          "type": "bytes32"
        },
        {
          "internalType": "uint256",
          "name": "time",
          "type": "uint256"
        },
        {
          "internalType": "bytes",
          "name": "ancillaryData",
          "type": "bytes"
        }
      ],
      "name": "hasPrice",
      "outputs": [
        {
          "internalType": "bool",
          "name": "",
          "type": "bool"
        }
      ],
      "stateMutability": "view",
      "type": "function"
    },
    {
      "inputs": [],
      "name": "inflationRate",
      "outputs": [
        {
          "internalType": "uint256",
          "name": "rawValue",
          "type": "uint256"
        }
      ],
      "stateMutability": "view",
      "type": "function"
    },
    {
      "inputs": [],
      "name": "migratedAddress",
      "outputs": [
        {
          "internalType": "address",
          "name": "",
          "type": "address"
        }
      ],
      "stateMutability": "view",
      "type": "function"
    },
    {
      "inputs": [],
      "name": "owner",
      "outputs": [
        {
          "internalType": "address",
          "name": "",
          "type": "address"
        }
      ],
      "stateMutability": "view",
      "type": "function"
    },
    {
      "inputs": [],
      "name": "renounceOwnership",
      "outputs": [],
      "stateMutability": "nonpayable",
      "type": "function"
    },
    {
      "inputs": [
        {
          "internalType": "bytes32",
          "name": "identifier",
          "type": "bytes32"
        },
        {
          "internalType": "uint256",
          "name": "time",
          "type": "uint256"
        },
        {
          "internalType": "bytes",
          "name": "ancillaryData",
          "type": "bytes"
        }
      ],
      "name": "requestPrice",
      "outputs": [],
      "stateMutability": "nonpayable",
      "type": "function"
    },
    {
      "inputs": [
        {
          "internalType": "bytes32",
          "name": "identifier",
          "type": "bytes32"
        },
        {
          "internalType": "uint256",
          "name": "time",
          "type": "uint256"
        }
      ],
      "name": "requestPrice",
      "outputs": [],
      "stateMutability": "nonpayable",
      "type": "function"
    },
    {
      "inputs": [
        {
          "internalType": "address",
          "name": "voterAddress",
          "type": "address"
        },
        {
          "internalType": "uint256",
          "name": "roundId",
          "type": "uint256"
        },
        {
          "components": [
            {
              "internalType": "bytes32",
              "name": "identifier",
              "type": "bytes32"
            },
            {
              "internalType": "uint256",
              "name": "time",
              "type": "uint256"
            },
            {
              "internalType": "bytes",
              "name": "ancillaryData",
              "type": "bytes"
            }
          ],
          "internalType": "struct VotingAncillaryInterface.PendingRequestAncillary[]",
          "name": "toRetrieve",
          "type": "tuple[]"
        }
      ],
      "name": "retrieveRewards",
      "outputs": [
        {
          "components": [
            {
              "internalType": "uint256",
              "name": "rawValue",
              "type": "uint256"
            }
          ],
          "internalType": "struct FixedPoint.Unsigned",
          "name": "totalRewardToIssue",
          "type": "tuple"
        }
      ],
      "stateMutability": "nonpayable",
      "type": "function"
    },
    {
      "inputs": [
        {
          "internalType": "address",
          "name": "voterAddress",
          "type": "address"
        },
        {
          "internalType": "uint256",
          "name": "roundId",
          "type": "uint256"
        },
        {
          "components": [
            {
              "internalType": "bytes32",
              "name": "identifier",
              "type": "bytes32"
            },
            {
              "internalType": "uint256",
              "name": "time",
              "type": "uint256"
            }
          ],
          "internalType": "struct VotingInterface.PendingRequest[]",
          "name": "toRetrieve",
          "type": "tuple[]"
        }
      ],
      "name": "retrieveRewards",
      "outputs": [
        {
          "components": [
            {
              "internalType": "uint256",
              "name": "rawValue",
              "type": "uint256"
            }
          ],
          "internalType": "struct FixedPoint.Unsigned",
          "name": "",
          "type": "tuple"
        }
      ],
      "stateMutability": "nonpayable",
      "type": "function"
    },
    {
      "inputs": [
        {
          "internalType": "bytes32",
          "name": "identifier",
          "type": "bytes32"
        },
        {
          "internalType": "uint256",
          "name": "time",
          "type": "uint256"
        },
        {
          "internalType": "int256",
          "name": "price",
          "type": "int256"
        },
        {
          "internalType": "int256",
          "name": "salt",
          "type": "int256"
        }
      ],
      "name": "revealVote",
      "outputs": [],
      "stateMutability": "nonpayable",
      "type": "function"
    },
    {
      "inputs": [
        {
          "internalType": "bytes32",
          "name": "identifier",
          "type": "bytes32"
        },
        {
          "internalType": "uint256",
          "name": "time",
          "type": "uint256"
        },
        {
          "internalType": "int256",
          "name": "price",
          "type": "int256"
        },
        {
          "internalType": "bytes",
          "name": "ancillaryData",
          "type": "bytes"
        },
        {
          "internalType": "int256",
          "name": "salt",
          "type": "int256"
        }
      ],
      "name": "revealVote",
      "outputs": [],
      "stateMutability": "nonpayable",
      "type": "function"
    },
    {
      "inputs": [],
      "name": "rewardsExpirationTimeout",
      "outputs": [
        {
          "internalType": "uint256",
          "name": "",
          "type": "uint256"
        }
      ],
      "stateMutability": "view",
      "type": "function"
    },
    {
      "inputs": [
        {
          "internalType": "uint256",
          "name": "",
          "type": "uint256"
        }
      ],
      "name": "rounds",
      "outputs": [
        {
          "internalType": "uint256",
          "name": "snapshotId",
          "type": "uint256"
        },
        {
          "components": [
            {
              "internalType": "uint256",
              "name": "rawValue",
              "type": "uint256"
            }
          ],
          "internalType": "struct FixedPoint.Unsigned",
          "name": "inflationRate",
          "type": "tuple"
        },
        {
          "components": [
            {
              "internalType": "uint256",
              "name": "rawValue",
              "type": "uint256"
            }
          ],
          "internalType": "struct FixedPoint.Unsigned",
          "name": "gatPercentage",
          "type": "tuple"
        },
        {
          "internalType": "uint256",
          "name": "rewardsExpirationTime",
          "type": "uint256"
        }
      ],
      "stateMutability": "view",
      "type": "function"
    },
    {
      "inputs": [
        {
          "internalType": "uint256",
          "name": "time",
          "type": "uint256"
        }
      ],
      "name": "setCurrentTime",
      "outputs": [],
      "stateMutability": "nonpayable",
      "type": "function"
    },
    {
      "inputs": [
        {
          "components": [
            {
              "internalType": "uint256",
              "name": "rawValue",
              "type": "uint256"
            }
          ],
          "internalType": "struct FixedPoint.Unsigned",
          "name": "newGatPercentage",
          "type": "tuple"
        }
      ],
      "name": "setGatPercentage",
      "outputs": [],
      "stateMutability": "nonpayable",
      "type": "function"
    },
    {
      "inputs": [
        {
          "components": [
            {
              "internalType": "uint256",
              "name": "rawValue",
              "type": "uint256"
            }
          ],
          "internalType": "struct FixedPoint.Unsigned",
          "name": "newInflationRate",
          "type": "tuple"
        }
      ],
      "name": "setInflationRate",
      "outputs": [],
      "stateMutability": "nonpayable",
      "type": "function"
    },
    {
      "inputs": [
        {
          "internalType": "address",
          "name": "newVotingAddress",
          "type": "address"
        }
      ],
      "name": "setMigrated",
      "outputs": [],
      "stateMutability": "nonpayable",
      "type": "function"
    },
    {
      "inputs": [
        {
          "internalType": "uint256",
          "name": "NewRewardsExpirationTimeout",
          "type": "uint256"
        }
      ],
      "name": "setRewardsExpirationTimeout",
      "outputs": [],
      "stateMutability": "nonpayable",
      "type": "function"
    },
    {
      "inputs": [
        {
          "internalType": "bytes",
          "name": "signature",
          "type": "bytes"
        }
      ],
      "name": "snapshotCurrentRound",
      "outputs": [],
      "stateMutability": "nonpayable",
      "type": "function"
    },
    {
      "inputs": [],
      "name": "snapshotMessageHash",
      "outputs": [
        {
          "internalType": "bytes32",
          "name": "",
          "type": "bytes32"
        }
      ],
      "stateMutability": "view",
      "type": "function"
    },
    {
      "inputs": [],
      "name": "timerAddress",
      "outputs": [
        {
          "internalType": "address",
          "name": "",
          "type": "address"
        }
      ],
      "stateMutability": "view",
      "type": "function"
    },
    {
      "inputs": [
        {
          "internalType": "address",
          "name": "newOwner",
          "type": "address"
        }
      ],
      "name": "transferOwnership",
      "outputs": [],
      "stateMutability": "nonpayable",
      "type": "function"
    },
    {
      "inputs": [],
      "name": "voteTiming",
      "outputs": [
        {
          "internalType": "uint256",
          "name": "phaseLength",
          "type": "uint256"
        }
      ],
      "stateMutability": "view",
      "type": "function"
    },
    {
      "inputs": [],
      "name": "votingToken",
      "outputs": [
        {
          "internalType": "contract VotingToken",
          "name": "",
          "type": "address"
        }
      ],
      "stateMutability": "view",
      "type": "function"
    }
  ],
  "transactionHash": "0xbc64992a9908da5eeee4352cbde59ea65a662b325499d5567fb085786d79830e",
  "args": [
    "86400",
    {
      "rawValue": "50000000000000000"
    },
    {
      "rawValue": "500000000000000"
    },
    1209600,
    "0x473411E26885aE3A291EF4F4eB430F33946EDAD7",
    "0xA969917A4dFaB07936dEc60f70FA5c736A1e2b9e",
    "0xf8815ce169E5450aa6908e76E1B970dBcEC11550"
  ],
  "solcInputHash": "864d61c65c789401ae17358a5af86557",
  "bytecode": "0x6080346200023157601f620049f838819003918201601f1916830192916001600160401b039182851184861017620002365781906040958652843982019160e08184031262000231578060c091516200006a6200006086602085016200026c565b958784016200026c565b6060830151956200007e608085016200029c565b926200008d60a086016200029c565b6001600160a01b039690958791620000a691016200029c565b169060018060a01b0319976000928984541617835560015490338a8316176001558b5191893391167f8be0079c531659141344cd1fd0a4f28419497f9722a3daafe3b4186f6b6457e08685a3818c01908111828210176200021d578b52601181527014da59db88119bdc8814db985c1cda1bdd607a1b6020909101527f19457468657265756d205369676e6564204d6573736167653a0a33320000000082527f05ae8dd7e03a2a2e45343dbd50fe048482c1d0e0e9e034857ff13dd19f476b7e601c52603c8220600c5580156200021957600555815190620001876200024c565b52670de0b6b3a764000090816200019d6200024c565b5211620001d557908492915160065551600755168360095416176009551690600a541617600a55600855516147469081620002b28239f35b875162461bcd60e51b815260206004820152601e60248201527f4741542070657263656e74616765206d757374206265203c3d203130302500006044820152606490fd5b5080fd5b634e487b7160e01b84526041600452602484fd5b600080fd5b634e487b7160e01b600052604160045260246000fd5b60405190602082016001600160401b038111838210176200023657604052565b91908260209103126200023157604051602081016001600160401b03811182821017620002365760405291518252565b51906001600160a01b0382168203620002315756fe6040608081526004908136101561001557600080fd5b600091823560e01c8063017e4c03146125855780630d434e7e146124b9578063110d559a1461223357806313e56d6a146121a357806316d32474146121475780631c39c38d1461211f57806320b373a214612100578063216666a414611dca57806322f8e56614611d3c57806326af73bf14611d1d5780632960b5af14611cd757806329cb924d14611cba57806331f9e35b14611c9b5780634000851f14611c725780634666cb0c14611ac8578063498ec3c914611a8b5780634c7a2603146119a75780635727e25d146119875780636852eea0146117d157806368ad8ae3146112cf5780636ec1fd5d146111c957806370a0cf2c14610fce578063715018a614610f6d578063719c6d5614610f5157806371b7db5314610f3257806374dd278c14610eed57806380a1f71214610c9657806383c6aaca14610c775780638558d4f314610bb15780638876e8a014610b90578063894fcecc14610b395780638c65c81f14610ad45780638da5cb5b14610aab578063a03e881a14610a81578063a65d15911461097b578063add2ccb41461055f578063b034012314610536578063b551cd5014610511578063b90fd480146104f2578063c371dda7146104d5578063c9280f06146104a0578063d8651ad0146102c95763f2fde38b146101fa57600080fd5b346102c55760203660031901126102c5576102136125d0565b61021b61299a565b6001600160a01b03908116918215610273575060015492826bffffffffffffffffffffffff60a01b8516176001555192167f8be0079c531659141344cd1fd0a4f28419497f9722a3daafe3b4186f6b6457e0600084a3f35b608490602085519162461bcd60e51b8352820152602660248201527f4f776e61626c653a206e6577206f776e657220697320746865207a65726f206160448201526564647265737360d01b6064820152fd5b8280fd5b50346102c55760603660031901126102c557600b54813591906001600160a01b0316156024803590604435906102fe84612fa8565b61031587519461030d866125e6565b898652612fa8565b8115610466576103236129f2565b61032c81612ff4565b6003811015610454576104245761034e90610348600554612be6565b90612c0f565b9461035a85858961431a565b895260036020528789209161036f8784614672565b82811015610412576001036103d0575050906002828660036000805160206146d183398151915296950155868a52016020528688203360005260205286600020558551908152856020820152806103ca339488830190612975565b0390a451f35b90601e60649260208b519362461bcd60e51b85528401528201527f43616e6e6f7420636f6d6d697420696e616374697665207265717565737400006044820152fd5b50634e487b7160e01b8a526021825289fd5b875162461bcd60e51b8152602081880152601d818401526000805160206146f18339815191526044820152606490fd5b634e487b7160e01b8a5260218752828afd5b84601560649260208a519362461bcd60e51b855284015282015274092dcecc2d8d2c840e0e4deecd2c8cac840d0c2e6d605b1b6044820152fd5b5050346104d1576104ca6020926104b63661293c565b908451926104c3846125e6565b8352612cf7565b9051908152f35b5080fd5b5050346104d157816003193601126104d157602090516120008152f35b5050346104d157816003193601126104d1576020906006549051908152f35b5050346104d15760209061052d6105273661289a565b91612c2f565b90519015158152f35b5050346104d157816003193601126104d15760095490516001600160a01b039091168152602090f35b50346102c55760a03660031901126102c557803590602480356044356064356001600160401b038111610977576105999036908601612701565b9060018060a01b03936105b085600b541615612fa8565b6105c06105bb6129f2565b612ff4565b600381101561096557600103610923576105e66105db6129f2565b610348600554612be6565b956105f284868a61431a565b8a526020956003875260028a8c2001888c528752898b2091336000528288528a60002093845480156108ea57868961067b8f8f908f8f928e61066060d49585519889968288019b8c52608435908801523360601b606088015260748701528251928391609488019101612952565b830191609483015260b48201520360b4810184520182612683565b519020036108a857898d52600289528b8d20541561086e5750888c52600288528a8c2054600085556009548c5163277166bf60e11b81523393810193845260208401929092528d98979695949391928d928b928592839003604001918391165afa938415610864578992899561081e575b508594936107ce979693836003937f3fad5d37ee1be2f58ff1735699121a8ead73c3b70d02fc06d07b0db29854d3b49c955197610728896125e6565b8852600182518481019089825285815261074181612668565b51902091015560018301946002840161076889845161075f816125e6565b835481526131f1565b5190558681528583528561078d89848420855190610785826125e6565b5481526131f1565b9388835252209051905501908d8d8354918286141593846107e5575b505050506107dd575b5050519589519485528401526080888401526080830190612975565b9260608201528033930390a451f35b5581386107b2565b9091809394508220938351946107fa866125e6565b54855282528c5220908d519161080f836125e6565b548092525111388d8f826107a9565b985092959493505086813d831161085d575b61083a8183612683565b810103126108585794518a959293919290919087908b9060036106ec565b600080fd5b503d610830565b81513d8a823e3d90fd5b8b5162461bcd60e51b815291820189905260159082015274149bdd5b99081a185cc81b9bc81cdb985c1cda1bdd605a1b6044820152606490fd5b8b5162461bcd60e51b8152918201899052601c908201527f52657665616c6564206461746120213d20636f6d6d69742068617368000000006044820152606490fd5b508b5162461bcd60e51b815291820189905260139082015272125b9d985b1a59081a185cda081c995d99585b606a1b6044820152606490fd5b85601d60649260208b519362461bcd60e51b85528401528201527f43616e6e6f742072657665616c20696e20636f6d6d69742070686173650000006044820152fd5b50634e487b7160e01b89526021865288fd5b8780fd5b50346102c557602080600319360112610a7d5781356001600160401b0392838211610a795736602383011215610a79578101356109b7816126a4565b936109c486519586612683565b818552838501916024809160051b85010193368511610a7557818101935b8585106109f75789896109f48a613686565b51f35b8435848111610a7157820160a06023198236030112610a7157895191610a1c83612632565b84820135835260448201358984015260648201358b840152608482013592868411610a6d5760a48a9493610a568695893691840101612701565b6060840152013560808201528152019401936109e2565b8c80fd5b8a80fd5b8880fd5b8580fd5b8380fd5b5050346104d15761052d602092610a973661293c565b90845192610aa4846125e6565b8352612c2f565b5050346104d157816003193601126104d15760015490516001600160a01b039091168152602090f35b50346102c55760203660031901126102c5576080928291358152600260205220805491805191610b03836125e6565b600181015483526003825191610b18836125e6565b60028101548352015492825194855251602085015251908301526060820152f35b50346102c55760803660031901126102c557803590602480356044356001600160401b038111610b8c57610b709036908501612701565b600b54909260643591610315906001600160a01b031615612fa8565b8680fd5b50346102c55760203660031901126102c557610baa61299a565b3560085551f35b509134610c7457602092836003193601126104d15780356001600160401b0381116102c557610be2913691016127f8565b91610bed8351612f42565b93825b8451811015610c585780610c07610c539287612df7565b5151610c138289612df7565b515282610c208288612df7565b51015183610c2e838a612df7565b51015283610c3c8289612df7565b5101845190610c4a826125e6565b86825252612de8565b610bf0565b610c7083610c6588612e0b565b9051918291826128cc565b0390f35b80fd5b5050346104d157610c873661287a565b610c8f61299a565b5160075551f35b508290346104d157816003193601126104d157610cb16129f2565b91610cc26005936103488554612be6565b91805492610ccf84612f42565b938392845b828110610da25750505050610ce881612f42565b92825b828110610d6b575050508351926020808501918186528451809352818784818901931b880101950193965b838810610d235786860387f35b90919293948380610d5a600193603f198b8203018752858a5180518352848101518584015201519060609081888201520190612975565b970193019701969093929193610d16565b80610d7d610d99928499969899612df7565b51610d888288612df7565b52610d938187612df7565b50612de8565b95949295610ceb565b610daf8199969899612b76565b9054600391821b1c89526020908152868920610dcb8682614672565b9084821015610eda576001809214610df3575b505050610dea90612de8565b97969497610cd4565b8097939754928c838301549201918a5194610e0d8661264d565b8552818501528951928d8d938054610e2481612b3c565b80885292818516918215610eb2575050600114610e77575b505050509181610e55610dea9593610e6e950382612683565b89820152610e63828b612df7565b52610d93818a612df7565b94908a80610dde565b90919293508d52828d20918d925b828410610e9f5750505082010181610e5581610e6e610e3c565b8054868501860152928401928101610e85565b60ff19168689015292151590921b86019093019350849250610e559150829050610e6e610e3c565b634e487b7160e01b8b526021855260248bfd5b509190346104d157816003193601126104d157610f0b6105bb6129f2565b9051916003821015610f1f57602083838152f35b634e487b7160e01b815260218452602490fd5b5050346104d157816003193601126104d1576020906005549051908152f35b5050346104d1576020906104ca610f673661289a565b91612cf7565b5050346104d157816003193601126104d157610f8761299a565b600180546001600160a01b031981169091559051906000906001600160a01b03167f8be0079c531659141344cd1fd0a4f28419497f9722a3daafe3b4186f6b6457e08284a3f35b5090346102c55760209182600319360112610a7d5780356001600160401b0391828211610a795736602383011215610a79578101359161100d836126a4565b9261101a85519485612683565b808452858401916024809260051b85010193368511610a7557828101935b85851061115d57505050505050805191611051836126a4565b9261105e82519485612683565b80845261106d601f19916126a4565b0184865b82811061112b57505050845b8251811015611120578061109461111b9285612df7565b51516110a08287612df7565b5152856110ad8286612df7565b510151866110bb8388612df7565b510152826110c98287612df7565b51018351906110d7826125e6565b88825252826110e68286612df7565b510151606090816110f78489612df7565b5101526111048286612df7565b51015160806111138388612df7565b510152612de8565b61107d565b85826109f486613419565b835161113681612632565b88815288838201526060808683015289818301526080820152828288010152018590611071565b8435838111610a7157820160806023198236030112610a715788519161118283612617565b85820135835260448201358b84015260648201358a840152608482013592858411610a6d576111b98c949388869536920101612701565b6060820152815201940193611038565b50346102c557602080600319360112610a7d5781356001600160401b0392838211610a795736602383011215610a795781013592611206846126a4565b9361121386519586612683565b808552838501916024809260051b85010193368511610a7557828101935b8585106112435789896109f48a613419565b8435838111610a7157820160a06023198236030112610a715789519161126883612632565b8582013583526044820135898401526064820135858111610a6d5761129290873691850101612701565b8b8401526084820135606084015260a482013592858411610a6d576112bf8a949388869536920101612701565b6080820152815201940193611231565b50346102c5576112de3661293c565b8392919251906112ed826125e6565b858252600b546001600160a01b0392908316801561171257611310903314612af0565b6113186129f2565b938483116116cf57600a5487516302abf57960e61b8152721259195b9d1a599a595c95da1a5d195b1a5cdd606a1b8184015260209560249392909190879082908690829086165afa80156116c55787918c91611698575b50848b51809481936390978d1b60e01b83528d88840152165afa90811561168e578a91611661575b5015611621576120008351116115e8576113b283858961431a565b92838a52600386526113d66113cf8a8c2098610348600554612be6565b8098614672565b828110156115d657156113e857898951f35b6001908188018098116115c457848b526003875260058a8c208a8155878482015589600382015584548582015501908051906001600160401b0382116115b2578c82916114358554612b3c565b8b601f8211611557575b50508a91601f84116001146114f857926114ed575b5050600019600383901b1c191690831b1790555b815492600160401b8410156114dc5750826114c7926114ae927f5d80f93c41e95cacea0b9ce9bb825092d709fa503a70bb26ea3f536bf16946bd98979695019055612b76565b819391549060031b600019811b9283911b169119161790565b90558551908152a33880808080808080898951f35b634e487b7160e01b8b52604183528afd5b015190503880611454565b9190869450601f1984168684528c8420935b8d8282106115415750508411611528575b505050811b019055611468565b015160001960f88460031b161c1916905538808061151b565b838501518655899790950194938401930161150a565b9193509185815220601f840160051c8101918b85106115a8575b918f92859492601f89920160051c01915b8281106115915750508b61143f565b600091939550809294505501918e91868594611582565b9091508190611571565b634e487b7160e01b8d5260418552858dfd5b634e487b7160e01b8b5260118352838bfd5b634e487b7160e01b8b5260218352838bfd5b6016606492868a519362461bcd60e51b855284015282015275496e76616c696420616e63696c6c617279206461746160501b6044820152fd5b601e606492868a519362461bcd60e51b85528401528201527f556e737570706f72746564206964656e746966696572207265717565737400006044820152fd5b6116819150863d8811611687575b6116798183612683565b810190612a8c565b38611397565b503d61166f565b89513d8c823e3d90fd5b6116b89150823d84116116be575b6116b08183612683565b810190612a6d565b3861136f565b503d6116a6565b8a513d8d823e3d90fd5b606490602088519162461bcd60e51b8352820152601860248201527f43616e206f6e6c79207265717565737420696e207061737400000000000000006044820152fd5b50600a5486516302abf57960e61b815267526567697374727960c01b8682015260209182908290602490829089165afa9081156117aa57859183918b916117b4575b5060248a518094819363f9f6b49b60e01b8352338c840152165afa9081156117aa57611788928a9261178d575b5050612aa4565b611310565b6117a39250803d10611687576116798183612683565b3880611781565b88513d8b823e3d90fd5b6117cb9150823d84116116be576116b08183612683565b38611754565b50346102c55760209182600319360112610a7d578135916001600160401b0383116119835736602384011215611983578201359161180e836126a4565b9261181b83519485612683565b80845260248585019160071b83010191368311610b8c57602401905b8282106119415750505081519161184d836126a4565b9261185a83519485612683565b808452611869601f19916126a4565b0184865b82811061190f57505050845b815181101561190457806118906118ff9284612df7565b515161189c8287612df7565b5152856118a98285612df7565b510151866118b78388612df7565b510152836118c58285612df7565b510151846118d38388612df7565b5101526060806118e38388612df7565b51018551906118f1826125e6565b898252526111048285612df7565b611879565b85836109f486613686565b845161191a81612632565b8881528883820152888682015260608082015288608082015282828801015201859061186d565b608082360312610b8c5785608091855161195a81612617565b843581528285013583820152868501358782015260608086013590820152815201910190611837565b8480fd5b5050346104d157816003193601126104d1576020906104ca6105db6129f2565b50346102c55760803660031901126102c557803590602480356044358551906119cf826125e6565b878252600b546001600160a01b0394906119eb90861615612fa8565b6119f66105bb6129f2565b60038110156109655760010361092357611a116105db6129f2565b95611a1d84868a61431a565b8a526020956003875260028a8c2001888c528752898b2091336000528288528a60002093845480156108ea57868961067b8f8f908f8f928e61066060d49585519889968288019b8c52606435908801523360601b606088015260748701528251928391609488019101612952565b509134610c74576020366003190112610c74578235906001600160401b038211610c745750611ac3610c7093610c659236910161271f565b612e0b565b509190346104d15760803660031901126104d1576024604435843582356064356001600160401b038111610b8c57611b039036908901612701565b93855190611b10826125e6565b878252600b54611b29906001600160a01b031615612fa8565b8415611c3857611b376129f2565b611b4081612ff4565b6003811015611c2657611bf657611b5c90610348600554612be6565b98611b6883858761431a565b8952600360205287892091611b7d8b84614672565b82811015610412576001036103d057505097839160028a8360036109f49b9c9d0155838c5201602052888a20336000526020528589600020556000805160206146d183398151915289518581528a602082015280611bdf33948d830190612975565b0390a4855191611bee836125e6565b878352613220565b875162461bcd60e51b81526020818c0152601d818401526000805160206146f18339815191526044820152606490fd5b634e487b7160e01b8a5260218b52828afd5b88601560649260208a519362461bcd60e51b855284015282015274092dcecc2d8d2c840e0e4deecd2c8cac840d0c2e6d605b1b6044820152fd5b5050346104d157816003193601126104d157600b5490516001600160a01b039091168152602090f35b5050346104d157816003193601126104d1576020906007549051908152f35b5050346104d157816003193601126104d1576020906104ca6129f2565b5050346104d15760203660031901126104d157611cf26125d0565b611cfa61299a565b60018060a01b03166bffffffffffffffffffffffff60a01b600b541617600b5551f35b5050346104d157816003193601126104d1576020906008549051908152f35b508290346104d15760203660031901126104d15781546001600160a01b031680156102c557803b156102c55790828092602486518095819363117c72b360e11b83528635878401525af18015611dc057611d9557828451f35b6001600160401b038211611dad575082528280828451f35b634e487b7160e01b835260419052602482fd5b84513d85823e3d90fd5b50346102c557611dd93661289a565b600b549293926001600160a01b039291908316801561206957611dfd903314612af0565b611e056129f2565b938483116116cf57600a5487516302abf57960e61b8152721259195b9d1a599a595c95da1a5d195b1a5cdd606a1b8184015260209560249392909190879082908690829086165afa80156116c55787918c9161204c575b50848b51809481936390978d1b60e01b83528d88840152165afa90811561168e578a9161202f575b5015611621576120008351116115e857611e9f83858961431a565b92838a5260038652611ebc6113cf8a8c2098610348600554612be6565b828110156115d65715611ece57898951f35b6001908188018098116115c457848b526003875260058a8c208a8155878482015589600382015584548582015501908051906001600160401b0382116115b2578c8291611f1b8554612b3c565b8b601f8211611fd7575b50508a91601f8411600114611f9257926114ed575050600019600383901b1c191690831b179055815492600160401b8410156114dc5750826114c7926114ae927f5d80f93c41e95cacea0b9ce9bb825092d709fa503a70bb26ea3f536bf16946bd98979695019055612b76565b9190869450601f1984168684528c8420935b8d828210611fc1575050841161152857505050811b019055611468565b8385015186558997909501949384019301611fa4565b9193509185815220601f840160051c8101918b8510612025575b918f92859492601f89920160051c01915b8281106120115750508b611f25565b809294919395505501918e91868594612002565b9091508190611ff1565b6120469150863d8811611687576116798183612683565b38611e84565b6120639150823d84116116be576116b08183612683565b38611e5c565b50600a5486516302abf57960e61b815267526567697374727960c01b8682015260209182908290602490829089165afa9081156117aa57859183918b916120e3575b5060248a518094819363f9f6b49b60e01b8352338c840152165afa9081156117aa576120de928a9261178d575050612aa4565b611dfd565b6120fa9150823d84116116be576116b08183612683565b386120ab565b5050346104d157816003193601126104d157602090600c549051908152f35b5050346104d157816003193601126104d157905490516001600160a01b039091168152602090f35b50346102c55760a03660031901126102c5576001600160401b0390604435828111611983576121799036908301612701565b90608435928311611983576121946109f49336908301612701565b91606435916024359035613220565b50346102c5576121b23661287a565b906121bb61299a565b81518484516121c9816125e6565b528351906121d6826125e6565b670de0b6b3a764000080925210156121f057505160065551f35b606490602084519162461bcd60e51b8352820152601d60248201527f4741542070657263656e74616765206d757374206265203c20313030250000006044820152fd5b50346102c557602080600319360112610a7d576001600160401b03918035838111610a795736602382011215610a795780820135938411610a795760249036828683010111610b8c57600b546001600160a01b03959061229590871615612fa8565b61229d6129f2565b916122a783612ff4565b60038110156124a757600103612465576122dd916122cf6122d592600c5492873692016126bb565b9061312a565b919091613026565b8533911603612424576122f68791610348600554612be6565b94858252600285528682209081541561230e57828851f35b85906009541685895180958193634b88b8ad60e11b83525af191821561241a5788926123eb575b505583865260028352600185872001600781036123e0575b50600285872001600681036123d5575b50600554908160001904600211821515166123c45760018501928386116123b35750506123936002939261239c9260011b612bfc565b60085490612bc3565b928552526003828420015538808080858180828851f35b634e487b7160e01b88526011905286fd5b634e487b7160e01b87526011835286fd5b60065490553861235d565b60075490553861234d565b9091508481813d8311612413575b6124038183612683565b8101031261097757519038612335565b503d6123f9565b87513d8a823e3d90fd5b50601b9060649386519362461bcd60e51b85528401528201527f5369676e6174757265206d757374206d617463682073656e64657200000000006044820152fd5b875162461bcd60e51b8152808601879052601d818601527f4f6e6c7920736e617073686f7420696e2072657665616c2070686173650000006044820152606490fd5b634e487b7160e01b8a5260218652848afd5b508234610c74576060366003190112610c74576124d46125d0565b916044356001600160401b0381116102c5576124f2913691016127f8565b8184516124fe816125e6565b526125098151612f42565b90825b815181101561256d57806125236125689284612df7565b515161252f8286612df7565b515260208061253e8386612df7565b5101519061254c8387612df7565b5101528661255a8286612df7565b5101875190610c4a826125e6565b61250c565b60208661257d8560243589613abc565b905190518152f35b50346102c55760603660031901126102c55761259f6125d0565b92604435906001600160401b038211610c745750926125c661257d9260209536910161271f565b9060243590613abc565b600435906001600160a01b038216820361085857565b602081019081106001600160401b0382111761260157604052565b634e487b7160e01b600052604160045260246000fd5b608081019081106001600160401b0382111761260157604052565b60a081019081106001600160401b0382111761260157604052565b606081019081106001600160401b0382111761260157604052565b604081019081106001600160401b0382111761260157604052565b90601f801991011681019081106001600160401b0382111761260157604052565b6001600160401b0381116126015760051b60200190565b9291926001600160401b03821161260157604051916126e4601f8201601f191660200184612683565b829481845281830111610858578281602093846000960137010152565b9080601f830112156108585781602061271c933591016126bb565b90565b9080601f83011215610858578135612736816126a4565b9260409161274683519586612683565b808552602093848087019260051b8401019381851161085857858401925b858410612775575050505050505090565b6001600160401b03843581811161085857860191606080601f19858803011261085857845190808201828110858211176127e35786528a8501358252858501358b830152840135928311610858576127d4868b80969581960101612701565b85820152815201930192612764565b60246000634e487b7160e01b81526041600452fd5b81601f820112156108585780359061280f826126a4565b9260409261281f84519586612683565b808552602091828087019260061b85010193818511610858578301915b84831061284c5750505050505090565b858383031261085857838691825161286381612668565b85358152828601358382015281520192019161283c565b602090600319011261085857604051612892816125e6565b600435815290565b6060600319820112610858576004359160243591604435906001600160401b0382116108585761271c91600401612701565b602090818101828252835180915282604080930194019260009283905b8382106128f95750505050505090565b909192939495865180516004808210156129295750825284015184820152810195830194939291600101906128e9565b634e487b7160e01b895260219052602488fd5b6040906003190112610858576004359060243590565b60005b8381106129655750506000910152565b8181015183820152602001612955565b9060209161298e81518092818552858086019101612952565b601f01601f1916010190565b6001546001600160a01b031633036129ae57565b606460405162461bcd60e51b815260206004820152602060248201527f4f776e61626c653a2063616c6c6572206973206e6f7420746865206f776e65726044820152fd5b6000546001600160a01b03168015612a68576020600491604051928380926329cb924d60e01b82525afa908115612a5c57600091612a2e575090565b906020823d8211612a54575b81612a4760209383612683565b81010312610c7457505190565b3d9150612a3a565b6040513d6000823e3d90fd5b504290565b9081602091031261085857516001600160a01b03811681036108585790565b90816020910312610858575180151581036108585790565b15612aab57565b60405162461bcd60e51b815260206004820152601960248201527f43616c6c6564206d7573742062652072656769737465726564000000000000006044820152606490fd5b15612af757565b60405162461bcd60e51b815260206004820152601f60248201527f43616c6c6572206d757374206265206d696772617465642061646472657373006044820152606490fd5b90600182811c92168015612b6c575b6020831014612b5657565b634e487b7160e01b600052602260045260246000fd5b91607f1691612b4b565b600454811015612bad5760046000527f8a35acfbc15ff81a39ae7d344fd709f28e8600b4aa8c65c6b64bfe7fe36bd19b0190600090565b634e487b7160e01b600052603260045260246000fd5b91908201809211612bd057565b634e487b7160e01b600052601160045260246000fd5b806000190460021181151516612bd05760011b90565b8060001904821181151516612bd0570290565b8115612c19570490565b634e487b7160e01b600052601260045260246000fd5b600b546001600160a01b03908116939291908415612c605750612c56612c5b943314612af0565b614100565b505090565b809450600a541660405180916302abf57960e61b825267526567697374727960c01b600483015281602460209485935afa8015612a5c578291600091612cda575b5060246040518098819363f9f6b49b60e01b8352336004840152165afa8015612a5c57612c5b95612c569260009261178d575050612aa4565b612cf19150823d84116116be576116b08183612683565b38612ca1565b600b546001600160a01b03908116939291908415612d515750612c56612d1e943314612af0565b909115612d29575090565b60405162461bcd60e51b815260206004820152908190612d4d906024830190612975565b0390fd5b809450600a541660405180916302abf57960e61b825267526567697374727960c01b600483015281602460209485935afa8015612a5c578291600091612dcb575b5060246040518098819363f9f6b49b60e01b8352336004840152165afa8015612a5c57612d1e95612c569260009261178d575050612aa4565b612de29150823d84116116be576116b08183612683565b38612d92565b6000198114612bd05760010190565b8051821015612bad5760209160051b010190565b908151612e17816126a4565b92604091612e2783519586612683565b808552612e36601f19916126a4565b0160005b818110612f1e575050612e4e6105db6129f2565b9060005b8151811015612f1857612e658183612df7565b5151612e8f60209182612e788587612df7565b51015187612e868688612df7565b5101519161431a565b6000526003908181528560002091612ea78684614672565b92600480851015612f03575091869184936001612ee8979614600014612eed575050612ed3848b612df7565b5101525b612ee18289612df7565b5152612de8565b612e52565b01549150612efb848b612df7565b510152612ed7565b602190634e487b7160e01b6000525260246000fd5b50505050565b6020908451612f2c81612668565b6000815282600081830152828901015201612e3a565b90612f4c826126a4565b6040612f5a81519283612683565b8382528193612f6b601f19916126a4565b0191600090815b848110612f80575050505050565b6020908451612f8e8161264d565b848152828581830152606087830152828501015201612f72565b15612faf57565b60405162461bcd60e51b815260206004820152601e60248201527f4f6e6c792063616c6c2074686973206966206e6f74206d6967726174656400006044820152606490fd5b61300360019160055490612c0f565b1660038110156130105790565b634e487b7160e01b600052602160045260246000fd5b600581101561301057806130375750565b600181036130845760405162461bcd60e51b815260206004820152601860248201527f45434453413a20696e76616c6964207369676e617475726500000000000000006044820152606490fd5b600281036130d15760405162461bcd60e51b815260206004820152601f60248201527f45434453413a20696e76616c6964207369676e6174757265206c656e677468006044820152606490fd5b6003146130da57565b60405162461bcd60e51b815260206004820152602260248201527f45434453413a20696e76616c6964207369676e6174757265202773272076616c604482015261756560f01b6064820152608490fd5b90604181511460001461315857613154916020820151906060604084015193015160001a90613162565b9091565b5050600090600290565b9291907f7fffffffffffffffffffffffffffffff5d576e7357a4501ddfe92f46681b20a083116131e55791608094939160ff602094604051948552168484015260408301526060820152600093849182805260015afa156131d85781516001600160a01b038116156131d2579190565b50600190565b50604051903d90823e3d90fd5b50505050600090600390565b9061320e916000604051613204816125e6565b5251905190612bc3565b6040519061321b826125e6565b815290565b600b5490949293919061323c906001600160a01b031615612fa8565b81156133dc5761324a6129f2565b61325381612ff4565b6003811015613010576133a95761326f90610348600554612be6565b61327a85838861431a565b906000918252602093600385526040928381206132978482614672565b600481101561339557600103613351579284927f0296c44e55ad4a025c9701a71c746d4275d63dfe301e390a7429551010a8fea19796958b9360028785600361334c9a015585835201895281812033825289522055825185815283878201526000805160206146d18339815191523391806133158d88830190612975565b0390a461333d6133266105db6129f2565b976060835196879687528601526060850190612975565b90838203908401523395612975565b0390a4565b845162461bcd60e51b815260048101889052601e60248201527f43616e6e6f7420636f6d6d697420696e616374697665207265717565737400006044820152606490fd5b634e487b7160e01b83526021600452602483fd5b60405162461bcd60e51b815260206004820152601d60248201526000805160206146f18339815191526044820152606490fd5b60405162461bcd60e51b8152602060048201526015602482015274092dcecc2d8d2c840e0e4deecd2c8cac840d0c2e6d605b1b6044820152606490fd5b6000915b8151831015613681576080806134338585612df7565b5101515161362357506134468383612df7565b515192602093846134578386612df7565b510151604095866134688588612df7565b5101519160606134788689612df7565b510151600b54909390613494906001600160a01b031615612fa8565b83156135e7576134a26129f2565b936134ac85612ff4565b9460039586811015613010576135b5576134cb90610348600554612be6565b946134d783858961431a565b6000528085528a600020906134ec8783614672565b600490818110156135a05760010361355d5750926000805160206146d18339815191529492600283896135569d9e9f999761354e9601558960005201855286600020336000528552866000205585805194859485528401523395830190612975565b0390a4612de8565b919061341d565b8c5162461bcd60e51b8152908101879052601e60248201527f43616e6e6f7420636f6d6d697420696e616374697665207265717565737400006044820152606490fd5b602182634e487b7160e01b6000525260246000fd5b8a5162461bcd60e51b815260048101869052601d60248201526000805160206146f18339815191526044820152606490fd5b885162461bcd60e51b8152600481018490526015602482015274092dcecc2d8d2c840e0e4deecd2c8cac840d0c2e6d605b1b6044820152606490fd5b9261367c8394613637836135569596612df7565b51519060206136468589612df7565b5101516040613655868a612df7565b510151906060613665878b612df7565b51015192613673878b612df7565b51015193613220565b612de8565b915050565b6000915b81518310156136815761369d8383612df7565b51519260206136ac8285612df7565b5101519360406136bc8386612df7565b51015160606136cb8487612df7565b5101519060806136db8588612df7565b510151600b549092906136f7906001600160a01b031615612fa8565b6137026105bb6129f2565b600381101561301057600103613a775761371d6105db6129f2565b92613729828a8761431a565b6000526003602052600260406000200184600052602052604060002033600052806020526040600020918254908115613a3c57604051602081019187835260408201523360601b60608201528c60748201526137b360d487518a609491613797818c6020868a019101612952565b8501918201528360b4918d838201520390810184520182612683565b519020036139f757846000526002602052604060002054156139ba57600085815260026020908152604080832054928555600954905163277166bf60e11b81523360048201526024810193909352919391849060449082906001600160a01b03165afa928315612a5c57600093613966575b509261391898999a9285613907937f3fad5d37ee1be2f58ff1735699121a8ead73c3b70d02fc06d07b0db29854d3b49660405193613862856125e6565b8452600160405160208101908582526020815261387e81612668565b519020910155600360018201916002810161389f8660405161075f816125e6565b51905583600052826020526138c085604060002060405190610785826125e6565b846000528360205260406000209051905501908154808414159182613927575b505061391f575b505051946040519384526020840152608060408401526080830190612975565b9260608201528033930390a4612de8565b919061368a565b5585386138e7565b9091506040600020916040519261393d846125e6565b54835260005260205260406000209060405191613959836125e6565b54809252511138806138e0565b90926020823d6020116139b2575b8161398160209383612683565b81010312610c74575051917f3fad5d37ee1be2f58ff1735699121a8ead73c3b70d02fc06d07b0db29854d3b4613825565b3d9150613974565b60405162461bcd60e51b8152602060048201526015602482015274149bdd5b99081a185cc81b9bc81cdb985c1cda1bdd605a1b6044820152606490fd5b60405162461bcd60e51b815260206004820152601c60248201527f52657665616c6564206461746120213d20636f6d6d69742068617368000000006044820152606490fd5b60405162461bcd60e51b8152602060048201526013602482015272125b9d985b1a59081a185cda081c995d99585b606a1b6044820152606490fd5b60405162461bcd60e51b815260206004820152601d60248201527f43616e6e6f742072657665616c20696e20636f6d6d69742070686173650000006044820152606490fd5b9291926000604051613acd816125e6565b52600b546001600160a01b031680614047575b50613aec6105db6129f2565b82101561401057816000526002602052604060002093613b0a6129f2565b6003860154600954875460405163277166bf60e11b81526001600160a01b038781166004830152602482018390529099949093109693929091169190602089604481865afa988915612a5c57600099613fdb575b5060209060405199613b6f8b6125e6565b8a52602460405180958193630981b24d60e41b835260048301525afa908115612a5c57600091613fa5575b613bc6925060405191613bac836125e6565b8252600160405191613bbd836125e6565b01548152614098565b95604051613bd3816125e6565b600081529060005b8451811015613ec057613c0e613bf18287612df7565b51516020613bff8489612df7565b5101516040612e86858a612df7565b6000526003602052604060002090600382015480600052600283016020528560406000209103613e7b57613c4581613c6b94614359565b6001600160a01b038816600090815260208290526040902060010154613c705750612de8565b613bdb565b8815613d1357613c808288612df7565b515186887f6fb9765a6e4b0dd2aaedad44f9b165a2a64a53ce67a6ec812075faa9220d41bc613cdc6040613cc3886020613cba8288612df7565b51015195612df7565b5101516040519384526060806020860152840190612975565b600060408401526001600160a01b038d16929081900390a45b60018060a01b03881660005260205260006001604082200155612de8565b6001604060002001548b600383015491604051602081019084825260208152613d3b81612668565b51902003613e1857613d9091613d54613d899288614098565b906000604051613d63816125e6565b526000526001840160205260406000209060405191613d81836125e6565b5482526140cc565b80966131f1565b9486613d9c848a612df7565b5151917f6fb9765a6e4b0dd2aaedad44f9b165a2a64a53ce67a6ec812075faa9220d41bc8a613dfb6040613ddf896020613dd68287612df7565b51015194612df7565b5101519351936040519283526060806020850152830190612975565b60408201939093526001600160a01b038d169281900390a4613cf5565b5050613e248288612df7565b515186887f6fb9765a6e4b0dd2aaedad44f9b165a2a64a53ce67a6ec812075faa9220d41bc613e5e6040613cc3886020613cba8288612df7565b600060408401526001600160a01b038d16929081900390a4613cf5565b60405162461bcd60e51b815260206004820152601d60248201527f526574726965766520666f7220766f7465732073616d6520726f756e640000006044820152606490fd5b505095505050905082516000604051613ed8816125e6565b526000604051613ee7816125e6565b52613eef5750565b60095483516040516340c10f1960e01b81526001600160a01b03938416600482015260248101919091529160209183916044918391600091165af1908115612a5c57600091613f86575b5015613f4157565b60405162461bcd60e51b815260206004820152601c60248201527f566f74696e6720746f6b656e2069737375616e6365206661696c6564000000006044820152606490fd5b613f9f915060203d602011611687576116798183612683565b38613f39565b90506020823d602011613fd3575b81613fc060209383612683565b8101031261085857613bc6915190613b9a565b3d9150613fb3565b9098506020813d602011614008575b81613ff760209383612683565b810103126108585751976020613b5e565b3d9150613fea565b60405162461bcd60e51b815260206004820152600f60248201526e125b9d985b1a59081c9bdd5b991259608a1b6044820152606490fd5b33036140535738613ae0565b60405162461bcd60e51b815260206004820152601b60248201527f43616e206f6e6c792063616c6c2066726f6d206d6967726174656400000000006044820152606490fd5b670de0b6b3a7640000916140be9160006040516140b4816125e6565b5251905190612bfc565b046040519061321b826125e6565b60006040516140da816125e6565b5251670de0b6b3a76400008160001904811182151516612bd05761320e92519102612c0f565b9061410b929161431a565b906000918252600360205260409081832061413061412a6105db6129f2565b82614672565b600481101561423a576001810361417c57505082915161414f81612668565b601e81527f43757272656e7420766f74696e6720726f756e64206e6f7420656e6465640000602082015290565b600281036141be575080600260036141ad93015491828752016020526141a76001858720019161458b565b9061424e565b925160019490915061321b826125e6565b600314159050614201578291516141d481612668565b601d81527f5072696365206973207374696c6c20746f20626520766f746564206f6e000000602082015290565b82915161420d81612668565b601981527f507269636520776173206e657665722072657175657374656400000000000000602082015290565b634e487b7160e01b85526021600452602485fd5b919060009060409060008251614263816125e6565b5260648251614271816125e6565b6802b5e3af16b188000081526000845161428a816125e6565b5251049082519161429a836125e6565b82528251906142a8826125e6565b600187015480925251811192836142d6575b5050506000146142cf57506002600192015490565b6000925090565b61430e92935060028701546000528660205280600020908051916142f9836125e6565b5482525191614307836125e6565b82526140cc565b519051103880806142ba565b9190614353906143456040519384926020840196875260408401526060808401526080830190612975565b03601f198101835282612683565b51902090565b60049081810180549060001980831461458357600384019061438861437e835461458b565b600180990161424e565b93901561453f5786549682880197881161452a576143a588612b76565b90549060031b1c9560009687526143dc6114ae6143cf60209b60038d52848660408d200155612b76565b90549060031b1c92612b76565b905580548015614517578301906143f282612b76565b8582549160031b1b191690555555549383549560058186015495019260405195865282860152606060408601528383549361442c85612b3c565b9485606089015283811690816000146144cd5750600114614476575b505050505090807fb1f1bf5aec084730c2c09f66ae2099185eaf6f951ddc113a19aa886a9f5e71b7920390a3565b90809550528184205b8385106144b957505050508101608001817fb1f1bf5aec084730c2c09f66ae2099185eaf6f951ddc113a19aa886a9f5e71b7388080614448565b80548686016080015293820193810161447f565b92505050859450608092507fb1f1bf5aec084730c2c09f66ae2099185eaf6f951ddc113a19aa886a9f5e71b79593915060ff191682840152151560051b8201019192388080614448565b634e487b7160e01b875260318252602487fd5b601190634e487b7160e01b6000525260246000fd5b60405162461bcd60e51b8152602081890181905260248201527f43616e2774207265736f6c766520756e7265736f6c76656420726571756573746044820152606490fd5b505050505050565b90604080519261459a846125e6565b60008094528084526020600281528285205491821561465a576009548451630981b24d60e41b815260048101949094528290849060249082906001600160a01b03165afa92831561465057869361461f575b5061271c9495600280938693845196614604886125e6565b87528352522001915191614617836125e6565b548252614098565b9092508181813d8311614649575b6146378183612683565b81010312610a7957519161271c6145ec565b503d61462d565b84513d88823e3d90fd5b5050509091505161466a816125e6565b600019815290565b600381015490918161468657505050600090565b808210156146be575060026146ae9282600052016020526141a760016040600020019161458b565b50156146b957600290565b600190565b141590506146cb57600190565b60039056fe6beca723245953d9ed92ae4d320d4772838e841161bfff12c78ae4268df525eb43616e6e6f7420636f6d6d697420696e2072657665616c207068617365000000a264697066735822122056d79cc8478ed34f3a6a0e1247f17fca5a79ceee475f04bf72e1149cad5d1c2d64736f6c63430008100033",
  "devdoc": {
    "details": "Handles receiving and resolving price requests via a commit-reveal voting scheme.",
    "kind": "dev",
    "methods": {
      "batchCommit((bytes32,uint256,bytes,bytes32,bytes)[])": {
        "details": "Using `encryptedVote` is optional. If included then commitment is emitted in an event. Look at `project-root/common/Constants.js` for the tested maximum number of commitments that can fit in one transaction.",
        "params": {
          "commits": "struct to encapsulate an `identifier`, `time`, `hash` and optional `encryptedVote`."
        }
      },
      "batchCommit((bytes32,uint256,bytes32,bytes)[])": {
        "details": "Using `encryptedVote` is optional. If included then commitment is stored on chain. Look at `project-root/common/Constants.js` for the tested maximum number of commitments that can fit in one transaction.",
        "params": {
          "commits": "array of structs that encapsulate an `identifier`, `time`, `hash` and optional `encryptedVote`."
        }
      },
      "batchReveal((bytes32,uint256,int256,bytes,int256)[])": {
        "details": "For more info on reveals, review the comment for `revealVote`.",
        "params": {
          "reveals": "array of the Reveal struct which contains an identifier, time, price and salt."
        }
      },
      "batchReveal((bytes32,uint256,int256,int256)[])": {
        "details": "For more information on reveals, review the comment for `revealVote`.",
        "params": {
          "reveals": "array of the Reveal struct which contains an identifier, time, price and salt."
        }
      },
      "commitAndEmitEncryptedVote(bytes32,uint256,bytes,bytes32,bytes)": {
        "details": "An encrypted version of the vote is emitted in an event `EncryptedVote` to allow off-chain infrastructure to retrieve the commit. The contents of `encryptedVote` are never used on chain: it is purely for convenience.",
        "params": {
          "ancillaryData": "arbitrary data appended to a price request to give the voters more info from the caller.",
          "encryptedVote": "offchain encrypted blob containing the voters amount, time and salt.",
          "hash": "keccak256 hash of the price you want to vote for and a `int256 salt`.",
          "identifier": "unique price pair identifier. Eg: BTC/USD price pair.",
          "time": "unix timestamp of for the price request."
        }
      },
      "commitAndEmitEncryptedVote(bytes32,uint256,bytes32,bytes)": {
        "details": "An encrypted version of the vote is emitted in an event `EncryptedVote` to allow off-chain infrastructure to retrieve the commit. The contents of `encryptedVote` are never used on chain: it is purely for convenience.",
        "params": {
          "encryptedVote": "offchain encrypted blob containing the voters amount, time and salt.",
          "hash": "keccak256 hash of the price you want to vote for and a `int256 salt`.",
          "identifier": "unique price pair identifier. Eg: BTC/USD price pair.",
          "time": "unix timestamp of for the price request."
        }
      },
      "commitVote(bytes32,uint256,bytes,bytes32)": {
        "details": "`identifier`, `time` must correspond to a price request that's currently in the commit phase. Commits can be changed.Since transaction data is public, the salt will be revealed with the vote. While this is the systems expected behavior, voters should never reuse salts. If someone else is able to guess the voted price and knows that a salt will be reused, then they can determine the vote pre-reveal.",
        "params": {
          "ancillaryData": "arbitrary data appended to a price request to give the voters more info from the caller.",
          "hash": "keccak256 hash of the `price`, `salt`, voter `address`, `time`, current `roundId`, and `identifier`.",
          "identifier": "uniquely identifies the committed vote. EG BTC/USD price pair.",
          "time": "unix timestamp of the price being voted on."
        }
      },
      "commitVote(bytes32,uint256,bytes32)": {
        "details": "`identifier`, `time` must correspond to a price request that's currently in the commit phase. Commits can be changed.Since transaction data is public, the salt will be revealed with the vote. While this is the systems expected behavior, voters should never reuse salts. If someone else is able to guess the voted price and knows that a salt will be reused, then they can determine the vote pre-reveal.",
        "params": {
          "hash": "keccak256 hash of the `price`, `salt`, voter `address`, `time`, current `roundId`, and `identifier`.",
          "identifier": "uniquely identifies the committed vote. EG BTC/USD price pair.",
          "time": "unix timestamp of the price being voted on."
        }
      },
      "constructor": {
        "params": {
          "_finder": "keeps track of all contracts within the system based on their interfaceName.",
          "_gatPercentage": "of the total token supply that must be used in a vote to create a valid price resolution.",
          "_inflationRate": "percentage inflation per round used to increase token supply of correct voters.",
          "_phaseLength": "length of the commit and reveal phases in seconds.",
          "_rewardsExpirationTimeout": "timeout, in seconds, within which rewards must be claimed.",
          "_timerAddress": "Contract that stores the current time in a testing environment. Must be set to 0x0 for production environments that use live time.",
          "_votingToken": "address of the UMA token contract used to commit votes."
        }
      },
      "getCurrentRoundId()": {
        "returns": {
          "_0": "uint256 representing the unique round ID."
        }
      },
      "getCurrentTime()": {
        "returns": {
          "_0": "uint for the current Testable timestamp."
        }
      },
      "getPendingRequests()": {
        "returns": {
          "_0": "pendingRequests array containing identifiers of type `PendingRequest`. and timestamps for all pending requests."
        }
      },
      "getPrice(bytes32,uint256)": {
        "details": "If the price is not available, the method reverts.",
        "params": {
          "identifier": "uniquely identifies the price requested. eg BTC/USD (encoded as bytes32) could be requested.",
          "time": "unix timestamp for the price request."
        },
        "returns": {
          "_0": "int256 representing the resolved price for the given identifier and timestamp."
        }
      },
      "getPrice(bytes32,uint256,bytes)": {
        "details": "If the price is not available, the method reverts.",
        "params": {
          "ancillaryData": "arbitrary data appended to a price request to give the voters more info from the caller.",
          "identifier": "uniquely identifies the price requested. eg BTC/USD (encoded as bytes32) could be requested.",
          "time": "unix timestamp of for the price request."
        },
        "returns": {
          "_0": "int256 representing the resolved price for the given identifier and timestamp."
        }
      },
      "getPriceRequestStatuses((bytes32,uint256,bytes)[])": {
        "details": "If the status for a particular request is NotRequested, the lastVotingRound will always be 0.",
        "params": {
          "requests": "array of type PendingRequest which includes an identifier and timestamp for each request."
        },
        "returns": {
          "_0": "requestStates a list, in the same order as the input list, giving the status of each of the specified price requests."
        }
      },
      "getVotePhase()": {
        "returns": {
          "_0": "Phase to indicate the current phase. Either { Commit, Reveal, NUM_PHASES_PLACEHOLDER }."
        }
      },
      "hasPrice(bytes32,uint256)": {
        "details": "Time must be in the past and the identifier must be supported.",
        "params": {
          "identifier": "uniquely identifies the price requested. eg BTC/USD (encoded as bytes32) could be requested.",
          "time": "unix timestamp for the price request."
        },
        "returns": {
          "_0": "bool if the DVM has resolved to a price for the given identifier and timestamp."
        }
      },
      "hasPrice(bytes32,uint256,bytes)": {
        "details": "Time must be in the past and the identifier must be supported.",
        "params": {
          "ancillaryData": "arbitrary data appended to a price request to give the voters more info from the caller.",
          "identifier": "uniquely identifies the price requested. eg BTC/USD (encoded as bytes32) could be requested.",
          "time": "unix timestamp of for the price request."
        },
        "returns": {
          "_0": "_hasPrice bool if the DVM has resolved to a price for the given identifier and timestamp."
        }
      },
      "owner()": {
        "details": "Returns the address of the current owner."
      },
      "renounceOwnership()": {
        "details": "Leaves the contract without owner. It will not be possible to call `onlyOwner` functions. Can only be called by the current owner. NOTE: Renouncing ownership will leave the contract without an owner, thereby disabling any functionality that is only available to the owner."
      },
      "requestPrice(bytes32,uint256)": {
        "details": "Time must be in the past and the identifier must be supported.",
        "params": {
          "identifier": "uniquely identifies the price requested. eg BTC/USD (encoded as bytes32) could be requested.",
          "time": "unix timestamp for the price request."
        }
      },
      "requestPrice(bytes32,uint256,bytes)": {
        "details": "Time must be in the past and the identifier must be supported. The length of the ancillary data is limited such that this method abides by the EVM transaction gas limit.",
        "params": {
          "ancillaryData": "arbitrary data appended to a price request to give the voters more info from the caller.",
          "identifier": "uniquely identifies the price requested. eg BTC/USD (encoded as bytes32) could be requested.",
          "time": "unix timestamp for the price request."
        }
      },
      "retrieveRewards(address,uint256,(bytes32,uint256)[])": {
        "details": "Can only retrieve rewards if calling for a valid round and if the call is done within the timeout threshold (not expired).",
        "params": {
          "roundId": "the round from which voting rewards will be retrieved from.",
          "toRetrieve": "array of PendingRequests which rewards are retrieved from.",
          "voterAddress": "voter for which rewards will be retrieved. Does not have to be the caller."
        },
        "returns": {
          "_0": "total amount of rewards returned to the voter."
        }
      },
      "retrieveRewards(address,uint256,(bytes32,uint256,bytes)[])": {
        "details": "Can only retrieve rewards if calling for a valid round and if the call is done within the timeout threshold (not expired). Note that a named return value is used here to avoid a stack to deep error.",
        "params": {
          "roundId": "the round from which voting rewards will be retrieved from.",
          "toRetrieve": "array of PendingRequests which rewards are retrieved from.",
          "voterAddress": "voter for which rewards will be retrieved. Does not have to be the caller."
        },
        "returns": {
          "totalRewardToIssue": "total amount of rewards returned to the voter."
        }
      },
      "revealVote(bytes32,uint256,int256,bytes,int256)": {
        "details": "The revealed `price`, `salt`, `address`, `time`, `roundId`, and `identifier`, must hash to the latest `hash` that `commitVote()` was called with. Only the committer can reveal their vote.",
        "params": {
          "ancillaryData": "arbitrary data appended to a price request to give the voters more info from the caller.",
          "identifier": "voted on in the commit phase. EG BTC/USD price pair.",
          "price": "voted on during the commit phase.",
          "salt": "value used to hide the commitment price during the commit phase.",
          "time": "specifies the unix timestamp of the price being voted on."
        }
      },
      "revealVote(bytes32,uint256,int256,int256)": {
        "details": "The revealed `price`, `salt`, `address`, `time`, `roundId`, and `identifier`, must hash to the latest `hash` that `commitVote()` was called with. Only the committer can reveal their vote.",
        "params": {
          "identifier": "voted on in the commit phase. EG BTC/USD price pair.",
          "price": "voted on during the commit phase.",
          "salt": "value used to hide the commitment price during the commit phase.",
          "time": "specifies the unix timestamp of the price is being voted on."
        }
      },
      "setCurrentTime(uint256)": {
        "details": "Will revert if not running in test mode.",
        "params": {
          "time": "timestamp to set current Testable time to."
        }
      },
      "setGatPercentage((uint256))": {
        "details": "This method is public because calldata structs are not currently supported by solidity.",
        "params": {
          "newGatPercentage": "sets the next round's Gat percentage."
        }
      },
      "setInflationRate((uint256))": {
        "details": "This method is public because calldata structs are not currently supported by solidity.",
        "params": {
          "newInflationRate": "sets the next round's inflation rate."
        }
      },
      "setMigrated(address)": {
        "details": "Can only be called by the contract owner.",
        "params": {
          "newVotingAddress": "the newly migrated contract address."
        }
      },
      "setRewardsExpirationTimeout(uint256)": {
        "details": "This change only applies to rounds that have not yet begun.",
        "params": {
          "NewRewardsExpirationTimeout": "how long a caller can wait before choosing to withdraw their rewards."
        }
      },
      "snapshotCurrentRound(bytes)": {
        "details": "This function can be called multiple times, but only the first call per round into this function or `revealVote` will create the round snapshot. Any later calls will be a no-op. Will revert unless called during reveal period.",
        "params": {
          "signature": "signature required to prove caller is an EOA to prevent flash loans from being included in the snapshot."
        }
      },
      "transferOwnership(address)": {
        "details": "Transfers ownership of the contract to a new account (`newOwner`). Can only be called by the current owner."
      }
    },
    "title": "Voting system for Oracle.",
    "version": 1
  },
  "userdoc": {
    "kind": "user",
    "methods": {
      "batchCommit((bytes32,uint256,bytes,bytes32,bytes)[])": {
        "notice": "Submit a batch of commits in a single transaction."
      },
      "batchCommit((bytes32,uint256,bytes32,bytes)[])": {
        "notice": "Submit a batch of commits in a single transaction."
      },
      "batchReveal((bytes32,uint256,int256,bytes,int256)[])": {
        "notice": "Reveal multiple votes in a single transaction. Look at `project-root/common/Constants.js` for the tested maximum number of reveals. that can fit in one transaction."
      },
      "batchReveal((bytes32,uint256,int256,int256)[])": {
        "notice": "Reveal multiple votes in a single transaction. Look at `project-root/common/Constants.js` for the tested maximum number of reveals. that can fit in one transaction."
      },
      "commitAndEmitEncryptedVote(bytes32,uint256,bytes,bytes32,bytes)": {
        "notice": "commits a vote and logs an event with a data blob, typically an encrypted version of the vote"
      },
      "commitAndEmitEncryptedVote(bytes32,uint256,bytes32,bytes)": {
        "notice": "commits a vote and logs an event with a data blob, typically an encrypted version of the vote"
      },
      "commitVote(bytes32,uint256,bytes,bytes32)": {
        "notice": "Commit a vote for a price request for `identifier` at `time`."
      },
      "commitVote(bytes32,uint256,bytes32)": {
        "notice": "Commit a vote for a price request for `identifier` at `time`."
      },
      "constructor": {
        "notice": "Construct the Voting contract."
      },
      "getCurrentRoundId()": {
        "notice": "Returns the current round ID, as a function of the current time."
      },
      "getCurrentTime()": {
        "notice": "Gets the current time. Will return the last time set in `setCurrentTime` if running in test mode. Otherwise, it will return the block timestamp."
      },
      "getPendingRequests()": {
        "notice": "Gets the queries that are being voted on this round."
      },
      "getPrice(bytes32,uint256)": {
        "notice": "Gets the price for `identifier` and `time` if it has already been requested and resolved."
      },
      "getPrice(bytes32,uint256,bytes)": {
        "notice": "Gets the price for `identifier` and `time` if it has already been requested and resolved."
      },
      "getPriceRequestStatuses((bytes32,uint256,bytes)[])": {
        "notice": "Gets the status of a list of price requests, identified by their identifier and time."
      },
      "getVotePhase()": {
        "notice": "Returns the current voting phase, as a function of the current time."
      },
      "hasPrice(bytes32,uint256)": {
        "notice": "Whether the price for `identifier` and `time` is available."
      },
      "hasPrice(bytes32,uint256,bytes)": {
        "notice": "Whether the price for `identifier` and `time` is available."
      },
      "requestPrice(bytes32,uint256)": {
        "notice": "Enqueues a request (if a request isn't already present) for the given `identifier`, `time` pair."
      },
      "requestPrice(bytes32,uint256,bytes)": {
        "notice": "Enqueues a request (if a request isn't already present) for the given `identifier`, `time` pair."
      },
      "retrieveRewards(address,uint256,(bytes32,uint256)[])": {
        "notice": "Retrieves rewards owed for a set of resolved price requests."
      },
      "retrieveRewards(address,uint256,(bytes32,uint256,bytes)[])": {
        "notice": "Retrieves rewards owed for a set of resolved price requests."
      },
      "revealVote(bytes32,uint256,int256,bytes,int256)": {
        "notice": "Reveal a previously committed vote for `identifier` at `time`."
      },
      "revealVote(bytes32,uint256,int256,int256)": {
        "notice": "Reveal a previously committed vote for `identifier` at `time`."
      },
      "setCurrentTime(uint256)": {
        "notice": "Sets the current time."
      },
      "setGatPercentage((uint256))": {
        "notice": "Resets the Gat percentage. Note: this change only applies to rounds that have not yet begun."
      },
      "setInflationRate((uint256))": {
        "notice": "Resets the inflation rate. Note: this change only applies to rounds that have not yet begun."
      },
      "setMigrated(address)": {
        "notice": "Disables this Voting contract in favor of the migrated one."
      },
      "setRewardsExpirationTimeout(uint256)": {
        "notice": "Resets the rewards expiration timeout."
      },
      "snapshotCurrentRound(bytes)": {
        "notice": "Snapshot the current round's token balances and lock in the inflation rate and GAT."
      }
    },
    "version": 1
  },
  "storageLayout": {
    "storage": [
      {
        "astId": 17751,
        "contract": "contracts/data-verification-mechanism/implementation/Voting.sol:Voting",
        "label": "timerAddress",
        "offset": 0,
        "slot": "0",
        "type": "t_address"
      },
      {
        "astId": 4304,
        "contract": "contracts/data-verification-mechanism/implementation/Voting.sol:Voting",
        "label": "_owner",
        "offset": 0,
        "slot": "1",
        "type": "t_address"
      },
      {
        "astId": 30370,
        "contract": "contracts/data-verification-mechanism/implementation/Voting.sol:Voting",
        "label": "rounds",
        "offset": 0,
        "slot": "2",
        "type": "t_mapping(t_uint256,t_struct(Round)30354_storage)"
      },
      {
        "astId": 30375,
        "contract": "contracts/data-verification-mechanism/implementation/Voting.sol:Voting",
        "label": "priceRequests",
        "offset": 0,
        "slot": "3",
        "type": "t_mapping(t_bytes32,t_struct(PriceRequest)30329_storage)"
      },
      {
        "astId": 30378,
        "contract": "contracts/data-verification-mechanism/implementation/Voting.sol:Voting",
        "label": "pendingPriceRequests",
        "offset": 0,
        "slot": "4",
        "type": "t_array(t_bytes32)dyn_storage"
      },
      {
        "astId": 30381,
        "contract": "contracts/data-verification-mechanism/implementation/Voting.sol:Voting",
        "label": "voteTiming",
        "offset": 0,
        "slot": "5",
        "type": "t_struct(Data)30156_storage"
      },
      {
        "astId": 30384,
        "contract": "contracts/data-verification-mechanism/implementation/Voting.sol:Voting",
        "label": "gatPercentage",
        "offset": 0,
        "slot": "6",
        "type": "t_struct(Unsigned)14666_storage"
      },
      {
        "astId": 30387,
        "contract": "contracts/data-verification-mechanism/implementation/Voting.sol:Voting",
        "label": "inflationRate",
        "offset": 0,
        "slot": "7",
        "type": "t_struct(Unsigned)14666_storage"
      },
      {
        "astId": 30389,
        "contract": "contracts/data-verification-mechanism/implementation/Voting.sol:Voting",
        "label": "rewardsExpirationTimeout",
        "offset": 0,
        "slot": "8",
        "type": "t_uint256"
      },
      {
        "astId": 30392,
        "contract": "contracts/data-verification-mechanism/implementation/Voting.sol:Voting",
        "label": "votingToken",
        "offset": 0,
        "slot": "9",
        "type": "t_contract(VotingToken)32876"
      },
      {
        "astId": 30395,
        "contract": "contracts/data-verification-mechanism/implementation/Voting.sol:Voting",
        "label": "finder",
        "offset": 0,
        "slot": "10",
        "type": "t_contract(FinderInterface)36753"
      },
      {
        "astId": 30397,
        "contract": "contracts/data-verification-mechanism/implementation/Voting.sol:Voting",
        "label": "migratedAddress",
        "offset": 0,
        "slot": "11",
        "type": "t_address"
      },
      {
        "astId": 30418,
        "contract": "contracts/data-verification-mechanism/implementation/Voting.sol:Voting",
        "label": "snapshotMessageHash",
        "offset": 0,
        "slot": "12",
        "type": "t_bytes32"
      }
    ],
    "types": {
      "t_address": {
        "encoding": "inplace",
        "label": "address",
        "numberOfBytes": "20"
      },
      "t_array(t_bytes32)dyn_storage": {
        "base": "t_bytes32",
        "encoding": "dynamic_array",
        "label": "bytes32[]",
        "numberOfBytes": "32"
      },
      "t_bytes32": {
        "encoding": "inplace",
        "label": "bytes32",
        "numberOfBytes": "32"
      },
      "t_bytes_storage": {
        "encoding": "bytes",
        "label": "bytes",
        "numberOfBytes": "32"
      },
      "t_contract(FinderInterface)36753": {
        "encoding": "inplace",
        "label": "contract FinderInterface",
        "numberOfBytes": "20"
      },
      "t_contract(VotingToken)32876": {
        "encoding": "inplace",
        "label": "contract VotingToken",
        "numberOfBytes": "20"
      },
      "t_int256": {
        "encoding": "inplace",
        "label": "int256",
        "numberOfBytes": "32"
      },
      "t_mapping(t_address,t_struct(VoteSubmission)30343_storage)": {
        "encoding": "mapping",
        "key": "t_address",
        "label": "mapping(address => struct Voting.VoteSubmission)",
        "numberOfBytes": "32",
        "value": "t_struct(VoteSubmission)30343_storage"
      },
      "t_mapping(t_bytes32,t_struct(PriceRequest)30329_storage)": {
        "encoding": "mapping",
        "key": "t_bytes32",
        "label": "mapping(bytes32 => struct Voting.PriceRequest)",
        "numberOfBytes": "32",
        "value": "t_struct(PriceRequest)30329_storage"
      },
      "t_mapping(t_int256,t_struct(Unsigned)14666_storage)": {
        "encoding": "mapping",
        "key": "t_int256",
        "label": "mapping(int256 => struct FixedPoint.Unsigned)",
        "numberOfBytes": "32",
        "value": "t_struct(Unsigned)14666_storage"
      },
      "t_mapping(t_uint256,t_struct(Round)30354_storage)": {
        "encoding": "mapping",
        "key": "t_uint256",
        "label": "mapping(uint256 => struct Voting.Round)",
        "numberOfBytes": "32",
        "value": "t_struct(Round)30354_storage"
      },
      "t_mapping(t_uint256,t_struct(VoteInstance)30338_storage)": {
        "encoding": "mapping",
        "key": "t_uint256",
        "label": "mapping(uint256 => struct Voting.VoteInstance)",
        "numberOfBytes": "32",
        "value": "t_struct(VoteInstance)30338_storage"
      },
      "t_struct(Data)28507_storage": {
        "encoding": "inplace",
        "label": "struct ResultComputation.Data",
        "members": [
          {
            "astId": 28501,
            "contract": "contracts/data-verification-mechanism/implementation/Voting.sol:Voting",
            "label": "voteFrequency",
            "offset": 0,
            "slot": "0",
            "type": "t_mapping(t_int256,t_struct(Unsigned)14666_storage)"
          },
          {
            "astId": 28504,
            "contract": "contracts/data-verification-mechanism/implementation/Voting.sol:Voting",
            "label": "totalVotes",
            "offset": 0,
            "slot": "1",
            "type": "t_struct(Unsigned)14666_storage"
          },
          {
            "astId": 28506,
            "contract": "contracts/data-verification-mechanism/implementation/Voting.sol:Voting",
            "label": "currentMode",
            "offset": 0,
            "slot": "2",
            "type": "t_int256"
          }
        ],
        "numberOfBytes": "96"
      },
      "t_struct(Data)30156_storage": {
        "encoding": "inplace",
        "label": "struct VoteTiming.Data",
        "members": [
          {
            "astId": 30155,
            "contract": "contracts/data-verification-mechanism/implementation/Voting.sol:Voting",
            "label": "phaseLength",
            "offset": 0,
            "slot": "0",
            "type": "t_uint256"
          }
        ],
        "numberOfBytes": "32"
      },
      "t_struct(PriceRequest)30329_storage": {
        "encoding": "inplace",
        "label": "struct Voting.PriceRequest",
        "members": [
          {
            "astId": 30315,
            "contract": "contracts/data-verification-mechanism/implementation/Voting.sol:Voting",
            "label": "identifier",
            "offset": 0,
            "slot": "0",
            "type": "t_bytes32"
          },
          {
            "astId": 30317,
            "contract": "contracts/data-verification-mechanism/implementation/Voting.sol:Voting",
            "label": "time",
            "offset": 0,
            "slot": "1",
            "type": "t_uint256"
          },
          {
            "astId": 30322,
            "contract": "contracts/data-verification-mechanism/implementation/Voting.sol:Voting",
            "label": "voteInstances",
            "offset": 0,
            "slot": "2",
            "type": "t_mapping(t_uint256,t_struct(VoteInstance)30338_storage)"
          },
          {
            "astId": 30324,
            "contract": "contracts/data-verification-mechanism/implementation/Voting.sol:Voting",
            "label": "lastVotingRound",
            "offset": 0,
            "slot": "3",
            "type": "t_uint256"
          },
          {
            "astId": 30326,
            "contract": "contracts/data-verification-mechanism/implementation/Voting.sol:Voting",
            "label": "index",
            "offset": 0,
            "slot": "4",
            "type": "t_uint256"
          },
          {
            "astId": 30328,
            "contract": "contracts/data-verification-mechanism/implementation/Voting.sol:Voting",
            "label": "ancillaryData",
            "offset": 0,
            "slot": "5",
            "type": "t_bytes_storage"
          }
        ],
        "numberOfBytes": "192"
      },
      "t_struct(Round)30354_storage": {
        "encoding": "inplace",
        "label": "struct Voting.Round",
        "members": [
          {
            "astId": 30345,
            "contract": "contracts/data-verification-mechanism/implementation/Voting.sol:Voting",
            "label": "snapshotId",
            "offset": 0,
            "slot": "0",
            "type": "t_uint256"
          },
          {
            "astId": 30348,
            "contract": "contracts/data-verification-mechanism/implementation/Voting.sol:Voting",
            "label": "inflationRate",
            "offset": 0,
            "slot": "1",
            "type": "t_struct(Unsigned)14666_storage"
          },
          {
            "astId": 30351,
            "contract": "contracts/data-verification-mechanism/implementation/Voting.sol:Voting",
            "label": "gatPercentage",
            "offset": 0,
            "slot": "2",
            "type": "t_struct(Unsigned)14666_storage"
          },
          {
            "astId": 30353,
            "contract": "contracts/data-verification-mechanism/implementation/Voting.sol:Voting",
            "label": "rewardsExpirationTime",
            "offset": 0,
            "slot": "3",
            "type": "t_uint256"
          }
        ],
        "numberOfBytes": "128"
      },
      "t_struct(Unsigned)14666_storage": {
        "encoding": "inplace",
        "label": "struct FixedPoint.Unsigned",
        "members": [
          {
            "astId": 14665,
            "contract": "contracts/data-verification-mechanism/implementation/Voting.sol:Voting",
            "label": "rawValue",
            "offset": 0,
            "slot": "0",
            "type": "t_uint256"
          }
        ],
        "numberOfBytes": "32"
      },
      "t_struct(VoteInstance)30338_storage": {
        "encoding": "inplace",
        "label": "struct Voting.VoteInstance",
        "members": [
          {
            "astId": 30334,
            "contract": "contracts/data-verification-mechanism/implementation/Voting.sol:Voting",
            "label": "voteSubmissions",
            "offset": 0,
            "slot": "0",
            "type": "t_mapping(t_address,t_struct(VoteSubmission)30343_storage)"
          },
          {
            "astId": 30337,
            "contract": "contracts/data-verification-mechanism/implementation/Voting.sol:Voting",
            "label": "resultComputation",
            "offset": 0,
            "slot": "1",
            "type": "t_struct(Data)28507_storage"
          }
        ],
        "numberOfBytes": "128"
      },
      "t_struct(VoteSubmission)30343_storage": {
        "encoding": "inplace",
        "label": "struct Voting.VoteSubmission",
        "members": [
          {
            "astId": 30340,
            "contract": "contracts/data-verification-mechanism/implementation/Voting.sol:Voting",
            "label": "commit",
            "offset": 0,
            "slot": "0",
            "type": "t_bytes32"
          },
          {
            "astId": 30342,
            "contract": "contracts/data-verification-mechanism/implementation/Voting.sol:Voting",
            "label": "revealHash",
            "offset": 0,
            "slot": "1",
            "type": "t_bytes32"
          }
        ],
        "numberOfBytes": "64"
      },
      "t_uint256": {
        "encoding": "inplace",
        "label": "uint256",
        "numberOfBytes": "32"
      }
    }
  }
}